:020000041000EA
:1000000000B5324B212058609868022188439860DF
:10001000D860186158612E4B002199600221596106
:100020000121F02299502B49196001219960352056
:1000300000F044F80222904214D00621196600F024
:1000400034F8196E01211966002018661A6600F04E
:100050002CF8196E196E196E052000F02FF8012189
:100060000842F9D1002199601B49196000215960AB
:100070001A491B48016001219960EB211966A021F2
:10008000196600F012F800219960164914480160C1
:100090000121996001BC002800D000471248134993
:1000A000086003C880F30888084703B5996A0420EC
:1000B0000142FBD001200142F8D103BD02B5186610
:1000C0001866FFF7F2FF186E186E02BD00000240BE
:1000D000000000180000070000035F00212200005C
:1000E000F4000018222000A00001001008ED00E03C
:1000F00000000000000000000000000074B24E7A12
:1001000000200420F7010010C3010010C5010010F9
:10011000C1010010C1010010C1010010C101001097
:10012000C1010010C1010010C1010010C701001081
:10013000C1010010C1010010C9010010CB01001065
:10014000CD010010CD010010CD010010CD01001037
:10015000CD010010CD010010CD010010CD01001027
:10016000CD010010CD010010CD010010CD01001017
:10017000CD010010CD010010CD010010CD01001007
:10018000CD010010CD010010CD010010CD010010F7
:10019000CD010010CD010010CD010010CD010010E7
:1001A000CD010010CD010010CD010010CD010010D7
:1001B000CD010010CD010010CD010010CD010010C7
:1001C00000BE00BE00BE00BE00BE00BEEFF3058054
:1001D000103800BEF2EB8871F05C0110105D011068
:1001E0003402001090A31AE700201F49086006C8D7
:1001F00081F3088810471D48006800282FD10DA4FE
:100200000ECC002902D000F012F8F9E71849194A7B
:10021000002000E001C19142FCD1174988471749ED
:1002200088471749884700BEFDE701C901C29A42C5
:10023000FBD37047105D0110C0000020781700202C
:10024000C87301100000042000000420C8730110CE
:10025000001004200010042000000000704709482E
:100260000CF0CEFF0047000008ED00E0000000D0D9
:1002700098170020CC32002089BF0010950800108C
:1002800045BF00105756000006005250ABB36053F4
:100290002853011006005250861C030238530110E7
:1002A000060052505422A29D4C530110050052509A
:1002B000DE65F468C8730110F8B5C04610B5064C89
:1002C0002378002B07D1054B002B02D0044800E017
:1002D00000BF0123237010BD981A00200000000009
:1002E000482B0110044B10B5002B03D003490448E0
:1002F00000E000BF10BDC046000000009C1A0020B6
:10030000482B011010B504001F2109F06DFE0022DA
:100310000021200009F080FE0021200009F096FE57
:1003200010BD10B5040009F0A9FE00220121200033
:1003300009F072FE0123A340D022120653625361DA
:1003400010BD10B5040009F099FE00220121200023
:1003500009F062FE0123A340D0221206936210BD71
:1003600070B5040000290CD009F088FE0123A340D9
:10037000D0221206936200220021200009F04CFED8
:1003800070BD09F07BFE0125A540D02636067562BA
:1003900000220021200009F03FFEB561F0E770B5B2
:1003A00000280FD0D024240680256D0465616420C8
:1003B0000AF0ACFF80239B04636164200AF0A6FF6F
:1003C000A56170BDD024240680256D04656164207C
:1003D0000AF09CFF80239B04A36164200AF096FF2F
:1003E000A561EEE710B5002804D001211A20FFF71F
:1003F000B7FF10BD00211A20FFF7B2FFF9E7000098
:1004000010B50E20FFF78DFF0F20FFF78AFF102099
:10041000FFF787FF1120FFF784FF0D20FFF791FF03
:100420000C20FFF78EFF0B20FFF78BFF0A20FFF752
:1004300088FF184918480FF0DFFC0121062009F059
:10044000D3FD0121072009F0CFFD0121042009F08F
:10045000CBFD012009F012FED024240602236362A2
:100460006361092009F00AFE80239B0063626361D7
:10047000002009F003FE012363626361022009F09A
:10048000FDFD04236362636100F0ACFC1A2009F0F7
:10049000F5FD10BDC0C62D0000C00340F8B5DE4616
:1004A00057464E464546E0B50400D0252D0680232C
:1004B000DB019846AB61052000210AF0FBFE6B686A
:1004C0005B0B012633405A42534101273B401B013D
:1004D000227810218A43134323706B681B0B33402F
:1004E0005A4253413B405B01227810318A43134307
:1004F00023706B68DB0A33405A4253413B409B01F7
:10050000227840208243134323706B689B0A334058
:100510005A425341DB0122785F310A401343237072
:1005200043466B6180231B029946AB610520002185
:100530000AF0C0FE6B685B0B33405A4253413B40AC
:100540002278B243134323706B681B0B33405A422B
:1005500053413B409B002278042080468243134352
:1005600023706B68DB0A33405A4253413B405B00C7
:100570002278023883468243134323706B689B0AB8
:1005800033405A4253413B40DB00227806308246DA
:100590008243134323704B466B6180235B02994671
:1005A000AB61052000210AF085FE6B685B0B3340D0
:1005B0005A4253413B406278B243134363706B68C5
:1005C0001B0B33405A4253413B405B006278584614
:1005D0008243134363706B68DB0A33405A425341D2
:1005E0003B409B00627840468243134363706B68D4
:1005F0009B0A33405A4253413B40DB0062785046ED
:100600008243134363704B466B6180239B02994680
:10061000AB61052000210AF04DFE6B685B0B334097
:100620005A4253413B409B0162784020824313432E
:1006300063706B681B0B33405A4253411F403F01AC
:10064000637810218B431F4367706B68DB0A1E4081
:1006500073425E41F601FBB26F310B401E43667080
:100660004B466B612E4B1A68C0239B015340E0221E
:10067000D20113402B4A13602B4B42461A60284B81
:100680001B68DB05FBD526494A681204130C274A70
:10069000D21A096880235B014B40E021C9010B405D
:1006A00020490B60204B042119601D4B1B68DB05A2
:1006B000FBD51B4B5B681B04190C1C4B5B1AE270CF
:1006C000100A2071100C6071120EA271E371190AE8
:1006D0002172190C61721B0EA372D0231B065A687B
:1006E0005209012313405A425341D900A2780820ED
:1006F00082430A43A2705B00D2B202218A431343B1
:10070000A3706378DB06DB0F1B01A2780E318A43EE
:100710001343A370F0BCBB46B246A946A046F8BD41
:1007200000C0044000D0044000E00440FF0F00007F
:10073000F0B5D6464F464646C0B584B0040003AF78
:100740003A4B1A883A80022399460023BB7002AEC6
:100750003280B37001AD2A80AB7069460A808B701D
:10076000D0231B0698464A469A61314B9A4603238A
:100770003A00D021504612F047F943464A465A61A2
:100780009A6103233200F021504612F03DF94346AE
:100790004A465A6180239B00994643464A469A61DD
:1007A00003236A46F021504612F02EF943464A468A
:1007B0005A619A6103232A00D021504612F024F98D
:1007C00043464A465A613B785B027A785200E02100
:1007D00009010B401343BA78D209134323603278DE
:1007E000520273785B000A401A43B378DB091A435C
:1007F00062602A7852026B785B000A401A43AB7839
:10080000DB091A43A2606B461B785B026A4652788A
:1008100052000B4013436A469278D2091343E360B7
:1008200004B0E0BCBA46B146A846F0BD602B01104A
:1008300000C0034010B500F0EDF810BD10B5040085
:100840004378DB0710D463781022110019401A4254
:1008500003D00F4B1B78002B0CD0002903D10C4B7D
:100860001B78002B0DD110BD0022002100200BF0C1
:100870002DFBE8E70020FFF7B5FD054B01221A70BC
:10088000F1E70120FFF7AEFD014B00221A70EAE705
:100890008932002010B584B00EF07EFB64200AF08F
:1008A00035FD37480EF03CFBFFF7AAFD0FF08CF842
:1008B0001B20FFF727FD1A20FFF724FD1A2009F05F
:1008C000DDFBD02424068023DB046362A3611820AF
:1008D00009F0D4FB80235B046362A361192009F053
:1008E000CDFB80239B046362A361052009F0C6FB56
:1008F0002023A36200220121052009F08DFB01AC19
:100900000C22002120000EF0E5F92000FFF7C6FDC3
:100910001C4B9B886A461380617812220A40122A77
:1009200009D018230B40182B0CD0684600F09EFD10
:10093000002004B010BD14480CF062FC030000213C
:1009400008009847163B6A4613700120FFF74AFDDE
:100950000120FFF724FD0D480AF0D8FC02E09620A4
:100960000AF0D4FC01AC2000FFF798FD6378DB07A8
:10097000F5D50022002100200BF0A8FAEFE7C046D1
:10098000482B0110602B011055420000AC0D0000F7
:10099000194B1B68194A126893421BDA0A33164A2C
:1009A0001360154B1B68002B22D1FF33144A1268C9
:1009B00053401B041B0C134A13600F4B1B68002B86
:1009C00018DB1B04104A126853401B0C1B040F4A0F
:1009D000136070470A3B084A13600D4A126893423D
:1009E00001DC054B1A60044B1A68044B1A60D8E707
:1009F0000023DBE70023E4E76C22002068220020CC
:100A00005C0005405C1005402000054020100540BA
:100A10007422002010B5FA21044A490102F08AFA32
:100A2000002800D110BDFFF7B3FFFBE79C2E00208C
:100A300070B5174B1E68002E28D04468C568291C65
:100A4000201C0DF093FF002800D0251CFE218905F5
:100A5000281C0DF08BFF002801D0FE25AD050D49A7
:100A6000281C0DF034FF0DF0DFFF84B20021281C9C
:100A70000DF07CFF002801D0A419A4B2064B1C6025
:100A8000064B1B689C4201DD044B1C6070BDC046D8
:100A900070220020000048427422002068220020BA
:100AA00010B584B0134B01221A700F320021684632
:100AB0000EF010F9FE239B05019303936846FFF7A0
:100AC000B7FF002407E0FFF763FF0BF0ADF9082044
:100AD0000AF01CFC01343D2CF5DD00230193039347
:100AE000044B00221A706846FFF7A2FFFFF750FF81
:100AF00004B010BDC7320020F0B5CE46474680B5E1
:100B000083B0032009F0BAFA082009F0B7FAD0231D
:100B10001B0608225A62F8325A620421032009F0A7
:100B200063FA0421082009F05FFA334F01253D6084
:100B3000324B04221A60324AFF2656621666314C46
:100B40002268120C1204304989460A601A68910022
:100B500089188A002D498C46624411688C46FF2111
:100B6000090460464140090C090480204001024309
:100B700011603A68910089188A00214988464244E8
:100B800011682F008F43024317601B689A00D21828
:100B9000930043441A68954303431D601C4B1B6834
:100BA00073401B041B0C1B4A136023681B0C1B04A3
:100BB0004A461360962000210AF07CFB6B46DC1D40
:100BC000991D200000F024FB2378134A13601A1C9F
:100BD000CD2B00D9CD22323210490A70002B02D120
:100BE0000D4A13600B70AF2040000AF08FFB03B07A
:100BF000C0BCB946B046F0BD482F0020682900208F
:100C00000000054020000540201005400C00054074
:100C10005C0005405C10054070220020A4320020DA
:100C20000902084300B2704770B582B0D024240690
:100C30000125A5616B46187159710B4E022201A95D
:100C4000300011F029FF656102200AF05FFB0335D7
:100C5000A561022201A9300011F01EFF656102208A
:100C60000AF054FB02B070BD00C00340F0B5DE4690
:100C700057464E464546E0B585B006000D0001AC2E
:100C8000002301930822002102A80EF023F8032379
:100C90006B449B46A2235A461370D0231B069946E9
:100CA000012398464B4642469A614D4B9A46594617
:100CB000180011F0F1FE0C2322000021504611F023
:100CC000A3FE4B4642465A6161782078FFF7A8FFA1
:100CD00083B2FF273840B0711B0AF371E178A07826
:100CE000FFF79EFF83B2384030721B0A737261793E
:100CF0002079FFF795FF83B23840B0721B0AF37278
:100D0000E179A079FFF78CFF83B2384030701B0A7D
:100D10007370617A207AFFF783FF80B2404283B21A
:100D20003840B0701B0AF370E17AA07AFFF778FFC1
:100D300083B2384030711B0A73714A4604239361B1
:100D400001225946504611F0A7FE0C232200002133
:100D5000504611F059FE4A460423536161782078C9
:100D6000FFF75EFF83B23840A8711B0AEB71E17890
:100D7000A078FFF755FF83B2384028721B0A6B72C8
:100D800061792079FFF74CFF83B23840A8721B0AC3
:100D9000EB72E179A079FFF743FF83B23840287006
:100DA0001B0A6B70617A207AFFF73AFF80B24042EB
:100DB00083B23840A8701B0AEB70E17AA07AFFF783
:100DC0002FFF83B2384028711B0A6B71434633737F
:100DD0002B7305B0F0BCBB46B246A946A046F0BD99
:100DE00000C0034010B5AE211020FFF71DFF5C21AD
:100DF0001120FFF719FF04211220FFF715FF04212E
:100E00001320FFF711FF00211520FFF70DFFE02150
:100E10001720FFF709FF10BDF0B5C64600B5040066
:100E200013282DD014282FD0122803D0002080BCE6
:100E3000B846F0BD132714239846200009F01EF988
:100E400001263300A340D0252D06AB6200220121EC
:100E5000200009F0E1F8404609F010F9330042465D
:100E600093406B62AB61380009F008F93300BB4076
:100E70006B62AB616B68E3401E4209D00120D6E78C
:100E8000122714239846D8E7122713239846D4E74D
:100E90000020CCE710B51320FFF7BEFF10BD10B542
:100EA0001220FFF7B9FF10BD10B51420FFF7B4FFF3
:100EB00010BD10B501211A20FFF752FA96208000CC
:100EC0000AF024FA08F0BCFC002800D110BD012073
:100ED000FCE710B501F0BAFD10BD0000F0B5C64644
:100EE00000B584B0142338E001330B2B05D801AAD8
:100EF000D25C002AF8D00125F6E718200AF006FA9D
:100F00002F4BDB685B07FBD5D02636060427B7617D
:100F10002B4B984601226B46D91C404611F0BCFD74
:100F20000C2301AA0021404611F06EFD77610C28C8
:100F30003DD10023002100E001330B2B05D801AA8D
:100F4000D25C002AF8D00121F6E7002901D0002D5B
:100F500030D118200AF0DAF923005C1E002B28D0CB
:100F6000002301930822002102A80DF0B3FE6B4676
:100F7000A222DA70124BDB685B07FBD5D0252D0669
:100F80000126AE610E4F01226B46D91C380011F0CC
:100F900083FD0C2301AA0021380011F035FD6E619C
:100FA0000C2802D1002300259FE7002502E0002540
:100FB00000E00025280004B080BCB846F0BDC04663
:100FC00000C0034070B584B003A9484B1A880A805A
:100FD00000238B7002A90A808B7001A90A808B7094
:100FE00069460A808B7032241FE00133022B14D82B
:100FF00003AAD25C002A00D0012101AAD25C002AF7
:1010000000D0012602AAD25C002A00D001256A463F
:10101000D25C002AE9D00120E7E7002905D0002DA5
:1010200003D0002E01D0002857D12300013C002B13
:1010300050D0D0231B0602229A612D4BDB685B0740
:10104000FBD5032303AAD021294811F0DDFC032896
:1010500042D1D0231B0602225A619A61244BDB68DD
:101060005B07FBD5032302AAF021214811F0CCFC39
:10107000032834D1D0231B0602225A61FF32FF32EB
:101080009A611B4BDB685B07FBD503236A46F021A3
:10109000174811F0B9FC032823D1D0231B06802266
:1010A00092005A619A61124BDB685B07FBD5032300
:1010B00001AAD0210E4811F0A7FC032813D1D02398
:1010C0001B06802292005A61002300200026002582
:1010D00000218BE7002000E0002004B070BD00205C
:1010E000FBE70020F9E70020F7E7C046682B011076
:1010F00000C0034010B5FFF7D3FC012010BD012054
:10110000704770B582B0FFF75DFF01AC0126012585
:101110002840030120781022904318432070FFF7E5
:10112000D8FEC30122787F20104018432070FFF7BB
:10113000C0FE28408301207840229043184320704D
:10114000FFF7B2FE28408300207804229043184322
:101150002070FFF79FFE03002B402078B043184318
:101160002070FFF79CFE2840430020780222904325
:1011700018432070FFF7C3FF2840C30020780822DF
:10118000904318432070FFF7A9FE284043012078C0
:101190002022904318432070FFF7ACFF0540607891
:1011A000B04305436570208802B070BD10B5041CC3
:1011B0000348046041608260C360FFF739FC10BDE2
:1011C000FC2F002010B512E00C4B9A6A0C4B1A60F1
:1011D0000C4811F021FC00F087FC094C206805F058
:1011E000FDFD206803F03EFF2068FFF723FB064962
:1011F000044811F039FC0028E6D1ECE70040054036
:10120000CC1F0020381700206C23002070470000FE
:10121000044B7A22FF329A5C02707C22FF329B5C84
:101220000B7070479818002064207047014B002015
:101230001856704798140020F8B504000E001500E9
:10124000254A2649280001F075FE071E1DD0244BB3
:101250001A6824498C466244D11752184A405B6888
:101260006344D9175B184B40642A0BDC0022642BC3
:1012700000DD02001C4B1B88002B05D01A4B0022FE
:101280001A8002E00200F2E71700227863781B025E
:101290001343154A11880B431380114B32681A60AF
:1012A00072685A60114B3A001149280001F055FE4E
:1012B000002807D00F4B1B78002B03D10D4B0122C8
:1012C0001A70F8BD002FFCD00A4B1B78002BF8D009
:1012D000084B00221A70F4E79C29002040420F00BE
:1012E000282F002000F8FFFF7A320020C42E0020B3
:1012F00040787D018F320020014B18787047C0463E
:101300008F32002010B5002803D1074B00221A703D
:1013100010BD0120FFF743F80120FFF763F8024BEF
:1013200001221A70F4E7C0468032002010B5002078
:10133000FFF758F80020FFF732F8002200210020C4
:101340000AF0C4FD10BD000010B5064B1B78002B41
:1013500000D010BD034B01221A70002001F0A8FA42
:10136000F7E7C046AB32002010B5334B1B78002B9B
:1013700039D03249324811F077FB00283BD131484F
:10138000FFF78CF8304B1B78002B3CD104F07EF932
:101390002E4C20682B4905F065FE206801F01EFBED
:1013A00007F0A8FC00283BD0284C2068284904F00E
:1013B00089FC2068274A284907F0C8FC274B0022EF
:1013C0001A70224B1A6824492248FFF735FF244B34
:1013D0001B785BB2012B2AD00AF026FD1B4B186844
:1013E000FFF714FF10BD00211E480AF063FD124BE9
:1013F00001221A70BDE71C4B9A6A144B1A60104800
:1014000011F00AFBBBE70F48FFF718FA0AF00CFDD2
:101410000E4C206801F0E2FA206801F0F5FCE1E7EB
:101420000A4B18680C4A0B4900F090FCC9E7074BBF
:10143000186801F0E9FCCFE7B532002068230020EE
:1014400038170020001B002080320020CC1F002015
:10145000C81A00200C1B0020E81A00208F32002040
:10146000981400204C1D00000040054070B5051E7A
:1014700000D1DCE001F059FD0400FEF7C1FF6C492A
:101480006C480EF07FFE0321162008F0ADFD03210D
:10149000172008F0A9FD6848FFF700F800F080FB6E
:1014A00000282DD0644E3300644A6549654805F034
:1014B000A9FA05F017FDB378DB0626D4E3B2012BB9
:1014C00029D0022B2CD001242C57631C2FD00022B2
:1014D000AA565D4B1A70584B1B789A062BD45A06A5
:1014E00045D4DA0645D45AB2002A44DB5A0744D41C
:1014F0000A221A40022A42D01B071DD503241BE0F2
:101500003221524801F0C2F9CCE7062200215048AE
:101510000DF0E0FBD2E74C4B02221A700024DAE710
:1015200023041B0F484A13702405240FD3E7494BAB
:1015300002241C57CBE70624FFF7DEFA02F010FC6A
:10154000444AE2235B00D65C3F4B1B785BB201331D
:1015500017D06425002001F0A3FBFA2001F036FB30
:10156000E3B2062B3DD8A3003B4AD3589F46012443
:10157000E2E70024E0E70224DEE70524DCE70424B8
:10158000DAE701F0CDFB002804D12F4B02221A70BC
:101590004625DFE72C4B01221A706425DAE72F4835
:1015A000322101F073F92900300001F093F9264B44
:1015B00000215956200000F0D9FB1F4B9B789B0758
:1015C00030D4274A1C49200003F008FF0DF0F0FE3C
:1015D00024480DF0DBFEFFF7C7FEFCE7FF20000606
:1015E000DEE72148DCE7FF200002D9E7002001F018
:1015F000EDFA154B00221A70FF2000041925CFE7E1
:10160000002001F0E3FA104B00221A7017480F2552
:10161000C6E7002001F0DAFA0B4B00221A701448DA
:101620001925BDE70B4B9C7000F0B4FAC9E770BDFB
:10163000400D030008170020001B0020C81A0020DE
:10164000E81A0020D81A0020981400200000FF4D4E
:10165000141A0020981800206C2B011000F115FFBF
:101660000C1B0020C511001000A1A1A100FF61000A
:101670000000FFE6094ABD235B00D35C1A1C312B36
:1016800000D83222054BBD2149005A54DA787A3904
:10169000FF398A43DA709B221A727047981800202B
:1016A00070B5050014006A4B1380012900D070BD8D
:1016B0000223C3569370D01CE91C06220DF010FBC8
:1016C000EB68E3602B6923616B696361AB69A361BC
:1016D00020001C3029001C3120220DF001FB2000CD
:1016E0003C3029003C3120220DF0FAFA20005C3019
:1016F00029005C3120220DF0F3FA20007C30290013
:101700007C3120220DF0ECFA20009C3029009C3125
:1017100006220DF0E5FA2000A2302900A2310622AF
:101720000DF0DEFA2000A8302900A83130220DF09B
:10173000D7FA20002930FF302900D83110220DF0CF
:10174000CFFA20003930FF302900E83110220DF0A7
:10175000C7FA20004930FF302900F83110220DF07F
:10176000BFFA20005930FF3029000931FF31102223
:101770000DF0B6FA20006930FF3029001931FF3131
:1017800010220DF0ADFA94235B00EA5C5033E25472
:101790002A23FF33EA5C7A23FF33E2544F3BEA5CAF
:1017A0005033E2542C23FF33EA5C7C23FF33E254B2
:1017B00020007D30FF3029002D31FF3106220DF051
:1017C0008FFA20008530FF3029003531FF3120228B
:1017D0000DF086FA2000A530FF3029005531FF3189
:1017E00020220DF07DFABA235B00EA5C5033E2540C
:1017F0002000C930FF3029007931FF3118220DF067
:101800006FFAC8235B00EA5C5033E2544E3BEA5A5D
:101810005033E2524E3BEA5A5033E2524E3BEA5AC0
:101820005033E2524E3BEA5A5033E2524E3BEA5AB0
:101830005033E2524E3BEA5A5033E2524E3BEA5AA0
:101840005033E2524E3BEA5A5033E2522FE7C04641
:1018500002A0FFFF064B984204D0064B984203D1EA
:10186000022070470120FCE701204042F9E7C04612
:1018700001A0000002A0000010B512480DF080FB8E
:10188000002407E0104B5B18D97810480DF078FB66
:101890000134E4B2052C0DD80EF05EF82100C0B280
:1018A000094A1219D070002CECD113000122904388
:1018B000D870E7E7044B9B221A720A200DF012FB46
:1018C00010BDC046882B011098180020982B0110DD
:1018D000F0B5DE4657464E464546E0B56F4CA5444A
:1018E000FC256D002A00002102A80DF0F3F96C4BD5
:1018F00002AA1380059B0193DB0FDB0780221201F4
:1019000013430593069B0193DB0FDB0713430693F9
:10191000079B0193DB0FDB0713430793089B01939E
:10192000DB0FDB071A4308925E4F0A975E4E0B9659
:101930005E4C0C945E480D905E490E915E4A0F928B
:101940005E4B10931297139614941590169117925C
:1019500018935B4B19931A931B931C931D931E931F
:101960001F9320932193802202A98B5004328B5025
:1019700004328B5004328B5004328B5004328B5023
:1019800004328B50FF231B049A46A8230A005146B9
:10199000D1504C4B9B46AC235946D1504A4B9946AB
:1019A000B0234946D150FF231B069846B423414635
:1019B000D150FF2636020433D6500433434A02A9DD
:1019C000CA50434F04330A00CF5004335146D1501C
:1019D00004334146D1500433D65004334946D150E4
:1019E0000433D6503B4BD82202A98B5004328B5083
:1019F00004328B5004328B50E823CF50B63B7A220E
:101A0000FF328B5401328B54173AFF3AF1214900CF
:101A100002A8425202314352023142528532FF3211
:101A2000010083522C4C2A0020000DF059F90020AF
:101A300003F09AFC012003F097FC032003F094FCD0
:101A4000042003F091FC052003F08EFC20009C3064
:101A5000062200210DF03EF92000A23006220021CE
:101A60000DF038F9FFF708FFE4235B005246E2501F
:101A700004335A46E25004334A46E25004334246A5
:101A8000E2500433E6500433E75081239B009D4429
:101A9000F0BCBB46B246A946A046F0BDFCFDFFFF28
:101AA00002A0FFFF000034420000B44200000743E0
:101AB00000003443000061430000874300809D43E1
:101AC000000016440000FF4D0000FFE600F115FF86
:101AD00000FF610000A1A1A198180020014B187817
:101AE0007047C046C132002070B5204CA544204B41
:101AF0001B78002B03D180235B019D4470BD0DF04A
:101B00006FFCEFF3108672B61A4B1B78002B24D1B2
:101B1000194C00230093194A002101A80DF0DAF8AE
:101B2000FC225200164968460DF0DAF880256D0156
:101B30002900200010F0A0FF2A006946200010F0C4
:101B40007BFF86F310880DF055FC0E4B1B78002BA5
:101B500006D1074B00221A70CDE796246403D8E71C
:101B600007F088F9074B00221A70F2E700F0FFFF38
:101B7000A9320020C132002000D01200FC0F00006A
:101B800098180020B6320020014B01221A707047CD
:101B9000B6320020014B01221A707047A932002092
:101BA00070B5394B1888394B1D88FFF753FE040078
:101BB0002800FFF74FFE0500631C0BD0022C0FD04E
:101BC000022D0DD0012C2CDD012D2ADD0023002259
:101BD00000262CE0431CF1D100230022012626E040
:101BE000022C05D0022D0FD00023002200261EE07B
:101BF000FC225200244926480DF072F8254B0022A1
:101C00001A700023002612E0FC2252001F492048CF
:101C10000DF066F81F4B01221A70002300220026E7
:101C200005E00123012C15DDDBB201220026002E88
:101C300012D1002A23D0002B18D1164B01221A7082
:101C4000134A21001048FFF72BFD0020FFF7A2FFE9
:101C5000300070BD0023E7E70E4B00221A70FFF73B
:101C600037FE0020FFF796FF0026F1E7094B002220
:101C70001A70074A29000548FFF712FDE5E7FFF74C
:101C8000F9FC0126E4E7C04600D0121000C0121093
:101C900098180020C132002010B5031C642800D918
:101CA000642303497A22FF328B54FEF725FF10BDCF
:101CB0009818002010B5022817D008D800280DD099
:101CC00001280FD10B4AF2235B00D1520AE003280E
:101CD00008D1084AF4235B00D15203E0054AF123FE
:101CE0005B00D15204F01EFB10BD024AF3235B00DF
:101CF000D152F7E79818002030B50F4C4000450846
:101D0000E068C00FC0072843E06049004808216927
:101D1000C90FC90701432161520051086269D20FFE
:101D2000D2070A4362615B005A08A369DB0FDB0735
:101D30001343A36130BDC04698180020062800DD7B
:101D40000020014B987070479818002010B5034B85
:101D50001B68002B00D0984710BDC046B41D002062
:101D6000014B0020185670479032002010B588B003
:101D70000400284B1870022910D00C22002105A85D
:101D80000CF0A8FF1022002101A80CF0A3FFE3B281
:101D9000062B0BD8A400204B1B599F461F4B204AF3
:101DA0001A6007F0E5FD0028E7D005E01B4B1D4A4F
:101DB0001A60002001F084F908B010BD174B194AD1
:101DC0001A60062001F07CF9F6E7144B154A1A60F8
:101DD000012001F075F9EFE7104B124A1A6002205A
:101DE00001F06EF9E8E70D4B0F4A1A6001AA05A948
:101DF0000020FFF7ABFFDFE7084B0C4A1A6001AA8F
:101E000005A90020FFF7A2FFD6E7044B084A1A6095
:101E1000D2E7C04690320020C02B0110B41D002034
:101E2000299C001071310010E5790010E583001045
:101E3000AD890010F0B5C64600B590B004000D00A5
:101E400016001F0016AB1B789846494B984200D1EC
:101E500088E00721380008F0C7F8012300933A0012
:101E6000290020000DF07EFE1022002108A80CF0B1
:101E700031FF80235B020893F8235B0209938023E0
:101E8000DB020A93C0231B030A93102208A904A8AB
:101E90000CF026FFF31C059A039236491140F2011B
:101EA00011431B0319430591079B0393DB00DB08D8
:101EB00080229205134307932F4B1940059110225E
:101EC00004A90CA80CF00CFF0F9B03932B4A1A409B
:101ED000BF0217430F974346002B45D020220E9B8D
:101EE00003932749194080239B020B435206F82194
:101EF00089050A4013430E939B009B088022D2055C
:101F000013430E93052009F0F1FE1E490BF0CCF9A6
:101F10000CF031FD80460CF087FD87B2002F25D0F4
:101F200038000CF028FD011C40460CF0B0FC872165
:101F3000C9050CF0CCFC0CF077FDC0B200023F04E8
:101F400007430C970CAB3200290020000DF05CFE1B
:101F500022680123AB409A431343236010B080BC36
:101F6000B846F0BD062175E71822B8E70020E5E77E
:101F7000000020507F00FEFFFFFFFF9FFF83FFFF59
:101F8000FFFFF5C10050C300014B01221A707047DA
:101F90009F32002070B5244B1B78002B17D1234BA8
:101FA00000221A70204B01321A700024032C09D829
:101FB0000DF0D2FC06210BF077F91D4B19550134B9
:101FC000E4B2F3E71B4B00221A70002427E0194B00
:101FD0001B78002BF9D1184B1A789300D218FA2AE3
:101FE00000D9FA22FF231A409B1A9BB2134A13808E
:101FF000134A13800F4B01221A70E6E70C4D2B5D3C
:1020000072339B000F4A9958A2000F4BD1500DF02C
:10201000A3FC06210BF048F929550134E4B2032C46
:10202000ECD9FFF7B1FF70BD9E320020883200204E
:10203000CC1D0020BD140020BB14002070320020F5
:102040006C3200209818002014220020034B1980C5
:10205000034B1860034B00221A7070476E32002049
:10206000E82100209C32002070B505000C0000889B
:102070000CF081FC1B490CF014FC1B490CF027FCF4
:102080000CF0D2FCC2B22B79A978C943C9B259432A
:10209000090A5B1ADBB23F2528402D1AEDB25843DE
:1020A00080096B439B11DBB20818C0B2CB18DBB2BE
:1020B0003F2A10D9403AD2B23F2A06D81A060B0658
:1020C0001B0A0002134318430AE0090600041B021E
:1020D0000843184304E000061B04090218430843A0
:1020E000206070BD00007F4300003F43F8B5CE463E
:1020F000474680B50400234B1D78002D05D10023F1
:102100000360C0BCB946B046F8BD642DF9D08778ED
:10211000E678B81963789846C0180CF031FC1A4973
:102120000CF0BFFB814628000CF025FC17490CF091
:10213000B8FB051C011C48460CF008FC0028E0D147
:102140004946281C0CF0ADFB051C38000CF013FCB4
:10215000291C0CF0BCFB0CF067FCA07030000CF0EC
:102160000AFC291C0CF0B3FB0CF05EFCE07040464E
:102170000CF001FC291C0CF0AAFB0CF055FC607063
:10218000BFE7C046BA14002000007F430000C842E9
:10219000F0B5D6464F464646C0B504000368002B4E
:1021A00035D083789846C778D819667880190CF0AE
:1021B000E7FB051C40460CF0DEFB8046291C0CF0BA
:1021C00070FB824638000CF0D6FB071C291C0CF073
:1021D00068FB814630000CF0CEFB061C291C0CF07D
:1021E00060FB051C514640460CF071FB0CF01CFCDA
:1021F000A0704946381C0CF06AFB0CF015FCE0702E
:10220000291C301C0CF063FB0CF00EFC6070E0BC71
:10221000BA46B146A846F0BD30B585B01D4B1B7817
:10222000002B0FD10024032C09D80DF095FBFF21C2
:102230000BF03AF8184B19550134E4B2F3E7154B9B
:1022400001221A7000241FE0134D2B5D134A1078F1
:10225000C018FF210BF000F8C9B2295502A801806F
:10226000FF23438083800023019301A9FFF7FCFE35
:1022700001A8FFF73BFF0A48A300019A1A50C018B3
:10228000FFF786FF0134E4B2032CDDD9FFF77CFEB3
:1022900005B030BD9E320020C0210020BB140020BC
:1022A0001422002000220AE0930006495958064BE8
:1022B0005B68DB03FBD4044B19610132D2B2032A01
:1022C000F2D97047EC21002000002050F8B5DE461E
:1022D00057464E464546E0B506000D00141C807872
:1022E0000CF049FB8046F0780CF045FB071C707839
:1022F0000CF041FB061CA8780CF03DFB8346E87807
:102300000CF039FB824668780CF035FB814641467B
:1023100058460CF0BCFA211C0CF0D9FA41460CF0DE
:10232000BBFA051C391C50460CF0B1FA211C0CF00C
:10233000CEFA391C0CF0B0FA071C311C48460CF0E0
:10234000A6FA211C0CF0C3FA311C0CF0A5FA061CED
:10235000281C0CF069FBC5B2381C0CF065FBC4B23C
:10236000301C0CF061FBC0B22D040002240628438F
:102370002043F0BCBB46B246A946A046F8BD0000CB
:1023800010B5044B1870044B00221A70FFF7FCFDC7
:1023900010BDC046A13200209E320020F8B5284B67
:1023A0001D8828000CF0ECFA011CFE2080050CF0C2
:1023B00078FA041C234B1B78002B0CD0224A234BA9
:1023C00043CB43C21B6813600023214A13701D4A8C
:1023D0001370204A13701E4B1E78B54204D21D4B59
:1023E000187800281ED0F8BD30000CF0C4FA211C6B
:1023F0000CF06DFA051C00240BE0A7001649C91962
:102400001148C0192A1CFFF761FF104BD851013445
:10241000E4B2032CF1D901360D4B1E70FFF742FFD9
:102420000020E0E7094A0C4B13CB13C21B68136072
:10243000FFF738FF074B01221A700120D3E7C0468F
:102440006C3200209F32002004220020EC2100206A
:10245000BF140020BC14002014220020F0B5C64692
:1024600000B506000F001500984600240AE0335D11
:102470009B004246EA50305D80002818FFF788FE36
:102480000134E4B2BC42F2D380BCB846F0BD0000D7
:10249000031C642800D96423014A13707047C046A6
:1024A000BA14002030B583B0050000240CE001957B
:1024B00001A8FFF71BFE0648A300019A1A50C01896
:1024C000FFF766FE0134E4B2032CF0D903B030BD4F
:1024D0001422002010B509480388094A12789B1875
:1024E000FF2213400380074C2100FFF7BDFD206849
:1024F000FFF7D8FFFFF748FD10BDC046B414002019
:10250000BB140020BC21002010B51A4B1B78002BF7
:1025100017D1194A1370174A01211170174A137005
:10252000154C237872339B00154A9858FFF7BAFF71
:102530002078013006210AF08FFE2170FFF724FD7C
:1025400010BD0E4B1B78002BEAD10E4B1B789A0066
:102550009B18FA2B00D9FA23FF221A40FF239B1A5B
:102560009BB2094A1380094A1380044B01221A7056
:10257000D6E7C0469E32002088320020BE140020DC
:1025800098180020BB140020703200206C3200200C
:1025900010B50F4B1B78002B10D10E4B1B68002B76
:1025A00002D10C4B0C4A1A600A4B1868FFF77AFFED
:1025B000FFF7EAFC064B01221A7010BD0020FFF75E
:1025C00071FFFFF7E1FC024B00221A70F5E7C046ED
:1025D000BF320020FC2100200000FFE670B5184B40
:1025E0001C78002C05D0174B1B78002B19D020002D
:1025F00070BD154B154A23CA23C3190013680B601D
:10260000134B1868FFF74EFF124B1A88124B1A80B3
:10261000FFF7BAFC0A4B01221A700A4B00221A700B
:10262000E5E70E4B084A23CA23C3190013680B6061
:10263000FFF7AAFC034A137801331370D7E7C046AB
:102640009C320020C5320020EC2F0020EC2100201D
:10265000002200206E3200206C3200201422002064
:1026600070B50E4B1C78002C08D00D4B1D78002D3A
:1026700011D0FEF75BFE2C00200070BD0020FFF79C
:1026800011FFFFF781FC074B1A88074B1A80034B99
:1026900001221A70F0E700F043FAEDE79C320020C7
:1026A000A23200206E3200206C32002070B50C0087
:1026B0000F2803D88000284B1B589F460126274D22
:1026C0002BE00126264D28E00126264D25E0012697
:1026D000254D22E00126254D1FE00126244D1CE05A
:1026E0000126244D19E00126234D16E00126234D35
:1026F00013E00126224D10E00126224D0DE00126B7
:10270000214D0AE00126214D07E00126204D04E07D
:102710000126204D01E004261F4D002A12D023007F
:102720001E4A31002800FFF799FE23001C4A3100A1
:102730002800FFF793FE23001A4A31002800FFF714
:102740008DFE70BD2300164A31002800FFF786FE7B
:10275000FFF71AFCF5E7C046DC2B0110602C0110D6
:10276000402C0110502C01103C2C0110442C011065
:10277000582C0110682C0110642C0110342C01100D
:10278000382C0110482C01106C2C01105C2C01100D
:10279000702C0110542C01104C2C0110042200202C
:1027A00014220020EC21002070B50C4B1968402247
:1027B0000B480CF095FA00240CE0A300084DED182E
:1027C0002800FFF793FC296800222000FFF76EFF26
:1027D0000134E4B20F2CF0D970BDC0462422002091
:1027E0002822002010B5024B1860FFF7DDFF10BD56
:1027F0002422002010B5074B1B78002B00D010BD01
:102800000548FFF7EFFFFFF7BFFB024B01221A70ED
:10281000F5E7C0469E32002040190020144AF023FC
:102820005B00D35C834209D0002B03D1E133FF333B
:102830000521D1540E4AF0235B00D0540C4AF023FA
:102840005B00D25C0B4B1A700B4B1B78052B0AD02C
:102850000A4B15221A80094B1A88094B1A80094B1A
:1028600000221A707047084B1A88044B1A80F2E74E
:1028700098180020BB1400209D32002070320020E8
:102880006C3200209E3200207232002010B5054BC1
:1028900018604908044C2000FFF7D8FB034B1C606C
:1028A00010BDC04600220020DD250010E8210020D8
:1028B00010B5054B1870054B00221A600A21044818
:1028C000FFF7C4FB10BDC046A2320020E421002067
:1028D0006126001070B582B004000D00254B1B78F6
:1028E000002B0CD0244B1C700023244A1370244A64
:1028F0001370052C16D8A400224B1B599F46224E5C
:10290000224930000DF012F9020000230093153324
:1029100000213000FFF78EFA164B01221A70FFF7E4
:10292000C1FCDFE71A4B1B4A1A601B4AF0235B000D
:10293000D05CFFF773FF002D15DA02B070BD144BA9
:10294000164A1A60F1E7124B154A1A60EDE7104B70
:10295000144A1A60E9E70E4B134A1A60E5E70C4B7C
:10296000124A1A60E1E7FF2D00DDFF25E8B2FFF70C
:102970008FFDE2E7A03200209D3200209E32002031
:10298000A33200201C2C011000002050742C0110D8
:10299000E4210020F527001098180020D52400100D
:1029A000192200109125001009250010951F001014
:1029B00010B5FF2903DC002902DA152100E0FF2110
:1029C000044B1980044B186064210520FFF782FF37
:1029D00010BDC04672320020FC21002010B5144A00
:1029E000144900F0A7FA002800D110BDFFF7D6FC6B
:1029F000002803D1104B1B78002BF6D00F4B1B681F
:102A0000002B0ED098470028EFD000240B4B1C6001
:102A10000B4AF0235B00D05CFFF700FF094B1C70F2
:102A2000E3E7094B1B68002BDFD09847DDE7C04682
:102A3000A42E00201A410000A3320020E82100202B
:102A4000981800209E320020E421002000B587B0B5
:102A50002C4B1B7805AA137004AA137008F026FDEE
:102A600002000B1E2CDB2848002112184B41002BC2
:102A70002CDB002B2EDB029203930123009305AA8B
:102A80006A2122480DF0AAFB08F010FD02000B1E7F
:102A900026DB1D48002112184B41002B26DB002BA2
:102AA00028DB0292039300230093013304AA6A21D6
:102AB00016480DF0B2FB002822DD012007B000BD52
:102AC000134B144A3F21144809F040FA01225242A4
:102AD000124BCEE70E4B0F4A3F210F4809F036FA52
:102AE0000B4B0C4A3F210C4809F030FA01225242AC
:102AF0000A4BD4E7064B074A3F21074809F026FA5C
:102B00000020DBE72C3601101027000008170020FA
:102B1000842C0110042D0110A02C0110FFFFFF7F59
:102B200010B586B00020FDF75DFC00241CE0204BB2
:102B3000204A3F21204809F009FA002B28DB0292A5
:102B4000039300230093023305AA6A211B480DF06A
:102B500045FB0400831C21D0431C22D0FA208000B6
:102B600008F0D4FBFEF7E2FB002C1DD105AB144AA4
:102B70001A8008F09BFC02000B1ED8DB11480021D4
:102B800012184B41002BD8DA012252420E4BD4E7E7
:102B9000074B084A3F21084809F0D8F9FEF7C6FB61
:102BA000DCE7FEF7C3FBD9E7FEF7C0FB06B010BDBC
:102BB000842C0110042D0110A02C011008170020F6
:102BC0000941000010270000FFFFFF7F10B586B00D
:102BD0000400244B1880232824D8C0B20538C0B282
:102BE0007F231840002C00D1852005AB04221A70E9
:102BF000587008F05BFC02000B1E22DB1A48002113
:102C000012184B41002B22DB002B24DB0292039392
:102C100000230093023305AA6A2114480DF0DEFA5E
:102C200006B010BDAF235B00984207D828380A21B0
:102C30000AF012FBC0B21F30C0B2D1E7AF20400093
:102C4000F4E70B4B0B4A3F210B4809F07FF90122B7
:102C500052420A4BD8E7064B064A3F21064809F084
:102C600075F9C046783200201027000008170020B0
:102C7000842C0110042D0110A02C0110FFFFFF7FF8
:102C800070B5064B1D880020FFF7A0FFFEF7CCFAB9
:102C900004002800FFF79AFF200070BD7832002062
:102CA00000B587B002281DD0E02205AB0A211970BB
:102CB0005A7008F0FBFB02000B1E15DB12480021C6
:102CC00012184B41002B15DB002B17DB02920393EC
:102CD00000230093023305AA6A210C480DF07EFA06
:102CE00007B000BDE422E0E7094B0A4A3F210A4849
:102CF00009F02CF901225242084BE5E7044B054A42
:102D00003F21054809F022F910270000081700208C
:102D1000842C0110042D0110A02C0110FFFFFF7F57
:102D200000B587B0304B1B7805AA137004AA137046
:102D300008F0BCFB02000B1E33DB2C4800211218EC
:102D40004B41002B33DB002B35DB02920393012335
:102D5000009305AA6A2126480DF040FA08F0A6FB68
:102D600002000B1E2DDB2148002112184B41002BC5
:102D70002DDB002B2FDB0292039300230093013302
:102D800004AA6A211A480DF048FA0230012828D90D
:102D900004AB1A78174B1A70D0B2C007C00F07B037
:102DA00000BD154B154A3F21154809F0CFF8012207
:102DB0005242144BC7E7104B104A3F21104809F00C
:102DC000C5F80D4B0D4A3F210D4809F0BFF801220F
:102DD00052420C4BCDE7084B084A3F21084809F006
:102DE000B5F80120DBE7C0462C36011010270000A3
:102DF0000817002008250020842C0110042D011044
:102E0000A02C0110FFFFFF7F10B5FA212B4A090209
:102E100000F090F8002800D110BDFFF781FF284B8B
:102E2000187000281AD0274B1B78002B19D0254B7F
:102E30001B78002B20D1234B1B78002BECD0224B8E
:102E40001B785B069A0F214909788A42E4D0022A4E
:102E500022D9032A23D1FF20000222E0FEF774FAD0
:102E6000E1E7FEF749FA0028E1D0184B00221A707A
:102E7000144B01321A70DEE7FEF73EFA0028DAD171
:102E8000104B00221A70124AE2235B00D05C012131
:102E90004942FFF71FFDCEE753B2002B07D1FF20B9
:102EA00000040A4B1A706421FFF782FDB4E7FF2388
:102EB0001B04E62000061843F3E7C046EC2E002072
:102EC00086320020C232002008250020BC320020BB
:102ED0009818002010B500220021002008F0F6FF0D
:102EE000FEE70000072804D88000024B9C4660449F
:102EF000016070470C80054010B5072802D90024F6
:102F0000200010BD8000044B9C46604404680021F2
:102F10000520FFF7E7FFF3E70C80054010B501003F
:102F20000520FFF7DFFFFFF7D5FF10B50520FFF7FE
:102F3000E3FF10BD10605368834205D9C31A013BFB
:102F40008B4205D200207047834204D2C31AF7E7B0
:102F500050600120F7E70020F5E730B51860002A3F
:102F60000BD15C6884420BD9041B013C0025002D69
:102F70000BD1A14209D9100030BD58600020FBE7F9
:102F8000844205D2041B0025F1E758600120F3E7D5
:102F90001000F1E710B5FEF7E3FE022801D0024869
:102FA00010BD0248FCE7C0461C2D01100C2E01107C
:102FB00010B500200EF0B4FC10BD000010B51021BB
:102FC00006480FF061FD002800D110BD044B01221E
:102FD0001A7002480FF020FDF7E7C04640170020A6
:102FE000B332002010B5102106480FF04DFD002827
:102FF00000D110BD044B00221A7002480FF00CFDE6
:10300000F7E7C04640170020B332002070B5050036
:1030100064210D480FF0E8FC041E09D10B4B22007F
:103020000B492800FFF799FF051E08D1200070BD4D
:10303000084B1C78E4B204480FF0EEFCEEE7FFF713
:10304000BDFF2C00F2E7C046401700200C300020E6
:10305000A0860100B3320020037801330370044BD3
:103060001B785BB2022B01D0024870470248FCE794
:103070007C150020542F01108C3001100C4B18606F
:103080000C4B98420BD00C4B98420CD0FA235B00AF
:10309000984200D07047094B01221A60FAE7074BAB
:1030A00004221A60F6E7054B08221A60F2E7C046D0
:1030B0009C230020461000008D2000009423002057
:1030C00010B50400002001F0C7FF022C2CD0062C04
:1030D0001DD0012C10D0012001F0BEFF1848FFF7D1
:1030E000CDFF184B184A1A60184B194A1A60194B31
:1030F0001C700FF021F810BDFA204000FFF7BEFF52
:10310000104B154A1A60114B144A1A60EFE7012060
:1031100001F0A2FF1248FFF7B1FF0A4B114A1A60F3
:103120000A4B0B4A1A60E2E7FA204000FFF7A6FFBD
:10313000044B0D4A1A60054B0C4A1A60D7E7C0468B
:103140008D200000982300203D8B0010A02300203C
:10315000B12F00107C150020B99600100D3800101A
:1031600046100000159E001079710010993C001067
:10317000F8B506000C0015000120002140420DF0BA
:1031800043FF234B9F6C234B1B68BB421CD2FB1A93
:10319000214A12689A4202D8204B01221A70204B11
:1031A0001968204A3000FFF7C5FE002802D01E4BE8
:1031B00001221A701D4B1B78002B0AD11C4B1B6877
:1031C00098471A4B1870F8BDFB1A1A4A9446634484
:1031D000DEE73000FFF71AFF0028F4D00F4B1B7812
:1031E000002BF0D0104B1B78002BECD0094B1F604C
:1031F00000230A4A13700C4A13700C4A1370FFF72D
:10320000F1FE0D4B1B68290020009847DBE7C04604
:1032100000001150982A002094230020C032002082
:103220009C23002064320020C9320020B4320020E8
:10323000A0230020FF07000098230020084B1B78E4
:103240005BB2022B07D0062B07D0012B01D005481B
:1032500070470548FCE70548FAE70548F8E7C04627
:103260007C150020303801109C2F0110783001109F
:103270006C410110084B1B785BB2022B07D0062B68
:1032800007D0012B01D0054870470548FCE70548E9
:10329000FAE70548F8E7C0467C150020F037011032
:1032A0006C2F01104C30011040410110002070477C
:1032B00010B5134B1B785BB2022B13D0062B18D022
:1032C000002B05D00B78002B0FD1FFF777FE0CE019
:1032D0000B78302B03D0212B01D0812B05D1FFF7A8
:1032E0006DFE02E00B78212B00D010BDFFF766FECB
:1032F000FBE70B78012BF8D1FFF760FEF5E7C0463E
:103300007C15002070B504AC25882E4C247864B25E
:10331000012C2DD0022C12D0002C00D070BD002921
:10332000FCD1002AFAD11878102804D02A001900FC
:1033300001F0ACF8F2E7981C00F0D8FDEEE70029A8
:10334000ECD1002AEAD11A78112A05D0132AE5D146
:103350001D480BF015FEE1E75B78002B06D01B49FA
:103360000B1C1B4A1B48FDF721FFD7E70021F7E79D
:103370000029D3D1002AD1D11A78002ACED15A7887
:10338000082ACBD1DA78002A02D11979002911D084
:103390001B79101C9A4200D2181CC0B20BF0EBFA39
:1033A0000D490BF07EFA011C031C094A0948FDF780
:1033B000FDFEB3E70020031C021C011CFDF7F6FE16
:1033C000ACE7C0467C150020D02E01106666263F73
:1033D000000020420000F04200007F43064B1B78B3
:1033E0005BB2022B03D0062B03D10448704704487C
:1033F000FCE70448FAE7C0467C1500208041011034
:10340000E02F01104438011070B5EE2824D00028B8
:1034100025D080001E4BC55828000FF0B3FAC0B26B
:103420001F2800D91F20002327E05A1C194CA15C3B
:103430000902E25C0A434400174962520233013038
:10344000112BF2D9154A144B13CB13C211001A6871
:103450000A609B888B8019E000200023F0E70C4B6A
:10346000196802220E480BF03BFC012007E05A1CB1
:10347000EC5C5100094BCC52D3B29842F7D80130E2
:103480004000C0239B001843044B1880034870BDC4
:10349000A0140020142F0110B41A0020D81D002001
:1034A000DA1D002000B591B04022694600200EF0E0
:1034B000C5FC00200EF0D8FC064B1B785BB2002B3D
:1034C00001D011B000BD04480BF02AFD684605F09C
:1034D000F5FCF6E77C150020E82E0110F0B583B06E
:1034E00005001400012966D113785B069B0F012BA0
:1034F00058D0022B03D0002B01D000205CE0637871
:10350000022B24D0072B03D0012B19D0002053E02D
:10351000227963791B021343042B03D0052B08D0B7
:10352000002049E02433264A210028000DF090FEB7
:1035300042E08D33234A210028000DF089FE3BE054
:103540002823214A210028000DF082FE34E0227950
:1035500063791B021343072B30D11C4B1B785BB2E2
:10356000022B0FD06B469F1D194E022231003800EE
:103570000BF0B6FB3B883200083A210028000DF022
:1035800067FE19E06B469F1D124E02223100380083
:103590000BF0A6FB3B883200083A210028000DF012
:1035A00057FE09E051780C480BF0EAFC2100280096
:1035B0000DF032FE00E0012003B0F0BD0020FBE77B
:1035C00054150020C0140020282F01107C15002065
:1035D000602D0110382E0110002F0110012815D088
:1035E000022907D000290BD1022A29D0002A29D08C
:1035F00006207047022A1FD0002A1FD00800F8E7D3
:10360000022A21D0002A21D00820F2E7022907D07F
:1036100000290BD1022A1FD0002A1FD00720E8E77B
:10362000022A15D0002A15D00320E2E7022AE0D0B2
:10363000002A15D00020DCE70120DAE70320D8E7D4
:103640000720D6E70520D4E70020D2E70420D0E702
:103650001000CEE70420CCE70820CAE70620C8E720
:103660000520C6E70120704710B5842200210248DA
:103670000BF030FB10BDC046C427002010B5002061
:10368000FFF7F2FF10BD0000F0B5C64600B580465A
:103690000D008B795D2B24D10B79DF00FF1ABFB2AF
:1036A0001937BFB2974221D80C780C19002605E0D3
:1036B000104A53700136F6B22378E4182B79B342DE
:1036C00010D96378052BF7D1210040460DF0CAF9D7
:1036D00000280DD0A378DA09012AE9D0054A9370B1
:1036E000E8E70027380080BCB846F0BD0027F9E7BE
:1036F0000027F7E7C427002030B583B00400144842
:103700004078884206D0124A92788A420CD0012032
:1037100003B030BD0F4A002A18D09AB20E490020DB
:10372000FFF7C6FD0120F3E70C4D9BB200932B0081
:10373000002200210020FFF7E5FD2B00443B997893
:1037400040232A0020000DF001FAE1E70120DFE725
:10375000C4270020B1320010C8270020082800200C
:1037600010B50DF0E3F8002803D10023002B08D199
:1037700010BD0DF0E3F8002801D10123F6E7002386
:10378000F4E70B4B997800200DF01CFA0028EFD1DC
:10379000074CA1780DF0B2F922004432A178402301
:1037A00000200DF0D3F9A17800200DF0BBF9DFE780
:1037B000C427002070B505000C000DF0BFF80028EC
:1037C00006D1812100200DF099F9002803D170BDA8
:1037D0000DF0BCF8F5E7231C402C00D940239CB227
:1037E000094E2200290030000BF07AFA351F697863
:1037F0002300320000200DF0A9F9697800200DF0B7
:1038000091F9FFF7ADFFE2E7C827002010B5104B94
:103810005C780DF08BF8002806D10023002B13D024
:10382000002C09D1002010E00DF088F8002801D10B
:103830000123F3E70023F1E7210000200DF0C2F996
:10384000002803D1013000E0002010BD0020FCE77B
:10385000C427002010B53C22002102480BF03AFAA0
:1038600010BDC046741E002010B50020FFF7F2FF07
:1038700010BD0000F0B583B006000F001500FEF784
:103880006FFA02284CD13B79DC00E41AA4B212345E
:10389000A4B2AC4248D80023002B09D00025002D4B
:1038A00044D0397879184B78212B11D0002438E096
:1038B0001A01D21A92001F4882185278002A02D0A8
:1038C0000133DBB2E8E71A01D11A89004518E6E7AF
:1038D000A9630B78C9183A796B1C0193AB1C009350
:1038E000032330000DF0D8F8002821D0BB79012B3C
:1038F00013D001232B71BB782B70AA6BD179137A6B
:103900001B020B43EB80A97800290AD02A00303231
:10391000062330000DF01AF903E0FB79EB70E8E7BD
:103920000024200003B0F0BD0024FAE70024F8E7EB
:103930000024F6E7741E002070B582B005001D4C0F
:10394000002000280AD0002830D162788A4213D0A3
:10395000A2788A421AD0012002B070BD0401241A54
:10396000A400144A1419A2788A42ECD062788A42E0
:10397000E9D00130C0B2E4E70F4A002A18D0210094
:1039800008319AB2FFF794FC0120E5E726003036B3
:103990009BB20093330000220021FFF7B3FCA17813
:1039A0000623320028000DF0D1F8D5E70020D3E738
:1039B0000120D1E7741E0020B1320010F0B5C646D8
:1039C00000B582B00600150012781F231340012BAA
:1039D00000D01FE128790024002C0DD0FF24002CFA
:1039E00000D01CE12700602318001040134239D199
:1039F00001290BD001200EE123011B1B9B008E4FE0
:103A0000DB5D9842EBD00134E4B2E5E7EA786B780D
:103A1000062B06D0062B00D005E1222A12D000206A
:103A2000F9E0212AF6D123011F1BBF00824BDF19C9
:103A3000BA6B002A00D1F4E01378290030000DF0B1
:103A400007FCE8E02000FFF7C9FC02003B01DF1B98
:103A5000BF00794BDF19FB88290030000DF0F8FB1F
:103A60000120D8E0202800D0DFE06B780B2B00D9B4
:103A7000DDE09B00714AD3589F46012901D0012007
:103A8000C9E0EA78A97823011B1B9B0008336A4F21
:103A9000FF18A879EB791B020343181C252B00D9CA
:103AA000252080B2002909D0012B16D97B1C9C4609
:103AB0003970013880B20123984602E0BC460023E9
:103AC0009846009063462000FFF7F0FB0300434454
:103AD0009BB2002B05D100209DE0BC4600239846F8
:103AE000EFE73A00290030000DF0B2FB012092E030
:103AF000012903D0032915D001208CE0AA79EB79A4
:103B00001B021343062B01D9002084E02201121B63
:103B10009200303248498A18290030000DF098FB95
:103B2000012078E0EA78A97823011B1B9B00303341
:103B30004148C318AE79E87900023043051C0628D5
:103B400000D90625ADB2002904D0012802D9187881
:103B5000884205D000952000FFF7D4FB01205AE0F1
:103B60000133013DADB2F5E7012901D0012052E05A
:103B7000E97823011F1BBF002F4BDF197971304BF0
:103B8000002B04D0200000E000BF002843D0290013
:103B900030000DF041FB01203DE0012901D0012062
:103BA00039E02201171BBF00234AD2190532012335
:103BB000290030000DF04CFB01202CE0012901D040
:103BC000012028E02201171BBF001B4AD219043232
:103BD0000123290030000DF03BFB01201BE00129EF
:103BE00003D0032907D0012015E0290030000DF093
:103BF00013FB01200FE0A97823011F1BBF000E4B10
:103C0000DF1939710F4B002B13D0200000E000BFEB
:103C1000012000E0002002B080BCB846F0BD0020CA
:103C2000F9E70020F7E70020F5E70020F3E70020A0
:103C3000F1E70120EFE7C046741E0020B02F01100D
:103C4000000000000000000010B50301181A8000F9
:103C5000104B181844780CF069FE002806D1002398
:103C6000002B13D0002C09D1002010E00CF066FED0
:103C7000002801D10123F3E70023F1E72100002010
:103C80000CF0A0FF002803D1013000E0002010BD9F
:103C90000020FCE7741E002010B50020FFF7D4FFC1
:103CA00010BD0000F8B504000F0016001D00030150
:103CB0001B1A9B001F4AD318597800200CF01EFFD6
:103CC000002825D0002F24D02B1C242D00D92423FC
:103CD0009DB2184A2301191B890051180F721B1B32
:103CE0009B000833D01801302A0031000AF0F8FF99
:103CF0000135ADB20F4B2001021B920008329A1819
:103D0000001B8000181841782B0000200CF01EFFCB
:103D1000F8BD2B1C252D00D925239DB22001001BA9
:103D200080000830034B18182A0031000AF0D8FF31
:103D3000E0E7C046741E002010B513000A00010021
:103D40000020FFF7AFFF10BD107003120F201840C6
:103D500050700B01184350700911917070470000AA
:103D600070B5124D802424012A0021002000FFF7A5
:103D7000EBFFEA1C21002000FFF7E6FFAA1D21004F
:103D80002000FFF7E1FF2A00093221002000FFF7A1
:103D9000DBFF2A000C3221002000FFF7D5FF2A00AC
:103DA0000F3221002000FFF7CFFF70BD403200200E
:103DB00010B54022002102480AF08CFF10BDC04619
:103DC000D8220020014B18707047C046AD32002049
:103DD000014B18737047C046D8220020014B58731E
:103DE0007047C046D8220020074A0021535E107851
:103DF00006490870023399B21BB21380FF2B01DD14
:103E0000FF3911807047C04676320020D82200204A
:103E1000024B1A78024B5A707047C046FC310110B1
:103E2000D8220020064B04229A732F32DA73303ADC
:103E30001A74013A5A74012119765A767047C046AD
:103E4000D822002010B5C4B2000A002307E01900F0
:103E50000E31044A5454013150540233DBB20D2B5D
:103E6000F5D910BDD822002010B503007F2800D955
:103E70007F2080B2002B08D00AF07DFD04490AF0B3
:103E800026FD04490AF008FD10BD0248FCE7C046C3
:103E9000BA6693400000204210B503007F2800D985
:103EA0007F2080B2002B08D00AF065FD04490AF09B
:103EB0000EFD04490AF0F0FC10BD0248FCE7C046C4
:103EC000C56613410000A04210B503007F2800D949
:103ED0007F2080B2002B05D00AF04DFD02490AF088
:103EE000E0FC10BD0020FCE70000FE42F8B5CE4625
:103EF000474680B50300C1788A0937D0012A17D018
:103F0000022A07D00026371C002399469846002530
:103F1000002447E04178090202780A439205940D93
:103F2000002A23D1A146A04625000026371C39E0EF
:103F3000807804025E78320022431205140D002AB4
:103F400067D01B789A074ED17F22024090464900E5
:103F50007E252940C5090D43F201FF2414409B082A
:103F60001C43730899460026371C1BE01C78E207A7
:103F70003DD564085A78D100782008408146997868
:103F8000C90008250D4052091543ED00254E0027B4
:103F9000002290465A78D20601D5002291469B789D
:103FA0009B073CD40021381C0AF0C2FC002803D037
:103FB0002000FFF771FF071C0021301C0AF0B8FC3D
:103FC000002803D04046FFF74FFF061C4846FFF786
:103FD0007BFF041C2800FFF777FF031C321C211C09
:103FE000381CFDF7E3F8C0BCB946B046F8BD62081E
:103FF00090465A78D1007820084081469978C900C7
:1040000008250D4052091543ED000026064F0024F7
:10401000C0E7A146A04625000026371CC2E70025C0
:10402000C0E7C046000020430000A0430A4B012225
:104030001A7000225A7003329A70084A117AD970A5
:10404000D179197191795971517999711179D97120
:10405000D2781A727047C046D822002098180020E3
:1040600010B50400FFF7A4FE8120FFF7ABFE012C82
:1040700009D0064B1C70064B19784023034A0020D8
:104080000DF076FC10BDFFF7D1FFF4E7D822002039
:10409000AD32002070B586B06C462A4B0433220046
:1040A00070CB70C270CB70C2022837D0032841D0C9
:1040B0000023002500E00133052B10D8224AD21836
:1040C0007D32FF3214780522D21A885C8442F2D005
:1040D0001D4AD2187D32FF3210700125EBE7002D0A
:1040E00019D18120FFF774FE184801238373164B02
:1040F0001A7AC273DA7902749A7942745A7982749C
:104100001A79C274DB7803751530182269460AF0F3
:10411000E7FD06B070BDFDF73DFDE2E78120FFF74A
:1041200057FE0A48022383730F30102208490AF011
:10413000D7FDEEE78120FFF74BFE044B03229A7375
:10414000E7E7C046FC31011098180020D822002073
:104150005823002070B504000E001500FFF728FE5C
:104160002120FFF72FFEFFF73FFEFFF751FE200053
:10417000FFF734FE482C67D8A4003E4B1B599F46DE
:104180008020FFF725FE00236AE0F07A431E984165
:10419000C0B200F061FFF27A374B1A708020FFF74F
:1041A00017FEF0E731000C31F07AFFF773FFEAE712
:1041B0008020FFF70DFEF27A304B1A70E3E7822081
:1041C000FFF706FEFFF72EFEDDE78020FFF700FE7B
:1041D000D9E79020FFF7FCFDF27BF17A307B00F00D
:1041E00037FAD0E7FEF79CFCCDE78020FFF7F0FD23
:1041F000C9E78320FFF7ECFD6420FFF723FEC2E749
:104200008020FFF7E5FDBEE78020FFF7E1FDF27AB1
:104210000F231340033BDAB20C2A03D89300184A49
:10422000D3589F460120FEF7ABF8ACE70320FAE72E
:104230000420F8E70520F6E70620F4E70720F2E778
:104240000820F0E70220EEE70023AB4202D2013360
:104250009BB2FAE78020FFF7BBFD94E70133DBB2A6
:104260001F2BFBD94023074A212100200DF080FBA2
:1042700070BDC046A4300110AE3200208015002071
:10428000C8310110D822002070B50C00150010288C
:104290000DD080280FD0012800D070BD881CFFF7FA
:1042A00025FEA07A2A002100FFF754FFF5E7881CBD
:1042B000FFF71CFEF1E74878FFF7D2FEEDE70000BC
:1042C000094B1B780A2B07D00B2B09D0064B0A226F
:1042D0001A70054B18787047034B0B221A70F8E7D9
:1042E000014B0C221A70F4E78115002070B5040010
:1042F0005D4B1B78002B04D15C4B1B78302B0BD013
:1043000070BD5B4B1A885B4B18785B49FFF7BCFFAD
:10431000554B00221A70F3E7FFF74AFD3020FFF7F4
:1043200051FDFFF761FDFFF773FD544B1B78012B27
:104330002DD0022B00D18AE02378514DAB706378E9
:10434000EB70A3782B71E3786B7123790F210B400D
:10435000AB716079A3791B0203431B11EB71E37905
:104360002B72237A19406972617AA37A1B020B437C
:104370001B11AB72FFF7A4FFE872424B1978402380
:104380002A0000200DF0F4FA02F004FBB8E700F078
:1043900007FD83783A4D2B73C3786B730378AB7347
:1043A0004378EB7303792B7443796B74037AAB74A2
:1043B000437AEB7483792B75C3796B75837AAB750C
:1043C000C37AEB7500F0ECFC83782B76C3786B76C0
:1043D0000378AB764378EB7603792B7743796B7769
:1043E000037AAB77437AEB7782792023EA54C27958
:1043F0000133EA54827A0133EA54C27A0133EA542F
:1044000000F0CEFC82782423EA54C2780133EA54C7
:1044100002780133EA5442780133EA5402790133D5
:10442000EA5442790133EA54027A0133EA54427A77
:104430000133EA5482790133EA54C2790133EA54F0
:10444000827A0133EA54C27A0133EA5474E70E4D9A
:10445000280000F025F90A4B0C3307CD07C307CD20
:1044600007C307CD07C367E7AF32002080150020E0
:104470007E150020B032002018230020AE3200202C
:10448000D8220020AD3200204C2F002010B5054B63
:1044900001241C70044B1870044B1A8004480AF065
:1044A0001FFC10BDAF320020B03200207E1500206E
:1044B0001823002010B5024B18180AF011FC10BD8B
:1044C000D8220020502800D1B0E003D960282FD096
:1044D000FF2010E0402800D9AAE0202805D34B296E
:1044E00024D88B00564AD3589F46002803D0102862
:1044F00000D09FE0002070479520FCE70020FAE7FD
:104500002A39504B59187D31FF310878F3E70439C7
:104510004C4B59187D31FF310878ECE70020EAE771
:104520000020E8E76820E6E70020E4E70020E2E773
:10453000A92979D88B00444AD3589F46FF20DAE74F
:104540000220D8E70120D6E72320D4E70020D2E7D5
:10455000B920D0E71A20CEE70120CCE70020CAE737
:104560004020C8E70020C6E74020C4E70020C2E79B
:104570004020C0E70120BEE70020BCE70120BAE7E9
:104580000020B8E70120B6E70020B4E73B20B2E7FF
:104590003420B0E73B20AEE73420ACE73B20AAE76D
:1045A0003420A8E73D39294B585CA4E73D39274B17
:1045B000585CA0E71A209EE71A209CE71A209AE789
:1045C0005E2098E7012096E7502094E7FD2092E7CF
:1045D000002090E700208EE7C6208CE70F208AE7B6
:1045E0000F2088E7302086E7612084E7AE2082E74D
:1045F000902080E7D9207EE7D4207CE714207AE75A
:10460000542078E7412076E7152074E7542072E7BC
:10461000C72070E779206EE79C206CE733206AE7BB
:10462000362068E7632066E7002064E7002062E741
:10463000FF2060E7FF205EE722205CE703205AE7C7
:104640001832011098180020483301104032002021
:10465000F0B58BB006000F00150008A90F70487068
:1046600000248C70CC700A7105220E20FFF722FF07
:1046700000941A22002101A80AF02CFB07E0391946
:10468000C9B23000FFF71EFF6B4618550134A54232
:10469000F5DC2A0069461320FFF70CFF0BB0F0BDD4
:1046A000F0B5DE4657464E464546E0B585B00400B7
:1046B0008379032293430222134383710125002649
:1046C00001E00135EDB2032D0CD8724BAA00D05891
:1046D000B200D158490049080AF048F90028F0D042
:1046E0002E00EEE7032333409A00A3790C218B437D
:1046F0001343A371002509E0674940460AF0E7F833
:10470000AF000AF05FF901ABD8510135022D15DC7D
:1047100072190132032313405E4F9B00D8599D212B
:10472000C9050AF0D4F88046B300D85900210AF030
:1047300007F90028E0D1FE218905DEE7019B9B12E5
:10474000DB02D90A0F2211400901A07902400A4375
:10475000A271D90BE171D90D2172DB0F0126012164
:104760000B40607AB04303436372029B9D127F202B
:10477000824605406F00657A0D403D4365725B14CB
:104780009B049B0CA3721B0A3F273B40E57A4038F1
:1047900085432B43E372039B9A129446032503221D
:1047A0006046104080018446E07A07406046074337
:1047B000E7721B135B035F0BA774580DE0745B0F6C
:1047C0000720804603409B46207D84460720814683
:1047D00060464B4698430300584618432075C3B2C1
:1047E00040460340237500236375A375E37D1830AD
:1047F0008343E375E77D1F233B40E3750023A377E5
:104800002700E37FAB43E377DBB21340E3771E3748
:10481000BB78B343BB701F36A35D0B40A355212368
:104820009C46E35C5F36B34360462354194E3369BC
:104830001940C9018946205C51460140080049469B
:104840000143604621545B089B059B0D3B711B0A8D
:1048500013407979A9430B437B712323E15C0A4020
:104860000C210A43E254B38AA3701B0AE370F38A53
:1048700023701B0A6370338B23711B0A63713369C6
:104880000833336105B0F0BCBB46B246A946A0462A
:10489000F0BDC04684150020000080BFF0B5DE46A4
:1048A00057464E464546E0B585B004000D00C36846
:1048B0009A46CE68311C181C0AF009F8071C2368B8
:1048C00098462B689B46191C40460AF000F8011CCC
:1048D000381C09F0DCFF071C63686A689146111CEC
:1048E0000093181C09F0F3FF011C381C09F0CFFFDE
:1048F0000190A768AD68291C381C09F0E8FF011C6D
:10490000019809F0C4FF01905946504609F0DFFFB5
:1049100002904146301C09F0DAFF011C029809F0B0
:10492000BBFF0290291C009809F0D1FF011C0298DE
:1049300009F0B2FF0290391C484609F0C8FF011C7B
:10494000029809F0A4FF02904946504609F0BFFFC3
:104950000390291C404609F0BAFF011C039809F096
:1049600096FF03900099301C09F0B1FF011C0398D9
:1049700009F092FF0390391C584609F0A8FF011C6A
:10498000039809F089FF0390291C504609F09FFF06
:10499000051C4946404609F09AFF011C281C09F0F5
:1049A0007BFF051C0099584609F091FF011C281C4B
:1049B00009F06DFF051C391C301C09F088FF011C33
:1049C000281C09F069FF019BE360029B2360039BA5
:1049D0006360A06005B0F0BCBB46B246A946A046E5
:1049E000F0BD70B504000168081C09F070FF051CDB
:1049F0006168081C09F06BFF011C281C09F04CFFC2
:104A0000051CA168081C09F062FF011C281C09F0A4
:104A100043FF051CE168081C09F059FF011C281C14
:104A200009F03AFF0AF012F8011CFE20800509F097
:104A300038FF051C011C206809F049FF2060291C73
:104A4000606809F044FF6060291CA06809F03FFF1E
:104A5000A060291CE06809F03AFFE06070BD00002A
:104A6000F0B5DE4657464E464546E0B58DB0804629
:104A7000944A934600911268881A09F07CFF041C3E
:104A80004246127A4146487A00021043000400145C
:104A900009F076FF8C4909F01AFF8C4909F001FFF3
:104AA00009F0CAFF8A4A8B4B08F075FE00228A4B38
:104AB00008F053FE0022894B08F04FFE06000F005D
:104AC000201C09F0B9FF04000D0002000B003000AB
:104AD000390008F060FE08F023FF824642469279D2
:104AE0004146C879000210430004001409F048FF51
:104AF000754909F0ECFE754909F0D3FE09F09CFFF9
:104B0000734A744B08F047FE0022734B08F025FEF1
:104B10000022724B08F021FE02000B002000290049
:104B200008F039FE08F0FCFE81464246927A414682
:104B3000C87A000210430004001409F021FF624902
:104B400009F0C5FE614909F0ACFE09F075FF604A45
:104B5000604B08F020FE00225F4B08F0FEFD0022B3
:104B60005E4B08F0FAFD02000B002000290008F05F
:104B700012FE08F0D5FE051C5146504609F0A7FE6E
:104B8000041C4946484609F0A2FE011C201C09F0FD
:104B900083FE041C291C0195281C09F098FE011CA9
:104BA000201C09F079FE09F047FF04000D00020007
:104BB0000B0008F0F0FD06000F000022484B0296A3
:104BC000039708F0CAFD06000F000022454B2000A5
:104BD000290008F0C2FD02000B003000390008F087
:104BE000AAFD0022404B08F0AFFD06000F00002296
:104BF0003E4B0298039908F0B0FD02900391002209
:104C0000FF239B052000290008F0C5FD02000B00D2
:104C10000298039908F08FFD0022354B08F094FDAF
:104C200004000D001C22002105A80AF053F850468C
:104C300009F002FF32003B0008F0ADFD08F070FE05
:104C40000590484609F0F8FE32003B0008F0A3FD4D
:104C500008F066FE0690019809F0EEFE32003B0077
:104C600008F099FD08F05CFE07902000290008F08C
:104C700057FE08901F4C05A92000FFF70FFE2000EB
:104C8000FFF7AFFE4246117853781B020B431B041B
:104C90001B14A3829178D3781B020B431B041B14B3
:104CA000E382117953791B020B431B041B142383EA
:104CB0005A46009B13600DB0F0BCBB46B246A946F5
:104CC000A046F0BDC42F00200000FA4400FEFF46BD
:104CD000182D4454FB2109400080664080842E41F9
:104CE0000000AE40000048400000E03F0000784077
:104CF0000000F03F84150020F0B5C64600B5040062
:104D00008846234923480DF0AFFE0028F9D0224EF3
:104D10003368581C032108F09FFA25786278120244
:104D20001E4F4800401883005B182A43FA54120AA9
:104D3000FB185A70A078E278120202439A70120AA5
:104D4000DA7020796279120202431A71120A5A71DA
:104D5000A079E279120202439A71120ADA71207A7A
:104D6000627A120202431A72120A5A72A07AE27A24
:104D7000120202439A72120ADA723160414620002E
:104D8000FFF76EFE03480DF047FE80BCB846F0BD4D
:104D900030200020481700202C2000200420002074
:104DA00010B5094909480DF05FFE0028F9D0084BFD
:104DB0001C6806480DF030FE6000001980000019E4
:104DC000044B181810BDC04634200020481700209E
:104DD0002C200020042000204118CB0F5B185B1012
:104DE00080225202914204DA044A914203DB18B253
:104DF00070470348FCE70348FAE7C046FFFFFEFFA1
:104E0000FF7F00000080FFFF70B501214942284864
:104E1000FDF7CEFD274D06220021280009F05AFF9C
:104E2000A81D0622002109F055FF234B01221A700C
:104E3000224BFA2292011A60214B00221A70214E55
:104E4000214C31002000FBF711FF0023E25E9C3D66
:104E50009C23EA540223E25E9D23EA540423E25E8B
:104E60009E23EA540623E25E9F23EA540823E25E6F
:104E7000A023EA540A23E25EA123EA540023F25E4F
:104E8000A223EA540223F25EA323EA540423F25E2F
:104E9000A423EA540623F25EA523EA540823F25E13
:104EA000A623EA540A23F25EA723EA5470BDC04643
:104EB0000000FFFF34190020923200200020002063
:104EC00093320020F01F0020D01F002010B5084AA8
:104ED000E2235B00D05C01214942FDF7FBFCFCF7BB
:104EE00053FEFCF757FE034B00221A7010BDC0465C
:104EF0009818002092320020F8B552495248FBF72A
:104F0000B5FE524B1B78002B00D160E0504C9C2525
:104F10004D4E0023F15E6057FFF75EFF605501358F
:104F20000223F15E6057FFF757FF605501350423F8
:104F3000F15E6057FFF750FF605501350623F15EC3
:104F40006057FFF749FF605501350823F15E605750
:104F5000FFF742FF605501350A23F15E6057FFF706
:104F60003BFF6055A227374D0023E95EE057FFF76E
:104F700033FFE05501370223E95EE057FFF72CFFCE
:104F8000E05501370423E95EE057FFF725FFE055C0
:104F900001370623E95EE057FFF71EFFE0550137B2
:104FA0000823E95EE057FFF717FFE05501370A23B2
:104FB000E95EE057FFF710FFE055002333732B73D2
:104FC000244A1368013B1360002B37D0F8BD1E4AFA
:104FD0000023D05E1E4B9C2158540221505E9D211F
:104FE00058540421505E9E2158540621505E9F2142
:104FF00058540821505EA02158540A21515EA12224
:105000009954104A0021505EA22158540221505E4A
:10501000A32158540421505EA42158540621505E07
:10502000A52158540821505EA62158540A21515EEA
:10503000A7229954054BA63A1A70C7E7FFF746FF17
:10504000C4E7C046F01F0020D01F0020933200208C
:105050009818002000200020014B18707047C046AF
:1050600094320020F0B5C64600B504004C4B1B78C6
:10507000002B06D14B4B1B78002B05D180BCB846CA
:10508000F0BDFFF739FFF9E7FA21474A8900FDF73C
:1050900051FF0028F2D0454D29004548FBF7E6FDB9
:1050A0002B7B002B03D0424B1B7B002B0AD1404BA8
:1050B0001B7B002B00D06EE000233D4A13733B4A5C
:1050C0001373DBE73A4B984618883A4D9C23EB560E
:1050D0009BB2C01A354F3988A223EB569BB2C91A2E
:1050E00009B200B2FFF778FE334E3080434658884D
:1050F0009D23EB569BB2C01A7988A323EB569BB233
:10510000C91A09B200B2FFF767FE7080434698885B
:105110009E23EB569BB2C01AB988A423EB569BB2D0
:10512000C91A09B200B2FFF757FEB0804346D888CB
:105130009F23EB569BB2C01AF988A523EB569BB26E
:10514000C91A09B200B2FFF747FEF080434618893A
:10515000A023EB569BB2C01A3989A623EB569BB20B
:10516000C91A09B200B2FFF737FE308143465889A9
:10517000A123EB569BB2C01A7989A723EB569BB2A9
:10518000C91A09B200B2FFF727FE70812100300072
:10519000FFF7B2FD90E721000548FFF7ADFD8BE773
:1051A0009232002094320020AC2E0020F01F00200C
:1051B000D01F002098180020E01F002004281ED0D7
:1051C0000CDC012816D000280FDD0238C0B20128FF
:1051D0000BD80D4B0B60083313600AE0052804D18F
:1051E0000A4B0B600833136003E0094B0B60083374
:1051F00013607047074B0B6008331360F9E7064BE9
:105200000B6008331360F4E7E0190020001A002057
:10521000C0190020D0190020F019002030B50F224D
:105220000D780F231D40047894432C4304704C7870
:105230001C40250104781C402C4304708D781D40CF
:10524000447894432C434470CC781C402501447826
:105250001C402C4344700D791D40847894432C43AA
:1052600084704C791C40250184781C402C43847048
:105270008D791D40C47894432C43C470CC791C4074
:105280002501C4781C402C43C4700D7A1D4004795C
:1052900094432C4304714C7A1C40250104791C4032
:1052A0002C4304718D7A1D40447994432C434471FE
:1052B000CC7A1C40250144791C402C4344710D7B61
:1052C0001D40847994432C4384714C7B1C40250100
:1052D00084791C402C4384718D7B1D40C479944398
:1052E00022002A43C271CA7B1A401201C1790B40C5
:1052F0001343C37130BD0B781B071B0F03700B7872
:105300001B0943704B781B071B0F83704B781B09DD
:10531000C3708B781B071B0F03718B781B094371BC
:10532000CB781B071B0F8371CB781B09C3710B79DB
:105330001B071B0F03720B791B0943724B791B0769
:105340001B0F83724B791B09C3728B791B071B0FD1
:1053500003738B791B094373CB791B071B0F837373
:10536000CB791B09C373704770B50400144D154AFF
:105370002900FFF723FF2B68134A11685268196050
:105380005A60042C12D0052C15D0032C09D00D4BDB
:105390001B6800221A800A4B19680C48FFF7ABFF04
:1053A00070BD084B1B680A4A1A80F4E7054B1B685E
:1053B000084A1A80EFE7034B1B68074A1A80EAE79E
:1053C000E02100209023002030360110C42100206D
:1053D00000E1FFFF00C0FFFF00CAFFFF10B50E4B4A
:1053E00019600E4B1A600E4B18700E4C0E4A2100BD
:1053F000FFF7E4FE21680D4C2000FFF77CFFE37A05
:105400000B3B5A1E93410A4A1370637A093B5A1E9A
:105410009341084A137010BD1C1B0020201B002064
:105420009B320020E021002090230020C421002096
:105430009A32002095320020024ABC235B00D054EF
:105440007047C0469818002010B5044B00221A700F
:10545000034B19680348FFF74EFF10BD833200204D
:10546000E0210020C421002070B590B00500384C28
:10547000384E22003100FFF7A1FE31683648FFF7B1
:105480003AFFFFF7E1FF002300933C22002101A82F
:1054900009F020FCA6236A461370557033681A7809
:1054A0001207120F69468A701A781209CA705A7860
:1054B0001207120F0A715A7812094A719A78120764
:1054C000120F8A719A781209CA71DA781207120FCC
:1054D0000A72DA7812094A721A791207120F8A725E
:1054E0001A791209CA725A791207120F0A735A7975
:1054F00012094A739A791207120F8A739A7912095C
:10550000CA73DA791207120F0A74DB791B094B741C
:10551000226813881B0A8B741388CB740F4BBC2230
:1055200052009A5C0A75BD2252009B5C4B75FA20B2
:10553000000103F0EBFB002801D110B070BD00208A
:105540000CF0C2FC4022694600200CF09FFCF4E7FE
:10555000842300208023002070230020981800203E
:1055600070B50A0000210F2937D803000B41DB0773
:1055700014D40131C9B2F6E70133DBB20F2B0FD8D7
:105580002A4AD05C2A4A12789042F5D1294A1468F6
:1055900001209840228802432280EDE70023EDE7B6
:1055A000224C234803786354224B1D6801228A4011
:1055B0002B8893432B8002781F4809F0E1FC1F4B96
:1055C00000221A701E4B18682100FFF727FE1D4BA2
:1055D00000201856FFF748FF70BD002AFCD00024B9
:1055E00001E00134E4B20F2C14D8104B1A5D104BBB
:1055F0001B789A42F5D12100134809F0C1FC0D4BEC
:1056000019680122A2400B8813430B800B4B002228
:105610001A70E6E70A4B18680449FFF7FFFD094BCB
:1056200000201856FFF720FFD6E7C0467023002061
:105630008232002084230020F035011083320020C4
:1056400080230020B13200200C36011070B5040018
:105650000D00084E084A3100FFF7B0FD31680748D9
:10566000FFF749FE064B1C70064B1D70064B0122CE
:105670001A7070BD80230020842300207023002036
:10568000B1320020823200208332002070B582B017
:10569000DB4B00221A809A70DA4B1B68DA79197A90
:1056A00009021143587A000401439A7A12060A4308
:1056B000D8781979090201435C7924042143987947
:1056C000000608436B4601A901F038FCCE4B1B785D
:1056D000002B17D0CB4B1A6893789B06D90F002B61
:1056E00006DA002313705370C64B1B6800229A70B1
:1056F000C44B1B681A78587800021043FFF730FF3C
:1057000002B070BD01F032FD002826D0BD4B1968F3
:105710008A780124A2438A7019688A780220824319
:105720008A7019684A781025AA434A7019684A781D
:105730001035AA434A7019680A78A2430A7019689A
:105740000A7882430A7019680A78023082430A7024
:105750001A68137808218B431370A94B00229B5EB3
:10576000AA4A12685178C90600D530E1A5490968EE
:105770004978C906C90FA648007B814009B20B438E
:105780009F490B805178890600D522E19D4909681F
:1057900049788906C90F9E48407B814009B20B4376
:1057A000974C23809749096888788007C00F40008C
:1057B000A5780226B5432843A0708878C007C50F96
:1057C000A078013EB0432843A0701078C00700D5F0
:1057D00001E10878C007C00F8D4C2478A04000B2CA
:1057E0000343874803801078800700D5F5E00878E8
:1057F0008007C00F864C6478A04000B20343804805
:1058000003801078400700D5E9E008784007C00F12
:105810007F4CA478A04000B20343794803801078FD
:10582000000700D5DDE008780007C00F784CE47869
:10583000A04000B20343724803801078C00600D530
:10584000D1E00878C006C00F714C2479A04000B2A6
:1058500003436B4803801078800600D5C5E00878C4
:105860008006C00F6A4C6479A04000B203436448CC
:1058700003801078400600D5B9E008784006C00FD4
:10588000634CA479A04000B203435D4803801078C4
:10589000C00900D0ADE00878C0095D4CE479A040B3
:1058A00000B20343564803805078C00700D5A2E0F9
:1058B0004878C007C00F564C247AA04000B203437A
:1058C0004F4803805078400700D596E0487840075D
:1058D000C00F4F4CA47AA04000B203434848038055
:1058E0004C480078002800D1A2E001204A4C019DDC
:1058F000A54200DC0020C0B24C78A407E40F20438E
:105900005478A40700D58FE0414C647AA04000B2DF
:1059100003439BB23A4803809B0500D486E03F4B8B
:10592000374CE01CE3701C0A4470002484701B0E8A
:10593000C3703B4B1B78002B00D197E00123364806
:10594000009C844200DC0023DBB248780007C00FD3
:1059500003432B480024005F5478240700D581E0DE
:105960002B4CE47AA3401BB203439BB22448038030
:105970001B0579D5294B224CE01DE3711C0A4470AC
:10598000002484701B0EC3701D4B00201B5E5078DA
:10599000400600D584E048784006C00F1C4CA47B2C
:1059A000A04000B20343164803805278D20979D14F
:1059B0004A78D2091649C97B8A4012B2104913436A
:1059C0000B80184B18680C2209F08AF998E6002120
:1059D000D5E60021E3E6002002E700200EE70020E4
:1059E0001AE7002026E7002032E700203EE70020EB
:1059F0004AE7002055E7002061E700206DE7C04638
:105A0000D42100201C1B0020833200209023002082
:105A1000C42100209532002089020000FF0F000001
:105A20009A320020201B0020002071E7002377E736
:105A30001D4C01A80078E0706846053000782071A0
:105A40006846063000786071684607300078A071BB
:105A50004B789B07DB0F5B0060780225A84303436C
:105A6000637066E700237FE7002384E70E4C6846F7
:105A70000078E07168460130007820726846023094
:105A800000786072684603300078A0724B781B077C
:105A9000DB0FDB0060780825A8430343637073E7DE
:105AA00000207FE7002289E7D421002010B5054CB3
:105AB000A4466044624442430819634458431018A2
:105AC000C00F10BD00F8FFFF70B50C0008F058FFC4
:105AD0008A21C90508F0DBFE051C200008F050FFF4
