:020000041000EA
:1000000000B5324B212058609868022188439860DF
:10001000D860186158612E4B002199600221596106
:100020000121F02299502B49196001219960352056
:1000300000F044F80222904214D00621196600F024
:1000400034F8196E01211966002018661A6600F04E
:100050002CF8196E196E196E052000F02FF8012189
:100060000842F9D1002199601B49196000215960AB
:100070001A491B48016001219960EB211966A021F2
:10008000196600F012F800219960164914480160C1
:100090000121996001BC002800D000471248134993
:1000A000086003C880F30888084703B5996A0420EC
:1000B0000142FBD001200142F8D103BD02B5186610
:1000C0001866FFF7F2FF186E186E02BD00000240BE
:1000D000000000180000070000035F00212200005C
:1000E000F4000018222000A00001001008ED00E03C
:1000F00000000000000000000000000074B24E7A12
:1001000000200420F7010010C3010010C5010010F9
:10011000C1010010C1010010C1010010C101001097
:10012000C1010010C1010010C1010010C701001081
:10013000C1010010C1010010C9010010CB01001065
:10014000CD010010CD010010CD010010CD01001037
:10015000CD010010CD010010CD010010CD01001027
:10016000CD010010CD010010CD010010CD01001017
:10017000CD010010CD010010CD010010CD01001007
:10018000CD010010CD010010CD010010CD010010F7
:10019000CD010010CD010010CD010010CD010010E7
:1001A000CD010010CD010010CD010010CD010010D7
:1001B000CD010010CD010010CD010010CD010010C7
:1001C00000BE00BE00BE00BE00BE00BEEFF3058054
:1001D000103800BEF2EB8871C0490110E0490110EF
:1001E0003402001090A31AE700201F49086006C8D7
:1001F00081F3088810471D48006800282FD10DA4FE
:100200000ECC002902D000F012F8F9E71849194A7B
:10021000002000E001C19142FCD1174988471749ED
:1002200088471749884700BEFDE701C901C29A42C5
:10023000FBD37047E0490110C0000020B815002032
:10024000D85E01100000042000000420D85E0110D8
:10025000001004200010042000000000704709482E
:100260000BF0FCFE0047000008ED00E0000000D0AD
:10027000D8150020A8300020E5AD0010C9080010F6
:10028000A1AD00105756000006005250ABB36053AA
:10029000F83F011006005250861C0302084001106E
:1002A000060052505422A29D1C40011005005250DD
:1002B000DE65F468D85E0110F8B5C04610B5064C8E
:1002C0002378002B07D1054B002B02D0044800E017
:1002D00000BF0123237010BD88180020000000001B
:1002E00090190110044B10B5002B03D003490448AA
:1002F00000E000BF10BDC046000000008C180020C8
:100300009019011010B504001F2108F09BFD002278
:100310000021200008F0AEFD0021200008F0C4FDFF
:1003200010BD10B5040008F0D7FD00220121200007
:1003300008F0A0FD0123A340D022120653625361AE
:1003400010BD10B5040008F0C7FD002201212000F7
:1003500008F090FD0123A340D0221206936210BD45
:1003600070B5040000290CD008F0B6FD0123A340AD
:10037000D0221206936200220021200008F07AFDAC
:1003800070BD08F0A9FD0125A540D026360675628E
:1003900000220021200008F06DFDB561F0E770B586
:1003A00000280FD0D024240680256D0465616420C8
:1003B00009F0DAFE80239B046361642009F0D4FE17
:1003C000A56170BDD024240680256D04656164207C
:1003D00009F0CAFE80239B04A361642009F0C4FED7
:1003E000A561EEE710B5002804D001211A20FFF71F
:1003F000B7FF10BD00211A20FFF7B2FFF9E7000098
:1004000010B50E20FFF78DFF0F20FFF78AFF102099
:10041000FFF787FF1120FFF784FF0D20FFF791FF03
:100420000C20FFF78EFF0B20FFF78BFF0A20FFF752
:1004300088FF184918480EF00DFC0121062008F02D
:1004400001FD0121072008F0FDFC0121042008F036
:10045000F9FC012008F040FDD02424060223636249
:100460006361092008F038FD80239B0063626361AB
:10047000002008F031FD012363626361022008F06F
:100480002BFD04236362636100F0DCFC1A2008F09A
:1004900023FD10BDC0C62D0000C00340F8B5DE46E8
:1004A00057464E464546E0B50400D0252D0680232C
:1004B000DB019846AB610520002109F029FE6B683D
:1004C0005B0B012633405A42534101273B401B013D
:1004D000227810218A43134323706B681B0B33402F
:1004E0005A4253413B405B01227810318A43134307
:1004F00023706B68DB0A33405A4253413B409B01F7
:10050000227840208243134323706B689B0A334058
:100510005A425341DB0122785F310A401343237072
:1005200043466B6180231B029946AB610520002185
:1005300009F0EEFD6B685B0B33405A4253413B4080
:100540002278B243134323706B681B0B33405A422B
:1005500053413B409B002278042080468243134352
:1005600023706B68DB0A33405A4253413B405B00C7
:100570002278023883468243134323706B689B0AB8
:1005800033405A4253413B40DB00227806308246DA
:100590008243134323704B466B6180235B02994671
:1005A000AB610520002109F0B3FD6B685B0B3340A4
:1005B0005A4253413B406278B243134363706B68C5
:1005C0001B0B33405A4253413B405B006278584614
:1005D0008243134363706B68DB0A33405A425341D2
:1005E0003B409B00627840468243134363706B68D4
:1005F0009B0A33405A4253413B40DB0062785046ED
:100600008243134363704B466B6180239B02994680
:10061000AB610520002109F07BFD6B685B0B33406B
:100620005A4253413B409B0162784020824313432E
:1006300063706B681B0B33405A4253411F403F01AC
:10064000637810218B431F4367706B68DB0A1E4081
:1006500073425E41F601FBB26F310B401E43667080
:100660004B466B61384B1A68C0239B015340E02214
:10067000D2011340354A1360354B42461A60324B63
:100680001B68DB05FBD530494A681204130C314A5C
:10069000D21A096880235B014B40E021C9010B405D
:1006A0002A490B602A4B04211960274B1B68DB0584
:1006B000FBD5254B5B681B04190C264B5B1A26499E
:1006C0000978002923D125490A60254A1360224B65
:1006D00001221A70D0231B065A68520901231340C5
:1006E0005A425341DB00A27808218A431343A37086
:1006F0006378DB06DB0F1B01A27808318A431343C2
:10070000A370F0BCBB46B246A946A046F8BD13494B
:100710000968134800681B1A521A10D4002B10DB0A
:10072000E270100A2071100C6071120EA271E37158
:10073000190A2172190C61721B0EA372CAE70022FA
:10074000ECE70023ECE7C04600C0044000D00440C2
:1007500000E00440FF0F0000A63000206C2D0020B8
:10076000F02D0020F0B5D6464F464646C0B584B0C1
:10077000040003AF3A4B1A883A80022399460023BB
:10078000BB7002AE3280B37001AD2A80AB70694697
:100790000A808B70D0231B0698464A469A61314BDB
:1007A0009A4603233A00D021504611F051F84346AF
:1007B0004A465A619A6103233200F021504611F0F3
:1007C00047F843464A465A6180239B009946434670
:1007D0004A469A6103236A46F021504611F038F8E0
:1007E00043464A465A619A6103232A00D021504663
:1007F00011F02EF843464A465A613B785B027A78FC
:100800005200E02109010B401343BA78D209134387
:1008100023603278520273785B000A401A43B3783F
:10082000DB091A4362602A7852026B785B000A4047
:100830001A43AB78DB091A43A2606B461B785B0254
:100840006A46527852000B4013436A469278D209A6
:100850001343E36004B0E0BCBA46B146A846F0BD1D
:10086000A819011000C0034010B500F0CDF810BD6C
:1008700010B504004378DB0710D46378042211001C
:1008800019401A4203D00F4B1B78002B0CD00029C3
:1008900003D10C4B1B78002B0DD110BD0022002181
:1008A00000200AF041FAE8E70020FFF79BFD054B26
:1008B00001221A70F1E70120FFF794FD014B00229D
:1008C0001A70EAE76C30002010B584B00DF092FA8F
:1008D000642009F049FC37480DF050FAFFF790FD0D
:1008E0000DF0A0FF1B20FFF70DFD1A20FFF70AFDFA
:1008F0001A2008F0F1FAD02424068023DB04636276
:10090000A361182008F0E8FA80235B046362A36106
:10091000192008F0E1FA80239B046362A36105209B
:1009200008F0DAFA2023A36200220121052008F052
:10093000A1FA01AC0C22002120000DF0F9F82000F2
:10094000FFF7ACFD1C4B9B886A461380617812222E
:100950000A40122A09D018230B40182B0CD06846E5
:1009600000F0BCFC002004B010BD14480BF076FB76
:100970000300002108009847163B6A4613700120C7
:10098000FFF730FD0120FFF70AFD0D4809F0ECFBF1
:1009900002E0962009F0E8FB01AC2000FFF77EFDA5
:1009A0006378DB07F5D50022002100200AF0BCF9AE
:1009B000EFE7C04690190110A81901105542000038
:1009C000AC0D0000002812D1FF230B4A12685340DF
:1009D0001B041B0C094A136000280ADB0004084BA7
:1009E0001B685840000C0004064B18607047002339
:1009F000EBE70020F2E7C0465C0005405C100540D4
:100A0000200005402010054010B5FA21104A490188
:100A100002F092F800280CD00E4B1B680E4A1268A8
:100A2000934207DA14330B4A13600A4B1868FFF736
:100A3000C9FF10BD0A3B074A1360084A1268934277
:100A400001DC044B1A60034B1A68034B1A60ECE795
:100A5000D82C0020B4200020B0200020BC20002092
:100A600070B5174B1E68002E28D04468C568291C35
:100A7000201C0CF0A9FE002800D0251CFE218905B1
:100A8000281C0CF0A1FE002801D0FE25AD050D4963
:100A9000281C0CF04AFE0CF0F5FE84B20021281C44
:100AA0000CF092FE002801D0A419A4B2064B1C60E1
:100AB000064B1B689C4201DD044B1C6070BDC046A8
:100AC000B820002000004842BC200020B0200020B8
:100AD00070B51C4B18780CF07CFE051C1A4B18687E
:100AE0000CF07CFE041C011C281C0CF0FEFD1749B8
:100AF0000CF005FE061C00250FE0201C0CF090FEFB
:100B0000FFF760FF311C201C0CF0F4FD041C0AF000
:100B1000B9F8012009F028FB013528000CF05EFE31
:100B20000A490CF03BFE0028E7D1064B1878FFF786
:100B300049FF642009F018FB0AF0A4F80020FFF731
:100B400041FF70BD08120020B82000200000C843FB
:100B5000F0B5CE46474680B583B0032008F0BCF917
:100B6000082008F0B9F9D0231B0608225A62F8328F
:100B70005A620421032008F065F90421082008F0D6
:100B800061F9334F01253D60324B04221A60324A2D
:100B9000FF2656621666314C2268120C1204304948
:100BA00089460A601A68910089188A002D498C4686
:100BB000624411688C46FF21090460464140090CDB
:100BC000090480204001024311603A6891008918AD
:100BD0008A0021498846424411682F008F4302430E
:100BE00017601B689A00D218930043441A68954313
:100BF00003431D601C4B1B6873401B041B0C1B4AEA
:100C0000136023681B0C1B044A46136096200021C6
:100C100009F07EFA6B46DC1D991D200000F0A8FA51
:100C20002378134A13601A1CCD2B00D9CD223232FF
:100C300010490A70002B02D10D4A13600B70AF20CF
:100C4000400009F091FA03B0C0BCB946B046F0BD0F
:100C5000702D0020A827002000000540200005403E
:100C6000201005400C0005405C0005405C1005406C
:100C7000B8200020081200200902084300B2704783
:100C800070B582B0D02424060125A5616B46187189
:100C900059710B4E022201A9300010F029FE656146
:100CA000022009F061FA0335A561022201A9300092
:100CB00010F01EFE6561022009F056FA02B070BD08
:100CC00000C00340F0B5DE4657464E464546E0B507
:100CD00085B006000D0001AC00230193082200211D
:100CE00002A80CF025FF03236B449B46A2235A461F
:100CF0001370D0231B069946012398464B46424663
:100D00009A614F4B9A465946180010F0F1FD0C239A
:100D100022000021504610F09BFD4B4642465A618E
:100D200061782078FFF7A8FF80B2404283B2FF27A6
:100D30003840B0711B0AF371E178A078FFF79CFF8F
:100D400083B2384030721B0A737261792079FFF7E1
:100D500093FF83B23840B0721B0AF372E179A07935
:100D6000FFF78AFF80B2404283B2384030701B0ADE
:100D70007370617A207AFFF77FFF83B23840B070DA
:100D80001B0AF370E17AA07AFFF776FF83B238404E
:100D900030711B0A73714A4604239361012259463C
:100DA000504610F0A5FD0C2322000021504610F003
:100DB0004FFD4A460423536161782078FFF75CFFBA
:100DC00083B23840A8711B0AEB71E178A078FFF775
:100DD00053FF80B2404283B2384028721B0A6B72C4
:100DE00061792079FFF748FF83B23840A8721B0A67
:100DF000EB72E179A079FFF73FFF83B238402870AA
:100E00001B0A6B70617A207AFFF736FF80B240428E
:100E100083B23840A8701B0AEB70E17AA07AFFF722
:100E20002BFF83B2384028711B0A6B714346337322
:100E30002B7305B0F0BCBB46B246A946A046F0BD38
:100E400000C0034010B5AE211020FFF719FF5C2150
:100E50001120FFF715FF04211220FFF711FF0421D5
:100E60001320FFF70DFF00211520FFF709FFE021F8
:100E70001720FFF705FF10BDF0B5C64600B504000A
:100E800013282DD014282FD0122803D0002080BC86
:100E9000B846F0BD132714239846200008F01CF82C
:100EA00001263300A340D0252D06AB62002201218C
:100EB000200007F0DFFF404608F00EF833004246FE
:100EC00093406B62AB61380008F006F83300BB401A
:100ED0006B62AB616B68E3401E4209D00120D6E72C
:100EE000122714239846D8E7122713239846D4E7ED
:100EF0000020CCE710B51320FFF7BEFF10BD10B5E2
:100F00001220FFF7B9FF10BD10B51420FFF7B4FF92
:100F100010BD10B501211A20FFF722FA962080009B
:100F200009F022F907F012FC002800D110BD0120C1
:100F3000FCE710B501F042FC10BD0000F0B585B033
:100F4000002301930822002102A80CF0F1FD6B465A
:100F5000D91CA2230B70D02424060125A561144EB0
:100F60000122300010F0C4FC0C2301AA0021300043
:100F700010F06EFC65610C2818D00027D0242406E0
:100F80000425A5610A4E01226B46D91C300010F0E1
:100F9000AFFC0C2301AA0021300010F059FC656160
:100FA0000C2800D00027380005B0F0BD0127E5E788
:100FB00000C0034010B584B0294B1A886B469A8153
:100FC000002369468B7302A90A808B7001A90A80ED
:100FD0008B7069460A808B700222D0231B069A61AF
:100FE000032303AAD0211F4810F032FC032835D078
:100FF0000024D0231B0602225A619A61032302AA0D
:10100000F021184810F024FC032800D00024D0233D
:101010001B0602225A61FF32FF329A6103236A469D
:10102000F021104810F014FC032800D00024D02335
:101030001B06802292005A619A61032301AAD021E3
:10104000084810F005FC032800D00024D0231B061C
:10105000802292005A61200004B010BD0124C8E72C
:10106000B019011000C003400120704730B583B0B3
:10107000FFF7A0FF01AC01252840030120781022D2
:10108000904318432070FFF754FFC30122787F205C
:10109000104018432070FFF73CFF28408301207860
:1010A0004022904318432070FFF72EFF2840830012
:1010B00020780422904318432070FFF71BFF0300A1
:1010C0002B4020780122904318432070FFF717FF30
:1010D0002840430020780222904318432070FFF7F5
:1010E000C3FF2840C3002078082290431843207093
:1010F000FFF724FF28404001257820239D43284303
:1011000020706378012213436370208803B030BDE0
:1011100010B5041C0348046041608260C360FFF79F
:101120009FFC10BDF42D002010B512E00C4B9A6A04
:101130000C4B1A600C4810F093FB00F0DFFA094CDE
:10114000206805F047F8206803F0BEF92068FFF733
:101150008BFB0649044810F0B3FB0028E6D1ECE70E
:1011600000400540281E002078150020B4210020F2
:10117000044B2A22FF329A5C02702C22FF329B5CC5
:101180000B707047D8160020014B0020185670478E
:101190000912002000487047B81800200048704726
:1011A000F018002010B5002803D1074B00221A7058
:1011B00010BD0120FFF7F3F80120FFF713F9024BF0
:1011C00001221A70F4E7C0466430002010B50020F8
:1011D000FFF708F90020FFF7E2F8002200210020C5
:1011E00009F0A2FD10BD000010B5064B1B78002BC6
:1011F00000D010BD034B01221A70002001F006FA46
:10120000F7E7C0468E30002010B5284B1B78002B26
:101210002CD02749274810F053FB00282ED1264810
:10122000FFF73CF9254B1B78002B2FD103F052FC24
:10123000234C2068204905F059F8206801F08AFA0B
:1012400006F05EFD002825D01D4C20681D4903F0E6
:101250004BFF206800221C4906F07EFD1B4B1B78CB
:101260005BB2012B1DD009F00DFD10BD0021184807
:1012700009F04EFD0D4B01221A70CAE7154B9A6A10
:101280000F4B1A600B4810F0EBFAC8E70A48FFF75B
:10129000EFFACBE70A4B18680B4A0F4900F010FB36
:1012A000DCE7074B186801F007FCDCE7963000200C
:1012B000B021002078150020F018002064300020B4
:1012C000281E0020B8180020D8180020091200207D
:1012D0004C1D0000004005400819002070B582B088
:1012E000041E00D1C8E001F022FCC0B2012845D0A4
:1012F000FFF786F8614962480DF072FE032116205F
:1013000007F0A0FD0321172007F09CFD5D48FFF7C3
:10131000C5F800F047FA002833D05A4D5A4B0193D4
:101320005A4B00932B005A4A5A495B4804F08EFDF1
:10133000AB78DB062BD4FFF70BFC02F0D3FA0125C8
:1013400065576B1C29D00023E3565A1C01D0534A21
:1013500013704C4B1B789A0623D45A0632D4DA0603
:1013600032D45AB2002A31DB5A0731D40A221A4049
:10137000022A2FD01B0715D5032513E00223237063
:10138000B6E700F0C9F8C82008F0EEFEC5E706226F
:10139000002143480CF0CCFBCDE7424B02255D57C2
:1013A000D1E706253F4ABA235B00D65C0023E3560B
:1013B000013311D06421EBB2062B40D8AB003A4A7E
:1013C000D3589F460125EDE70025EBE70225E9E725
:1013D0000525E7E70425E5E701F000FB002804D137
:1013E0002E4B02221A704621E5E7642001F0A6FA8E
:1013F0002A4B01221A706421DDE72C4C300001F0E9
:101400002BF90121200001F0DFF8244B002159566F
:10141000280000F065FA1B4B9B789B0727D41B4ADA
:101420001849280003F0FEF90CF0F0FE20480CF0FB
:10143000DBFEFFF7E9FEFCE7FF242406DEE71D4C98
:10144000DCE7FF242402D9E7144B00221A70FF24A2
:1014500024041921D2E7114B00221A70164C0F21D7
:10146000CCE70E4B00221A70144C1921C6E70D4B25
:101470009D7000F091F9D2E702B070BD400D0300FD
:1014800048150020F0180020FC1800200819002042
:10149000B8180020D8180020C81800200912002011
:1014A00004180020D8160020B419011000F115FF0F
:1014B0002911001000A1A1A100FF61000000FFE6BA
:1014C00010B512480CF08AFC002407E0104B5B18A2
:1014D000D97810480CF082FC0134E4B2052C0DD808
:1014E0000DF068F92100C0B2094A1219D070002C21
:1014F000ECD1130001229043D870E7E7044B9B2204
:101500001A720A200CF01CFC10BDC046D019011044
:10151000D8160020E0190110F0B5DE4657464E46B9
:101520004546E0B5EDB0D4256D002A00002102A8A3
:101530000CF0FEFA634B02AA1380059B0193DB0FAC
:10154000DB078022120113430593069B0193DB0FF7
:10155000DB0713430693079B0193DB0FDB07134362
:101560000793089B0193DB0FDB071A430892564F42
:101570000A97564E0B96564C0C9456480D90564969
:101580000E91564A0F92564B10931297139614943D
:101590001590169117921893524B19931A931B9307
:1015A0001C931D931E931F9320932193802202A9C5
:1015B0008B5004328B5004328B5004328B500432E7
:1015C0008B5004328B5004328B50FF231B049946FE
:1015D000A8230A004946D150434B9B46AC235946A9
:1015E000D150424B9846B0234146D150FF273F0689
:1015F0000433D750FF2636020433D65004333C4A16
:1016000002A9CA503B4B9A46C0230A005146D1500A
:1016100004334946D1500433D7500433D6500433F1
:101620004146D1500433D650A23B2A22FF3202A9B0
:101630008B5401328B54C63AC921490002A8425248
:1016400002314352023142523532FF32010083529D
:10165000294C2A0020000CF071FA002003F0A8F8B1
:10166000012003F0A5F8032003F0A2F8042003F002
:101670009FF8052003F09CF820009C3006220021F2
:101680000CF056FA2000A230062200210CF050FA8D
:10169000FFF716FFBC235B004A46E25004335A466C
:1016A000E25004334246E2500433E7500433E6503C
:1016B00004335246E2506DB0F0BCBB46B246A94678
:1016C000A046F0BD01A0FFFF000034420000B4427C
:1016D00000000743000034430000614300008743DB
:1016E00000809D43000016440000FF4D0000FFE60F
:1016F00000F115FF00FF6100D816002070B51D4CE9
:10170000A5441D4B1B78002B03D180235B019D4416
:1017100070BD0CF093FDEFF3108672B600230093BA
:10172000164A002101A80CF003FAD42252001449F1
:1017300068460CF003FA80256D01124C2900200048
:1017400010F0C6F82A006946200010F099F886F3D8
:1017500010880CF07DFD0C4B1B78002B03D1064B41
:1017600000221A70D1E706F05FFB074B00221A70C7
:10177000F5E7C04600F0FFFF8C300020FC0F0000B2
:10178000D816002000D0120097300020014B012213
:101790001A70704797300020014B01221A70704771
:1017A0008C30002010B5154CD42252001449200072
:1017B0000CF0C4F92288134B9A4214D10F4A952396
:1017C0005B00D35C1A1C312B00D832220B4B9521C5
:1017D00049005A54DA782A39FF398A43DA709B2251
:1017E0001A72012010BD08480CF0C8FAFFF794FEE9
:1017F0000020FFF7D1FF0020F4E7C046D8160020F4
:1018000000D0121001A00000E819011010B5031C4F
:10181000642800D9642303492A22FF328B54FFF73E
:1018200097F910BDD816002010B5022817D008D897
:1018300000280DD001280FD10B4ACA235B00D152DA
:101840000AE0032808D1084ACC235B00D15203E008
:10185000054AC9235B00D15203F082FF10BD024A42
:10186000CB235B00D152F7E7D816002030B50F4CE0
:1018700040004508E068C00FC0072843E060490009
:1018800048082169C90FC907014321615200510865
:101890006269D20FD2070A4362615B005A08A369EA
:1018A000DB0FDB071343A36130BDC046D816002011
:1018B000062800DD0020014B98707047D8160020E4
:1018C00010B5034B1B68002B00D0984710BDC046D5
:1018D000141C0020014B0020185670477230002065
:1018E00010B588B00400284B1870022910D00C22C3
:1018F000002105A80CF01CF91022002101A80CF011
:1019000017F9E3B2062B0BD8A400204B1B599F46B6
:101910001F4B204A1A6006F0ABFF0028E7D005E015
:101920001B4B1D4A1A60002001F0B0F908B010BD31
:10193000174B194A1A60062001F0A8F9F6E7144B74
:10194000154A1A60012001F0A1F9EFE7104B124A85
:101950001A60022001F09AF9E8E70D4B0F4A1A606D
:1019600001AA05A90020FFF7ABFFDFE7084B0C4AEF
:101970001A6001AA05A90020FFF7A2FFD6E7044BD1
:10198000084A1A60D2E7C04672300020381A0110A7
:10199000141C0020C18A0010392D0010016C0010A9
:1019A000417400108D79001010B5054B1B78002B89
:1019B00003D0FFF70BFC012010BD00F069FFFAE730
:1019C00087300020F0B5C64600B590B004000D0089
:1019D00016001F0016AB1B789846494B984200D161
:1019E00088E00721380007F02DFA012300933A0020
:1019F000290020000CF0E4FF1022002108A80CF0C0
:101A000097F880235B020893F8235B0209938023F5
:101A1000DB020A93C0231B030A93102208A904A81F
:101A20000CF08CF8F31C059A039236491140F20130
:101A300011431B0319430591079B0393DB00DB084C
:101A400080229205134307932F4B194005911022D2
:101A500004A90CA80CF072F80F9B03932B4A1A40B0
:101A6000BF0217430F974346002B45D020220E9B01
:101A700003932749194080239B020B435206F82108
:101A800089050A4013430E939B009B088022D205D0
:101A900013430E93052009F057F81E490AF032FB54
:101AA0000BF097FE80460BF0EDFE87B2002F25D09D
:101AB00038000BF08EFE011C40460BF016FE87210D
:101AC000C9050BF032FE0BF0DDFEC0B200023F0490
:101AD00007430C970CAB3200290020000CF0C2FF2A
:101AE00022680123AB409A431343236010B080BCAB
:101AF000B846F0BD062175E71822B8E70020E5E7F3
:101B0000000020507F00FEFFFFFFFF9FFF83FFFFCD
:101B1000FFFFF5C10050C30070B505000C00008840
:101B20000BF057FE1B490BF0EAFD1B490BF0FDFDC6
:101B30000BF0A8FEC2B22B79A978C943C9B25943A8
:101B4000090A5B1ADBB23F2528402D1AEDB2584333
:101B500080096B439B11DBB20818C0B2CB18DBB213
:101B60003F2A10D9403AD2B23F2A06D81A060B06AD
:101B70001B0A0002134318430AE0090600041B0273
:101B80000843184304E000061B04090218430843F5
:101B9000206070BD00007F4300003F43F8B5CE4693
:101BA000474680B50400234B1D78002D05D1002346
:101BB0000360C0BCB946B046F8BD642DF9D0877843
:101BC000E678B81963789846C0180BF007FE1A49F2
:101BD0000BF095FD814628000BF0FBFD17490BF03B
:101BE0008EFD051C011C48460BF0DEFD0028E0D1EF
:101BF0004946281C0BF083FD051C38000BF0E9FD5D
:101C0000291C0BF092FD0BF03DFEA07030000BF094
:101C1000E0FD291C0BF089FD0BF034FEE07040461E
:101C20000BF0D7FD291C0BF080FD0BF02BFE607034
:101C3000BFE7C0462A12002000007F430000C842D0
:101C4000F0B5D6464F464646C0B504000368002BA3
:101C500035D083789846C778D819667880190BF004
:101C6000BDFD051C40460BF0B4FD8046291C0BF061
:101C700046FD824638000BF0ACFD071C291C0BF01A
:101C80003EFD814630000BF0A4FD061C291C0BF024
:101C900036FD051C514640460BF047FD0BF0F2FDAA
:101CA000A0704946381C0BF040FD0BF0EBFDE070D6
:101CB000291C301C0BF039FD0BF0E4FD6070E0BC1A
:101CC000BA46B146A846F0BD00220AE09300064994
:101CD0005958064B5B68DB03FBD4044B1961013296
:101CE000D2B2032AF2D970474820002000002050C9
:101CF000F8B5DE4657464E464546E0B506000D00AF
:101D0000141C80780BF065FD8046F0780BF061FDC7
:101D1000071C70780BF05DFD061CA8780BF059FDD0
:101D20008346E8780BF055FD824668780BF051FD4C
:101D30008146414658460BF0D8FC211C0BF0F5FCBF
:101D400041460BF0D7FC051C391C50460BF0CDFC6E
:101D5000211C0BF0EAFC391C0BF0CCFC071C311CDD
:101D600048460BF0C2FC211C0BF0DFFC311C0BF0D1
:101D7000C1FC061C281C0BF085FDC5B2381C0BF0FD
:101D800081FDC4B2301C0BF07DFDC0B22D040002F9
:101D9000240628432043F0BCBB46B246A946A046D1
:101DA000F8BD0000F8B5284B1E7830000BF016FD8A
:101DB000011CFE2080050BF0A2FC041C234B1B78A9
:101DC000002B0CD0224A234B23CB23C21B68136069
:101DD0000023214A13701D4A1370204A13701E4BB2
:101DE0001D78AE421DD328000BF0F3FC211C0BF034
:101DF0009CFC061C00240BE0A7001949C9191448D3
:101E0000C019321CFFF774FF124BD8510134E4B2F1
:101E1000032CF1D90135104B1D70FFF755FF002041
:101E2000F8BD0E4B1B78002B01D00020F8E7094AC3
:101E30000B4B13CB13C21B681360FFF745FF074B17
:101E400001221A700120EBE77E300020853000204F
:101E50006020002048200020A43000202C12002008
:101E600070200020F0B5C64600B506000F00150032
:101E7000984600240AE0335D9B004246EA50305DFC
:101E800080002818FFF7DCFE0134E4B2BC42F2D334
:101E900080BCB846F0BD0000031C642800D9642350
:101EA000014A13707047C0462A120020014B0122DC
:101EB0001A7070478530002030B585B01D4B1B78F7
:101EC000002B0FD10024032C09D80CF073FCFF2148
:101ED0000AF018F9184B19550134E4B2F3E7154B21
:101EE00001221A7000241FE0134D2B5D134A107855
:101EF000C018FF210AF0DEF8C9B2295502A80180F6
:101F0000FF23438083800023019301A9FFF704FE90
:101F100001A8FFF743FE0A48A300019A1A50C0180F
:101F2000FFF78EFE0134E4B2032CDDD9FFF7BEFFCC
:101F300005B030BD843000201C2000202B12002072
:101F40007020002070B5194B1B78002B12D1184B54
:101F500000221A70154B01321A700024032C0DD880
:101F60000CF028FC06210AF0CDF8124B195501346B
:101F7000E4B2F3E7104B1A78104B1A70002410E00B
:101F80000C4D2B5D5E339B000D4A9958A2000D4B02
:101F9000D1500CF00FFC06210AF0B4F82955013499
:101FA000E4B2032CECD9FFF781FF70BD8430002030
:101FB0006B3000202C1C00207F3000207E30002061
:101FC000D81600207020002030B583B00500002412
:101FD0000CE0019501A8FFF7E1FD0648A300019A76
:101FE0001A50C018FFF72CFE0134E4B2032CF0D9CC
:101FF00003B030BD7020002010B509480388094A9D
:1020000012789B18FF2213400380074C2100FFF732
:1020100083FD2068FFF7D8FFFFF748FF10BDC046DB
:10202000241200202B1200201820002010B5104B85
:102030001B78002B16D10F4B00221A700C4B01326B
:102040001A700C4C23785E339B000B4A9858FFF7AC
:10205000BBFF2078013006210AF02CF82170FFF731
:1020600025FF10BD054B1A78054B1A70E9E7C046ED
:10207000843000206B300020D81600207F300020F4
:102080007E30002010B50F4B1B78002B10D10E4B6B
:102090001B68002B02D10C4B0C4A1A600A4B1868C3
:1020A000FFF792FFFFF702FF064B01221A7010BDE7
:1020B0000020FFF789FFFFF7F9FE024B00221A709C
:1020C000F5E7C0469F300020582000200000FFE6C2
:1020D00010B50F4B1868FFF777FFFFF7E7FE0D4BC2
:1020E0001B780D4A1278934204D20133094A1370C7
:1020F000002010BD0023084A1370064A1370074AD7
:102100001370074B1A78074B1A700120F1E7C0468D
:102110005C20002081300020803000207D300020B5
:10212000823000207E30002070B50C000A2803D8D1
:102130008000204B1B589F4601261F4D1CE00126A6
:102140001E4D19E001261E4D16E001261D4D13E01F
:1021500001261D4D10E001261C4D0DE001261C4DF1
:102160000AE001261B4D07E001261B4D04E0012675
:102170001A4D01E004261A4D002A12D02300194AF4
:1021800031002800FFF76EFE2300174A31002800B7
:10219000FFF768FE2300154A31002800FFF762FEB2
:1021A00070BD2300104A31002800FFF75BFEFFF7E7
:1021B0007DFEF5E7541A0110D41A0110C01A01105F
:1021C000CC1A0110BC1A0110C41A0110D01A011047
:1021D000DC1A0110D81A0110B41A0110B81A011033
:1021E000C81A011060200020702000204820002024
:1021F00070B50C4B19682C220B480BF09FFC002487
:102200000CE0A300084DED182800FFF7C7FC296873
:1022100000222000FFF788FF0134E4B20A2CF0D935
:1022200070BDC046802000208420002010B5024BE5
:102230001860FFF7DDFF10BD8020002010B50F4BA8
:102240001B78002B08D00E4B1B68052B0DD80C4AB1
:1022500013680133136010BD0A48FFF7E7FFFFF76B
:1022600025FE064B01221A70EDE7054B00221A608D
:102270000448FFF7DBFFFFF719FEE8E78430002092
:102280000028002080170020274AC8235B00D35C69
:10229000834209D0002B03D19133FF330521D15460
:1022A000214AC8235B00D0541F4AC8235B00D25C7C
:1022B0001E4B1A701E4B1978052903D88B001D4937
:1022C000CB589F4615231C4A13701C4A1370704745
:1022D0001523194A1370194A1370F8E71523164A83
:1022E0001370164A1370F2E71523134A1370134A3A
:1022F0001370ECE7104B152119709300D218FA2ACD
:1023000000D9FA22D2B2D2430C4B1A70DFE70A4B43
:10231000152119709300D218FA2A00D9FA22D2B2E4
:10232000D243064B1A70D2E7D81600202B12002099
:1023300083300020801A01107E3000207F30002082
:1023400070B50C000BF04AFA8A21C9050BF0CDF9E3
:10235000051C20000BF042FA8A21C9050BF0C5F9D3
:10236000041C291C281C0BF0E0F9051C211C201C56
:102370000BF0DBF9011C281C0BF0BCF90BF094FAF4
:10238000E82189050BF0D1F9041CFE2189050BF029
:102390001BFA002801D0FE24A4050021201C0BF00C
:1023A000FDF9002801D1201C70BD0024FBE70000CE
:1023B00070B584B0FEF7F2FE0400FEF7EBFE0500F8
:1023C00041680068FFF7BCFF061CE968A868FFF7D2
:1023D000B7FF051C784B1B78002B04D10133764ADC
:1023E0001370764A1370227863781B021343744A81
:1023F0001288934200D1C9E02378DB0600D58DE036
:1024000023789B0600D591E023785B0600D595E004
:102410000023E356002B00DA98E06378DB0600D552
:102420009CE063789B0600D5A0E02278D307DB0F01
:102430009107C90F0B435107C90F0B431207D20F66
:10244000134300D09AE0227863781B0213435C4A5E
:1024500013800121A3785A4A9278934200D1A7E0D1
:1024600053409B0700D593E0A378554A9278534098
:10247000DB0700D594E0A278514B9A70002200212E
:102480000920FFF751FE002200210A20FFF74CFE31
:10249000002200210820FFF747FE0022002107202C
:1024A000FFF742FE002200210620FFF73DFE00223A
:1024B00000210320FFF738FE002200210220FFF751
:1024C00033FE002200210520FFF72EFE002200210E
:1024D0000420FFF729FEFFF7E9FC00230393394CA2
:1024E000AC33E3580293321C02A903A8FFF700FCA7
:1024F000010001220120FFF717FEA823E3580193F2
:102500002A1C01A903A8FFF7F3FB01000122002008
:10251000FFF70AFEFFF7D8FB04B070BD294ACC23B1
:10252000D15801220920FFF7FFFD69E7254AD02392
:10253000D15801220A20FFF7F7FD65E7214AC82399
:10254000D15801220820FFF7EFFD61E71D4AC4239F
:10255000D15801220720FFF7E7FD5EE7194AC023A3
:10256000D15801220620FFF7DFFD5AE7154AB423B0
:10257000D15801220320FFF7D7FD56E7114AB023B7
:10258000D15801220220FFF7CFFD5CE7002161E76F
:102590000C4ABC23D15801220520FFF7C5FD63E793
:1025A000084AB823D15801220420FFF7BDFD62E795
:1025B000002900D191E761E78430002088300020B5
:1025C00004280020D816002010B5094B1970094BBB
:1025D0001978094A117015221A70084B1860084BB7
:1025E000084A1A60084B01221A70FFF75FFC10BD01
:1025F000803000207E300020823000205C200020CF
:1026000044200020D12000107D30002010B50B4B5D
:1026100018700B4B00221A600A4B0A321A700A4BD0
:102620000B321A70094B0A4A1A600A4B01221A70BF
:102630000020FFF7C9FCFFF739FC10BD87300020F0
:10264000402000207E3000207F30002044200020E9
:10265000A91900107D30002070B582B004000D0073
:10266000274B1B78002B0CD0264B1C700023264ACE
:102670001370264A1370062C14D8A400244B1B593F
:102680009F46244E244930000CF07EF902000023BE
:102690000093153300213000FFF794F9184B012205
:1026A0001A70E1E71D4B1E4A1A601E4AC8235B00E0
:1026B000D05CFFF7E9FD002D1BDAFFF7F7FB02B056
:1026C00070BD164B184A1A60EFE7144B174A1A6090
:1026D000EBE7124B164A1A60E7E7104B154A1A60EF
:1026E000E3E70E4B144A1A60DFE70C4B134A1A60FB
:1026F000DBE7FF2D00DDFF25E8B2FFF7CDFBDCE7D0
:102700008630002083300020843000208830002074
:10271000981A011000002050E01A011040200020FB
:102720003D220010D8160020F91F0010B91E00101D
:10273000852000102D200010451F0010B12300102F
:1027400010B5034B186064210520FFF785FF10BD0D
:102750005820002010B5124A124900F0EDF9002867
:1027600000D110BDFFF71EFB002803D10E4B1B78D4
:10277000002BF6D00D4B1B78002B0AD00C4B1B689E
:1027800098470028EDD00023084A1370094A1370B7
:10279000E7E7094B1B68002BE3D09847E1E7C04609
:1027A000E02C00201A410000883000207D300020FD
:1027B00044200020843000204020002000B587B055
:1027C0002C4B1B7805AA137004AA137007F09CFD0C
:1027D00002000B1E2CDB2848002112184B41002B55
:1027E0002CDB002B2EDB029203930123009305AA1E
:1027F0006A2122480CF020FC07F086FD02000B1E27
:1028000026DB1D48002112184B41002B26DB002B34
:1028100028DB0292039300230093013304AA6A2168
:1028200016480CF028FC002822DD012007B000BD6E
:10283000134B144A3F21144808F0B6FA01225242C1
:10284000124BCEE70E4B0F4A3F210F4808F0ACFA6F
:102850000B4B0C4A3F210C4808F0A6FA01225242C9
:102860000A4BD4E7064B074A3F21074808F09CFA79
:102870000020DBE764240110102700004815002029
:10288000F01A0110701B01100C1B0110FFFFFF7FDD
:1028900010B586B00020FDF7A5FD00241CE0204BFC
:1028A000204A3F21204808F07FFA002B28DB0292C3
:1028B000039300230093023305AA6A211B480CF0FE
:1028C000BBFB0400831C21D0431C22D0FA208000D3
:1028D00007F04AFCFEF77AFC002C1DD105AB144A28
:1028E0001A8007F011FD02000B1ED8DB11480021F1
:1028F00012184B41002BD8DA012252420E4BD4E77A
:10290000074B084A3F21084808F04EFAFEF75EFCE4
:10291000DCE7FEF75BFCD9E7FEF758FC06B010BD1C
:10292000F01A0110701B01100C1B0110481500203B
:102930000941000010270000FFFFFF7F00B587B0AE
:10294000232821D8C0B20538C0B27F23184005AB78
:1029500004221A70587007F0D7FC02000B1E20DB0F
:102960001848002112184B41002B20DB002B22DBE2
:102970000292039300230093023305AA6A211248AE
:102980000CF05AFB07B000BDAF235B00984200D9A2
:10299000180028380A2109F08DFBC0B21F30C0B2E0
:1029A000D3E70A4B0A4A3F210A4808F0FDF9012201
:1029B0005242094BDAE7054B054A3F21054808F02A
:1029C000F3F9C0461027000048150020F01A011046
:1029D000701B01100C1B0110FFFFFF7F00B587B0BB
:1029E0002E4B1B7805AA137004AA137007F08CFCF9
:1029F00002000B1E30DB2A48002112184B41002B2D
:102A000030DB002B32DB029203930123009305AAF3
:102A10006A2124480CF010FB07F076FC02000B1E24
:102A20002ADB1F48002112184B41002B2ADB002B08
:102A30002CDB0292039300230093013304AA6A2142
:102A400018480CF018FB0230012825D904AB18787F
:102A5000C007C00F07B000BD134B144A3F211448F4
:102A600008F0A2F901225242124BCAE70E4B0F4A5C
:102A70003F210F4808F098F90B4B0C4A3F210C48B6
:102A800008F092F9012252420A4BD0E7064B074A5E
:102A90003F21074808F088F90120DBE76424011092
:102AA0001027000048150020F01A0110701B0110BB
:102AB0000C1B0110FFFFFF7F10B5FA21074A090226
:102AC00000F03AF8002800D110BDFFF787FF044B53
:102AD00018700028F8D1FEF787FBF5E7282D0020B5
:102AE00069300020072804D88000024B9C466044CF
:102AF000016070470C80054010B5072802D90024FA
:102B0000200010BD8000044B9C46604404680021F6
:102B10000520FFF7E7FFF3E70C80054010B5010043
:102B20000520FFF7DFFF0120FFF770FD10BD10B596
:102B30000520FFF7E1FF10BD10605368834205D9FF
:102B4000C31A013B8B4205D200207047834204D256
:102B5000C31AF7E750600120F7E70020F5E730B52A
:102B60001860002A0BD15C6884420BD9041B013C1D
:102B70000025002D0BD1A14209D9100030BD5860AD
:102B80000020FBE7844205D2041B0025F1E75860D2
:102B90000120F3E71000F1E710B5FEF79BFE0228D5
:102BA00001D0024810BD0248FCE7C046881B011056
:102BB000781C011010B500200DF0E0FD10BD0000E4
:102BC00010B5102106480EF08BFE002800D110BD74
:102BD000044B01221A7002480EF042FEF7E7C0468D
:102BE000801500209430002010B5102106480EF00A
:102BF00077FE002800D110BD044B00221A70024855
:102C00000EF02EFEF7E7C04680150020943000201D
:102C100070B5050010210D480EF062FE041E09D1AA
:102C20000B4B22000B492800FFF799FF051E08D126
:102C3000200070BD084B1C78E4B204480EF010FE72
:102C4000EEE7FFF7BDFF2C00F2E7C046801500203D
:102C5000042E0020A0860100943000200378013368
:102C60000370044B1B785BB2022B01D00248704703
:102C70000248FCE7EC120020C01D0110F81E0110F4
:102C8000014B18607047C046E021002010B50400D9
:102C9000002001F013FC022C2BD0062C1CD0012CA0
:102CA00010D0012001F00AFC1748FFF7E9FF174B8D
:102CB000174A1A60174B184A1A60184B1C700EF00E
:102CC00069F910BD0120FFF7DBFF104B144A1A60B1
:102CD000104B144A1A60F0E7012001F0EFFB124894
:102CE000FFF7CEFF094B114A1A600A4B0A4A1A60D5
:102CF000E3E70120FFF7C4FF044B0D4A1A60054BC0
:102D00000C4A1A60D9E7C046141E0000DC210020DE
:102D10001D7B0010E4210020B52B0010EC120020D8
:102D2000D185001091330010DC050000718C00107B
:102D3000C56300101D38001070B504000D001600AA
:102D40000120002140420DF08DF82000FFF760FFC8
:102D5000002809D1154B1B78002B04D1144B1B689C
:102D60009847124B187070BD124B1968124A200018
:102D7000FFF7E2FE0028F6D0FFF736FF0B4B1B787B
:102D8000002BF0D00D4B1B68310028009847012420
:102D90006442002120000DF065F8002120000DF0B4
:102DA00061F8002120000DF05DF8DCE7953000208F
:102DB000E4210020E0210020E82C0020DC2100207C
:102DC000084B1B785BB2022B07D0062B07D0012BD8
:102DD00001D0054870470548FCE70548FAE7054873
:102DE000F8E7C046EC12002060250110081E011013
:102DF000E41E01103C2E0110084B1B785BB2022B25
:102E000007D0062B07D0012B01D005487047054895
:102E1000FCE70548FAE70548F8E7C046EC12002051
:102E200020250110D81D0110B81E0110102E011010
:102E30000020704710B5134B1B785BB2022B13D0E8
:102E4000062B18D0002B05D00B78002B0FD1FFF7E5
:102E5000B7FE0CE00B78302B03D0212B01D0812B57
:102E600005D1FFF7ADFE02E00B78212B00D010BD9D
:102E7000FFF7A6FEFBE70B78012BF8D1FFF7A0FECA
:102E8000F5E7C046EC12002070B504AC25882E4C46
:102E9000247864B2012C2DD0022C12D0002C00D04A
:102EA00070BD0029FCD1002AFAD11878102804D06E
:102EB0002A00190001F052F8F2E7981C00F0D6FD44
:102EC000EEE70029ECD1002AEAD11A78112A05D0C0
:102ED000132AE5D11D480AF081FFE1E75B78002B5A
:102EE00006D01B490B1C1B4A1B48FEF711F9D7E7FC
:102EF0000021F7E70029D3D1002AD1D11A78002A7E
:102F0000CED15A78082ACBD1DA78002A02D11979A1
:102F1000002911D01B79101C9A4200D2181CC0B293
:102F20000AF057FC0D490AF0EAFB011C031C094A90
:102F30000948FEF7EDF8B3E70020031C021C011C52
:102F4000FEF7E6F8ACE7C046EC1200203C1D01108D
:102F50006666263F000020420000F04200007F43EA
:102F6000064B1B785BB2022B03D0062B03D104481F
:102F700070470448FCE70448FAE7C046EC1200201A
:102F8000502E01104C1E01107425011070B5EE2852
:102F900024D0002825D080001E4BC55828000EF0F4
:102FA0001FFCC0B21F2800D91F20002327E05A1C95
:102FB000194CA15C0902E25C0A43440017496252C1
:102FC00002330130112BF2D9154A144B13CB13C223
:102FD00011001A680A609B888B8019E0002000238A
:102FE000F0E70C4B196802220E480AF0A7FD0120F9
:102FF00007E05A1CEC5C5100094BCC52D3B298420A
:10300000F7D801304000C0239B001843044B1880C0
:10301000034870BD10120020801D0110A41800206C
:10302000381C00203A1C002000B591B040226946AF
:1030300000200DF031FE00200DF044FE064B1B7801
:103040005BB2002B01D011B000BD04480AF096FE1F
:10305000684604F00DFFF6E7EC120020541D011045
:10306000F0B583B005001400012966D113785B0622
:103070009B0F012B58D0022B03D0002B01D0002036
:103080005CE06378022B24D0072B03D0012B19D0EE
:10309000002053E0227963791B021343042B03D0F1
:1030A000052B08D0002049E02433264A21002800BF
:1030B0000CF0FCFF42E08D33234A210028000CF085
:1030C000F5FF3BE02823214A210028000CF0EEFF09
:1030D00034E0227963791B021343072B30D11C4B58
:1030E0001B785BB2022B0FD06B469F1D194E02223C
:1030F000310038000AF022FD3B883200083A2100F6
:1031000028000CF0D3FF19E06B469F1D124E0222DF
:10311000310038000AF012FD3B883200083A2100E5
:1031200028000CF0C3FF09E051780C480AF056FE65
:10313000210028000CF09EFF00E0012003B0F0BD4C
:103140000020FBE7C412002030120020941D011063
:10315000EC120020CC1B0110A41C01106C1D0110EE
:10316000012815D0022907D000290BD1022A29D025
:10317000002A29D006207047022A1FD0002A1FD01B
:103180000800F8E7022A21D0002A21D00820F2E71F
:10319000022907D000290BD1022A1FD0002A1FD0F4
:1031A0000720E8E7022A15D0002A15D00320E2E71D
:1031B000022AE0D0002A15D00020DCE70120DAE75F
:1031C0000320D8E70720D6E70520D4E70020D2E780
:1031D0000420D0E71000CEE70420CCE70820CAE79F
:1031E0000620C8E70520C6E70120704710B58422F5
:1031F000002102480AF09CFC10BDC04604260020B5
:1032000010B50020FFF7F2FF10BD0000F0B5C64674
:1032100000B580460D008B795D2B24D10B79DF0042
:10322000FF1ABFB21937BFB2974221D80C780C19D8
:10323000002605E0104A53700136F6B22378E418F0
:103240002B79B34210D96378052BF7D12100404682
:103250000CF036FB00280DD0A378DA09012AE9D05A
:10326000054A9370E8E70027380080BCB846F0BDF7
:103270000027F9E70027F7E70426002030B583B0E0
:10328000040014484078884206D0124A92788A4254
:103290000CD0012003B030BD0F4A002A18D09AB2DA
:1032A0000E490020FFF7C6FD0120F3E70C4D9BB24D
:1032B00000932B00002200210020FFF7E5FD2B00EA
:1032C000443B997840232A0020000CF06DFBE1E795
:1032D0000120DFE704260020352E001008260020FC
:1032E0004826002010B50CF04FFA002803D1002327
:1032F000002B08D110BD0CF04FFA002801D101239A
:10330000F6E70023F4E70B4B997800200CF088FBDC
:103310000028EFD1074CA1780CF01EFB22004432AC
:10332000A178402300200CF03FFBA17800200CF096
:1033300027FBDFE70426002070B505000C000CF029
:103340002BFA002806D1812100200CF005FB002873
:1033500003D170BD0CF028FAF5E7231C402C00D9EE
:1033600040239CB2094E2200290030000AF0E6FBFF
:10337000351F69782300320000200CF015FB6978B6
:1033800000200CF0FDFAFFF7ADFFE2E70826002071
:1033900010B5104B5C780CF0F7F9002806D100232B
:1033A000002B13D0002C09D1002010E00CF0F4F910
:1033B000002801D10123F3E70023F1E721000020D9
:1033C0000CF02EFB002803D1013000E0002010BDDE
:1033D0000020FCE70426002010B53C220021024812
:1033E0000AF0A6FB10BDC046D41C002010B500207A
:1033F000FFF7F2FF10BD0000F0B583B006000F002C
:103400001500FEF767FA02284CD13B79DC00E41A7C
:10341000A4B21234A4B2AC4248D80023002B09D085
:103420000025002D44D0397879184B78212B11D004
:10343000002438E01A01D21A92001F4882185278EC
:10344000002A02D00133DBB2E8E71A01D11A890061
:103450004518E6E7A9630B78C9183A796B1C019304
:10346000AB1C0093032330000CF044FA002821D059
:10347000BB79012B13D001232B71BB782B70AA6B66
:10348000D179137A1B020B43EB80A97800290AD06B
:103490002A003032062330000CF086FA03E0FB7974
:1034A000EB70E8E70024200003B0F0BD0024FAE749
:1034B0000024F8E70024F6E7D41C002070B582B0A1
:1034C00005001D4C002000280AD0002830D1627869
:1034D0008A4213D0A2788A421AD0012002B070BD6D
:1034E0000401241AA400144A1419A2788A42ECD0C8
:1034F00062788A42E9D00130C0B2E4E70F4A002A7C
:1035000018D0210008319AB2FFF794FC0120E5E7BA
:10351000260030369BB20093330000220021FFF7D3
:10352000B3FCA1780623320028000CF03DFAD5E761
:103530000020D3E70120D1E7D41C0020352E001055
:10354000F0B5C64600B582B00600150012781F23FC
:103550001340012B00D01FE128790024002C0DD04E
:10356000FF24002C00D01CE127006023180010402D
:10357000134239D101290BD001200EE123011B1B7D
:103580009B008E4FDB5D9842EBD00134E4B2E5E75F
:10359000EA786B78062B06D0062B00D005E1222AAC
:1035A00012D00020F9E0212AF6D123011F1BBF0011
:1035B000824BDF19BA6B002A00D1F4E0137829009E
:1035C00030000CF073FDE8E02000FFF7C9FC0200BA
:1035D0003B01DF1BBF00794BDF19FB88290030005E
:1035E0000CF064FD0120D8E0202800D0DFE06B78EB
:1035F0000B2B00D9DDE09B00714AD3589F4601296F
:1036000001D00120C9E0EA78A97823011B1B9B00A7
:1036100008336A4FFF18A879EB791B020343181C83
:10362000252B00D9252080B2002909D0012B16D9DD
:103630007B1C9C463970013880B20123984602E019
:10364000BC4600239846009063462000FFF7F0FB3D
:10365000030043449BB2002B05D100209DE0BC46F3
:1036600000239846EFE73A00290030000CF01EFDD9
:10367000012092E0012903D0032915D001208CE01C
:10368000AA79EB791B021343062B01D9002084E0B1
:103690002201121B9200303248498A18290030005A
:1036A0000CF004FD012078E0EA78A97823011B1BC7
:1036B0009B0030334148C318AE79E87900023043AB
:1036C000051C062800D90625ADB2002904D0012822
:1036D00002D91878884205D000952000FFF7D4FB66
:1036E00001205AE00133013DADB2F5E7012901D0D7
:1036F000012052E0E97823011F1BBF002F4BDF1987
:103700007971304B002B04D0200000E000BF00286E
:1037100043D0290030000CF0ADFC01203DE0012930
:1037200001D0012039E02201171BBF00234AD21922
:1037300005320123290030000CF0B8FC01202CE0F8
:10374000012901D0012028E02201171BBF001B4ADC
:10375000D21904320123290030000CF0A7FC01200B
:103760001BE0012903D0032907D0012015E029001F
:1037700030000CF07FFC01200FE0A97823011F1B13
:10378000BF000E4BDF1939710F4B002B13D02000F7
:1037900000E000BF012000E0002002B080BCB8467D
:1037A000F0BD0020F9E70020F7E70020F5E7002052
:1037B000F3E70020F1E70120EFE7C046D41C00202A
:1037C0001C1E0110000000000000000010B50301E5
:1037D000181A8000104B181844780BF0D5FF0028F9
:1037E00006D10023002B13D0002C09D1002010E0BB
:1037F0000BF0D2FF002801D10123F3E70023F1E70A
:10380000210000200CF00CF9002803D1013000E069
:10381000002010BD0020FCE7D41C002010B50020C3
:10382000FFF7D4FF10BD0000F8B504000F0016002C
:103830001D0003011B1A9B001F4AD3185978002052
:103840000CF08AF8002825D0002F24D02B1C242D22
:1038500000D924239DB2184A2301191B890051184D
:103860000F721B1B9B000833D01801302A00310057
:103870000AF064F90135ADB20F4B2001021B920032
:1038800008329A18001B8000181841782B0000207D
:103890000CF08AF8F8BD2B1C252D00D925239DB2EC
:1038A0002001001B80000830034B18182A0031004B
:1038B0000AF044F9E0E7C046D41C002010B513001C
:1038C0000A0001000020FFF7AFFF10BD10700312C7
:1038D0000F20184050700B0118435070091191705F
:1038E0007047000070B5124D802424012A00210089
:1038F0002000FFF7EBFFEA1C21002000FFF7E6FFA6
:10390000AA1D21002000FFF7E1FF2A000932210053
:103910002000FFF7DBFF2A000C3221002000FFF718
:10392000D5FF2A000F3221002000FFF7CFFF70BD26
:103930003830002010B54022002102480AF0F8F883
:1039400010BDC04620210020014B18707047C046B2
:1039500090300020014B18737047C0462021002092
:10396000014B58737047C04620210020074A0021B0
:10397000535E107806490870023399B21BB2138067
:10398000FF2B01DDFF3911807047C0465E300020FB
:1039900020210020024B1A78024B5A707047C04613
:1039A0003420011020210020054B03229A73482166
:1039B000D9731A74013A5A74473919765A7670478E
:1039C0002021002010B5C4B2000A002307E019002E
:1039D0000E31044A5454013150540233DBB20D2BE2
:1039E000F5D910BD2021002010B503007F2800D993
:1039F0007F2080B2002B08D009F0EBFE044909F0CB
:103A000094FE044909F076FE10BD0248FCE7C0466A
:103A1000BA6693400000204210B503007F2800D909
:103A20007F2080B2002B08D009F0D3FE044909F0B2
:103A30007CFE044909F05EFE10BD0248FCE7C0466A
:103A4000C56613410000A04210B503007F2800D9CD
:103A50007F2080B2002B05D009F0BBFE024909F09F
:103A60004EFE10BD0020FCE70000FE42F8B5CE4639
:103A7000474680B5C278930909D0012B49D0022B63
:103A800043D142781202037813439B053DD004785A
:103A9000E3075AD5630899464378DA007821114044
:103AA00088468278D200082515405B091D43ED0049
:103AB0002F4E002700244378DB0601D500239846CB
:103AC00083789B0700D500250021381C09F05EFE95
:103AD000002803D04846FFF79FFF071C0021301C39
:103AE00009F054FE002803D02000FFF77DFF061CDC
:103AF0004046FFF7A9FF041C2800FFF7A5FF031CA1
:103B0000321C211C381CFDF703FBC0BCB946B04673
:103B1000F8BD81780C024678330023431B05F4D0AE
:103B200003789807F1D17F240C4052007E252A406B
:103B3000CD091543F101FF220A409B081A43914623
:103B4000730898460026371CBEE764084378DA00FD
:103B50007821114088468278D200082515405B09FB
:103B60001D43ED000026034F00239946A3E7C046FE
:103B7000000020430000A0430A4B01221A700022DB
:103B80005A7003329A70084A117AD970D179197132
:103B900091795971517999711179D971D2781A72D3
:103BA0007047C04620210020D816002010B5040020
:103BB000FFF7C0FE8120FFF7C7FE012C09D0064B9E
:103BC0001C70064B19784023034A00200CF0FEFDC0
:103BD00010BDFFF7D1FFF4E7202100209030002036
:103BE00070B586B06C462A4B0433220070CB70C28D
:103BF00070CB70C2022837D0032841D000230025A3
:103C000000E00133052B10D8224AD2182D32FF32A2
:103C100014780522D21A885C8442F2D01D4AD21848
:103C20002D32FF3210700125EBE7002D19D18120D4
:103C3000FFF790FE184801238373164B1A7AC2735C
:103C4000DA7902749A7942745A7982741A79C27450
:103C5000DB78037515301822694609F06FFF06B04E
:103C600070BDFDF799FDE2E78120FFF773FE0A487A
:103C7000022383730F301022084909F05FFFEEE73B
:103C80008120FFF767FE044B03229A73E7E7C046E3
:103C900034200110D816002020210020A02100206F
:103CA00070B504000E001500FFF744FE2120FFF759
:103CB0004BFEFFF75BFEFFF76DFE2000FFF750FEA7
:103CC000482C48D8A4002E4B1B599F468020FFF754
:103CD00041FE00234BE0F07A431E9841C0B200F051
:103CE000EDFB8020FFF736FEF3E731000C31F07A70
:103CF000FFF776FFEDE78020FFF72CFEF27A214BED
:103D00001A70E6E78220FFF725FEFFF74DFEE0E799
:103D10008020FFF71FFEDCE79020FFF71BFEF27B01
:103D2000F17A307B00F0FCF9D3E7FEF7B1FDD0E784
:103D30008020FFF70FFECCE78320FFF70BFE642007
:103D4000FFF740FEC5E78020FFF704FEC1E78020B3
:103D5000FFF700FEBDE70023AB4202D201339BB266
:103D6000FAE78020FFF7F6FDB3E70133DBB21F2B44
:103D7000FBD94023044A212100200CF027FD70BD0F
:103D8000101F0110F01200202021002070B50C003F
:103D9000150010280DD080280FD0012800D070BD4C
:103DA000881CFFF763FEA07A2A002100FFF778FF46
:103DB000F5E7881CFFF75AFEF1E74878FFF7F6FEB3
:103DC000EDE70000094B1B780A2B07D00B2B09D01D
:103DD000064B0A221A70054B18787047034B0B22CA
:103DE0001A70F8E7014B0C221A70F4E7F112002068
:103DF00070B50500524B1B78002B04D1514B1B783A
:103E0000302B0BD070BD504B1A88504B187850494E
:103E1000FFF7BCFF4A4B00221A70F3E7FFF78AFD59
:103E20003020FFF791FDFFF7A1FDFFF7B3FD00F094
:103E3000EBF98378474C2373C37863730378A373D8
:103E40004378E3730379237443796374037AA37427
:103E5000437AE37483792375C3796375837AA37591
:103E6000C37AE37500F0D0F983782376C37863765C
:103E70000378A3764378E3760379237743796377EE
:103E8000037AA377437AE37782792023E254C279D5
:103E90000133E254827A0133E254C27A0133E254AC
:103EA00000F0B2F982782423E254C2780133E2545C
:103EB00002780133E25442780133E254027901334B
:103EC000E25442790133E254027A0133E254427AF5
:103ED0000133E25482790133E254C2790133E2546E
:103EE000827A0133E254C27A0133E2542B78A37010
:103EF0006B78E370AB782371EB7863712B790F21CA
:103F00000B40A3716879AB791B0203431B11E3716A
:103F1000EB7923722B7A19406172697AAB7A1B02B2
:103F20000B431B11A372FFF74DFFE0720A4B197888
:103F30004023220000200CF049FC01F051FF61E712
:103F400091300020F0120020EE120020923000206C
:103F500060210020202100209030002010B5054B6A
:103F600001241C70044B1870044B1A80044809F09B
:103F7000E5FD10BD9130002092300020EE120020AF
:103F80006021002010B5024B181809F0D7FD10BDB4
:103F900020210020502800D1B0E003D960282FD084
:103FA000FF2010E0402800D9AAE0202805D34B29A3
:103FB00024D88B00564AD3589F46002803D0102897
:103FC00000D09FE0002070479520FCE70020FAE732
:103FD0002A39504B59182D31FF310878F3E704394D
:103FE0004C4B59182D31FF310878ECE70020EAE7F7
:103FF0000020E8E76820E6E70020E4E70020E2E7A9
:10400000A92979D88B00444AD3589F46FF20DAE784
:104010000220D8E70120D6E72320D4E70020D2E70A
:10402000B920D0E71A20CEE70120CCE70020CAE76C
:104030004020C8E70020C6E74020C4E70020C2E7D0
:104040004020C0E70120BEE70020BCE70120BAE71E
:104050000020B8E70120B6E70020B4E73B20B2E734
:104060003420B0E73B20AEE73420ACE73B20AAE7A2
:104070003420A8E73D39294B585CA4E73D39274B4C
:10408000585CA0E71A209EE71A209CE71A209AE7BE
:104090005E2098E7012096E7502094E7FD2092E704
:1040A000002090E700208EE7C6208CE70F208AE7EB
:1040B0000F2088E7302086E7612084E7AE2082E782
:1040C000902080E7D9207EE7D4207CE714207AE78F
:1040D000542078E7412076E7152074E7542072E7F2
:1040E000C72070E779206EE79C206CE733206AE7F1
:1040F000362068E7632066E7002064E7002062E777
:10410000FF2060E7FF205EE722205CE703205AE7FC
:1041100050200110D81600208021011038300020D6
:10412000F0B58BB006000F00150008A90F7048709D
:1041300000248C70CC700A7105220E20FFF722FF3C
:1041400000941A22002101A809F0F2FC07E03919B5
:10415000C9B23000FFF71EFF6B4618550134A54267
:10416000F5DC2A0069461320FFF70CFF0BB0F0BD09
:10417000F8B50400204921480DF0A2FB0028F9D031
:104180001F4D2B68581C032107F094FF2778627895
:1041900012021C4E4800401883005B183A43F25448
:1041A000120AF3185A70A078E278120202439A7049
:1041B000120ADA7020796279120202431A71120A25
:1041C0005A71A079E279120202439A71120ADA71E5
:1041D000207A627A120202431A72120A5A72A07A82
:1041E000E27A120202439A72120ADA7229600348D2
:1041F0000DF036FBF8BDC0468C1E0020881500204F
:10420000881E0020601E002010B5094909480DF0E5
:1042100057FB0028F9D0084B1C6806480DF020FB1E
:104220006000001980000019044B181810BDC0462A
:10423000901E002088150020881E0020601E00208F
:104240004118CB0F5B185B1080225202914204DAB6
:10425000044A914203DB18B270470348FCE7034865
:10426000FAE7C046FFFFFEFFFF7F00000080FFFF70
:1042700070B52848FEF764FA274D06220021280071
:1042800009F056FCA81D0622002109F051FC234B21
:1042900001221A70224BFA2292011A60214B00224D
:1042A0001A70214E214C31002000FCF70BFD002339
:1042B000E25E9C3D9C23EA540223E25E9D23EA5485
:1042C0000423E25E9E23EA540623E25E9F23EA541F
:1042D0000823E25EA023EA540A23E25EA123EA5403
:1042E0000023F25EA223EA540223F25EA323EA54DF
:1042F0000423F25EA423EA540623F25EA523EA54C3
:104300000823F25EA623EA540A23F25EA723EA54A6
:1043100070BDC0460000FFFF7417002074300020FD
:104320005C1E0020753000204C1E00202C1E00203A
:1043300010B5084ABA235B00D05C01214942FEF760
:104340008BF9FDF723FAFDF727FA034B00221A70C9
:1043500010BDC046D816002074300020F8B5524970
:104360005248FCF7AFFC524B1B78002B00D160E0A9
:10437000504C9C254D4E0023F15E6057FFF760FFC7
:10438000605501350223F15E6057FFF759FF605514
:1043900001350423F15E6057FFF752FF6055013588
:1043A0000623F15E6057FFF74BFF60550135082388
:1043B000F15E6057FFF744FF605501350A23F15E57
:1043C0006057FFF73DFF6055A227374D0023E95E98
:1043D000E057FFF735FFE05501370223E95EE0576C
:1043E000FFF72EFFE05501370423E95EE057FFF7A2
:1043F00027FFE05501370623E95EE057FFF720FF6E
:10440000E05501370823E95EE057FFF719FFE05553
:1044100001370A23E95EE057FFF712FFE05500235A
:1044200033732B73244A1368013B1360002B37D07E
:10443000F8BD1E4A0023D05E1E4B9C215854022119
:10444000505E9D2158540421505E9E2158540621EF
:10445000505E9F2158540821505EA02158540A21D3
:10446000515EA1229954104A0021505EA221585455
:104470000221505EA32158540421505EA4215854B7
:104480000621505EA52158540821505EA62158549B
:104490000A21515EA7229954054BA63A1A70C7E724
:1044A000FFF746FFC4E7C0464C1E00202C1E00202C
:1044B00075300020D81600205C1E0020014B1870BB
:1044C0007047C04676300020F8B5474B1B78002B6C
:1044D00004D1464B1B78002B03D1F8BDFFF73EFFFC
:1044E000FBE7FA21424A8900FEF726FB0028F4D0B8
:1044F000404C21004048FCF7E5FB237B002B03D018
:104500003D4B1B7B002B09D13B4B1B7B002B67D109
:104510000023394A1373374A1373DEE7364F38885E
:10452000364C9C23E3569BB2C01A324E3188A223EC
:10453000E3569BB2C91A09B200B2FFF781FE304DB3
:10454000288078889D23E3569BB2C01A7188A323E4
:10455000E3569BB2C91A09B200B2FFF771FE688038
:10456000B8889E23E3569BB2C01AB188A423E356B1
:104570009BB2C91A09B200B2FFF762FEA880F888A0
:104580009F23E3569BB2C01AF188A523E3569BB242
:10459000C91A09B200B2FFF753FEE8803889A02398
:1045A000E3569BB2C01A3189A623E3569BB2C91ABF
:1045B00009B200B2FFF744FE28817889A123E356AF
:1045C0009BB2C01A7189A723E3569BB2C91A09B2DC
:1045D00000B2FFF735FE68812800FFF7C9FD97E7B5
:1045E0000548FFF7C5FD93E77430002076300020C2
:1045F000F02C00204C1E00202C1E0020D81600207D
:104600003C1E002004281ED00CDC012816D00028F7
:104610000FDD0238C0B201280BD80D4B0B600833F8
:1046200013600AE0052804D10A4B0B6008331360BD
:1046300003E0094B0B60083313607047074B0B60B6
:1046400008331360F9E7064B0B6008331360F4E797
:10465000D0170020F0170020B0170020C01700204E
:10466000E017002030B50F220D780F231D4004788D
:1046700094432C4304704C781C40250104781C4062
:104680002C4304708D781D40447894432C4344702F
:10469000CC781C40250144781C402C4344700D7993
:1046A0001D40847894432C4384704C791C40250130
:1046B00084781C402C4384708D791D40C4789443C9
:1046C0002C43C470CC791C402501C4781C402C4379
:1046D000C4700D7A1D40047994432C4304714C7AC4
:1046E0001C40250104791C402C4304718D7A1D4027
:1046F000447994432C434471CC7A1C40250144797D
:104700001C402C4344710D7B1D40847994432C4301
:1047100084714C7B1C40250184791C402C4384719E
:104720008D7B1D40C479944322002A43C271CA7B09
:104730001A401201C1790B401343C37130BD0B788D
:104740001B071B0F03700B781B0943704B781B076B
:104750001B0F83704B781B09C3708B781B071B0FD3
:1047600003718B781B094371CB781B071B0F837177
:10477000CB781B09C3710B791B071B0F03720B79D5
:104780001B0943724B791B071B0F83724B791B0963
:10479000C3728B791B071B0F03738B791B09437340
:1047A000CB791B071B0F8373CB791B09C37370472E
:1047B00070B50400144D154A2900FFF723FF2B683C
:1047C000134A1168526819605A60042C12D0052CE3
:1047D00015D0032C09D00D4B1B6800221A800A4B00
:1047E00019680C48FFF7ABFF70BD084B1B680A4AFD
:1047F0001A80F4E7054B1B68084A1A80EFE7034B61
:104800001B68074A1A80EAE73C200020D8210020D4
:10481000682401102020002000E1FFFF00C0FFFFFE
:1048200000CAFFFF10B50E4B19600E4B1A600E4BFD
:1048300018700E4C0E4A2100FFF7E4FE21680D4C63
:104840002000FFF77CFFE37A0B3B5A1E93410A4A94
:104850001370637A093B5A1E9341084A137010BDC6
:1048600074190020781900207C3000203C200020A2
:10487000D8210020202000207B300020773000202D
:10488000024A94235B00D0547047C046D8160020DB
:1048900010B5044B00221A70034B19680348FFF748
:1048A0004EFF10BD663000203C200020202000205C
:1048B00070B590B00500384C384E22003100FFF73B
:1048C000A1FE31683648FFF73AFFFFF7E1FF00230A
:1048D00000933C22002101A809F02AF9A6236A4688
:1048E0001370557033681A781207120F69468A7070
:1048F0001A781209CA705A781207120F0A715A7878
:1049000012094A719A781207120F8A719A7812095D
:10491000CA71DA781207120F0A72DA7812094A722B
:104920001A791207120F8A721A791209CA725A7901
:104930001207120F0A735A7912094A739A791207E9
:10494000120F8A739A791209CA73DA791207120F51
:104950000A74DB791B094B74226813881B0A8B7459
:104960001388CB740F4B942252009A5C0A759522DF
:1049700052009B5C4B75FA20000103F0CDF9002832
:1049800001D110B070BD00200CF0CCF94022694676
:1049900000200CF0A9F9F4E7CC210020C821002068
:1049A000B8210020D816002070B50A0000210F2978
:1049B00037D803000B41DB0714D40131C9B2F6E745
:1049C0000133DBB20F2B0FD82A4AD05C2A4A127867
:1049D0009042F5D1294A1468012098402288024368
:1049E0002280EDE70023EDE7224C2348037863544F
:1049F000224B1D6801228A402B8893432B8002782A
:104A00001F4809F0EBF91F4B00221A701E4B186863
:104A10002100FFF727FE1D4B00201856FFF748FF27
:104A200070BD002AFCD0002401E00134E4B20F2C58
:104A300014D8104B1A5D104B1B789A42F5D1210007
:104A4000134809F0CBF90D4B19680122A2400B88DD
:104A500013430B800B4B00221A70E6E70A4B1868D1
:104A60000449FFF7FFFD094B00201856FFF720FF10
:104A7000D6E7C046B821002065300020CC210020B8
:104A80002824011066300020C82100209330002027
:104A90004424011070B504000D00084E084A31008E
:104AA000FFF7B0FD31680748FFF749FE064B1C7061
:104AB000064B1D70064B01221A7070BDC8210020E4
:104AC000CC210020B8210020933000206530002048
:104AD0006630002070B5D84B00221A809A70D74BF0
:104AE0001B78002B13D0D64B1A6893789B07D90FED
:104AF000002B03DA9378022083439370D04B1B681A
:104B00001A78587800021043FFF74EFF70BD01F08D
:104B100053FC002826D0CA4B19688A780124A24386
:104B20008A7019688A78022082438A7019684A78E4
:104B30001025AA434A7019684A781035AA434A706A
:104B400019680A78A2430A7019680A7882430A70C1
:104B500019680A78023082430A701A6813780821AB
:104B60008B431370B44B00229B5EB64A11684A789F
:104B7000D20600D543E1B24A12685278D206D20F6B
:104B8000B148007B824012B21343AB4A13804A788B
:104B9000920600D535E1AA4A126852789206D20FE1
:104BA000A948407B824012B21343A34C2380A44AFD
:104BB000126890788007C00F4000A5780226B543A0
:104BC0002843A0709078C007C50FA078013EB0437D
:104BD0002843A0700878C00700D514E11078C007FA
:104BE000C00F994C2478A04000B203439248038040
:104BF0000878800700D508E110788007C00F924C34
:104C00006478A04000B203438B48038008784007D3
:104C100000D5FCE010784007C00F8B4CA478A04072
:104C200000B20343844803800878000700D5F0E011
:104C300010780007C00F844CE478A04000B2034312
:104C40007D4803800878C00600D5E4E01078C006EF
:104C5000C00F7D4C2479A04000B203437648038006
:104C60000878800600D5D8E010788006C00F764C12
:104C70006479A04000B203436F480380087840067F
:104C800000D5CCE010784006C00F6F4CA479A0404E
:104C900000B20343684803800878C00900D0C0E030
:104CA0001078C009684CE479A04000B20343624820
:104CB00003804878C00700D5B5E05078C007C00F22
:104CC000614C247AA04000B203435B4803804878DB
:104CD000400700D5A9E050784007C00F5A4CA47A8D
:104CE000A04000B20343544803805848007800288D
:104CF00000D1B5E0D47815792D0225435079000410
:104D00000543947924062C430120514DAC4200DC2C
:104D10000020C0B25478A407E40F20434C78A407C5
:104D200000D584E0484C647AA04000B203439BB2B3
:104D3000414803809B057CD5464B3F4CE01CE3700B
:104D40001C0A4470002484701B0EC370424B1B78F5
:104D5000002B00D1A4E0D079147A24020443537AC2
:104D60001B041C43907A000620430123384CA042C8
:104D700000DC0023DBB250780007C00F03432E484D
:104D80000024005F4C78240700D585E02E4CE47A9F
:104D9000A3401BB203439BB2274803801B0500D4EA
:104DA0007CE02C4B244CE01DE3711C0A4470002471
:104DB00084701B0EC370204B00201B5E4878400699
:104DC00000D589E050784006C00F1F4CA47BA0405E
:104DD00000B20343184803804978C90900D07DE038
:104DE0005278D2091849C97B8A4012B2124913433A
:104DF0000B801A4B18680C2208F0A0FE86E60022F1
:104E0000C2E60022D0E60020EFE60020FBE600200C
:104E100007E7002013E700201FE700202BE7002012
:104E200037E7002042E700204EE700205AE7002045
:104E30007CE7002381E7C046302000206630002058
:104E400074190020D8210020202000207730002075
:104E500089020000FF0F00007B300020781900203D
:104E6000D378147924021C435079000404439379C5
:104E70001B0623431A4CE3701D0A25711D0C657136
:104E80001B0EA37153789B07DB0F5B006078022534
:104E9000A8430343637059E700237BE7002381E7BE
:104EA000D379147A24021C43507A00040443937A81
:104EB0001B0623430A4CE3711D0A25721D0C657203
:104EC0001B0EA37253781B07DB0FDB0060780825ED
:104ED000A843034363706EE700207AE7002285E76A
:104EE0003020002010B5054CA44660446244424383
:104EF0000819634458431018C00F10BD00F8FFFF95
:104F000070B50C0008F06AFC8A21C90508F0EDFBB9
:104F1000051C200008F062FC8A21C90508F0E5FBA9
:104F2000041C291C281C08F000FC051C211C201C4A
:104F300008F0FBFB011C281C08F0DCFB08F0B4FCAB
:104F400070BD10B5031C081C0124191C08F02CFCB2
:104F5000002800D10024E0B210BD10B504001300F9
:104F6000406800280CDB0A00A168FFF7BBFF00289F
:104F700000D110BD01235B426360A3600120F8E70C
:104F80000020F6E7F0B5D6464F464646C0B50600C7
:104F90000D0091469846089CFFF7B2FF071C374961
:104FA00008F00AFC002801D06660A5602A003100E4
:104FB0002000FFF7D2FF002813D000232373012223
:104FC00022766376A373637380252D012E002760FC
:104FD0004B461E6043461D60E0BCBA46B146A8463B
:104FE000F0BD237E002B30D0A37B0133DBB29A4689
:104FF000A373391C2068FFF7A4FF002811D00123F8
:105000002373637B0133637353461D2B05D81B4900
:10501000381C08F0D1FB002806D0002323766376E5
:10502000D5E700236373EFE7637B022B1DD90023D1
:105030002373237601336376534604332374666007
:10504000A56080252D012E00C1E7637E002BBED018
:10505000237C013BDBB22374002B0AD1237323761C
:10506000637680252D012E00B1E780252D012E00CD
:10507000ADE780252D012E00A9E7C0460040E7449A
:1050800030B583B00D001400131D094A00922200B0
:1050900049682868FFF776FF23000C3322000832A6
:1050A000E968A868034C0094FFF76CFF03B030BDBB
:1050B000402D0020C82D002010B50011084A13789B
:1050C000991C084C60540133DBB213703D2B01D89E
:1050D000002010BD130000221A700120F9E7C0461D
:1050E00073300020D020002010B50C00FA213D4A7A
:1050F0008900FDF721FD00281DD03B4B1B78002BBC
:1051000012D13A4B1B78002B60D123680B3BFF3B3D
:10511000374A93422BD9374B1C60344B01221A700B
:10512000354B00221A7006E0324B1B681868FFF7F7
:10513000C3FF002800D110BD304BA5221A702E4AA3
:1051400012785A70FA20000102F0E6FD002805D11D
:105150000023254A1370254A1370ECE740222749A3
:1051600000200BF0C1FD00200BF0DCFDF0E76368D0
:105170000B3BFF3B1E4A934208D904341D4B1C6075
:1051800001231A4A13701C4A1370D4E7A3680B3B1F
:10519000FF3B174A934209D90834164B1C60134B46
:1051A00001221A70144B01321A70C4E7E3680B3BFA
:1051B000FF3B0F4A9342BED90C340E4B1C600B4B85
:1051C00001221A700C4B02321A70B4E7094B1B68AB
:1051D0001B680B3BFF3B064A9342ACD8024B0122B3
:1051E0001A70A8E7302D00206830002071300020B0
:1051F000EB0D00001C2F00208D300020D02000205F
:1052000070B5041C0D000B78002B0AD0CE68011C71
:10521000301C08F0D1FA002804D06868211C08F07E
:1052200084FA70BD311C201C08F05FFAA96808F0F0
:105230007CFA024908F05EFAF3E7C0460000B44188
:1052400070B508F052FA4000400808F023FB040053
:105250000D0002000B000020054907F09AF902003A
:105260000B00200029000CF053FB07F087FA70BDFB
:105270000080764070B5061C0C1C151C111C201CEF
:1052800008F092FA00280FD0311C201C08F08CFA8C
:10529000002807D0311C281C08F08EFA002802D004
:1052A000012000E0002070BD311C201C08F07CFAB9
:1052B000002807D1311C281C08F07EFA002803D0F2
:1052C0000120F0E70120EEE70020ECE7F8B5071C2D
:1052D0000E000024002503E0002206E00134E4B2C1
:1052E000072C0DD8062CF7D8621CA3009200B258E8
:1052F000F158381CFFF7BEFF0028EFD02500EDE77E
:105300002800F8BD10B508F0C5FA0022104B07F0D0
:1053100073FB07F033FA041C002108F03FFA002861
:105320000FD1201C08F0B6FA00220A4B07F043F90F
:1053300007F0E8F9C217520F801807231840801AA7
:1053400010BD0549201C08F0D5F9041CE9E7C0464A
:1053500000807640008046400000B44310B508F05D
:10536000C9F9041C0B4908F02FFA002806D0094996
:10537000201C08F0BAF9041C201C10BD0021201CC0
:1053800008F00CFA0028F7D00249201C08F0B2F906
:10539000041CF1E70000B44370B5CD1A801A08F080
:1053A0001DFA041C280008F019FA211C08F08EFAD6
:1053B000114908F0BAF908F06DFA104A104B07F0DD
:1053C000FAF807F0DBF9041C002108F0E7F90028DF
:1053D0000BD10C49201C08F0EFF900280AD009492C
:1053E000201C08F082F9041C04E00649201C08F087
:1053F00081F9041C201C70BD00003443182D445456
:10540000FB2109400000B443F8B50C0017001E0052
:1054100008F0E4F9051C380008F0E0F9011C281C2C
:1054200008F063F9051C200008F0D8F9041C3000CE
:1054300008F0D4F9011C201C08F057F9041C291CA1
:10544000281C08F072F9051C211C201C08F06DF9BD
:10545000011C281C08F04EF908F026FAF8BD0000DF
:10546000F8B50F00160008F015FA0B4A0B4B07F0C1
:10547000C0F807F083F908F00DFA04000D0007F0FA
:1054800093F907F07BF938602000290007F0A2F9B2
:1054900007F074F93060F8BD399D52A246DF913FA4
:1054A000F0B5DE4657464E464546E0B583B08046E9
:1054B0008B4615001F001100FFF708FF04000628A7
:1054C0005CDC461CA3009946EB589A46B600A959E5
:1054D000181CFFF7B5FE051C51464046FFF7B0FE0D
:1054E0008046291C08F00BF9051C4B46FB589A46D0
:1054F000011CFE20800508F0F8F8011C504608F059
:1055000014F98246B859291C08F00FF9011C5046BD
:1055100008F0F0F8051C0C9B4A469858414608F0E4
:1055200004F9031C22010D9989180D98825C002A48
:1055300003D0181CFFF764FE031CA400304AA058D7
:10554000191CFFF70BFF0026019600966A4601A979
:10555000FFF786FF5946281C08F0E7F8041C311CA9
:1055600008F01CF900280BD18A21C905201C08F07D
:105570002BF9002805D08A24E40502E00026A1E7E3
:1055800000240199201C08F0D0F8051C0190211C72
:10559000009808F0CAF800908A21C905281C08F074
:1055A000A9F808F01BFA08F03BF9002823DB802358
:1055B0005B01984200DB134808F010F90E9B18605D
:1055C0008A21C905009808F095F808F007FA08F054
:1055D00027F9002811DB80235B01984200DB094892
:1055E00008F0FCF80F9B186003B0F0BCBB46B24655
:1055F000A946A046F0BD0020E0E70020F2E7C04643
:1056000070240110FF0F0000F0B5C64600B58046BB
:105610000F00160000240FE0300008F0DAF88A21AD
:10562000C90508F067F8A500434659597D1908F0E7
:1056300066F828600134E4B2072CEDD980BCB84686
:10564000F0BD0000F8B505000E0000240DE00023B9
:10565000A7009B00E958E859FFF7F2FD011C064836
:1056600008F04DF8F0510134E4B2072C03D8062CB1
:10567000EDD8631CECE7F8BD00003442F0B5C64637
:1056800000B580460F00002419E02601BE19012351
:1056900033702868164908F02DF8051CF060011CCD
:1056A000134808F02CF87060291C124808F01DF807
:1056B000011C0F4808F023F8B0600134E4B2072C55
:1056C00012D8A50045440021286808F05FF800289A
:1056D000DBD02301FB1800221A70054ADA60FE2293
:1056E00092055A609A60E8E780BCB846F0BDC046B3
:1056F0000000B441000034420A4AD3685B005B10EA
:1057000009490B6053695B005B1008490B60136922
:105710005B005B1006490B6093695B005B10054AF8
:1057200013607047D8160020102100201821002097
:10573000142100201C21002010B5054B1B68054AD0
:1057400012680549096805480068FCF78FF810BD24
:105750001C210020182100201421002010210020ED
:1057600010B5144C14492000FFF76CFF20002030C6
:105770001249FFF767FF1C3CCA235B00E25A200076
:105780005C300F49FFF740FFCC235B00E25A20005A
:105790007C300C49FFF738FF20003530FF300A49D4
:1057A000FFF76CFF20005530FF300849FFF766FF18
:1057B00010BDC046F4160020F4120020341300205F
:1057C0001413002054130020D41E0020981F002022
:1057D00010B50E4B00221A800D4C20320021200003
:1057E00008F0A6F9200020302022002108F0A0F9BE
:1057F000200040382022002108F09AF920002038AB
:105800002022002108F094F910BDC0465C30002031
:1058100034170020F0B5DE4657464E464546E0B503
:1058200083B004005F4B9B465F4B9A465B461B6808
:105830005246126841680068FFF7AEFD071C5B4BDB
:1058400099465B4D1B682A68E168A068FFF7A4FDD4
:1058500080460190574E311C0097381CFFF77EFDA3
:10586000071C311C4046FFF779FD061C381CFFF76A
:1058700049FD0700301CFFF745FD06005B461B682D
:105880005246126861682068FFF7BEFD82464B46AB
:105890001B682A68E168A068FFF7B6FD804600989B
:1058A00007F0F8FF0022444B07F0A6F806F066FF69
:1058B000041CFE21890507F071FF002805D13F492E
:1058C000201C07F081FF002822D03A0016329200F7
:1058D0003B4B9B185868514607F060FF002817D0D3
:1058E0003849504607F070FF002811D0344A3B0079
:1058F00016339B00D31851465960BB1D9B00D2182C
:10590000009B53600122BA402F490B8813430B8040
:10591000019807F0BFFF0022274B07F06DF806F053
:105920002DFF041CFE21890507F038FF002805D152
:105930002249201C07F048FF002824D032001E32E4
:1059400092001F4B9B185868414607F027FF00281C
:1059500019D01C49404607F037FF002813D0184AD9
:1059600033001E339B00D3184146596033000E3379
:105970009B00D218019B536008360122B2401249A5
:105980000B8813430B80104B1888104B9C466044C7
:1059900043425841C0B203B0F0BCBB46B246A94630
:1059A000A046F0BD14210020102100201C21002061
:1059B000182100200000B441008046400000304221
:1059C000D81600200000FA425C3000200100FFFFE2
:1059D000064B02681A60064B42681A60054B8268E3
:1059E0001A60C268044B1A607047C046102100203C
:1059F00014210020182100201C210020F0B5DE46D3
:105A000000B584B0040000910192224B9B46224FC6
:105A10001B683A6841680068FFF7BEFC02901F4EA1
:105A20001F4D33682A68E168A068FFF7B5FC039052
:105A30005B461B683A6861682068FFF7E5FC071C55
:105A400033682A68E168A068FFF7DEFC041C15498A
:105A5000381C07F0B9FE002809D11249201C07F0B4
:105A6000B3FE00280CD104B080BCBB46F0BD029848
:105A7000FFF748FC0023009A1370019B1870F2E7AF
:105A80000398FFF73FFC0123009A1370019B1870E5
:105A9000E9E7C04614210020102100201C2100202D
:105AA000182100200000FA42F0B5DE4657464E4667
:105AB0004546E0B585B0040000910192294B9A4615
:105AC000294D1B682A6841680068FFF765FC81461C
:105AD000264E274F33683A68E168A068FFF75CFC00
