:020000041000EA
:1000000000B5324B212058609868022188439860DF
:10001000D860186158612E4B002199600221596106
:100020000121F02299502B49196001219960352056
:1000300000F044F80222904214D00621196600F024
:1000400034F8196E01211966002018661A6600F04E
:100050002CF8196E196E196E052000F02FF8012189
:100060000842F9D1002199601B49196000215960AB
:100070001A491B48016001219960EB211966A021F2
:10008000196600F012F800219960164914480160C1
:100090000121996001BC002800D000471248134993
:1000A000086003C880F30888084703B5996A0420EC
:1000B0000142FBD001200142F8D103BD02B5186610
:1000C0001866FFF7F2FF186E186E02BD00000240BE
:1000D000000000180000070000035F00212200005C
:1000E000F4000018222000A00001001008ED00E03C
:1000F00000000000000000000000000074B24E7A12
:1001000000200420F7010010C3010010C5010010F9
:10011000C1010010C1010010C1010010C101001097
:10012000C1010010C1010010C1010010C701001081
:10013000C1010010C1010010C9010010CB01001065
:10014000CD010010CD010010CD010010CD01001037
:10015000CD010010CD010010CD010010CD01001027
:10016000CD010010CD010010CD010010CD01001017
:10017000CD010010CD010010CD010010CD01001007
:10018000CD010010CD010010CD010010CD010010F7
:10019000CD010010CD010010CD010010CD010010E7
:1001A000CD010010CD010010CD010010CD010010D7
:1001B000CD010010CD010010CD010010CD010010C7
:1001C00000BE00BE00BE00BE00BE00BEEFF3058054
:1001D000103800BEF2EB8871587801107878011061
:1001E0003402001090A31AE700201F49086006C8D7
:1001F00081F3088810471D48006800282FD10DA4FE
:100200000ECC002902D000F012F8F9E71849194A7B
:10021000002000E001C19142FCD1174988471749ED
:1002200088471749884700BEFDE701C901C29A42C5
:10023000FBD3704778780110C0000020E817002039
:10024000A08F01100000042000000420A08F0110E6
:10025000001004200010042000000000704709482E
:100260000EF058F90047000008ED00E0000000D053
:1002700008180020343D00209DD20010990800107D
:1002800059D200105756000006005250ABB36053CD
:10029000906E011006005250861C0302A06E0110E1
:1002A000060052505422A29DB46E01100500525017
:1002B000DE65F468A08F0110F8B5C04610B5064C95
:1002C0002378002B07D1054B002B02D0044800E017
:1002D00000BF0123237010BD081B00200000000098
:1002E00098440110044B10B5002B03D00349044877
:1002F00000E000BF10BDC046000000000C1B002045
:100300009844011010B504001F210AF0F7FF0022E5
:10031000002120000BF00AF8002120000BF020F84B
:1003200010BD10B504000BF033F8002201212000AD
:100330000AF0FCFF0123A340D0221206536253614E
:1003400010BD10B504000BF023F80022012120009D
:100350000AF0ECFF0123A340D0221206936210BDE5
:1003600070B5040000290CD00BF012F80123A34053
:10037000D022120693620022002120000AF0D6FF4C
:1003800070BD0BF005F80125A540D0263606756234
:100390000022002120000AF0C9FFB561F0E770B526
:1003A00000280FD0D024240680256D0465616420C8
:1003B0000CF036F980239B04636164200CF030F963
:1003C000A56170BDD024240680256D04656164207C
:1003D0000CF026F980239B04A36164200CF020F923
:1003E000A561EEE710B5002804D001211A20FFF71F
:1003F000B7FF10BD00211A20FFF7B2FFF9E7000098
:1004000010B50E20FFF78DFF0F20FFF78AFF102099
:10041000FFF787FF1120FFF784FF0D20FFF791FF03
:100420000C20FFF78EFF0B20FFF78BFF0A20FFF752
:1004300088FF1849184811F07FF9012106200AF0B9
:100440005DFF012107200AF059FF012104200AF075
:1004500055FF01200AF09CFFD0242406022363628A
:10046000636109200AF094FF80239B00636263614B
:1004700000200AF08DFF01236362636102200AF00D
:1004800087FF04236362636100F08EFC1A200AF088
:100490007FFF10BDC0C62D0000C00340F8B5DE468A
:1004A00057464E464546E0B50400D0263606802322
:1004B000DB019946B361052000210CF085F87368D3
:1004C0005B0B01252B405A42534101273B401B0146
:1004D0002278102188468A431343237073681B0BCC
:1004E0002B405A4253413B405B01227810318A43F2
:1004F000134323707368DB0A2B405A4253413B403D
:100500009B01227820318A431343237073689B0A2E
:100510002B405A425341DB0122783F310A401343BA
:1005200023704B46736180231B029B46B3610520F9
:1005300000210CF049F873685B0B2B405A42534181
:100540003B402278AA431343237073681B0B2B4054
:100550005A4253413B409B00227804218A43134373
:1005600023707368DB0A2B405A4253413B405B00C7
:1005700022780220814682431343237073689B0ACA
:100580002B405A4253413B40DB00227806308246E2
:100590008243134323705B46736180235B029B4657
:1005A000B361052000210CF00FF873685B0B2B4042
:1005B0005A4253413B406278AA43134363707368C5
:1005C0001B0B2B405A4253413B405B00627848462C
:1005D0008243134363707368DB0A2B405A425341D2
:1005E0003B409B00627804218A4313436370736825
:1005F0009B0A2B405A4253413B40DB0062785046F5
:100600008243134363705B46736180239B029B4666
:10061000B361052000210BF0D7FF73685B0B2B4003
:100620005A4253413B409B0162784020824313432E
:10063000637073681B0B2B405A4253413B401B01B4
:10064000627840468243134363707368DB0A2B4031
:100650005A425341DB0162786F30024013436370AA
:100660005B46736173685B091D406B425D412F40BF
:10067000FA00A378504683431343A3707F00DBB294
:100680004A4693431F43A7706378DB06DB0F1B01C9
:10069000FAB2404682431343A370204B1A68C0232A
:1006A0009B015340E022D20113401D4A13601D4BB1
:1006B00004211960194B1B68DB05FBD517494A68F3
:1006C0001204130C184AD21A096880235B014B40AC
:1006D000E021C9010B4012490B60124B0421196043
:1006E0000E4B1B68DB05FBD50C4B5B681B04190C20
:1006F0000D4B5B1AE270100A2071100C6071120E23
:10070000A271E371190A2172190C61721B0EA37296
:10071000F0BCBB46B246A946A046F8BD00C00440A6
:1007200000D0044000E00440FF0F0000F0B5D646C2
:100730004F464646C0B584B0040003AF3A4B1A8812
:100740003A80022399460023BB7002AE3280B37018
:1007500001AD2A80AB7069460A808B70D0231B06DE
:1007600098464A469A61314B9A4603233A00D02173
:10077000504613F0E9FD43464A465A619A61032305
:100780003200F021504613F0DFFD43464A465A61DD
:1007900080239B00994643464A469A6103236A4652
:1007A000F021504613F0D0FD43464A465A619A6103
:1007B00003232A00D021504613F0C6FD43464A4683
:1007C0005A613B785B027A785200E02109010B40C4
:1007D0001343BA78D20913432360327852027378F4
:1007E0005B000A401A43B378DB091A4362602A7837
:1007F00052026B785B000A401A43AB78DB091A435C
:10080000A2606B461B785B026A46527852000B402E
:1008100013436A469278D2091343E36004B0E0BC04
:10082000BA46B146A846F0BDB044011000C003402E
:1008300010B500F00BF910BD10B504004378DB07CC
:1008400013D463781022110019401A4203D0114BBF
:100850001B78002B0FD0002903D10E4B1B78002BE7
:1008600010D10A200BF0DCFE10BD00220021002078
:100870000CF0B6FCE5E70020FFF7B4FD054B0122C4
:100880001A70EEE70120FFF7ADFD024B00221A704F
:10089000E7E7C046E93C002010B584B010F01CF832
:1008A00064200BF0BDFE2B480FF0DAFFFFF7A8FD28
:1008B00010F02AFD1B20FFF725FD1A20FFF722FD6F
:1008C0001A200AF065FDD02424068023DB0463622D
:1008D000A36118200AF05CFD80235B046362A361BE
:1008E00019200AF055FD80239B046362A361052053
:1008F0000AF04EFD2023A3620022012105200AF008
:1009000015FD01AC0C22002120000FF083FE200019
:10091000FFF7C4FD104B9B886A4613806278112351
:100920001340112B09D014231340142B0CD068460C
:1009300000F008FD002004B010BD08480DF0EAFDED
:100940000300002108009847123B6A4613700533E4
:100950005370ECE798440110B04401105542000078
:10096000194B1B68194A126893420ADA0A33164A6D
:100970001360154B1B68FF2B07DC002B06DA0023E6
:1009800004E00A3B104A1360F3E7FF230E4A1360AA
:10099000002B14D1FF330E4A126853401B041B0C6A
:1009A0000C4A1360084B1B68002B0ADB1B040A4A25
:1009B000126853401B0C1B04084A13607047002345
:1009C000E9E70023F2E7C046D42B0020DC2B00200F
:1009D0005C0005405C1005402000054020100540EB
:1009E000F8B5061C0C1C154B1F68002F24D00FF007
:1009F00093FA002800D0341C0021201C0FF08CFA40
:100A0000002808D0FD218905201C0FF036FA0C497A
:100A10000FF018FA041C0B49201C0FF02EFA0FF0EF
:100A2000D9FA85B20021201C0FF076FA002801D0F7
:100A3000ED19ADB2044B1D60F8BDC046D82B0020A7
:100A4000CDCC4C3D00004842DC2B002010B5FA21F3
:100A50000B4A490102F05AFA002800D110BD0023C8
:100A600000220849012002F091FB002802D1FFF783
:100A700077FFF3E7034B59681868FFF7B1FFF6E714
:100A800028390020BC31002010B5FE218905002046
:100A9000FFF7A6FF002407E0FFF762FF0CF04EFB14
:100AA00008200BF0BDFD01343D2CF5DD0020011CBC
:100AB000FFF796FFFFF754FF10BD0000F0B5CE46DC
:100AC000474680B583B003200AF062FC08200AF094
:100AD0005FFCD0231B0608225A62F8325A620421B6
:100AE00003200AF00BFC042108200AF007FC334F16
:100AF00001253D60324B04221A60324AFF265662BD
:100B00001666314C2268120C1204304989460A607C
:100B10001A68910089188A002D498C466244116830
:100B20008C46FF21090460464140090C09048020DD
:100B30004001024311603A68910089188A002149F6
:100B40008846424411682F008F43024317601B6898
:100B50009A00D218930043441A68954303431D60DA
:100B60001C4B1B6873401B041B0C1B4A136023683F
:100B70001B0C1B044A461360962000210BF024FD39
:100B80006B46DC1D991D200000F082FA2378134A81
:100B900013601A1CCD2B00D9CD22323210490A70B5
:100BA000002B02D10D4A13600B70AF2040000BF0F8
:100BB00037FD03B0C0BCB946B046F0BDB83900201F
:100BC0000C330020000005402000054020100540A7
:100BD0000C0005405C0005405C100540D82B00204F
:100BE000053D00200902084300B2704770B582B08D
:100BF000D02424060125A5616B46187159710B4E4E
:100C0000022201A9300013F0EFFB656102200BF016
:100C100007FD0335A561022201A9300013F0E4FBB2
:100C2000656102200BF0FCFC02B070BD00C0034007
:100C3000F0B5DE4657464E464546E0B585B006005F
:100C40000D0001AC002301930822002102A80FF03F
:100C5000E1FC03236B449B46A2235A461370D02326
:100C60001B069946012398464B4642469A614D4BD6
:100C70009A465946180013F0B7FB0C2322000021B6
:100C8000504613F061FB4B4642465A61617820782A
:100C9000FFF7A8FF83B2FF273840B0711B0AF3713A
:100CA000E178A078FFF79EFF83B2384030721B0ACC
:100CB000737261792079FFF795FF83B23840B07283
:100CC0001B0AF372E179A079FFF78CFF83B23840F9
:100CD00030701B0A7370617A207AFFF783FF80B24D
:100CE000404283B23840B0701B0AF370E17AA07AB8
:100CF000FFF778FF83B2384030711B0A73714A46A0
:100D00000423936101225946504613F06DFB0C23D6
:100D100022000021504613F017FB4A46042353617A
:100D200061782078FFF75EFF83B23840A8711B0A14
:100D3000EB71E178A078FFF755FF83B23840287255
:100D40001B0A6B7261792079FFF74CFF83B2384040
:100D5000A8721B0AEB72E179A079FFF743FF83B217
:100D6000384028701B0A6B70617A207AFFF73AFFCF
:100D700080B2404283B23840A8701B0AEB70E17A1F
:100D8000A07AFFF72FFF83B2384028711B0A6B71DE
:100D9000434633732B7305B0F0BCBB46B246A9463D
:100DA000A046F0BD00C0034010B5AE211020FFF7F3
:100DB0001DFF5C211120FFF719FF04211220FFF70E
:100DC00015FF04211320FFF711FF00211520FFF765
:100DD0000DFFE0211720FFF709FF10BDF0B5C64653
:100DE00000B5040013282DD014282FD0122803D0CA
:100DF000002080BCB846F0BD13271423984620007D
:100E00000AF0C6FA01263300A340D0252D06AB62B6
:100E10000022012120000AF089FA40460AF0B8FABF
:100E20003300424693406B62AB6138000AF0B0FA7F
:100E30003300BB406B62AB616B68E3401E4209D07C
:100E40000120D6E7122714239846D8E71227132348
:100E50009846D4E70020CCE710B51320FFF7BEFF7B
:100E600010BD10B51220FFF7B9FF10BD10B514204A
:100E7000FFF7B4FF10BD10B501211A20FFF770FA7B
:100E8000962080000BF0CCFB09F094FE002800D1E6
:100E900010BD0120FCE710B501F054FF10BD01208A
:100EA0007047000070B584B003A9484B1A880A80C7
:100EB00000238B7002A90A808B7001A90A808B70B5
:100EC00069460A808B7032241FE00133022B14D84C
:100ED00003AAD25C002A00D0012101AAD25C002A18
:100EE00000D0012602AAD25C002A00D001256A4661
:100EF000D25C002AE9D00120E7E7002905D0002DC7
:100F000003D0002E01D0002857D12300013C002B34
:100F100050D0D0231B0602229A612D4BDB685B0761
:100F2000FBD5032303AAD021294813F00DFA032887
:100F300042D1D0231B0602225A619A61244BDB68FE
:100F40005B07FBD5032302AAF021214813F0FCF92B
:100F5000032834D1D0231B0602225A61FF32FF320C
:100F60009A611B4BDB685B07FBD503236A46F021C4
:100F7000174813F0E9F9032823D1D0231B06802258
:100F800092005A619A61124BDB685B07FBD5032321
:100F900001AAD0210E4813F0D7F9032813D1D0238A
:100FA0001B06802292005A610023002000260025A3
:100FB00000218BE7002000E0002004B070BD00207D
:100FC000FBE70020F9E70020F7E7C046B84401102E
:100FD00000C0034010B5FFF757FD012010BD0120F0
:100FE000704770B582B0FFF75DFF01AC01260125A7
:100FF0002840030120781022904318432070FFF707
:101000004AFFC30122787F20104018432070FFF769
:1010100032FF2840830120784022904318432070FB
:10102000FFF724FF284083002078042290431843D0
:101030002070FFF711FF03002B402078B0431843C6
:101040002070FFF70EFF28404300207802229043D3
:1010500018432070FFF7C3FF2840C3002078082200
:10106000904318432070FFF71AFF2840430120786F
:101070002022904318432070FFF7ACFF05406078B2
:10108000B04305436570208802B070BD7047000012
:10109000044B7A22FF329A5C02707C22FF329B5C06
:1010A0000B70704708190020014B0020185670473C
:1010B000E8140020F8B504000E001500254A264962
:1010C000280001F023FF071E1DD0244B1A68244975
:1010D0008C466244D11752184A405B686344D91762
:1010E0005B184B40642A0BDC0022642B00DD0200FD
:1010F0001C4B1B88002B05D01A4B00221A8002E0E3
:101100000200F2E71700227863781B021343154AA6
:1011100011880B431380114B32681A6072685A6051
:10112000114B3A001149280001F003FF002807D0B5
:101130000F4B1B78002B03D10D4B01221A70F8BD09
:10114000002FFCD00A4B1B78002BF8D0084B002254
:101150001A70F4E7A033002040420F008C390020C1
:1011600000F8FFFFD83C00205839002000A3E1110F
:10117000F03C0020014B18787047C046F03C00203E
:1011800010B5002803D1074B00221A7010BD0120B2
:10119000FFF705F90120FFF725F9024B01221A702C
:1011A000F4E7C046E03C002010B50020FFF71AF934
:1011B0000020FFF7F4F80022002100200CF010F8C6
:1011C00010BD000010B50849084813F0F5F80028D4
:1011D00002D1074B186810BD064B9A6A044B1A607F
:1011E000024813F0B9F8F4E7D02C0020981700203B
:1011F000B03C00200040054010B5FFF75FFCFFF752
:10120000E1FF074C206000F00BFC206806F046FE72
:10121000206804F089FF2068FFF738FFEFE7C04639
:101220003C33002010B504000A4B1B78002B00D083
:1012300010BD084B01221A700020FFF7B0F8002003
:10124000FFF7D0F864200BF0EBF92100002001F04B
:1012500071FBEDE7243D002010B5054B1B78002BFA
:1012600000D010BD024B01221A7001F093FDF8E787
:101270000D3D002010B52B4B1B78002B34D0FFF711
:10128000A1FF294B18602948FFF708F9284B1B7864
:10129000002B32D105F05CFA234C2449206806F07B
:1012A000A9FF206801F0DEFB08F00CFE002831D019
:1012B0001D4C2049206805F065FD20681E4A1F4925
:1012C00008F02CFE1E4B00221A70174C22681B4996
:1012D0001948FFF7EFFE206801F05CFC2068FFF77B
:1012E000A7FA0BF02BFF10BDFA20002180010BF0B4
:1012F0006BFF0C4B01221A70C1E70C48FFF79CFAF8
:101300000BF01CFF084C206801F0ACFB206801F0DA
:1013100041FCE8E7044B1868084A074900F00AFD59
:10132000D3E7C046173D002038330020702400204A
:10133000E03C0020382400207C2400205824002099
:10134000F03C002070B584B0041E00D1E2E001F052
:10135000D8FD0500FFF754F86F49704810F0B2FB54
:101360000321162009F0CAFF0321172009F0C6FF48
:1013700003AB02AA01A96A4809F06EFF002803D155
:10138000674968480CF006F8039A0299019809F039
:1013900027FF6548FFF782F800F0D8FB002829D026
:1013A000614B624A6249634806F08CFB06F01EFE00
:1013B000EBB2012B23D0022B26D0012565576B1CE5
:1013C00029D00022A2565C4B1A70574B1B789A0604
:1013D00025D45A063ED4DA063ED45AB2002A3DDB62
:1013E0005A073DD40A221A40022A3BD01B0717D5C0
:1013F000032515E03221514801F08AFAD0E74E4B1F
:1014000002221A700025E0E72B041B0F4A4A1370D2
:101410002D052D0FD9E74A4B02255D57D1E706254B
:10142000414B9B78DB0602D580235B421D4302F0D3
:1014300063FE434AE2235B00D65C3F4B1B785BB202
:10144000013311D06424EBB2062B3DD8AB003D4AEA
:10145000D3589F460125E3E70025E1E70225DFE7B2
:101460000525DDE70425DBE701F00CFD002804D1AC
:10147000314B02221A704624E5E72F4B01221A70E5
:101480006424E0E73048322101F042FA21003000C4
:1014900001F066FA284B00215956280000F05AFC4A
:1014A000214B9B789B0730D4284A1F49280004F021
:1014B000F7FF0FF01DFC26480FF008FCFFF7DAFEDF
:1014C000FCE7FF200006DEE72248DCE7FF20000201
:1014D000D9E7002001F096FC174B00221A70FF207C
:1014E00000041924CFE7002001F08CFC124B0022ED
:1014F0001A7019480F24C6E7002001F083FC0E4B38
:1015000000221A7015481924BDE70D4B9D7000F09C
:1015100017FBC9E704B070BD801A060068170020E9
:10152000400D0300BC44011070240020382400202A
:101530005824002048240020E81400200000FF4D1B
:1015400008190020F044011000F115FF7C24002050
:10155000F911001000A1A1A100FF61000000FFE649
:10156000094ABD235B00D35C1A1C312B00D8322200
:10157000054BBD2149005A54DA787A39FF398A433C
:10158000DA709B221A7270470819002070B50500A6
:101590001400724B1380012900D070BD0223C35682
:1015A0009370D01CE91C06220FF03AF8EB68E36058
:1015B0002B6923616B696361AB69A36120001C30F7
:1015C00029001C3120220FF02BF820003C3029008C
:1015D0003C3120220FF024F820005C3029005C31DF
:1015E00020220FF01DF820007C3029007C312022C1
:1015F0000FF016F820009C3029009C3106220FF0D5
:101600000FF82000A2302900A23106220FF008F8BE
:101610002000A8302900A83130220FF001F8200066
:101620002930FF302900D83110220EF0F9FF2000B8
:101630003930FF302900E83110220EF0F1FF200090
:101640004930FF302900F83110220EF0E9FF200068
:101650005930FF3029000931FF3110220EF0E0FF30
:1016600020006930FF3029001931FF3110220EF0BF
:10167000D7FF94235B00EA5C5033E2542A23FF3304
:10168000EA5C7A23FF33E2544F3BEA5C5033E25486
:101690002C23FF33EA5C7C23FF33E25420007D30AF
:1016A000FF3029002D31FF3106220EF0B9FF200056
:1016B0008530FF3029003531FF3120220EF0B0FF98
:1016C0002000A530FF3029005531FF3120220EF0D7
:1016D000A7FFBA235B00EA5C5033E2542000C93014
:1016E000FF3029007931FF3118220EF099FFC8230D
:1016F0005B00EA5C5033E2544E3BEA5A5033E2520C
:101700004E3BEA5A5033E2524E3BEA5A5033E252D1
:101710004E3BEA5A5033E2524E3BEA5A5204F6200C
:101720004000110C225A9A3BFF3B1A400A432252B6
:10173000CE225200A95A22185180CF225200AA5A12
:101740005204F8214900120C605A034013436352BB
:10175000D0235B00EB5A641863801EE702A0FFFFF2
:10176000064B984204D0064B984203D102207047A2
:101770000120FCE701204042F9E7C04601A000003B
:1017800002A0000010B512480FF09AF8002407E0FC
:10179000104B5B18D97810480FF092F80134E4B27E
:1017A000052C0DD80FF078FD2100C0B2094A12199E
:1017B000D070002CECD1130001229043D870E7E7E1
:1017C000044B9B221A720A200FF02CF810BDC04661
:1017D0000C450110081900201C450110F0B5DE462B
:1017E00057464E464546E0B56F4CA544FC256D0076
:1017F0002A00002102A80EF00DFF6C4B02AA1380F4
:10180000059B0193DB0FDB07802212011343059335
:10181000069B0193DB0FDB0713430693079B0193A2
:10182000DB0FDB0713430793089B0193DB0FDB07F9
:101830001A4308925E4F0A975E4E0B965E4C0C94CC
:101840005E480D905E490E915E4A0F925E4B10937A
:1018500012971396149415901691179218935B4B48
:1018600019931A931B931C931D931E931F932093FC
:101870002193802202A98B5004328B5004328B506A
:1018800004328B5004328B5004328B5004328B5014
:10189000FF231B049A46A8230A005146D1504C4B03
:1018A0009B46AC235946D1504A4B9946B0234946F2
:1018B000D150FF231B069846B4234146D150FF2642
:1018C00036020433D6500433434A02A9CA50434F68
:1018D00004330A00CF5004335146D15004334146FB
:1018E000D1500433D65004334946D1500433D65036
:1018F0003B4BD82202A98B5004328B5004328B50C0
:1019000004328B50E823CF50B63B7A22FF328B54FF
:1019100001328B54173AFF3AF121490002A8425292
:1019200002314352023142528532FF32010083526A
:101930002C4C2A0020000EF073FE002004F076FDEF
:10194000012004F073FD032004F070FD042004F076
:101950006DFD052004F06AFD20009C300622002168
:101960000EF058FE2000A230062200210EF052FE9A
:10197000FFF708FFE4235B005246E25004335A4667
:10198000E25004334A46E25004334246E250043304
:10199000E6500433E75081239B009D44F0BCBB46D6
:1019A000B246A946A046F0BDFCFDFFFF02A0FFFF26
:1019B000000034420000B4420000074300003443FA
:1019C000000061430000874300809D4300001644EF
:1019D0000000FF4D0000FFE600F115FF00FF610071
:1019E00000A1A1A108190020014B18787047C0463A
:1019F000273D0020014B58807047C046EC14002062
:101A000010B5064B01221A7003E0012000210AF0F4
:101A1000DBFD024B1B78002BF7D110BD0A3D0020E7
:101A2000F0B5354CA544354B1B78002B06D1344B13
:101A30001B78002B39D1334B9D44F0BD0FF070F96A
:101A4000EFF3108672B6304B1B78002B24D12F4C4D
:101A5000002300932E4A002101A80EF0DBFDFC229A
:101A600052002C4968460EF0DBFD80256D012900EF
:101A7000200012F0A9FC2A006946200012F084FC24
:101A800086F310880FF056F9234B1B78002B06D1F4
:101A90001A4B00221A70CAE796246403D8E708F0AC
:101AA0001BFB1D4B00221A70F2E70FF039F9EFF320
:101AB000108772B600240094154A002101A80EF088
:101AC000A9FD164B1A6800929B886A46938080266F
:101AD000760197256D033100280012F075FC320065
:101AE0006946280012F050FC87F310880FF022F9A5
:101AF000034B1C709FE7C046FCEFFFFF0B3D00202F
:101B00000A3D002004100000273D002000D01200F4
:101B1000FC0F000008190020183D0020EC140020E4
:101B200010B5034B01221A70FFF77AFF10BDC046B3
:101B30000A3D0020014B01221A707047183D002019
:101B4000014B01221A7070470B3D002070B5434BCA
:101B50001888434B1D88FFF703FE04002800FFF799
:101B6000FFFD05003F4B404A1168196092889A803A
:101B70001A883E4B9A420AD03A4B3D4A1A80FA22C2
:101B800092005A8000229A803A4B01321A70631CEC
:101B90000BD0022C0FD0022D0DD0012C2CDD012DED
:101BA0002ADD0023002200262CE06B1CF1D100234B
:101BB0000022012626E0022C05D0022D0FD00023A2
:101BC000002200261EE0FC22520024492A480EF082
:101BD00027FD2A4B00221A700023002612E0FC2267
:101BE00052001F4924480EF01BFD244B01221A709D
:101BF00000230022002605E00123012C15DDDBB2C5
:101C000001220026002E12D1002A23D0002B18D149
:101C10001A4B01221A70184A21001048FFF7B6FC2F
:101C20000020FFF78DFF300070BD0023E7E7134B66
:101C300000221A70FFF7D2FD0020FFF781FF002677
:101C4000F1E70E4B00221A700B4A29000448FFF7F7
:101C50009DFCE5E7FFF784FC0126E4E700D01210C5
:101C600000C01210EC14002000E0121001C00000AF
:101C700001C0FFFF0A3D002008190020273D002079
:101C800010B5031C642800D9642303497A22FF326B
:101C90008B54FEF713FF10BD0819002010B5022861
:101CA00017D008D800280DD001280FD10B4AF223F5
:101CB0005B00D1520AE0032808D1084AF4235B00F4
:101CC000D15203E0054AF1235B00D15205F08AFBB3
:101CD00010BD024AF3235B00D152F7E70819002038
:101CE00030B50F4C40004508E068C00FC0072843DE
:101CF000E060490048082169C90FC9070143216113
:101D0000520051086269D20FD2070A4362615B0038
:101D10005A08A369DB0FDB071343A36130BDC0463C
:101D200008190020062800DD0020014B987070473C
:101D30000819002010B5034B1B68002B00D09847F2
:101D400010BDC04624270020014B002018567047C4
:101D5000F13C002010B588B00400284B187002290F
:101D600010D00C22002105A80EF054FC10220021F6
:101D700001A80EF04FFCE3B2062B0BD8A400204BB9
:101D80001B599F461F4B204A1A6008F05BFF002832
:101D9000E7D005E01B4B1D4A1A60002001F056FBFE
:101DA00008B010BD174B194A1A60062001F04EFB0F
:101DB000F6E7144B154A1A60012001F047FBEFE7E4
:101DC000104B124A1A60022001F040FBE8E70D4B6D
:101DD0000F4A1A6001AA05A90020FFF7ABFFDFE751
:101DE000084B0C4A1A6001AA05A90020FFF7A2FFC0
:101DF000D6E7044B084A1A60D2E7C046F13C0020FF
:101E0000484501102427002091AE0010FD34001039
:101E1000BD8B0010B99500107D9B0010F0B5C64633
:101E200000B590B004000D0016001F0016AB1B7823
:101E30009846494B984200D188E00721380009F0C4
:101E40005DFA012300933A00290020000FF02AFBDD
:101E50001022002108A80EF0DDFB80235B0208930E
:101E6000F8235B0209938023DB020A93C0231B0340
:101E70000A93102208A904A80EF0D2FBF31C059ABD
:101E8000039236491140F20111431B031943059196
:101E9000079B0393DB00DB08802292051343079323
:101EA0002F4B19400591102204A90CA80EF0B8FB85
:101EB0000F9B03932B4A1A40BF0217430F974346C9
:101EC000002B45D020220E9B0393274919408023E5
:101ED0009B020B435206F82189050A4013430E93D7
:101EE0009B009B088022D20513430E9305200BF024
:101EF00087F81E490CF062FB0EF013F880460EF0D6
:101F000069F887B2002F25D038000EF00AF8011CBE
:101F100040460DF092FF8721C9050DF0AEFF0EF08F
:101F200059F8C0B200023F0407430C970CAB3200D3
:101F3000290020000FF008FB22680123AB409A43E0
:101F40001343236010B080BCB846F0BD062175E78E
:101F50001822B8E70020E5E7000020507F00FEFFD0
:101F6000FFFFFF9FFF83FFFFFFFFF5C10050C3008E
:101F7000014B01221A707047003D002070B5244BC0
:101F80001B78002B17D1234B00221A70204B0132F3
:101F90001A700024032C09D80FF07EF906210CF0EA
:101FA0000DFB1D4B19550134E4B2F3E71B4B002226
:101FB0001A70002427E0194B1B78002BF9D1184B1D
:101FC0001A789300D218FA2A00D9FA22FF231A406D
:101FD0009B1A9BB2134A1380134A13800F4B0122A2
:101FE0001A70E6E70C4D2B5D72339B000F4A99582F
:101FF000A2000F4BD1500FF04FF906210CF0DEFA82
:1020000029550134E4B2032CECD9FFF7B1FF70BDC0
:10201000FF3C0020E83C00203C2700201515002054
:1020200013150020D03C0020CC3C002008190020D3
:102030007C2B0020034B1980034B1860034B0022BC
:102040001A707047CE3C0020502B0020FD3C002031
:1020500070B505000C0000880DF063FF1B490DF002
:10206000F6FE1B490DF009FF0DF0B4FFC2B22B794B
:10207000A978C943C9B25943090A5B1ADBB23F25A3
:1020800028402D1AEDB2584380096B439B11DBB2F7
:102090000818C0B2CB18DBB23F2A10D9403AD2B2EE
:1020A0003F2A06D81A060B061B0A000213431843E0
:1020B0000AE0090600041B020843184304E0000676
:1020C0001B04090218430843206070BD00007F43D1
:1020D00000003F43F8B5CE46474680B50400234B89
:1020E0001D78002D05D100230360C0BCB946B04661
:1020F000F8BD642DF9D08778E678B81963789846EA
:10210000C0180DF013FF1A490DF0A1FE81462800FA
:102110000DF007FF17490DF09AFE051C011C4846FB
:102120000DF0EAFE0028E0D14946281C0DF08FFE94
:10213000051C38000DF0F5FE291C0DF09EFE0DF07B
:1021400049FFA07030000DF0ECFE291C0DF095FE4B
:102150000DF040FFE07040460DF0E3FE291C0DF04D
:102160008CFE0DF037FF6070BFE7C04612150020EF
:1021700000007F430000C842F0B5D6464F464646B1
:10218000C0B504000368002B35D083789846C77823
:10219000D819667880190DF0C9FE051C40460DF06F
:1021A000C0FE8046291C0DF052FE824638000DF01C
:1021B000B8FE071C291C0DF04AFE814630000DF0C8
:1021C000B0FE061C291C0DF042FE051C514640467F
:1021D0000DF053FE0DF0FEFEA0704946381C0DF0C8
:1021E0004CFE0DF0F7FEE070291C301C0DF045FE92
:1021F0000DF0F0FE6070E0BCBA46B146A846F0BDF6
:1022000030B585B01D4B1B78002B0FD10024032C5B
:1022100009D80FF041F8FF210CF0D0F9184B1955EF
:102220000134E4B2F3E7154B01221A7000241FE0D9
:10223000134D2B5D134A1078C018FF210CF096F94E
:10224000C9B2295502A80180FF234380838000235F
:10225000019301A9FFF7FCFE01A8FFF73BFF0A4825
:10226000A300019A1A50C018FFF786FF0134E4B2A8
:10227000032CDDD9FFF77CFE05B030BDFF3C00200C
:10228000282B0020131500207C2B002000220AE0C0
:10229000930006495958064B5B68DB03FBD4044B9B
:1022A00019610132D2B2032AF2D97047542B0020AF
:1022B00000002050F8B5DE4657464E464546E0B58C
:1022C00006000D00141C80780DF02BFE8046F0787F
:1022D0000DF027FE071C70780DF023FE061CA87871
:1022E0000DF01FFE8346E8780DF01BFE82466878ED
:1022F0000DF017FE8146414658460DF09EFD211C0B
:102300000DF0BBFD41460DF09DFD051C391C5046EE
:102310000DF093FD211C0DF0B0FD391C0DF092FD68
:10232000071C311C48460DF088FD211C0DF0A5FD51
:10233000311C0DF087FD061C281C0DF04BFEC5B2AC
:10234000381C0DF047FEC4B2301C0DF043FEC0B285
:102350002D040002240628432043F0BCBB46B246AD
:10236000A946A046F8BD000000B583B00023009345
:10237000082806D88000174B1B589F46FF231B04D4
:10238000009300230193144A01A96846FFF792FFC6
:102390000023002B18D003B000BDFF231B020093C5
:1023A000EFE70E4B0093ECE7FF231B060093E8E7F3
:1023B0000B4B0093E5E70B4B0093E2E70A4B0093CE
:1023C000DFE70A4B0093DCE7094A043A1060013367
:1023D000DFE7C046644501106666663F0000FFE621
:1023E0000000FF4D00F115FF00D0FF2B00FF610042
:1023F0007C2B002010B5054B1870FFF7B5FF044B80
:1024000000221A70FFF7B4FD10BDC046023D002047
:10241000FF3C0020F8B52B4B18880DF087FD011C00
:10242000FE2080050DF013FD041C274B1B78002BAC
:102430000AD1264B1D78234B1B889D4216D9244B6D
:102440001878002830D0F8BD224B1878FFF78CFFA1
:10245000214A224B23CB23C21B68136000231B4A53
:102460001370194A13701A4A1370E2E728000DF02E
:1024700058FD211C0DF001FD061C00240BE0A700F7
:102480001749C9191448C019321CFFF713FF134B21
:10249000D8510134E4B2032CF1D901350B4B1D7036
:1024A000FFF7F4FE0020CEE70C4A0D4B13CB13C20E
:1024B0001B681360FFF7EAFE054B01221A7001202A
:1024C000C1E7C046CC3C0020003D0020171500208D
:1024D00014150020023D00206C2B0020542B0020FE
:1024E0007C2B0020F0B5C64600B506000F00150095
:1024F000984600240AE0335D9B004246EA50305D76
:1025000080002818FFF738FE0134E4B2BC42F2D351
:1025100080BCB846F0BD0000031C642800D96423C9
:10252000014A13707047C0461215002030B583B0C1
:10253000050000240CE0019501A8FFF7CBFD06483B
:10254000A300019A1A50C018FFF716FE0134E4B236
:10255000032CF0D903B030BD7C2B002010B5094806
:102560000388094A12789B18FF2213400380074C06
:102570002100FFF76DFD2068FFF7D8FFFFF7F8FC9B
:1025800010BDC0460C15002013150020242B002080
:1025900010B51A4B1B78002B17D1194A1370174A24
:1025A00001211170174A1370154C237872339B0068
:1025B000154A9858FFF7BAFF2078013006210BF032
:1025C000D5FF2170FFF7D4FC10BD0E4B1B78002BFC
:1025D000EAD10E4B1B789A009B18FA2B00D9FA23EC
:1025E000FF221A40FF239B1A9BB2094A1380094A13
:1025F0001380044B01221A70D6E7C046FF3C00202E
:10260000E83C0020161500200819002013150020B2
:10261000D03C0020CC3C002010B50F4B1B78002B89
:1026200010D10E4B1B68002B02D10C4B0C4A1A60C8
:102630000A4B1868FFF77AFFFFF79AFC064B012256
:102640001A7010BD0020FFF771FFFFF791FC024BDD
:1026500000221A70F5E7C046253D0020642B0020BB
:102660000000FFE670B5184B1C78002C05D0174B06
:102670001B78002B19D0200070BD154B154A23CABA
:1026800023C3190013680B60134B1868FFF74EFF44
:10269000124B1A88124B1A80FFF76AFC0A4B012270
:1026A0001A700A4B00221A70E5E70E4B084A23CA3B
:1026B00023C3190013680B60FFF75AFC034A137811
:1026C00001331370D7E7C046FD3C00202D3D0020AC
:1026D000603A0020542B0020682B0020CE3C0020C4
:1026E000CC3C00207C2B002010B50D4B1C78002C1E
:1026F00006D00C4B1B68002B00D09847200010BD63
:102700000020FFF713FF0020FFF72EFEFFF730FC3D
:10271000054B1A88054B1A80014B01221A70EDE710
:10272000FD3C0020D02B0020CE3C0020CC3C0020E3
:1027300070B50C000F2803D88000284B1B589F460B
:102740000126274D2BE00126264D28E00126264DA7
:1027500025E00126254D22E00126254D1FE001261A
:10276000244D1CE00126244D19E00126234D16E0DE
:102770000126234D13E00126224D10E00126224DB3
:102780000DE00126214D0AE00126214D07E001263A
:10279000204D04E00126204D01E004261F4D002AB3
:1027A00012D023001E4A31002800FFF79BFE2300B1
:1027B0001C4A31002800FFF795FE23001A4A310019
:1027C0002800FFF78FFE70BD2300164A3100280055
:1027D000FFF788FEFFF7CCFBF5E7C0468845011000
:1027E0000C460110EC450110FC450110E8450110B4
:1027F000F045011004460110144601101046011066
:10280000E0450110E4450110F4450110184601109F
:10281000084601101C46011000460110F845011041
:102820006C2B00207C2B0020542B002070B50C4B0F
:10283000196840220B480DF0F3FE00240CE0A300C1
:10284000084DED182800FFF745FC296800222000FC
:10285000FFF76EFF0134E4B20F2CF0D970BDC04613
:102860008C2B0020902B002010B5024B1860FFF736
:10287000DDFF10BD8C2B002010B5074B1B78002B03
:1028800000D010BD0548FFF7EFFFFFF771FB024BCB
:1028900001221A70F5E7C046FF3C0020B019002065
:1028A000144AF0235B00D35C834209D0002B03D190
:1028B000E133FF330521D1540E4AF0235B00D0549D
:1028C0000C4AF0235B00D25C0B4B1A700B4B1B784D
:1028D000052B0AD00A4B15221A80094B1A88094B7E
:1028E0001A80094B00221A707047084B1A88044B53
:1028F0001A80F2E70819002013150020FE3C002082
:10290000D03C0020CC3C0020FF3C0020D23C0020EA
:1029100010B5054B18604908044C2000FFF78AFBEE
:10292000034B1C6010BDC046682B002065260010BC
:10293000502B002010B5064B1870064B00221A6071
:10294000054B196019210548FFF774FB10BDC046FF
:10295000033D00204C2B0020D02B0020E926001046
:1029600070B582B004000D00244B1B78002B0CD0F6
:10297000234B1C700023234A1370234A1370052C29
:1029800016D8A400214B1B599F46214E21493000E7
:102990000EF06CFD0200002300931533002130007F
:1029A000FFF73CFA154B01221A70FFF76FFCDFE7C7
:1029B000194B1A4A1A601A4AF0235B00D05CFFF7E1
:1029C0006FFF2800642D00DD6420C0B2FFF7A4FD76
:1029D00002B070BD104B134A1A60ECE70E4B124A5E
:1029E0001A60E8E70C4B114A1A60E4E70A4B104AF8
:1029F0001A60E0E7084B0F4A1A60DCE7013D00204F
:102A0000FE3C0020FF3C0020043D0020C845011092
:102A100000002050204601104C2B00207928001087
:102A2000081900205D250010012200101926001051
:102A3000912500107D1F001010B5FF2903DC00292F
:102A400002DA152100E0FF21044B1980044B1860C5
:102A50001E210520FFF784FF10BDC046D23C002098
:102A6000642B002010B5144A144900F04FFA0028D6
:102A700000D110BDFFF7CEFC002803D1104B1B780E
:102A8000002BF6D00F4B1B68002B0ED09847002868
:102A9000EFD000240B4B1C600B4AF0235B00D05C92
:102AA000FFF7FEFE094B1C70E3E7094B1B68002B88
:102AB000DFD09847DDE7C046083900201A41000002
:102AC000043D0020502B002008190020FF3C00206E
:102AD0004C2B0020014B58887047C046EC14002056
:102AE00010B586B0002405AA244B1978117004ABE8
:102AF0001970234902910121019100930123693149
:102B0000204800F0D5FA0230012807D904AB1B7821
:102B10001C1C5BB2012213401B4A137063069A0F00
:102B2000022A0ED9032A0FD1184B1B78002B21D073
:102B3000154B1B785BB2002B18D1154BFF221A7076
:102B400012E052B2002A0CD10F4B1B785BB2002B63
:102B500003D10F4BFF221A7006E00D4B00221A70B2
:102B600002E00B4B01221A7006B010BD084B002288
:102B70001A70F9E7064B02221A70F5E75851011056
:102B800010270000681700202C3D00201F3D00206A
:102B9000203D002070B50400594B1B78002B24D039
:102BA000584A5949200000F0B1F9002815D0FFF724
:102BB00097FF564B00229A56554B1B785BB29A42B0
:102BC00003D0002B28D0514A1370524B1B78002B96
:102BD0002AD0504B1B78002B42D14F4A4F4920003E
:102BE00000F094F900284BD170BD454B01221A70BA
:102BF0004B4B58880DF095F94A4B18604A4B4B4A9D
:102C00001A60FFF76DFFFFF76BFFFFF769FF404B9F
:102C10001A783E4B1A70C3E7FEF746FA0028E3D055
:102C20004348FEF7FFFADFE7FEF7A4FA0028D0D00A
:102C3000404B1B785BB2012B0AD0022BCDD1354B18
:102C400001221A70FF2064210002FFF7F5FEC4E79D
:102C5000304B01221A7064213748FFF7EDFEBCE7C4
:102C6000FEF788FA0028B8D12A4B00221A70334A9E
:102C7000E2235B00D05C02214942FFF771FEACE722
:102C8000FFF72EFF2B4B1B785BB2012B1BD0022BC7
:102C900030D00133A8D1234D234B196828680DF09B
:102CA000CCF8041C286000210DF020F9002808D180
:102CB0001C4B1C60201C0DF08DF980B2FEF79AFEB3
:102CC00092E70024F4E7174D174B196828680DF0B8
:102CD000B9F8041C28601A490DF01EF9002800D02C
:102CE000174C104B1C60201C0DF074F980B2FEF7DD
:102CF00081FE79E7FA208000FEF77CFE74E7C0468B
:102D00001C3D00200432002040420F00293D0020DD
:102D10002C3D0020233D0020FC3100200087930340
:102D2000EC140020181500201C15002055550540F6
:102D300059120010203D00200000FFE60819002075
:102D400000007A4400B587B00E4B1B785BB20133AC
:102D500014D005AA0C4B1978117004AB19700B49EB
:102D6000029101210191009301236931084800F08B
:102D70009FF9002804DD012007B000BD0020FBE71B
:102D80000020F9E72C3D00205851011010270000C9
:102D90006817002030B585B0164B1B785BB2013345
:102DA00025D0D0231B061B68002B04D1FEF728FE7C
:102DB0001E25002415E0FEF7B3FEF9E703AA0E4B2B
:102DC00013800E4B01930023009302336A210C48B9
:102DD00000F0E2F80400322009F022FC0AF0AEF91B
:102DE000013D002C01D1002DE8D1FEF7DDF905B041
:102DF00030BDC0462C3D002009C1FFFFA086010068
:102E00006817002000B585B0194B1B785BB2013301
:102E100004D0002804D1174B01221A7005B000BD60
:102E2000144B00221A70144B1880232813D8C0B2F8
:102E30000538C0B27F2318407B3B6A46137350733A
:102E40000E4B019300230093023303AA6A210C481E
:102E500000F0A2F8E2E7AF235B00984200D9180027
:102E600028380A210BF082FBC0B21F30C0B2E1E764
:102E70002C3D00201F3D0020DA3C002010270000E0
:102E80006817002010B5FFF72BFE024B00201856E4
:102E900010BDC0462C3D002010B5FFF721FE024BAF
:102EA0000020185610BDC046203D002010B500225D
:102EB000002100200AF094F9FEE70000072804D85A
:102EC0008000024B9C466044016070470C800540C6
:102ED00010B5072802D90024200010BD8000044B43
:102EE0009C466044046800210520FFF7E7FFF3E7F4
:102EF0000C80054010B501000520FFF7DFFFFFF74C
:102F0000D5FF10B50520FFF7E3FF10BD1060536833
:102F1000834205D9C31A013B8B4205D2002070477A
:102F2000834204D2C31AF7E750600120F7E700207C
:102F3000F5E730B51860002A0BD15C6884420BD9E4
:102F4000041B013C0025002D0BD1A14209D9100022
:102F500030BD58600020FBE7844205D2041B0025E9
:102F6000F1E758600120F3E71000F1E710B501E048
:102F70000AF0E4F80A21034811F0D6F90028F7D046
:102F800010BDC046A017002010B5024811F0E4F9AA
:102F900010BDC046A0170020F0B5D6464F464646A5
:102FA000C0B584B081460F00924698460CAB1E789F
:102FB000FFF7DCFF0D9C002509F002FC02000B1E50
:102FC00018DB12196B41002B1ADB002B1CDB029261
:102FD0000393009643465246390048460EF09EFD44
:102FE0000400FFF7D1FF200004B0E0BCBA46B146B0
:102FF000A846F0BD074B084A3F2108480AF030F9BF
:1030000001225242064BE0E7024B034A3F210348AC
:103010000AF026F930460110B04601104C46011066
:10302000FFFFFF7FF0B5D6464F464646C0B584B099
:1030300081460F00924698460CAB1E78FFF796FF2C
:103040000D9C002509F0BCFB02000B1E18DB1219B9
:103050006B41002B1ADB002B1CDB029203930096C2
:1030600043465246390048460EF077FD0400FFF70C
:103070008BFF200004B0E0BCBA46B146A846F0BDC4
:10308000074B084A3F2108480AF0EAF80122524259
:10309000064BE0E7024B034A3F2103480AF0E0F801
:1030A00030460110B04601104C460110FFFFFF7F73
:1030B000F0B5DE4657464E464546E0B585B08046FB
:1030C000894692469B46FFF751FF109C002509F068
:1030D00077FB06000F1E31DBA4197D41002D33DB89
:1030E000002D35DB02940395012300935B46524685
:1030F000494640460EF012FD109C002509F060FB89
:1031000002000B1E2ADB12196B41002B2CDB002B5B
:103110002EDB02920393002300930F9B0E9A4946E5
:1031200040460EF01AFD0400FFF72EFF200005B008
:10313000F0BCBB46B246A946A046F0BD0F4B104AB4
:103140003F2110480AF08CF8012464420E4DC7E775
:103150000A4B0B4A3F210B480AF082F8074B084AFA
:103160003F2108480AF07CF801225242064BCEE784
:10317000024B034A3F2103480AF072F8304601101F
:10318000B04601104C460110FFFFFF7FF0B583B041
:1031900005000F001400019319491A4811F00CF9A9
:1031A000002829D0184B00269E57002E0CDD002D3C
:1031B00002D10126764209E0FF221A70320113493A
:1031C00038000DF02DFA01E001267642104B002563
:1031D0005D57002D01DD002C05D10A4811F0BCF827
:1031E000300003B0F0BDFF221A702A01094901988E
:1031F0000DF016FA2E00F0E701267642F0E7C04601
:10320000A0340020A8170020201500204033002003
:103210002115002070330020F8B506000F001500BE
:103220001C000E4811F030F9002F06DC002C0CDCDD
:103230000A4811F091F80020F8BD094B1F703A01BF
:10324000310008480DF0ECF9F0E7074B1C70220143
:10325000290006480DF0E4F9EAE7C046A817002067
:10326000201500204033002021150020703300205D
:10327000F0B585B0051C0F1C141C1E1CFE21890511
:10328000381C0CF049FE00280FD0FE27BF0522494C
:10329000281C0CF041FE00280FD12049281C0CF0FE
:1032A00025FE00280AD01D4D08E00021381C0CF036
:1032B0001DFE0028EBD00027E9E7174DFE21890508
:1032C000301C0CF029FE00280FD0FE26B60512494E
:1032D000201C0CF021FE00280FD11049201C0CF0FE
:1032E00005FE00280AD00D4C08E00021301C0CF02F
:1032F000FDFD0028EBD00026E9E7074C009701967A
:103300000295039401236A4601216846FFF784FF72
:10331000012005B0F0BDC0460080A244000020425C
:1033200010B5FEF711FD022801D0024810BD024879
:10333000FCE7C046C8460110B847011010B5002090
:103340000FF08EFF10BD000010B51021064811F0DF
:1033500043F8002800D110BD044B01221A70024826
:1033600010F0FAFFF7E7C046B0170020153D002027
:1033700010B51021064811F02FF8002800D110BD1B
:10338000044B00221A70024810F0E6FFF7E7C0462F
:10339000B0170020153D002070B5050064210D48D0
:1033A00010F0C2FF041E09D10B4B22000B4928006C
:1033B000FFF7BFFD051E08D1200070BD084B1C782B
:1033C000E4B2044810F0C8FFEEE7FFF7BDFF2C00A1
:1033D000F2E7C046B0170020703A0020A086010036
:1033E000153D0020037801330370044B1B785BB25A
:1033F000022B01D0024870470248FCE7E01500208C
:1034000000490110384A01100C4B18600C4B9842CF
:103410000BD00C4B98420CD0FA235B00984200D0A2
:103420007047094B01221A60FAE7074B04221A6021
:10343000F6E7054B08221A60F2E7C046002D00208F
:10344000461000008D200000F82C002010B504006C
:10345000002002F063FE022C2CD0062C1DD0012C83
:1034600010D0012002F05AFE1848FFF7CDFF184B8C
:10347000184A1A60184B194A1A60194B1C7010F040
:10348000FBFA10BDFA204000FFF7BEFF104B154AB3
:103490001A60114B144A1A60EFE7012002F03EFE59
:1034A0001248FFF7B1FF0A4B114A1A600A4B0B4A48
:1034B0001A60E2E7FA204000FFF7A6FF044B0D4A2E
:1034C0001A60054B0C4A1A60D7E7C0468D200000F1
:1034D000FC2C00200D9D0010042D00203D33001019
:1034E000E0150020B1A90010A53B00104610000017
:1034F0000DB000105183001031400010F8B50600E7
:103500000C0015000120002140420FF01DFA234B52
:103510009F6C234B1B68BB421CD2FB1A214A1268CA
:103520009A4202D8204B01221A70204B1968204A77
:103530003000FFF7EBFC002802D01E4B01221A706E
:103540001D4B1B78002B0AD11C4B1B6898471A4B4C
:103550001870F8BDFB1A1A4A94466344DEE730003F
:10356000FFF71AFF0028F4D00F4B1B78002BF0D088
:10357000104B1B78002BECD0094B1F6000230A4A2C
:1035800013700C4A13700C4A1370FFF7F1FE0D4BC9
:103590001B68290020009847DBE7C0460000115057
:1035A0009C340020F82C0020263D0020002D002017
:1035B000C43C0020303D0020163D0020042D00209A
:1035C000FF070000FC2C0020084B1B785BB2022B8D
:1035D00007D0062B07D0012B01D0054870470548BE
:1035E000FCE70548FAE70548F8E7C046E015002083
:1035F0006053011048490110244A0110D85C0110A1
:10360000084B1B785BB2022B07D0062B07D0012B8F
:1036100001D0054870470548FCE70548FAE705482A
:10362000F8E7C046E01500202053011018490110AA
:10363000F8490110AC5C01100020704710B5134B25
:103640001B785BB2022B13D0062B18D0002B05D0B1
:103650000B78002B0FD1FFF777FE0CE00B78302BA7
:1036600003D0212B01D0812B05D1FFF76DFE02E0A5
:103670000B78212B00D010BDFFF766FEFBE70B781F
:10368000012BF8D1FFF760FEF5E7C046E0150020FA
:1036900070B51D0004AB1E88314B00241C57012C53
:1036A0002DD0022C12D0002C00D070BD0029FCD1EE
:1036B000002AFAD12878102804D03200290000F01E
:1036C000E7FFF2E7A81C01F0C1FFEEE70029ECD10B
:1036D000002AEAD12B78112B05D0132BE5D12148F4
:1036E0000DF0EEF8E1E76B78DB0706D51E4B002006
:1036F0001E4A011CFFF7BCFDD7E70023F7E70029AE
:10370000D3D1002AD1D12B78002BCED16B78082BC6
:10371000CBD1EC78002C1ED0A8780CF002FC144918
:103720000CF095FB061C2B79002B16D020000CF01A
:10373000F8FB0F490CF08BFB041C211C301C0CF017
:10374000EBFB002800D0341C0020231C074A011C7E
:10375000FFF78EFDA9E70026E5E70024EDE7C04668
:10376000E01500207C480110CDCC0C3F0000024346
:1037700000007F43064B1B785BB2022B03D0062B65
:1037800003D1044870470448FCE70448FAE7C04600
:10379000E0150020EC5C01108C49011074530110FD
:1037A00070B5EE2824D0002825D080001E4BC558C7
:1037B000280010F087FDC0B21F2800D91F20002369
:1037C00027E05A1C194CA15C0902E25C0A43440040
:1037D0001749625202330130112BF2D9154A144BAA
:1037E00013CB13C211001A680A609B888B8019E002
:1037F00000200023F0E70C4B196802220E480CF061
:103800000FFF012007E05A1CEC5C5100094BCC5221
:10381000D3B29842F7D801304000C0239B00184330
:10382000044B1880034870BDF8140020C0480110F4
:1038300024200020482700204A27002000B591B00E
:103840004022694600200FF099FF00200FF0ACFFE6
:10385000064B1B785BB2002B01D011B000BD0448B1
:103860000CF0FEFF684606F05BFCF6E7E015002072
:1038700094480110F0B583B005001400012966D109
:1038800013785B069B0F012B58D0022B03D0002B23
:1038900001D000205CE06378022B24D0072B03D0FA
:1038A000012B19D0002053E0227963791B021343C6
:1038B000042B03D0052B08D0002049E02433264AEE
:1038C000210028000FF064F942E08D33234A2100E3
:1038D00028000FF05DF93BE02823214A2100280051
:1038E0000FF056F934E0227963791B021343072B5A
:1038F00030D11C4B1B785BB2022B0FD06B469F1D47
:10390000194E0222310038000CF08AFE3B8832004A
:10391000083A210028000FF03BF919E06B469F1D83
:10392000124E0222310038000CF07AFE3B88320041
:10393000083A210028000FF02BF909E051780C48D3
:103940000CF0BEFF210028000FF006F900E0012076
:1039500003B0F0BD0020FBE7B815002024150020BF
:10396000D4480110E01500200C470110E447011075
:10397000AC480110012815D0022907D000290BD12D
:10398000022A29D0002A29D006207047022A1FD0F7
:10399000002A1FD00800F8E7022A21D0002A21D0EF
:1039A0000820F2E7022907D000290BD1022A1FD0F4
:1039B000002A1FD00720E8E7022A15D0002A15D0D8
:1039C0000320E2E7022AE0D0002A15D00020DCE73D
:1039D0000120DAE70320D8E70720D6E70520D4E75F
:1039E0000020D2E70420D0E71000CEE70420CCE787
:1039F0000820CAE70620C8E70520C6E7012070476F
:103A000010B58422002102480CF004FE10BDC0460F
:103A10002431002010B50020FFF7F2FF10BD000098
:103A2000F0B5C64600B580460D008B795D2B24D1DC
:103A30000B79DF00FF1ABFB21937BFB2974221D806
:103A40000C780C19002605E0104A53700136F6B2C6
:103A50002378E4182B79B34210D96378052BF7D17A
:103A6000210040460EF09EFC00280DD0A378DA0914
:103A7000012AE9D0054A9370E8E70027380080BCA6
:103A8000B846F0BD0027F9E70027F7E7243100200A
:103A900030B583B0040014484078884206D0124AFA
:103AA00092788A420CD0012003B030BD0F4A002A20
:103AB00018D09AB20E490020FFF7C0FD0120F3E7AD
:103AC0000C4D9BB200932B00002200210020FFF739
:103AD000DFFD2B00443B997840232A0020000EF0A4
:103AE000D5FCE1E70120DFE7243100203D3600105E
:103AF000283100206831002010B50EF0B7FB0028F7
:103B000003D10023002B08D110BD0EF0B7FB002815
:103B100001D10123F6E70023F4E70B4B997800204D
:103B20000EF0F0FC0028EFD1074CA1780EF086FCD7
:103B300022004432A178402300200EF0A7FCA17897
:103B400000200EF08FFCDFE72431002070B5050067
:103B50000C000EF093FB002806D1812100200EF00E
:103B60006DFC002803D170BD0EF090FBF5E7231C1F
:103B7000402C00D940239CB2094E2200290030007D
:103B80000CF04EFD351F69782300320000200EF046
:103B90007DFC697800200EF065FCFFF7ADFFE2E7E1
:103BA0002831002010B5104B5C780EF05FFB002828
:103BB00006D10023002B13D0002C09D1002010E0E7
:103BC0000EF05CFB002801D10123F3E70023F1E7AD
:103BD000210000200EF096FC002803D1013000E007
:103BE000002010BD0020FCE72431002010B53C224D
:103BF000002102480CF00EFD10BDC046E427002055
:103C000010B50020FFF7F2FF10BD0000F0B583B043
:103C100006000F001500FEF797F802284CD13B79FB
:103C2000DC00E41AA4B21234A4B2AC4248D8002397
:103C3000002B09D00025002D44D0397879184B7815
:103C4000212B11D0002438E01A01D21A92001F480B
:103C500082185278002A02D00133DBB2E8E71A0159
:103C6000D11A89004518E6E7A9630B78C9183A7993
:103C70006B1C0193AB1C0093032330000EF0ACFBD4
:103C8000002821D0BB79012B13D001232B71BB78E5
:103C90002B70AA6BD179137A1B020B43EB80A978A6
:103CA00000290AD02A003032062330000EF0EEFB45
:103CB00003E0FB79EB70E8E70024200003B0F0BDDF
:103CC0000024FAE70024F8E70024F6E7E4270020C0
:103CD00070B582B005001D4C002000280AD00028D5
:103CE00030D162788A4213D0A2788A421AD0012059
:103CF00002B070BD0401241AA400144A1419A27859
:103D00008A42ECD062788A42E9D00130C0B2E4E75E
:103D10000F4A002A18D0210008319AB2FFF78EFC12
:103D20000120E5E7260030369BB2009333000022E5
:103D30000021FFF7ADFCA1780623320028000EF029
:103D4000A5FBD5E70020D3E70120D1E7E427002039
:103D50003D360010F0B5C64600B582B0060015002D
:103D600012781F231340012B00D01FE12879002473
:103D7000002C0DD0FF24002C00D01CE12700602374
:103D800018001040134239D101290BD001200EE157
:103D900023011B1B9B008E4FDB5D9842EBD001344F
:103DA000E4B2E5E7EA786B78062B06D0062B00D064
:103DB00005E1222A12D00020F9E0212AF6D12301C0
:103DC0001F1BBF00824BDF19BA6B002A00D1F4E041
:103DD0001378290030000EF0DBFEE8E02000FFF74A
:103DE000C9FC02003B01DF1BBF00794BDF19FB88D8
:103DF000290030000EF0CCFE0120D8E0202800D0B1
:103E0000DFE06B780B2B00D9DDE09B00714AD358C3
:103E10009F46012901D00120C9E0EA78A978230151
:103E20001B1B9B0008336A4FFF18A879EB791B0214
:103E30000343181C252B00D9252080B2002909D066
:103E4000012B16D97B1C9C463970013880B20123A6
:103E5000984602E0BC460023984600906346200046
:103E6000FFF7EAFB030043449BB2002B05D100207F
:103E70009DE0BC4600239846EFE73A002900300059
:103E80000EF086FE012092E0012903D0032915D00F
:103E900001208CE0AA79EB791B021343062B01D990
:103EA000002084E02201121B9200303248498A1817
:103EB000290030000EF06CFE012078E0EA78A97845
:103EC00023011B1B9B0030334148C318AE79E879AE
:103ED00000023043051C062800D90625ADB2002992
:103EE00004D0012802D91878884205D00095200016
:103EF000FFF7CEFB01205AE00133013DADB2F5E7FB
:103F0000012901D0012052E0E97823011F1BBF00E5
:103F10002F4BDF197971304B002B04D0200000E0CB
:103F200000BF002843D0290030000EF015FE01200C
:103F30003DE0012901D0012039E02201171BBF001B
:103F4000234AD21905320123290030000EF020FE49
:103F500001202CE0012901D0012028E02201171BBB
:103F6000BF001B4AD21904320123290030000EF091
:103F70000FFE01201BE0012903D0032907D00120F7
:103F800015E0290030000EF0E7FD01200FE0A978D0
:103F900023011F1BBF000E4BDF1939710F4B002B84
:103FA00013D0200000E000BF012000E0002002B09C
:103FB00080BCB846F0BD0020F9E70020F7E70020FC
:103FC000F5E70020F3E70020F1E70120EFE7C04626
:103FD000E42700205C490110000000000000000000
:103FE00010B50301181A8000104B181844780EF011
:103FF0003DF9002806D10023002B13D0002C09D155
:10400000002010E00EF03AF9002801D10123F3E777
:104010000023F1E7210000200EF074FA002803D1FC
:10402000013000E0002010BD0020FCE7E427002064
:1040300010B50020FFF7D4FF10BD0000F8B5040054
:104040000F0016001D0003011B1A9B001F4AD31806
:10405000597800200EF0F2F9002825D0002F24D046
:104060002B1C242D00D924239DB2184A2301191B8F
:10407000890051180F721B1B9B000833D0180130A8
:104080002A0031000CF0CCFA0135ADB20F4B200103
:10409000021B920008329A18001B80001818417801
:1040A0002B0000200EF0F2F9F8BD2B1C252D00D9B5
:1040B00025239DB22001001B80000830034B1818F7
:1040C0002A0031000CF0ACFAE0E7C046E4270020FB
:1040D00010B513000A0001000020FFF7AFFF10BD6C
:1040E000107003120F20184050700B0118435070CD
:1040F000091191707047000070B5124D80242401A1
:104100002A0021002000FFF7EBFFEA1C210020001D
:10411000FFF7E6FFAA1D21002000FFF7E1FF2A00BC
:10412000093221002000FFF7DBFF2A000C322100BA
:104130002000FFF7D5FF2A000F3221002000FFF7F3
:10414000CFFF70BD9C3C002010B5402200210248EA
:104150000CF060FA10BDC046402C0020014B1870D6
:104160007047C0460F3D0020014B18737047C04692
:10417000402C0020014B58737047C046402C002053
:1041800070B5FDF71FF804000E4D2B68C01AC31759
:10419000C01858400AF0FAFC2C6000220A4B0AF0C2
:1041A00066FC0AF02FFD094B00215A5E1C78084975
:1041B0000C70801882B200B21880FF2801DDFF3A2F
:1041C0001A8070BD9C39002000408F40D63C0020F2
:1041D000402C0020024B1A78024B5A707047C046A0
:1041E000A84B0110402C0020064B04229A732F325A
:1041F000DA73303A1A74013A5A74012119765A76F0
:104200007047C046402C002010B5C4B2000A0023FD
:1042100007E019000E31044A54540131505402335E
:10422000DBB20D2BF5D910BD402C00200A4B01222A
:104230001A7000225A7003329A70084A117AD970A3
:10424000D179197191795971517999711179D9711E
:10425000D2781A727047C046402C002008190020FE
:1042600010B50400FFF770FF8120FFF777FF012CE6
:1042700009D0064B1C70064B19784023034A0020D6
:104280000FF016F810BDFFF7D1FFF4E7402C002027
:104290000F3D002070B586B06C462A4B04332200D7
:1042A00070CB70C270CB70C2022837D0032841D0C7
:1042B0000023002500E00133052B10D8224AD21834
:1042C0007D32FF3214780522D21A885C8442F2D003
:1042D0001D4AD2187D32FF3210700125EBE7002D08
:1042E00019D18120FFF740FF184801238373164B33
:1042F0001A7AC273DA7902749A7942745A7982749A
:104300001A79C274DB7803751530182269460CF0EF
:1043100087F906B070BDFDF713FCE2E78120FFF7D7
:1043200023FF0A48022383730F30102208490CF040
:1043300077F9EEE78120FFF717FF044B03229A730A
:10434000E7E7C046A84B011008190020402C0020C8
:10435000C02C002070B504000E001500FFF7F4FE1D
:104360002120FFF7FBFEFFF70BFFFFF733FF2000D5
:10437000FFF700FF482C68D8A4003E4B1B599F460E
:104380008020FFF7F1FE00236BE0F07A431E984196
:10439000C0B201F0C3FEF27A374B1A708020FFF7EB
:1043A000E3FEF0E731000C31F07AFFF773FFEAE744
:1043B0008020FFF7D9FEF27A304B1A70E3E78220B3
:1043C000FFF7D2FEFFF710FFDDE78020FFF7CCFEFE
:1043D000D9E79020FFF7C8FEF27BF17A307B00F03E
:1043E00039FAD0E72648FCF71DFFCCE78020FFF71D
:1043F000BBFEC8E78320FFF7B7FE6420FFF704FF8A
:10440000C1E78020FFF7B0FEBDE78020FFF7ACFEDC
:10441000F27A0F231340033BDAB20C2A03D893003D
:10442000184AD3589F460120FDF7E4FFABE703206D
:10443000FAE70420F8E70520F6E70620F4E707206E
:10444000F2E70820F0E70220EEE70023AB4202D2B9
:1044500001339BB2FAE78020FFF786FE93E7013332
:10446000DBB21F2BFBD94023074A212100200EF08D
:104470001FFF70BD504A0110103D0020E4150020C0
:1044800059120010744B0110402C002070B50C0024
:10449000150010280DD080280FD0012800D070BD45
:1044A000881C01F0D3F8A07A2A002100FFF752FF00
:1044B000F5E7881C01F0CAF8F1E74878FFF7D0FE6D
:1044C000EDE70000094B1B780A2B07D00B2B09D016
:1044D000064B0A221A70054B18787047034B0B22C3
:1044E0001A70F8E7014B0C221A70F4E7E51500206A
:1044F00070B504005D4B1B78002B04D15C4B1B781E
:10450000302B0BD070BD5B4B1A885B4B18785B4926
:10451000FFF7BCFF554B00221A70F3E7FFF714FEBC
:104520003020FFF71BFEFFF72BFEFFF753FE544B27
:104530001B78012B2DD0022B00D18AE02378514D1E
:10454000AB706378EB70A3782B71E3786B71237990
:104550000F210B40AB716079A3791B0203431B1140
:10456000EB71E3792B72237A19406972617AA37A2D
:104570001B020B431B11AB72FFF7A4FFE872424B07
:10458000197840232A0000200EF092FE03F062FA10
:10459000B8E701F067FC83783A4D2B73C3786B73EF
:1045A0000378AB734378EB7303792B7443796B74A3
:1045B000037AAB74437AEB7483792B75C3796B758B
:1045C000837AAB75C37AEB7501F04CFC83782B765C
:1045D000C3786B760378AB764378EB7603792B77E9
:1045E00043796B77037AAB77437AEB778279202331
:1045F000EA54C2790133EA54827A0133EA54C27A26
:104600000133EA5401F02EFC82782423EA54C27864
:104610000133EA5402780133EA5442780133EA5410
:1046200002790133EA5442790133EA54027A0133C0
:10463000EA54427A0133EA5482790133EA54C27966
:104640000133EA54827A0133EA54C27A0133EA54DC
:1046500074E70E4D280001F057F80A4B0C3307CDD4
:1046600007C307CD07C307CD07C367E7113D002088
:10467000E4150020E2150020123D0020802C0020CF
:10468000103D0020402C00200F3D0020BC390020B0
:1046900010B5054B01241C70044B1870044B1A8094
:1046A00004480BF0BDFF10BD113D0020123D00205D
:1046B000E2150020802C002010B5024B18180BF0DA
:1046C000AFFF10BD402C0020502800D1B0E003D92E
:1046D00060282FD0FF2010E0402800D9AAE0202831
:1046E00005D34B2924D88B00564AD3589F4600281F
:1046F00003D0102800D09FE0002070479520FCE7F1
:104700000020FAE72A39504B59187D31FF310878DB
:10471000F3E704394C4B59187D31FF310878ECE749
:104720000020EAE70020E8E76820E6E70020E4E769
:104730000020E2E7A92979D88B00444AD3589F4644
:10474000FF20DAE70220D8E70120D6E72320D4E7CC
:104750000020D2E7B920D0E71A20CEE70120CCE72D
:104760000020CAE74020C8E70020C6E74020C4E791
:104770000020C2E74020C0E70120BEE70020BCE7E0
:104780000120BAE70020B8E70120B6E70020B4E72F
:104790003B20B2E73420B0E73B20AEE73420ACE763
:1047A0003B20AAE73420A8E73D39294B585CA4E711
:1047B0003D39274B585CA0E71A209EE71A209CE75A
:1047C0001A209AE75E2098E7012096E7502094E7A8
:1047D000FD2092E7002090E700208EE7C6208CE7BE
:1047E0000F208AE70F2088E7302086E7612084E7E2
:1047F000AE2082E7902080E7D9207EE7D4207CE7B6
:1048000014207AE7542078E7412076E7152074E7F2
:10481000542072E7C72070E779206EE79C206CE790
:1048200033206AE7362068E7632066E7002064E704
:10483000002062E7FF2060E7FF205EE722205CE7C0
:1048400003205AE7C44B011008190020F44C011052
:104850009C3C0020F0B58BB006000F00150008A9A5
:104860000F70487000248C70CC700A7105220E20E5
:10487000FFF722FF00941A22002101A80BF0CAFEC4
:1048800007E03919C9B23000FFF71EFF6B46185513
:104890000134A542F5DC2A0069461320FFF70CFF1E
:1048A0000BB0F0BD70B5002406E0281C0BF012FD23
:1048B000A3000F4AD0500134A0235B009C4215D2C4
:1048C00020000BF02EFBF42189050BF0D6FA822193
:1048D000C9050BF0B2FA051C06490BF015FB0028C0
:1048E000E3D1A300024A00219950E4E770BDC0461D
:1048F000241B00200000FEC010B5002405E0A3002A
:104900001B4AC1210906995001347F2C2FD8002C55
:10491000F5D00F2C0FD91F2C1BD920000BF001FB59
:10492000F42189050BF0A9FA12490BF086FAA300CD
:104930000F4AD050E8E720000BF0F3FAFA2189057E
:104940000BF09BFA0C490BF078FAA300084AD05000
:10495000DAE720000BF0E5FAF62189050BF08DFA75
:1049600006490BF06AFAA300014AD050CCE710BD0B
:104970003820002000007E400000F84000009E40EB
:1049800010B500240EE020000BF0CBFAF4218905CD
:104990000BF073FA8021C9050BF04FFAA300034A0C
:1049A000D05001347F2CEED910BDC04638220020F3
:1049B00010B5041C0BF0DCFA0BF0B8FA8221C90523
:1049C0000BF040FA0BF0D4FA00280BD08221C90575
:1049D000201C0BF037FA8421C9050BF04EFA0BF0BE
:1049E000F9FA10BD0020FCE710B51C1C022818D0F5
:1049F000032805D0002801D0201C10BD141CFBE7A3
:104A0000101C0BF01FFA041C02990BF06FFA00281F
:104A100009D10399201C0BF07FFA0028ECD0039CED
:104A2000EAE70C1CE8E7029CE6E710B5FFF73AFF5F
:104A3000FFF762FFFFF7A4FF10BD000070B505008F
:104A40000C0000786B781B020343AA78120413430E
:104A5000E87800061843FFF7ABFF284E8000805926
:104A600027490BF00AFA2070030A6370030CA37045
:104A7000000EE070287A6B7A1B020343AA7A1204B4
:104A80001343E87A00061843FFF792FF800080592D
:104A90001C490BF0F2F92072030A6372030CA37233
:104AA000000EE07228796B791B020343AA79120485
:104AB0001343E87900061843FFF77AFF8000335864
:104AC00023711A0A62711A0CA2711B0EE371287B02
:104AD0006B7B1B020343AA7B12041343E87B000693
:104AE0001843FFF765FF8000335823731A0A627377
:104AF0001A0CA2731B0EE37370BDC046241B00206A
:104B00000000A04300002043F0B5DE4657464E4665
:104B10004546E0B589B005000C00C678B3091E0013
:104B20000B700C22002105A80BF074FD0C22002153
:104B300002A80BF06FFD002E0CD1012E00D99FE0D2
:104B4000022E00D932E109B0F0BCBB46B246A946FC
:104B5000A046F0BDAA781209EB780121194009019D
:104B60000A43DD4B984653009B189B00434405AA1B
:104B700083CB83C200239B46A278E3781B021343B6
:104B8000217909040B43627912061A436B46587D5A
:104B90008023DB050193C021090600915B4607993C
:104BA000FFF722FFA21CA070030A9146E370030CDA
:104BB0002371000E6071C12212069246A279E37938
:104BC0001B021343217A09040B43627A12061A432B
:104BD00006996B46187D5F460197574600975346E6
:104BE000FFF702FFA071020AE271020C2272000EAE
:104BF0006072EA789206D20E53009B189B004344E1
:104C000002AA83CB83C2A27AE37A1B021343217BDD
:104C100009040B43627B12061A436B46587A8023C1
:104C2000DB050193C021090600915B460499FFF75B
:104C3000DBFEA072020AE272020C2273000E6073A5
:104C4000A27BE37B1B021343217C09040B43627CA0
:104C500012061A4303996B46187A5B460193534632
:104C60000093FFF7C1FEA073020AE273020C2274E4
:104C7000000E6074210012314846FFF7DFFE5CE74A
:104C80006B785B06DA0E944B984653009B189B009A
:104C9000434405AA83CB83C200239B46A278E378D2
:104CA0001B021343217909040B43627912061A434C
:104CB0006B46587D8023DB050193C02109060091D6
:104CC0005B460799FFF790FEA21CA070030A91466D
:104CD000E370030C2371000E6071C122120692462C
:104CE000A279E3791B021343217A09040B43627A08
:104CF00012061A4306996B46187D5F460197574680
:104D000000975346FFF770FEA071020AE271020C91
:104D10002272000E60726A78D209A9780F230B40C4
:104D20005B0013435A00D3189B00434402AA83CB71
:104D300083C2A27AE37A1B021343217B09040B434B
:104D4000627B12061A436B46587A8023DB05019377
:104D5000C021090600915B460499FFF745FEA07249
:104D6000020AE272020C2273000E6073A27BE37BE4
:104D70001B021343217C09040B43627C12061A4375
:104D800003996B46187A5B46019353460093FFF7ED
:104D90002BFEA073020AE273020C2274000E6074F0
:104DA000210022314846FFF749FEC9E62A78D2069B
:104DB000D10E05AF930E5B189B00474A944663449F
:104DC0003A0043CB43C200239A46A278E3781B0201
:104DD0001343217909040B43627912061A43787848
:104DE0008023DB059B460193C0231B06009353469B
:104DF0000799FFF7F9FDA21C9046A070030AE37023
:104E0000030C2371000E6071C12212069146A27933
:104E1000E3791B021343217A09040B43627A1206D9
:104E20001A4306993878574601974F4600974B46E4
:104E3000FFF7DAFDA071020AE271020C2272000E85
:104E400060722A785209697803230B40DB00134310
:104E500002AD5A00D3189B001F4AD6182A0083CEF1
:104E600083C2A27AE37A1B021343217B09040B431A
:104E7000627B12061A43687859460191C0231B06CB
:104E8000009353460499FFF7AFFDA072020AE27245
:104E9000020C2273000E6073A27BE37B1B021343A0
:104EA000217C09040B43627C12061A43039928787B
:104EB000534601934B460093FFF796FDA073020AF9
:104EC000E273020C2274000E6074210032314046FD
:104ED000FFF7B4FD37E6C0469C4F011070B50200E5
:104EE000C3789B090B700478A40840780123034021
:104EF0009B0123431A4D9B00881CEB588B701C0AA6
:104F000044701C0C84701B0EC37093785B06DB0D21
:104F1000EB588B721D0ACD721D0C0D731B0E4B735B
:104F200053785B080F4C9B00E3588B711E0ACE71BF
:104F30001E0C0E721B0E4B729578ED09D2783F2332
:104F400013405B002B439B00E3588B731C0ACC730C
:104F50001C0C0C741B0E4B741231FFF76FFD70BDEF
:104F60003822002038200020F0B5DE4657464E4655
:104F70004546E0B589B005000C000C22002105A8CB
:104F80000BF048FB0C22002102A80BF043FBEE784B
:104F9000B3091E1E23706ED02B78DB0700D473E09C
:104FA0002B785B089B00B649CB58A370190AE170B7
:104FB000190C21711B0E6371A978C909EA783F2386
:104FC00013405B000B439B00AE49CB58A371190AF9
:104FD000E171190C21721B0E6372AA785206D20E6F
:104FE00002AB994653009A189200A74B9B184A4669
:104FF00083CB83C200239846A27AE37A1B02134331
:10500000217B09040B43627B12061A434B465878F6
:105010008023DB050193C0231B06009343464946CA
:105020008968FFF7E1FCA072020AE272020C2273A7
:10503000000E6073C1231B06A27BE17B09021143B2
:10504000207C00040143627C12060A4349464968F9
:1050500048460078474601970093FFF7C5FCA073C8
:10506000020AE273020C2274000E6074A01C21007C
:105070001231FFF7E3FC012E6DD809B0F0BCBB463E
:10508000B246A946A046F0BD2B785B089B007C4A3F
:10509000D358A372190AE172190C21731B0E6373A2
:1050A000A978C909EA783F2313405B000B439B00B2
:1050B000744AD358A373190AE173190C21741B0E97
:1050C0006374AA785206D20E05AB994653009A181B
:1050D00092006D4B9B184A4683CB83C200239846AF
:1050E000A278E3781B021343217909040B43627908
:1050F00012061A434B4658788023DB050193C023E0
:105100001B060093434649468968FFF76DFCA07073
:10511000020AE270020C2271000E6071C1231B06AC
:10512000A279E17909021143207A00040143627AED
:1051300012060A434946496848460078474601979F
:105140000093FFF751FCA071020AE271020C227277
:10515000000E60728AE76A78D206D10E05AF930E10
:105160005B189B00484A944663443A0043CB43C2D1
:1051700000239A46A278E3781B021343217909049D
:105180000B43627912061A4378788023DB059B462D
:105190000193C0231B06009353460799FFF724FC95
:1051A000A21C9046A070030AE370030C2371000E4A
:1051B0006071C12212069146A279E3791B02134362
:1051C000217A09040B43627A12061A430699387849
:1051D000574601974F4600974B46FFF705FCA071D5
:1051E000020AE271020C2272000E60726A785209A1
:1051F000A97803230B40DB00134302AD5A00D318F8
:105200009B00214AD6182A0083CE83C2A27AE37A71
:105210001B021343217B09040B43627B12061A43D2
:10522000687859460191C0231B06009353460499A0
:10523000FFF7DAFBA072020AE272020C2273000E80
:105240006073A27BE37B1B021343217C09040B43A5
:10525000627C12061A4303992878534601934B4601
:105260000093FFF7C1FBA073020AE273020C2274E1
:10527000000E6074210022314046FFF7DFFBFCE6A0
:1052800038220020382000209C4F0110F0B5DE4667
:1052900057464E464546E0B589B005000C000C2245
:1052A000002105A80BF0B6F90C22002102A80BF092
:1052B000B1F9EE78B3091E1E23701AD02B78DA07E5
:1052C00035D55B0721D5A978C909EA783F23134072
:1052D0005B000B439B00BC49CB58A370190AE170DB
:1052E000190C21711B0E6371A01C21001231FFF7F4
:1052F000A5FB012E41D8022E00D9D4E009B0F0BCA4
:10530000BB46B246A946A046F0BDA978C909EA78CD
:105310003F2313405B000B439B00AC49CB58A37168
:10532000190AE171190C21721B0E6372DCE75B072D
:1053300011D5A978C909EA783F2313405B000B43D4
:105340009B00A14AD358A372190AE172190C217368
:105350001B0E6373C8E7A978C909EA783F23134095
:105360005B000B439B00994AD358A373190AE1735E
:10537000190C21741B0E6374B6E76A785209AB7876
:1053800003211940C9000A43914B984653009B18CA
:105390009B00434405AA83CB83C200239B46A2788B
:1053A000E3781B021343217909040B436279120647
:1053B0001A436B46587D8023DB050193C021090603
:1053C00000915B460799FFF70FFBA21CA070030A30
:1053D0009146E370030C2371000E6071C122120626
:1053E0009246A279E3791B021343217A09040B4305
:1053F000627A12061A4306996B46187D5F4601973A
:10540000574600975346FFF7EFFAA071020AE27180
:10541000020C2272000E6072AA785206D20E53005D
:105420009B189B00434402AA83CB83C2A27AE37AEF
:105430001B021343217B09040B43627B12061A43B0
:105440006B46587A8023DB050193C0210906009141
:105450005B460499FFF7C8FAA072020AE272020CD6
:105460002273000E6073A27BE37B1B021343217C3B
:1054700009040B43627C12061A4303996B46187A9F
:105480005B46019353460093FFF7AEFAA073020AFE
:10549000E273020C2274000E60742100223148462F
:1054A000FFF7CCFA27E72A78D20805AF53009B18FC
:1054B0009B00474A944663443A0043CB43C20023CF
:1054C0009A46A278E3781B021343217909040B431F
:1054D000627912061A4378788023DB059B46019394
:1054E000C0231B06009353460799FFF77DFAA21CC1
:1054F0009046A070030AE370030C2371000E6071E4
:10550000C12212069146A279E3791B021343217A44
:1055100009040B43627A12061A43069938785746F3
:1055200001974F4600974B46FFF75EFAA071020ABB
:10553000E271020C2272000E60726B78DB06DA0EEA
:1055400002AD9B0E9B189B00214A944663442A009F
:1055500043CB43C2A27AE37A1B021343217B0904A3
:105560000B43627B12061A43687859460191C023A7
:105570001B06009353460499FFF736FAA072020AFD
:10558000E272020C2273000E6073A27BE37B1B02AB
:105590001343217C09040B43627C12061A430399CE
:1055A0002878534601934B460097FFF71DFAA073E6
:1055B000020AE273020C2274000E60742100323180
:1055C0004046FFF73BFA99E63822002038200020B9
:1055D0009C4F011010B5C3789B09022B26D0032BDA
:1055E00030D0012B07D0002200208871C8710872CA
:1055F00048720A7010BD047842781202144383780E
:105600001B042343C4783F22224012061A431B0383
:1056100006D0930707D09307ECD5FFF737FEE9E7ED
:10562000FFF772FAE6E7FFF759FCE3E704784378FF
:105630001B0223439B0502D1FFF766FADAE7FFF767
:1056400093FCD7E7FFF760FAD4E7000070B58CB0A1
:1056500004000822010029480AF0E2FF284B1B78C9
:10566000002B0ED0274D29002000FFF7B3FF2C7828
:10567000002C40D03022002168460AF0CBFF0023E6
:1056800031E0204B0022DA80C12212021A8100216F
:10569000D9811A82598099801A00598100239381F7
:1056A000FFF7C3F9164B01221A70DBE7154A5D1CA0
:1056B00028011018C6880189090431431B016E4670
:1056C0009951D218D68B118C090431436B4459601F
:1056D00046888188090431439960518B928B12046A
:1056E0000A43DA60EBB29C42E0D861B200230022A8
:1056F0006846FDF791FD0CB070BDC046943C00209B
:10570000EF3C0020C4380020F0B5DE4657464E4638
:105710004546E0B585B00400837903229343022215
:10572000134383710125002601E00135EDB2032DFD
:105730000CD8844BAA00D058B200D158490049086F
:105740000AF0EAFB0028F0D02E00EEE703233340F6
:105750009A00A3790C218B431343A371002509E020
:10576000794940460AF089FBAF000AF001FC01AB21
:10577000D8510135022D15DC721901320323134073
:10578000704F9B00D8599D21C9050AF076FB8046D1
:10579000B300D85900210AF0A9FB0028E0D1FE216E
:1057A0008905DEE7019B9B12DB02D90A0F2211401B
:1057B0000901A07902400A43A271D90BE171D90D08
:1057C0002172DB0F012601210B40607AB0430343B5
:1057D0006372029B9D127F20824605406F00657AAE
:1057E0000D403D4365725B149B049B0CA3721B0A26
:1057F0003F273B40E57A403885432B43E372039BC8
:105800009A12944603250322604610408001844684
:10581000E07A074060460743E7721B135B035F0BA8
:10582000A774580DE0745B0F0720804603409B4629
:10583000207D84460720814660464B4698430300FE
:10584000584618432075C3B24046034023750023D1
:105850006375A375E37D18308343E375E77D1F23EC
:105860003B40E3750023A3772700E37FAB43E37757
:10587000DBB21340E3771E37BB78B343BB701F36F0
:10588000A35D0B40A3550136A35D60308343A35550
:105890002E4B1B681940C9018846A05D5146014046
:1058A000080041460143A1555B089B059B0D3B71D8
:1058B0001B0A13407979A9430B437B712323E15CD5
:1058C0000A400C210A43E2541E4A138AA3701B0AA1
:1058D000E370538A23701B0A6370938A23711B0A37
:1058E0006371FBF76FFC1A4B1C68844227D9041BB9
:1058F000013C174B1860174B1A68944664441C60AF
:10590000FA239B009C4213D91900200008F056FE90
:10591000104B1960601AFA21890008F04FFE0B4CF9
:1059200023689C46604420600B4908F047FE2160D4
:1059300005B0F0BCBB46B246A946A046F0BD041B6C
:10594000D7E7C046E8150020000080BF383A0020A5
:10595000A0390020A8310020FF070000F0B5DE4686
:1059600057464E464546E0B585B004000D00C36875
:105970009A46CE68311C181C0AF07FFA071C23686F
:1059800098462B689B46191C40460AF076FA011C83
:10599000381C0AF052FA071C63686A689146111CA9
:1059A0000093181C0AF069FA011C381C0AF045FA29
:1059B0000190A768AD68291C381C0AF05EFA011C2A
:1059C00001980AF03AFA0190594650460AF055FA01
:1059D00002904146301C0AF050FA011C02980AF06D
:1059E00031FA0290291C00980AF047FA011C02982B
:1059F0000AF028FA0290391C48460AF03EFA011CC7
:105A000002980AF01AFA0290494650460AF035FA0E
:105A10000390291C40460AF030FA011C03980AF052
:105A20000CFA03900099301C0AF027FA011C039825
:105A30000AF008FA0390391C58460AF01EFA011CB5
:105A400003980AF0FFF90390291C50460AF015FA52
:105A5000051C494640460AF010FA011C281C0AF0B1
:105A6000F1F9051C009958460AF007FA011C281C98
:105A70000AF0E3F9051C391C301C0AF0FEF9011C80
:105A8000281C0AF0DFF9019BE360029B2360039B63
:105A90006360A06005B0F0BCBB46B246A946A04614
:105AA000F0BD70B504000168081C0AF0E6F9051C99
:105AB0006168081C0AF0E1F9011C281C0AF0C2F90F
:105AC000051CA168081C0AF0D8F9011C281C0AF062
:105AD000B9F9051CE168081C0AF0CFF9011C281C63
