:020000041000EA
:1000000000B5324B212058609868022188439860DF
:10001000D860186158612E4B002199600221596106
:100020000121F02299502B49196001219960352056
:1000300000F044F80222904214D00621196600F024
:1000400034F8196E01211966002018661A6600F04E
:100050002CF8196E196E196E052000F02FF8012189
:100060000842F9D1002199601B49196000215960AB
:100070001A491B48016001219960EB211966A021F2
:10008000196600F012F800219960164914480160C1
:100090000121996001BC002800D000471248134993
:1000A000086003C880F30888084703B5996A0420EC
:1000B0000142FBD001200142F8D103BD02B5186610
:1000C0001866FFF7F2FF186E186E02BD00000240BE
:1000D000000000180000070000035F00212200005C
:1000E000F4000018222000A00001001008ED00E03C
:1000F00000000000000000000000000074B24E7A12
:1001000000200420F7010010C3010010C5010010F9
:10011000C1010010C1010010C1010010C101001097
:10012000C1010010C1010010C1010010C701001081
:10013000C1010010C1010010C9010010CB01001065
:10014000CD010010CD010010CD010010CD01001037
:10015000CD010010CD010010CD010010CD01001027
:10016000CD010010CD010010CD010010CD01001017
:10017000CD010010CD010010CD010010CD01001007
:10018000CD010010CD010010CD010010CD010010F7
:10019000CD010010CD010010CD010010CD010010E7
:1001A000CD010010CD010010CD010010CD010010D7
:1001B000CD010010CD010010CD010010CD010010C7
:1001C00000BE00BE00BE00BE00BE00BEEFF3058054
:1001D000103800BEF2EB8871D8370110F8370110E3
:1001E0003402001090A31AE700201F49086006C8D7
:1001F00081F3088810471D48006800282FD10DA4FE
:100200000ECC002902D000F012F8F9E71849194A7B
:10021000002000E001C19142FCD1174988471749ED
:1002200088471749884700BEFDE701C901C29A42C5
:10023000FBD37047F8370110C0000020881500205C
:10024000C04C01100000042000000420C04C01102C
:10025000001004200010042000000000704709482E
:100260000AF0ECFC0047000008ED00E0000000D0C0
:10027000A81500206C320020C5990010510800100C
:10028000819900105756000006005250ABB36053DE
:10029000102E011006005250861C0302202E011061
:1002A000060052505422A29D342E011005005250D7
:1002B000DE65F468C04C0110F8B5C04610B5064CB8
:1002C0002378002B07D1054B002B02D0044800E017
:1002D00000BF0123237010BD28180020000000007B
:1002E000780B0110044B10B5002B03D003490448D0
:1002F00000E000BF10BDC046000000002C18002028
:10030000780B011010B5040007F0E2FB0022012178
:10031000200007F0C3FB0123A340D0221206536242
:10032000536110BD10B5040007F0D2FB002201217B
:10033000200007F0B3FB0123A340D02212069362F2
:1003400010BD70B500290AD001248440D0252D06A7
:10035000AC620022012107F0A1FB6C6170BD012499
:100360008440D0252D066C620022002107F096FB08
:10037000AC61F3E770B500280FD0D02424068025A7
:100380006D046561642008F0EBFC80239B046361CD
:10039000642008F0E5FCA56170BDD024240680250A
:1003A0006D046561642008F0DBFC80239B04A3617D
:1003B000642008F0D5FCA561EEE710B5002807D051
:1003C0000120FFF7D7FF01211A20FFF7BAFF10BD68
:1003D00000211A20FFF7B5FFF9E70000F0B5D64677
:1003E0004F464646C0B50E20FFF78CFF0F20FFF7A3
:1003F00089FF1020FFF786FF1120FFF783FF0D20F4
:10040000FFF790FF0C20FFF78DFF0B20FFF78AFF0F
:100410000A20FFF787FF032007F05AFB082007F0A8
:1004200057FBD024240608236362F8336362042157
:10043000032007F01BFB0421082007F017FB384BB3
:10044000994601251D60374B04261E60364AFF2160
:100450008C465162116635480268120C1204344908
:100460008A460A601A689700BA189700314ABA1883
:100470001168FF273F044F403F0C3F048021490192
:1004800088460A4317604A4612689700BF18BA00A8
:10049000254989464A4417682900B9430F00414657
:1004A0000A4317601B689A00D21893004B441A68DD
:1004B000290091430A0041460B431A601E4B1B68FA
:1004C000624653401B041B0C1C4A136003681B0C40
:1004D0001B04524613609620002108F015FC1849B1
:1004E00018480DF093FC0121062007F0BFFA012106
:1004F000072007F0BBFA0121042007F0B7FA00201B
:1005000007F0E6FA65626561022007F0E1FA6662CB
:10051000666100F0ABFBE0BCBA46B146A846F0BD50
:10052000282E00205827002000000540200005400C
:10053000201005400C0005405C0005405C100540A3
:10054000C0C62D0000C00340F8B5DE4657464E46F3
:100550004546E0B50400D02636068023DB019946E7
:10056000B3610520002108F0CFFB73685B0B012508
:100570002B405A42534101273B401B012278102156
:1005800088468A431343237073681B0B2B405A42DF
:1005900053413B405B01227810318A43134323705F
:1005A0007368DB0A2B405A4253413B409B0122783F
:1005B00020318A431343237073689B0A2B405A42AD
:1005C0005341DB0122787F200240134323704B46C6
:1005D000736180231B029B46B3610520002108F054
:1005E00093FB73685B0B2B405A4253413B4022788C
:1005F000AA431343237073681B0B2B405A42534189
:100600003B409B00227804218A4313432370736884
:10061000DB0A2B405A4253413B405B0022780220C8
:10062000824682431343237073689B0A2B405A42CD
:1006300053413B40DB00227806308146824313431E
:1006400023705B46736180235B029B46B361052088
:10065000002108F059FB73685B0B2B405A42534151
:100660003B406278AA431343637073681B0B2B40B3
:100670005A4253413B405B006278504682431343E9
:1006800063707368DB0A2B405A4253413B409B0026
:10069000627804218A431343637073689B0A2B407A
:1006A0005A4253413B40DB00627849468A43134338
:1006B00063705B46736180239B029A46B361052099
:1006C000002108F021FB73685B0B2B405A42534119
:1006D0003B409B01627840218A43134363707368F7
:1006E0001B0B2B405A4253413B401B016278414651
:1006F0008A43134363707368DB0A2B405A425341A9
:10070000DB0162787F2002401343637053467361BC
:1007100073685B091D406B425D413D40ED00A77869
:100720004B469F433D43A5706378DB06DB0F1B01FF
:10073000EAB28A431343A370F0BCBB46B246A94653
:10074000A046F8BDF0B5D6464F464646C0B584B083
:10075000040003AF3A4B1A883A80022399460023DB
:10076000BB7002AE3280B37001AD2A80AB706946B7
:100770000A808B70D0231B0698464A469A61314BFB
:100780009A4603233A00D021504610F055F94346CB
:100790004A465A619A6103233200F021504610F014
:1007A0004BF943464A465A6180239B00994643468B
:1007B0004A469A6103236A46F021504610F03CF9FC
:1007C00043464A465A619A6103232A00D021504683
:1007D00010F032F943464A465A613B785B027A7818
:1007E0005200E02109010B401343BA78D2091343A8
:1007F00023603278520273785B000A401A43B37860
:10080000DB091A4362602A7852026B785B000A4067
:100810001A43AB78DB091A43A2606B461B785B0274
:100820006A46527852000B4013436A469278D209C6
:100830001343E36004B0E0BCBA46B146A846F0BD3D
:10084000900B011000C0034010B500F073F810BD0C
:1008500010B584B00CF0C4FB642008F081FA314874
:100860000CF082FBFFF7BAFD1A2007F031F90020E7
:10087000FFF7A3FD182007F02BF9D02424068023CE
:100880005B046362A361192007F022F980239B04B3
:100890006362A361052007F01BF92023A3620022F5
:1008A0000121052007F0FAF801AC0B2200212000FD
:1008B0000CF034FA2000FFF747FE1B4B9B886A467A
:1008C0001380627814231340102B07D0142B0CD004
:1008D000684600F0EFFB002004B010BD13480AF09A
:1008E000ADF90300002108009847123B6A461370D7
:1008F0000120FFF762FD0120FFF73CFD0C4808F0E6
:100900002FFA02E0962008F02BFA01AC2000FFF746
:100910001BFE6378DB07F5D500220021002008F0DC
:10092000F3FFEFE7780B0110900B01105542000028
:10093000AC0D0000264B1860264B1B6898422AD24B
:10094000C31A013BFA225201934228D20023002B02
:1009500020D0214B1B68214A1268934225DA1433B8
:100960001D4A13601C4B1B68002B2CD1FF331C4A03
:10097000126853401B041B0C1A4A1360164B1B6869
:10098000002B22DB1B04184A126853401B0C1B046B
:10099000164A13607047984205D9C31AD2E70D4B27
:1009A00018600123D3E70023D1E70A3B0A4A13600A
:1009B0000F4A1268934201DC074B1A60064B1A6813
:1009C000064B1A60CEE70023D1E70023DAE7C046E2
:1009D000003200206C2C0020702000206C200020B1
:1009E0005C0005405C1005402000054020100540DB
:1009F0007820002070B5051CFE2189050BF020FE33
:100A0000002801D0FE25AD050E4B18780BF022FE14
:100A1000291C0BF0C6FD0BF071FE84B20021281CCE
:100A20000BF00EFE002803D0074B18682418A4B260
:100A3000064B1C60064B1B689C4201DD044B1C608E
:100A400070BDC046081200207420002078200020CD
:100A50006C20002010B5031C4B2800D94B23DBB2BF
:100A60000A1C322900D93222002910D100230A4A57
:100A700013600A4A1370FE208005FFF7BBFFAF200A
:100A8000400008F06DF90020FFF7B4FF10BD0249E7
:100A90000B60024B1A70EEE7742000200812002051
:100AA0000902084300B2704770B582B0D024240612
:100AB0000125A5616B46187159710B4E022201A9DF
:100AC000300010F009F86561022008F049F903359B
:100AD000A561022201A930000FF0FEFF656102202E
:100AE00008F03EF902B070BD00C00340F0B5DE462C
:100AF00057464E464546E0B585B006000D0001ACB0
:100B0000002301930822002102A80CF007F9032317
:100B10006B449B46A2235A461370D0231B0699466A
:100B2000012398464B4642469A614F4B9A46594696
:100B300018000FF0D1FF0C232200002150460FF0C7
:100B40007BFF4B4642465A6161782078FFF7A8FF49
:100B500080B2404283B2FF273840B0711B0AF37164
:100B6000E178A078FFF79CFF83B2384030721B0A0F
:100B7000737261792079FFF793FF83B23840B072C6
:100B80001B0AF372E179A079FFF78AFF80B2404235
:100B900083B2384030701B0A7370617A207AFFF795
:100BA0007FFF83B23840B0701B0AF370E17AA07AFD
:100BB000FFF776FF83B2384030711B0A73714A46E3
:100BC000042393610122594650460FF085FF0C2300
:100BD0002200002150460FF02FFF4A4604235361A4
:100BE00061782078FFF75CFF83B23840A8711B0A58
:100BF000EB71E178A078FFF753FF80B2404283B2F7
:100C0000384028721B0A6B7261792079FFF748FF20
:100C100083B23840A8721B0AEB72E179A079FFF722
:100C20003FFF83B2384028701B0A6B70617A207ACC
:100C3000FFF736FF80B2404283B23840A8701B0AEB
:100C4000EB70E17AA07AFFF72BFF83B2384028716E
:100C50001B0A6B71434633732B7305B0F0BCBB4664
:100C6000B246A946A046F0BD00C0034010B5AE2173
:100C70001020FFF719FF5C211120FFF715FF042159
:100C80001220FFF711FF04211320FFF70DFF0021B1
:100C90001520FFF709FFE0211720FFF705FF10BD22
:100CA000F0B5C64600B5040013282DD014282FD067
:100CB000122803D0002080BCB846F0BD13271423AF
:100CC0009846200006F004FF01263300A340D025FB
:100CD0002D06AB6200220121200006F0DFFE404617
:100CE00006F0F6FE3300424693406B62AB6138007B
:100CF00006F0EEFE3300BB406B62AB616B68E34015
:100D00001E4209D00120D6E7122714239846D8E7BF
:100D1000122713239846D4E70020CCE710B5132000
:100D2000FFF7BEFF10BD10B51220FFF7B9FF10BDD1
:100D300010B51420FFF7B4FF10BD000010B58CB043
:100D400001211A20FFF7FDFA9620800008F008F82C
:100D500004AC002304931C22002105A80BF0DEFF45
:100D6000DD23237011336370443BA3704833E37079
:100D7000F13B237108F0C4F802000B1E16DB144887
:100D8000002112184B41002B16DB002B18DB0292BE
:100D9000039300230093203304AA76210D480DF01D
:100DA00033FA002812DB01200CB010BD0A4B0B4AAD
:100DB0003F210B4808F0E8FD01225242094BE4E7CD
:100DC000054B064A3F21064808F0DEFD0020EBE710
:100DD000F049020028150020980B01101C0C01108E
:100DE000B40B0110FFFFFF7F10B500F059FF10BDDD
:100DF000F0B585B0002301930822002102A80BF072
:100E00008DFF6B46D91CA2230B70D024240601252C
:100E1000A561144E012230000FF05EFE0C2301AAE2
:100E2000002130000FF008FE65610C2818D0002763
:100E3000D02424060425A5610A4E01226B46D91C44
:100E400030000FF049FE0C2301AA002130000FF002
:100E5000F3FD65610C2800D00027380005B0F0BD17
:100E60000127E5E700C0034010B584B0294B1A887C
:100E70006B469A81002369468B7302A90A808B70A6
:100E800001A90A808B7069460A808B700222D023E8
:100E90001B069A61032303AAD0211F480FF0CCFD43
:100EA000032835D00024D0231B0602225A619A6100
:100EB000032302AAF02118480FF0BEFD032800D03A
:100EC0000024D0231B0602225A61FF32FF329A61AE
:100ED00003236A46F02110480FF0AEFD032800D02E
:100EE0000024D0231B06802292005A619A610323BA
:100EF00001AAD02108480FF09FFD032800D000244C
:100F0000D0231B06802292005A61200004B010BD3D
:100F10000124C8E7180C011000C0034010B5FF20E1
:100F2000000400F05FFD00F03DFDFA24A400200065
:100F300007F016FFFF20000600F054FD00F032FD20
:100F4000200007F00DFFFF20000200F04BFD00F035
:100F500029FD200007F004FF064800F043FD00F0E3
:100F600021FD200007F0FCFE00F0B8FD00F014FDAC
:100F7000012010BD00A1A1A170B5FFF775FF0125EB
:100F800028400401FFF730FF2840C0010443FFF769
:100F9000D5FE284080010443FFF7CAFE28408000A8
:100FA0000443FFF7BBFE28400443FFF7BCFE284084
:100FB00040000443FFF7B2FF2840C0000443FFF79E
:100FC00017FF28404001204370BD000010B512E01B
:100FD0000C4B9A6A0C4B1A600C480FF035FD00F070
:100FE0002DFA094C206804F04DF9206802F08CFAC3
:100FF0002068FFF729FC064904480FF055FD00283A
:10100000E6D1ECE700400540541D002058150020B3
:101010007021002070B51E491E480FF045FD0028C4
:101020001DD11D4D2800FFF78FFA1C4C20682900A8
:1010300004F09CF902F096FD206800F00DFE05F02A
:1010400085FE002813D1154B1868154A154900F084
:10105000C9FA154B1B785BB2012B14D070BD134B32
:101060009A6A0E4B1A600B480FF0EEFCD9E70B4D55
:1010700028680F4C210003F095F928680022210010
:1010800005F090FEDFE7054B186800F0D5FEE5E7B8
:101090006C210020581500208C180020541D0020C1
:1010A0007818002098180020091200200040054000
:1010B0005818002070B5041E00D1BAE0FFF78EF971
:1010C0005C495D480DF068F80321162006F0CEFC5F
:1010D0000321172006F0CAFC00F024FD5748FFF753
:1010E00033FA00F021FA00283ED100F0E7F8C820DA
:1010F00007F036FE524800F00DFD504B514A524960
:10110000524803F0EDFF4D4B9B78DB0636D4504B35
:101110002A22FF32995C2C22FF32985CFFF79AFC5E
:1011200001F07CFC012565576B1C2DD00023E35694
:101130005A1C01D0474A1370404B1B785A0641D4C1
:10114000DA062DD45AB2002A25DB5A072CD40A22FB
:101150001A40022A32D01B0732D4042D18DC022D8B
:1011600023DA012D2FD01CE0354800F0D3FC334B9F
:10117000344A3549354803F0B3FFC4E7062200215D
:1011800035480BF0CBFDC2E7314B02255D57CDE76B
:10119000052D01D005E005252E4B01221A7012E025
:1011A000002500F09BFC0EE004252A4B00221A705B
:1011B0000A2000F0E7FB00F091FC04E00325F4E7CF
:1011C0000225F2E701250023E356013318D0214B15
:1011D00000215956280000F015FA184B9B789B0700
:1011E00022D41E4A1549280002F078FB00F0D4FBF7
:1011F0000CF002F91A480CF0EDF8FFF70BFFFCE7D2
:1012000000F0F4FD002808D14B3000F0BBFB00F0EB
:1012100065FC104B02221A70D9E7642000F098FD9B
:101220000C4B01221A70D2E7094B9D7000F054F963
:10123000D7E770BD400D0300281500208C18002052
:101240005017002058180020781800206818002037
:10125000A816002009120020D4170020981800209A
:10126000CD0F001010B512480BF0AEFE002407E0C1
:10127000104B5B18D97810480BF0A6FE0134E4B28D
:10128000052C0DD80CF08CFB2100C0B2094A1219B4
:10129000D070002CECD1130001229043D870E7E706
:1012A000044B9B221A720A200BF040FE10BDC04670
:1012B000340C0110A8160020440C0110F0B5E1B068
:1012C000BC2464002200002102A80BF027FD4D4B36
:1012D00002AA1380059B0193DB0FDB07802212011A
:1012E00013430593069B0193DB0FDB071343069320
:1012F000079B0193DB0FDB0713430793089B0193C5
:10130000DB0FDB071A4308923F4F0A973F4E0B96BD
:101310003F4D0C953F480D903F490E913F4A0F922B
:101320003F4B1093129713961495159016911792A0
:1013300018933C4B19931A931B931C931D931E9364
:101340001F9320932193802202A98B5004328B504B
:1013500004328B5004328B5004328B5004328B5049
:1013600004328B50FF200004A823C85004332E4AB7
:10137000CA502E4A0433CA50FF210906043302AD75
:10138000E950FF231B02B82502AE73510435284EE5
:1013900002AF7E510435274E7E5104357851C82066
:1013A0003950CC217B5004317A50D4223900BB50C3
:1013B00032232A22FF32BB540132BB541E4D22007D
:1013C00028000BF0B1FC002002F04EFA012002F0E0
:1013D0004BFA022002F048FA032002F045FA0420FA
:1013E00002F042FA28009C30062200210BF096FC05
:1013F0002800A230062200210BF090FCFFF732FFFC
:1014000061B0F0BD01A0FFFF000034420000B44213
:10141000000007430000344300006143000087439D
:1014200000809D43000016440000FF4D0000FFE6D1
:1014300000F115FF00FF6100A816002070B51D4CDB
:10144000A5441D4B1B78002B03D180235B019D44D9
:1014500070BD0BF0E9FFEFF3108672B60023009326
:10146000164A002101A80BF059FCBC225200144975
:1014700068460BF059FC80256D01124C29002000B4
:101480000FF01AFB2A00694620000FF0F5FA86F3E8
:1014900010880BF0D3FF0C4B1B78002B03D1064BAD
:1014A00000221A70D1E705F0F9FC074B00221A70F0
:1014B000F5E7C04600F0FFFF56320020FC0F0000A9
:1014C000A816002000D012005E320020014B01223D
:1014D0001A7070475E320020014B01221A7070476B
:1014E0005632002010B5031C4B2800D94B23D8B22C
:1014F00003492C22FF328B540121FFF7ABFA10BDB8
:10150000A816002010B5031C322800D93223D9B206
:10151000044A2A20FF3013542C23FF33D05CFFF7FA
:1015200099FA10BDA816002010B5194CBC22520023
:10153000184920000BF0F8FB2288174B9A4209D07B
:1015400016480BF011FDFFF7B9FE0020FFF7C4FFAE
:1015500000201CE00E4A95235B00D35C1A1C312B43
:1015600000D832220A4C95235B00E2542C23FF332F
:10157000E05CFFF7B7FF2A23FF33E05CFFF7C2FF11
:10158000E37801229343E3709B232372012010BD73
:10159000A816002000D0121001A000004C0C011071
:1015A00030B50F4C40004508E068C00FC007284325
:1015B000E060490048082169C90FC907014321615A
:1015C000520051086269D20FD2070A4362615B0080
:1015D0005A08A369DB0FDB071343A36130BDC04684
:1015E000A816002010B5034B1B68002B00D09847AD
:1015F00010BDC046401B0020014B0020185670470C
:101600004732002010B588B00400244B187002291E
:1016100010D00B22002105A80BF080FB1022002126
:1016200001A80BF07BFBE3B2052B0BD8A4001C4BED
:101630001B599F461B4B1C4A1A6006F057F800289E
:10164000E7D005E0174B194A1A60002000F04AFC69
:1016500008B010BD134B154A1A60012000F042FC7F
:10166000F6E7104B114A1A60052000F03BFCEFE74B
:101670000C4B0F4A1A6001AA05A90020FFF7B2FF20
:10168000E6E7084B0B4A1A6001AA05A90020FFF7FC
:10169000A9FFDDE7034B084A1A60D9E7473200206B
:1016A0009C0C0110401B0020A1780010651F001049
:1016B000A55C0010D1640010516A0010F8B5CE4648
:1016C000474680B50400234B1D78002D05D100232B
:1016D0000360C0BCB946B046F8BD642DF9D0877828
:1016E000E678B81963789846C0180AF0B3FF1A492B
:1016F0000AF041FF814628000AF0A7FF17490AF0C7
:101700003AFF051C011C48460AF08AFF0028E0D178
:101710004946281C0AF02FFF051C38000AF095FFE7
:10172000291C0AF03EFF0AF0E9FFA07030000AF021
:101730008CFF291C0AF035FF0AF0E0FFE0704046FC
:101740000AF083FF291C0AF02CFF0AF0D7FF607013
:10175000BFE7C0462412002000007F430000C842BB
:10176000F0B5D6464F464646C0B504000368002B88
:1017700035D083789846C778D819667880190AF0EA
:1017800069FF051C40460AF060FF8046291C0AF0EC
:10179000F2FE824638000AF058FF071C291C0AF0A6
:1017A000EAFE814630000AF050FF061C291C0AF0B0
:1017B000E2FE051C514640460AF0F3FE0AF09EFF89
:1017C000A0704946381C0AF0ECFE0AF097FFE07062
:1017D000291C301C0AF0E5FE0AF090FF6070E0BCA6
:1017E000BA46B146A846F0BD00220AE09300064979
:1017F0005958064B5B68DB03FBD4044B196101327B
:10180000D2B2132AF2D970474C1F0020000020509A
:10181000F8B5DE4657464E464546E0B506000D0093
:10182000141C80780AF011FF8046F0780AF00DFF52
:10183000071C70780AF009FF061CA8780AF005FF5B
:101840008346E8780AF001FF824668780AF0FDFED8
:101850008146414658460AF084FE211C0AF0A1FE4A
:1018600041460AF083FE8046391C50460AF079FE54
:10187000211C0AF096FE391C0AF078FE051C311C6A
:1018800048460AF06EFE211C0AF08BFE311C0AF05D
:101890006DFE0AF033FFC4B2240240460AF02EFF68
:1018A000C3B21B041C43281C0AF028FF0006204377
:1018B000F0BCBB46B246A946A046F8BDF8B51E4BE3
:1018C0001B78002B17D050221C491D480BF02CFA16
:1018D00000231C4A1370184A13700022194B1E78FB
:1018E000152E1ED830000AF0B0FE17490AF059FE36
:1018F000051C00240DE00122F0E7A7001349C919D7
:101900000F48C0192A1CFFF783FF0C4BD851013434
:10191000E4B2132CF1D901360A4B1E70FFF764FFB5
:10192000F8BD002AFCD15032084904480BF0FCF9FC
:10193000FFF75AFFF4E7C046523200204C1F002048
:101940009C1F002025120020310C433DEC1F00207D
:10195000F0B5C64600B506000F00150098460024F5
:101960000AE0335D9B004246EA50305D8000281853
:10197000FFF7F6FE0134E4B2BC42F2D380BCB846B5
:10198000F0BD0000031C642800D96423014A1370D1
:101990007047C04624120020014B01221A70704784
:1019A0005232002010B550220B490C480BF0BCF904
:1019B000002406E0A3000948C018FFF7D1FE013457
:1019C000E4B2132CF6D9FFF70FFF50220349044865
:1019D0000BF0AAF910BDC046EC1F00204C1F0020E0
:1019E0009C1F002030B583B0050000240CE0019559
:1019F00001A8FFF763FE0648A300019A1A50C01819
:101A0000FFF7AEFE0134E4B2132CF0D903B030BDC1
:101A1000EC1F002010B50B000A2808D88000224ACD
:101A200012589746214A01212148FFF791FF10BD26
:101A30001E4A04211F48FFF78BFFF8E71B4A0121CC
:101A40001D48FFF785FFF2E7184A01211B48FFF701
:101A50007FFFECE7154A01211948FFF779FFE6E718
:101A6000124A01211748FFF773FFE0E70F4A0121EF
:101A70001548FFF76DFFDAE70C4A01211348FFF71D
:101A800067FFD4E7094A01211148FFF761FFCEE75C
:101A9000064A01210F48FFF75BFFC8E7034A01210F
:101AA0000D48FFF755FFC2E7B40C0110EC1F0020F2
:101AB000000D0110F40C0110EC0C0110F80C0110D9
:101AC000E80C0110F00C0110FC0C0110080D0110C5
:101AD000040D0110E00C0110E40C011070B50B4B6B
:101AE00019682C220A480BF01FF900240BE0A30010
:101AF000074DED182800FFF7E1FD29682000FFF7EA
:101B000089FF0134E4B20A2CF1D970BD3C200020D9
:101B10004020002010B5024B1860FFF7DFFF10BD1A
:101B20003C20002070B58CB0434D444928000CF097
:101B300007F804000621172005F098FF0123009301
:101B40001722002128000CF017F81022002108A805
:101B50000BF0E4F880235B020893F8235B020993FF
:101B60008023DB020A93C0231B030A93102208A9D7
:101B700004A80BF0D9F8E21C059B0393304B0399A2
:101B80000B40E1010B43120313430593079A0392A1
:101B9000D200D208802189050A430792294A1340BE
:101BA0000593102204A908A80BF0BEF80B9B039321
:101BB000254A1A40B823DB0113430B930A9B039376
:101BC000224A1A40224B13430A939B009B0880220F
:101BD000D20513430A93052007F0B2FD1D4909F011
:101BE00081F80AF032FD061C0AF088FD85B2002D4E
:101BF0001FD028000AF029FD011C301C0AF0B1FC9E
:101C00008721C9050AF0CDFC0AF078FDC0B20002B8
:101C10002D0405430895084D08AB2200002128003B
:101C20000BF0FCFF2B680122934313432B600CB095
:101C300070BD0020EBE7C046000020500C0D0110E5
:101C40007F00FEFFFFFFFF9FFF83FFFFFFFFF5C148
:101C5000000002300050C30010B50E4B18600E4B50
:101C60001B68984208D2C31A013B0C4A934207D81A
:101C70000023002B0AD110BD984205D9C31AF4E7FE
:101C8000054B18600123F4E70023F2E7FFF716FE87
:101C9000F1E7C04604320020702C002019410000FA
:101CA00030B585B003AA0D4B1B78137002AD2B70B5
:101CB0000B4C012300936A2120000CF099FA0023B9
:101CC000009301332A006A2120000CF0BCFA00289E
:101CD00002DD012005B030BD0020FBE778110110C6
:101CE0002815002000B585B00020FEF766FB04E053
:101CF0001248FFF777FEFFF755FE9620400007F0E9
:101D00002FF803AA0E4B13800023009302336A219D
:101D10000C480CF06DFA831CEAD0431C07D0022853
:101D2000EBD10948FFF75EFEFFF73CFEE5E7074809
:101D3000FFF758FEFFF736FEDFE7C04600A1A1A17E
:101D400009410000281500200000FFE600FF6100A7
:101D500000B587B0232822D8C0B20538C0B27F238F
:101D6000184005AB04221A70587007F0C9F8020039
:101D70000B1E21DBFA200001002112184B41002B21
:101D800020DB002B22DB029203930023009302331B
:101D900005AA6A2110480CF037FA07B000BDAF233E
:101DA0005B00984200D9180028380A2108F072FF19
:101DB000C0B21F30C0B2D2E7084B094A3F210948E0
:101DC00007F0E2FD01225242074BDAE7034B044AD7
:101DD0003F21044807F0D8FD28150020980B01107A
:101DE0001C0D0110B40B0110FFFFFF7F30B585B053
:101DF00003AA0F4B1B78137002AD2B700D4C0123FF
:101E000000936A2120000CF0F3F9002300930133C2
:101E10002A006A2120000CF016FA0230012804D9A9
:101E20002878C007C00F05B030BD0120FBE7C046D1
:101E3000781101102815002010B5114B1860114BB6
:101E40001B68984209D2C31A013BFA22120293423C
:101E500007D20023002B0AD110BD984205D9C31A1E
:101E6000F3E7084B18600123F4E70023F2E7FFF7DC
:101E7000BDFF054B18700028EED1FFF733FFC046B9
:101E80002C320020982C00204032002010B5FFF7A3
:101E9000B3FB052801D0024810BD0248FCE7C0464C
:101EA000340D0110240E011010B500200DF05AFD64
:101EB00010BD0000037801330370044B1B785BB244
:101EC000052B01D0024870470248FCE7E4120020CD
:101ED000580F011090100110014B18607047C04658
:101EE0009C21002010B50400002001F007FB012C0C
:101EF0000FD0052C17D01148FFF7EEFF104B114AF9
:101F00001A60114B114A1A60114B1C700EF036F911
:101F100010BD6420FFF7E0FF094B0E4A1A600A4B20
:101F20000D4A1A60F0E76420FFF7D6FF044B0B4A16
:101F30001A60054B0A4A1A60E6E7C046B01D000069
:101F400098210020E16B0010A0210020A91E0010A4
:101F5000E4120020ED740010C92400108154001018
:101F60005529001070B506000C0015000120002155
:101F700040420DF06BF81F4B1B785BB2012B01D078
:101F8000052B0AD11C4B1B689847002804D01B4B1B
:101F90001B6829002000984770BD194B1A78194B0F
:101FA0001E60002A15D1184B1B689E4215D2F31AE9
:101FB000013B16498B4214D8002A16D00E4B1B68E1
:101FC00098470028E8D00D4B1B682900200098474F
:101FD000E2E70D4B1E600022EEE79E42ECD9F31AB9
:101FE000E7E7094B1E600122E6E7054B00221A7065
:101FF000D2E7C046E4120020A02100209821002052
:102000005D32002008320020742C00204B1D00009F
:10201000064B1B785BB2012B03D0052B03D1044880
:1020200070470448FCE70448FAE7C046E412002081
:102030007C100110A00F011070180110064B1B78C6
:102040005BB2012B03D0052B03D104487047044831
:10205000FCE70448FAE7C046E412002050100110E3
:10206000700F01103018011000207047014B012241
:102070001A7070475D32002070B504AC2588284C7A
:10208000247864B2012C28D0052C0FD0002908D167
:10209000002A06D11878102804D02A00190001F06F
:1020A00027F870BD981C00F057FDFAE70029F8D119
:1020B000002AF6D11A78112A05D0132AF1D119482D
:1020C0000AF082FFEDE75B78002B04D0FE2080054C
:1020D000FEF790FCE5E70020FAE70029E1D1002AAD
:1020E000DFD11A78002ADCD15A78082AD9D1DA78D7
:1020F000002A02D1197900290DD01B79101C9A42AF
:1021000000D2181CC0B20AF0A0FA07490AF033FA4C
:10211000FEF770FCC5E70020FEF76CFCC1E7C04687
:10212000E4120020E80E011000007F43044B1B78EE
:102130005BB2052B01D0034870470348FCE7C0465B
:10214000E412002084180110E40F011070B5EE288D
:1021500024D0002825D080001E4BC55828000EF042
:1021600033FCC0B21F2800D91F20002327E05A1CCF
:10217000194CA15C0902E25C0A434400174962520F
:1021800002330130112BF2D9154A144B13CB13C271
:1021900011001A680A609B888B8019E000200023D8
:1021A000F0E70C4B196802220E480AF0BDFD012031
:1021B00007E05A1CEC5C5100094BCC52D3B2984258
:1021C000F7D801304000C0239B001843044B18800F
:1021D000034870BD101200202C0F0110441800207D
:1021E000641B0020661B002000B591B040226946A8
:1021F00000200DF045FE00200DF058FE064B1B7828
:102200005BB2002B01D011B000BD04480AF0ACFE57
:10221000684604F067FEF6E7E4120020000F0110A4
:10222000F0B583B005001400012966D113785B0670
:102230009B0F012B58D0022B03D0002B01D0002084
:102240005CE06378022B24D0072B03D0012B19D03C
:10225000002053E0227963791B021343042B03D03F
:10226000052B08D0002049E02433264A210028000D
:102270000DF010F842E08D33234A210028000DF0C4
:1022800009F83BE01523214A210028000DF002F84F
:1022900034E0227963791B021343072B30D11C4BA6
:1022A0001B785BB2052B0FD06B469F1D194E022287
:1022B000310038000AF038FD3B883200083A21002E
:1022C00028000CF0E7FF19E06B469F1D124E02221A
:1022D000310038000AF028FD3B883200083A21001E
:1022E00028000CF0D7FF09E051780C480AF06CFE8A
:1022F000210028000CF0B2FF00E0012003B0F0BD87
:102300000020FBE7BC12002028120020400F011023
:10231000E4120020780D0110500E0110180F01106A
:102320000120704710B58422002102480AF0F6FC13
:1023300010BDC046C025002010B50020FFF7F2FFF9
:1023400010BD0000F0B5C64600B580460D008B7983
:102350005D2B24D10B79DF00FF1ABFB21937BFB252
:10236000974221D80C780C19002605E0104A5370CA
:102370000136F6B22378E4182B79B34210D963788A
:10238000052BF7D1210040460CF08EFB00280DD024
:10239000A378DA09012AE9D0054A9370E8E7002713
:1023A000380080BCB846F0BD0027F9E70027F7E702
:1023B000C025002030B583B004001448407888421E
:1023C00006D0124A92788A420CD0012003B030BD68
:1023D0000F4A002A18D09AB20E490020FFF746FE95
:1023E0000120F3E70C4D9BB200932B00002200214B
:1023F0000020FFF741FE2B00443B997840232A0040
:1024000020000CF0C5FBE1E70120DFE7C02500203C
:102410006D200010C42500200426002010B50CF00B
:10242000A7FA002803D10023002B08D110BD0CF01F
:10243000A7FA002801D10123F6E70023F4E70B4BAC
:10244000997800200CF0E0FB0028EFD1074CA17830
:102450000CF076FB22004432A178402300200CF0DF
:1024600097FBA17800200CF07FFBDFE7C025002060
:1024700070B505000C000CF083FA002806D181210C
:1024800000200CF05DFB002803D170BD0CF080FA39
:10249000F5E7231C402C00D940239CB2094E2200B2
:1024A000290030000AF040FC351F69782300320013
:1024B00000200CF06DFB697800200CF055FBFFF755
:1024C000ADFFE2E7C425002010B5104B5C780CF09E
:1024D0004FFA002806D10023002B13D0002C09D17D
:1024E000002010E00CF04CFA002801D10123F3E7A2
:1024F0000023F1E7210000200CF086FB002803D127
:10250000013000E0002010BD0020FCE7C0250020C5
:1025100010B53C22002102480AF000FC10BDC04664
:10252000001C002010B50020FFF7F2FF10BD0000D6
:10253000F0B583B006000F001500FFF75DF8052821
:102540004CD13B79DC00E41AA4B21234A4B2AC4200
:1025500048D80023002B09D00025002D44D039781D
:1025600079184B78212B11D0002438E01A01D21AA7
:1025700092001F4882185278002A02D00133DBB241
:10258000E8E71A01D11A89004518E6E7A9630B7834
:10259000C9183A796B1C0193AB1C009303233000DC
:1025A0000CF09CFA002821D0BB79012B13D0012319
:1025B0002B71BB782B70AA6BD179137A1B020B435A
:1025C000EB80A97800290AD02A0030320623300097
:1025D0000CF0DEFA03E0FB79EB70E8E70024200062
:1025E00003B0F0BD0024FAE70024F8E70024F6E782
:1025F000001C002070B582B005001D4C0020002892
:102600000AD0002830D162788A4213D0A2788A4258
:102610001AD0012002B070BD0401241AA400144A8B
:102620001419A2788A42ECD062788A42E9D001304B
:10263000C0B2E4E70F4A002A18D0210008319AB24C
:10264000FFF714FD0120E5E7260030369BB200932A
:10265000330000220021FFF70FFDA178062332008E
:1026600028000CF095FAD5E70020D3E70120D1E748
:10267000001C00206D200010F0B5C64600B582B0E9
:102680000600150012781F231340012B00D01FE114
:1026900028790024002C0DD0FF24002C00D01CE150
:1026A0002700602318001040134239D101290BD0B4
:1026B00001200EE123011B1B9B008E4FDB5D984226
:1026C000EBD00134E4B2E5E7EA786B78062B06D06C
:1026D000062B00D005E1222A12D00020F9E0212AA1
:1026E000F6D123011F1BBF00824BDF19BA6B002AF2
:1026F00000D1F4E01378290030000CF0CBFDE8E0C5
:102700002000FFF713FD02003B01DF1BBF00794BE8
:10271000DF19FB88290030000CF0BCFD0120D8E057
:10272000202800D0DFE06B780B2B00D9DDE09B0088
:10273000714AD3589F46012901D00120C9E0EA78A7
:10274000A97823011B1B9B0008336A4FFF18A87947
:10275000EB791B020343181C252B00D9252080B2DE
:10276000002909D0012B16D97B1C9C4639700138F1
:1027700080B20123984602E0BC46002398460090B0
:1027800063462000FFF770FC030043449BB2002B1C
:1027900005D100209DE0BC4600239846EFE73A00B3
:1027A000290030000CF076FD012092E0012903D0D1
:1027B000032915D001208CE0AA79EB791B02134381
:1027C000062B01D9002084E02201121B9200303236
:1027D00048498A18290030000CF05CFD012078E09F
:1027E000EA78A97823011B1B9B0030334148C318AA
:1027F000AE79E87900023043051C062800D9062589
:10280000ADB2002904D0012802D91878884205D039
:1028100000952000FFF730FC01205AE00133013D14
:10282000ADB2F5E7012901D0012052E0E97823019A
:102830001F1BBF002F4BDF197971304B002B04D0C9
:10284000200000E000BF002843D0290030000CF039
:1028500005FD01203DE0012901D0012039E02201E0
:10286000171BBF00234AD21905320123290030006B
:102870000CF010FD01202CE0012901D0012028E0FE
:102880002201171BBF001B4AD21904320123290061
:1028900030000CF0FFFC01201BE0012903D00329CC
:1028A00007D0012015E0290030000CF0D7FC0120F2
:1028B0000FE0A97823011F1BBF000E4BDF193971F0
:1028C0000F4B002B13D0200000E000BF012000E0E0
:1028D000002002B080BCB846F0BD0020F9E700201F
:1028E000F7E70020F5E70020F3E70020F1E70120FB
:1028F000EFE7C046001C0020B40F011000000000EC
:102900000000000010B50301181A8000104B1818C1
:1029100044780CF02DF8002806D10023002B13D0AA
:10292000002C09D1002010E00CF02AF8002801D179
:102930000123F3E70023F1E7210000200CF064F904
:10294000002803D1013000E0002010BD0020FCE78A
:10295000001C002010B50020FFF7D4FF10BD0000C0
:10296000F8B504000F0016001D0003011B1A9B00A0
:102970001F4AD318597800200CF0E2F8002825D01F
:10298000002F24D02B1C242D00D924239DB2184ABB
:102990002301191B890051180F721B1B9B00083360
:1029A000D01801302A0031000AF0BEF90135ADB26D
:1029B0000F4B2001021B920008329A18001B800066
:1029C000181841782B0000200CF0E2F8F8BD2B1C01
:1029D000252D00D925239DB22001001B8000083041
:1029E000034B18182A0031000AF09EF9E0E7C046B0
:1029F000001C002010B513000A0001000020FFF7A2
:102A0000AFFF10BD107003120F20184050700B0163
:102A100018435070091191707047000070B5124D45
:102A2000802424012A0021002000FFF7EBFFEA1C8C
:102A300021002000FFF7E6FFAA1D21002000FFF77C
:102A4000E1FF2A00093221002000FFF7DBFF2A0006
:102A50000C3221002000FFF7D5FF2A000F322100A1
:102A60002000FFF7CFFF70BDDC31002010B5402201
:102A7000002102480AF052F910BDC046DC200020B7
:102A8000014B18707047C04659320020014B187333
:102A90007047C046DC200020014B58737047C04689
:102AA000DC200020074A0021535E10780649087098
:102AB000033399B21BB21380FF2B01DDFF39118064
:102AC0007047C04636320020DC200020024B1A78C6
:102AD000024B5A707047C04638130110DC200020AA
:102AE000054B03229A734821D9731A74013A5A7418
:102AF000473919765A767047DC20002010B5C4B2E9
:102B0000000A002307E019000E31044A5454013131
:102B100050540233DBB20D2BF5D910BDDC20002060
:102B200030B5C47803254557437808211940012260
:102B300093437E322240012B01D9002907D0402A3D
:102B400007D9002D01DB012004E0002002E0012074
:102B500000E0002030BD000070B50400FFF7E0FF8A
:102B6000002838D0657801239D436D08E2787F20E6
:102B7000104040384000C2B2A078803843425841EB
:102B80008018C0B209F061FD154909F0F4FC8021FC
:102B9000C90509F033FF061C280009F056FD10494D
:102BA00009F0E9FCFC21890509F028FF041C011C3F
:102BB000301C09F045FD002800D0341CFE21890599
:102BC000201C09F035FD002801D0FE24A405201C9E
:102BD000FDF710FF70BD0020FDF70CFFFAE7C046BF
:102BE0000000C8420A4B01221A7000225A700332B8
:102BF0009A70084A117AD970D179197191795971FD
:102C0000517999711179D971D2781A727047C04689
:102C1000DC200020A816002010B50400FFF726FFD6
:102C20008120FFF72DFF012C0DD0210009480AF06B
:102C3000CBF9094B1C70094B19784023064A002038
:102C40000CF0B8FE10BD06480AF0BEF9FFF7CAFF47
:102C5000F1E7C046C0100110DC20002059320020EE
:102C6000A810011070B586B06C462A4B04332200C0
:102C700070CB70C270CB70C2022837D0032841D00D
:102C80000023002500E00133052B10D8224AD2187A
:102C90002D32FF3214780522D21A885C8442F2D099
:102CA0001D4AD2182D32FF3210700125EBE7002D9E
:102CB00019D18120FFF7EAFE184801238373164BD0
:102CC0001A7AC273DA7902749A7942745A798274E0
:102CD0001A79C274DB7803751530182269460AF038
:102CE00023F806B070BDFEF7F7FBE2E78120FFF79F
:102CF000CDFE0A48022383730F30102208490AF0E0
:102D000013F8EEE78120FFF7C1FE044B03229A730C
:102D1000E7E7C04638130110A8160020DC20002089
:102D20005C21002070B504000E001500FFF79EFE28
:102D30002120FFF7A5FEFFF7B5FEFFF7C7FE200035
:102D4000FFF7AAFE5D480AF03FF9482C00D98DE054
:102D5000A3005B4AD3589F465A480AF005F98020E1
:102D6000FFF794FE58480AF02FF900249AE0F17A10
:102D700056480AF029F9F07A431E9841C0B200F093
:102D8000BDFB8020FFF782FEECE751480AF0ECF82B
:102D900031000C31F07AFFF765FFE3E7F17A4D4837
:102DA0000AF012F98020FFF771FEF27A4A4B1A708E
:102DB000D8E74A480AF0D8F88220FFF767FEFFF705
:102DC0008FFECFE7F17A46480AF0FEF88020FFF741
:102DD0005DFEC7E7317BF27AF37B42480AF0F4F8F4
:102DE0009020FFF753FEF27BF17A307B00F062FA1D
:102DF000B8E7FEF777FFB5E7317BF27AF37B3A4825
:102E00000AF0E2F88020FFF741FEABE737480AF00E
:102E1000ABF88320FFF73AFE6420FFF76FFEA1E7CF
:102E200033480AF0A1F88020FFF730FE9AE73148D6
:102E30000AF0CAF88020FFF729FEF27A0F23134028
:102E4000072B0BD00F2B0DD0032B03D02A480AF0F1
:102E50008BF887E729480AF087F883E728480AF0C3
:102E600083F87FE727480AF07FF87BE721002648B0
:102E70000AF0AAF8002405E0315D24480AF0A4F81D
:102E80000134A4B2AC42F7D30A200AF04FF88020F4
:102E9000FFF7FCFD66E71E4B195D1C480AF094F82D
:102EA0000134E4B21F2CF6D90A200AF03FF840237F
:102EB000174A212100200CF07DFD70BDDC100110AF
:102EC00000120110E4100110F8110110F4100110AB
:102ED0000411011014110110E81200202C1101102E
:102EE00040110110541101107C110110A4110110A6
:102EF000B4110110C811011000310110D4330110B8
:102F0000D8110110DC110110E0110110F0110110B5
:102F1000DC20002070B50C001500102811D080288E
:102F200013D0012804D001000A480AF04DF807E048
:102F3000881CFFF711FEA07A2A002100FFF7F2FE9D
:102F400070BD881CFFF708FEFAE74878FFF764FEBB
:102F5000F6E7C04624130110094B1B780A2B07D053
:102F60000B2B09D0064B0A221A70054B18787047B4
:102F7000034B0B221A70F8E7014B0C221A70F4E78E
:102F8000E912002070B50500524B1B78002B04D1CC
:102F9000514B1B78302B0BD070BD504B1A88504BC7
:102FA00018785049FFF7B6FF4A4B00221A70F3E732
:102FB000FFF75CFD3020FFF763FDFFF773FDFFF7C0
:102FC00085FD00F0DDF98378474C2373C378637384
:102FD0000378A3734378E3730379237443796374A9
:102FE000037AA374437AE37483792375C379637591
:102FF000837AA375C37AE37500F0C2F983782376E8
:10300000C37863760378A3764378E37603792377EE
:1030100043796377037AA377437AE377827920232E
:10302000E254C2790133E254827A0133E254C27A23
:103030000133E25400F0A4F982782423E254C278E8
:103040000133E25402780133E25442780133E2540E
:1030500002790133E25442790133E254027A0133B6
:10306000E254427A0133E25482790133E254C27964
:103070000133E254827A0133E254C27A0133E254DA
:103080002B78A3706B78E370AB782371EB78637166
:103090002B790F210B40A3716879AB791B02034395
:1030A0001B11E371EB7923722B7A19406172697AF3
:1030B000AB7A1B020B431B11A372FFF74DFFE072AB
:1030C0000A4B19784023220000200CF073FC01F019
:1030D000CFFF61E75A320020E8120020E6120020FC
:1030E0005B3200201C210020DC200020593200200F
:1030F00010B5054B01241C70044B1870044B1A804A
:10310000044809F011FE10BD5A3200205B32002045
:10311000E61200201C21002010B5024B181809F0FF
:1031200003FE10BDDC200020502800D1B0E003D900
:1031300060282FD0FF2010E0402800D9AAE02028E6
:1031400005D34B2924D88B00564AD3589F460028D4
:1031500003D0102800D09FE0002070479520FCE7A6
:103160000020FAE72A39504B59182D31FF310878E1
:10317000F3E704394C4B59182D31FF310878ECE74F
:103180000020EAE70020E8E76820E6E70020E4E71F
:103190000020E2E7A92979D88B00444AD3589F46FA
:1031A000FF20DAE70220D8E70120D6E72320D4E782
:1031B0000020D2E7B920D0E71A20CEE70120CCE7E3
:1031C0000020CAE74020C8E70020C6E74020C4E747
:1031D0000020C2E74020C0E70120BEE70020BCE796
:1031E0000120BAE70020B8E70120B6E70020B4E7E5
:1031F0003B20B2E73420B0E73B20AEE73420ACE719
:103200003B20AAE73420A8E73D39294B585CA4E7C6
:103210003D39274B585CA0E71A209EE71A209CE70F
:103220001A209AE75E2098E7012096E7502094E75D
:10323000FD2092E7002090E700208EE7C6208CE773
:103240000F208AE70F2088E7302086E7612084E797
:10325000AE2082E7902080E7D9207EE7D4207CE76B
:1032600014207AE7542078E7412076E7152074E7A8
:10327000542072E7C72070E779206EE79C206CE746
:1032800033206AE7362068E7632066E7002064E7BA
:10329000002062E7FF2060E7FF205EE722205CE776
:1032A00003205AE754130110A816002084140110BB
:1032B000DC310020F0B58BB006000F00150008A926
:1032C0000F70487000248C70CC700A7105220E209B
:1032D000FFF722FF00941A22002101A809F01EFD29
:1032E00007E03919C9B23000FFF71EFF6B461855C9
:1032F0000134A542F5DC2A0069461320FFF70CFFD4
:103300000BB0F0BDF8B504001B4D2B68581C032111
:1033100007F0C0FC277862781202184E4800401867
:1033200083005B183A43F254120AF3185A70A078DB
:10333000E278120202439A70120ADA7020796279F6
:10334000120202431A71120A5A71A079E27912022A
:1033500002439A71120ADA71207A627A12020243E7
:103360001A72120A5A72A07AE27A120202439A720E
:10337000120ADA722960F8BDB41D00208C1D0020ED
:10338000044B1B685800C0188000C018024B181866
:103390007047C046B41D00208C1D00204118CB0F83
:1033A0005B185B1080225202914204DA044A914277
:1033B00003DB18B270470348FCE70348FAE7C0464E
:1033C000FFFFFEFFFF7F00000080FFFF70B51B487E
:1033D000FEF708FBFEF7E0FA194D0622002128004F
:1033E00009F09CFCA81D0622002109F097FC154B52
:1033F00001221A70144BFA2252011A60134E144C17
:1034000031002000FDF772FB0623E25E9C3D9F2306
:10341000EA540823E25EA023EA540A23E25EA123D1
:10342000EA540623F25EA523EA540823F25EA6239B
:10343000EA540A23F25EA723EA5470BD0000FFFF9E
:10344000441700204A320020881D0020781D0020EB
:10345000581D002010B5FEF741FBFEF79DFAFEF760
:1034600035F8FEF739F8024B00221A7010BDC0463D
:103470004A320020F8B51D4D1D4E29003000FDF7E1
:1034800035FB1C4C9F270623F15EE057FFF786FFB4
:10349000E05501370823F15EE057FFF77FFFE05565
:1034A00001370A23F15EE057FFF778FFE055A526C4
:1034B0000623E95EA057FFF771FFA05501360823E8
:1034C000E95EA057FFF76AFFA05501360A23E95EBF
:1034D000A057FFF763FFA055074A1368013B13602D
:1034E000002B00D0F8BDFFF7B5FFFBE7781D0020EB
:1034F000581D0020A8160020881D0020014B1870C0
:103500007047C0464B320020F8B5434B1B78002B68
:1035100004D1424A1178002903D1F8BDFFF7AAFF70
:10352000FBE73F4A10603F4A126890421DD2821A60
:10353000013AFA24E400A2421BD2002BEDD03A4C0F
:1035400021003A48FDF7D2FA237B002B03D0374BFA
:103550001B7B002B11D1354B1B7B002B57D100233C
:10356000324A1373304A1373D7E79042E5D9821A6F
:10357000DFE72C4B18600B00DFE72C4DE8882C4F61
:103580009F23FB569BB2C01A274EF188A523FB56FA
:103590009BB2C91A09B200B2FFF700FF254CE080C8
:1035A0002889A023FB569BB2C01A3189A623FB565B
:1035B0009BB2C91A09B200B2FFF7F0FE20816889F8
:1035C000A123FB569BB2C01A7189A723FB569BB25D
:1035D000C91A09B200B2FFF7E1FE60810023F15E73
:1035E0000023E85EFFF7DAFE20800223F15E02236B
:1035F000E85EFFF7D3FE60800423F15E0423E85EFB
:10360000FFF7CCFEA0802000FFF77CFEA7E707486D
:10361000FFF778FEA3E7C0464A3200204B32002075
:103620000C320020782C0020781D0020581D00202E
:10363000A8160020681D002010B5C3B2052B03D8C2
:1036400083002D4CE3589F462C4B0B6008331360CE
:103650002B4B5B7A092B1BD0022827D0052834D0AE
:1036600001281DD0012222E0264B0B600833136095
:10367000EEE7254B0B6008331360E9E7234B0B6043
:1036800008331360E4E7224B0B6008331360DFE775
:10369000022807D0052807D00128DDD1012206E045
:1036A000002204E0012202E0012200E00022194B86
:1036B0001A70134BDB7A0B2B09D0022815D0052882
:1036C00017D001280BD0012210E00022EFE70228DA
:1036D00007D0052807D00128EFD1012206E00022FB
:1036E00004E0012202E0012200E000220A4B1A70ED
:1036F00010BD0022FAE7C0462C17011080170020E9
:10370000381F0020A017002090170020B0170020BD
:10371000C01700204C3200205032002030B50F225C
:103720000D780F231D40047894432C4304704C788B
:103730001C40250104781C402C4304708D781D40EA
:10374000447894432C434470CC781C402501447841
:103750001C402C4344700D791D40847894432C43C5
:1037600084704C791C40250184781C402C43847063
:103770008D791D40C47894432C43C470CC791C408F
:103780002501C4781C402C43C4700D7A1D40047977
:1037900094432C4304714C7A1C40250104791C404D
:1037A0002C4304718D7A1D40447994432C43447119
:1037B000CC7A1C40250144791C402C4344710D7B7C
:1037C0001D40847994432C4384714C7B1C4025011B
:1037D00084791C402C4384718D7B1D40C4799443B3
:1037E00022002A43C271CA7B1A401201C1790B40E0
:1037F0001343C37130BD0B781B071B0F03700B788D
:103800001B0943704B781B071B0F83704B781B09F8
:10381000C3708B781B071B0F03718B781B094371D7
:10382000CB781B071B0F8371CB781B09C3710B79F6
:103830001B071B0F03720B791B0943724B791B0784
:103840001B0F83724B791B09C3728B791B071B0FEC
:1038500003738B791B094373CB791B071B0F83738E
:10386000CB791B09C373704770B50400144D154A1A
:103870002900FFF7E1FE2B68134A116852681960AE
:103880005A60032C12D0042C15D0022C09D00D4BF9
:103890001B6800221A800A4B19680C48FFF7ABFF1F
:1038A00070BD084B1B680A4A1A80F4E7054B1B6879
:1038B000084A1A80EFE7034B1B68074A1A80EAE7B9
:1038C000481F00209421002088170110381F002075
:1038D00000E1FFFF00C0FFFF00CAFFFF10B5084B6B
:1038E0001960084B1A60084B1870084C084A2100F0
:1038F000FFF7A2FE21680748FFF77DFF10BDC04615
:10390000A8180020AC18002051320020481F0020C9
:1039100094210020381F0020024A94235B00D054D9
:103920007047C046A816002010B5044B00221A703C
:10393000034B19680348FFF75EFF10BD3D320020BE
:10394000481F0020381F002070B590B00500364C8D
:10395000364E22003100FFF76FFE31683448FFF722
:103960004AFFFFF7E1FF002300933C22002101A85A
:1039700009F0D4F9A6236A461370557033681A7893
:103980001207120F69468A701A781209CA705A789B
:103990001207120F0A715A7812094A719A7812079F
:1039A000120F8A719A781209CA71DA781207120F07
:1039B0000A72DA7812094A721A791207120F8A7299
:1039C0001A791209CA725A791207120F0A735A79B0
:1039D00012094A739A791207120F8A739A79120997
:1039E000CA73DA791207120F0A74DB791B094B7458
:1039F000226813881B0A8B741388CB740D4B942296
:103A000052009A5C0A75952252009B5C4B7500200F
:103A100003F0A8F900200CF079FA40226946002052
:103A20000CF056FA10B070BD8821002084210020CF
:103A300074210020A816002070B50A0000210F296B
:103A400037D803000B41DB0714D40131C9B2F6E7C4
:103A50000133DBB20F2B0FD82A4AD05C2A4A1278E6
:103A60009042F5D1294A14680120984022880243E7
:103A70002280EDE70023EDE7224C234803786354CE
:103A8000224B1D6801228A402B8893432B800278A9
:103A90001F4809F099FA1F4B00221A701E4B186834
:103AA0002100FFF73BFE1D4B00201856FFF74CFF8F
:103AB00070BD002AFCD0002401E00134E4B20F2CD8
:103AC00014D8104B1A5D104B1B789A42F5D1210087
:103AD000134809F079FA0D4B19680122A2400B88AE
:103AE00013430B800B4B00221A70E6E70A4B186851
:103AF0000449FFF713FE094B00201856FFF724FF77
:103B0000D6E7C046742100203C32002088210020E6
:103B1000441701103D320020842100205C32002037
:103B20006017011070B504000D00084E084A3100FE
:103B3000FFF782FD31680748FFF75DFE064B1C70FA
:103B4000064B1D70064B01221A7070BD84210020A7
:103B500088210020742100205C3200203C320020AB
:103B60003D32002070B5E94B1A6800211170517088
:103B70001B6800229A70E64B1B78002B12D0E54B95
:103B80001A6893789B07D90F002B03DA93780220E9
:103B900083439370DF4B1B681A78587800021043F8
:103BA000FFF74AFF01F066FC002800D084E1D74B04
:103BB000196808784B781B0203431BB2D64A126877
:103BC0005278D20609D4D34A12685278D206D20F5C
:103BD000D248007B824012B200E0002213439AB226
:103BE000FF2003400B70120A4A70C84B196808780E
:103BF0004B781B0203431BB2C74A126852789206E5
:103C000009D4C44A126852789206D20FC348407B46
:103C1000824012B200E0002213439AB2FF20034018
:103C20000B70120A4A70B94C2168BA4803689B7835
:103C30009B07DB0F5B008A780225AA4313438B7036
:103C4000216803689B78DB07DA0F8B7801208343B8
:103C500013438B70AD4B196808784B781B020343F4
:103C60001BB2AD4A12681278D20700D53AE1A94AD0
:103C700012681278D207D20FA8480078824012B298
:103C800013439AB2FF2003400B70120A4A709F4BF5
:103C9000196808784B781B0203431BB29E4A1268CE
:103CA0001278920700D51FE19A4A1268127892079B
:103CB000D20F9A484078824012B213439AB2FF2042
:103CC00003400B70120A4A70904B196808784B78C1
:103CD0001B0203431BB2904A12681278520700D5A8
:103CE00004E18C4A126812785207D20F8B48807810
:103CF000824012B213439AB2FF2003400B70120AA3
:103D00004A70824B196808784B781B0203431BB238
:103D1000814A12681278120700D5E9E07D4A1268DC
:103D200012781207D20F7D48C078824012B2134336
:103D30009AB2FF2003400B70120A4A70734B196845
:103D400008784B781B0203431BB2734A126812783F
:103D5000D20600D5CEE06F4A12681278D206D20F92
:103D60006E480079824012B213439AB2FF2003409A
:103D70000B70120A4A70654B196808784B781B0261
:103D800003431BB2644A12681278920600D5B3E06E
:103D9000604A126812789206D20F604840798240D9
:103DA00012B213439AB2FF2003400B70120A4A70FA
:103DB000564B196808784B781B0203431BB2564ACE
:103DC00012681278520600D598E0524A12681278AA
:103DD0005206D20F51488079824012B213439AB2F0
:103DE000FF2003400B70120A4A70484B196808788C
:103DF0004B781B0203431BB2474A12681278D20960
:103E00007ED1444A12681278D2094448C07982406F
:103E100012B213439AB2FF2003400B70120A4A7089
:103E20003A4B196808784B781B0203431BB23A4A95
:103E300012685278D20765D4364A12685278D2078F
:103E4000D20F3648007A824012B213439AB2FF2052
:103E500003400B70120A4A702C4B196808784B7893
:103E60001B0203431BB22C4A1268527852074BD4F0
:103E7000284A126852785207D20F2848807A824026
:103E800012B213439AB2FF2003400B70120A4A7019
:103E9000234B1B78002B52D11E4B1A6853789B077B
:103EA00040D4D378117909021943507900040143B1
:103EB00093791B060B4337E0144B19688A7801206D
:103EC00082438A7019688A78013082438A7019683F
:103ED0004A780E3082434A701A68537820218B4307
:103EE0005370B7E60022CBE60022E6E6002201E7A7
:103EF00000221CE7002237E7002252E700226DE78C
:103F0000002286E70022A0E70022BAE7AC180020D2
:103F10003D320020A818002094210020381F0020E6
:103F20004C320020FF231B016C4A1168CA1CCB7065
:103F3000190A5170190C91701B0ED3701AE0684B5E
:103F400019684B789B07DB0FC8780D792D02054364
:103F50004C792404254388790006284301222C2823
:103F600000DC0022D2B21A4352004B780220834375
:103F700013434B705B4B1B78002B1CD1584B1A68BA
:103F800053781B070AD4D379117A09021943507A5E
:103F900000040143937A1B060B4301E0FF231B013E
:103FA0004E4A1168CA1DCB71190A5170190C9170D3
:103FB0001B0ED3701AE04A4B19684B781B07DB0FB6
:103FC000C8790D7A2D0205434C7A24042543887A5A
:103FD0000006284301222C2800DC0022D2B21A431A
:103FE000D2004B780820834313434B703B4B196836
:103FF00008784B781B0203431BB23B4A1268527885
:10400000920763D4364A126852789207D20F374823
:10401000407A824012B213439AB2FF2003400B70E1
:10402000120A4A702D4B196808784B781B0203431B
:104030001BB22D4A12685278120749D4284A1268D6
:1040400052781207D20F2948C07A824012B2134325
:104050009AB2FF2003400B70120A4A701F4B196876
:1040600008784B781B0203431BB21F4A1268527830
:1040700052062FD41A4A126852785206D20F1B48A1
:10408000807B824012B213439AB2FF2003400B7030
:10409000120A4A70114B196808784B781B020343C7
:1040A0001BB2114A12685278D20915D10C4A126813
:1040B0005278D2090D48C07B824012B213439AB2A3
:1040C000FF2003400B70120A4A7070BD0022A2E765
:1040D0000022BCE70022D6E70022EFE7AC18002060
:1040E000A81800205032002094210020381F002002
:1040F000F0B5DE4657464E464546E0B583B005006E
:104100000C00AC23CB5C002B2FD0B823CB5C9B00E6
:104110005B589846AE23E35C002B2CD0B023E65CC2
:10412000013EF6B2E6547B4BE818C317C01858405E
:1041300080231B019D421CDA01277F4208F08AFA86
:10414000B423E15808F02DFA08F0A6FA4743B82343
:10415000E35C80221201944667449B001F51002EAD
:104160000DD1AE230022E25409E080231B019846C2
:10417000D0E70127E2E7B823E35C9B001D51AD23A4
:10418000E35C002B14D0634BEB18DA179B185340F9
:104190009946AF23E65C0136F6B2E654282E02D8E3
:1041A0005D4B994512DD0023AF22A354023AA3547C
:1041B000A423E358AB4200DCA0E080221201954228
:1041C00072DA934200DB97E000236EE0A823E05808
:1041D0004B461933984263DDFA2861DD08F03AFA5C
:1041E000011C4E4808F0C7F90190B923E75C002391
:1041F0009B461AE001239A4608F02CFA019908F030
:10420000D0F908F049FA53464343180080231B01B4
:104210009C466044BB001851781C292106F03AFDE9
:104220000F005B460133DBB29B465E450ED9BB00F7
:104230001B59384A9818C217801850408022120122
:104240009342D7DA01235B429A46D5E780231B01CC
:104250009D4223DA01277F42484608F0FBF9019B83
:104260009946191C08F09DF908F016FA7843B8230E
:10427000E35C80221201944660449B001851B423F1
:104280004A46E2500023AD22A35401320121A15439
:1042900004360232A654013AA35489E70127DBE72A
:1042A000A8234A46E25083E70023002B0DD00123C8
:1042B000AD22A3540332A354013AA354A7330022DE
:1042C000E2501033E25C0133E254A423E550B825F8
:1042D000605D0130292106F0DDFCC9B2615500297D
:1042E00002D1AC230122E254404603B0F0BCBB46ED
:1042F000B246A946A046F0BD0123D6E780221201AE
:10430000934203DA954203DA0023CEE70023CCE799
:104310000123CAE700F8FFFF3907000000007A43D5
:1043200070B50D0014000D4A1368C31A0C490B60D8
:1043300010600C492868FFF7DBFE20600A496868B6
:10434000FFF7D6FE60600949A868FFF7D1FEA060BC
:10435000E8680749FFF7CCFEE06070BD682C0020DC
:1043600054260020B02C00206C2D0020482E002068
:10437000042F002010B50011084A1378991C084C2E
:1043800060540133DBB213703D2B01D8002010BD07
:10439000130000221A700120F9E7C04649320020BC
:1043A0008C20002010B5444B1860444B1B68984289
:1043B0001ED2C31A013BFA22920093421CD2002360
:1043C000002B26D03E4B1B78002B1BD13D4B1B787E
:1043D000002B66D10B68C93B3B4A934235D93B4B16
:1043E0001960384B01221A70394B00221A7010E004
:1043F000984205D9C31ADEE7304B18600123DFE786
:104400000023DDE7314B1B681868FFF7B3FF002876
:1044100000D110BD2F4BA5221A702D4A12785A7068
:10442000FA20000102F09EFC002805D10023244A56
:104430001370244A1370ECE74022264900200BF049
:1044400047FD00200BF062FDF0E74B68C93B1E4AB8
:10445000934208D904311D4B19600123194A137086
:104460001B4A1370D5E78B68C93B174A934209D999
:104470000831164B1960134B01221A70144B01328C
:104480001A70C6E7CB68C93B0F4A9342C1D90C31B9
:104490000E4B19600B4B01221A700D4B02321A7031
:1044A000B7E70A4B1B681B68C93B074A9342B0D861
:1044B000034B01221A70ACE7103200207C2C002044
:1044C0003F320020463200206D0E0000D030002028
:1044D000573200208C20002070B5041C0D000B7892
:1044E000002B0AD0CE68011C301C08F0A1F800286F
:1044F00004D06868211C08F054F870BD311C201CE1
:1045000008F02FF8A96808F04CF8024908F02EF8D6
:10451000F3E7C0460000B44170B508F022F840004F
:10452000400808F0F3F804000D0002000B00002022
:10453000054906F01EFE02000B00200029000CF0C9
:10454000E3FA06F00BFF70BD0080764070B5061CE4
:104550000C1C151C111C201C08F062F800280FD040
:10456000311C201C08F05CF8002807D0311C281CE6
:1045700008F05EF8002802D0012000E0002070BDA5
:10458000311C201C08F04CF8002807D1311C281CD5
:1045900008F04EF8002803D00120F0E70120EEE7F4
:1045A0000020ECE7F8B5071C0E000024002503E00E
:1045B000002206E00134E4B2072C0DD8062CF7D80F
:1045C000621CA3009200B258F158381CFFF7BEFFDE
:1045D0000028EFD02500EDE72800F8BD10B508F061
:1045E00095F80022104B07F00FF806F0B7FE041CF8
:1045F000002108F00FF800280FD1201C08F086F8E1
:1046000000220A4B06F0C7FD06F06CFEC217520FDF
:10461000801807231840801A10BD0549201C07F098
:10462000A5FF041CE9E7C0460080764000804640B4
:104630000000B44310B507F099FF041C0B4907F0C4
:10464000FFFF002806D00949201C07F08AFF041C40
:10465000201C10BD0021201C07F0DCFF0028F7D033
:104660000249201C07F082FF041CF1E70000B4435C
:1046700070B5CD1A801A07F0EDFF041C280007F072
:10468000E9FF211C08F05EF8114907F08AFF08F0E5
:104690003DF8104A104B06F07EFD06F05FFE041C4C
:1046A000002107F0B7FF00280BD10C49201C07F0B0
:1046B000BFFF00280AD00949201C07F052FF041C44
:1046C00004E00649201C07F051FF041C201C70BDAB
:1046D00000003443182D4454FB2109400000B4432A
:1046E000F8B50C0017001E0007F0B4FF051C3800D9
:1046F00007F0B0FF011C281C07F033FF051C200049
:1047000007F0A8FF041C300007F0A4FF011C201CC8
:1047100007F027FF041C291C281C07F042FF051C7A
:10472000211C201C07F03DFF011C281C07F01EFF68
:1047300007F0F6FFF8BD0000F8B50F00160007F00F
:10474000E5FF0B4A0B4B06F044FD06F007FE07F0B1
:10475000DDFF04000D0006F017FE06F0FFFD3860D7
:104760002000290006F026FE06F0F8FD3060F8BDB6
:10477000399D52A246DF913FF0B5DE4657464E4680
:104780004546E0B583B080468B4615001F001100FA
:10479000FFF708FF0400062800DD86E0461CA300A2
:1047A0009946EB589A46B600A959181CFFF7B4FE73
:1047B000051C51464046FFF7AFFE8046291C07F016
:1047C000DAFE051C4B46FB589A46011CFE2080056C
:1047D00007F0C7FE011C504607F0E3FE8246B859B9
:1047E000291C07F0DEFE011C504607F0BFFE051C29
:1047F0000C9B4A469858414607F0D3FE031C220101
:104800000D9989180D98825C002A03D0181CFFF7B7
:1048100063FE031CA400284AA058191CFFF70AFFD6
:104820000023019300936A4601A9FFF785FF5946CB
:10483000281C07F0B6FE051C019907F0B2FE041C07
:104840000190291C009807F0ACFE00908A21C90550
:10485000201C07F08BFE08F0B1F807F01DFF0028C0
:1048600025DB80235B01984200DB144807F0F2FE51
:104870000E9B18608A21C905009807F077FE08F0A2
:104880009DF807F009FF002813DB80235B019842A5
:1048900000DB0A4807F0DEFE0F9B186003B0F0BC97
:1048A000BB46B246A946A046F0BD002677E70020E9
:1048B000DEE70020F0E7C04690170110FF0F000070
:1048C000F8B507000E00002409E0A5007959751914
:1048D0008A20C00507F04FFE28600134E4B2072C9F
:1048E000F3D9F8BDF8B505000E0000240DE0002353
:1048F000A7009B00E958E859FFF70EFE011C064887
:1049000007F039FEF0510134E4B2072C03D8062C2D
:10491000EDD8631CECE7F8BD00003442F0B5C646A4
:1049200000B580460F00002419E02601BE190123BE
:1049300033702868164907F019FE051CF060011C49
:10494000134807F018FE7060291C124807F009FE92
:10495000011C0F4807F00FFEB0600134E4B2072CD1
:1049600012D8A50045440021286807F04BFE002816
:10497000DBD02301FB1800221A70054ADA60FE2200
:1049800092055A609A60E8E780BCB846F0BDC04620
:104990000000B441000034420A4AD3685B005B1057
:1049A00009490B6053695B005B1008490B60136990
:1049B0005B005B1006490B6093695B005B10054A66
:1049C00013607047A8160020CC200020D4200020BF
:1049D000D0200020D820002010B5054B1B68054AC8
:1049E00012680549096805480068FCF7D9FD10BD43
:1049F000D8200020D4200020D0200020CC2000206F
:104A000010B5104C10492000FFF76CFF200020303B
:104A10000E49FFF767FF200040300D49FFF750FFB8
:104A2000200060300B49FFF74BFF20001930FF30AA
:104A30000949FFF773FF20003930FF300749FFF7BE
:104A40006DFF10BDC4160020EC1200202C130020B6
:104A50000C1300204C130020F81D0020B81E00206D
:104A600010B50E4B00221A800D4C20320021200080
:104A700008F054F9200020302022002108F04EF9DF
:104A8000200040382022002108F048F9200020387A
:104A90002022002108F042F910BDC0463432002027
:104AA00004170020F0B5DE4657464E464546E0B5B1
:104AB00083B004005F4B9B465F4B9A465B461B6886
:104AC0005246126841680068FFF7D2FD071C5B4B35
:104AD00099465B4D1B682A68E168A068FFF7C8FD2E
:104AE00080460190574E311C0097381CFFF7A2FDFD
:104AF000071C311C4046FFF79DFD061C381CFFF7C4
:104B00006DFD0700301CFFF769FD06005B461B6862
:104B10005246126861682068FFF7E2FD82464B4604
:104B20001B682A68E168A068FFF7DAFD80460098F4
:104B300007F0ECFD0022444B06F066FD06F00EFC8B
:104B4000041CFE21890507F065FD002805D13F49B9
:104B5000201C07F075FD002822D03A001632920082
:104B60003B4B9B185868514607F054FD002817D05E
:104B70003849504607F064FD002811D0344A3B0004
:104B800016339B00D31851465960BB1D9B00D218A9
:104B9000009B53600122BA402F490B8813430B80BE
:104BA000019807F0B3FD0022274B06F02DFD06F01B
:104BB000D5FB041CFE21890507F02CFD002805D13A
:104BC0002249201C07F03CFD002824D032001E3270
:104BD00092001F4B9B185868414607F01BFD0028A8
:104BE00019D01C49404607F02BFD002813D0184A65
:104BF00033001E339B00D3184146596033000E33F7
:104C00009B00D218019B536008360122B240124922
:104C10000B8813430B80104B1888104B9C46604444
:104C200043425841C0B203B0F0BCBB46B246A946AD
:104C3000A046F0BDD0200020CC200020D8200020AD
:104C4000D42000200000B4410080464000003042E3
:104C5000A81600200000FA42343200200100FFFFB5
:104C6000064B02681A60064B42681A60054B826860
:104C70001A60C268044B1A607047C046CC200020FE
:104C8000D0200020D4200020D8200020F0B5DE461F
:104C900000B584B0040000910192224B9B46224F44
:104CA0001B683A6841680068FFF7E2FC02901F4EFB
:104CB0001F4D33682A68E168A068FFF7D9FC0390AC
:104CC0005B461B683A6861682068FFF709FD071CAE
:104CD00033682A68E168A068FFF702FD041C1549E3
:104CE000381C07F0ADFC002809D11249201C07F040
:104CF000A7FC00280CD104B080BCBB46F0BD0298D4
:104D0000FFF76CFC0023009A1370019B1870F2E708
:104D10000398FFF763FC0123009A1370019B18703E
:104D2000E9E7C046D0200020CC200020D820002079
:104D3000D42000200000FA42F0B5DE4657464E4629
:104D40004546E0B585B0040000910192294B9A4692
:104D5000294D1B682A6841680068FFF789FC814675
:104D6000264E274F33683A68E168A068FFF780FC59
:104D70008046244B9B46191C4846FFF75BFC02907B
:104D800059464046FFF756FC039053461B682A6875
:104D900061682068FFF7A4FC051C33683A68E16885
:104DA000A068FFF79DFC041C1749281C07F048FC6D
:104DB00000280CD11449201C07F042FC00280FD118
:104DC00005B0F0BCBB46B246A946A046F0BD02986D
:104DD000FFF704FC0023009A1370019B1870EFE7A3
:104DE0000398FFF7FBFB0123009A1370019B1870D7
:104DF000E6E7C046D0200020CC200020D8200020AC
:104E0000D42000200000B4410000FA42F0B5DE4694
:104E100057464E464546E0B585B00400334B9A46AA
:104E2000334D1B682A6841680068FFF721FC814602
:104E30000190304E304F33683A68E168A068FFF760
:104E400017FC80462D4B9B46191C4846FFF7F2FB8A
:104E5000029059464046FFF7EDFB039053461B680E
:104E60002A6861682068FFF73BFC814633683A682E
:104E7000E168A068FFF734FC041C2149484607F0AC
:104E8000DFFB00280DD11E49201C07F0D9FB0028AC
:104E900019D1002005B0F0BCBB46B246A946A046D9
:104EA000F0BD0298FFF79AFB164A831D9B00D318AA
:104EB000019959601630800010184B464360FFF787
:104EC0009FFD0120E6E70398FFF788FB0D4A0300EA
:104ED0000E339B00D318414659601E3080001018D5
:104EE0004460FFF78DFD0120D4E7C046D0200020AC
:104EF000CC200020D8200020D42000200000B44185
:104F00000000FA42A8160020F0B5DE4657464E468D
:104F10004546E0B589B004000D00484B9B46484B20
:104F200099465B461B684A46126841680068FFF76D
:104F30009FFB8046434E444F33683A68E168A0685F
:104F4000FFF796FB82465B461B684A46126861681B
:104F50002068FFF7C5FB814633683A68E168A068BE
:104F6000FFF7BEFB071C00230793069305930493EA
:104F7000364C06AB039307AB0293354B0193354B8D
:104F80000093354B220049464046FFF7F5FB2200CF
:104F9000203204AB039305AB0293304B0193304BAB
:104FA0000093304B391C5046FFF7E6FB1C3C0F23A7
:104FB000E356002B25DB079807F06EFB28602A4B91
:104FC000DB7C5BB2002B23DB069807F065FB686097
:104FD000254BDB7D5BB2002B21DB059807F05CFBEA
:104FE000A860214BDB7E5BB2002B1FDB049807F02F
:104FF00053FBE86009B0F0BCBB46B246A946A046E8
:10500000F0BD0799194807F0ACFA07F045FBD5E762
:105010000699164807F0A5FA07F03EFBD7E7059971
:10502000124807F09EFA07F037FBD9E704990F48BA
:1050300007F097FA07F030FBDBE7C046D0200020EE
:10504000CC200020D8200020D4200020C41600202E
:10505000F81D0020EC1200200C130020B81E0020C8
:105060002C1300204C130020A816002000F07F45D0
:105070000023044A1370044A1370044A1370044A4C
:1050800013707047781E0020801E00207C200020B6
:105090008420002010B5E1200004FCF7A3FCFCF7FD
:1050A0007BFCFFF7DDFC0A4C20220021200007F0EA
:1050B00035FE200020302022002107F02FFE0023A3
:1050C000044A1370044A1370044B01221A7010BD75
:1050D000DC170020383200203A320020393200201C
:1050E00010B50B4C20600B4801600B490A600B4C5B
:1050F0002360FFF751FCFFF783FC23685A783023C5
:105100001340302B00D010BDFFF7C4FFFBE7C046B3
:105110005C1B0020601B0020581B0020A4180020EE
:1051200010B5FCF7DBFCFCF737FC094B00221A70CA
:10513000FE208005FBF75EFCC82003F011FE002076
:10514000FBF758FCFFF748FCFFF75AFC10BDC046C0
:105150003932002010B5FCF7C1FCFCF71DFC0B4BED
:1051600000221A70FE208005FBF744FCC82003F0E3
:10517000F7FD0020FBF73EFCFFF72EFCFCF7ACF937
:10518000C82003F0EDFDFFF73BFC10BD39320020D5
:1051900010B5024B1868FFF739FE10BD5C1B0020EC
:1051A00010B5134B1B78002B0CD1124B1868FFF76E
:1051B00057FD0F4B01221A700F4B1B689B789B0702
:1051C00013D410BD0B4B1868FFF76CFC0028F3D00C
:1051D0000A4B1B78002BEFD1084B01221A700848AC
:1051E000FCF700FCFCF7D8FBE6E7FFF7B3FFE8E7C6
:1051F0003A3200205C1B0020A41800203832002026
:105200000080008030B55368C51A80242401A04274
:1052100009D000241457002C0BD1002D06DD0123EA
:105220001370086000E00C60506030BD01235B42E9
:10523000F6E7002C04DD8342F6DA08605060F3E7FD
:10524000002C01DB0860EFE78342EDDD0860506071
:10525000EAE7000010B503000A00034908681900D6
:10526000FFF76AFD10BDC0465C1B002010B50300AF
:105270000A00034908681900FFF708FD10BDC04681
:105280005C1B002070B504002D4B18602D4B1B6873
:10529000984207D2C31A013BC72B07D80023002B23
:1052A0000AD170BD984205D9C31AF5E7254B1C6099
:1052B0000123F4E70023F2E7234B1868FBF742FAD7
:1052C000224B1B78002B02D0FFF76AFFE9E7204D45
:1052D0001D4B18682900FFF717FE1E4B1A6829009E
:1052E0002000FFF71DF801F031FD002809D01A4A0F
:1052F000116880231B010B60126893605360D360B8
:10530000CFE7144D2B68144C1868144A2168FFF736
:1053100079FF2B68216808319868114AFFF772FFFE
:105320002B682268111D58680E4AFFF76BFF2B6827
:1053300021680C31D8680C4AFFF764FFB1E7C0461A
:1053400014320020802C00205C1B00203932002009
:10535000C02F0020581B0020601B0020781E00205A
:105360007C200020801E00208420002070B50400D6
:105370000D00394B1860394B1B6898422CD2C31A68
:10538000013BFA22920193422AD20023002B0CD037
:10539000AB780422110019401A4227D0304B1B78F9
:1053A000002B23D12E4B033A1A70AB78DB08012275
:1053B00053400122110019402A4804601A423BD18F
:1053C000294B1B689C423BD2E31A013B274A93427C
:1053D0003AD800293CD170BD984205D9C31AD0E70C
:1053E0001E4B1C600123D1E70023CFE70029DCD14D
:1053F0001B4B1B78012BD8D11D4A137801214B4040
:10540000DBB21370164A00211170002B11D0062058
:10541000FCF700FB00210520FCF7FCFA002103202B
:10542000FCF7F8FA00210420FCF7F4FAFCF7B4FAD0
:10543000BBE7FCF753FBF9E70B4B1C600021C8E707
:105440009C42C6D9E31AC1E7074B1C600121C0E7A3
:10545000FCF748FCBFE7C046303200209C2C0020FF
:105460005432002018320020842C0020BFC62D00AA
:1054700055320020014B18787047C0465532002045
:10548000F8B5DE4657464E464546E0B504000D00E9
:10549000D64B21221A70086807F0DCF8D44907F0CF
:1054A00080F8D44907F062F88146686807F0D2F8BE
:1054B000CF4907F076F8CF4907F058F88046A8683A
:1054C00007F0C8F8CA4907F06CF8CA4907F04EF867
:1054D000071CE86807F0BEF8C54907F062F8C5493F
:1054E00007F044F8061C2278D206D20FC24B0121E5
:1054F0008C461978604681430A431A7022789206D6
:10550000D20F520018780221884302431A70227881
:105510005206D20F92001D78042085432A431A7048
:105520002278D209D20092461A7806318B468A43F5
:1055300055462A431A706278D206D50F29005D7845
:10554000624695432A000D0015435D70627892070C
:10555000D20FD2005D7859468D432A435A70627843
:105560001207D20F92005D7885432A435A706578FE
:105570006D07ED0F6800D2B206398A4302435A70B4
:105580000021484607F046F800280AD19B494846C2
:1055900007F056F8002818D1484607F0AFF8C0B217
:1055A00000E00020944B98700021404607F032F84C
:1055B00000280CD19149404607F042F800281AD142
:1055C000404607F09BF8C0B202E0FF20EAE7002067
:1055D000894BD8700021381C07F01CF800280CD12A
:1055E0008649381C07F02CF800281AD1381C07F01F
:1055F00085F8C0B202E0FF20EAE700207E4B187178
:105600000021301C07F006F800280CD17B49301C23
:1056100007F016F8002842D1301C07F06FF8C0B22E
:1056200002E0FF20EAE70020734B587122789207CE
:10563000D20F92011978402081430A431A702278D0
:10564000D207110E18787F2202400A431A7022787E
:105650005207D20F12011978102081430A431A70A1
:1056600022781207D20F52011978103081430A4371
:105670001A70634A94235B00D35C032B00D1DAE0F9
:105680000FD8012B00D187E0022B50D16278D307CD
:1056900000D4A5E05A4995235B00CB5CA1E0FF2034
:1056A000C2E7042B43D16378DB07DB0F52491D436C
:1056B0006D004B78022293431D434D7063789B0726
:1056C000DB0FDB00EAB20820824313434B706378A0
:1056D0001B07DB0F9B004A780438824313434B704F
:1056E000E378207900021843627912041043A37909
:1056F0001B0603431B11DBB28B716278920700D546
:10570000FF233D488371E379217A09021943627AC4
:1057100012041143A37A1B060B431B11DBB2C371A6
:105720006278120700D5FF23334AD37118E0E3787B
:10573000217909021943627912041143A3791B06E6
:105740000B431B112C488371E379217A0902194319
:10575000627A12041143A37A1B060B431B11C37117
:10576000284B1B78002B00D0A1E0204B14225A704C
:10577000103A9A72DA741A77224B033A1A70252279
:105780001A490020FDF736F9FFF772FCF0BCBB4662
:10579000B246A946A046F8BD6278D30704D5184999
:1057A00095235B00CB5C00E00023920701D4DBB2C1
:1057B00000E0FF2310488371E379217A090219433D
:1057C000627A12041143A37A1B060B431B11DBB24E
:1057D000C3716278120700D5FF23074AD371BFE770
:1057E0000023120710D4DBB20FE0C0465C27002074
:1057F00082E2473D0000E041B027002000007F43E7
:10580000A816002042320020FF232C48C371E37801
:10581000217909021943627912041143A3791B0605
:105820000B431B11DBB283716278920700D5FF2313
:10583000224A937194E7E378217909021943627946
:1058400012041143A3791B060B431B11DBB21B4A45
:1058500093716278920700D5FF2318488371E3792A
:10586000217A09021943627A12041143A37A1B06B2
:105870000B431B11DBB2C3716278120700D5FF2303
:105880000E4AD3716378DB0700D469E713001278FE
:1058900001210A431A70FF229A71DA715A7808219D
:1058A0000A435A70D2B204210A435A7058E7044896
:1058B00008220249023007F037FA60E7B0270020DB
:1058C0005C270020F0B5DE4657464E464546E0B51B
:1058D00091B006008B4690461D001A9C10220021B4
:1058E00008A807F01BFA80235B020893F8235B02E9
:1058F00009938023DB020A93C0231B030A9310221F
:1059000008A904A807F010FA42461332059B039336
:10591000494B03990B404146C9010B431203134302
:105920000593079A0392D200D2088021C9050A4341
:105930000792424A13400B4305930CAB9946102241
:1059400004A9180007F0F0F922004B4683CB83C26C
:105950001B681360280002F0BBF8394B9E4266D0EA
:105960000721280002F082F80023009301332A0067
:105970005946300008F000F9324BE2681340EA0360
:105980001343E360304A13402B43802252031343F6
:10599000E3602E4B626813402A06134363600520C0
:1059A00003F0CEFE2A4905F09DF906F04EFE824630
:1059B00006F0A4FE83B29946002B3AD0180006F0F8
:1059C00044FE011C504606F0CCFD8721C90506F0B7
:1059D000E8FD06F093FEC0B200024B461B041843DC
:1059E00020601C4BE2681340AD021D43E5601A4A7B
:1059F000A3681A4081231B041343A360174A134072
:105A0000174A1343A360230042465946300008F06A
:105A100005F93268012359468B409A43134333609A
:105A200011B0F0BCBB46B246A946A046F0BD062167
:105A300097E70020D0E7C0467F00FEFFFFFFFF9FF3
:105A400000002050FF7FF0FFE0FF0FFCFFFFFFE0B2
:105A500000093D00FF83FFFFFFFF0AFEFFFFF5C1C6
:105A60000000021070B582B0104B1B6B9B0701D475
:105A700002B070BD0D4C022323630D4B1E682368DA
:105A80000125AB432360002300930133132200213F
:105A9000200008F071F8074B32000021200008F0C8
:105AA000BDF82368AB432B432360E1E7000030508F
:105AB000FC1B0020E41B00200B4B5B68DB03FBD4CA
:105AC000094B902212051A61074B5B68DB03FBD47C
:105AD000054B00221A61044B5B68DB03FBD4024BCD
