:020000041000EA
:1000000000B5324B212058609868022188439860DF
:10001000D860186158612E4B002199600221596106
:100020000121F02299502B49196001219960352056
:1000300000F044F80222904214D00621196600F024
:1000400034F8196E01211966002018661A6600F04E
:100050002CF8196E196E196E052000F02FF8012189
:100060000842F9D1002199601B49196000215960AB
:100070001A491B48016001219960EB211966A021F2
:10008000196600F012F800219960164914480160C1
:100090000121996001BC002800D000471248134993
:1000A000086003C880F30888084703B5996A0420EC
:1000B0000142FBD001200142F8D103BD02B5186610
:1000C0001866FFF7F2FF186E186E02BD00000240BE
:1000D000000000180000070000035F00212200005C
:1000E000F4000018222000A00001001008ED00E03C
:1000F00000000000000000000000000074B24E7A12
:1001000000200420F7010010C3010010C5010010F9
:10011000C1010010C1010010C1010010C101001097
:10012000C1010010C1010010C1010010C701001081
:10013000C1010010C1010010C9010010CB01001065
:10014000CD010010CD010010CD010010CD01001037
:10015000CD010010CD010010CD010010CD01001027
:10016000CD010010CD010010CD010010CD01001017
:10017000CD010010CD010010CD010010CD01001007
:10018000CD010010CD010010CD010010CD010010F7
:10019000CD010010CD010010CD010010CD010010E7
:1001A000CD010010CD010010CD010010CD010010D7
:1001B000CD010010CD010010CD010010CD010010C7
:1001C00000BE00BE00BE00BE00BE00BEEFF3058054
:1001D000103800BEF2EB8871F07601101077011034
:1001E0003402001090A31AE700201F49086006C8D7
:1001F00081F3088810471D48006800282FD10DA4FE
:100200000ECC002902D000F012F8F9E71849194A7B
:10021000002000E001C19142FCD1174988471749ED
:1002200088471749884700BEFDE701C901C29A42C5
:10023000FBD3704710770110C0000020801700200A
:10024000D08D01100000042000000420D08D01108A
:10025000001004200010042000000000704709482E
:100260000EF0AEF80047000008ED00E0000000D0FE
:10027000A0170020083E002049D10010910800106E
:1002800005D100105756000006005250ABB3605322
:10029000286D011006005250861C0302386D0110B3
:1002A000060052505422A29D4C6D01100500525080
:1002B000DE65F468D08D0110F8B5C04610B5064C67
:1002C0002378002B07D1054B002B02D0044800E017
:1002D00000BF0123237010BDA01A00200000000001
:1002E00030430110044B10B5002B03D003490448E0
:1002F00000E000BF10BDC04600000000A41A0020AE
:100300003043011010B504001F210AF04DFF0022F8
:10031000002120000AF060FF002120000AF076FF93
:1003200010BD10B504000AF089FF00220121200051
:100330000AF052FF0123A340D022120653625361F8
:1003400010BD10B504000AF079FF00220121200041
:100350000AF042FF0123A340D0221206936210BD8F
:1003600070B5040000290CD00AF068FF0123A340F7
:10037000D022120693620022002120000AF02CFFF6
:1003800070BD0AF05BFF0125A540D02636067562D8
:100390000022002120000AF01FFFB561F0E770B5D0
:1003A00000280FD0D024240680256D0465616420C8
:1003B0000CF08CF880239B04636164200CF086F8B9
:1003C000A56170BDD024240680256D04656164207C
:1003D0000CF07CF880239B04A36164200CF076F879
:1003E000A561EEE710B5002804D001211A20FFF71F
:1003F000B7FF10BD00211A20FFF7B2FFF9E7000098
:1004000010B50E20FFF78DFF0F20FFF78AFF102099
:10041000FFF787FF1120FFF784FF0D20FFF791FF03
:100420000C20FFF78EFF0B20FFF78BFF0A20FFF752
:1004300088FF1849184811F0D5F8012106200AF064
:10044000B3FE012107200AF0AFFE012104200AF0CB
:10045000ABFE01200AF0F2FED024240602236362E0
:10046000636109200AF0EAFE80239B0063626361F6
:1004700000200AF0E3FE01236362636102200AF0B8
:10048000DDFE04236362636100F0E4FC1A200AF0DD
:10049000D5FE10BDC0C62D0000C00340F8B5DE4635
:1004A00057464E464546E0B50400D0263606802322
:1004B000DB019946B361052000210BF0DBFF736877
:1004C0005B0B01252B405A42534101273B401B0146
:1004D0002278102188468A431343237073681B0BCC
:1004E0002B405A4253413B405B01227810318A43F2
:1004F000134323707368DB0A2B405A4253413B403D
:100500009B01227820318A431343237073689B0A2E
:100510002B405A425341DB0122783F310A401343BA
:1005200023704B46736180231B029B46B3610520F9
:1005300000210BF09FFF73685B0B2B405A42534125
:100540003B402278AA431343237073681B0B2B4054
:100550005A4253413B409B00227804218A43134373
:1005600023707368DB0A2B405A4253413B405B00C7
:1005700022780220814682431343237073689B0ACA
:100580002B405A4253413B40DB00227806308246E2
:100590008243134323705B46736180235B029B4657
:1005A000B361052000210BF065FF73685B0B2B40E6
:1005B0005A4253413B406278AA43134363707368C5
:1005C0001B0B2B405A4253413B405B00627848462C
:1005D0008243134363707368DB0A2B405A425341D2
:1005E0003B409B00627804218A4313436370736825
:1005F0009B0A2B405A4253413B40DB0062785046F5
:100600008243134363705B46736180239B029B4666
:10061000B361052000210BF02DFF73685B0B2B40AD
:100620005A4253413B409B0162784020824313432E
:10063000637073681B0B2B405A4253413B401B01B4
:10064000627840468243134363707368DB0A2B4031
:100650005A425341DB0162786F30024013436370AA
:100660005B46736173685B091D406B425D412F40BF
:10067000FA00A378504683431343A3707F00DBB294
:100680004A4693431F43A7706378DB06DB0F1B01C9
:10069000FAB2404682431343A370204B1A68C0232A
:1006A0009B015340E022D20113401D4A13601D4BB1
:1006B00004211960194B1B68DB05FBD517494A68F3
:1006C0001204130C184AD21A096880235B014B40AC
:1006D000E021C9010B4012490B60124B0421196043
:1006E0000E4B1B68DB05FBD50C4B5B681B04190C20
:1006F0000D4B5B1AE270100A2071100C6071120E23
:10070000A271E371190A2172190C61721B0EA37296
:10071000F0BCBB46B246A946A046F8BD00C00440A6
:1007200000D0044000E00440FF0F0000F0B5D646C2
:100730004F464646C0B584B0040003AF3A4B1A8812
:100740003A80022399460023BB7002AE3280B37018
:1007500001AD2A80AB7069460A808B70D0231B06DE
:1007600098464A469A61314B9A4603233A00D02173
:10077000504613F03DFD43464A465A619A610323B1
:100780003200F021504613F033FD43464A465A6189
:1007900080239B00994643464A469A6103236A4652
:1007A000F021504613F024FD43464A465A619A61AF
:1007B00003232A00D021504613F01AFD43464A462F
:1007C0005A613B785B027A785200E02109010B40C4
:1007D0001343BA78D20913432360327852027378F4
:1007E0005B000A401A43B378DB091A4362602A7837
:1007F00052026B785B000A401A43AB78DB091A435C
:10080000A2606B461B785B026A46527852000B402E
:1008100013436A469278D2091343E36004B0E0BC04
:10082000BA46B146A846F0BD4843011000C0034097
:1008300010B500F0EBF810BD10B504004378DB07ED
:1008400010D463781022110019401A4203D00F4BC4
:100850001B78002B0CD0002903D10C4B1B78002BEC
:100860000DD110BD0022002100200CF00FFCE8E7A4
:100870000020FFF7B7FD054B01221A70F1E70120B8
:10088000FFF7B0FD014B00221A70EAE7C33D0020DC
:1008900010B584B00FF076FF64200BF017FE3748D8
:1008A0000FF034FFFFF7ACFD10F084FC1B20FFF7C6
:1008B00029FD1A20FFF726FD1A200AF0BFFCD024DC
:1008C00024068023DB046362A36118200AF0B6FCCF
:1008D00080235B046362A36119200AF0AFFC8023CC
:1008E0009B046362A36105200AF0A8FC2023A36295
:1008F0000022012105200AF06FFC01AC0C2200212E
:1009000020000FF0DDFD2000FFF7C8FD1C4B9B8889
:100910006A461380617812220A40122A09D01823ED
:100920000B40182B0CD0684600F0F4FD002004B0FA
:1009300010BD14480DF044FD030000210800984745
:10094000163B6A4613700120FFF74CFD0120FFF7AC
:1009500026FD0D480BF0BAFD02E096200BF0B6FD27
:1009600001AC2000FFF79AFD6378DB07F5D5002284
:10097000002100200CF08AFBEFE7C0463043011055
:100980004843011055420000AC0D0000194B1B6894
:10099000194A126893420ADA0A33164A1360154B51
:1009A0001B68FF2B07DC002B06DA002304E00A3B60
:1009B000104A1360F3E7FF230E4A1360002B14D193
:1009C000FF330E4A126853401B041B0C0C4A136081
:1009D000084B1B68002B0ADB1B040A4A12685340B1
:1009E0001B0C1B04084A136070470023E9E700232F
:1009F000F2E7C0466C2B0020742B00205C00054001
:100A00005C100540200005402010054010B5FA217B
:100A1000044A490102F094FA002800D110BDFFF702
:100A2000B5FFFBE74038002070B5264B1E68002E4E
:100A300047D00378002B1BD05C1E1B01C31899798B
:100A4000DA79120211431D7A2D040D435B7A1B06DD
:100A50001D432401001902001832847FC07F000268
:100A60002043137A1B041843547A2406044301E0FC
:100A70000024251C211C281C0FF0A4F9002800D0FC
:100A80002C1C0021201C0FF09DF9002808D0FD210E
:100A90008905201C0FF047F90B490FF029F9041CB8
:100AA0000A49201C0FF03FF90FF0EAF985B2002146
:100AB000201C0FF087F9002801D0AD19ADB2044B0E
:100AC0001D6070BD702B0020CDCC4C3D0000484215
:100AD000742B002010B592B04222002101A80FF023
:100AE000EFFC01236A461371537115336B440022E6
:100AF0001A801B4A5A801A216944FE22920500205E
:100B00000880130C4B801E216944088015484880DA
:100B10002221694400220A804B8001A90800FFF7C6
:100B200083FF002407E0FFF731FF0CF05DFA082097
:100B30000BF0CCFC01343D2CF5DD1A226A44002177
:100B40001180518022226A4400231380538001A91E
:100B50000800FFF769FFFFF719FF12B010BDC0468C
:100B6000A043000020430000F0B5CE46474680B5C4
:100B700083B003200AF062FB08200AF05FFBD02359
:100B80001B0608225A62F8325A62042103200AF036
:100B90000BFB042108200AF007FB334F01253D60C1
:100BA000324B04221A60324AFF2656621666314CD6
:100BB0002268120C1204304989460A601A689100B2
:100BC00089188A002D498C46624411688C46FF21A1
:100BD000090460464140090C090480204001024399
:100BE00011603A68910089188A0021498846424478
:100BF00011682F008F43024317601B689A00D218B8
:100C0000930043441A68954303431D601C4B1B68C3
:100C100073401B041B0C1B4A136023681B0C1B0432
:100C20004A461360962000210BF024FC6B46DC1D25
:100C3000991D200000F0F4FA2378134A13601A1C5F
:100C4000CD2B00D9CD22323210490A70002B02D1AF
:100C50000D4A13600B70AF2040000BF037FC03B05F
:100C6000C0BCB946B046F0BDF8380020683200205C
:100C70000000054020000540201005400C00054004
:100C80005C0005405C100540702B0020DF3D00201B
:100C90000902084300B2704770B582B0D024240620
:100CA0000125A5616B46187159710B4E022201A9ED
:100CB000300013F0E5FA656102200BF007FC033504
:100CC000A561022201A9300013F0DAFA6561022061
:100CD0000BF0FCFB02B070BD00C00340F0B5DE4677
:100CE00057464E464546E0B585B006000D0001ACBE
:100CF000002301930822002102A80FF0E1FB032347
:100D00006B449B46A2235A461370D0231B06994678
:100D1000012398464B4642469A614D4B9A465946A6
:100D2000180013F0ADFA0C2322000021504613F0F6
:100D30005FFA4B4642465A6161782078FFF7A8FF78
:100D400083B2FF273840B0711B0AF371E178A078B5
:100D5000FFF79EFF83B2384030721B0A73726179CD
:100D60002079FFF795FF83B23840B0721B0AF37207
:100D7000E179A079FFF78CFF83B2384030701B0A0D
:100D80007370617A207AFFF783FF80B2404283B2AA
:100D90003840B0701B0AF370E17AA07AFFF778FF51
:100DA00083B2384030711B0A73714A460423936141
:100DB00001225946504613F063FA0C232200002109
:100DC000504613F015FA4A4604235361617820789F
:100DD000FFF75EFF83B23840A8711B0AEB71E17820
:100DE000A078FFF755FF83B2384028721B0A6B7258
:100DF00061792079FFF74CFF83B23840A8721B0A53
:100E0000EB72E179A079FFF743FF83B23840287095
:100E10001B0A6B70617A207AFFF73AFF80B240427A
:100E200083B23840A8701B0AEB70E17AA07AFFF712
:100E30002FFF83B2384028711B0A6B71434633730E
:100E40002B7305B0F0BCBB46B246A946A046F0BD28
:100E500000C0034010B5AE211020FFF71DFF5C213C
:100E60001120FFF719FF04211220FFF715FF0421BD
:100E70001320FFF711FF00211520FFF70DFFE021E0
:100E80001720FFF709FF10BDF0B5C64600B50400F6
:100E900013282DD014282FD0122803D0002080BC76
:100EA000B846F0BD13271423984620000AF0C6F96F
:100EB00001263300A340D0252D06AB62002201217C
:100EC00020000AF089F940460AF0B8F9330042469A
:100ED00093406B62AB6138000AF0B0F93300BB405D
:100EE0006B62AB616B68E3401E4209D00120D6E71C
:100EF000122714239846D8E7122713239846D4E7DD
:100F00000020CCE710B51320FFF7BEFF10BD10B5D1
:100F10001220FFF7B9FF10BD10B51420FFF7B4FF82
:100F200010BD10B501211A20FFF71AFA9620800093
:100F30000BF0CCFA09F068FD002800D110BD0120AB
:100F4000FCE710B501F05AFE10BD0000F0B5C64632
:100F500000B584B0142338E001330B2B05D801AA67
:100F6000D25C002AF8D00125F6E718200BF0AEFA83
:100F70002F4BDB685B07FBD5D02636060427B7610D
:100F80002B4B984601226B46D91C404613F078F94A
:100F90000C2301AA0021404613F02AF977610C289E
:100FA0003DD10023002100E001330B2B05D801AA1D
:100FB000D25C002AF8D00121F6E7002901D0002DEB
:100FC00030D118200BF082FA23005C1E002B28D0B1
:100FD000002301930822002102A80FF071FA6B464A
:100FE000A222DA70124BDB685B07FBD5D0252D06F9
:100FF0000126AE610E4F01226B46D91C380013F05A
:101000003FF90C2301AA0021380013F0F1F86E61BA
:101010000C2802D1002300259FE7002502E00025CF
:1010200000E00025280004B080BCB846F0BDC046F2
:1010300000C0034070B584B003A9484B1A880A80E9
:1010400000238B7002A90A808B7001A90A808B7023
:1010500069460A808B7032241FE00133022B14D8BA
:1010600003AAD25C002A00D0012101AAD25C002A86
:1010700000D0012602AAD25C002A00D001256A46CF
:10108000D25C002AE9D00120E7E7002905D0002D35
:1010900003D0002E01D0002857D12300013C002BA3
:1010A00050D0D0231B0602229A612D4BDB685B07D0
:1010B000FBD5032303AAD021294813F099F803286C
:1010C00042D1D0231B0602225A619A61244BDB686D
:1010D0005B07FBD5032302AAF021214813F088F80F
:1010E000032834D1D0231B0602225A61FF32FF327B
:1010F0009A611B4BDB685B07FBD503236A46F02133
:10110000174813F075F8032823D1D0231B0680223B
:1011100092005A619A61124BDB685B07FBD503238F
:1011200001AAD0210E4813F063F8032813D1D0236D
:101130001B06802292005A61002300200026002511
:1011400000218BE7002000E0002004B070BD0020EB
:10115000FBE70020F9E70020F7E7C0465043011005
:1011600000C0034010B5FFF7B5FC012010BD012001
:10117000704770B582B0FFF75DFF01AC0126012515
:101180002840030120781022904318432070FFF775
:10119000D8FEC30122787F20104018432070FFF74B
:1011A000C0FE2840830120784022904318432070DD
:1011B000FFF7B2FE284083002078042290431843B2
:1011C0002070FFF79FFE03002B402078B0431843A8
:1011D0002070FFF79CFE28404300207802229043B5
:1011E00018432070FFF7C3FF2840C300207808226F
:1011F000904318432070FFF7A9FE28404301207850
:101200002022904318432070FFF7ACFF0540607820
:10121000B04305436570208802B070BD7047000080
:10122000044B7A22FF329A5C02707C22FF329B5C74
:101230000B707047A018002064207047014B0020FD
:1012400018567047A0140020F8B504000E001500D1
:10125000254A2649280001F073FE071E1DD0244BA5
:101260001A6824498C466244D11752184A405B6878
:101270006344D9175B184B40642A0BDC0022642BB3
:1012800000DD02001C4B1B88002B05D01A4B0022EE
:101290001A8002E00200F2E71700227863781B024E
:1012A0001343154A11880B431380114B32681A609F
:1012B00072685A60114B3A001149280001F053FE40
:1012C000002807D00F4B1B78002B03D10D4B0122B8
:1012D0001A70F8BD002FFCD00A4B1B78002BF8D0F9
:1012E000084B00221A70F4E79C32002040420F00A5
:1012F000CC38002000F8FFFFB23D002098380020D5
:1013000000A3E111CA3D0020014B18787047C04688
:10131000CA3D002010B5002803D1074B00221A70E7
:1013200010BD0120FFF73BF80120FFF75BF8024BEF
:1013300001221A70F4E7C046B83D002010B5002025
:10134000FFF750F80020FFF72AF8002200210020C4
:101350000BF09CFE10BD000010B50849084812F0C3
:1013600077FF002802D1074B186810BD064B9A6A18
:10137000044B1A60024812F043FFF4E7682C002087
:1013800038170020883D00200040054030B583B06C
:101390000500FFF7E1FF00900190FFF7DDFF04007B
:1013A000FFF73CFF6A462900200001F0C9FD002834
:1013B000F3D003B030BD000010B5FFF7CDFF074CF0
:1013C000206000F019FC206806F0BEFC206804F0E4
:1013D000FFFD6420FFF7DAFFEFE7C04698320020F8
:1013E00010B504000A4B1B78002B00D010BD084B31
:1013F00001221A700020FEF7D2FF0020FEF7F2FF54
:1014000064200BF063F82100002001F027FBEDE7DA
:10141000FB3D002010B5054B1B78002B00D010BD04
:10142000024B01221A7001F01BFCF8E7E63D002098
:1014300010B52F4B1B78002B37D0FFF78DFF2D4BAE
:1014400018602D48FFF72AF82C4B1B78002B35D15C
:1014500005F0D2F8274C2849206806F021FE2068C4
:1014600001F094FB08F0B0FC002834D0214C244952
:10147000206805F0DDFB2068224A234908F0D0FCF3
:10148000224B00221A701B4B1A681F491D48FFF798
:10149000DBFE1F4B1B785BB2012B23D0154B18686A
:1014A000FFF7C6F90BF0A0FD10BDFA200021800166
:1014B0000BF0E0FD0E4B01221A70BEE70E48FFF75D
:1014C000BBF90BF091FD0B4C206801F05FFB20682D
:1014D00001F098FCE8E7074B18680B4A094900F04F
:1014E000BDFCD0E7034B186801F08CFCD6E7C04682
:1014F000F13D00209432002008240020B83D002057
:10150000D023002014240020F0230020CA3D002016
:10151000A014002070B584B0041E00D1FBE001F0DF
:101520000AFD0500FEF76CFF7C497D4810F020FAAB
:101530000321162009F038FE0321172009F034FE9C
:1015400001F082FB03AB02AA01A9764809F0DAFD9B
:10155000002803D1734974480BF072FE039A029974
:10156000019809F093FD7148FEF798FF00F0A0FB89
:10157000002845D06D4E33006D4A6E496E4806F026
:10158000F7F906F089FC002001F0E8FBFA2001F0F1
:1015900093FBB378DB0611D5684B0022BE214900CE
:1015A0005A547E21FF315A5401315A548021FF315F
:1015B0005A5401315A548221FF315A54EBB2012B53
:1015C00023D0022B26D0012565576B1C29D0002281
:1015D000A2565B4B1A70554B1B789A0625D45A06B7
:1015E00037D4DA0637D45AB2002A36DB5A0736D453
:1015F0000A221A40022A34D01B0717D5032515E00A
:101600003221504801F018FAB4E74D4B02221A700B
:101610000025E0E72B041B0F494A13702D052D0F01
:10162000D9E7464B02255D57D1E7062502F0DCFCE1
:10163000424AE2235B00D65C414B1B785BB201332C
:1016400011D06424EBB2062B3FD8AB003E4AD358EE
:101650009F460125EAE70025E8E70225E6E705259C
:10166000E4E70425E2E701F09DFB002804D1344BB8
:1016700002221A704624E5E7314B01221A706424D5
:10168000E0E73248322101F0D7F92100300001F0C3
:10169000FBF9FFF769FA2A4B00215956280000F0A0
:1016A000EDFB224B9B789B0730D4294A1F49280029
:1016B00004F04AFE0FF072FA26480FF05DFAFFF7C9
:1016C000B7FEFCE7FF200006DCE72348DAE7FF204F
:1016D0000002D7E7002001F0EFFA194B00221A7040
:1016E000FF2000041924CDE7002001F0E5FA144B97
:1016F00000221A7019480F24C4E7002001F0DCFA18
:101700000F4B00221A7016481924BBE70B4B9D7033
:1017100000F0C8FAC9E704B070BDC046801A0600E0
:1017200008170020400D0300544301100824002036
:10173000D0230020F0230020E0230020A018002068
:10174000A01400200000FF4D8843011000F115FF98
:1017500014240020B913001000A1A1A100FF610012
:101760000000FFE6094ABD235B00D35C1A1C312B45
:1017700000D83222054BBD2149005A54DA787A3913
:10178000FF398A43DA709B221A727047A018002032
:1017900070B505001400724B1380012900D070BD94
:1017A0000223C3569370D01CE91C06220EF08EFE55
:1017B000EB68E3602B6923616B696361AB69A361CB
:1017C00020001C3029001C3120220EF07FFE20005A
:1017D0003C3029003C3120220EF078FE20005C30A5
:1017E00029005C3120220EF071FE20007C3029009F
:1017F0007C3120220EF06AFE20009C3029009C31B2
:1018000006220EF063FE2000A2302900A23106223B
:101810000EF05CFE2000A8302900A83130220EF026
:1018200055FE20002930FF302900D83110220EF05B
:101830004DFE20003930FF302900E83110220EF033
:1018400045FE20004930FF302900F83110220EF00B
:101850003DFE20005930FF3029000931FF311022B0
:101860000EF034FE20006930FF3029001931FF31BD
:1018700010220EF02BFE94235B00EA5C5033E254FE
:101880002A23FF33EA5C7A23FF33E2544F3BEA5CBE
:101890005033E2542C23FF33EA5C7C23FF33E254C1
:1018A00020007D30FF3029002D31FF3106220EF05F
:1018B0000DFE20008530FF3029003531FF31202218
:1018C0000EF004FE2000A530FF3029005531FF3115
:1018D00020220EF0FBFDBA235B00EA5C5033E25499
:1018E0002000C930FF3029007931FF3118220EF075
:1018F000EDFDC8235B00EA5C5033E2544E3BEA5AEC
:101900005033E2524E3BEA5A5033E2524E3BEA5ACF
:101910005033E2524E3BEA5A5033E2524E3BEA5ABF
:101920005204F6204000110C225A9A3BFF3B1A4009
:101930000A432252CE225200A95A22185180CF22A5
:101940005200AA5A5204F8214900120C605A03406E
:1019500013436352D0235B00EB5A641863801EE785
:1019600002A0FFFF064B984204D0064B984203D1D9
:10197000022070470120FCE701204042F9E7C04601
:1019800001A0000002A0000010B512480EF0EEFE0B
:10199000002407E0104B5B18D97810480EF0E6FEE3
:1019A0000134E4B2052C0DD80FF0CCFB2100C0B2FD
:1019B000094A1219D070002CECD113000122904377
:1019C000D870E7E7044B9B221A720A200EF080FEC3
:1019D00010BDC046A4430110A0180020B44301105C
:1019E000F0B5DE4657464E464546E0B56F4CA54439
:1019F000FC256D002A00002102A80EF061FD6C4B51
:101A000002AA1380059B0193DB0FDB0780221201E2
:101A100013430593069B0193DB0FDB0713430693E8
:101A2000079B0193DB0FDB0713430793089B01938D
:101A3000DB0FDB071A4308925E4F0A975E4E0B9648
:101A40005E4C0C945E480D905E490E915E4A0F927A
:101A50005E4B10931297139614941590169117924B
:101A600018935B4B19931A931B931C931D931E930E
:101A70001F9320932193802202A98B5004328B5014
:101A800004328B5004328B5004328B5004328B5012
:101A900004328B50FF231B049A46A8230A005146A8
:101AA000D1504C4B9B46AC235946D1504A4B99469A
:101AB000B0234946D150FF231B069846B423414624
:101AC000D150FF2636020433D6500433434A02A9CC
:101AD000CA50434F04330A00CF5004335146D1500B
:101AE00004334146D1500433D65004334946D150D3
:101AF0000433D6503B4BD82202A98B5004328B5072
:101B000004328B5004328B50E823CF50B63B7A22FC
:101B1000FF328B5401328B54173AFF3AF1214900BE
:101B200002A8425202314352023142528532FF3200
:101B3000010083522C4C2A0020000EF0C7FC00202C
:101B400004F0C8FB012004F0C5FB032004F0C2FB35
:101B5000042004F0BFFB052004F0BCFB20009C30F7
:101B6000062200210EF0ACFC2000A230062200214B
:101B70000EF0A6FCFFF708FFE4235B005246E2509C
:101B800004335A46E25004334A46E2500433424694
:101B9000E2500433E6500433E75081239B009D4418
:101BA000F0BCBB46B246A946A046F0BDFCFDFFFF17
:101BB00002A0FFFF000034420000B44200000743CF
:101BC00000003443000061430000874300809D43D0
:101BD000000016440000FF4D0000FFE600F115FF75
:101BE00000FF610000A1A1A1A0180020014B1878FE
:101BF0007047C046FE3D002070B5204CA544204BE8
:101C00001B78002B03D180235B019D4470BD0EF037
:101C1000DDFFEFF3108672B61A4B1B78002B24D130
:101C2000194C00230093194A002101A80EF048FC2A
:101C3000FC225200164968460EF048FC80256D01D2
:101C40002900200012F00CFB2A006946200012F047
:101C5000E7FA86F310880EF0C3FF0E4B1B78002BBB
:101C600006D1074B00221A70CDE796246403D8E70B
:101C700008F06AF9074B00221A70F2E700F0FFFF44
:101C8000E43D0020FE3D002000D01200FC0F0000CB
:101C9000A0180020F23D0020014B01221A7070476D
:101CA000F23D0020014B01221A707047E43D0020F4
:101CB00070B5394B1888394B1D88FFF753FE040067
:101CC0002800FFF74FFE0500631C0BD0022C0FD03D
:101CD000022D0DD0012C2CDD012D2ADD0023002248
:101CE00000262CE0431CF1D100230022012626E02F
:101CF000022C05D0022D0FD00023002200261EE06A
:101D0000FC225200244926480EF0E0FB254B00221D
:101D10001A700023002612E0FC2252001F492048BE
:101D20000EF0D4FB1F4B01221A7000230022002664
:101D300005E00123012C15DDDBB201220026002E77
:101D400012D1002A23D0002B18D1164B01221A7071
:101D5000134A21001048FFF71BFD0020FFF7A2FFE8
:101D6000300070BD0023E7E70E4B00221A70FFF72A
:101D700037FE0020FFF796FF0026F1E7094B00220F
:101D80001A70074A29000548FFF702FDE5E7FFF74B
:101D9000E9FC0126E4E7C04600D0121000C0121092
:101DA000A0180020FE3D002010B5031C642800D9B7
:101DB000642303497A22FF328B54FEF7D5FE10BD0F
:101DC000A018002010B5022817D008D800280DD080
:101DD00001280FD10B4AF2235B00D1520AE00328FD
:101DE00008D1084AF4235B00D15203E0054AF123ED
:101DF0005B00D15205F04CFA10BD024AF3235B00A0
:101E0000D152F7E7A018002030B50F4C400045082C
:101E1000E068C00FC0072843E06049004808216916
:101E2000C90FC90701432161520051086269D20FED
:101E3000D2070A4362615B005A08A369DB0FDB0724
:101E40001343A36130BDC046A0180020062800DD62
:101E50000020014B98707047A018002010B5034B6C
:101E60001B68002B00D0984710BDC046BC26002040
:101E7000014B002018567047CB3D002010B588B0AC
:101E80000400284B1870022910D00C22002105A84C
:101E90000EF016FB1022002101A80EF011FBE3B298
:101EA000062B0BD8A400204B1B599F461F4B204AE2
:101EB0001A6008F0F1FD0028E7D005E01B4B1D4A31
:101EC0001A60002001F012FA08B010BD174B194A31
:101ED0001A60062001F00AFAF6E7144B154A1A6058
:101EE000012001F003FAEFE7104B124A1A600220BA
:101EF00001F0FCF9E8E70D4B0F4A1A6001AA05A9A9
:101F00000020FFF7ABFFDFE7084B0C4A1A6001AA7D
:101F100005A90020FFF7A2FFD6E7044B084A1A6084
:101F2000D2E7C046CB3D0020E0430110BC26002094
:101F30003DAD00109D330010698A0010919400108F
:101F4000819A0010F0B5C64600B590B004000D00AF
:101F500016001F0016AB1B789846494B984200D1DB
:101F600088E00721380009F01FF9012300933A00A7
:101F7000290020000FF0ECF91022002108A80EF033
:101F80009FFA80235B020893F8235B020993802366
:101F9000DB020A93C0231B030A93102208A904A89A
:101FA0000EF094FAF31C059A039236491140F2019F
:101FB00011431B0319430591079B0393DB00DB08C7
:101FC00080229205134307932F4B1940059110224D
:101FD00004A90CA80EF07AFA0F9B03932B4A1A401F
:101FE000BF0217430F974346002B45D020220E9B7C
:101FF00003932749194080239B020B435206F82183
:1020000089050A4013430E939B009B088022D2054A
:1020100013430E9305200AF049FF1E490CF024FAE1
:102020000DF0D5FE80460DF02BFF87B2002F25D096
:1020300038000DF0CCFE011C40460DF054FE872107
:10204000C9050DF070FE0DF01BFFC0B200023F0489
:1020500007430C970CAB3200290020000FF0CAF99F
:1020600022680123AB409A431343236010B080BC25
:10207000B846F0BD062175E71822B8E70020E5E76D
:10208000000020507F00FEFFFFFFFF9FFF83FFFF48
:10209000FFFFF5C10050C300014B01221A707047C9
:1020A000DA3D002070B5244B1B78002B17D1234B51
:1020B00000221A70204B01321A700024032C09D818
:1020C0000FF040F806210CF0CFF91D4B19550134E3
:1020D000E4B2F3E71B4B00221A70002427E0194BEF
:1020E0001B78002BF9D1184B1A789300D218FA2AD2
:1020F00000D9FA22FF231A409B1A9BB2134A13807D
:10210000134A13800F4B01221A70E6E70C4D2B5D2A
:1021100072339B000F4A9958A2000F4BD1500FF019
:1021200011F806210CF0A0F929550134E4B2032C72
:10213000ECD9FFF7B1FF70BDD93D0020C23D0020B2
:10214000D4260020C5140020C3140020A83D002080
:10215000A43D0020A0180020142B0020034B198060
:10216000034B1860034B00221A707047A63D0020F5
:10217000E82A0020D73D002070B505000C0000883B
:102180000DF025FE1B490DF0B8FD1B490DF0CBFDF0
:102190000DF076FEC2B22B79A978C943C9B2594372
:1021A000090A5B1ADBB23F2528402D1AEDB25843CD
:1021B00080096B439B11DBB20818C0B2CB18DBB2AD
:1021C0003F2A10D9403AD2B23F2A06D81A060B0647
:1021D0001B0A0002134318430AE0090600041B020D
:1021E0000843184304E000061B040902184308438F
:1021F000206070BD00007F4300003F43F8B5CE462D
:10220000474680B50400234B1D78002D05D10023DF
:102210000360C0BCB946B046F8BD642DF9D08778DC
:10222000E678B81963789846C0180DF0D5FD1A49BC
:102230000DF063FD814628000DF0C9FD17490DF032
:102240005CFD051C011C48460DF0ACFD0028E0D1EA
:102250004946281C0DF051FD051C38000DF0B7FD56
:10226000291C0DF060FD0DF00BFEA07030000DF08C
:10227000AEFD291C0DF057FD0DF002FEE07040464A
:102280000DF0A5FD291C0DF04EFD0DF0F9FD60705F
:10229000BFE7C046C214002000007F430000C842D0
:1022A000F0B5D6464F464646C0B504000368002B3D
:1022B00035D083789846C778D819667880190DF09C
:1022C0008BFD051C40460DF082FD8046291C0DF05B
:1022D00014FD824638000DF07AFD071C291C0DF014
:1022E0000CFD814630000DF072FD061C291C0DF01E
:1022F00004FD051C514640460DF015FD0DF0C0FDD6
:10230000A0704946381C0DF00EFD0DF0B9FDE070CF
:10231000291C301C0DF007FD0DF0B2FD6070E0BC13
:10232000BA46B146A846F0BD30B585B01D4B1B7806
:10233000002B0FD10024032C09D80EF003FFFF213E
:102340000CF092F8184B19550134E4B2F3E7154B31
:1023500001221A7000241FE0134D2B5D134A1078E0
:10236000C018FF210CF058F8C9B2295502A8018005
:10237000FF23438083800023019301A9FFF7FCFE24
:1023800001A8FFF73BFF0A48A300019A1A50C018A2
:10239000FFF786FF0134E4B2032CDDD9FFF77CFEA2
:1023A00005B030BDD93D0020C02A0020C314002054
:1023B000142B002000220AE0930006495958064BCE
:1023C0005B68DB03FBD4044B19610132D2B2032AF0
:1023D000F2D97047EC2A002000002050F8B5DE4604
:1023E00057464E464546E0B506000D00141C807861
:1023F0000DF0EDFC8046F0780DF0E9FC071C7078DC
:102400000DF0E5FC061CA8780DF0E1FC8346E878A9
:102410000DF0DDFC824668780DF0D9FC814641461E
:1024200058460DF060FC211C0DF07DFC41460DF07E
:102430005FFC051C391C50460DF055FC211C0DF0AD
:1024400072FC391C0DF054FC071C311C48460DF081
:102450004AFC211C0DF067FC311C0DF049FC061CE8
:10246000281C0DF00DFDC5B2381C0DF009FDC4B2DD
:10247000301C0DF005FDC0B22D04000224062843D7
:102480002043F0BCBB46B246A946A046F8BD0000BA
:1024900000B583B000230093082806D88000174BAE
:1024A0001B589F46FF231B04009300230193144AEB
:1024B00001A96846FFF792FF0023002B18D003B054
:1024C00000BDFF231B020093EFE70E4B0093ECE7E8
:1024D000FF231B060093E8E70B4B0093E5E70B4B4C
:1024E0000093E2E70A4B0093DFE70A4B0093DCE737
:1024F000094A043A10600133DFE7C046FC4301108B
:102500006666663F0000FFE60000FF4D00F115FF24
:1025100000D0FF2B00FF6100142B002010B5054BED
:102520001870FFF7B5FF044B00221A70FFF7B4FDD7
:1025300010BDC046DC3D0020D93D0020F8B52B4B36
:1025400018880DF049FC011CFE2080050DF0D5FB1C
:10255000041C274B1B78002B0AD1264B1D78234BDC
:102560001B889D4216D9244B1878002830D0F8BD1E
:10257000224B1878FFF78CFF214A224B23CB23C232
:102580001B68136000231B4A1370194A13701A4A00
:102590001370E2E728000DF01AFC211C0DF0C3FBBC
:1025A000061C00240BE0A7001749C9191448C019DC
:1025B000321CFFF713FF134BD8510134E4B2032C44
:1025C000F1D901350B4B1D70FFF7F4FE0020CEE76B
:1025D0000C4A0D4B13CB13C21B681360FFF7EAFEC6
:1025E000054B01221A700120C1E7C046A43D00201E
:1025F000DA3D0020C7140020C4140020DC3D002078
:10260000042B0020EC2A0020142B0020F0B5C64635
:1026100000B506000F001500984600240AE0335D5F
:102620009B004246EA50305D80002818FFF738FED4
:102630000134E4B2BC42F2D380BCB846F0BD000025
:10264000031C642800D96423014A13707047C046F4
:10265000C214002030B583B0050000240CE00195C1
:1026600001A8FFF7CBFD0648A300019A1A50C01835
:10267000FFF716FE0134E4B2032CF0D903B030BDED
:10268000142B002010B509480388094A12789B18BA
:10269000FF2213400380074C2100FFF76DFD2068E7
:1026A000FFF7D8FFFFF7F8FC10BDC046BC140020B0
:1026B000C3140020BC2A002010B51A4B1B78002B35
:1026C00017D1194A1370174A01211170174A137054
:1026D000154C237872339B00154A9858FFF7BAFFC0
:1026E0002078013006210BF097FE2170FFF7D4FC13
:1026F00010BD0E4B1B78002BEAD10E4B1B789A00B5
:102700009B18FA2B00D9FA23FF221A40FF239B1AA9
:102710009BB2094A1380094A1380044B01221A70A4
:10272000D6E7C046D93D0020C23D0020C614002097
:10273000A0180020C3140020A83D0020A43D0020C4
:1027400010B50F4B1B78002B10D10E4B1B68002BC4
:1027500002D10C4B0C4A1A600A4B1868FFF77AFF3B
:10276000FFF79AFC064B01221A7010BD0020FFF7FC
:1027700071FFFFF791FC024B00221A70F5E7C0468B
:10278000FC3D0020FC2A00200000FFE670B5184B3D
:102790001C78002C05D0174B1B78002B19D020007B
:1027A00070BD154B154A23CA23C3190013680B606B
:1027B000134B1868FFF74EFF124B1A88124B1A8002
:1027C000FFF76AFC0A4B01221A700A4B00221A70AA
:1027D000E5E70E4B084A23CA23C3190013680B60B0
:1027E000FFF75AFC034A137801331370D7E7C0464A
:1027F000D73D0020033E0020A0390020EC2A002015
:10280000002B0020A63D0020A43D0020142B00201A
:1028100010B50D4B1C78002C06D00C4B1B68002B00
:1028200000D09847200010BD0020FFF713FF0020C4
:10283000FFF72EFEFFF730FC054B1A88054B1A8078
:10284000014B01221A70EDE7D73D0020682B0020D4
:10285000A63D0020A43D002070B50C000F2803D831
:102860008000284B1B589F460126274D2BE0012650
:10287000264D28E00126264D25E00126254D22E0A3
:102880000126254D1FE00126244D1CE00126244D84
:1028900019E00126234D16E00126234D13E0012601
:1028A000224D10E00126224D0DE00126214D0AE0C7
:1028B0000126214D07E00126204D04E00126204D90
:1028C00001E004261F4D002A12D023001E4A3100C9
:1028D0002800FFF79BFE23001C4A31002800FFF769
:1028E00095FE23001A4A31002800FFF78FFE70BDC5
:1028F0002300164A31002800FFF788FEFFF7CCFBC3
:10290000F5E7C04620440110A4440110844401109E
:102910009444011080440110884401109C4401102B
:10292000AC440110A8440110784401107C4401100B
:102930008C440110B0440110A0440110B4440110B3
:102940009844011090440110042B0020142B002007
:10295000EC2A002070B50C4B196840220B480DF092
:10296000B5FD00240CE0A300084DED182800FFF78A
:1029700045FC296800222000FFF76EFF0134E4B215
:102980000F2CF0D970BDC046242B0020282B00202E
:1029900010B5024B1860FFF7DDFF10BD242B00209F
:1029A00010B5074B1B78002B00D010BD0548FFF772
:1029B000EFFFFFF771FB024B01221A70F5E7C046EB
:1029C000D93D002048190020144AF0235B00D35C55
:1029D000834209D0002B03D1E133FF330521D154C9
:1029E0000E4AF0235B00D0540C4AF0235B00D25C0B
:1029F0000B4B1A700B4B1B78052B0AD00A4B152278
:102A00001A80094B1A88094B1A80094B00221A7048
:102A10007047084B1A88044B1A80F2E7A018002070
:102A2000C3140020D83D0020A83D0020A43D002074
:102A3000D93D0020AA3D002010B5054B186049087B
:102A4000044C2000FFF78AFB034B1C6010BDC046FE
:102A5000002B00208D270010E82A002010B5064B1F
:102A60001870064B00221A60054B196019210548A1
:102A7000FFF774FB10BDC046DD3D0020E42A0020B6
:102A8000682B00201128001070B582B004000D00E2
:102A9000244B1B78002B0CD0234B1C700023234AA3
:102AA0001370234A1370052C16D8A400214B1B5910
:102AB0009F46214E214930000EF02EFC02000023DB
:102AC0000093153300213000FFF73CFA154B01222B
:102AD0001A70FFF76FFCDFE7194B1A4A1A601A4A9F
:102AE000F0235B00D05CFFF76FFF2800642D00DD52
:102AF0006420C0B2FFF7A4FD02B070BD104B134AB2
:102B00001A60ECE70E4B124A1A60E8E70C4B114AC8
:102B10001A60E4E70A4B104A1A60E0E7084B0F4AD4
:102B20001A60DCE7DB3D0020D83D0020D93D0020C5
:102B3000DE3D00206044011000002050B844011028
:102B4000E42A0020A1290010A018002085260010EA
:102B50002923001041270010B9260010A5200010DD
:102B600010B5FF2903DC002902DA152100E0FF215E
:102B7000044B1980044B18601E210520FFF784FFC9
:102B800010BDC046AA3D0020FC2A002010B5144A02
:102B9000144900F0D5F9002800D110BDFFF7CEFC94
:102BA000002803D1104B1B78002BF6D00F4B1B686D
:102BB000002B0ED098470028EFD000240B4B1C6050
:102BC0000B4AF0235B00D05CFFF7FEFE094B1C7044
:102BD000E3E7094B1B68002BDFD09847DDE7C046D1
:102BE000483800201A410000DE3D0020E82A00207D
:102BF000A0180020D93D0020E42A002010B586B09E
:102C00000D4B1C78002C03D00024200006B010BD12
:102C100005AA0A4B1978117004AB19700849029182
:102C200001210191009301236931064800F05AFA0D
:102C30000028EADD0134E8E7F03D0020F04F011004
:102C4000102700000817002010B5FFF7D7FF002855
:102C500002D1024B01221A7010BDC046F03D002087
:102C600030B585B0104B1B78002B1BD11E250024DE
:102C700012E003AA0D4B13800D4B01930023009328
:102C800002336A210B4800F0A1F90400322009F058
:102C90001DFC0AF0A9F9013D002C01D1002DE8D15D
:102CA000FEF74CFB05B030BDF03D002009C1FFFF31
:102CB000A08601000817002010B584B00400174B4F
:102CC0001B78002B19D1164B1880232817D8C0B2B7
:102CD0000538C0B27F231840002C00D18520042382
:102CE0006A46137350730F4B019300230093023312
:102CF00003AA6A210C4800F069F904B010BDAF23A3
:102D00005B00984207D828380A210BF085FBC0B237
:102D10001F30C0B2DEE7AF204000F4E7F03D0020F6
:102D2000B03D0020102700000817002070B5094BA7
:102D30001B78002B0CD1084B1D880020FFF7BCFF2F
:102D4000FEF77AFA04002800FFF7B6FF200070BDF6
:102D50006424FBE7F03D0020B03D002000B585B0C5
:102D60000D4B1B78002B12D1022812D0E02103ABAF
:102D70000A221A705970094B019300230093023301
:102D800003AA6A21064800F021F90228F3D105B010
:102D900000BDE421EBE7C046F03D00201027000015
:102DA0000817002000B587B0114B1878002801D013
:102DB00007B000BD05AA0F4B1978117004AB19704C
:102DC0000D490291012101910093012369310B48C2
:102DD00000F088F90230012807D904AB1A78084BB3
:102DE0001A70D0B2C007C00FE2E70120E0E7C0468A
:102DF000F03D0020F04F01101027000008170020C0
:102E0000042E002010B52E4B1B78002B00D010BDD7
:102E1000FA212C4A490200F093F80028F7D0FFF776
:102E2000C1FF294B1870002820D0284B1B78002B9D
:102E300020D0264B1B78002B27D1244B1B78002B4E
:102E4000E5D0234B1B785B069A0F224909788A420A
:102E5000DDD0022A29D853B2002B2BD1FF20000449
:102E60001C4B1A706421FFF77BFED0E71A48FEF76F
:102E7000B7FADAE7FEF748FA0028DAD0154B002255
:102E80001A70124B01321A70D7E7FEF73DFA00288C
:102E9000D3D10E4B00221A70104AE2235B00D05CA3
:102EA00002214942FFF7F0FDC7E7032AD6D1FF20F0
:102EB0000002D5E7FF231B04E62000061843CFE7F6
:102EC000F03D002080380020BE3D0020FF3D002066
:102ED000042E0020F83D002015140010A01800203A
:102EE00010B50022002100200AF0D0F8FEE7000013
:102EF000072804D88000024B9C466044016070475C
:102F00000C80054010B5072802D90024200010BD10
:102F10008000044B9C466044046800210520FFF7B4
:102F2000E7FFF3E70C80054010B501000520FFF72F
:102F3000DFFFFFF7D5FF10B50520FFF7E3FF10BD5A
:102F400010605368834205D9C31A013B8B4205D2F6
:102F500000207047834204D2C31AF7E75060012073
:102F6000F7E70020F5E730B51860002A0BD15C6860
:102F700084420BD9041B013C0025002D0BD1A1423A
:102F800009D9100030BD58600020FBE7844205D20B
:102F9000041B0025F1E758600120F3E71000F1E77A
:102FA00010B501E00AF020F80A21034811F010F9E9
:102FB0000028F7D010BDC0464017002010B50248C9
:102FC00011F01EF910BDC04640170020F0B5D646DE
:102FD0004F464646C0B584B081460F00924698469B
:102FE0000CAB1E78FFF7DCFF0D9C002509F03EFBC3
:102FF00002000B1E18DB12196B41002B1ADB002B91
:103000001CDB029203930096434652463900484621
:103010000EF0DAFC0400FFF7D1FF200004B0E0BCA2
:10302000BA46B146A846F0BD074B084A3F210848BA
:103030000AF06CF801225242064BE0E7024B034AC9
:103040003F2103480AF062F8C844011048450110C6
:10305000E4440110FFFFFF7FF0B5D6464F464646D9
:10306000C0B584B081460F00924698460CAB1E78DE
:10307000FFF796FF0D9C002509F0F8FA02000B1EE1
:1030800018DB12196B41002B1ADB002B1CDB0292A0
:103090000393009643465246390048460EF0B3FC6F
:1030A0000400FFF78BFF200004B0E0BCBA46B14635
:1030B000A846F0BD074B084A3F2108480AF026F809
:1030C00001225242064BE0E7024B034A3F210348EC
:1030D0000AF01CF8C844011048450110E4440110EE
:1030E000FFFFFF7FF0B5DE4657464E464546E0B54A
:1030F00085B08046894692469B46FFF751FF109C5B
:10310000002509F0B3FA06000F1E31DBA4197D413A
:10311000002D33DB002D35DB029403950123009352
:103120005B465246494640460EF04EFC109C002538
:1031300009F09CFA02000B1E2ADB12196B41002BCE
:103140002CDB002B2EDB02920393002300930F9BBA
:103150000E9A494640460EF056FC0400FFF72EFF3B
:10316000200005B0F0BCBB46B246A946A046F0BD63
:103170000F4B104A3F21104809F0C8FF0124644258
:103180000E4DC7E70A4B0B4A3F210B4809F0BEFF23
:10319000074B084A3F21084809F0B8FF0122524274
:1031A000064BCEE7024B034A3F21034809F0AEFF2E
:1031B000C844011048450110E4440110FFFFFF7F9F
:1031C00010B5FEF755FE022801D0024810BD024896
:1031D000FCE7C046604501105046011010B50020C4
:1031E0000FF094FF10BD000010B51021064811F03B
:1031F0003FF8002800D110BD044B01221A7002488C
:1032000010F0FEFFF7E7C04648170020EE3D002013
:1032100010B51021064811F02BF8002800D110BD80
:10322000044B00221A70024810F0EAFFF7E7C0468C
:1032300048170020EE3D002070B5050064210D48C0
:1032400010F0C6FF041E09D10B4B22000B492800C9
:10325000FFF789FE051E08D1200070BD084B1C78C1
:10326000E4B2044810F0CCFFEEE7FFF7BDFF2C00FE
:10327000F2E7C04648170020483B0020A086010026
:10328000EE3D0020037801330370044B1B785BB2E2
:10329000022B01D0024870470248FCE78415002049
:1032A00098470110D04801100C4B18600C4B984205
:1032B0000BD00C4B98420CD0FA235B00984200D004
:1032C0007047094B01221A60FAE7074B04221A6083
:1032D000F6E7054B08221A60F2E7C046982C00205A
:1032E000461000008D200000902C002010B5040036
:1032F000002002F067FE022C2CD0062C1DD0012CE1
:1033000010D0012002F05EFE1848FFF7CDFF184BE9
:10331000184A1A60184B194A1A60194B1C7010F0A1
:1033200001FB10BDFA204000FFF7BEFF104B154A0D
:103330001A60114B144A1A60EFE7012002F042FEB6
:103340001248FFF7B1FF0A4B114A1A600A4B0B4AA9
:103350001A60E2E7FA204000FFF7A6FF044B0D4A8F
:103360001A60054B0C4A1A60D7E7C0468D20000052
:10337000942C0020119C00109C2C0020DD310010AA
:103380008415002005A80010953A00104610000092
:10339000B9AE0010FD810010213F0010F8B5060005
:1033A0000C0015000120002140420FF023FA234BAE
:1033B0009F6C234B1B68BB421CD2FB1A214A12682C
:1033C0009A4202D8204B01221A70204B1968204AD9
:1033D0003000FFF7B5FD002802D01E4B01221A7005
:1033E0001D4B1B78002B0AD11C4B1B6898471A4BAE
:1033F0001870F8BDFB1A1A4A94466344DEE73000A1
:10340000FFF71AFF0028F4D00F4B1B78002BF0D0E9
:10341000104B1B78002BECD0094B1F6000230A4A8D
:1034200013700C4A13700C4A1370FFF7F1FE0D4B2A
:103430001B68290020009847DBE7C04600001150B8
:1034400094330020902C0020FD3D0020982C00207B
:103450009C3D0020063E0020EF3D00209C2C0020DB
:10346000FF070000942C0020084B1B785BB2022B56
:1034700007D0062B07D0012B01D00548704705481F
:10348000FCE70548FAE70548F8E7C0468415002040
:10349000F8510110E0470110BC480110705B0110A9
:1034A000084B1B785BB2022B07D0062B07D0012BF1
:1034B00001D0054870470548FCE70548FAE705488C
:1034C000F8E7C04684150020B8510110B04701103C
:1034D00090480110445B01100020704710B5134B59
:1034E0001B785BB2022B13D0062B18D0002B05D013
:1034F0000B78002B0FD1FFF777FE0CE00B78302B09
:1035000003D0212B01D0812B05D1FFF76DFE02E006
:103510000B78212B00D010BDFFF766FEFBE70B7880
:10352000012BF8D1FFF760FEF5E7C04684150020B7
:1035300070B51D0004AB1E88434B00241C57012CA2
:1035400040D0022C12D0002C00D070BD0029FCD13C
:10355000002AFAD12878102804D03200290001F07E
:103560000FF8F2E7A81C01F0E9FFEEE70029ECD123
:10357000002AEAD12B78112B05D0132BE5D1334843
:103580000DF0F4F8E1E76B78002B19D0304B31489F
:10359000012505701904090CC1831A0C028400224C
:1035A00042832D4C84832D490D701A04120CCA835A
:1035B0001B0C0B8400234B838C83FDF735FAC4E787
:1035C0000023E4E70029C0D1002ABED12B78002BCC
:1035D000BBD16B78082BB8D1EC78002C30D0A87810
:1035E0000CF0F5FB1E490CF088FB061C2B79002B18
:1035F00028D020000CF0EBFB19490CF07EFB041CDA
:10360000211C301C0CF0DEFB002800D0341C1148BB
:10361000012505702204120CC283230C03840023AD
:1036200043830D4A82830D490D7023041B0CCB8309
:10363000240C0C8400234B838A83FDF7F5F984E77F
:103640000026D3E70024DBE784150020144701108F
:103650006666263FB0390020024300007C3A002015
:1036600000007F43064B1B785BB2022B03D0062B76
:1036700003D1044870470448FCE70448FAE7C04611
:1036800084150020845B0110244801100C520110A5
:1036900070B5EE2824D0002825D080001E4BC558D8
:1036A000280010F065FDC0B21F2800D91F2000239C
:1036B00027E05A1C194CA15C0902E25C0A43440051
:1036C0001749625202330130112BF2D9154A144BBB
:1036D00013CB13C211001A680A609B888B8019E013
:1036E00000200023F0E70C4B196802220E480CF072
:1036F000EDFE012007E05A1CEC5C5100094BCC5256
:10370000D3B29842F7D801304000C0239B00184341
:10371000044B1880034870BDA814002058470110BE
:10372000BC1F0020E0260020E226002000B591B05A
:103730004022694600200FF077FF00200FF08AFF3B
:10374000064B1B785BB2002B01D011B000BD0448C2
:103750000CF0DCFF684606F01BFCF6E78415002041
:103760002C470110F0B583B005001400012966D183
:1037700013785B069B0F012B58D0022B03D0002B34
:1037800001D000205CE06378022B24D0072B03D00B
:10379000012B19D0002053E0227963791B021343D7
:1037A000042B03D0052B08D0002049E02433264AFF
:1037B000210028000FF042F942E08D33234A210016
:1037C00028000FF03BF93BE02823214A2100280084
:1037D0000FF034F934E0227963791B021343072B8D
:1037E00030D11C4B1B785BB2022B0FD06B469F1D58
:1037F000194E0222310038000CF068FE3B8832007E
:10380000083A210028000FF019F919E06B469F1DB6
:10381000124E0222310038000CF058FE3B88320074
:10382000083A210028000FF009F909E051780C4806
:103830000CF09CFF210028000FF0E4F800E00120CC
:1038400003B0F0BD0020FBE75C150020C814002089
:103850006C47011084150020A44501107C4601101E
:1038600044470110012815D0022907D000290BD1A7
:10387000022A29D0002A29D006207047022A1FD008
:10388000002A1FD00800F8E7022A21D0002A21D000
:103890000820F2E7022907D000290BD1022A1FD005
:1038A000002A1FD00720E8E7022A15D0002A15D0E9
:1038B0000320E2E7022AE0D0002A15D00020DCE74E
:1038C0000120DAE70320D8E70720D6E70520D4E770
:1038D0000020D2E70420D0E71000CEE70420CCE798
:1038E0000820CAE70620C8E70520C6E70120704780
:1038F00010B58422002102480CF0E2FD10BDC04644
:10390000C030002010B50020FFF7F2FF10BD00000E
:10391000F0B5C64600B580460D008B795D2B24D1ED
:103920000B79DF00FF1ABFB21937BFB2974221D817
:103930000C780C19002605E0104A53700136F6B2D7
:103940002378E4182B79B34210D96378052BF7D18B
:10395000210040460EF07CFC00280DD0A378DA0947
:10396000012AE9D0054A9370E8E70027380080BCB7
:10397000B846F0BD0027F9E70027F7E7C030002080
:1039800030B583B0040014484078884206D0124A0B
:1039900092788A420CD0012003B030BD0F4A002A31
:1039A00018D09AB20E490020FFF798FD0120F3E7E6
:1039B0000C4D9BB200932B00002200210020FFF74A
:1039C000B7FD2B00443B997840232A0020000EF0DD
:1039D000B3FCE1E70120DFE7C0300020DD34001058
:1039E000C43000200431002010B50EF095FB0028F3
:1039F00003D10023002B08D110BD0EF095FB002849
:103A000001D10123F6E70023F4E70B4B997800205E
:103A10000EF0CEFC0028EFD1074CA1780EF064FC2C
:103A200022004432A178402300200EF085FCA178CA
:103A300000200EF06DFCDFE7C030002070B50500FF
:103A40000C000EF071FB002806D1812100200EF041
:103A50004BFC002803D170BD0EF06EFBF5E7231C74
:103A6000402C00D940239CB2094E2200290030008E
:103A70000CF02CFD351F69782300320000200EF079
:103A80005BFC697800200EF043FCFFF7ADFFE2E736
:103A9000C430002010B5104B5C780EF03DFB0028C0
:103AA00006D10023002B13D0002C09D1002010E0F8
:103AB0000EF03AFB002801D10123F3E70023F1E7E0
:103AC000210000200EF074FC002803D1013000E03A
:103AD000002010BD0020FCE7C030002010B53C22C3
:103AE000002102480CF0ECFC10BDC0467C270020F1
:103AF00010B50020FFF7F2FF10BD0000F0B583B055
:103B000006000F001500FEF7B3F902284CD13B79EF
:103B1000DC00E41AA4B21234A4B2AC4248D80023A8
:103B2000002B09D00025002D44D0397879184B7826
:103B3000212B11D0002438E01A01D21A92001F481C
:103B400082185278002A02D00133DBB2E8E71A016A
:103B5000D11A89004518E6E7A9630B78C9183A79A4
:103B60006B1C0193AB1C0093032330000EF08AFB07
:103B7000002821D0BB79012B13D001232B71BB78F6
:103B80002B70AA6BD179137A1B020B43EB80A978B7
:103B900000290AD02A003032062330000EF0CCFB78
:103BA00003E0FB79EB70E8E70024200003B0F0BDF0
:103BB0000024FAE70024F8E70024F6E77C27002039
:103BC00070B582B005001D4C002000280AD00028E6
:103BD00030D162788A4213D0A2788A421AD001206A
:103BE00002B070BD0401241AA400144A1419A2786A
:103BF0008A42ECD062788A42E9D00130C0B2E4E770
:103C00000F4A002A18D0210008319AB2FFF766FC4B
:103C10000120E5E7260030369BB2009333000022F6
:103C20000021FFF785FCA1780623320028000EF062
:103C300083FBD5E70020D3E70120D1E77C270020D4
:103C4000DD340010F0B5C64600B582B006001500A0
:103C500012781F231340012B00D01FE12879002484
:103C6000002C0DD0FF24002C00D01CE12700602385
:103C700018001040134239D101290BD001200EE168
:103C800023011B1B9B008E4FDB5D9842EBD0013460
:103C9000E4B2E5E7EA786B78062B06D0062B00D075
:103CA00005E1222A12D00020F9E0212AF6D12301D1
:103CB0001F1BBF00824BDF19BA6B002A00D1F4E052
:103CC0001378290030000EF0B9FEE8E02000FFF77D
:103CD000C9FC02003B01DF1BBF00794BDF19FB88E9
:103CE000290030000EF0AAFE0120D8E0202800D0E4
:103CF000DFE06B780B2B00D9DDE09B00714AD358D5
:103D00009F46012901D00120C9E0EA78A978230162
:103D10001B1B9B0008336A4FFF18A879EB791B0225
:103D20000343181C252B00D9252080B2002909D077
:103D3000012B16D97B1C9C463970013880B20123B7
:103D4000984602E0BC460023984600906346200057
:103D5000FFF7C2FB030043449BB2002B05D10020B8
:103D60009DE0BC4600239846EFE73A00290030006A
:103D70000EF064FE012092E0012903D0032915D042
:103D800001208CE0AA79EB791B021343062B01D9A1
:103D9000002084E02201121B9200303248498A1828
:103DA000290030000EF04AFE012078E0EA78A97878
:103DB00023011B1B9B0030334148C318AE79E879BF
:103DC00000023043051C062800D90625ADB20029A3
:103DD00004D0012802D91878884205D00095200027
:103DE000FFF7A6FB01205AE00133013DADB2F5E734
:103DF000012901D0012052E0E97823011F1BBF00F7
:103E00002F4BDF197971304B002B04D0200000E0DC
:103E100000BF002843D0290030000EF0F3FD012040
:103E20003DE0012901D0012039E02201171BBF002C
:103E3000234AD21905320123290030000EF0FEFD7D
:103E400001202CE0012901D0012028E02201171BCC
:103E5000BF001B4AD21904320123290030000EF0A2
:103E6000EDFD01201BE0012903D0032907D001202B
:103E700015E0290030000EF0C5FD01200FE0A97803
:103E800023011F1BBF000E4BDF1939710F4B002B95
:103E900013D0200000E000BF012000E0002002B0AD
:103EA00080BCB846F0BD0020F9E70020F7E700200D
:103EB000F5E70020F3E70020F1E70120EFE7C04637
:103EC0007C270020F44701100000000000000000E3
:103ED00010B50301181A8000104B181844780EF022
:103EE0001BF9002806D10023002B13D0002C09D188
:103EF000002010E00EF018F9002801D10123F3E7AB
:103F00000023F1E7210000200EF052FA002803D12F
:103F1000013000E0002010BD0020FCE77C270020DD
:103F200010B50020FFF7D4FF10BD0000F8B5040065
:103F30000F0016001D0003011B1A9B001F4AD31817
:103F4000597800200EF0D0F9002825D0002F24D079
:103F50002B1C242D00D924239DB2184A2301191BA0
:103F6000890051180F721B1B9B000833D0180130B9
:103F70002A0031000CF0AAFA0135ADB20F4B200136
:103F8000021B920008329A18001B80001818417812
:103F90002B0000200EF0D0F9F8BD2B1C252D00D9E8
:103FA00025239DB22001001B80000830034B181808
:103FB0002A0031000CF08AFAE0E7C0467C27002096
:103FC00010B513000A0001000020FFF7AFFF10BD7D
:103FD000107003120F20184050700B0118435070DE
:103FE000091191707047000070B5124D80242401B2
:103FF0002A0021002000FFF7EBFFEA1C210020002F
:10400000FFF7E6FFAA1D21002000FFF7E1FF2A00CD
:10401000093221002000FFF7DBFF2A000C322100CB
:104020002000FFF7D5FF2A000F3221002000FFF704
:10403000CFFF70BD743D002010B540220021024822
:104040000CF03EFA10BDC046D82B0020014B187072
:104050007047C046E83D0020014B18737047C046CA
:10406000D82B0020014B58737047C046D82B002036
:1040700070B5FDF771F904000E4D2B68C01AC31717
:10408000C01858400AF0D8FC2C6000220A4B0AF0F5
:1040900044FC0AF00DFD094B00215A5E1C780849CA
:1040A0000C70801882B200B21880FF2801DDFF3A40
:1040B0001A8070BDDC38002000408F40AE3D0020EB
:1040C000D82B0020024B1A78024B5A707047C0461A
:1040D000404A0110D82B0020064B04229A732F323D
:1040E000DA73303A1A74013A5A74012119765A7601
:1040F0007047C046D82B002010B5C4B2000A002378
:1041000007E019000E31044A54540131505402336F
:10411000DBB20D2BF5D910BDD82B00200A4B0122A4
:104120001A7000225A7003329A70084A117AD970B4
:10413000D179197191795971517999711179D9712F
:10414000D2781A727047C046D82B0020A0180020E1
:1041500010B50400FFF770FF8120FFF777FF012CF7
:1041600009D0064B1C70064B19784023034A0020E7
:104170000EF0F4FF10BDFFF7D1FFF4E7D82B0020BD
:10418000E83D002070B586B06C462A4B043322000F
:1041900070CB70C270CB70C2022837D0032841D0D8
:1041A0000023002500E00133052B10D8224AD21845
:1041B0007D32FF3214780522D21A885C8442F2D014
:1041C0001D4AD2187D32FF3210700125EBE7002D19
:1041D00019D18120FFF740FF184801238373164B44
:1041E0001A7AC273DA7902749A7942745A798274AB
:1041F0001A79C274DB7803751530182269460CF001
:1042000065F906B070BDFDF74DFDE2E78120FFF7CF
:1042100023FF0A48022383730F30102208490CF051
:1042200055F9EEE78120FFF717FF044B03229A733D
:10423000E7E7C046404A0110A0180020D82B002014
:10424000582C002070B504000E001500FFF7F4FE96
:104250002120FFF7FBFEFFF70BFFFFF733FF2000E6
:10426000FFF700FF482C68D8A4003E4B1B599F461F
:104270008020FFF7F1FE00236BE0F07A431E9841A7
:10428000C0B201F09FFEF27A374B1A708020FFF720
:10429000E3FEF0E731000C31F07AFFF773FFEAE755
:1042A0008020FFF7D9FEF27A304B1A70E3E78220C4
:1042B000FFF7D2FEFFF710FFDDE78020FFF7CCFE0F
:1042C000D9E79020FFF7C8FEF27BF17A307B00F04F
:1042D00039FAD0E72648FDF783F8CCE78020FFF7CE
:1042E000BBFEC8E78320FFF7B7FE6420FFF704FF9B
:1042F000C1E78020FFF7B0FEBDE78020FFF7ACFEEE
:10430000F27A0F231340033BDAB20C2A03D893004E
:10431000184AD3589F460120FEF700F9ABE7032067
:10432000FAE70420F8E70520F6E70620F4E707207F
:10433000F2E70820F0E70220EEE70023AB4202D2CA
:1043400001339BB2FAE78020FFF786FE93E7013343
:10435000DBB21F2BFBD94023074A212100200EF09E
:10436000FDFE70BDE8480110E93D002088150020E1
:10437000151400100C4A0110D82B002070B50C0049
:10438000150010280DD080280FD0012800D070BD56
:10439000881C01F0D3F8A07A2A002100FFF752FF11
:1043A000F5E7881C01F0CAF8F1E74878FFF7D0FE7E
:1043B000EDE70000094B1B780A2B07D00B2B09D027
:1043C000064B0A221A70054B18787047034B0B22D4
:1043D0001A70F8E7014B0C221A70F4E789150020D7
:1043E00070B504005D4B1B78002B04D15C4B1B782F
:1043F000302B0BD070BD5B4B1A885B4B18785B4938
:10440000FFF7BCFF554B00221A70F3E7FFF714FECD
:104410003020FFF71BFEFFF72BFEFFF753FE544B38
:104420001B78012B2DD0022B00D18AE02378514D2F
:10443000AB706378EB70A3782B71E3786B712379A1
:104440000F210B40AB716079A3791B0203431B1151
:10445000EB71E3792B72237A19406972617AA37A3E
:104460001B020B431B11AB72FFF7A4FFE872424B18
:10447000197840232A0000200EF070FE03F040FA65
:10448000B8E701F043FC83783A4D2B73C3786B7324
:104490000378AB734378EB7303792B7443796B74B4
:1044A000037AAB74437AEB7483792B75C3796B759C
:1044B000837AAB75C37AEB7501F028FC83782B7691
:1044C000C3786B760378AB764378EB7603792B77FA
:1044D00043796B77037AAB77437AEB778279202342
:1044E000EA54C2790133EA54827A0133EA54C27A37
:1044F0000133EA5401F00AFC82782423EA54C2789A
:104500000133EA5402780133EA5442780133EA5421
:1045100002790133EA5442790133EA54027A0133D1
:10452000EA54427A0133EA5482790133EA54C27977
:104530000133EA54827A0133EA54C27A0133EA54ED
:1045400074E70E4D280001F033F80A4B0C3307CD09
:1045500007C307CD07C307CD07C367E7EA3D0020C0
:104560008815002086150020EB3D0020182C002027
:10457000E93D0020D82B0020E83D0020FC38002039
:1045800010B5054B01241C70044B1870044B1A80A5
:1045900004480BF09BFF10BDEA3D0020EB3D0020DE
:1045A00086150020182C002010B5024B18180BF0AF
:1045B0008DFF10BDD82B0020502800D1B0E003D9CA
:1045C00060282FD0FF2010E0402800D9AAE0202842
:1045D00005D34B2924D88B00564AD3589F46002830
:1045E00003D0102800D09FE0002070479520FCE702
:1045F0000020FAE72A39504B59187D31FF310878ED
:10460000F3E704394C4B59187D31FF310878ECE75A
:104610000020EAE70020E8E76820E6E70020E4E77A
:104620000020E2E7A92979D88B00444AD3589F4655
:10463000FF20DAE70220D8E70120D6E72320D4E7DD
:104640000020D2E7B920D0E71A20CEE70120CCE73E
:104650000020CAE74020C8E70020C6E74020C4E7A2
:104660000020C2E74020C0E70120BEE70020BCE7F1
:104670000120BAE70020B8E70120B6E70020B4E740
:104680003B20B2E73420B0E73B20AEE73420ACE774
:104690003B20AAE73420A8E73D39294B585CA4E722
:1046A0003D39274B585CA0E71A209EE71A209CE76B
:1046B0001A209AE75E2098E7012096E7502094E7B9
:1046C000FD2092E7002090E700208EE7C6208CE7CF
:1046D0000F208AE70F2088E7302086E7612084E7F3
:1046E000AE2082E7902080E7D9207EE7D4207CE7C7
:1046F00014207AE7542078E7412076E7152074E704
:10470000542072E7C72070E779206EE79C206CE7A1
:1047100033206AE7362068E7632066E7002064E715
:10472000002062E7FF2060E7FF205EE722205CE7D1
:1047300003205AE75C4A0110A01800208C4B01109E
:10474000743D0020F0B58BB006000F00150008A9DD
:104750000F70487000248C70CC700A7105220E20F6
:10476000FFF722FF00941A22002101A80BF0A8FEF7
:1047700007E03919C9B23000FFF71EFF6B46185524
:104780000134A542F5DC2A0069461320FFF70CFF2F
:104790000BB0F0BD70B5002406E0281C0BF0F0FC57
:1047A000A3000F4AD0500134A0235B009C4215D2D5
:1047B00020000BF00CFBF42189050BF0B4FA8221E8
:1047C000C9050BF090FA051C06490BF0F3FA002816
:1047D000E3D1A300024A00219950E4E770BDC0462E
:1047E000BC1A00200000FEC010B5002405E0A300A4
:1047F0001B4AC1210906995001347F2C2FD8002C67
:10480000F5D00F2C0FD91F2C1BD920000BF0DFFA8D
:10481000F42189050BF087FA12490BF064FAA30022
:104820000F4AD050E8E720000BF0D1FAFA218905B1
:104830000BF079FA0C490BF056FAA300084AD05055
:10484000DAE720000BF0C3FAF62189050BF06BFACA
:1048500006490BF048FAA300014AD050CCE710BD3E
:10486000D01F002000007E400000F84000009E4065
:1048700010B500240EE020000BF0A9FAF421890500
:104880000BF051FA8021C9050BF02DFAA300034A61
:10489000D05001347F2CEED910BDC046D02100206D
:1048A00010B5041C0BF0BAFA0BF096FA8221C90578
:1048B0000BF01EFA0BF0B2FA00280BD08221C905CA
:1048C000201C0BF015FA8421C9050BF02CFA0BF013
:1048D000D7FA10BD0020FCE710B51C1C022818D028
:1048E000032805D0002801D0201C10BD141CFBE7B4
:1048F000101C0BF0FDF9041C02990BF04DFA002876
:1049000009D10399201C0BF05DFA0028ECD0039C20
:10491000EAE70C1CE8E7029CE6E710B5FFF73AFF70
:10492000FFF762FFFFF7A4FF10BD000070B50500A0
:104930000C0000786B781B020343AA78120413431F
:10494000E87800061843FFF7ABFF284E8000805937
:1049500027490BF0E8F92070030A6370030CA37079
:10496000000EE070287A6B7A1B020343AA7A1204C5
:104970001343E87A00061843FFF792FF800080593E
:104980001C490BF0D0F92072030A6372030CA37266
:10499000000EE07228796B791B020343AA79120496
:1049A0001343E87900061843FFF77AFF8000335875
:1049B00023711A0A62711A0CA2711B0EE371287B13
:1049C0006B7B1B020343AA7B12041343E87B0006A4
:1049D0001843FFF765FF8000335823731A0A627388
:1049E0001A0CA2731B0EE37370BDC046BC1A0020E4
:1049F0000000A04300002043F0B5DE4657464E4677
:104A00004546E0B589B005000C00C678B3091E0024
:104A10000B700C22002105A80BF052FD0C22002186
:104A200002A80BF04DFD002E0CD1012E00D99FE005
:104A3000022E00D932E109B0F0BCBB46B246A9460D
:104A4000A046F0BDAA781209EB78012119400901AE
:104A50000A43DD4B984653009B189B00434405AA2C
:104A600083CB83C200239B46A278E3781B021343C7
:104A7000217909040B43627912061A436B46587D6B
:104A80008023DB050193C021090600915B4607994D
:104A9000FFF722FFA21CA070030A9146E370030CEB
:104AA0002371000E6071C12212069246A279E37949
:104AB0001B021343217A09040B43627A12061A433C
:104AC00006996B46187D5F460197574600975346F7
:104AD000FFF702FFA071020AE271020C2272000EBF
:104AE0006072EA789206D20E53009B189B004344F2
:104AF00002AA83CB83C2A27AE37A1B021343217BEF
:104B000009040B43627B12061A436B46587A8023D2
:104B1000DB050193C021090600915B460499FFF76C
:104B2000DBFEA072020AE272020C2273000E6073B6
:104B3000A27BE37B1B021343217C09040B43627CB1
:104B400012061A4303996B46187A5B460193534643
:104B50000093FFF7C1FEA073020AE273020C2274F5
:104B6000000E6074210012314846FFF7DFFE5CE75B
:104B70006B785B06DA0E944B984653009B189B00AB
:104B8000434405AA83CB83C200239B46A278E378E3
:104B90001B021343217909040B43627912061A435D
:104BA0006B46587D8023DB050193C02109060091E7
:104BB0005B460799FFF790FEA21CA070030A91467E
:104BC000E370030C2371000E6071C122120692463D
:104BD000A279E3791B021343217A09040B43627A19
:104BE00012061A4306996B46187D5F460197574691
:104BF00000975346FFF770FEA071020AE271020CA3
:104C00002272000E60726A78D209A9780F230B40D5
:104C10005B0013435A00D3189B00434402AA83CB82
:104C200083C2A27AE37A1B021343217B09040B435C
:104C3000627B12061A436B46587A8023DB05019388
:104C4000C021090600915B460499FFF745FEA0725A
:104C5000020AE272020C2273000E6073A27BE37BF5
:104C60001B021343217C09040B43627C12061A4386
:104C700003996B46187A5B46019353460093FFF7FE
:104C80002BFEA073020AE273020C2274000E607401
:104C9000210022314846FFF749FEC9E62A78D206AC
:104CA000D10E05AF930E5B189B00474A94466344B0
:104CB0003A0043CB43C200239A46A278E3781B0212
:104CC0001343217909040B43627912061A43787859
:104CD0008023DB059B460193C0231B0600935346AC
:104CE0000799FFF7F9FDA21C9046A070030AE37034
:104CF000030C2371000E6071C12212069146A27945
:104D0000E3791B021343217A09040B43627A1206EA
:104D10001A4306993878574601974F4600974B46F5
:104D2000FFF7DAFDA071020AE271020C2272000E96
:104D300060722A785209697803230B40DB00134321
:104D400002AD5A00D3189B001F4AD6182A0083CE02
:104D500083C2A27AE37A1B021343217B09040B432B
:104D6000627B12061A43687859460191C0231B06DC
:104D7000009353460499FFF7AFFDA072020AE27256
:104D8000020C2273000E6073A27BE37B1B021343B1
:104D9000217C09040B43627C12061A43039928788C
:104DA000534601934B460093FFF796FDA073020A0A
:104DB000E273020C2274000E60742100323140460E
:104DC000FFF7B4FD37E6C046344E011070B502005F
:104DD000C3789B090B700478A40840780123034032
:104DE0009B0123431A4D9B00881CEB588B701C0AB7
:104DF00044701C0C84701B0EC37093785B06DB0D33
:104E0000EB588B721D0ACD721D0C0D731B0E4B736C
:104E100053785B080F4C9B00E3588B711E0ACE71D0
:104E20001E0C0E721B0E4B729578ED09D2783F2343
:104E300013405B002B439B00E3588B731C0ACC731D
:104E40001C0C0C741B0E4B741231FFF76FFD70BD00
:104E5000D0210020D01F0020F0B5DE4657464E4638
:104E60004546E0B589B005000C000C22002105A8DC
:104E70000BF026FB0C22002102A80BF021FBEE78A0
:104E8000B3091E1E23706ED02B78DB0700D473E0AD
:104E90002B785B089B00B649CB58A370190AE170C8
:104EA000190C21711B0E6371A978C909EA783F2397
:104EB00013405B000B439B00AE49CB58A371190A0A
:104EC000E171190C21721B0E6372AA785206D20E80
:104ED00002AB994653009A189200A74B9B184A467A
:104EE00083CB83C200239846A27AE37A1B02134342
:104EF000217B09040B43627B12061A434B46587808
:104F00008023DB050193C0231B06009343464946DB
:104F10008968FFF7E1FCA072020AE272020C2273B8
:104F2000000E6073C1231B06A27BE17B09021143C3
:104F3000207C00040143627C12060A43494649680A
:104F400048460078474601970093FFF7C5FCA073D9
:104F5000020AE273020C2274000E6074A01C21008D
:104F60001231FFF7E3FC012E6DD809B0F0BCBB464F
:104F7000B246A946A046F0BD2B785B089B007C4A50
:104F8000D358A372190AE172190C21731B0E6373B3
:104F9000A978C909EA783F2313405B000B439B00C3
:104FA000744AD358A373190AE173190C21741B0EA8
:104FB0006374AA785206D20E05AB994653009A182C
:104FC00092006D4B9B184A4683CB83C200239846C0
:104FD000A278E3781B021343217909040B43627919
:104FE00012061A434B4658788023DB050193C023F1
:104FF0001B060093434649468968FFF76DFCA07085
:10500000020AE270020C2271000E6071C1231B06BD
:10501000A279E17909021143207A00040143627AFE
:1050200012060A43494649684846007847460197B0
:105030000093FFF751FCA071020AE271020C227288
:10504000000E60728AE76A78D206D10E05AF930E21
:105050005B189B00484A944663443A0043CB43C2E2
:1050600000239A46A278E3781B02134321790904AE
:105070000B43627912061A4378788023DB059B463E
:105080000193C0231B06009353460799FFF724FCA6
:10509000A21C9046A070030AE370030C2371000E5B
:1050A0006071C12212069146A279E3791B02134373
:1050B000217A09040B43627A12061A43069938785A
:1050C000574601974F4600974B46FFF705FCA071E6
:1050D000020AE271020C2272000E60726A785209B2
:1050E000A97803230B40DB00134302AD5A00D31809
:1050F0009B00214AD6182A0083CE83C2A27AE37A83
:105100001B021343217B09040B43627B12061A43E3
:10511000687859460191C0231B06009353460499B1
:10512000FFF7DAFBA072020AE272020C2273000E91
:105130006073A27BE37B1B021343217C09040B43B6
:10514000627C12061A4303992878534601934B4612
:105150000093FFF7C1FBA073020AE273020C2274F2
:10516000000E6074210022314046FFF7DFFBFCE6B1
:10517000D0210020D01F0020344E0110F0B5DE46B3
:1051800057464E464546E0B589B005000C000C2256
:10519000002105A80BF094F90C22002102A80BF0C5
:1051A0008FF9EE78B3091E1E23701AD02B78DA0718
:1051B00035D55B0721D5A978C909EA783F23134083
:1051C0005B000B439B00BC49CB58A370190AE170EC
:1051D000190C21711B0E6371A01C21001231FFF705
:1051E000A5FB012E41D8022E00D9D4E009B0F0BCB5
:1051F000BB46B246A946A046F0BDA978C909EA78DF
:105200003F2313405B000B439B00AC49CB58A37179
:10521000190AE171190C21721B0E6372DCE75B073E
:1052200011D5A978C909EA783F2313405B000B43E5
:105230009B00A14AD358A372190AE172190C217379
:105240001B0E6373C8E7A978C909EA783F231340A6
:105250005B000B439B00994AD358A373190AE1736F
:10526000190C21741B0E6374B6E76A785209AB7887
:1052700003211940C9000A43914B984653009B18DB
:105280009B00434405AA83CB83C200239B46A2789C
:10529000E3781B021343217909040B436279120658
:1052A0001A436B46587D8023DB050193C021090614
:1052B00000915B460799FFF70FFBA21CA070030A41
:1052C0009146E370030C2371000E6071C122120637
:1052D0009246A279E3791B021343217A09040B4316
:1052E000627A12061A4306996B46187D5F4601974B
:1052F000574600975346FFF7EFFAA071020AE27192
:10530000020C2272000E6072AA785206D20E53006E
:105310009B189B00434402AA83CB83C2A27AE37A00
:105320001B021343217B09040B43627B12061A43C1
:105330006B46587A8023DB050193C0210906009152
:105340005B460499FFF7C8FAA072020AE272020CE7
:105350002273000E6073A27BE37B1B021343217C4C
:1053600009040B43627C12061A4303996B46187AB0
:105370005B46019353460093FFF7AEFAA073020A0F
:10538000E273020C2274000E607421002231484640
:10539000FFF7CCFA27E72A78D20805AF53009B180D
:1053A0009B00474A944663443A0043CB43C20023E0
:1053B0009A46A278E3781B021343217909040B4330
:1053C000627912061A4378788023DB059B460193A5
:1053D000C0231B06009353460799FFF77DFAA21CD2
:1053E0009046A070030AE370030C2371000E6071F5
:1053F000C12212069146A279E3791B021343217A56
:1054000009040B43627A12061A4306993878574604
:1054100001974F4600974B46FFF75EFAA071020ACC
:10542000E271020C2272000E60726B78DB06DA0EFB
:1054300002AD9B0E9B189B00214A944663442A00B0
:1054400043CB43C2A27AE37A1B021343217B0904B4
:105450000B43627B12061A43687859460191C023B8
:105460001B06009353460499FFF736FAA072020A0E
:10547000E272020C2273000E6073A27BE37B1B02BC
:105480001343217C09040B43627C12061A430399DF
:105490002878534601934B460097FFF71DFAA073F7
:1054A000020AE273020C2274000E60742100323191
:1054B0004046FFF73BFA99E6D0210020D01F00209C
:1054C000344E011010B5C3789B09022B26D0032B54
:1054D00030D0012B07D0002200208871C8710872DB
:1054E00048720A7010BD047842781202144383781F
:1054F0001B042343C4783F22224012061A431B0395
:1055000006D0930707D09307ECD5FFF737FEE9E7FE
:10551000FFF772FAE6E7FFF759FCE3E70478437810
:105520001B0223439B0502D1FFF766FADAE7FFF778
:1055300093FCD7E7FFF760FAD4E7000070B50400EA
:105540000822010016480AF0C1FF164B1B78002BF9
:105550000CD0154D29002000FFF7B4FF201D134982
:10556000FFF7B0FF2B78002B15D170BD0E4B00223A
:10557000DA80C12212021A810021D9811A8259804F
:1055800099801A00598100239381FFF7C6F9054BD2
:1055900001221A70DDE705490348FBF745FAE4E705
:1055A0006C3D0020C93D0020B8370020FC370020AA
:1055B000F0B5DE4657464E464546E0B585B0040098
:1055C000837903229343022213438371012500262A
:1055D00001E00135EDB2032D0CD8844BAA00D05860
:1055E000B200D158490049080AF0ECFB0028F0D07D
:1055F0002E00EEE7032333409A00A3790C218B435E
:105600001343A371002509E0794940460AF08BFB5A
:10561000AF000AF003FC01ABD8510135022D15DCB7
:105620007219013203231340704F9B00D8599D21FA
:10563000C9050AF078FB8046B300D85900210AF06A
:10564000ABFB0028E0D1FE218905DEE7019B9B1220
:10565000DB02D90A0F2211400901A07902400A4356
:10566000A271D90BE171D90D2172DB0F0126012145
:105670000B40607AB04303436372029B9D127F200C
:10568000824605406F00657A0D403D4365725B14AC
:105690009B049B0CA3721B0A3F273B40E57A4038D2
:1056A00085432B43E372039B9A12944603250322FE
:1056B0006046104080018446E07A07406046074318
:1056C000E7721B135B035F0BA774580DE0745B0F4D
:1056D0000720804603409B46207D84460720814664
:1056E00060464B4698430300584618432075C3B2A2
:1056F00040460340237500236375A375E37D18308E
:105700008343E375E77D1F233B40E3750023A377C5
:105710002700E37FAB43E377DBB21340E3771E3729
:10572000BB78B343BB701F36A35D0B40A355013656
:10573000A35D60308343A3552E4B1B681940C901FC
:105740008846A05D51460140080041460143A155ED
:105750005B089B059B0D3B711B0A13407979A9439C
:105760000B437B712323E15C0A400C210A43E25482
:105770001E4A138AA3701B0AE370538A23701B0A04
:105780006370938A23711B0A6371FBF7E5FD1A4B63
:105790001C68844227D9041B013C174B1860174B27
:1057A0001A68944664441C60FA239B009C4213D9F7
:1057B0001900200008F058FE104B1960601AFA21F9
:1057C000890008F051FE0B4C23689C466044206021
:1057D0000B4908F049FE216005B0F0BCBB46B2465B
:1057E000A946A046F0BD041BD7E7C0468C15002093
:1057F000000080BF78390020E038002044310020CC
:10580000FF070000F0B5DE4657464E464546E0B578
:1058100085B004000D00C3689A46CE68311C181C80
:105820000AF081FA071C236898462B689B46191CCE
:1058300040460AF078FA011C381C0AF054FA071C9A
:1058400063686A689146111C0093181C0AF06BFA91
:10585000011C381C0AF047FA0190A768AD68291CA2
:10586000381C0AF060FA011C01980AF03CFA019019
:10587000594650460AF057FA02904146301C0AF049
:1058800052FA011C02980AF033FA0290291C00987F
:105890000AF049FA011C02980AF02AFA0290391C0F
:1058A00048460AF040FA011C02980AF01CFA0290DD
:1058B000494650460AF037FA0390291C40460AF040
:1058C00032FA011C03980AF00EFA03900099301C7A
:1058D0000AF029FA011C03980AF00AFA0390391C0D
:1058E00058460AF020FA011C03980AF001FA0390C6
:1058F000291C50460AF017FA051C494640460AF092
:1059000012FA011C281C0AF0F3F9051C00995846EC
:105910000AF009FA011C281C0AF0E5F9051C391CDB
:10592000301C0AF000FA011C281C0AF0E1F9019B66
:10593000E360029B2360039B6360A06005B0F0BC42
:10594000BB46B246A946A046F0BD70B5040001684A
:10595000081C0AF0E8F9051C6168081C0AF0E3F964
:10596000011C281C0AF0C4F9051CA168081C0AF0D7
:10597000DAF9011C281C0AF0BBF9051CE168081CB7
:105980000AF0D1F9011C281C0AF0B2F90AF08AFACF
:10599000011CFE2080050AF0B0F9051C011C2068DE
:1059A0000AF0C1F92060291C60680AF0BCF9606047
:1059B000291CA0680AF0B7F9A060291CE0680AF069
:1059C000B2F9E06070BD0000F0B5DE4657464E46C5
:1059D0004546E0B589B080460D0008000AF0F7F9A9
:1059E000041C934E30680AF0F2F9011C201C0AF0E6
:1059F0007AF944006408356043461A7A587A0002FE
:105A00001043000400140AF0E7F98A490AF08BF900
:105A100089490AF072F90AF03BFA884A884B08F083
:105A20009AFF0022874B08F078FF0022864B08F08F
:105A300074FF06000F00201C0AF02AFA04000D0073
:105A400002000B003000390008F085FF09F048F82B
:105A5000824643469A79D879000210430004001424
:105A60000AF0BAF973490AF05EF973490AF045F988
:105A70000AF00EFA714A724B08F06DFF0022714B6A
:105A800008F04BFF0022704B08F047FF02000B00AC
:105A90002000290008F05FFF09F022F88146434604
:105AA0009A7AD87A00021043000400140AF094F99C
:105AB00060490AF038F960490AF01FF90AF0E8F97C
:105AC0005E4A5F4B08F047FF00225E4B08F025FF5F
:105AD00000225D4B08F021FF02000B00200029008E
