:020000041000EA
:1000000000B5324B212058609868022188439860DF
:10001000D860186158612E4B002199600221596106
:100020000121F02299502B49196001219960352056
:1000300000F044F80222904214D00621196600F024
:1000400034F8196E01211966002018661A6600F04E
:100050002CF8196E196E196E052000F02FF8012189
:100060000842F9D1002199601B49196000215960AB
:100070001A491B48016001219960EB211966A021F2
:10008000196600F012F800219960164914480160C1
:100090000121996001BC002800D000471248134993
:1000A000086003C880F30888084703B5996A0420EC
:1000B0000142FBD001200142F8D103BD02B5186610
:1000C0001866FFF7F2FF186E186E02BD00000240BE
:1000D000000000180000070000035F00212200005C
:1000E000F4000018222000A00001001008ED00E03C
:1000F00000000000000000000000000074B24E7A12
:1001000000200420F7010010C3010010C5010010F9
:10011000C1010010C1010010C1010010C101001097
:10012000C1010010C1010010C1010010C701001081
:10013000C1010010C1010010C9010010CB01001065
:10014000CD010010CD010010CD010010CD01001037
:10015000CD010010CD010010CD010010CD01001027
:10016000CD010010CD010010CD010010CD01001017
:10017000CD010010CD010010CD010010CD01001007
:10018000CD010010CD010010CD010010CD010010F7
:10019000CD010010CD010010CD010010CD010010E7
:1001A000CD010010CD010010CD010010CD010010D7
:1001B000CD010010CD010010CD010010CD010010C7
:1001C00000BE00BE00BE00BE00BE00BEEFF3058054
:1001D000103800BEF2EB88711C8201103C820110C5
:1001E0003402001090A31AE700201F49086006C8D7
:1001F00081F3088810471D48006800282FD10DA4FE
:100200000ECC002902D000F012F8F9E71849194A7B
:10021000002000E001C19142FCD1174988471749ED
:1002200088471749884700BEFDE701C901C29A42C5
:10023000FBD370473C820110C000002058180020FA
:10024000D49901100000042000000420D49901106A
:10025000001004200010042000000000704709482E
:100260000EF0B0FC0047000008ED00E0000000D0F8
:1002700078180020546600204DD9001005090010A0
:1002800009D900105756000006005250ABB3605316
:100290003078011006005250861C0302407801108D
:1002A000060052505422A29D587801100500525069
:1002B000DE65F468D4990110F8B5C04610B5064C57
:1002C0002378002B07D1054B002B02D0044800E017
:1002D00000BF0123237010BD781B00200000000028
:1002E000684D0110044B10B5002B03D0034904489E
:1002F00000E000BF10BDC046000000007C1B0020D5
:10030000684D011010B504001F210BF02FFB0022D7
:10031000002120000BF042FB002120000BF058FBD5
:1003200010BD10B504000BF06BFB00220121200072
:100330000BF034FB0123A340D02212065362536119
:1003400010BD10B504000BF05BFB00220121200062
:100350000BF024FB0123A340D0221206936210BDB0
:1003600070B5040000290CD00BF04AFB0123A34018
:10037000D022120693620022002120000BF00EFB17
:1003800070BD0BF03DFB0125A540D02636067562F9
:100390000022002120000BF001FBB561F0E770B5F1
:1003A00000280FD0D024240680256D0465616420C8
:1003B0000CF06EFC80239B04636164200CF068FCED
:1003C000A56170BDD024240680256D04656164207C
:1003D0000CF05EFC80239B04A36164200CF058FCAD
:1003E000A561EEE710B5002804D001211A20FFF71F
:1003F000B7FF10BD00211A20FFF7B2FFF9E7000098
:1004000010B51220FFF78DFF1120FFF78AFF102093
:10041000FFF787FF0F20FFF784FF0E20FFF781FF14
:100420000D20FFF77EFF0C20FFF78BFF0B20FFF75F
:1004300088FF0A20FFF785FF1849194811F0E4FDED
:10044000012106200BF092FA012107200BF08EFA11
:10045000012104200BF08AFA01200BF0D1FAD024FC
:10046000240602236362636109200BF0C9FA80232A
:100470009B006362636100200BF0C2FA0123636298
:10048000636102200BF0BCFA04236362636100F035
:10049000AFFF1A200BF0B4FA10BDC046C0C62D0045
:1004A00000C00340F8B5DE4657464E464546E0B527
:1004B0000400D0252D068023DB029946AB61052080
:1004C00000210CF0B9FB6B68DB0A012633405A426D
:1004D000534101273B402278B243134323706B689A
:1004E0001B0B33405A425341DB0162787F218B461C
:1004F0000A40134363706B689B0A33405A4253416E
:100500003B401B0162786F3988468A43134363700E
:100510004B466B6180239B029946AB61052000210D
:100520000CF08AFB6B68DB0A33405A4253413B4074
:100530005B00227802218A468A43134323706B684A
:100540001B0B33405A4253413B401B01227841462A
:100550008A43134323706B689B0A33405A425341CA
:100560003B405B01627810318A43134363704B4612
:100570006B6180235B029946AB61052000210CF082
:100580005BFB6B68DB0A33405A4253413B409B00A4
:10059000227804218A43134323706B681B0B33407A
:1005A0005A4253413B409B012278402082431343EF
:1005B00023706B689B0A33405A4253413B405B00B7
:1005C000A27851468A431343A3704B466B61802344
:1005D0001B029946AB61052000210CF02DFB6B68D6
:1005E000DB0A33405A4253413B406278B2431343E3
:1005F00063706B681B0B33405A425341DB01227816
:1006000059460A40134323706B689B0A33405A4291
:1006100053413B40A278B2431343A3704B466B61F6
:100620008023DB019B46AB61052000210CF004FB1D
:100630006B68DB0A33405A4253413B409B0162786E
:1006400040208243134363706B681B0B33405A4254
:1006500053413B409B00627804218A4313436370FB
:100660006B689B0A33405A4253413B40DB0022787F
:10067000383881468243134323705B466B61802385
:100680009B019B46AB61052000210CF0D5FA6B68FD
:10069000DB0A33405A4253413B405B00627850468C
:1006A0008243134363706B681B0B33405A425341C0
:1006B0003B40DB00627848468243134363706B68BB
:1006C0009B0A33405A4253413B405B012278183029
:1006D0008243134323705B466B616B685B091E406A
:1006E00073425E413740FF00A3784A4693431F435D
:1006F000A7706378DB06DB0F1B01FAB2404682432A
:100700001343A370204B1A68C0239B015340E0227F
:10071000D20113401D4A13601D4B042119601A4B6E
:100720001B68DB05FBD518494A681204130C194AEB
:10073000D21A096880239B014B40E021C9010B407C
:1007400012490B60124B042119600F4B1B68DB052B
:10075000FBD50D4B5B681B04190C0E4B5B1AE2704A
:10076000100A2071100C6071120EA271E371190A47
:100770002172190C61721B0EA372F0BCBB46B2460B
:10078000A946A046F8BDC04600C0044000D00440C1
:1007900000E00440FF0F0000F0B5D6464F46464645
:1007A000C0B584B0040003AF3A4B1A883A800223E4
:1007B00099460023BB7002AE3280B37001AD2A802F
:1007C000AB7069460A808B70D0231B0698464A4658
:1007D0009A61314B9A4603233A00D021504614F0D7
:1007E00023FA43464A465A619A6103233200F021B4
:1007F000504614F019FA43464A465A6180239B003A
:10080000994643464A469A6103236A46F021504678
:1008100014F00AFA43464A465A619A6103232A00B1
:10082000D021504614F000FA43464A465A613B78BC
:100830005B027A785200E02109010B401343BA7839
:10084000D209134323603278520273785B000A4066
:100850001A43B378DB091A4362602A7852026B7834
:100860005B000A401A43AB78DB091A43A2606B466F
:100870001B785B026A46527852000B4013436A466B
:100880009278D2091343E36004B0E0BCBA46B146A3
:10089000A846F0BD804D011000C0034010B500F027
:1008A00075FC10BD10B504004378DB0713D46378E2
:1008B0001022110019401A4203D0114B1B78002B53
:1008C0000FD0002903D10E4B1B78002B10D10A202A
:1008D0000CF0DEF910BD0022002100200CF0D8FF42
:1008E000E5E70020FFF77EFD054B01221A70EEE7D9
:1008F0000120FFF777FD024B00221A70E7E7C046A0
:100900000B66002010B584B010F03EFC64200CF0A3
:10091000BFF92B4810F0FCFBFFF772FD11F04CF90A
:100920001D20FFF7EFFC1C20FFF7ECFC1A200BF05A
:1009300067F8D02424068023DB046362A3611820B7
:100940000BF05EF880235B046362A36119200BF057
:1009500057F880239B046362A36105200BF050F8D5
:100960002023A3620022012105200BF017F801AC1F
:100970000C220021200010F0A5FA2000FFF792FDC4
:10098000104B9B886A461380627811231340112B09
:1009900009D014231340142B0CD0684600F0F6FF46
:1009A000002004B010BD08480EF00CF9030000212F
:1009B00008009847123B6A46137005335370ECE702
:1009C000684D0110804D01105542000070B5041CA7
:1009D00000210FF0DBFD00282AD1184B1D680021F3
:1009E000281C0FF0D3FD002825D1FD218905201CEE
:1009F0000FF085FD041CFE2189050FF0E5FD0028A0
:100A000001D0FE24A4050E49281C0FF08EFD011C08
:100A1000201C0FF08AFD0B490FF06CFD041CFE2119
:100A200089050FF0D1FD002803D0FE24A40500E0C5
:100A30000024201C70BD0024FBE7C0465815002090
:100A40003333733FCDCC4C3D70B5041C00210FF007
:100A50009DFD00282AD1184B1D680021281C0FF08D
:100A600095FD002825D1FD218905201C0FF047FDAB
:100A7000041CFE2189050FF0A7FD002801D0FE24EB
:100A8000A4050E49281C0FF050FD011C201C0FF07E
:100A90004CFD0B490FF02EFD041CFE2189050FF0C3
:100AA00093FD002803D0FE24A40500E00024201CB0
:100AB00070BD0024FBE7C046581500203333733F58
:100AC000CDCC4C3D70B50025002414E0201C0FF067
:100AD00005FE8621C9050FF028FD0FF0A1FD6B0072
:100AE000074AD0520749201C0FF004FD064910F0B8
:100AF000BBF8041C013580235B019D42E6DB70BD21
:100B0000AC450020DB0FC93ADB0FC940F0B5DE462B
:100B100057464E464546E0B591B083460C0030221C
:100B2000002104A810F0CEF90023002204A901201E
:100B300002F064FE82460027002303939946B1E049
:100B40000023636323642361E361A3626360A56A96
:100B50000021281C0FF038FD002804D0291C606AF1
:100B60000FF0C8FC606265680021281C0FF02CFDA6
:100B7000002804D0291C20680FF0BCFC2060E06A2B
:100B80000FF080FD80B28F4D4000405F0FF026FDDA
:100B90000190A0680FF076FD80B24000405F0FF03A
:100BA0001DFD0290E06BFFF74FFF061CA069FFF7E9
:100BB0000DFF051C011C301C0FF09CFC8046FE2123
:100BC00089050FF001FD00280FD04146FE20800569
:100BD0000FF095FC8046011C301C0FF0A6FC061C93
:100BE0004146281C0FF0A1FC051C0199301C0FF098
:100BF0009CFC061C0299281C0FF097FC011C301C61
:100C00000FF078FC051C70490FF0DEFC002807D1BE
:100C10000021281C0FF0C2FC002802D0002500E0B3
:100C2000694D281C0FF02EFD0604281C0FF02AFD2C
:100C3000C0B20643BB005A46D650E16A606A0FF064
:100C400059FC051CE0622168A0680FF053FCA0600D
:100C50008B26F605311C281C10F006F8E062311CCA
:100C6000A06810F001F8A0604B461D2B00D994E05D
:100C7000616B206B0FF03EFC2063216CE06B0FF08A
:100C800039FCE0632169E0680FF034FCE060E16961
:100C9000A0690FF02FFCA0614B4601339BB299462F
:100CA0000137BFB2FE2F00D985E04B46002B00D0A4
:100CB0004DE75346002B00DC42E7039B534500DB26
:100CC0003EE71B011E0004AA94466644B2689046A3
:100CD00062469A5801924146A163256B291C404601
:100CE0000FF003FC39490FF00AFC60638B21C90542
:100CF000281C0FF01AFC36490FF001FC051C60623D
:100D00008B21C90540460FF010FC31490FF0F7FB6D
:100D1000291C0FF0EAFB2D490FF0F1FBA062019AAC
:100D20006264E16B101C0FF0E0FB28490FF0E7FB59
:100D30002064F268904676686261E568291C101CA0
:100D40000FF0D3FB21490FF0DAFB20618B21C9059D
:100D5000281C0FF0EAFB1E490FF0D1FB051C206098
:100D60008B21C90540460FF0E0FB19490FF0C7FB86
:100D7000291C0FF0BAFB15490FF0C1FB6060266219
:100D8000A169301C0FF0B1FB10490FF0B8FBE06116
:100D9000039B0133DBB20393D9E6A36B2363636C3C
:100DA000E3636369E360236AA3610023A362636072
:100DB0000023994674E711B0F0BCBB46B246A94681
:100DC000A046F0BDAC45002000007F430000F0418C
:100DD00000803B46F0B587B01500FFF773FE042195
:100DE00008200AF0C3FDB24E0423336009200CF042
:100DF00045FC0FF0EEFBAF490FF097FBAE490FF04B
:100E00007EFB041C28000FF0E9FB011C201C0FF0E6
:100E100076FBFA2189050FF088FB84466B46002596
:100E200000955D609D6010225A60A44A9A6003ACF0
:100E3000220083CB83C28321C90560460FF075FB76
:100E40000FF020FC0490FE23059331689C488A0033
:100E500053189B001D5053189B00844663449D60AB
:100E6000DD60059D1D61049C5C6052189200039B2F
:100E7000135001233268190091400A009149096812
:100E80008B401343A0228350012011F047F88E4C71
:100E90002060012011F042F88C4B1860012011F005
:100EA0003DF88B4B1860012011F038F8894B186021
:100EB0002268894B0C2A00D9D5E088490B40D20220
:100EC00013430C218B430822134385480340854874
:100ED0000340854803400120034384480340022027
:100EE00083438B4313430832934310329343794A2D
:100EF00012680C2A00D9BCE078491940D3020B4390
:100F00006B4A126818323F2A00D9B8E07849194074
:100F1000D3030B436C4A12686549086881000918BD
:100F200089007448844661449201A020C00584462B
:100F30006244714D15605160042191601361644BEE
:100F40001A68654B0C2A00D99FE064490B40D20215
:100F500013430C218B43082213436148034061482B
:100F600003406148034001200343604803400220DE
:100F700083438B43134308329343103293434C4AC9
:100F8000126818323F2A00D985E059491940D30325
:100F90000B434F484C4A11688901584A94466144B2
:100FA00002689201A024E405A4466244544C1460F3
:100FB0005160FF2189009160136102680123934011
:100FC000504A136050490C200AF03AFE01210C20CF
:100FD0000AF026FE3F4B1A683F4B0C2A61D83F4966
:100FE0000B40D20213430C218B43082213433C488D
:100FF00003403C4803403C480340012423433B4812
:101000000340022083438B431343083213431032BF
:101010009343304A12689201A021C9058C4662446C
:101020003A4E1660556094601361FF220121300032
:101030000FF048FFFF239B00F018FF2201210FF063
:1010400041FF334B1B6822009A401300204A12686C
:1010500094401C432F4B1C60A022D2058623DB004A
:10106000D45007B0F0BD2C4B2C4AC3212C480CF0B7
:101070004FFC294B294AB73129480CF049FC294B30
:10108000294AB52126480CF043FC234B234ABF31A3
:1010900023480CF03DFC234B234AA93120480CF097
:1010A00037FC1D4B1D4AC3211D480CF031FCC046C6
:1010B0002C43002000007A4400007E43FFFF000024
:1010C00000000540304300202C3D0020303D002032
:1010D000383D0020343D002010801F00FF87FFFFB7
:1010E0003FF8FFFFFFFFBFFFFFFFDFFFFFFF7FFFB7
:1010F000FF7FE0FF0C000540AC6500203C00005085
:101100005C15002014240050C1000020A4320020EF
:101110003C3D0020403D0020884D0110404E011014
:10112000A84D0110144E0110284E011000B583B0D7
:10113000124B1B78002B0FD000236A46D371911DF0
:10114000D01D00F0C9FA6B46D87900280DD10C4BA0
:1011500000221A6003B000BD084B01221A70094A30
:1011600003210820FFF736FEE6E70FF032FA0649C2
:101170000FF0C5F9024B1860ECE7C0464C66002042
:1011800058150020E02E00000000C84210B50B4B9F
:101190001B78002B00D110BD084B00221A70084BA1
:1011A0001A68D2B201239B1ADBB21A02D31A980032
:1011B000044BC0180449FFF7A9FCECE74F66002078
:1011C000A0320020A4320020583D002070B5FE2639
:1011D000B605154D0024331C2A1C211C201C02F0CE
:1011E0007FFB331C2A1C211C201C02F079FB0024ED
:1011F00008E00020FFF7CAFF0CF0F8FA08200BF017
:1012000047FD01343D2CF4DD0024074D231C2A1C2E
:10121000211C201C02F064FB231C2A1C211C201C06
:1012200002F05EFB70BDC0460000024309020843A5
:1012300000B2704770B582B0D02424060125A561A4
:101240006B46187159710B4E022201A9300013F040
:1012500043FD656102200BF01BFD0335A5610222F1
:1012600001A9300013F038FD656102200BF010FD7C
:1012700002B070BD00C00340F0B5DE4657464E4692
:101280004546E0B585B006000D0001AC0023019392
:101290000822002102A80FF015FE03236B449B4691
:1012A000A2235A461370D0231B0699460123984661
:1012B0004B4642469A614D4B9A465946180013F0E8
:1012C0000BFD0C2322000021504613F0ADFC4B46D1
:1012D00042465A6161782078FFF7A8FF83B2FF2762
:1012E0003840B0711B0AF371E178A078FFF79EFFD8
:1012F00083B2384030721B0A737261792079FFF72C
:1013000095FF83B23840B0721B0AF372E179A0797D
:10131000FFF78CFF83B2384030701B0A7370617A1C
:10132000207AFFF783FF80B2404283B23840B0702A
:101330001B0AF370E17AA07AFFF778FF83B2384096
:1013400030711B0A73714A46042393610122594686
:10135000504613F0C1FC0C2322000021504613F02C
:1013600063FC4A460423536161782078FFF75EFFEF
:1013700083B23840A8711B0AEB71E178A078FFF7BF
:1013800055FF83B2384028721B0A6B72617920794D
:10139000FFF74CFF83B23840A8721B0AEB72E17969
:1013A000A079FFF743FF83B2384028701B0A6B70A7
:1013B000617A207AFFF73AFF80B2404283B2384028
:1013C000A8701B0AEB70E17AA07AFFF72FFF83B2B7
:1013D000384028711B0A6B71434633732B7305B079
:1013E000F0BCBB46B246A946A046F0BD00C00340D3
:1013F00010B5AE211020FFF71DFF5C211120FFF773
:1014000019FF04211220FFF715FF04211320FFF715
:1014100011FF00211520FFF70DFFE0211720FFF736
:1014200009FF10BDF0B5C64600B5040014282DD044
:1014300015282FD0132803D0002080BCB846F0BD5B
:1014400014271523984620000AF0DAFA0126330003
:10145000A340D0252D06AB620022012120000AF016
:101460009DFA40460AF0CCFA3300424693406B6244
:10147000AB6138000AF0C4FA3300BB406B62AB6169
:101480006B68E3401E4209D00120D6E713271523DD
:101490009846D8E7132714239846D4E70020CCE7D2
:1014A00010B51420FFF7BEFF10BD10B51320FFF7D5
:1014B000B9FF10BD10B51520FFF7B4FF10BD10B572
:1014C00001211A20FEF74CFF962080000BF0E0FB74
:1014D00009F0A8FE002800D110BD0120FCE710B5DE
:1014E00001F068FF10BD01207047000070B584B0A6
:1014F00003A9484B1A880A8000238B7002A90A802E
:101500008B7001A90A808B7069460A808B70322427
:101510001FE00133022B14D803AAD25C002A00D0AA
:10152000012101AAD25C002A00D0012602AAD25CC5
:10153000002A00D001256A46D25C002AE9D00120A9
:10154000E7E7002905D0002D03D0002E01D00028A8
:1015500057D12300013C002B50D0D0231B06022280
:101560009A612D4BDB685B07FBD5032303AAD021CF
:10157000294813F059FB032842D1D0231B0602222D
:101580005A619A61244BDB685B07FBD5032302AAEF
:10159000F021214813F048FB032834D1D0231B0647
:1015A00002225A61FF32FF329A611B4BDB685B07F4
:1015B000FBD503236A46F021174813F035FB0328B7
:1015C00023D1D0231B06802292005A619A61124BCC
:1015D000DB685B07FBD5032301AAD0210E4813F07B
:1015E00023FB032813D1D0231B06802292005A61CB
:1015F000002300200026002500218BE7002000E0CA
:10160000002004B070BD0020FBE70020F9E70020B7
:10161000F7E7C0465C4E011000C0034010B5FFF76D
:10162000D5FD012010BD0120704770B582B0FFF7D5
:101630005DFF01AC0126012528400301207810221E
:10164000904318432070FFF74AFFC30122787F20A0
:10165000104018432070FFF732FF284083012078A4
:101660004022904318432070FFF724FF2840830056
:1016700020780422904318432070FFF711FF0300E5
:101680002B402078B04318432070FFF70EFF28400E
:10169000430020780222904318432070FFF7C3FFD5
:1016A0002840C30020780822904318432070FFF799
:1016B0001AFF2840430120782022904318432070CD
:1016C000FFF7ACFF05406078B043054365702088A4
:1016D00002B070BD70470000044B7A22FF329A5C62
:1016E00002707C22FF329B5C0B70704778190020DF
:1016F000014B00201856704760150020F8B5040013
:101700000E001500254A2649280001F037FF071E64
:101710001DD0244B1A6824498C466244D1175218B4
:101720004A405B686344D9175B184B40642A0BDC62
:101730000022642B00DD02001C4B1B88002B05D00F
:101740001A4B00221A8002E00200F2E7170022780A
:1017500063781B021343154A11880B431380114B06
:1017600032681A6072685A60114B3A0011492800B9
:1017700001F017FF002807D00F4B1B78002B03D177
:101780000D4B01221A70F8BD002FFCD00A4B1B78BC
:10179000002BF8D0084B00221A70F4E73C3C0020E4
:1017A00040420F008442002000F8FFFFFA6500204D
:1017B0005042002000A3E11112660020014B18786E
:1017C0007047C0461266002010B5002803D1074BB1
:1017D00000221A7010BD0120FEF7E1FD0120FEF786
:1017E00001FE024B01221A70F4E7C0460266002097
:1017F00010B50020FEF7F6FD0020FEF7D0FD002218
:10180000002100200CF044F810BD000010B508497C
:10181000084813F049FA002802D1074B186810BD98
:10182000064B9A6A044B1A60024813F005FAF4E773
:10183000A42D002008180020D0650020004005409D
:1018400010B5FFF773FCFFF7E1FF074C206000F0D5
:101850000BFC206806F05AFE206804F09DFF20680B
:10186000FFF738FFEFE7C046D83B002010B5040073
:101870000A4B1B78002B00D010BD084B01221A70B8
:101880000020FEF78CFD0020FEF7ACFD64200BF07D
:10189000FFF92100002001F085FBEDE745660020FF
:1018A00010B5054B1B78002B00D010BD024B012258
:1018B0001A7001F0A7FDF8E72E66002010B52B4B3B
:1018C0001B78002B34D0FFF7A1FF294B1860294863
:1018D000FEF7E8FD284B1B78002B32D105F070FA9B
:1018E000234C2449206806F0BDFF206801F0F2FB7C
:1018F00008F020FE002831D01D4C2049206805F05A
:1019000079FD20681E4A1F4908F040FE1E4B002248
:101910001A70174C22681B491948FFF7EFFE206820
:1019200001F070FC2068FEF7B9FF0BF05FFF10BDFF
:10193000FA20002180010BF09FFF0C4B01221A704E
:10194000C1E70C48FEF7AEFF0BF050FF084C2068D3
:1019500001F0C0FB206801F055FCE8E7044B186873
:10196000084A074900F00AFDD3E7C0463866002060
:10197000D43B0020E024002002660020A8240020A0
:10198000EC240020C82400201266002070B584B02A
:10199000041E00D1E2E001F0ECFD0500FEF730FD91
:1019A0006F49704810F0F6FC0321162009F0DEFFA5
:1019B0000321172009F0DAFF03AB02AA01A96A4844
:1019C00009F082FF002803D1674968480CF03AF813
:1019D000039A0299019809F03BFF6548FEF762FD02
:1019E00000F0D8FB002829D0614B624A6249634865
:1019F00006F0A0FB06F032FEEBB2012B23D0022B47
:101A000026D0012565576B1C29D00022A2565C4BBD
:101A10001A70574B1B789A0625D45A063ED4DA061C
:101A20003ED45AB2002A3DDB5A073DD40A221A405E
:101A3000022A3BD01B0717D5032515E03221514858
:101A400001F09EFAD0E74E4B02221A700025E0E723
:101A50002B041B0F4A4A13702D052D0FD9E74A4B53
:101A600002255D57D1E70625414B9B78DB0602D561
:101A700080235B421D4302F077FE434AE2235B0072
:101A8000D65C3F4B1B785BB2013311D06424EBB2C0
:101A9000062B3DD8AB003D4AD3589F460125E3E7CE
:101AA0000025E1E70225DFE70525DDE70425DBE783
:101AB00001F020FD002804D1314B02221A70462487
:101AC000E5E72F4B01221A706424E0E73048322109
:101AD00001F056FA2100300001F07AFA284B00217B
:101AE0005956280000F05AFC214B9B789B0730D4B4
:101AF000284A1F49280005F00BF80FF051FD264831
:101B00000FF03CFDFFF7DAFEFCE7FF200006DEE702
:101B10002248DCE7FF200002D9E7002001F0AAFC00
:101B2000174B00221A70FF2000041924CFE7002071
:101B300001F0A0FC124B00221A7019480F24C6E7CE
:101B4000002001F097FC0E4B00221A701548192452
:101B5000BDE70D4B9D7000F017FBC9E704B070BDE9
:101B6000801A0600D8170020400D0300604E0110B7
:101B7000E0240020A8240020C8240020B82400204D
:101B8000601500200000FF4D78190020944E0110D0
:101B900000F115FFEC2400204118001000A1A1A1C4
:101BA00000FF61000000FFE6094ABD235B00D35C33
:101BB0001A1C312B00D83222054BBD2149005A5442
:101BC000DA787A39FF398A43DA709B221A727047C1
:101BD0007819002070B505001400724B138001299C
:101BE00000D070BD0223C3569370D01CE91C06229E
:101BF0000FF06EF9EB68E3602B6923616B69636139
:101C0000AB69A36120001C3029001C3120220FF099
:101C10005FF920003C3029003C3120220FF058F9B8
:101C200020005C3029005C3120220FF051F92000A7
:101C30007C3029007C3120220FF04AF920009C30B2
:101C400029009C3106220FF043F92000A230290020
:101C5000A23106220FF03CF92000A8302900A8315B
:101C600030220FF035F920002930FF302900D8311B
:101C700010220FF02DF920003930FF302900E83113
:101C800010220FF025F920004930FF302900F831EB
:101C900010220FF01DF920005930FF3029000931C2
:101CA000FF3110220FF014F920006930FF302900B5
:101CB0001931FF3110220FF00BF994235B00EA5C1D
:101CC0005033E2542A23FF33EA5C7A23FF33E25491
:101CD0004F3BEA5C5033E2542C23FF33EA5C7C2315
:101CE000FF33E25420007D30FF3029002D31FF31D9
:101CF00006220FF0EDF820008530FF302900353145
:101D0000FF3120220FF0E4F82000A530FF30290039
:101D10005531FF3120220FF0DBF8BA235B00EA5C7B
:101D20005033E2542000C930FF3029007931FF31AF
:101D300018220FF0CDF8C8235B00EA5C5033E25460
:101D40004E3BEA5A5033E2524E3BEA5A5033E2528B
:101D50004E3BEA5A5033E2524E3BEA5A5033E2527B
:101D60004E3BEA5A5204F6204000110C225A9A3B8C
:101D7000FF3B1A400A432252CE225200A95A22188F
:101D80005180CF225200AA5A5204F8214900120C65
:101D9000605A034013436352D0235B00EB5A64182C
:101DA00063801EE702A0FFFF064B984204D0064B5B
:101DB000984203D1022070470120FCE701204042F5
:101DC000F9E7C04601A0000002A0000010B51248CB
:101DD0000FF0CEF9002407E0104B5B18D9781048BB
:101DE0000FF0C6F90134E4B2052C0DD80FF0ACFEAB
:101DF0002100C0B2094A1219D070002CECD1130096
:101E000001229043D870E7E7044B9B221A720A2004
:101E10000FF060F910BDC046B04E011078190020D7
:101E2000C04E0110F0B5DE4657464E464546E0B579
:101E30006F4CA544FC256D002A00002102A80FF07C
:101E400041F86C4B02AA1380059B0193DB0FDB0763
:101E50008022120113430593069B0193DB0FDB07DE
:101E600013430693079B0193DB0FDB071343079391
:101E7000089B0193DB0FDB071A4308925E4F0A971A
:101E80005E4E0B965E4C0C945E480D905E490E9132
:101E90005E4A0F925E4B109312971396149415900E
:101EA0001691179218935B4B19931A931B931C93DB
:101EB0001D931E931F9320932193802202A98B5080
:101EC00004328B5004328B5004328B5004328B50CE
:101ED00004328B5004328B50FF231B049A46A823F4
:101EE0000A005146D1504C4B9B46AC235946D15029
:101EF0004A4B9946B0234946D150FF231B069846CA
:101F0000B4234146D150FF2636020433D650043361
:101F1000434A02A9CA50434F04330A00CF50043346
:101F20005146D15004334146D1500433D650043386
:101F30004946D1500433D6503B4BD82202A98B508E
:101F400004328B5004328B5004328B50E823CF5034
:101F5000B63B7A22FF328B5401328B54173AFF3A48
:101F6000F121490002A84252023143520231425249
:101F70008532FF32010083522C4C2A0020000EF0E3
:101F8000A7FF002004F08AFD012004F087FD032054
:101F900004F084FD042004F081FD052004F07EFDA2
:101FA00020009C30062200210EF08CFF2000A23081
:101FB000062200210EF086FFFFF708FFE4235B00F6
:101FC0005246E25004335A46E25004334A46E25045
:101FD00004334246E2500433E6500433E750812391
:101FE0009B009D44F0BCBB46B246A946A046F0BD4E
:101FF000FCFDFFFF02A0FFFF000034420000B442DE
:1020000000000743000034430000614300008743A1
:1020100000809D43000016440000FF4D0000FFE6D5
:1020200000F115FF00FF610000A1A1A178190020B7
:10203000014B18787047C04648660020014B588015
:102040007047C0466415002010B5064B01221A7077
:1020500003E0012000210AF0EFFD024B1B78002B6A
:10206000F7D110BD2B660020F0B5354CA544354B9B
:102070001B78002B06D1344B1B78002B39D1334B06
:102080009D44F0BD0FF0A4FAEFF3108672B6304B0A
:102090001B78002B24D12F4C002300932E4A0021C3
:1020A00001A80EF00FFFFC2252002C4968460EF0EA
:1020B0000FFF80256D012900200012F0FDFD2A0090
:1020C0006946200012F0D8FD86F310880FF08AFAD6
:1020D000234B1B78002B06D11A4B00221A70CAE73B
:1020E00096246403D8E708F02FFB1D4B00221A70DA
:1020F000F2E70FF06DFAEFF3108772B60024009448
:10210000154A002101A80EF0DDFE164B1A68009258
:102110009B886A4693808026760197256D0331005F
:10212000280012F0C9FD32006946280012F0A4FD13
:1021300087F310880FF056FA034B1C709FE7C046D8
:10214000FCEFFFFF2C6600202B660020041000002F
:102150004866002000D01200FC0F00007819002013
:10216000396600206415002010B5034B01221A7057
:10217000FFF77AFF10BDC0462B660020014B0122FD
:102180001A70704739660020014B01221A7070479F
:102190002C66002070B5434B1888434B1D88FFF711
:1021A00003FE04002800FFF7FFFD05003F4B404AF7
:1021B0001168196092889A801A883E4B9A420AD018
:1021C0003A4B3D4A1A80FA2292005A8000229A80A5
:1021D0003A4B01321A70631C0BD0022C0FD0022D27
:1021E0000DD0012C2CDD012D2ADD0023002200263C
:1021F0002CE06B1CF1D100230022012626E0022CEA
:1022000005D0022D0FD00023002200261EE0FC2264
:10221000520024492A480EF05BFE2A4B00221A7015
:102220000023002612E0FC2252001F4924480EF031
:102230004FFE244B01221A7000230022002605E0E5
:102240000123012C15DDDBB201220026002E12D164
:10225000002A23D0002B18D11A4B01221A70184AD9
:1022600021001048FFF7B6FC0020FFF78DFF30007B
:1022700070BD0023E7E7134B00221A70FFF7D2FD71
:102280000020FFF781FF0026F1E70E4B00221A70B5
:102290000B4A29000448FFF79DFCE5E7FFF784FCA3
:1022A0000126E4E700D0121000C0121064150020CF
:1022B00000E0121002C0000002C0FFFF2B660020E9
:1022C000781900204866002010B5031C642800D946
:1022D000642303497A22FF328B54FEF727FF10BD97
:1022E0007819002010B5022817D008D800280DD082
:1022F00001280FD10B4AF2235B00D1520AE00328D8
:1023000008D1084AF4235B00D15203E0054AF123C7
:102310005B00D15205F09EFB10BD024AF3235B0027
:10232000D152F7E77819002030B50F4C400045082E
:10233000E068C00FC0072843E060490048082169F1
:10234000C90FC90701432161520051086269D20FC8
:10235000D2070A4362615B005A08A369DB0FDB07FF
:102360001343A36130BDC04678190020062800DD64
:102370000020014B987070477819002010B5034B6E
:102380001B68002B00D0984710BDC0469427002042
:10239000014B0020185670471366002010B588B016
:1023A0000400284B1870022910D00C22002105A827
:1023B0000EF088FD1022002101A80EF083FDE3B28B
:1023C000062B0BD8A400204B1B599F461F4B204ABD
:1023D0001A6008F06FFF0028E7D005E01B4B1D4A8C
:1023E0001A60002001F06AFB08B010BD174B194AB3
:1023F0001A60062001F062FBF6E7144B154A1A60DA
:10240000012001F05BFBEFE7104B124A1A6002203B
:1024100001F054FBE8E70D4B0F4A1A6001AA05A929
:102420000020FFF7ABFFDFE7084B0C4A1A6001AA58
:1024300005A90020FFF7A2FFD6E7044B084A1A605F
:10244000D2E7C04613660020E84E01109427002012
:1024500001B500106D3B00102D920010299C00105A
:10246000EDA10010F0B5C64600B590B004000D0017
:1024700016001F0016AB1B789846494B984200D1B6
:1024800088E00721380009F071FA012300933A002F
:10249000290020000FF05EFC1022002108A80EF099
:1024A00011FD80235B020893F8235B0209938023CC
:1024B000DB020A93C0231B030A93102208A904A875
:1024C0000EF006FDF31C059A039236491140F20105
:1024D00011431B0319430591079B0393DB00DB08A2
:1024E00080229205134307932F4B19400591102228
:1024F00004A90CA80EF0ECFC0F9B03932B4A1A4086
:10250000BF0217430F974346002B45D020220E9B56
:1025100003932749194080239B020B435206F8215D
:1025200089050A4013430E939B009B088022D20525
:1025300013430E9305200BF09BF81E490CF096FBFD
:102540000EF047F880460EF09DF887B2002F25D098
:1025500038000EF03EF8011C40460DF0C6FF872102
:10256000C9050DF0E2FF0EF08DF8C0B200023F0485
:1025700007430C970CAB3200290020000FF03CFC05
:1025800022680123AB409A431343236010B080BC00
:10259000B846F0BD062175E71822B8E70020E5E748
:1025A000000020507F00FEFFFFFFFF9FFF83FFFF23
:1025B000FFFFF5C10050C300014B01221A707047A4
:1025C0002266002070B5254B1B78002B17D1244BB9
:1025D00000221A70214B01321A7000240B2C09D8EA
:1025E0000FF0B2FA06210CF041FB1E4B19550134D5
:1025F000E4B2F3E71C4B00221A70002428E01A4BC7
:102600001B78002BF9D1194B1B789A009B18FA2BD9
:1026100000D9FA23FF221A40FF239B1A9BB2144AC7
:102620001380144A1380104B01221A70E5E70D4DF8
:102630002B5D72339B00104A9958A2000F4BD1506A
:102640000FF082FA06210CF011FB29550134E4B297
:102650000B2CECD9FFF7B0FF70BDC04621660020FF
:102660000A660020AC2700208D1500208B15002065
:10267000F2650020EE650020781900203C2C002037
:10268000034B1980034B1860034B00221A707047EC
:10269000F0650020D02B00201F66002070B50500DB
:1026A0000C0000880DF095FF1B490DF028FF1B4919
:1026B0000DF03BFF0DF0E6FFC2B22B79A978C943BC
:1026C000C9B25943090A5B1ADBB23F2528402D1ACB
:1026D000EDB2584380096B439B11DBB20818C0B2BE
:1026E000CB18DBB23F2A10D9403AD2B23F2A06D8E3
:1026F0001A060B061B0A0002134318430AE00906D8
:1027000000041B020843184304E000061B040902EE
:1027100018430843206070BD00007F4300003F4322
:10272000F8B5CE46474680B50400234B1D78002DF2
:1027300005D100230360C0BCB946B046F8BD642D86
:10274000F9D08778E678B81963789846C0180DF004
:1027500045FF1A490DF0D3FE814628000DF039FFE0
:1027600017490DF0CCFE051C011C48460DF01CFF5E
:102770000028E0D14946281C0DF0C1FE051C380098
:102780000DF027FF291C0DF0D0FE0DF07BFFA0708F
:1027900030000DF01EFF291C0DF0C7FE0DF072FF7A
:1027A000E07040460DF015FF291C0DF0BEFE0DF047
:1027B00069FF6070BFE7C0468A15002000007F43B4
:1027C0000000C842F0B5D6464F464646C0B50400A4
:1027D0000368002B35D083789846C778D819667877
:1027E00080190DF0FBFE051C40460DF0F2FE804600
:1027F000291C0DF084FE824638000DF0EAFE071C0D
:10280000291C0DF07CFE814630000DF0E2FE061C16
:10281000291C0DF074FE051C514640460DF085FE46
:102820000DF030FFA0704946381C0DF07EFE0DF013
:1028300029FFE070291C301C0DF077FE0DF022FFFF
:102840006070E0BCBA46B146A846F0BD30B585B070
:102850001D4B1B78002B0FD100240B2C09D80FF037
:1028600073F9FF210CF002FA184B19550134E4B248
:10287000F3E7154B01221A7000241FE0134D2B5D66
:10288000134A1078C018FF210CF0C8F9C9B22955B5
:1028900002A80180FF23438083800023019301A9C4
:1028A000FFF7FCFE01A8FFF73BFF0A48A300019ACF
:1028B0001A50C018FFF786FF0134E4B20B2CDDD9A3
:1028C000FFF77AFE05B030BD21660020A02B002066
:1028D0008B1500203C2C002000220AE093000649C2
:1028E0005958064B5B68DB03FBD4044B196101327A
:1028F000D2B20B2AF2D97047D42B0020000020500E
:10290000F8B5DE4657464E464546E0B506000D0092
:10291000141C80780DF05DFE8046F0780DF059FEB5
:10292000071C70780DF055FE061CA8780DF051FEBE
:102930008346E8780DF04DFE824668780DF049FE3A
:102940008146414658460DF0D0FD211C0DF0EDFDAD
:1029500041460DF0CFFD051C391C50460DF0C5FD5C
:10296000211C0DF0E2FD391C0DF0C4FD071C311CCB
:1029700048460DF0BAFD211C0DF0D7FD311C0DF0BD
:10298000B9FD061C281C0DF07DFEC5B2381C0DF0EB
:1029900079FEC4B2301C0DF075FEC0B22D040002E9
:1029A000240628432043F0BCBB46B246A946A046B5
:1029B000F8BD000000B583B000230093082806D8B6
:1029C0008000164B1B589F46FF231B0400930023D7
:1029D0000193134A01A96846FFF792FF0023002BD9
:1029E00018D003B000BDFF231B020093EFE70D4B8F
:1029F0000093ECE7FF231B060093E8E70A4B0093E4
:102A0000E5E70A4B0093E2E7094B0093DFE7094B48
:102A10000093DCE7084A10610133E0E7044F01103E
:102A20006666663F0000FFE60000FF4D00F115FFFF
:102A300000D0FF2B00FF61003C2C002010B5054B9F
:102A40001870FFF7B7FF044B00221A70FFF7B4FDB0
:102A500010BDC0462466002021660020F8B5304B2A
:102A600018880DF0BBFD011CFE2080050DF047FD10
:102A7000041C2C4B1B78002B0AD12B4B1E78284BA7
:102A80001B889E421BD9294B1878002835D0F8BDE9
:102A9000274B1878FFF78EFF2649274B0A0023CBD8
:102AA00023C223CB23C223CB23C223CB23C20023A5
:102AB0001D4A13701B4A13701C4A1370DDE7300067
:102AC0000DF087FD211C0DF030FD051C00240BE0EE
:102AD000A7001A49C9191748C0192A1CFFF710FF87
:102AE000154BD8510134E4B20B2CF1D901360E4B01
:102AF0001E70FFF7F1FE0020C9E70F490F4B0A00D7
:102B000013CB13C213CB13C213CB13C213CB13C2F9
:102B1000FFF7E2FE054B01221A700120B7E7C0461D
:102B2000EE650020226600208F1500208C15002005
:102B3000246600200C2C0020D42B00203C2C0020EC
:102B4000F0B5C64600B506000F00150098460024F3
:102B50000AE0335D9B004246EA50305D8000281851
:102B6000FFF730FE0134E4B2BC42F2D380BCB84679
:102B7000F0BD0000031C642800D96423014A1370CF
:102B80007047C0468A15002030B583B00500002488
:102B90000CE0019501A8FFF7C3FD0648A300019AC8
:102BA0001A50C018FFF70EFE0134E4B20B2CF0D916
:102BB00003B030BD3C2C002010B509480388094AF9
:102BC00012789B18FF2213400380074C2100FFF767
:102BD00065FD2068FFF7D8FFFFF7EEFC10BDC0468B
:102BE000841500208B1500209C2B002010B51A4B5B
:102BF0001B78002B17D1194A1370174A0121117045
:102C0000174A1370154C237872339B00154A985855
:102C1000FFF7BAFF2078013006210BF0FFFF21708B
:102C2000FFF7CAFC10BD0E4B1B78002BEAD10E4BF0
:102C30001B789A009B18FA2B00D9FA23FF221A401E
:102C4000FF239B1A9BB2094A1380094A1380044B45
:102C500001221A70D6E7C046216600200A660020CD
:102C60008E150020781900208B150020F2650020B9
:102C7000EE65002010B50F4B1B78002B10D10E4BCA
:102C80001B68002B02D10C4B0C4A1A600A4B1868C7
:102C9000FFF77AFFFFF790FC064B01221A7010BD78
:102CA0000020FFF771FFFFF787FC024B00221A702C
:102CB000F5E7C04646660020042C00200000FFE631
:102CC00070B51D4B1C78002C05D01C4B1B78002BBD
:102CD0001ED0200070BD1A491A480B00020023CAFA
:102CE00023C323CA23C323CA23C323CA23C3164B24
:102CF0001868FFF749FF154B1A88154B1A80FFF724
:102D00005BFC0D4B01221A700C4B00221A70E0E79D
:102D100010490B480B00020023CA23C323CA23C354
:102D200023CA23C323CA23C3FFF746FC034A1378ED
:102D300001331370CDE7C0461F66002050660020A7
:102D40005C430020D42B0020082C0020F0650020DC
:102D5000EE6500203C2C002010B50D4B1C78002C9B
:102D600006D00C4B1B68002B00D09847200010BDEC
:102D70000020FFF709FF0020FFF71CFEFFF71CFCF7
:102D8000054B1A88054B1A80014B01221A70EDE79A
:102D90001F660020B02C0020F0650020EE650020AA
:102DA00070B50C000F2803D88000284B1B589F4695
:102DB0000126274D2BE00126264D28E00126264D31
:102DC00025E00126254D22E00126254D1FE00126A4
:102DD000244D1CE00126244D19E00126234D16E068
:102DE0000126234D13E00126224D10E00126224D3D
:102DF0000DE00126214D0AE00126214D07E00126C4
:102E0000204D04E00126204D01E004261F4D002A3C
:102E100012D023001E4A31002800FFF791FE230044
:102E20001C4A31002800FFF78BFE23001A4A3100AC
:102E30002800FFF785FE70BD2300164A31002800E8
:102E4000FFF77EFEFFF7B8FBF5E7C046284F0110FD
:102E5000AC4F01108C4F01109C4F0110884F011096
:102E6000904F0110A44F0110B44F0110B04F01104A
:102E7000804F0110844F0110944F0110B84F011082
:102E8000A84F0110BC4F0110A04F0110984F011026
:102E90000C2C00203C2C0020D42B002070B50C4BB7
:102EA000196840220B480EF013F800240CE0A30030
:102EB000084DED182800FFF733FC29680022200098
:102EC000FFF76EFF0134E4B20F2CF0D970BDC0469D
:102ED0006C2C0020702C002010B5024B1860FFF7FE
:102EE000DDFF10BD6C2C002010B5074B1B78002BAC
:102EF00000D010BD0548FFF7EFFFFFF75DFB024B69
:102F000001221A70F5E7C04621660020201A002031
:102F1000144AF0235B00D35C834209D0002B03D119
:102F2000E133FF330521D1540E4AF0235B00D05426
:102F30000C4AF0235B00D25C0B4B1A700B4B1B78D6
:102F4000052B0AD00A4B15221A80094B1A88094B07
:102F50001A80094B00221A707047084B1A88044BDC
:102F60001A80F2E7781900208B15002020660020D7
:102F7000F2650020EE65002021660020F465002047
:102F800010B5054B18604908044C2000FFF778FB8A
:102F9000034B1C6010BDC046082C0020C12C001043
:102FA000D02B002010B5064B1870064B00221A607B
:102FB000054B196019210548FFF762FB10BDC0469B
:102FC00025660020CC2B0020B02C0020592D0010AD
:102FD00070B582B004000D00244B1B78002B0CD080
:102FE000234B1C700023234A1370234A1370052CB3
:102FF00016D8A400214B1B599F46214E2149300071
:103000000EF08CFE0200002300931B3300213000E1
:10301000FFF728FA154B01221A70FFF75DFCDFE776
:10302000194B1A4A1A601A4AF0235B00D05CFFF76A
:103030006FFF2800642D00DD6420C0B2FFF79AFD09
:1030400002B070BD104B134A1A60ECE70E4B124AE7
:103050001A60E8E70C4B114A1A60E4E70A4B104A81
:103060001A60E0E7084B0F4A1A60DCE7236600208D
:10307000206600202166002026660020684F01108F
:1030800000002050C04F0110CC2B0020E92E001072
:1030900078190020B92B00104D280010752C001055
:1030A000ED2B0010C525001010B5FF2903DC002909
:1030B00002DA152100E0FF21044B1980044B18604F
:1030C0001E210520FFF784FF10BDC046F4650020D7
:1030D000042C002010B5144A144900F04FFA0028BF
:1030E00000D110BDFFF7BAFC002803D1104B1B78AC
:1030F000002BF6D00F4B1B68002B0ED098470028F2
:10310000EFD000240B4B1C600B4AF0235B00D05C1B
:10311000FFF7FEFE094B1C70E3E7094B1B68002B11
:10312000DFD09847DDE7C046084200201A41000082
:1031300026660020D02B0020781900202166002070
:10314000CC2B0020014B58887047C04664150020E6
:1031500010B586B0002405AA244B1978117004AB71
:1031600019702349029101210191009301236931D2
:10317000204800F0D5FA0230012807D904AB1B78AB
:103180001C1C5BB2012213401B4A137063069A0F8A
:10319000022A0ED9032A0FD1184B1B78002B21D0FD
:1031A000154B1B785BB2002B18D1154BFF221A7000
:1031B00012E052B2002A0CD10F4B1B785BB2002BED
:1031C00003D10F4BFF221A7006E00D4B00221A703C
:1031D00002E00B4B01221A7006B010BD084B002212
:1031E0001A70F9E7064B02221A70F5E7F85A011037
:1031F00010270000D81700204E66002040660020EF
:103200004166002070B50400594B1B78002B24D078
:10321000584A5949200000F0B1F9002815D0FFF7AD
:1032200097FF564B00229A56554B1B785BB29A4239
:1032300003D0002B28D0514A1370524B1B78002B1F
:103240002AD0504B1B78002B42D14F4A4F492000C7
:1032500000F094F900284BD170BD454B01221A7043
:103260004B4B58880DF0B5F94A4B18604A4B4B4A06
:103270001A60FFF76DFFFFF76BFFFFF769FF404B29
:103280001A783E4B1A70C3E7FEF732FA0028E3D0F3
:103290004348FEF7EBFADFE7FEF790FA0028D0D0BC
:1032A000404B1B785BB2012B0AD0022BCDD1354BA2
:1032B00001221A70FF2064210002FFF7F5FEC4E727
:1032C000304B01221A7064213748FFF7EDFEBCE74E
:1032D000FEF774FA0028B8D12A4B00221A70334A3C
:1032E000E2235B00D05C02214942FFF771FEACE7AC
:1032F000FFF72EFF2B4B1B785BB2012B1BD0022B51
:1033000030D00133A8D1234D234B196828680DF024
:10331000ECF8041C286000210DF040F9002808D1C9
:103320001C4B1C60201C0DF0ADF980B2FEF786FE30
:1033300092E70024F4E7174D174B196828680DF041
:10334000D9F8041C28601A490DF03EF9002800D075
:10335000174C104B1C60201C0DF094F980B2FEF746
:103360006DFE79E7FA208000FEF768FE74E7C0463C
:103370003D660020A43A002040420F004A6600202B
:103380004E660020446600209C3A0020008793038C
:103390006415002090150020941500205555054017
:1033A000A1180010416600200000FFE678190020F7
:1033B00000007A4400B587B00E4B1B785BB2013336
:1033C00014D005AA0C4B1978117004AB19700B4975
:1033D000029101210191009301236931084800F015
:1033E0009FF9002804DD012007B000BD0020FBE7A5
:1033F0000020F9E74E660020F85A0110102700005F
:10340000D817002030B585B0164B1B785BB201335E
:1034100025D0D0231B061B68002B04D1FEF714FE19
:103420001E25002415E0FEF79FFEF9E703AA0E4BC8
:1034300013800E4B01930023009302336A210C4842
:1034400000F0E2F80400322009F022FC0AF0CEF984
:10345000013D002C01D1002DE8D1FEF7C9F905B0DE
:1034600030BDC0464E66002009C1FFFFA0860100A6
:10347000D817002000B585B0194B1B785BB201331B
:1034800004D0002804D1174B01221A7005B000BDEA
:10349000144B00221A70144B1880232813D8C0B282
:1034A0000538C0B27F2318407B3B6A4613735073C4
:1034B0000E4B019300230093023303AA6A210C48A8
:1034C00000F0A2F8E2E7AF235B00984200D91800B1
:1034D00028380A210BF0A2FBC0B21F30C0B2E1E7CE
:1034E0004E66002040660020FC650020102700008A
:1034F000D817002010B5FFF72BFE024B00201856FE
:1035000010BDC0464E66002010B5FFF721FE024BED
:103510000020185610BDC0464166002010B500229C
:10352000002100200AF0B4F9FEE70000072804D8C3
:103530008000024B9C466044016070470C8005404F
:1035400010B5072802D90024200010BD8000044BCC
:103550009C466044046800210520FFF7E7FFF3E77D
:103560000C80054010B501000520FFF7DFFFFFF7D5
:10357000D5FF10B50520FFF7E3FF10BD10605368BD
:10358000834205D9C31A013B8B4205D20020704704
:10359000834204D2C31AF7E750600120F7E7002006
:1035A000F5E730B51860002A0BD15C6884420BD96E
:1035B000041B013C0025002D0BD1A14209D91000AC
:1035C00030BD58600020FBE7844205D2041B002573
:1035D000F1E758600120F3E71000F1E710B501E0D2
:1035E0000AF004F90A21034811F006FB0028F7D07D
:1035F00010BDC0461018002010B5024811F01CFB89
:1036000010BDC04610180020F0B5D6464F464646BD
:10361000C0B584B081460F00924698460CAB1E7828
:10362000FFF7DCFF0D9C002509F002FC02000B1ED9
:1036300018DB12196B41002B1ADB002B1CDB0292EA
:103640000393009643465246390048460EF0CEFE9C
:103650000400FFF7D1FF200004B0E0BCBA46B14639
:10366000A846F0BD074B084A3F2108480AF050F928
:1036700001225242064BE0E7024B034A3F21034836
:103680000AF046F9D04F011050500110EC4F0110D4
:10369000FFFFFF7FF0B5D6464F464646C0B584B023
:1036A00081460F00924698460CAB1E78FFF796FFB6
:1036B0000D9C002509F0BCFB02000B1E18DB121943
:1036C0006B41002B1ADB002B1CDB0292039300964C
:1036D00043465246390048460EF0A7FE0400FFF765
:1036E0008BFF200004B0E0BCBA46B146A846F0BD4E
:1036F000074B084A3F2108480AF00AF901225242C2
:10370000064BE0E7024B034A3F2103480AF000F969
:10371000D04F011050500110EC4F0110FFFFFF7F00
:10372000F0B5DE4657464E464546E0B585B0804684
:10373000894692469B46FFF751FF109C002509F0F1
:1037400077FB06000F1E31DBA4197D41002D33DB12
:10375000002D35DB02940395012300935B4652460E
:10376000494640460EF042FE109C002509F060FBE1
:1037700002000B1E2ADB12196B41002B2CDB002BE5
:103780002EDB02920393002300930F9B0E9A49466F
:1037900040460EF04AFE0400FFF72EFF200005B061
:1037A000F0BCBB46B246A946A046F0BD0F4B104A3E
:1037B0003F2110480AF0ACF8012464420E4DC7E7DF
:1037C0000A4B0B4A3F210B480AF0A2F8074B084A64
:1037D0003F2108480AF09CF801225242064BCEE7EE
:1037E000024B034A3F2103480AF092F8D04F0110E0
:1037F00050500110EC4F0110FFFFFF7FF0B583B078
:1038000005000F001400019319491A4811F04CFAF1
:10381000002829D0184B00269E57002E0CDD002DC5
:1038200002D10126764209E0FF221A7032011349C3
:1038300038000DF04DFB01E001267642104B0025CB
:103840005D57002D01DD002C05D10A4811F0F4F977
:10385000300003B0F0BDFF221A702A010949019817
:103860000DF036FB2E00F0E701267642F0E7C04669
:10387000543D00201818002098150020DC3B002043
:10388000991500200C3C0020F8B506000F0015002B
:103890001C000E4811F060FA002F06DC002C0CDC36
:1038A0000A4811F0C9F90020F8BD094B1F703A0110
:1038B000310008480DF00CFBF0E7074B1C702201AB
:1038C000290006480DF004FBEAE7C046181800205E
:1038D00098150020DC3B0020991500200C3C0020AE
:1038E000F0B585B0051C0F1C141C1E1CFE2189059B
:1038F000381C0CF069FE00280FD0FE27BF052249B6
:10390000281C0CF061FE00280FD12049281C0CF067
:1039100045FE00280AD01D4D08E00021381C0CF09F
:103920003DFE0028EBD00027E9E7174DFE21890571
:10393000301C0CF049FE00280FD0FE26B6051249B7
:10394000201C0CF041FE00280FD11049201C0CF067
:1039500025FE00280AD00D4C08E00021301C0CF098
:103960001DFE0028EBD00026E9E7074C00970196E2
:103970000295039401236A4601216846FFF784FFFC
:10398000012005B0F0BDC0460080A24400002042E6
:1039900010B5FEF7FDFC022801D0024810BD024818
:1039A000FCE7C046685001105851011010B50020C6
:1039B00010F0BEF810BD000010B51021064811F03F
:1039C00083F9002800D110BD044B01221A7002486F
:1039D00011F032F9F7E7C0462018002036660020C3
:1039E00010B51021064811F06FF9002800D110BD64
:1039F000044B00221A70024811F01EF9F7E7C04686
:103A0000201800203666002070B5050064210D489E
:103A100011F0F2F8041E09D10B4B22000B492800CB
:103A2000FFF7BFFD051E08D1200070BD084B1C78B4
:103A3000E4B2044811F000F9EEE7FFF7BDFF2C00F7
:103A4000F2E7C046201800208C430020A086010029
:103A500036660020037801330370044B1B785BB299
:103A6000022B01D0024870470248FCE7581600209C
:103A7000A0520110D85301100C4B18600C4B984207
:103A80000BD00C4B98420CD0FA235B00984200D02C
:103A90007047094B01221A60FAE7074B04221A60AB
:103AA000F6E7054B08221A60F2E7C046D42D002045
:103AB000461000008D200000CC2D002010B5040021
:103AC000002002F063FE022C2CD0062C1DD0012C0D
:103AD00010D0012002F05AFE1848FFF7CDFF184B16
:103AE000184A1A60184B194A1A60194B1C7010F0CA
:103AF0002BFC10BDFA204000FFF7BEFF104B154A0B
:103B00001A60114B144A1A60EFE7012002F03EFEE2
:103B10001248FFF7B1FF0A4B114A1A600A4B0B4AD1
:103B20001A60E2E7FA204000FFF7A6FF044B0D4AB7
:103B30001A60054B0C4A1A60D7E7C0468D2000007A
:103B4000D02D00207DA30010D82D0020AD3900100D
:103B50005816002021B00010154200104610000039
:103B60007DB60010C1890010A1460010F8B506000E
:103B70000C0015000120002140420FF04DFB234BAB
:103B80009F6C234B1B68BB421CD2FB1A214A126854
:103B90009A4202D8204B01221A70204B1968204A01
:103BA0003000FFF7EBFC002802D01E4B01221A70F8
:103BB0001D4B1B78002B0AD11C4B1B6898471A4BD6
:103BC0001870F8BDFB1A1A4A94466344DEE73000C9
:103BD000FFF71AFF0028F4D00F4B1B78002BF0D012
:103BE000104B1B78002BECD0094B1F6000230A4AB6
:103BF00013700C4A13700C4A1370FFF7F1FE0D4B53
:103C00001B68290020009847DBE7C04600001150E0
:103C1000503D0020CC2D002047660020D42D0020F0
:103C2000E46500205366002037660020D82D002070
:103C3000FF070000D02D0020084B1B785BB2022B41
:103C400007D0062B07D0012B01D005487047054847
:103C5000FCE70548FAE70548F8E7C0465816002093
:103C6000005D0110E8520110C45301107866011084
:103C7000084B1B785BB2022B07D0062B07D0012B19
:103C800001D0054870470548FCE70548FAE70548B4
:103C9000F8E7C04658160020C05C0110B852011069
:103CA000985301104C6601100020704710B5134B5B
:103CB0001B785BB2022B13D0062B18D0002B05D03B
:103CC0000B78002B0FD1FFF777FE0CE00B78302B31
:103CD00003D0212B01D0812B05D1FFF76DFE02E02F
:103CE0000B78212B00D010BDFFF766FEFBE70B78A9
:103CF000012BF8D1FFF760FEF5E7C046581600200B
:103D000070B51D0004AB1E88314B00241C57012CDC
:103D10002DD0022C12D0002C00D070BD0029FCD177
:103D2000002AFAD12878102804D03200290000F0A7
:103D3000E7FFF2E7A81C01F0C1FFEEE70029ECD194
:103D4000002AEAD12B78112B05D0132BE5D121487D
:103D50000DF00EFAE1E76B78DB0706D51E4B00206D
:103D60001E4A011CFFF7BCFDD7E70023F7E7002937
:103D7000D3D1002AD1D12B78002BCED16B78082B50
:103D8000CBD1EC78002C1ED0A8780CF022FC144982
:103D90000CF0B5FB061C2B79002B16D020000CF084
:103DA00018FC0F490CF0ABFB041C211C301C0CF060
:103DB0000BFC002800D0341C0020231C074A011CE7
:103DC000FFF78EFDA9E70026E5E70024EDE7C046F2
:103DD000581600201C520110CDCC0C3F00000243AD
:103DE00000007F43064B1B785BB2022B03D0062BEF
:103DF00003D1044870470448FCE70448FAE7C0468A
:103E0000581600208C6601102C530110145D01100F
:103E100070B5EE2824D0002825D080001E4BC55850
:103E2000280010F0B7FEC0B21F2800D91F200023C1
:103E300027E05A1C194CA15C0902E25C0A434400C9
:103E40001749625202330130112BF2D9154A144B33
:103E500013CB13C211001A680A609B888B8019E08B
:103E600000200023F0E70C4B196802220E480DF0E9
:103E70002FF8012007E05A1CEC5C5100094BCC5292
:103E8000D3B29842F7D801304000C0239B001843BA
:103E9000044B1880034870BD70150020605201105B
:103EA00094200020C0270020C227002000B591B038
:103EB00040226946002010F0C9F8002010F0DCF81C
:103EC000064B1B785BB2002B01D011B000BD04483B
:103ED0000DF01EF9684606F05BFCF6E75816002068
:103EE00034520110F0B583B005001400012966D1E9
:103EF00013785B069B0F012B58D0022B03D0002BAD
:103F000001D000205CE06378022B24D0072B03D083
:103F1000012B19D0002053E0227963791B0213434F
:103F2000042B03D0052B08D0002049E02433264A77
:103F3000210028000FF094FA42E08D33234A21003B
:103F400028000FF08DFA3BE02823214A21002800A9
:103F50000FF086FA34E0227963791B021343072BB2
:103F600030D11C4B1B785BB2022B0FD06B469F1DD0
:103F7000194E0222310038000CF0AAFF3B883200B3
:103F8000083A210028000FF06BFA19E06B469F1DDC
:103F9000124E0222310038000CF09AFF3B883200AA
:103FA000083A210028000FF05BFA09E051780C482C
:103FB0000DF0DEF8210028000FF036FA00E00120B5
:103FC00003B0F0BD0020FBE7301600209C15002058
:103FD0007452011058160020AC5001108451011089
:103FE0004C520110012815D0022907D000290BD10D
:103FF000022A29D0002A29D006207047022A1FD081
:10400000002A1FD00800F8E7022A21D0002A21D078
:104010000820F2E7022907D000290BD1022A1FD07D
:10402000002A1FD00720E8E7022A15D0002A15D061
:104030000320E2E7022AE0D0002A15D00020DCE7C6
:104040000120DAE70320D8E70720D6E70520D4E7E8
:104050000020D2E70420D0E71000CEE70420CCE710
:104060000820CAE70620C8E70520C6E701207047F8
:1040700010B58422002102480CF024FF10BDC04678
:10408000F831002010B50020FFF7F2FF10BD00004E
:10409000F0B5C64600B580460D008B795D2B24D166
:1040A0000B79DF00FF1ABFB21937BFB2974221D890
:1040B0000C780C19002605E0104A53700136F6B250
:1040C0002378E4182B79B34210D96378052BF7D104
:1040D000210040460EF0CEFD00280DD0A378DA096D
:1040E000012AE9D0054A9370E8E70027380080BC30
:1040F000B846F0BD0027F9E70027F7E7F8310020C0
:1041000030B583B0040014484078884206D0124A83
:1041100092788A420CD0012003B030BD0F4A002AA9
:1041200018D09AB20E490020FFF7C0FD0120F3E736
:104130000C4D9BB200932B00002200210020FFF7C2
:10414000DFFD2B00443B997840232A0020000EF02D
:1041500005FEE1E70120DFE7F8310020AD3C00106B
:10416000FC3100203C32002010B50EF0E7FC0028A6
:1041700003D10023002B08D110BD0EF0E7FC00286E
:1041800001D10123F6E70023F4E70B4B99780020D7
:104190000EF020FE0028EFD1074CA1780EF0B6FDFE
:1041A00022004432A178402300200EF0D7FDA178F0
:1041B00000200EF0BFFDDFE7F831002070B50500EC
:1041C0000C000EF0C3FC002806D1812100200EF067
:1041D0009DFD002803D170BD0EF0C0FCF5E7231C47
:1041E000402C00D940239CB2094E22002900300007
:1041F0000CF06EFE351F69782300320000200EF0AF
:10420000ADFD697800200EF095FDFFF7ADFFE2E708
:10421000FC31002010B5104B5C780EF08FFC0028AC
:1042200006D10023002B13D0002C09D1002010E070
:104230000EF08CFC002801D10123F3E70023F1E705
:10424000210000200EF0C6FD002803D1013000E05F
:10425000002010BD0020FCE7F831002010B53C2202
:10426000002102480CF02EFE10BDC0465C28002044
:1042700010B50020FFF7F2FF10BD0000F0B583B0CD
:1042800006000F001500FEF783F802284CD13B7999
:10429000DC00E41AA4B21234A4B2AC4248D8002321
:1042A000002B09D00025002D44D0397879184B789F
:1042B000212B11D0002438E01A01D21A92001F4895
:1042C00082185278002A02D00133DBB2E8E71A01E3
:1042D000D11A89004518E6E7A9630B78C9183A791D
:1042E0006B1C0193AB1C0093032330000EF0DCFC2D
:1042F000002821D0BB79012B13D001232B71BB786F
:104300002B70AA6BD179137A1B020B43EB80A9782F
:1043100000290AD02A003032062330000EF01EFD9C
:1043200003E0FB79EB70E8E70024200003B0F0BD68
:104330000024FAE70024F8E70024F6E75C280020D0
:1043400070B582B005001D4C002000280AD000285E
:1043500030D162788A4213D0A2788A421AD00120E2
:1043600002B070BD0401241AA400144A1419A278E2
:104370008A42ECD062788A42E9D00130C0B2E4E7E8
:104380000F4A002A18D0210008319AB2FFF78EFC9C
:104390000120E5E7260030369BB20093330000226F
:1043A0000021FFF7ADFCA1780623320028000EF0B3
:1043B000D5FCD5E70020D3E70120D1E75C28002019
:1043C000AD3C0010F0B5C64600B582B00600150041
:1043D00012781F231340012B00D01FE128790024FD
:1043E000002C0DD0FF24002C00D01CE127006023FE
:1043F00018001040134239D101290BD001200EE1E1
:1044000023011B1B9B008E4FDB5D9842EBD00134D8
:10441000E4B2E5E7EA786B78062B06D0062B00D0ED
:1044200005E1222A12D00020F9E0212AF6D1230149
:104430001F1BBF00824BDF19BA6B002A00D1F4E0CA
:104440001378290030000FF00BF8E8E02000FFF7A8
:10445000C9FC02003B01DF1BBF00794BDF19FB8861
:10446000290030000EF0FCFF0120D8E0202800D009
:10447000DFE06B780B2B00D9DDE09B00714AD3584D
:104480009F46012901D00120C9E0EA78A9782301DB
:104490001B1B9B0008336A4FFF18A879EB791B029E
:1044A0000343181C252B00D9252080B2002909D0F0
:1044B000012B16D97B1C9C463970013880B2012330
:1044C000984602E0BC4600239846009063462000D0
:1044D000FFF7EAFB030043449BB2002B05D1002009
:1044E0009DE0BC4600239846EFE73A0029003000E3
:1044F0000EF0B6FF012092E0012903D0032915D068
:1045000001208CE0AA79EB791B021343062B01D919
:10451000002084E02201121B9200303248498A18A0
:10452000290030000EF09CFF012078E0EA78A9789D
:1045300023011B1B9B0030334148C318AE79E87937
:1045400000023043051C062800D90625ADB200291B
:1045500004D0012802D91878884205D0009520009F
:10456000FFF7CEFB01205AE00133013DADB2F5E784
:10457000012901D0012052E0E97823011F1BBF006F
:104580002F4BDF197971304B002B04D0200000E055
:1045900000BF002843D0290030000EF045FF012065
:1045A0003DE0012901D0012039E02201171BBF00A5
:1045B000234AD21905320123290030000EF050FFA2
:1045C00001202CE0012901D0012028E02201171B45
:1045D000BF001B4AD21904320123290030000EF01B
:1045E0003FFF01201BE0012903D0032907D0012050
:1045F00015E0290030000EF017FF01200FE0A97828
:1046000023011F1BBF000E4BDF1939710F4B002B0D
:1046100013D0200000E000BF012000E0002002B025
:1046200080BCB846F0BD0020F9E70020F7E7002085
:10463000F5E70020F3E70020F1E70120EFE7C046AF
:104640005C280020FC520110000000000000000067
:1046500010B50301181A8000104B181844780EF09A
:104660006DFA002806D10023002B13D0002C09D1AD
:10467000002010E00EF06AFA002801D10123F3E7D0
:104680000023F1E7210000200EF0A4FB002803D155
:10469000013000E0002010BD0020FCE75C28002075
:1046A00010B50020FFF7D4FF10BD0000F8B50400DE
:1046B0000F0016001D0003011B1A9B001F4AD31890
:1046C000597800200EF022FB002825D0002F24D09E
:1046D0002B1C242D00D924239DB2184A2301191B19
:1046E000890051180F721B1B9B000833D018013032
:1046F0002A0031000CF0ECFB0135ADB20F4B20016C
:10470000021B920008329A18001B8000181841788A
:104710002B0000200EF022FBF8BD2B1C252D00D90C
:1047200025239DB22001001B80000830034B181880
:104730002A0031000CF0CCFBE0E7C0465C280020EA
:1047400010B513000A0001000020FFF7AFFF10BDF5
:10475000107003120F20184050700B011843507056
:10476000091191707047000070B5124D802424012A
:104770002A0021002000FFF7EBFFEA1C21002000A7
:10478000FFF7E6FFAA1D21002000FFF7E1FF2A0046
:10479000093221002000FFF7DBFF2A000C32210044
:1047A0002000FFF7D5FF2A000F3221002000FFF77D
:1047B000CFFF70BDBC65002010B54022002102482B
:1047C0000CF080FB10BDC046142D0020014B18706A
:1047D0007047C04630660020014B18737047C046D2
:1047E000142D0020014B58737047C046142D002033
:1047F00070B5FDF70BF804000E4D2B68C01AC317F7
:10480000C01858400AF01AFD2C6000220A4B0AF02A
:1048100086FC0AF04FFD094B00215A5E1C780849BE
:104820000C70801882B200B21880FF2801DDFF3AB8
:104830001A8070BD9442002000408F40F86500202F
:10484000142D0020024B1A78024B5A707047C04654
:1048500048550110142D0020064B04229A732F3264
:10486000DA73303A1A74013A5A74012119765A7679
:104870007047C046142D002010B5C4B2000A0023B2
:1048800007E019000E31044A5454013150540233E8
:10489000DBB20D2BF5D910BD142D00200A4B0122DF
:1048A0001A7000225A7003329A70084A117AD9702D
:1048B000D179197191795971517999711179D971A8
:1048C000D2781A727047C046142D00207819002043
:1048D00010B50400FFF770FF8120FFF777FF012C70
:1048E00009D0064B1C70064B19784023034A002060
:1048F0000FF046F910BDFFF7D1FFF4E7142D0020AB
:104900003066002070B586B06C462A4B0433220016
:1049100070CB70C270CB70C2022837D0032841D050
:104920000023002500E00133052B10D8224AD218BD
:104930007D32FF3214780522D21A885C8442F2D08C
:104940001D4AD2187D32FF3210700125EBE7002D91
:1049500019D18120FFF740FF184801238373164BBC
:104960001A7AC273DA7902749A7942745A79827423
:104970001A79C274DB7803751530182269460CF079
:10498000A7FA06B070BDFDF7FFFBE2E78120FFF755
:1049900023FF0A48022383730F30102208490CF0CA
:1049A00097FAEEE78120FFF717FF044B03229A7373
:1049B000E7E7C0464855011078190020142D002063
:1049C000942D002070B504000E001500FFF7F4FED2
:1049D0002120FFF7FBFEFFF70BFFFFF733FF20005F
:1049E000FFF700FF482C68D8A4003E4B1B599F4698
:1049F0008020FFF7F1FE00236BE0F07A431E984120
:104A0000C0B201F0C3FEF27A374B1A708020FFF774
:104A1000E3FEF0E731000C31F07AFFF773FFEAE7CD
:104A20008020FFF7D9FEF27A304B1A70E3E782203C
:104A3000FFF7D2FEFFF710FFDDE78020FFF7CCFE87
:104A4000D9E79020FFF7C8FEF27BF17A307B00F0C7
:104A500039FAD0E72648FCF709FFCCE78020FFF7BA
:104A6000BBFEC8E78320FFF7B7FE6420FFF704FF13
:104A7000C1E78020FFF7B0FEBDE78020FFF7ACFE66
:104A8000F27A0F231340033BDAB20C2A03D89300C7
:104A9000184AD3589F460120FDF7D0FFABE703200B
:104AA000FAE70420F8E70520F6E70620F4E70720F8
:104AB000F2E70820F0E70220EEE70023AB4202D243
:104AC00001339BB2FAE78020FFF786FE93E70133BC
:104AD000DBB21F2BFBD94023074A212100200FF016
:104AE0004FF870BDF0530110316600205C160020B5
:104AF000A118001014550110142D002070B50C00E1
:104B0000150010280DD080280FD0012800D070BDCE
:104B1000881C01F0D3F8A07A2A002100FFF752FF89
:104B2000F5E7881C01F0CAF8F1E74878FFF7D0FEF6
:104B3000EDE70000094B1B780A2B07D00B2B09D09F
:104B4000064B0A221A70054B18787047034B0B224C
:104B50001A70F8E7014B0C221A70F4E75D1600207A
:104B600070B504005D4B1B78002B04D15C4B1B78A7
:104B7000302B0BD070BD5B4B1A885B4B18785B49B0
:104B8000FFF7BCFF554B00221A70F3E7FFF714FE46
:104B90003020FFF71BFEFFF72BFEFFF753FE544BB1
:104BA0001B78012B2DD0022B00D18AE02378514DA8
:104BB000AB706378EB70A3782B71E3786B7123791A
:104BC0000F210B40AB716079A3791B0203431B11CA
:104BD000EB71E3792B72237A19406972617AA37AB7
:104BE0001B020B431B11AB72FFF7A4FFE872424B91
:104BF000197840232A0000200EF0C2FF03F062FA69
:104C0000B8E701F067FC83783A4D2B73C3786B7378
:104C10000378AB734378EB7303792B7443796B742C
:104C2000037AAB74437AEB7483792B75C3796B7514
:104C3000837AAB75C37AEB7501F04CFC83782B76E5
:104C4000C3786B760378AB764378EB7603792B7772
:104C500043796B77037AAB77437AEB7782792023BA
:104C6000EA54C2790133EA54827A0133EA54C27AAF
:104C70000133EA5401F02EFC82782423EA54C278EE
:104C80000133EA5402780133EA5442780133EA549A
:104C900002790133EA5442790133EA54027A01334A
:104CA000EA54427A0133EA5482790133EA54C279F0
:104CB0000133EA54827A0133EA54C27A0133EA5466
:104CC00074E70E4D280001F057F80A4B0C3307CD5E
:104CD00007C307CD07C307CD07C367E732660020C8
:104CE0005C1600205A16002033660020542D002048
:104CF00031660020142D002030660020B0420020D4
:104D000010B5054B01241C70044B1870044B1A801D
:104D100004480CF0DDF810BD326600203366002038
:104D20005A160020542D002010B5024B18180CF014
:104D3000CFF810BD142D0020502800D1B0E003D9C9
:104D400060282FD0FF2010E0402800D9AAE02028BA
:104D500005D34B2924D88B00564AD3589F460028A8
:104D600003D0102800D09FE0002070479520FCE77A
:104D70000020FAE72A39504B59187D31FF31087865
:104D8000F3E704394C4B59187D31FF310878ECE7D3
:104D90000020EAE70020E8E76820E6E70020E4E7F3
:104DA0000020E2E7A92979D88B00444AD3589F46CE
:104DB000FF20DAE70220D8E70120D6E72320D4E756
:104DC0000020D2E7B920D0E71A20CEE70120CCE7B7
:104DD0000020CAE74020C8E70020C6E74020C4E71B
:104DE0000020C2E74020C0E70120BEE70020BCE76A
:104DF0000120BAE70020B8E70120B6E70020B4E7B9
:104E00003B20B2E73420B0E73B20AEE73420ACE7EC
:104E10003B20AAE73420A8E73D39294B585CA4E79A
:104E20003D39274B585CA0E71A209EE71A209CE7E3
:104E30001A209AE75E2098E7012096E7502094E731
:104E4000FD2092E7002090E700208EE7C6208CE747
:104E50000F208AE70F2088E7302086E7612084E76B
:104E6000AE2082E7902080E7D9207EE7D4207CE73F
:104E700014207AE7542078E7412076E7152074E77C
:104E8000542072E7C72070E779206EE79C206CE71A
:104E900033206AE7362068E7632066E7002064E78E
:104EA000002062E7FF2060E7FF205EE722205CE74A
:104EB00003205AE764550110781900209456011018
:104EC000BC650020F0B58BB006000F00150008A9E6
:104ED0000F70487000248C70CC700A7105220E206F
:104EE000FFF722FF00941A22002101A80BF0EAFF2D
:104EF00007E03919C9B23000FFF71EFF6B4618559D
:104F00000134A542F5DC2A0069461320FFF70CFFA7
:104F10000BB0F0BD70B5002406E0281C0BF08EFD30
:104F2000A3000F4AD0500134A0235B009C4215D24D
:104F300020000BF04EFBF42189050BF0F6FA8221DC
:104F4000C9050BF0D2FA051C06490BF035FB002809
:104F5000E3D1A300024A00219950E4E770BDC046A6
:104F6000941B00200000FEC010B5002405E0A30043
:104F70001B4AC1210906995001347F2C2FD8002CDF
:104F8000F5D00F2C0FD91F2C1BD920000BF021FBC3
:104F9000F42189050BF0C9FA12490BF0A6FAA30017
:104FA0000F4AD050E8E720000BF013FBFA218905E7
:104FB0000BF0BBFA0C490BF098FAA300084AD0504A
:104FC000DAE720000BF005FBF62189050BF0ADFABE
:104FD00006490BF08AFAA300014AD050CCE710BD75
:104FE000A820002000007E400000F84000009E4005
:104FF00010B500240EE020000BF0EBFAF421890537
:105000000BF093FA8021C9050BF06FFAA300034A55
:10501000D05001347F2CEED910BDC046A82200200C
:1050200010B5041C0BF0FCFA0BF0D8FA8221C9056C
:105030000BF060FA0BF0F4FA00280BD08221C905BE
:10504000201C0BF057FA8421C9050BF06EFA0BF007
:1050500019FB10BD0020FCE710B51C1C022818D05D
:10506000032805D0002801D0201C10BD141CFBE72C
:10507000101C0BF03FFA041C02990BF08FFA002869
:1050800009D10399201C0BF09FFA0028ECD0039C57
:10509000EAE70C1CE8E7029CE6E710B5FFF73AFFE9
:1050A000FFF762FFFFF7A4FF10BD000070B5050019
:1050B0000C0000786B781B020343AA781204134398
:1050C000E87800061843FFF7ABFF284E80008059B0
:1050D00027490BF02AFA2070030A6370030CA370AF
:1050E000000EE070287A6B7A1B020343AA7A12043E
:1050F0001343E87A00061843FFF792FF80008059B7
:105100001C490BF012FA2072030A6372030CA3729B
:10511000000EE07228796B791B020343AA7912040E
:105120001343E87900061843FFF77AFF80003358ED
:1051300023711A0A62711A0CA2711B0EE371287B8B
:105140006B7B1B020343AA7B12041343E87B00061C
:105150001843FFF765FF8000335823731A0A627300
:105160001A0CA2731B0EE37370BDC046941B002083
:105170000000A04300002043F0B5DE4657464E46EF
:105180004546E0B589B005000C00C678B3091E009D
:105190000B700C22002105A80BF094FE0C220021BC
:1051A00002A80BF08FFE002E0CD1012E00D99FE03B
:1051B000022E00D932E109B0F0BCBB46B246A94686
:1051C000A046F0BDAA781209EB7801211940090127
:1051D0000A43DD4B984653009B189B00434405AAA5
:1051E00083CB83C200239B46A278E3781B02134340
:1051F000217909040B43627912061A436B46587DE4
:105200008023DB050193C021090600915B460799C5
:10521000FFF722FFA21CA070030A9146E370030C63
:105220002371000E6071C12212069246A279E379C1
:105230001B021343217A09040B43627A12061A43B4
:1052400006996B46187D5F4601975746009753466F
:10525000FFF702FFA071020AE271020C2272000E37
:105260006072EA789206D20E53009B189B0043446A
:1052700002AA83CB83C2A27AE37A1B021343217B67
:1052800009040B43627B12061A436B46587A80234B
:10529000DB050193C021090600915B460499FFF7E5
:1052A000DBFEA072020AE272020C2273000E60732F
:1052B000A27BE37B1B021343217C09040B43627C2A
:1052C00012061A4303996B46187A5B4601935346BC
:1052D0000093FFF7C1FEA073020AE273020C22746E
:1052E000000E6074210012314846FFF7DFFE5CE7D4
:1052F0006B785B06DA0E944B984653009B189B0024
:10530000434405AA83CB83C200239B46A278E3785B
:105310001B021343217909040B43627912061A43D5
:105320006B46587D8023DB050193C021090600915F
:105330005B460799FFF790FEA21CA070030A9146F6
:10534000E370030C2371000E6071C12212069246B5
:10535000A279E3791B021343217A09040B43627A91
:1053600012061A4306996B46187D5F460197574609
:1053700000975346FFF770FEA071020AE271020C1B
:105380002272000E60726A78D209A9780F230B404E
:105390005B0013435A00D3189B00434402AA83CBFB
:1053A00083C2A27AE37A1B021343217B09040B43D5
:1053B000627B12061A436B46587A8023DB05019301
:1053C000C021090600915B460499FFF745FEA072D3
:1053D000020AE272020C2273000E6073A27BE37B6E
:1053E0001B021343217C09040B43627C12061A43FF
:1053F00003996B46187A5B46019353460093FFF777
:105400002BFEA073020AE273020C2274000E607479
:10541000210022314846FFF749FEC9E62A78D20624
:10542000D10E05AF930E5B189B00474A9446634428
:105430003A0043CB43C200239A46A278E3781B028A
:105440001343217909040B43627912061A437878D1
:105450008023DB059B460193C0231B060093534624
:105460000799FFF7F9FDA21C9046A070030AE370AC
:10547000030C2371000E6071C12212069146A279BD
:10548000E3791B021343217A09040B43627A120663
:105490001A4306993878574601974F4600974B466E
:1054A000FFF7DAFDA071020AE271020C2272000E0F
:1054B00060722A785209697803230B40DB0013439A
:1054C00002AD5A00D3189B001F4AD6182A0083CE7B
:1054D00083C2A27AE37A1B021343217B09040B43A4
:1054E000627B12061A43687859460191C0231B0655
:1054F000009353460499FFF7AFFDA072020AE272CF
:10550000020C2273000E6073A27BE37B1B02134329
:10551000217C09040B43627C12061A430399287804
:10552000534601934B460093FFF796FDA073020A82
:10553000E273020C2274000E607421003231404686
:10554000FFF7B4FD37E6C0463C59011070B50200C4
:10555000C3789B090B700478A408407801230340AA
:105560009B0123431A4D9B00881CEB588B701C0A2F
:1055700044701C0C84701B0EC37093785B06DB0DAB
:10558000EB588B721D0ACD721D0C0D731B0E4B73E5
:1055900053785B080F4C9B00E3588B711E0ACE7149
:1055A0001E0C0E721B0E4B729578ED09D2783F23BC
:1055B00013405B002B439B00E3588B731C0ACC7396
:1055C0001C0C0C741B0E4B741231FFF76FFD70BD79
:1055D000A8220020A8200020F0B5DE4657464E46FF
:1055E0004546E0B589B005000C000C22002105A855
:1055F0000BF068FC0C22002102A80BF063FCEE7893
:10560000B3091E1E23706ED02B78DB0700D473E025
:105610002B785B089B00B649CB58A370190AE17040
:10562000190C21711B0E6371A978C909EA783F230F
:1056300013405B000B439B00AE49CB58A371190A82
:10564000E171190C21721B0E6372AA785206D20EF8
:1056500002AB994653009A189200A74B9B184A46F2
:1056600083CB83C200239846A27AE37A1B021343BA
:10567000217B09040B43627B12061A434B46587880
:105680008023DB050193C0231B0600934346494654
:105690008968FFF7E1FCA072020AE272020C227331
:1056A000000E6073C1231B06A27BE17B090211433C
:1056B000207C00040143627C12060A434946496883
:1056C00048460078474601970093FFF7C5FCA07352
:1056D000020AE273020C2274000E6074A01C210006
:1056E0001231FFF7E3FC012E6DD809B0F0BCBB46C8
:1056F000B246A946A046F0BD2B785B089B007C4AC9
:10570000D358A372190AE172190C21731B0E63732B
:10571000A978C909EA783F2313405B000B439B003B
:10572000744AD358A373190AE173190C21741B0E20
:105730006374AA785206D20E05AB994653009A18A4
:1057400092006D4B9B184A4683CB83C20023984638
:10575000A278E3781B021343217909040B43627991
:1057600012061A434B4658788023DB050193C02369
:105770001B060093434649468968FFF76DFCA070FD
:10578000020AE270020C2271000E6071C1231B0636
:10579000A279E17909021143207A00040143627A77
:1057A00012060A4349464968484600784746019729
:1057B0000093FFF751FCA071020AE271020C227201
:1057C000000E60728AE76A78D206D10E05AF930E9A
:1057D0005B189B00484A944663443A0043CB43C25B
:1057E00000239A46A278E3781B0213432179090427
:1057F0000B43627912061A4378788023DB059B46B7
:105800000193C0231B06009353460799FFF724FC1E
:10581000A21C9046A070030AE370030C2371000ED3
:105820006071C12212069146A279E3791B021343EB
:10583000217A09040B43627A12061A4306993878D2
:10584000574601974F4600974B46FFF705FCA0715E
:10585000020AE271020C2272000E60726A7852092A
:10586000A97803230B40DB00134302AD5A00D31881
:105870009B00214AD6182A0083CE83C2A27AE37AFB
:105880001B021343217B09040B43627B12061A435C
:10589000687859460191C0231B060093534604992A
:1058A000FFF7DAFBA072020AE272020C2273000E0A
:1058B0006073A27BE37B1B021343217C09040B432F
:1058C000627C12061A4303992878534601934B468B
:1058D0000093FFF7C1FBA073020AE273020C22746B
:1058E000000E6074210022314046FFF7DFFBFCE62A
:1058F000A8220020A82000203C590110F0B5DE4667
:1059000057464E464546E0B589B005000C000C22CE
:10591000002105A80BF0D6FA0C22002102A80BF0FA
:10592000D1FAEE78B3091E1E23701AD02B78DA074D
:1059300035D55B0721D5A978C909EA783F231340FB
:105940005B000B439B00BC49CB58A370190AE17064
:10595000190C21711B0E6371A01C21001231FFF77D
:10596000A5FB012E41D8022E00D9D4E009B0F0BC2D
:10597000BB46B246A946A046F0BDA978C909EA7857
:105980003F2313405B000B439B00AC49CB58A371F2
:10599000190AE171190C21721B0E6372DCE75B07B7
:1059A00011D5A978C909EA783F2313405B000B435E
:1059B0009B00A14AD358A372190AE172190C2173F2
:1059C0001B0E6373C8E7A978C909EA783F2313401F
:1059D0005B000B439B00994AD358A373190AE173E8
:1059E000190C21741B0E6374B6E76A785209AB7800
:1059F00003211940C9000A43914B984653009B1854
:105A00009B00434405AA83CB83C200239B46A27814
:105A1000E3781B021343217909040B4362791206D0
:105A20001A436B46587D8023DB050193C02109068C
:105A300000915B460799FFF70FFBA21CA070030AB9
:105A40009146E370030C2371000E6071C1221206AF
:105A50009246A279E3791B021343217A09040B438E
:105A6000627A12061A4306996B46187D5F460197C3
:105A7000574600975346FFF7EFFAA071020AE2710A
:105A8000020C2272000E6072AA785206D20E5300E7
:105A90009B189B00434402AA83CB83C2A27AE37A79
:105AA0001B021343217B09040B43627B12061A433A
:105AB0006B46587A8023DB050193C02109060091CB
:105AC0005B460499FFF7C8FAA072020AE272020C60
:105AD0002273000E6073A27BE37B1B021343217CC5
