:020000041000EA
:1000000000B5324B212058609868022188439860DF
:10001000D860186158612E4B002199600221596106
:100020000121F02299502B49196001219960352056
:1000300000F044F80222904214D00621196600F024
:1000400034F8196E01211966002018661A6600F04E
:100050002CF8196E196E196E052000F02FF8012189
:100060000842F9D1002199601B49196000215960AB
:100070001A491B48016001219960EB211966A021F2
:10008000196600F012F800219960164914480160C1
:100090000121996001BC002800D000471248134993
:1000A000086003C880F30888084703B5996A0420EC
:1000B0000142FBD001200142F8D103BD02B5186610
:1000C0001866FFF7F2FF186E186E02BD00000240BE
:1000D000000000180000070000035F00212200005C
:1000E000F4000018222000A00001001008ED00E03C
:1000F00000000000000000000000000074B24E7A12
:1001000000200420F7010010C3010010C5010010F9
:10011000C1010010C1010010C1010010C101001097
:10012000C1010010C1010010C1010010C701001081
:10013000C1010010C1010010C9010010CB01001065
:10014000CD010010CD010010CD010010CD01001037
:10015000CD010010CD010010CD010010CD01001027
:10016000CD010010CD010010CD010010CD01001017
:10017000CD010010CD010010CD010010CD01001007
:10018000CD010010CD010010CD010010CD010010F7
:10019000CD010010CD010010CD010010CD010010E7
:1001A000CD010010CD010010CD010010CD010010D7
:1001B000CD010010CD010010CD010010CD010010C7
:1001C00000BE00BE00BE00BE00BE00BEEFF3058054
:1001D000103800BEF2EB88712484011044840110B1
:1001E0003402001090A31AE700201F49086006C8D7
:1001F00081F3088810471D48006800282FD10DA4FE
:100200000ECC002902D000F012F8F9E71849194A7B
:10021000002000E001C19142FCD1174988471749ED
:1002200088471749884700BEFDE701C901C29A42C5
:10023000FBD3704744840110C000002068180020E0
:10024000EC9B01100000042000000420EC9B011036
:10025000001004200010042000000000704709482E
:100260000EF0B6FD0047000008ED00E0000000D0F1
:10027000881800206466002059DB00100509001072
:1002800015DB00105756000006005250ABB3605308
:10029000387A011006005250861C0302487A011079
:1002A000060052505422A29D607A0110050052505F
:1002B000DE65F468EC9B0110F8B5C04610B5064C3D
:1002C0002378002B07D1054B002B02D0044800E017
:1002D00000BF0123237010BD881B00200000000018
:1002E000704F0110044B10B5002B03D00349044894
:1002F00000E000BF10BDC046000000008C1B0020C5
:10030000704F011010B504001F210BF035FC0022C6
:10031000002120000BF048FC002120000BF05EFCC7
:1003200010BD10B504000BF071FC0022012120006B
:100330000BF03AFC0123A340D02212065362536112
:1003400010BD10B504000BF061FC0022012120005B
:100350000BF02AFC0123A340D0221206936210BDA9
:1003600070B5040000290CD00BF050FC0123A34011
:10037000D022120693620022002120000BF014FC10
:1003800070BD0BF043FC0125A540D02636067562F2
:100390000022002120000BF007FCB561F0E770B5EA
:1003A00000280FD0D024240680256D0465616420C8
:1003B0000CF074FD80239B04636164200CF06EFDDF
:1003C000A56170BDD024240680256D04656164207C
:1003D0000CF064FD80239B04A36164200CF05EFD9F
:1003E000A561EEE710B5002804D001211A20FFF71F
:1003F000B7FF10BD00211A20FFF7B2FFF9E7000098
:1004000010B51220FFF78DFF1120FFF78AFF102093
:10041000FFF787FF0F20FFF784FF0E20FFF781FF14
:100420000D20FFF77EFF0C20FFF78BFF0B20FFF75F
:1004300088FF0A20FFF785FF1849194811F0EAFEE6
:10044000012106200BF098FB012107200BF094FB03
:10045000012104200BF090FB01200BF0D7FBD024EE
:10046000240602236362636109200BF0CFFB802323
:100470009B006362636100200BF0C8FB0123636291
:10048000636102200BF0C2FB04236362636101F02D
:100490006DF81A200BF0BAFB10BDC046C0C62D0087
:1004A00000C00340F8B5DE4657464E464546E0B527
:1004B0000400D0252D068023DB029946AB61052080
:1004C00000210CF0BFFC6B68DB0A012633405A4266
:1004D000534101273B402278B243134323706B689A
:1004E0001B0B33405A425341DB0162787F218B461C
:1004F0000A40134363706B689B0A33405A4253416E
:100500003B401B0162786F3988468A43134363700E
:100510004B466B6180239B029946AB61052000210D
:100520000CF090FC6B68DB0A33405A4253413B406D
:100530005B00227802218A468A43134323706B684A
:100540001B0B33405A4253413B401B01227841462A
:100550008A43134323706B689B0A33405A425341CA
:100560003B405B01627810318A43134363704B4612
:100570006B6180235B029946AB61052000210CF082
:1005800061FC6B68DB0A33405A4253413B409B009D
:10059000227804218A43134323706B681B0B33407A
:1005A0005A4253413B409B012278402082431343EF
:1005B00023706B689B0A33405A4253413B405B00B7
:1005C000A27851468A431343A3704B466B61802344
:1005D0001B029946AB61052000210CF033FC6B68CF
:1005E000DB0A33405A4253413B406278B2431343E3
:1005F00063706B681B0B33405A425341DB01227816
:1006000059460A40134323706B689B0A33405A4291
:1006100053413B40A278B2431343A3704B466B61F6
:100620008023DB019B46AB61052000210CF00AFC16
:100630006B68DB0A33405A4253413B409B0162786E
:1006400040208243134363706B681B0B33405A4254
:1006500053413B409B00627804218A4313436370FB
:100660006B689B0A33405A4253413B40DB0022787F
:10067000383881468243134323705B466B61802385
:100680009B019B46AB61052000210CF0DBFB6B68F6
:10069000DB0A33405A4253413B405B00627850468C
:1006A0008243134363706B681B0B33405A425341C0
:1006B0003B40DB00627848468243134363706B68BB
:1006C0009B0A33405A4253413B405B012278183029
:1006D0008243134323705B466B616B685B091E406A
:1006E00073425E413740FF00A3784A4693431F435D
:1006F000A7706378DB06DB0F1B01FAB2404682432A
:100700001343A370204B1A68C0239B015340E0227F
:10071000D20113401D4A13601D4B042119601A4B6E
:100720001B68DB05FBD518494A681204130C194AEB
:10073000D21A096880239B014B40E021C9010B407C
:1007400012490B60124B042119600F4B1B68DB052B
:10075000FBD50D4B5B681B04190C0E4B5B1AE2704A
:10076000100A2071100C6071120EA271E371190A47
:100770002172190C61721B0EA372F0BCBB46B2460B
:10078000A946A046F8BDC04600C0044000D00440C1
:1007900000E00440FF0F0000F0B5D6464F46464645
:1007A000C0B584B0040003AF3A4B1A883A800223E4
:1007B00099460023BB7002AE3280B37001AD2A802F
:1007C000AB7069460A808B70D0231B0698464A4658
:1007D0009A61314B9A4603233A00D021504614F0D7
:1007E00027FB43464A465A619A6103233200F021AF
:1007F000504614F01DFB43464A465A6180239B0035
:10080000994643464A469A6103236A46F021504678
:1008100014F00EFB43464A465A619A6103232A00AC
:10082000D021504614F004FB43464A465A613B78B7
:100830005B027A785200E02109010B401343BA7839
:10084000D209134323603278520273785B000A4066
:100850001A43B378DB091A4362602A7852026B7834
:100860005B000A401A43AB78DB091A43A2606B466F
:100870001B785B026A46527852000B4013436A466B
:100880009278D2091343E36004B0E0BCBA46B146A3
:10089000A846F0BD884F011000C0034010B500F01D
:1008A0002FFD10BD10B504004378DB0713D4637827
:1008B0001022110019401A4203D0114B1B78002B53
:1008C0000FD0002903D10E4B1B78002B10D10A202A
:1008D0000CF0E4FA10BD0022002100200DF0DEF83B
:1008E000E5E70020FFF77EFD054B01221A70EEE7D9
:1008F0000120FFF777FD024B00221A70E7E7C046A0
:100900001B66002010B584B010F044FD64200CF08C
:10091000C5FA2B4810F002FDFFF772FD11F052FAF4
:100920001D20FFF7EFFC1C20FFF7ECFC1A200BF05A
:100930006DF9D02424068023DB046362A3611820B0
:100940000BF064F980235B046362A36119200BF050
:100950005DF980239B046362A36105200BF056F9C7
:100960002023A3620022012105200BF01DF901AC18
:100970000C220021200010F0ABFB2000FFF792FDBD
:10098000104B9B886A461380627812231340122B07
:1009900009D018231340182B0CD0684601F0C8F872
:1009A000002004B010BD08480EF012FA0300002128
:1009B00008009847163B6A46137005335370ECE7FE
:1009C000704F0110884F01105542000070B5041C93
:1009D00000210FF0E1FE00282AD1184B1D680021EC
:1009E000281C0FF0D9FE002825D1FD218905201CE7
:1009F0000FF08BFE041CFE2189050FF0EBFE002892
:100A000001D0FE24A4050E49281C0FF094FE011C01
:100A1000201C0FF090FE0B490FF072FE041CFE210B
:100A200089050FF0D7FE002803D0FE24A40500E0BE
:100A30000024201C70BD0024FBE7C0466015002088
:100A40003333733FCDCC4C3D70B5041C00210FF007
:100A5000A3FE00282AD1184B1D680021281C0FF086
:100A60009BFE002825D1FD218905201C0FF04DFE9D
:100A7000041CFE2189050FF0ADFE002801D0FE24E4
:100A8000A4050E49281C0FF056FE011C201C0FF077
:100A900052FE0B490FF034FE041CFE2189050FF0B5
:100AA00099FE002803D0FE24A40500E00024201CA9
:100AB00070BD0024FBE7C046601500203333733F50
:100AC000CDCC4C3D70B50025002414E0201C0FF067
:100AD0000BFF8621C9050FF02EFE0FF0A7FE6B005D
:100AE000074AD0520749201C0FF00AFE064910F0B1
:100AF000C1F9041C013580235B019D42E6DB70BD1A
:100B0000BC450020DB0FC93ADB0FC940F0B5DE461B
:100B100057464E464546E0B591B083460C0030221C
:100B2000002104A810F0D4FA0023002204A9012017
:100B300002F044FF82460027002303939946B1E068
:100B40000023636323642361E361A3626360A56A96
:100B50000021281C0FF03EFE002804D0291C606AEA
:100B60000FF0CEFD606265680021281C0FF032FE98
:100B7000002804D0291C20680FF0C2FD2060E06A24
:100B80000FF086FE80B28F4D4000405F0FF02CFECC
:100B90000190A0680FF07CFE80B24000405F0FF033
:100BA00023FE0290E06BFFF74FFF061CA069FFF7E2
:100BB0000DFF051C011C301C0FF0A2FD8046FE211C
:100BC00089050FF007FE00280FD04146FE20800562
:100BD0000FF09BFD8046011C301C0FF0ACFD061C85
:100BE0004146281C0FF0A7FD051C0199301C0FF091
:100BF000A2FD061C0299281C0FF09DFD011C301C53
:100C00000FF07EFD051C70490FF0E4FD002807D1B0
:100C10000021281C0FF0C8FD002802D0002500E0AC
:100C2000694D281C0FF034FE0604281C0FF030FE1E
:100C3000C0B20643BB005A46D650E16A606A0FF064
:100C40005FFD051CE0622168A0680FF059FDA060FF
:100C50008B26F605311C281C10F00CF9E062311CC3
:100C6000A06810F007F9A0604B461D2B00D994E056
:100C7000616B206B0FF044FD2063216CE06B0FF083
:100C80003FFDE0632169E0680FF03AFDE060E16953
:100C9000A0690FF035FDA0614B4601339BB2994628
:100CA0000137BFB2FE2F00D985E04B46002B00D0A4
:100CB0004DE75346002B00DC42E7039B534500DB26
:100CC0003EE71B011E0004AA94466644B2689046A3
:100CD00062469A5801924146A163256B291C404601
:100CE0000FF009FD39490FF010FD60638B21C90534
:100CF000281C0FF020FD36490FF007FD051C60622F
:100D00008B21C90540460FF016FD31490FF0FDFC5F
:100D1000291C0FF0F0FC2D490FF0F7FCA062019A9E
:100D20006264E16B101C0FF0E6FC28490FF0EDFC4B
:100D30002064F268904676686261E568291C101CA0
:100D40000FF0D9FC21490FF0E0FC20618B21C9058F
:100D5000281C0FF0F0FC1E490FF0D7FC051C20608A
:100D60008B21C90540460FF0E6FC19490FF0CDFC78
:100D7000291C0FF0C0FC15490FF0C7FC606026620B
:100D8000A169301C0FF0B7FC10490FF0BEFCE06108
:100D9000039B0133DBB20393D9E6A36B2363636C3C
:100DA000E3636369E360236AA3610023A362636072
:100DB0000023994674E711B0F0BCBB46B246A94681
:100DC000A046F0BDBC45002000007F430000F0417C
:100DD00000803B46F0B5CE46474680B587B015004B
:100DE000FFF770FE042108200AF0C6FE042103204C
:100DF0000AF0C2FEED4B9846042342461360EC4FC6
:100E0000033B99463B6009200CF03EFD0FF0E7FCE8
:100E1000E8490FF090FCE8490FF077FC041C28002B
:100E20000FF0E2FC011C201C0FF06FFCFA21890579
:100E30000FF081FC84466B46002500955D609D6047
:100E400010225A60DD4A9A6003AC220043CB43C2B1
:100E50008321C90560460FF06EFC0FF019FD049068
:100E6000FE23059343461868D549820013189B005A
:100E70005D5013189B008C4663449D60DD60059EA9
:100E80001E61049E5E6012189200039B53503868E6
:100E9000820013189B005D5013189B0063449D60F3
:100EA000DD60059D1D61049C5C6012189200039B2F
:100EB000535043461B684A469A4013003A684E46D0
:100EC00096401E43A023CE50012011F02DF9BD4CB9
:100ED0002060012011F028F9BB4B1860012011F0AF
:100EE00023F9BA4B1860012011F01EF9B84B1860B5
:100EF000012011F019F9B74B18602268B64B0C2A83
:100F000000D987E1B5490B40D20213430C218B4332
:100F100008221343B2480340B2480340B24803409A
:100F200001200343B1480340022083438B43134312
:100F30000832934310329343A64A12680C2A00D910
:100F40006EE1A6491940D3020B43984A1268183241
:100F50003F2A00D96AE1A6491940D3030B43994AB5
:100F6000126892490868810009188900A1488446DE
:100F700061449201A020C005844662449E4D1560E4
:100F800051600421916013618F4B1A68924B0C2AB7
:100F900000D951E191490B40D20213430C218B43FC
:100FA000082213438E4803408E4803408E48034076
:100FB000012003438D480340022083438B431343A6
:100FC0000832934310329343794A126818323F2A09
:100FD00000D937E186491940D3030B437A4A126896
:100FE0007349086881000918890082488446614471
:100FF0009201A020C005844662441560516004211E
:1010000091601361714B1A68734B0C2A00D91FE170
:1010100072490B40D20213430C218B430822134325
:101020006F4803406F4803406F480340012003436B
:101030006E480340022083438B431343083293439B
:1010400010329343594A126818323F2A00D905E1F9
:1010500067491940D3030B435C485A4A1168890118
:10106000664A9446614402689201A024E405A446BD
:101070006244634C14605160FF21890091601361E8
:101080000268012393405F4A13605F490C200AF015
:10109000DDFE01210C200AF0C9FE4D4B1A684E4BB3
:1010A0000C2A00D9E0E04D490B40D20213430C2139
:1010B0008B43082213434A4803404A4803404A48A6
:1010C00003400120034349480340022083438B43EC
:1010D00013430832934310329343354A126818324F
:1010E0003F2A00D9C6E042491940D3030B43384A8E
:1010F0001268354909688901404884466144920173
:101100003C388446624414605160FF21890091603C
:101110001361304B1A68304B0C2A00D9B0E02F49CC
:101120000B40D20213430C218B43082213432C485B
:1011300003402C4803402C480340012423432B4800
:101140000340022083438B4313430832134310327E
:101150009343204A12689201A021C9058C4662443B
:101160002A4E1660556094601361FF220021300002
:101170000FF0AEFFFF239B00F018FF2200210FF0BD
:10118000A7FF134B1B6822009A4013000F4A1268F6
:1011900094401C431E4B1C60A022D2058623DB001A
:1011A000D45007B0C0BCB946B046F0BD3C430020A7
:1011B0004043002000007A4400007E43FFFF00000F
:1011C000000005403C3D0020403D0020483D0020FF
:1011D0004C3D0020443D002010801F00FF87FFFF92
:1011E0003FF8FFFFFFFFBFFFFFFFDFFFFFFF7FFFB6
:1011F000FF7FE0FF0C000540BC6500203C00005074
:101200006415002014240050C1000020B4320020D6
:10121000503D00201D4B1E4AC3211E480CF07EFC91
:101220001A4B1B4AB7311B480CF078FC1A4B1B4A6F
:10123000B52118480CF072FC144B154ABF31154803
:101240000CF06CFC144B154AA93112480CF066FCEA
:101250000E4B0F4ABF310F480CF060FC0E4B0F4A8B
:10126000A9310C480CF05AFC084B094AC321094823
:101270000CF054FC084B094AA93106480CF04EFC0E
:10128000024B034AC32103480CF048FC904F011065
:1012900048500110B04F01101C5001103050011087
:1012A00000B583B0124B1B78002B0FD000236A4689
:1012B000D371911DD01D00F0CDFA6B46D87900286E
:1012C0000DD10C4B00221A6003B000BD084B012267
:1012D0001A70094A03210820FFF77CFDE6E70FF0AA
:1012E0007EFA06490FF011FA024B1860ECE7C0468F
:1012F0005C66002060150020E02E00000000C8425F
:1013000010B50B4B1B78002B00D110BD084B0022F1
:101310001A70084B1A68D2B201239B1ADBB21A0268
:10132000D31A9800044BC0180449FFF7EFFBECE711
:101330005F660020B0320020B4320020683D0020FB
:1013400070B50024174D231C2A1C211C201C02F000
:10135000A7FB08200BF0A2FD0020FFF7D1FFFE2322
:101360009B052A1C211C201C02F09AFB002408E08B
:101370000020FFF7C5FF0CF03FFB08200BF08EFDAF
:1013800001343D2CF4DD0024064D231C2A1C211CB5
:10139000201C02F085FB231C2A1C211C201C02F0AF
:1013A0007FFB70BD000002430902084300B2704792
:1013B00070B582B0D02424060125A5616B46187152
:1013C00059710B4E022201A9300013F089FD6561AD
:1013D00002200BF063FD0335A561022201A9300054
:1013E00013F07EFD656102200BF058FD02B070BD68
:1013F00000C00340F0B5DE4657464E464546E0B5D0
:1014000085B006000D0001AC0023019308220021E5
:1014100002A80FF05DFE03236B449B46A2235A46AD
:101420001370D0231B069946012398464B4642462B
:101430009A614D4B9A465946180013F051FD0C2302
:1014400022000021504613F0F3FC4B4642465A61FD
:1014500061782078FFF7A8FF83B2FF273840B0718A
:101460001B0AF371E178A078FFF79EFF83B2384042
:1014700030721B0A737261792079FFF795FF83B28E
:101480003840B0721B0AF372E179A079FFF78CFF44
:1014900083B2384030701B0A7370617A207AFFF78C
:1014A00083FF80B2404283B23840B0701B0AF370B1
:1014B000E17AA07AFFF778FF83B2384030711B0AD7
:1014C00073714A460423936101225946504613F032
:1014D00007FD0C2322000021504613F0A9FC4A46C8
:1014E0000423536161782078FFF75EFF83B23840B0
:1014F000A8711B0AEB71E178A078FFF755FF83B262
:10150000384028721B0A6B7261792079FFF74CFF13
:1015100083B23840A8721B0AEB72E179A079FFF719
:1015200043FF83B2384028701B0A6B70617A207ABF
:10153000FFF73AFF80B2404283B23840A8701B0ADE
:10154000EB70E17AA07AFFF72FFF83B23840287161
:101550001B0A6B71434633732B7305B0F0BCBB465B
:10156000B246A946A046F0BD00C0034010B5AE216A
:101570001020FFF71DFF5C211120FFF719FF042148
:101580001220FFF715FF04211320FFF711FF0021A0
:101590001520FFF70DFFE0211720FFF709FF10BD11
:1015A000F0B5C64600B5040014282DD015282FD05C
:1015B000132803D0002080BCB846F0BD14271523A3
:1015C000984620000AF022FB01263300A340D025D4
:1015D0002D06AB620022012120000AF0E5FA404608
:1015E0000AF014FB3300424693406B62AB61380053
:1015F0000AF00CFB3300BB406B62AB616B68E340ED
:101600001E4209D00120D6E7132715239846D8E7B4
:10161000132714239846D4E70020CCE710B51420F4
:10162000FFF7BEFF10BD10B51320FFF7B9FF10BDC7
:1016300010B51520FFF7B4FF10BD10B501211A2019
:10164000FEF78EFE962080000BF028FC09F0CAFE03
:10165000002800D110BD0120FCE710B501F08AFF81
:1016600010BD01207047000070B584B003A9484B3D
:101670001A880A8000238B7002A90A808B7001A946
:101680000A808B7069460A808B7032241FE0013318
:10169000022B14D803AAD25C002A00D0012101AA8F
:1016A000D25C002A00D0012602AAD25C002A00D017
:1016B00001256A46D25C002AE9D00120E7E700292B
:1016C00005D0002D03D0002E01D0002857D12300D3
:1016D000013C002B50D0D0231B0602229A612D4BD7
:1016E000DB685B07FBD5032303AAD021294813F04D
:1016F0009FFB032842D1D0231B0602225A619A6124
:10170000244BDB685B07FBD5032302AAF0212148A9
:1017100013F08EFB032834D1D0231B0602225A611A
:10172000FF32FF329A611B4BDB685B07FBD503235B
:101730006A46F021174813F07BFB032823D1D023FE
:101740001B06802292005A619A61124BDB685B078C
:10175000FBD5032301AAD0210E4813F069FB03280F
:1017600013D1D0231B06802292005A61002300204F
:101770000026002500218BE7002000E0002004B0B7
:1017800070BD0020FBE70020F9E70020F7E7C04626
:101790006450011000C0034010B5FFF7D1FD0120D7
:1017A00010BD0120704770B582B0FFF75DFF01AC3E
:1017B0000126012528400301207810229043184378
:1017C0002070FFF74AFFC30122787F2010401843A2
:1017D0002070FFF732FF2840830120784022904399
:1017E00018432070FFF724FF28408300207804224C
:1017F000904318432070FFF711FF03002B4020781F
:10180000B04318432070FFF70EFF284043002078B4
:101810000222904318432070FFF7C3FF2840C30003
:1018200020780822904318432070FFF71AFF2840C1
:10183000430120782022904318432070FFF7ACFF2B
:1018400005406078B04305436570208802B070BDE4
:1018500070470000044B7A22FF329A5C02707C22AF
:10186000FF329B5C0B70704788190020014B0020F1
:101870001856704768150020F8B504000E001500D2
:10188000254A2649280001F059FF071E1DD0244B88
:101890001A6824498C466244D11752184A405B6842
:1018A0006344D9175B184B40642A0BDC0022642B7D
:1018B00000DD02001C4B1B88002B05D01A4B0022B8
:1018C0001A8002E00200F2E71700227863781B0218
:1018D0001343154A11880B431380114B32681A6069
:1018E00072685A60114B3A001149280001F039FF23
:1018F000002807D00F4B1B78002B03D10D4B012282
:101900001A70F8BD002FFCD00A4B1B78002BF8D0C2
:10191000084B00221A70F4E74C3C002040420F00B4
:101920009442002000F8FFFF0A6600206042002079
:1019300000A3E11122660020014B18787047C046D1
:101940002266002010B5002803D1074B00221A7030
:1019500010BD0120FEF723FD0120FEF743FD024BE1
:1019600001221A70F4E7C0461266002010B500206C
:10197000FEF738FD0020FEF712FD002200210020B6
:101980000CF08CF810BD000010B50849084813F0A1
:101990008FFA002802D1074B186810BD064B9A6ACF
:1019A000044B1A60024813F04BFAF4E7B42D002000
:1019B00018180020E06500200040054030B583B0D5
:1019C0000500FFF7E1FF00900190FFF7DDFF040045
:1019D000FFF73EFF6A462900200001F0AFFE002815
:1019E000F3D003B030BD000010B5FFF7CDFF074CBA
:1019F000206000F01DFC206806F06AFE206804F0FC
:101A0000ABFF6420FFF7DAFFEFE7C046E83B0020BA
:101A100010B504000A4B1B78002B00D010BD084BFA
:101A200001221A700020FEF7BAFC0020FEF7DAFC53
:101A300064200BF033FA2100002001F097FBEDE762
:101A40005566002010B5054B1B78002B00D010BD4B
:101A5000024B01221A7001F0B5FDF8E73E66002046
:101A600010B52B4B1B78002B34D0FFF78DFF294B83
:101A700018602948FEF716FD284B1B78002B32D141
:101A800005F07EFA234C2449206806F0CDFF20683B
:101A900001F004FC08F030FE002831D01D4C204934
:101AA000206805F089FD20681E4A1F4908F050FE95
:101AB0001E4B00221A70174C22681B491948FFF769
:101AC000DBFE206801F082FC2068FEF7E7FE0BF0E9
:101AD00093FF10BDFA20002180010BF0D3FF0C4BC7
:101AE00001221A70C1E70C48FEF7DCFE0BF084FF00
:101AF000084C206801F0D2FB206801F067FCE8E7A1
:101B0000044B1868084A074900F01CFDD3E7C0469B
:101B100048660020E43B0020F024002012660020EC
:101B2000B8240020FC240020D824002022660020B5
:101B300070B584B0041E00D1F3E001F0FAFD050099
:101B4000FEF75EFC7849794810F02AFD0321162043
:101B50000AF012F8032117200AF00EF803AB02AACC
:101B600001A9734809F0B6FF002803D170497148F4
:101B70000CF06EF8039A0299019809F06FFF6E4815
:101B8000FEF790FC00F0EAFB00283FD06A4E3300DD
:101B90006A4A6B496B4806F0AFFB06F041FEB3782A
:101BA000DB0611D5684B0022BE2149005A547E2124
:101BB000FF315A5401315A548021FF315A540131B6
:101BC0005A548221FF315A54EBB2012B23D0022BFD
:101BD00026D0012565576B1C29D00022A2565B4BED
:101BE0001A70554B1B789A0625D45A0637D4DA0654
:101BF00037D45AB2002A36DB5A0736D40A221A40A2
:101C0000022A34D01B0717D5032515E0322150488E
:101C100001F09AFABAE74D4B02221A700025E0E76C
:101C20002B041B0F494A13702D052D0FD9E7464B86
:101C300002255D57D1E7062502F076FE424AE223EF
:101C40005B00D65C414B1B785BB2013311D064243E
:101C5000EBB2062B3FD8AB003E4AD3589F46012536
:101C6000EAE70025E8E70225E6E70525E4E704259D
:101C7000E2E701F01FFD002804D1344B02221A7064
:101C80004624E5E7314B01221A706424E0E732482C
:101C9000322101F059FA2100300001F07DFAFFF7FE
:101CA000FFFA2A4B00215956280000F05BFC224B1A
:101CB0009B789B0730D4294A1F49280005F008F873
:101CC0000FF074FD26480FF05FFDFFF7C9FEFCE73B
:101CD000FF200006DCE72348DAE7FF200002D7E711
:101CE000002001F0A7FC194B00221A70FF2000040D
:101CF0001924CDE7002001F09DFC144B00221A703E
:101D000019480F24C4E7002001F094FC0F4B002277
:101D10001A7016481924BBE70B4B9D7000F018FB96
:101D2000C9E704B070BDC046801A0600E81700205D
:101D3000400D030068500110F0240020B82400205A
:101D4000D8240020C824002088190020681500200D
:101D50000000FF4D9C50011000F115FFFC240020F5
:101D6000E919001000A1A1A100FF61000000FFE639
:101D7000094ABD235B00D35C1A1C312B00D83222E8
:101D8000054BBD2149005A54DA787A39FF398A4324
:101D9000DA709B221A7270478819002070B505000E
:101DA0001400724B1380012900D070BD0223C3566A
:101DB0009370D01CE91C06220FF090F9EB68E360E9
:101DC0002B6923616B696361AB69A36120001C30DF
:101DD00029001C3120220FF081F920003C3029001D
:101DE0003C3120220FF07AF920005C3029005C3170
:101DF00020220FF073F920007C3029007C31202252
:101E00000FF06CF920009C3029009C3106220FF065
:101E100065F92000A2302900A23106220FF05EF9F8
:101E20002000A8302900A83130220FF057F92000F7
:101E30002930FF302900D83110220FF04FF920004F
:101E40003930FF302900E83110220FF047F9200027
:101E50004930FF302900F83110220FF03FF92000FF
:101E60005930FF3029000931FF3110220FF036F9C7
:101E700020006930FF3029001931FF3110220FF0A6
:101E80002DF994235B00EA5C5033E2542A23FF339C
:101E9000EA5C7A23FF33E2544F3BEA5C5033E2546E
:101EA0002C23FF33EA5C7C23FF33E25420007D3097
:101EB000FF3029002D31FF3106220FF00FF92000ED
:101EC0008530FF3029003531FF3120220FF006F92F
:101ED0002000A530FF3029005531FF3120220FF0BE
:101EE000FDF8BA235B00EA5C5033E2542000C930AD
:101EF000FF3029007931FF3118220FF0EFF8C823A5
:101F00005B00EA5C5033E2544E3BEA5A5033E252F3
:101F10004E3BEA5A5033E2524E3BEA5A5033E252B9
:101F20004E3BEA5A5033E2524E3BEA5A5204F620F4
:101F30004000110C225A9A3BFF3B1A400A4322529E
:101F4000CE225200A95A22185180CF225200AA5AFA
:101F50005204F8214900120C605A034013436352A3
:101F6000D0235B00EB5A641863801EE702A0FFFFDA
:101F7000064B984204D0064B984203D1022070478A
:101F80000120FCE701204042F9E7C04601A0000023
:101F900002A0000010B512480FF0F0F9002407E08D
:101FA000104B5B18D97810480FF0E8F90134E4B20F
:101FB000052C0DD80FF0CEFE2100C0B2094A12192F
:101FC000D070002CECD1130001229043D870E7E7C9
:101FD000044B9B221A720A200FF082F910BDC046F2
:101FE000B850011088190020C8500110F0B5DE4625
:101FF00057464E464546E0B56F4CA544FC256D005E
:102000002A00002102A80FF063F86C4B02AA13808B
:10201000059B0193DB0FDB0780221201134305931D
:10202000069B0193DB0FDB0713430693079B01938A
:10203000DB0FDB0713430793089B0193DB0FDB07E1
:102040001A4308925E4F0A975E4E0B965E4C0C94B4
:102050005E480D905E490E915E4A0F925E4B109362
:1020600012971396149415901691179218935B4B30
:1020700019931A931B931C931D931E931F932093E4
:102080002193802202A98B5004328B5004328B5052
:1020900004328B5004328B5004328B5004328B50FC
:1020A000FF231B049A46A8230A005146D1504C4BEB
:1020B0009B46AC235946D1504A4B9946B0234946DA
:1020C000D150FF231B069846B4234146D150FF262A
:1020D00036020433D6500433434A02A9CA50434F50
:1020E00004330A00CF5004335146D15004334146E3
:1020F000D1500433D65004334946D1500433D6501E
:102100003B4BD82202A98B5004328B5004328B50A7
:1021100004328B50E823CF50B63B7A22FF328B54E7
:1021200001328B54173AFF3AF121490002A842527A
:1021300002314352023142528532FF320100835252
:102140002C4C2A0020000EF0C9FF002004F086FD70
:10215000012004F083FD032004F080FD042004F03E
:102160007DFD052004F07AFD20009C300622002130
:102170000EF0AEFF2000A230062200210EF0A8FFD4
:10218000FFF708FFE4235B005246E25004335A464F
:10219000E25004334A46E25004334246E2500433EC
:1021A000E6500433E75081239B009D44F0BCBB46BE
:1021B000B246A946A046F0BDFCFDFFFF02A0FFFF0E
:1021C000000034420000B4420000074300003443E2
:1021D000000061430000874300809D4300001644D7
:1021E0000000FF4D0000FFE600F115FF00FF610059
:1021F00000A1A1A188190020014B18787047C046A2
:1022000058660020014B58807047C0466C1500206E
:1022100010B5064B01221A7003E0012000210AF0DC
:1022200011FE024B1B78002BF7D110BD3B6600203E
:10223000F0B5354CA544354B1B78002B06D1344BFB
:102240001B78002B39D1334B9D44F0BD0FF0C6FAFB
:10225000EFF3108672B6304B1B78002B24D12F4C35
:10226000002300932E4A002101A80EF031FFFC222A
:1022700052002C4968460EF031FF80256D0129007F
:10228000200012F01DFE2A006946200012F0F8FD21
:1022900086F310880FF0ACFA234B1B78002B06D185
:1022A0001A4B00221A70CAE796246403D8E708F094
:1022B0002DFB1D4B00221A70F2E70FF08FFAEFF39F
:1022C000108772B600240094154A002101A80EF070
:1022D000FFFE164B1A6800929B886A469380802600
:1022E000760197256D033100280012F0E9FD3200D8
:1022F0006946280012F0C4FD87F310880FF078FAC1
:10230000034B1C709FE7C046FCEFFFFF3C660020BC
:102310003B660020041000005866002000D0120028
:10232000FC0F000088190020496600206C15002071
:1023300010B5034B01221A70FFF77AFF10BDC0469B
:102340003B660020014B01221A707047496600204D
:10235000014B01221A7070473C66002070B5434B58
:102360001888434B1D88FFF703FE04002800FFF781
:10237000FFFD05003F4B404A1168196092889A8022
:102380001A883E4B9A420AD03A4B3D4A1A80FA22AA
:1023900092005A8000229A803A4B01321A70631CD4
:1023A0000BD0022C0FD0022D0DD0012C2CDD012DD5
:1023B0002ADD0023002200262CE06B1CF1D1002333
:1023C0000022012626E0022C05D0022D0FD000238A
:1023D000002200261EE0FC22520024492A480EF06A
:1023E0007DFE2A4B00221A700023002612E0FC22F8
:1023F00052001F4924480EF071FE244B01221A702E
:1024000000230022002605E00123012C15DDDBB2AC
:1024100001220026002E12D1002A23D0002B18D131
:102420001A4B01221A70184A21001048FFF7B6FC17
:102430000020FFF78DFF300070BD0023E7E7134B4E
:1024400000221A70FFF7D2FD0020FFF781FF00265F
:10245000F1E70E4B00221A700B4A29000448FFF7DF
:102460009DFCE5E7FFF784FC0126E4E700D01210AD
:1024700000C012106C15002000E0121003C0000014
:1024800003C0FFFF3B66002088190020586600202B
:1024900010B5031C642800D9642303497A22FF3253
:1024A0008B54FEF7FDFE10BD8819002010B50228E0
:1024B00017D008D800280DD001280FD10B4AF223DD
:1024C0005B00D1520AE0032808D1084AF4235B00DC
:1024D000D15203E0054AF1235B00D15205F09CFB89
:1024E00010BD024AF3235B00D152F7E788190020A0
:1024F00030B50F4C40004508E068C00FC0072843C6
:10250000E060490048082169C90FC90701432161FA
:10251000520051086269D20FD2070A4362615B0020
:102520005A08A369DB0FDB071343A36130BDC04624
:1025300088190020062800DD0020014B98707047A4
:102540008819002010B5034B1B68002B00D098475A
:1025500010BDC046A4270020014B0020185670472C
:102560002366002010B588B00400284B187002299B
:1025700010D00C22002105A80EF0AAFD1022002187
:1025800001A80EF0A5FDE3B2062B0BD8A400204B4A
:102590001B599F461F4B204A1A6008F06BFF00280A
:1025A000E7D005E01B4B1D4A1A60002001F066FBD6
:1025B00008B010BD174B194A1A60062001F05EFBE7
:1025C000F6E7144B154A1A60012001F057FBEFE7BC
:1025D000104B124A1A60022001F050FBE8E70D4B45
:1025E0000F4A1A6001AA05A90020FFF7ABFFDFE739
:1025F000084B0C4A1A6001AA05A90020FFF7A2FFA8
:10260000D6E7044B084A1A60D2E7C046236600208A
:10261000F0500110A42700200DB700102D3D001030
:10262000F1930010ED9D0010B1A30010F0B5C64667
:1026300000B590B004000D0016001F0016AB1B780B
:102640009846494B984200D188E00721380009F0AC
:1026500093FA012300933A00290020000FF080FC38
:102660001022002108A80EF033FD80235B0208939E
:10267000F8235B0209938023DB020A93C0231B0328
:102680000A93102208A904A80EF028FDF31C059A4D
:10269000039236491140F20111431B03194305917E
:1026A000079B0393DB00DB0880229205134307930B
:1026B0002F4B19400591102204A90CA80EF00EFD15
:1026C0000F9B03932B4A1A40BF0217430F974346B1
:1026D000002B45D020220E9B0393274919408023CD
:1026E0009B020B435206F82189050A4013430E93BF
:1026F0009B009B088022D20513430E9305200BF00C
:10270000BDF81E490CF0B8FB0EF069F880460EF0DB
:10271000BFF887B2002F25D038000EF060F8011CFA
:1027200040460DF0E8FF8721C9050EF004F80EF0D1
:10273000AFF8C0B200023F0407430C970CAB320065
:10274000290020000FF05EFC22680123AB409A4371
:102750001343236010B080BCB846F0BD062175E776
:102760001822B8E70020E5E7000020507F00FEFFB8
:10277000FFFFFF9FFF83FFFFFFFFF5C10050C30076
:10278000014B01221A7070473266002070B5254B4C
:102790001B78002B17D1244B00221A70214B0132D9
:1027A0001A7000240B2C09D80FF0D4FA06210CF073
:1027B00063FB1E4B19550134E4B2F3E71C4B0022B6
:1027C0001A70002428E01A4B1B78002BF9D1194B02
:1027D0001B789A009B18FA2B00D9FA23FF221A4083
:1027E000FF239B1A9BB2144A1380144A1380104B88
:1027F00001221A70E5E70D4D2B5D72339B00104AE4
:102800009958A2000F4BD1500FF0A4FA06210CF0FA
:1028100033FB29550134E4B20B2CECD9FFF7B0FFA0
:1028200070BDC046316600201A660020BC2700201B
:10283000951500209315002002660020FE650020FB
:10284000881900204C2C0020034B1980034B186082
:10285000034B00221A70704700660020E02B002016
:102860002F66002070B505000C0000880DF0B7FF42
:102870001B490DF04AFF1B490DF05DFF0EF008F8F3
:10288000C2B22B79A978C943C9B25943090A5B1A64
:10289000DBB23F2528402D1AEDB2584380096B4327
:1028A0009B11DBB20818C0B2CB18DBB23F2A10D99B
:1028B000403AD2B23F2A06D81A060B061B0A00027B
:1028C000134318430AE0090600041B020843184397
:1028D00004E000061B04090218430843206070BD91
:1028E00000007F4300003F43F8B5CE46474680B521
:1028F0000400234B1D78002D05D100230360C0BCCC
:10290000B946B046F8BD642DF9D08778E678B81995
:1029100063789846C0180DF067FF1A490DF0F5FE70
:10292000814628000DF05BFF17490DF0EEFE051CF7
:10293000011C48460DF03EFF0028E0D14946281C06
:102940000DF0E3FE051C38000DF049FF291C0DF0C9
:10295000F2FE0DF09DFFA07030000DF040FF291C2D
:102960000DF0E9FE0DF094FFE07040460DF037FFEA
:10297000291C0DF0E0FE0DF08BFF6070BFE7C04634
:102980009215002000007F430000C842F0B5D646F3
:102990004F464646C0B504000368002B35D0837807
:1029A0009846C778D819667880190DF01DFF051C68
:1029B00040460DF014FF8046291C0DF0A6FE82460D
:1029C00038000DF00CFF071C291C0DF09EFE8146FF
:1029D00030000DF004FF061C291C0DF096FE051CAE
:1029E000514640460DF0A7FE0DF052FFA07049463B
:1029F000381C0DF0A0FE0DF04BFFE070291C301CC0
:102A00000DF099FE0DF044FF6070E0BCBA46B1468F
:102A1000A846F0BD30B585B01D4B1B78002B0FD1FB
:102A200000240B2C09D80FF095F9FF210CF024FAA3
:102A3000184B19550134E4B2F3E7154B01221A7013
:102A400000241FE0134D2B5D134A1078C018FF219E
:102A50000CF0EAF9C9B2295502A80180FF2343808E
:102A600083800023019301A9FFF7FCFE01A8FFF773
:102A70003BFF0A48A300019A1A50C018FFF786FFCF
:102A80000134E4B20B2CDDD9FFF77AFE05B030BD7E
:102A900031660020B02B0020931500204C2C002024
:102AA00000220AE0930006495958064B5B68DB0395
:102AB000FBD4044B19610132D2B20B2AF2D9704710
:102AC000E42B002000002050F8B5DE4657464E4665
:102AD0004546E0B506000D00141C80780DF07FFE21
:102AE0008046F0780DF07BFE071C70780DF077FEC5
:102AF000061CA8780DF073FE8346E8780DF06FFE93
:102B0000824668780DF06BFE8146414658460DF0CE
:102B1000F2FD211C0DF00FFE41460DF0F1FD051CEC
:102B2000391C50460DF0E7FD211C0DF004FE391C48
:102B30000DF0E6FD071C311C48460DF0DCFD211CA4
:102B40000DF0F9FD311C0DF0DBFD061C281C0DF00D
:102B50009FFEC5B2381C0DF09BFEC4B2301C0DF0B8
:102B600097FEC0B22D040002240628432043F0BC87
:102B7000BB46B246A946A046F8BD000000B583B0EA
:102B800000230093082806D88000164B1B589F4648
:102B9000FF231B04009300230193134A01A96846F5
:102BA000FFF792FF0023002B18D003B000BDFF23D6
:102BB0001B020093EFE70D4B0093ECE7FF231B068E
:102BC0000093E8E70A4B0093E5E70A4B0093E2E73E
:102BD000094B0093DFE7094B0093DCE7084A1061DB
:102BE0000133E0E70C5101106666663F0000FFE626
:102BF0000000FF4D00F115FF00D0FF2B00FF61002A
:102C00004C2C002010B5054B1870FFF7B7FF044B94
:102C100000221A70FFF7B4FD10BDC04634660020D4
:102C200031660020F8B5304B18880DF0DDFD011C31
:102C3000FE2080050DF069FD041C2C4B1B78002B39
:102C40000AD12B4B1E78284B1B889E421BD9294B3F
:102C50001878002835D0F8BD274B1878FFF78EFF7D
:102C60002649274B0A0023CB23C223CB23C223CBE5
:102C700023C223CB23C200231D4A13701B4A1370A7
:102C80001C4A1370DDE730000DF0A9FD211C0DF08A
:102C900052FD051C00240BE0A7001A49C91917486A
:102CA000C0192A1CFFF710FF154BD8510134E4B2AC
:102CB0000B2CF1D901360E4B1E70FFF7F1FE0020F0
:102CC000C9E70F490F4B0A0013CB13C213CB13C232
:102CD00013CB13C213CB13C2FFF7E2FE054B012245
:102CE0001A700120B7E7C046FE650020326600205A
:102CF0009715002094150020346600201C2C00201D
:102D0000E42B00204C2C0020F0B5C64600B5060090
:102D10000F001500984600240AE0335D9B004246F0
:102D2000EA50305D80002818FFF730FE0134E4B22D
:102D3000BC42F2D380BCB846F0BD0000031C64283E
:102D400000D96423014A13707047C04692150020D1
:102D500030B583B0050000240CE0019501A8FFF711
:102D6000C3FD0648A300019A1A50C018FFF70EFED3
:102D70000134E4B20B2CF0D903B030BD4C2C002050
:102D800010B509480388094A12789B18FF2213409E
:102D90000380074C2100FFF765FD2068FFF7D8FF8F
:102DA000FFF7EEFC10BDC0468C15002093150020E7
:102DB000AC2B002010B51A4B1B78002B17D1194AE9
:102DC0001370174A01211170174A1370154C23789C
:102DD00072339B00154A9858FFF7BAFF20780130EC
:102DE00006210CF021F82170FFF7CAFC10BD0E4B34
:102DF0001B78002BEAD10E4B1B789A009B18FA2BFC
:102E000000D9FA23FF221A40FF239B1A9BB2094ADA
:102E10001380094A1380044B01221A70D6E7C0467A
:102E2000316600201A6600209615002088190020BF
:102E30009315002002660020FE65002010B50F4BA0
:102E40001B78002B10D10E4B1B68002B02D10C4BB2
:102E50000C4A1A600A4B1868FFF77AFFFFF790FCDC
:102E6000064B01221A7010BD0020FFF771FFFFF71B
:102E700087FC024B00221A70F5E7C0465666002018
:102E8000142C00200000FFE670B51D4B1C78002CB0
:102E900005D01C4B1B78002B1ED0200070BD1A499A
:102EA0001A480B00020023CA23C323CA23C323CA20
:102EB00023C323CA23C3164B1868FFF749FF154BDA
:102EC0001A88154B1A80FFF75BFC0D4B01221A7014
:102ED0000C4B00221A70E0E710490B480B0002006F
:102EE00023CA23C323CA23C323CA23C323CA23C396
:102EF000FFF746FC034A137801331370CDE7C04651
:102F00002F660020606600206C430020E42B002028
:102F1000182C002000660020FE6500204C2C0020AC
:102F200010B50D4B1C78002C06D00C4B1B68002BE9
:102F300000D09847200010BD0020FFF709FF0020B7
:102F4000FFF71CFEFFF71CFC054B1A88054B1A8087
:102F5000014B01221A70EDE72F660020C02C0020E3
:102F600000660020FE65002070B50C000F2803D815
:102F70008000284B1B589F460126274D2BE0012639
:102F8000264D28E00126264D25E00126254D22E08C
:102F90000126254D1FE00126244D1CE00126244D6D
:102FA00019E00126234D16E00126234D13E00126EA
:102FB000224D10E00126224D0DE00126214D0AE0B0
:102FC0000126214D07E00126204D04E00126204D79
:102FD00001E004261F4D002A12D023001E4A3100B2
:102FE0002800FFF791FE23001C4A31002800FFF75C
:102FF0008BFE23001A4A31002800FFF785FE70BDC2
:103000002300164A31002800FFF77EFEFFF7B8FBC9
:10301000F5E7C04630510110B45101109451011030
:10302000A45101109051011098510110AC510110A0
:10303000BC510110B8510110885101108C51011080
:103040009C510110C0510110B0510110C451011028
:10305000A8510110A05101101C2C00204C2C002064
:10306000E42B002070B50C4B196840220B480EF081
:1030700035F800240CE0A300084DED182800FFF7F8
:1030800033FC296800222000FFF76EFF0134E4B210
:103090000F2CF0D970BDC0467C2C0020802C002065
:1030A00010B5024B1860FFF7DDFF10BD7C2C00202F
:1030B00010B5074B1B78002B00D010BD0548FFF75B
:1030C000EFFFFFF75DFB024B01221A70F5E7C046E8
:1030D00031660020301A0020144AF0235B00D35CD4
:1030E000834209D0002B03D1E133FF330521D154B2
:1030F0000E4AF0235B00D0540C4AF0235B00D25CF4
:103100000B4B1A700B4B1B78052B0AD00A4B152260
:103110001A80094B1A88094B1A80094B00221A7031
:103120007047084B1A88044B1A80F2E78819002070
:10313000931500203066002002660020FE65002006
:10314000316600200466002010B5054B1860490860
:10315000044C2000FFF778FB034B1C6010BDC046F9
:10316000182C0020892E0010E02B002010B5064BF3
:103170001870064B00221A60054B1960192105488A
:10318000FFF762FB10BDC04635660020DC2B002037
:10319000C02C0020212F001070B582B004000D005B
:1031A000244B1B78002B0CD0234B1C700023234A8C
:1031B0001370234A1370052C16D8A400214B1B59F9
:1031C0009F46214E214930000EF0AEFE0200002342
:1031D00000931B3300213000FFF728FA154B012222
:1031E0001A70FFF75DFCDFE7194B1A4A1A601A4A9A
:1031F000F0235B00D05CFFF76FFF2800642D00DD3B
:103200006420C0B2FFF79AFD02B070BD104B134AA4
:103210001A60ECE70E4B124A1A60E8E70C4B114AB1
:103220001A60E4E70A4B104A1A60E0E7084B0F4ABD
:103230001A60DCE73366002030660020316600202B
:10324000366600207051011000002050C851011056
:10325000DC2B0020B130001088190020812D0010D7
:10326000152A00103D2E0010B52D00108D270010DE
:1032700010B5FF2903DC002902DA152100E0FF2147
:10328000044B1980044B18601E210520FFF784FFB2
:1032900010BDC04604660020142C002010B5144A4E
:1032A000144900F04BFA002800D110BDFFF7BAFC1A
:1032B000002803D1104B1B78002BF6D00F4B1B6856
:1032C000002B0ED098470028EFD000240B4B1C6039
:1032D0000B4AF0235B00D05CFFF7FEFE094B1C702D
:1032E000E3E7094B1B68002BDFD09847DDE7C046BA
:1032F000184200201A41000036660020E02B002012
:103300008819002031660020DC2B0020014B5888F2
:103310007047C0466C15002010B586B0002405AA81
:10332000244B1978117004AB1970234902910121C3
:103330000191009301236931204800F0D1FA023055
:10334000012807D904AB1B781C1C5BB20122134077
:103350001B4A137063069A0F022A0ED9032A0FD153
:10336000184B1B78002B21D0154B1B785BB2002B20
:1033700018D1154BFF221A7012E052B2002A0CD15C
:103380000F4B1B785BB2002B03D10F4BFF221A703F
:1033900006E00D4B00221A7002E00B4B01221A705E
:1033A00006B010BD084B00221A70F9E7064B022246
:1033B0001A70F5E7005D011010270000E8170020E3
:1033C0005E660020506600205166002070B5040043
:1033D000574B1B78002B24D0564A5749200000F049
:1033E000ADF9002815D0FFF797FF544B00229A56ED
:1033F000534B1B785BB29A4203D0002B28D04F4A24
:103400001370504B1B78002B26D04E4B1B78002B93
:103410003ED14D4A4D49200000F090F9002847D197
:1034200070BD434B01221A70494B58880DF0D7F9F3
:10343000484B1860484B494A1A60FFF76DFFFFF789
:103440006BFFFFF769FF3E4B1A783C4B1A70C3E7DE
:103450004348FEF7DDFAE3E7FEF76EFA0028D4D022
:10346000404B1B785BB2012B0AD0022BD1D1354BDC
:1034700001221A70FF2064210002FFF7F9FEC8E75D
:10348000304B01221A7064213748FFF7F1FEC0E784
:10349000FEF752FA0028BCD12A4B00221A70334A98
:1034A000E2235B00D05C02214942FFF775FEB0E7E2
:1034B000FFF732FF2B4B1B785BB2012B1BD0022B8B
:1034C00030D00133ACD1234D234B196828680DF05F
:1034D00012F9041C286000210DF066F9002808D1BB
:1034E0001C4B1C60201C0DF0D3F980B2FEF78AFE45
:1034F00096E70024F4E7174D174B196828680DF07C
:10350000FFF8041C28601A490DF064F9002800D067
:10351000174C104B1C60201C0DF0BAF980B2FEF75E
:1035200071FE7DE7FA208000FEF76CFE78E7C0466A
:103530004D660020B43A002040420F005A66002039
:103540005E66002054660020AC3A0020008793039A
:103550006C150020981500209C150020555505403D
:10356000451A0010516600200000FFE6881900206F
:1035700000007A4400B587B00E4B1B785BB2013374
:1035800014D005AA0C4B1978117004AB19700B49B3
:10359000029101210191009301236931084800F053
:1035A0009FF9002804DD012007B000BD0020FBE7E3
:1035B0000020F9E75E660020005D01101027000082
:1035C000E817002030B585B0164B1B785BB201338D
:1035D00025D0D0231B061B68002B04D1FEF718FE54
:1035E0001E25002415E0FEF7A3FEF9E703AA0E4B03
:1035F00013800E4B01930023009302336A210C4881
:1036000000F0E2F80400322009F048FC0AF0F4F976
:10361000013D002C01D1002DE8D1FEF7A7F905B03E
:1036200030BDC0465E66002009C1FFFFA0860100D4
:10363000E817002000B585B0194B1B785BB2013349
:1036400004D0002804D1174B01221A7005B000BD28
:10365000144B00221A70144B1880232813D8C0B2C0
:103660000538C0B27F2318407B3B6A461373507302
:103670000E4B019300230093023303AA6A210C48E6
:1036800000F0A2F8E2E7AF235B00984200D91800EF
:1036900028380A210BF0C8FBC0B21F30C0B2E1E7E6
:1036A0005E660020506600200C6600201027000097
:1036B000E817002010B5FFF72FFE024B0020185628
:1036C00010BDC0465E66002010B5FFF725FE024B18
:1036D0000020185610BDC0465166002010B50022CB
:1036E000002100200AF0DAF9FEE70000072804D8DC
:1036F0008000024B9C466044016070470C8005408E
:1037000010B5072802D90024200010BD8000044B0A
:103710009C466044046800210520FFF7E7FFF3E7BB
:103720000C80054010B501000520FFF7DFFFFFF713
:10373000D5FF10B50520FFF7E3FF10BD10605368FB
:10374000834205D9C31A013B8B4205D20020704742
:10375000834204D2C31AF7E750600120F7E7002044
:10376000F5E730B51860002A0BD15C6884420BD9AC
:10377000041B013C0025002D0BD1A14209D91000EA
:1037800030BD58600020FBE7844205D2041B0025B1
:10379000F1E758600120F3E71000F1E710B501E010
:1037A0000AF02AF90A21034811F02AFB0028F7D071
:1037B00010BDC0462018002010B5024811F040FB93
:1037C00010BDC04620180020F0B5D6464F464646EC
:1037D000C0B584B081460F00924698460CAB1E7867
:1037E000FFF7DCFF0D9C002509F028FC02000B1EF2
:1037F00018DB12196B41002B1ADB002B1CDB029229
:103800000393009643465246390048460EF0F4FEB4
:103810000400FFF7D1FF200004B0E0BCBA46B14677
:10382000A846F0BD074B084A3F2108480AF076F940
:1038300001225242064BE0E7024B034A3F21034874
:103840000AF06CF9D851011058520110F4510110CE
:10385000FFFFFF7FF0B5D6464F464646C0B584B061
:1038600081460F00924698460CAB1E78FFF796FFF4
:103870000D9C002509F0E2FB02000B1E18DB12195B
:103880006B41002B1ADB002B1CDB0292039300968A
:1038900043465246390048460EF0CDFE0400FFF77D
:1038A0008BFF200004B0E0BCBA46B146A846F0BD8C
:1038B000074B084A3F2108480AF030F901225242DA
:1038C000064BE0E7024B034A3F2103480AF026F982
:1038D000D851011058520110F4510110FFFFFF7F21
:1038E000F0B5DE4657464E464546E0B585B08046C3
:1038F000894692469B46FFF751FF109C002509F030
:103900009DFB06000F1E31DBA4197D41002D33DB2A
:10391000002D35DB02940395012300935B4652464C
:10392000494640460EF068FE109C002509F086FBD3
:1039300002000B1E2ADB12196B41002B2CDB002B23
:103940002EDB02920393002300930F9B0E9A4946AD
:1039500040460EF070FE0400FFF72EFF200005B079
:10396000F0BCBB46B246A946A046F0BD0F4B104A7C
:103970003F2110480AF0D2F8012464420E4DC7E7F7
:103980000A4B0B4A3F210B480AF0C8F8074B084A7C
:103990003F2108480AF0C2F801225242064BCEE706
:1039A000024B034A3F2103480AF0B8F8D8510110EE
:1039B00058520110F4510110FFFFFF7FF0B583B0A2
:1039C00005000F001400019319491A4811F070FA0C
:1039D000002829D0184B00269E57002E0CDD002D04
:1039E00002D10126764209E0FF221A703201134902
:1039F00038000DF073FB01E001267642104B0025E4
:103A00005D57002D01DD002C05D10A4811F018FA90
:103A1000300003B0F0BDFF221A702A010949019855
:103A20000DF05CFB2E00F0E701267642F0E7C04681
:103A3000643D002028180020A0150020EC3B002049
:103A4000A11500201C3C0020F8B506000F00150051
:103A50001C000E4811F084FA002F06DC002C0CDC50
:103A60000A4811F0EDF90020F8BD094B1F703A012A
:103A7000310008480DF032FBF0E7074B1C702201C3
:103A8000290006480DF02AFBEAE7C0462818002066
:103A9000A0150020EC3B0020A11500201C3C0020BC
:103AA000F0B585B0051C0F1C141C1E1CFE218905D9
:103AB000381C0CF08FFE00280FD0FE27BF052249CE
:103AC000281C0CF087FE00280FD12049281C0CF080
:103AD0006BFE00280AD01D4D08E00021381C0CF0B8
:103AE00063FE0028EBD00027E9E7174DFE2189058A
:103AF000301C0CF06FFE00280FD0FE26B6051249D0
:103B0000201C0CF067FE00280FD11049201C0CF07F
:103B10004BFE00280AD00D4C08E00021301C0CF0B0
:103B200043FE0028EBD00026E9E7074C00970196FA
:103B30000295039401236A4601216846FFF784FF3A
:103B4000012005B0F0BDC0460080A2440000204224
:103B500010B5FEF701FD022801D0024810BD024851
:103B6000FCE7C046705201106053011010B50020F0
:103B700010F0E4F810BD000010B51021064811F057
:103B8000A7F9002800D110BD044B01221A70024889
:103B900011F056F9F7E7C0463018002046660020BD
:103BA00010B51021064811F093F9002800D110BD7E
:103BB000044B00221A70024811F042F9F7E7C046A0
:103BC000301800204666002070B5050064210D48BD
:103BD00011F016F9041E09D10B4B22000B492800E5
:103BE000FFF7BFFD051E08D1200070BD084B1C78F3
:103BF000E4B2044811F024F9EEE7FFF7BDFF2C0012
:103C0000F2E7C046301800209C430020A086010047
:103C100046660020037801330370044B1B785BB2C7
:103C2000022B01D0024870470248FCE760160020D2
:103C3000A8540110E05501100C4B18600C4B984231
:103C40000BD00C4B98420CD0FA235B00984200D06A
:103C50007047094B01221A60FAE7074B04221A60E9
:103C6000F6E7054B08221A60F2E7C046E42D002073
:103C7000461000008D200000DC2D002010B504004F
:103C8000002002F063FE022C2CD0062C1DD0012C4B
:103C900010D0012002F05AFE1848FFF7CDFF184B54
:103CA000184A1A60184B194A1A60194B1C7010F008
:103CB00051FC10BDFA204000FFF7BEFF104B154A23
:103CC0001A60114B144A1A60EFE7012002F03EFE21
:103CD0001248FFF7B1FF0A4B114A1A600A4B0B4A10
:103CE0001A60E2E7FA204000FFF7A6FF044B0D4AF6
:103CF0001A60054B0C4A1A60D7E7C0468D200000B9
:103D0000E02D002041A50010E82D00206D3B0010A3
:103D100060160020E1B10010D543001046100000ED
:103D200089B80010858B001061480010F8B50600B6
:103D30000C0015000120002140420FF073FB234BC3
:103D40009F6C234B1B68BB421CD2FB1A214A126892
:103D50009A4202D8204B01221A70204B1968204A3F
:103D60003000FFF7EBFC002802D01E4B01221A7036
:103D70001D4B1B78002B0AD11C4B1B6898471A4B14
:103D80001870F8BDFB1A1A4A94466344DEE7300007
:103D9000FFF71AFF0028F4D00F4B1B78002BF0D050
:103DA000104B1B78002BECD0094B1F6000230A4AF4
:103DB00013700C4A13700C4A1370FFF7F1FE0D4B91
:103DC0001B68290020009847DBE7C046000011501F
:103DD000603D0020DC2D002057660020E42D0020EF
:103DE000F46500206366002047660020E82D00206F
:103DF000FF070000E02D0020084B1B785BB2022B70
:103E000007D0062B07D0012B01D005487047054885
:103E1000FCE70548FAE70548F8E7C04660160020C9
:103E2000085F0110F0540110CC550110806801109A
:103E3000084B1B785BB2022B07D0062B07D0012B57
:103E400001D0054870470548FCE70548FAE70548F2
:103E5000F8E7C04660160020C85E0110C05401108B
:103E6000A0550110546801100020704710B5134B85
:103E70001B785BB2022B13D0062B18D0002B05D079
:103E80000B78002B0FD1FFF777FE0CE00B78302B6F
:103E900003D0212B01D0812B05D1FFF76DFE02E06D
:103EA0000B78212B00D010BDFFF766FEFBE70B78E7
:103EB000012BF8D1FFF760FEF5E7C0466016002041
:103EC00070B51D0004AB1E88314B00241C57012C1B
:103ED0002DD0022C12D0002C00D070BD0029FCD1B6
:103EE000002AFAD12878102804D03200290000F0E6
:103EF000E7FFF2E7A81C01F0C1FFEEE70029ECD1D3
:103F0000002AEAD12B78112B05D0132BE5D12148BB
:103F10000DF034FAE1E76B78DB0706D51E4B002085
:103F20001E4A011CFFF7BCFDD7E70023F7E7002975
:103F3000D3D1002AD1D12B78002BCED16B78082B8E
:103F4000CBD1EC78002C1ED0A8780CF048FC14499A
:103F50000CF0DBFB061C2B79002B16D020000CF09C
:103F60003EFC0F490CF0D1FB041C211C301C0CF052
:103F700031FC002800D0341C0020231C074A011CFF
:103F8000FFF78EFDA9E70026E5E70024EDE7C04630
:103F90006016002024540110CDCC0C3F00000243D9
:103FA00000007F43064B1B785BB2022B03D0062B2D
:103FB00003D1044870470448FCE70448FAE7C046C8
:103FC0006016002094680110345501101C5F011028
:103FD00070B5EE2824D0002825D080001E4BC5588F
:103FE000280010F0DDFEC0B21F2800D91F200023DA
:103FF00027E05A1C194CA15C0902E25C0A43440008
:104000001749625202330130112BF2D9154A144B71
:1040100013CB13C211001A680A609B888B8019E0C9
:1040200000200023F0E70C4B196802220E480DF027
:1040300055F8012007E05A1CEC5C5100094BCC52AA
:10404000D3B29842F7D801304000C0239B001843F8
:10405000044B1880034870BD781500206854011087
:10406000A4200020D0270020D227002000B591B046
:1040700040226946002010F0EFF8002010F002F90D
:10408000064B1B785BB2002B01D011B000BD044879
:104090000DF044F9684606F05DFCF6E76016002076
:1040A0003C540110F0B583B005001400012966D11D
:1040B00013785B069B0F012B58D0022B03D0002BEB
:1040C00001D000205CE06378022B24D0072B03D0C2
:1040D000012B19D0002053E0227963791B0213438E
:1040E000042B03D0052B08D0002049E02433264AB6
:1040F000210028000FF0BAFA42E08D33234A210054
:1041000028000FF0B3FA3BE02823214A21002800C1
:104110000FF0ACFA34E0227963791B021343072BCA
:1041200030D11C4B1B785BB2022B0FD06B469F1D0E
:10413000194E0222310038000CF0D0FF3B883200CB
:10414000083A210028000FF091FA19E06B469F1DF4
:10415000124E0222310038000CF0C0FF3B883200C2
:10416000083A210028000FF081FA09E051780C4844
:104170000DF004F9210028000FF05CFA00E00120A6
:1041800003B0F0BD0020FBE738160020A415002086
:104190007C54011060160020B45201108C530110A1
:1041A00054540110012815D0022907D000290BD141
:1041B000022A29D0002A29D006207047022A1FD0BF
:1041C000002A1FD00800F8E7022A21D0002A21D0B7
:1041D0000820F2E7022907D000290BD1022A1FD0BC
:1041E000002A1FD00720E8E7022A15D0002A15D0A0
:1041F0000320E2E7022AE0D0002A15D00020DCE705
:104200000120DAE70320D8E70720D6E70520D4E726
:104210000020D2E70420D0E71000CEE70420CCE74E
:104220000820CAE70620C8E70520C6E70120704736
:1042300010B58422002102480CF04AFF10BDC04690
:104240000832002010B50020FFF7F2FF10BD00007B
:10425000F0B5C64600B580460D008B795D2B24D1A4
:104260000B79DF00FF1ABFB21937BFB2974221D8CE
:104270000C780C19002605E0104A53700136F6B28E
:104280002378E4182B79B34210D96378052BF7D142
:10429000210040460EF0F4FD00280DD0A378DA0985
:1042A000012AE9D0054A9370E8E70027380080BC6E
:1042B000B846F0BD0027F9E70027F7E708320020ED
:1042C00030B583B0040014484078884206D0124AC2
:1042D00092788A420CD0012003B030BD0F4A002AE8
:1042E00018D09AB20E490020FFF7C0FD0120F3E775
:1042F0000C4D9BB200932B00002200210020FFF701
:10430000DFFD2B00443B997840232A0020000EF06B
:104310002BFEE1E70120DFE7083200206D3E0010B0
:104320000C3200204C32002010B50EF00DFD00289C
:1043300003D10023002B08D110BD0EF00DFD002885
:1043400001D10123F6E70023F4E70B4B9978002015
:104350000EF046FE0028EFD1074CA1780EF0DCFDF0
:1043600022004432A178402300200EF0FDFDA17808
:1043700000200EF0E5FDDFE70832002070B50500F3
:104380000C000EF0E9FC002806D1812100200EF07F
:10439000C3FD002803D170BD0EF0E6FCF5E7231C39
:1043A000402C00D940239CB2094E22002900300045
:1043B0000CF094FE351F69782300320000200EF0C7
:1043C000D3FD697800200EF0BBFDFFF7ADFFE2E7FB
:1043D0000C32002010B5104B5C780EF0B5FC0028B4
:1043E00006D10023002B13D0002C09D1002010E0AF
:1043F0000EF0B2FC002801D10123F3E70023F1E71E
:10440000210000200EF0ECFD002803D1013000E077
:10441000002010BD0020FCE70832002010B53C222F
:10442000002102480CF054FE10BDC0466C2800204C
:1044300010B50020FFF7F2FF10BD0000F0B583B00B
:1044400006000F001500FEF787F802284CD13B79D3
:10445000DC00E41AA4B21234A4B2AC4248D800235F
:10446000002B09D00025002D44D0397879184B78DD
:10447000212B11D0002438E01A01D21A92001F48D3
:1044800082185278002A02D00133DBB2E8E71A0121
:10449000D11A89004518E6E7A9630B78C9183A795B
:1044A0006B1C0193AB1C0093032330000EF002FD44
:1044B000002821D0BB79012B13D001232B71BB78AD
:1044C0002B70AA6BD179137A1B020B43EB80A9786E
:1044D00000290AD02A003032062330000EF044FDB5
:1044E00003E0FB79EB70E8E70024200003B0F0BDA7
:1044F0000024FAE70024F8E70024F6E76C280020FF
:1045000070B582B005001D4C002000280AD000289C
:1045100030D162788A4213D0A2788A421AD0012020
:1045200002B070BD0401241AA400144A1419A27820
:104530008A42ECD062788A42E9D00130C0B2E4E726
:104540000F4A002A18D0210008319AB2FFF78EFCDA
:104550000120E5E7260030369BB2009333000022AD
:104560000021FFF7ADFCA1780623320028000EF0F1
:10457000FBFCD5E70020D3E70120D1E76C28002021
:104580006D3E0010F0B5C64600B582B006001500BD
:1045900012781F231340012B00D01FE1287900243B
:1045A000002C0DD0FF24002C00D01CE1270060233C
:1045B00018001040134239D101290BD001200EE11F
:1045C00023011B1B9B008E4FDB5D9842EBD0013417
:1045D000E4B2E5E7EA786B78062B06D0062B00D02C
:1045E00005E1222A12D00020F9E0212AF6D1230188
:1045F0001F1BBF00824BDF19BA6B002A00D1F4E009
:104600001378290030000FF031F8E8E02000FFF7C0
:10461000C9FC02003B01DF1BBF00794BDF19FB889F
:10462000290030000FF022F80120D8E0202800D027
:10463000DFE06B780B2B00D9DDE09B00714AD3588B
:104640009F46012901D00120C9E0EA78A978230119
:104650001B1B9B0008336A4FFF18A879EB791B02DC
:104660000343181C252B00D9252080B2002909D02E
:10467000012B16D97B1C9C463970013880B201236E
:10468000984602E0BC46002398460090634620000E
:10469000FFF7EAFB030043449BB2002B05D1002047
:1046A0009DE0BC4600239846EFE73A002900300021
:1046B0000EF0DCFF012092E0012903D0032915D080
:1046C00001208CE0AA79EB791B021343062B01D958
:1046D000002084E02201121B9200303248498A18DF
:1046E000290030000EF0C2FF012078E0EA78A978B6
:1046F00023011B1B9B0030334148C318AE79E87976
:1047000000023043051C062800D90625ADB2002959
:1047100004D0012802D91878884205D000952000DD
:10472000FFF7CEFB01205AE00133013DADB2F5E7C2
:10473000012901D0012052E0E97823011F1BBF00AD
:104740002F4BDF197971304B002B04D0200000E093
:1047500000BF002843D0290030000EF06BFF01207D
:104760003DE0012901D0012039E02201171BBF00E3
:10477000234AD21905320123290030000EF076FFBA
:1047800001202CE0012901D0012028E02201171B83
:10479000BF001B4AD21904320123290030000EF059
:1047A00065FF01201BE0012903D0032907D0012068
:1047B00015E0290030000EF03DFF01200FE0A97840
:1047C00023011F1BBF000E4BDF1939710F4B002B4C
:1047D00013D0200000E000BF012000E0002002B064
:1047E00080BCB846F0BD0020F9E70020F7E70020C4
:1047F000F5E70020F3E70020F1E70120EFE7C046EE
:104800006C2800200455011000000000000000008A
:1048100010B50301181A8000104B181844780EF0D8
:1048200093FA002806D10023002B13D0002C09D1C5
:10483000002010E00EF090FA002801D10123F3E7E8
:104840000023F1E7210000200EF0CAFB002803D16D
:10485000013000E0002010BD0020FCE76C280020A3
:1048600010B50020FFF7D4FF10BD0000F8B504001C
:104870000F0016001D0003011B1A9B001F4AD318CE
:10488000597800200EF048FB002825D0002F24D0B6
:104890002B1C242D00D924239DB2184A2301191B57
:1048A000890051180F721B1B9B000833D018013070
:1048B0002A0031000CF012FC0135ADB20F4B200183
:1048C000021B920008329A18001B800018184178C9
:1048D0002B0000200EF048FBF8BD2B1C252D00D925
:1048E00025239DB22001001B80000830034B1818BF
:1048F0002A0031000CF0F2FBE0E7C0466C280020F3
:1049000010B513000A0001000020FFF7AFFF10BD33
:10491000107003120F20184050700B011843507094
:10492000091191707047000070B5124D8024240168
:104930002A0021002000FFF7EBFFEA1C21002000E5
:10494000FFF7E6FFAA1D21002000FFF7E1FF2A0084
:10495000093221002000FFF7DBFF2A000C32210082
:104960002000FFF7D5FF2A000F3221002000FFF7BB
:10497000CFFF70BDCC65002010B540220021024859
:104980000CF0A6FB10BDC046242D0020014B187072
:104990007047C04640660020014B18737047C04600
:1049A000242D0020014B58737047C046242D002051
:1049B00070B5FCF7E9FF04000E4D2B68C01AC31751
:1049C000C01858400AF040FD2C6000220A4B0AF043
:1049D000ACFC0AF075FD094B00215A5E1C780849B1
:1049E0000C70801882B200B21880FF2801DDFF3AF7
:1049F0001A8070BDA442002000408F40086600204D
:104A0000242D0020024B1A78024B5A707047C04682
:104A100050570110242D0020064B04229A732F3288
:104A2000DA73303A1A74013A5A74012119765A76B7
:104A30007047C046242D002010B5C4B2000A0023E0
:104A400007E019000E31044A545401315054023326
:104A5000DBB20D2BF5D910BD242D00200A4B01220D
:104A60001A7000225A7003329A70084A117AD9706B
:104A7000D179197191795971517999711179D971E6
:104A8000D2781A727047C046242D00208819002061
:104A900010B50400FFF770FF8120FFF777FF012CAE
:104AA00009D0064B1C70064B19784023034A00209E
:104AB0000FF06CF910BDFFF7D1FFF4E7242D0020B3
:104AC0004066002070B586B06C462A4B0433220045
:104AD00070CB70C270CB70C2022837D0032841D08F
:104AE0000023002500E00133052B10D8224AD218FC
:104AF0007D32FF3214780522D21A885C8442F2D0CB
:104B00001D4AD2187D32FF3210700125EBE7002DCF
:104B100019D18120FFF740FF184801238373164BFA
:104B20001A7AC273DA7902749A7942745A79827461
:104B30001A79C274DB7803751530182269460CF0B7
:104B4000CDFA06B070BDFDF703FCE2E78120FFF768
:104B500023FF0A48022383730F30102208490CF008
:104B6000BDFAEEE78120FFF717FF044B03229A738B
:104B7000E7E7C0465057011088190020242D002077
:104B8000A42D002070B504000E001500FFF7F4FE00
:104B90002120FFF7FBFEFFF70BFFFFF733FF20009D
:104BA000FFF700FF482C68D8A4003E4B1B599F46D6
:104BB0008020FFF7F1FE00236BE0F07A431E98415E
:104BC000C0B201F0C3FEF27A374B1A708020FFF7B3
:104BD000E3FEF0E731000C31F07AFFF773FFEAE70C
:104BE0008020FFF7D9FEF27A304B1A70E3E782207B
:104BF000FFF7D2FEFFF710FFDDE78020FFF7CCFEC6
:104C0000D9E79020FFF7C8FEF27BF17A307B00F005
:104C100039FAD0E72648FCF7FBFECCE78020FFF707
:104C2000BBFEC8E78320FFF7B7FE6420FFF704FF51
:104C3000C1E78020FFF7B0FEBDE78020FFF7ACFEA4
:104C4000F27A0F231340033BDAB20C2A03D8930005
:104C5000184AD3589F460120FDF7D4FFABE7032045
:104C6000FAE70420F8E70520F6E70620F4E7072036
:104C7000F2E70820F0E70220EEE70023AB4202D281
:104C800001339BB2FAE78020FFF786FE93E70133FA
:104C9000DBB21F2BFBD94023074A212100200FF054
:104CA00075F870BDF85501104166002064160020AB
:104CB000451A00101C570110242D002070B50C005F
:104CC000150010280DD080280FD0012800D070BD0D
:104CD000881C01F0D3F8A07A2A002100FFF752FFC8
:104CE000F5E7881C01F0CAF8F1E74878FFF7D0FE35
:104CF000EDE70000094B1B780A2B07D00B2B09D0DE
:104D0000064B0A221A70054B18787047034B0B228A
:104D10001A70F8E7014B0C221A70F4E765160020B0
:104D200070B504005D4B1B78002B04D15C4B1B78E5
:104D3000302B0BD070BD5B4B1A885B4B18785B49EE
:104D4000FFF7BCFF554B00221A70F3E7FFF714FE84
:104D50003020FFF71BFEFFF72BFEFFF753FE544BEF
:104D60001B78012B2DD0022B00D18AE02378514DE6
:104D7000AB706378EB70A3782B71E3786B71237958
:104D80000F210B40AB716079A3791B0203431B1108
:104D9000EB71E3792B72237A19406972617AA37AF5
:104DA0001B020B431B11AB72FFF7A4FFE872424BCF
:104DB000197840232A0000200EF0E8FF03F064FA7F
:104DC000B8E701F067FC83783A4D2B73C3786B73B7
:104DD0000378AB734378EB7303792B7443796B746B
:104DE000037AAB74437AEB7483792B75C3796B7553
:104DF000837AAB75C37AEB7501F04CFC83782B7624
:104E0000C3786B760378AB764378EB7603792B77B0
:104E100043796B77037AAB77437AEB7782792023F8
:104E2000EA54C2790133EA54827A0133EA54C27AED
:104E30000133EA5401F02EFC82782423EA54C2782C
:104E40000133EA5402780133EA5442780133EA54D8
:104E500002790133EA5442790133EA54027A013388
:104E6000EA54427A0133EA5482790133EA54C2792E
:104E70000133EA54827A0133EA54C27A0133EA54A4
:104E800074E70E4D280001F057F80A4B0C3307CD9C
:104E900007C307CD07C307CD07C367E742660020F6
:104EA000641600206216002043660020642D002056
:104EB00041660020242D002040660020C0420020D2
:104EC00010B5054B01241C70044B1870044B1A805C
:104ED00004480CF003F910BD426600204366002030
:104EE00062160020642D002010B5024B18180CF03B
:104EF000F5F810BD242D0020502800D1B0E003D9D2
:104F000060282FD0FF2010E0402800D9AAE02028F8
:104F100005D34B2924D88B00564AD3589F460028E6
:104F200003D0102800D09FE0002070479520FCE7B8
:104F30000020FAE72A39504B59187D31FF310878A3
:104F4000F3E704394C4B59187D31FF310878ECE711
:104F50000020EAE70020E8E76820E6E70020E4E731
:104F60000020E2E7A92979D88B00444AD3589F460C
:104F7000FF20DAE70220D8E70120D6E72320D4E794
:104F80000020D2E7B920D0E71A20CEE70120CCE7F5
:104F90000020CAE74020C8E70020C6E74020C4E759
:104FA0000020C2E74020C0E70120BEE70020BCE7A8
:104FB0000120BAE70020B8E70120B6E70020B4E7F7
:104FC0003B20B2E73420B0E73B20AEE73420ACE72B
:104FD0003B20AAE73420A8E73D39294B585CA4E7D9
:104FE0003D39274B585CA0E71A209EE71A209CE722
:104FF0001A209AE75E2098E7012096E7502094E770
:10500000FD2092E7002090E700208EE7C6208CE785
:105010000F208AE70F2088E7302086E7612084E7A9
:10502000AE2082E7902080E7D9207EE7D4207CE77D
:1050300014207AE7542078E7412076E7152074E7BA
:10504000542072E7C72070E779206EE79C206CE758
:1050500033206AE7362068E7632066E7002064E7CC
:10506000002062E7FF2060E7FF205EE722205CE788
:1050700003205AE76C570110881900209C58011032
:10508000CC650020F0B58BB006000F00150008A914
:105090000F70487000248C70CC700A7105220E20AD
:1050A000FFF722FF00941A22002101A80CF010F84B
:1050B00007E03919C9B23000FFF71EFF6B461855DB
:1050C0000134A542F5DC2A0069461320FFF70CFFE6
:1050D0000BB0F0BD70B5002406E0281C0BF0B4FD49
:1050E000A3000F4AD0500134A0235B009C4215D28C
:1050F00020000BF074FBF42189050BF01CFB8221CE
:10510000C9050BF0F8FA051C06490BF05BFB0028FB
:10511000E3D1A300024A00219950E4E770BDC046E4
:10512000A41B00200000FEC010B5002405E0A30071
:105130001B4AC1210906995001347F2C2FD8002C1D
:10514000F5D00F2C0FD91F2C1BD920000BF047FBDB
:10515000F42189050BF0EFFA12490BF0CCFAA30009
:105160000F4AD050E8E720000BF039FBFA218905FF
:105170000BF0E1FA0C490BF0BEFAA300084AD0503C
:10518000DAE720000BF02BFBF62189050BF0D3FAB0
:1051900006490BF0B0FAA300014AD050CCE710BD8D
:1051A000B820002000007E400000F84000009E4033
:1051B00010B500240EE020000BF011FBF42189054E
:1051C0000BF0B9FA8021C9050BF095FAA300034A48
:1051D000D05001347F2CEED910BDC046B82200203B
:1051E00010B5041C0BF022FB0BF0FEFA8221C9055E
:1051F0000BF086FA0BF01AFB00280BD08221C905B0
:10520000201C0BF07DFA8421C9050BF094FA0BF0F9
:105210003FFB10BD0020FCE710B51C1C022818D075
:10522000032805D0002801D0201C10BD141CFBE76A
:10523000101C0BF065FA041C02990BF0B5FA00285B
:1052400009D10399201C0BF0C5FA0028ECD0039C6F
:10525000EAE70C1CE8E7029CE6E710B5FFF73AFF27
:10526000FFF762FFFFF7A4FF10BD000070B5050057
:105270000C0000786B781B020343AA7812041343D6
:10528000E87800061843FFF7ABFF284E80008059EE
:1052900027490BF050FA2070030A6370030CA370C7
:1052A000000EE070287A6B7A1B020343AA7A12047C
:1052B0001343E87A00061843FFF792FF80008059F5
:1052C0001C490BF038FA2072030A6372030CA372B4
:1052D000000EE07228796B791B020343AA7912044D
:1052E0001343E87900061843FFF77AFF800033582C
:1052F00023711A0A62711A0CA2711B0EE371287BCA
:105300006B7B1B020343AA7B12041343E87B00065A
:105310001843FFF765FF8000335823731A0A62733E
:105320001A0CA2731B0EE37370BDC046A41B0020B1
:105330000000A04300002043F0B5DE4657464E462D
:105340004546E0B589B005000C00C678B3091E00DB
:105350000B700C22002105A80BF0BAFE0C220021D4
:1053600002A80BF0B5FE002E0CD1012E00D99FE053
:10537000022E00D932E109B0F0BCBB46B246A946C4
:10538000A046F0BDAA781209EB7801211940090165
:105390000A43DD4B984653009B189B00434405AAE3
:1053A00083CB83C200239B46A278E3781B0213437E
:1053B000217909040B43627912061A436B46587D22
:1053C0008023DB050193C021090600915B46079904
:1053D000FFF722FFA21CA070030A9146E370030CA2
:1053E0002371000E6071C12212069246A279E37900
:1053F0001B021343217A09040B43627A12061A43F3
:1054000006996B46187D5F460197574600975346AD
:10541000FFF702FFA071020AE271020C2272000E75
:105420006072EA789206D20E53009B189B004344A8
:1054300002AA83CB83C2A27AE37A1B021343217BA5
:1054400009040B43627B12061A436B46587A802389
:10545000DB050193C021090600915B460499FFF723
:10546000DBFEA072020AE272020C2273000E60736D
:10547000A27BE37B1B021343217C09040B43627C68
:1054800012061A4303996B46187A5B4601935346FA
:105490000093FFF7C1FEA073020AE273020C2274AC
:1054A000000E6074210012314846FFF7DFFE5CE712
:1054B0006B785B06DA0E944B984653009B189B0062
:1054C000434405AA83CB83C200239B46A278E3789A
:1054D0001B021343217909040B43627912061A4314
:1054E0006B46587D8023DB050193C021090600919E
:1054F0005B460799FFF790FEA21CA070030A914635
:10550000E370030C2371000E6071C12212069246F3
:10551000A279E3791B021343217A09040B43627ACF
:1055200012061A4306996B46187D5F460197574647
:1055300000975346FFF770FEA071020AE271020C59
:105540002272000E60726A78D209A9780F230B408C
:105550005B0013435A00D3189B00434402AA83CB39
:1055600083C2A27AE37A1B021343217B09040B4313
:10557000627B12061A436B46587A8023DB0501933F
:10558000C021090600915B460499FFF745FEA07211
:10559000020AE272020C2273000E6073A27BE37BAC
:1055A0001B021343217C09040B43627C12061A433D
:1055B00003996B46187A5B46019353460093FFF7B5
:1055C0002BFEA073020AE273020C2274000E6074B8
:1055D000210022314846FFF749FEC9E62A78D20663
:1055E000D10E05AF930E5B189B00474A9446634467
:1055F0003A0043CB43C200239A46A278E3781B02C9
:105600001343217909040B43627912061A4378780F
:105610008023DB059B460193C0231B060093534662
:105620000799FFF7F9FDA21C9046A070030AE370EA
:10563000030C2371000E6071C12212069146A279FB
:10564000E3791B021343217A09040B43627A1206A1
:105650001A4306993878574601974F4600974B46AC
:10566000FFF7DAFDA071020AE271020C2272000E4D
:1056700060722A785209697803230B40DB001343D8
:1056800002AD5A00D3189B001F4AD6182A0083CEB9
:1056900083C2A27AE37A1B021343217B09040B43E2
:1056A000627B12061A43687859460191C0231B0693
:1056B000009353460499FFF7AFFDA072020AE2720D
:1056C000020C2273000E6073A27BE37B1B02134368
:1056D000217C09040B43627C12061A430399287843
:1056E000534601934B460093FFF796FDA073020AC1
:1056F000E273020C2274000E6074210032314046C5
:10570000FFF7B4FD37E6C046445B011070B50200F8
:10571000C3789B090B700478A408407801230340E8
:105720009B0123431A4D9B00881CEB588B701C0A6D
:1057300044701C0C84701B0EC37093785B06DB0DE9
:10574000EB588B721D0ACD721D0C0D731B0E4B7323
:1057500053785B080F4C9B00E3588B711E0ACE7187
:105760001E0C0E721B0E4B729578ED09D2783F23FA
:1057700013405B002B439B00E3588B731C0ACC73D4
:105780001C0C0C741B0E4B741231FFF76FFD70BDB7
:10579000B8220020B8200020F0B5DE4657464E461D
:1057A0004546E0B589B005000C000C22002105A893
:1057B0000BF08EFC0C22002102A80BF089FCEE7885
:1057C000B3091E1E23706ED02B78DB0700D473E064
:1057D0002B785B089B00B649CB58A370190AE1707F
:1057E000190C21711B0E6371A978C909EA783F234E
:1057F00013405B000B439B00AE49CB58A371190AC1
:10580000E171190C21721B0E6372AA785206D20E36
:1058100002AB994653009A189200A74B9B184A4630
:1058200083CB83C200239846A27AE37A1B021343F8
:10583000217B09040B43627B12061A434B465878BE
:105840008023DB050193C0231B0600934346494692
:105850008968FFF7E1FCA072020AE272020C22736F
:10586000000E6073C1231B06A27BE17B090211437A
:10587000207C00040143627C12060A4349464968C1
:1058800048460078474601970093FFF7C5FCA07390
:10589000020AE273020C2274000E6074A01C210044
:1058A0001231FFF7E3FC012E6DD809B0F0BCBB4606
:1058B000B246A946A046F0BD2B785B089B007C4A07
:1058C000D358A372190AE172190C21731B0E63736A
:1058D000A978C909EA783F2313405B000B439B007A
:1058E000744AD358A373190AE173190C21741B0E5F
:1058F0006374AA785206D20E05AB994653009A18E3
:1059000092006D4B9B184A4683CB83C20023984676
:10591000A278E3781B021343217909040B436279CF
:1059200012061A434B4658788023DB050193C023A7
:105930001B060093434649468968FFF76DFCA0703B
:10594000020AE270020C2271000E6071C1231B0674
:10595000A279E17909021143207A00040143627AB5
:1059600012060A4349464968484600784746019767
:105970000093FFF751FCA071020AE271020C22723F
:10598000000E60728AE76A78D206D10E05AF930ED8
:105990005B189B00484A944663443A0043CB43C299
:1059A00000239A46A278E3781B0213432179090465
:1059B0000B43627912061A4378788023DB059B46F5
:1059C0000193C0231B06009353460799FFF724FC5D
:1059D000A21C9046A070030AE370030C2371000E12
:1059E0006071C12212069146A279E3791B0213432A
:1059F000217A09040B43627A12061A430699387811
:105A0000574601974F4600974B46FFF705FCA0719C
:105A1000020AE271020C2272000E60726A78520968
:105A2000A97803230B40DB00134302AD5A00D318BF
:105A30009B00214AD6182A0083CE83C2A27AE37A39
:105A40001B021343217B09040B43627B12061A439A
:105A5000687859460191C0231B0600935346049968
:105A6000FFF7DAFBA072020AE272020C2273000E48
:105A70006073A27BE37B1B021343217C09040B436D
:105A8000627C12061A4303992878534601934B46C9
:105A90000093FFF7C1FBA073020AE273020C2274A9
:105AA000000E6074210022314046FFF7DFFBFCE668
:105AB000B8220020B8200020445B0110F0B5DE467B
:105AC00057464E464546E0B589B005000C000C220D
:105AD000002105A80BF0FCFA0C22002102A80BF013
