:020000041000EA
:1000000000B5324B212058609868022188439860DF
:10001000D860186158612E4B002199600221596106
:100020000121F02299502B49196001219960352056
:1000300000F044F80222904214D00621196600F024
:1000400034F8196E01211966002018661A6600F04E
:100050002CF8196E196E196E052000F02FF8012189
:100060000842F9D1002199601B49196000215960AB
:100070001A491B48016001219960EB211966A021F2
:10008000196600F012F800219960164914480160C1
:100090000121996001BC002800D000471248134993
:1000A000086003C880F30888084703B5996A0420EC
:1000B0000142FBD001200142F8D103BD02B5186610
:1000C0001866FFF7F2FF186E186E02BD00000240BE
:1000D000000000180000070000035F00212200005C
:1000E000F4000018222000A00001001008ED00E03C
:1000F00000000000000000000000000074B24E7A12
:1001000000200420F7010010C3010010C5010010F9
:10011000C1010010C1010010C1010010C101001097
:10012000C1010010C1010010C1010010C701001081
:10013000C1010010C1010010C9010010CB01001065
:10014000CD010010CD010010CD010010CD01001037
:10015000CD010010CD010010CD010010CD01001027
:10016000CD010010CD010010CD010010CD01001017
:10017000CD010010CD010010CD010010CD01001007
:10018000CD010010CD010010CD010010CD010010F7
:10019000CD010010CD010010CD010010CD010010E7
:1001A000CD010010CD010010CD010010CD010010D7
:1001B000CD010010CD010010CD010010CD010010C7
:1001C00000BE00BE00BE00BE00BE00BEEFF3058054
:1001D000103800BEF2EB8871504B0110704B0110CB
:1001E0003402001090A31AE700201F49086006C8D7
:1001F00081F3088810471D48006800282FD10DA4FE
:100200000ECC002902D000F012F8F9E71849194A7B
:10021000002000E001C19142FCD1174988471749ED
:1002200088471749884700BEFDE701C901C29A42C5
:10023000FBD37047704B0110C0000020B0150020A8
:1002400060600110000004200000042060600110C4
:10025000001004200010042000000000704709482E
:100260000BF0EAFC0047000008ED00E0000000D0C1
:10027000D015002054330020C1A9001049080010F7
:100280007DA900105756000006005250ABB36053D2
:100290008841011006005250861C0302984101104B
:1002A000060052505422A29DAC410110050052504C
:1002B000DE65F46860600110F8B5C04610B5064C04
:1002C0002378002B07D1054B002B02D0044800E017
:1002D00000BF0123237010BD701800200000000033
:1002E000781B0110044B10B5002B03D003490448C0
:1002F00000E000BF10BDC0460000000074180020E0
:10030000781B011010B5040008F0E0FB0022012169
:10031000200008F0C1FB0123A340D0221206536243
:10032000536110BD10B5040008F0D0FB002201217C
:10033000200008F0B1FB0123A340D02212069362F3
:1003400010BD70B500290AD001248440D0252D06A7
:10035000AC620022012108F09FFB6C6170BD01249A
:100360008440D0252D066C620022002108F094FB09
:10037000AC61F3E770B500280FD0D02424068025A7
:100380006D046561642009F0E9FC80239B046361CE
:10039000642009F0E3FCA56170BDD024240680250B
:1003A0006D046561642009F0D9FC80239B04A3617E
:1003B000642009F0D3FCA561EEE710B5002804D055
:1003C00001211A20FFF7BDFF10BD00211A20FFF701
:1003D000B8FFF9E7F0B5D6464F464646C0B50E2001
:1003E000FFF790FF0F20FFF78DFF1020FFF78AFF28
:1003F0001120FFF787FF0D20FFF794FF0C20FFF778
:1004000091FF0B20FFF78EFF0A20FFF78BFF0320E1
:1004100008F05CFB082008F059FBD02424060823D0
:100420006362F83363620421032008F01DFB04219A
:10043000082008F019FB384B994601251D60374B01
:1004400004261E60364AFF218C46516211663548EB
:100450000268120C120434498A460A601A6897002E
:10046000BA189700314ABA181168FF273F044F4065
:100470003F0C3F048021490188460A4317604A46E1
:1004800012689700BF18BA00254989464A44176880
:100490002900B9430F0041460A4317601B689A00C0
:1004A000D21893004B441A68290091430A00414630
:1004B0000B431A601E4B1B68624653401B041B0C07
:1004C0001C4A136003681B0C1B04524613609620E1
:1004D000002109F017FC184918480EF095FC01217D
:1004E000062008F0C1FA0121072008F0BDFA012119
:1004F000042008F0B9FA002008F0E8FA65626561A6
:10050000022008F0E3FA6662666100F057FBE0BC87
:10051000BA46B146A846F0BDC02E0020E427002010
:100520000000054020000540201005400C0005405B
:100530005C0005405C100540C0C62D0000C00340B3
:10054000F8B5DE4657464E464546E0B50400D0268F
:1005500036068023DB019946B3610520002109F0AE
:10056000D1FB73685B0B01252B405A425341012795
:100570003B401B012278102188468A431343237095
:1005800073681B0B2B405A4253413B405B0122785E
:1005900010318A43134323707368DB0A2B405A429D
:1005A00053413B409B01227820318A4313432370FF
:1005B00073689B0A2B405A425341DB0122787F200B
:1005C0000240134323704B46736180231B029B46FA
:1005D000B3610520002109F095FB73685B0B2B408C
:1005E0005A4253413B402278AA4313432370736815
:1005F0001B0B2B405A4253413B409B002278042165
:100600008A43134323707368DB0A2B405A425341D9
:100610003B405B00227802208246824313432370D2
:1006200073689B0A2B405A4253413B40DB002278BF
:10063000063081468243134323705B4673618023F7
:100640005B029B46B3610520002109F05BFB7368E8
:100650005B0B2B405A4253413B406278AA43134301
:10066000637073681B0B2B405A4253413B405B0045
:10067000627850468243134363707368DB0A2B40F1
:100680005A4253413B409B00627804218A43134302
:10069000637073689B0A2B405A4253413B40DB0016
:1006A000627849468A43134363705B4673618023D3
:1006B0009B029A46B3610520002109F023FB736871
:1006C0005B0B2B405A4253413B409B0162784021D7
:1006D0008A431343637073681B0B2B405A42534188
:1006E0003B401B01627841468A4313436370736841
:1006F000DB0A2B405A425341DB0162787F200240E3
:10070000134363705346736173685B091D406B420A
:100710005D413D40ED00A7784B469F433D43A570AA
:100720006378DB06DB0F1B01EAB28A431343A37035
:10073000F0BCBB46B246A946A046F8BDF0B5D646C9
:100740004F464646C0B584B0040003AF3A4B1A8802
:100750003A80022399460023BB7002AE3280B37008
:1007600001AD2A80AB7069460A808B70D0231B06CE
:1007700098464A469A61314B9A4603233A00D02163
:10078000504611F061F943464A465A619A61032383
:100790003200F021504611F057F943464A465A615B
:1007A00080239B00994643464A469A6103236A4642
:1007B000F021504611F048F943464A465A619A6181
:1007C00003232A00D021504611F03EF943464A4601
:1007D0005A613B785B027A785200E02109010B40B4
:1007E0001343BA78D20913432360327852027378E4
:1007F0005B000A401A43B378DB091A4362602A7827
:1008000052026B785B000A401A43AB78DB091A434B
:10081000A2606B461B785B026A46527852000B401E
:1008200013436A469278D2091343E36004B0E0BCF4
:10083000BA46B146A846F0BD901B011000C0034067
:1008400010B500F075F810BD10B584B00DF0C6FB02
:10085000642009F083FA32480DF084FBFFF7BAFDFB
:100860001A2008F033F90020FFF7A7FD182008F040
:100870002DF9D024240680235B046362A361192030
:1008800008F024F980239B046362A361052008F02B
:100890001DF92023A36200220121052008F0FCF8A5
:1008A00001AC0B22002120000DF036FA2000FFF7EA
:1008B00047FE1C4B9B886A461380617811220A40D0
:1008C000112A09D014230B40142B0CD0684600F0D9
:1008D000C3FB002004B010BD13480BF0ADF90300BA
:1008E000002108009847123B6A4613700120FFF769
:1008F00064FD0120FFF73EFD0C4809F02FFA02E0ED
:10090000962009F02BFA01AC2000FFF719FE63785E
:10091000DB07F5D500220021002009F0F3FFEFE707
:10092000781B0110901B011055420000AC0D000017
:10093000264B1860264B1B6898422AD2C31A013BEB
:10094000FA225201934228D20023002B20D0214BBF
:100950001B68214A1268934225DA14331D4A13603A
:100960001C4B1B68002B2CD1FF331C4A12685340D0
:100970001B041B0C1A4A1360164B1B68002B22DB4E
:100980001B04184A126853401B0C1B04164A1360C0
:100990007047984205D9C31AD2E70D4B186001235E
:1009A000D3E70023D1E70A3B0A4A13600F4A1268D3
:1009B000934201DC074B1A60064B1A68064B1A601B
:1009C000CEE70023D1E70023DAE7C046D832002083
:1009D000042D002000210020FC2000205C000540A8
:1009E0005C10054020000540201005400421002037
:1009F0000902084300B2704770B582B0D0242406C3
:100A00000125A5616B46187159710B4E022201A98F
:100A1000300011F069F86561022009F09FF9033593
:100A2000A561022201A9300011F05EF86561022083
:100A300009F094F902B070BD00C00340F0B5DE4685
:100A400057464E464546E0B585B006000D0001AC60
:100A5000002301930822002102A80DF05DF9032371
:100A60006B449B46A2235A461370D0231B0699461B
:100A7000012398464B4642469A614F4B9A46594647
:100A8000180011F031F80C2322000021504610F01C
:100A9000DBFF4B4642465A6161782078FFF7A8FF9A
:100AA00080B2404283B2FF273840B0711B0AF37115
:100AB000E178A078FFF79CFF83B2384030721B0AC0
:100AC000737261792079FFF793FF83B23840B07277
:100AD0001B0AF372E179A079FFF78AFF80B24042E6
:100AE00083B2384030701B0A7370617A207AFFF746
:100AF0007FFF83B23840B0701B0AF370E17AA07AAE
:100B0000FFF776FF83B2384030711B0A73714A4693
:100B10000423936101225946504610F0E5FF0C234F
:100B200022000021504610F08FFF4A4604235361F3
:100B300061782078FFF75CFF83B23840A8711B0A08
:100B4000EB71E178A078FFF753FF80B2404283B2A7
:100B5000384028721B0A6B7261792079FFF748FFD1
:100B600083B23840A8721B0AEB72E179A079FFF7D3
:100B70003FFF83B2384028701B0A6B70617A207A7D
:100B8000FFF736FF80B2404283B23840A8701B0A9C
:100B9000EB70E17AA07AFFF72BFF83B2384028711F
:100BA0001B0A6B71434633732B7305B0F0BCBB4615
:100BB000B246A946A046F0BD00C0034010B5AE2124
:100BC0001020FFF719FF5C211120FFF715FF04210A
:100BD0001220FFF711FF04211320FFF70DFF002162
:100BE0001520FFF709FFE0211720FFF705FF10BDD3
:100BF000F0B5C64600B5040013282DD014282FD018
:100C0000122803D0002080BCB846F0BD132714235F
:100C10009846200007F05AFF01263300A340D02554
:100C20002D06AB6200220121200007F035FF40466F
:100C300007F04CFF3300424693406B62AB613800D3
:100C400007F044FF3300BB406B62AB616B68E3406D
:100C50001E4209D00120D6E7122714239846D8E770
:100C6000122713239846D4E70020CCE710B51320B1
:100C7000FFF7BEFF10BD10B51220FFF7B9FF10BD82
:100C800010B51420FFF7B4FF10BD000010B58CB0F4
:100C900001211A20FFF755FB9620800009F05EF82D
:100CA00004AC002304931C22002105A80DF034F8A5
:100CB000DD23237011336370443BA3704833E3702A
:100CC000F13B237109F01AF902000B1E16DB1448E0
:100CD000002112184B41002B16DB002B18DB02926F
:100CE000039300230093203304AA76210D480EF0CD
:100CF00089FA002812DB01200CB010BD0A4B0B4A08
:100D00003F210B4809F03EFE01225242094BE4E725
:100D1000054B064A3F21064809F034FE0020EBE768
:100D2000F049020048150020981B01101C1C0110FE
:100D3000B41B0110FFFFFF7F10B501F0CDFB10BD0C
:100D4000F0B585B0002301930822002102A80CF021
:100D5000E3FF6B46D91CA2230B70D0242406012587
:100D6000A561144E0122300010F0BEFE0C2301AA32
:100D70000021300010F068FE65610C2818D00027B3
:100D8000D02424060425A5610A4E01226B46D91CF5
:100D9000300010F0A9FE0C2301AA0021300010F051
:100DA00053FE65610C2800D00027380005B0F0BD67
:100DB0000127E5E700C0034010B584B0294B1A882D
:100DC0006B469A81002369468B7302A90A808B7057
:100DD00001A90A808B7069460A808B700222D02399
:100DE0001B069A61032303AAD0211F4810F02CFE92
:100DF000032835D00024D0231B0602225A619A61B1
:100E0000032302AAF021184810F01EFE032800D088
:100E10000024D0231B0602225A61FF32FF329A615E
:100E200003236A46F021104810F00EFE032800D07C
:100E30000024D0231B06802292005A619A6103236A
:100E400001AAD021084810F0FFFD032800D000249B
:100E5000D0231B06802292005A61200004B010BDEE
:100E60000124C8E7181C011000C00340012070478E
:100E700030B583B0FFF7A0FF01AC01252840030186
:100E800020781022904318432070FFF755FFC301CC
:100E900022787F20104018432070FFF7F7FE28408B
:100EA000830120784022904318432070FFF7E8FE2A
:100EB0002840830020780422904318432070FFF7D5
:100EC000D5FE03002B402078012290431843207068
:100ED000FFF7D1FE284043002078022290431843B8
:100EE0002070FFF7C3FF2840C300207808229043FA
:100EF00018432070FFF724FF284040012578202365
:100F00009D43284320706378012213436370208837
:100F100003B030BD7047704710B512E00C4B9A6AB1
:100F20000C4B1A600C4810F097FD00F097FA094C32
:100F3000206804F03FFF206803F03EF82068FFF7C8
:100F40007FFC0649044810F0B7FD0028E6D1ECE725
:100F500000400540B01D002078150020FC21002035
:100F6000014B0020185670470812002000487047B7
:100F7000A018002000487047D418002010B50020A9
:100F8000FFF71BFA0020FFF7F5F9002200210020EF
:100F900009F0B8FC10BD000010B5064B1B78002B03
:100FA00000D010BD034B01221A70002001F0ACF9F3
:100FB000F7E7C0463E33002070B51E491E4810F0CA
:100FC0007BFD00281DD11D4D2800FFF7B9FA1C4CF0
:100FD0002068290004F062FF03F034FB206801F070
:100FE00037FA06F05DFC002813D1154B1868154A36
:100FF000154900F001FB154B1B785BB2012B14D097
:1010000070BD134B9A6A0E4B1A600B4810F024FD0A
:10101000D9E70B4D28680F4C210003F037FF2868F3
:101020000022210006F068FCDFE7054B186801F09C
:1010300015FBE5E7F821002078150020D4180020E2
:10104000B01D0020C0180020E01800200812002069
:1010500000400540A018002070B5041E00D1CAE071
:1010600001F04BFBC0B2012846D0FFF7B3F962494B
:1010700062480EF08FF80321162007F0F5FC0321DB
:10108000172007F0F1FC5E48FFF75AFA00F056FA15
:10109000002834D100F0FCF8C82008F05FFE584B5F
:1010A000584A5949594804F0ABFD554B9B78DB062B
:1010B0002CD4FFF72FFF02F05DF9012565576B1C5B
:1010C0002AD00023E3565A1C01D0514A13704C4BCE
:1010D0001B789A0624D45A0633D4DA0633D45AB28B
:1010E000002A32DB5A0732D40A221A40022A30D0B0
:1010F0001B0716D5022514E002232370B5E7404BE9
:10110000404A4149414804F07BFDCEE706220021D8
:1011100040480CF001FECCE73F4B02255D57D0E77D
:1011200006253D4ABA235B00D65C0023E356013313
:1011300011D06421EBB2072B40D8AB00374AD3580B
:101140009F460125EDE70025EBE70525E9E70425A6
:10115000E7E70325E5E701F05BFA002804D12C4B13
:1011600002221A704621E5E7642001F003FA284BB9
:1011700001221A706421DDE7294C300001F0EAF801
:101180000121200001F0A0F8214B00215956280030
:1011900000F042FA1A4B9B789B0727D4214A184942
:1011A000280003F00BF90DF025F91F480DF010F998
:1011B000FFF702FFFCE7FF242406DEE71B4CDCE719
:1011C000FF242402D9E7124B00221A70FF242404C2
:1011D0001921D2E70E4B00221A70154C0F21CCE7D3
:1011E0000B4B00221A70134C1921C6E70A4B9D7055
:1011F00000F082F9D2E770BD400D030048150020D1
:10120000D4180020A0180020C0180020B01800201A
:1012100008120020FC170020D0160020341C0110FA
:1012200000F115FFE0180020190F001000A1A1A186
:1012300000FF61000000FFE610B512480CF0C2FE8E
:10124000002407E0104B5B18D97810480CF0BAFE68
:101250000134E4B2052C0DD80DF0A0FB2100C0B282
:10126000094A1219D070002CECD1130001229043CE
:10127000D870E7E7044B9B221A720A200CF054FE48
:1012800010BDC046541C0110D0160020641C011073
:10129000F0B5DE4657464E464546E0B5E9B0CC25AA
:1012A0006D002A00002102A80CF036FD5D4B02AA59
:1012B0001380059B0193DB0FDB0780221201134390
:1012C0000593069B0193DB0FDB0713430693079BF4
:1012D0000193DB0FDB0713430793089B0193DB0F9D
:1012E000DB071A430892504F0A97504E0B96504C0A
:1012F0000C9450480D9050490E91504A0F92504B0B
:1013000010931297139614941590169117921893A0
:101310004C4B19931A931B931C931D931E931F936D
:1013200020932193802202A98B5004328B500432E7
:101330008B5004328B5004328B5004328B50043269
:101340008B50FF231B049946A8230A004946D1501D
:101350003D4B9B46AC235946D1503C4B9846B0235D
:101360004146D150FF273F060433D750FF263602AF
:101370000433D6500433364A02A9CA50354B9A4634
:10138000C0230A005146D15004334946D15004339A
:10139000D7500433D65004334146D1500433D6508D
:1013A000A23B2A22FF3202A98B5401328B542A4CD1
:1013B0002A0020000CF0B6FC002002F0C5FF01203E
:1013C00002F0C2FF022002F0BFFF032002F0BCFFC8
:1013D000042002F0B9FF20009C30062200210CF00E
:1013E0009BFC2000A230062200210CF095FCFFF7A8
:1013F00023FFBC235B004A46E25004335A46E250C6
:1014000004334246E2500433E7500433E6500433D9
:101410005246E25069B0F0BCBB46B246A946A0466F
:10142000F0BDC04601A0FFFF000034420000B442FE
:10143000000007430000344300006143000087437D
:1014400000809D43000016440000FF4D0000FFE6B1
:1014500000F115FF00FF6100D016002070B51D4C93
:10146000A5441D4B1B78002B03D180235B019D44B9
:1014700070BD0CF0D7FFEFF3108672B60023009317
:10148000164A002101A80CF047FCCC225200144956
:1014900068460CF047FC80256D01124C29002000A5
:1014A00010F012FB2A006946200010F0E5FA86F3DE
:1014B00010880CF0C1FF0C4B1B78002B03D1064B9E
:1014C00000221A70D1E706F093FA074B00221A7037
:1014D000F5E7C04600F0FFFF3C330020FC0F0000A2
:1014E000D016002000D0120045330020014B01220D
:1014F0001A70704745330020014B01221A70704763
:101500003C33002010B5031C4B2800D94B23034962
:101510002C22FF328B54FFF7FDFC10BDD0160020AB
:1015200010B5031C322800D9322303492A22FF3286
:101530008B54FFF7EFFC10BDD016002010B5194CEE
:10154000CC225200184920000CF0ECFB2288174BEB
:101550009A4209D016480CF005FDFFF799FE0020CD
:10156000FFF7CAFF00201CE00E4A95235B00D35C06
:101570001A1C312B00D832220A4C95235B00E2540E
:101580002C23FF33E05CFFF7BDFF2A23FF33E05C31
:10159000FFF7C6FFE37801229343E3709B23237296
:1015A000012010BDD016002000D0121001A00000B4
:1015B0006C1C011030B50F4C40004508E068C00FAE
:1015C000C0072843E060490048082169C90FC907DE
:1015D00001432161520051086269D20FD2070A43C8
:1015E00062615B005A08A369DB0FDB071343A36149
:1015F00030BDC046D016002010B5034B1B68002B31
:1016000000D0984710BDC046881B0020014B002029
:10161000185670472033002010B588B00400284BBE
:101620001870022910D00B22002105A80CF074FBC1
:101630001022002101A80CF06FFBE3B2062B0BD89F
:10164000A400204B1B599F461F4B204A1A6006F0EE
:1016500027FF0028E7D005E01B4B1D4A1A60002039
:1016600001F07CF808B010BD174B194A1A6006202B
:1016700001F074F8F6E7144B154A1A60012001F0E6
:101680006DF8EFE7104B124A1A60052001F066F87A
:10169000E8E70D4B0F4A1A6001AA05A90020FFF7E1
:1016A000ABFFDFE7084B0C4A1A6001AA05A900202E
:1016B000FFF7A2FFD6E7044B084A1A60D2E7C046FC
:1016C00020330020BC1C0110881B0020C98600109C
:1016D00009280010F167001025700010A575001092
:1016E00010B5054B1B78002B03D0FFF747FC0120FA
:1016F00010BD00F013FFFAE737330020F0B5C646FF
:1017000000B590B004000D0016001F0016AB1B784A
:101710009846494B984200D188E00721380007F0ED
:10172000A3F9012300933A00290020000DF022FACA
:101730001022002108A80CF0EFFA80235B02089326
:10174000F8235B0209938023DB020A93C0231B0367
:101750000A93102208A904A80CF0E4FAF31C059AD5
:10176000039236491140F20111431B0319430591BD
:10177000079B0393DB00DB0880229205134307934A
:101780002F4B19400591102204A90CA80CF0CAFA9D
:101790000F9B03932B4A1A40BF0217430F974346F0
:1017A000002B45D020220E9B03932749194080230C
:1017B0009B020B435206F82189050A4013430E93FE
:1017C0009B009B088022D20513430E93052008F04E
:1017D000B5FF1E490AF084FA0BF035FF80460BF086
:1017E0008BFF87B2002F25D038000BF02CFF011C97
:1017F00040460BF0B4FE8721C9050BF0D0FE0BF07C
:101800007BFFC0B200023F0407430C970CAB3200D1
:10181000290020000DF000FA22680123AB409A4312
:101820001343236010B080BCB846F0BD062175E7B5
:101830001822B8E70020E5E7000020507F00FEFFF7
:10184000FFFFFF9FFF83FFFFFFFFF5C10050C300B5
:1018500070B505000C0000880BF0F5FE1B490BF07D
:1018600088FE1B490BF09BFE0BF046FFC2B22B79A2
:10187000A978C943C9B25943090A5B1ADBB23F25AB
:1018800028402D1AEDB2584380096B439B11DBB2FF
:101890000818C0B2CB18DBB23F2A10D9403AD2B2F6
:1018A0003F2A06D81A060B061B0A000213431843E8
:1018B0000AE0090600041B020843184304E000067E
:1018C0001B04090218430843206070BD00007F43D9
:1018D00000003F43F8B5CE46474680B50400234B91
:1018E0001D78002D05D100230360C0BCB946B04669
:1018F000F8BD642DF9D08778E678B81963789846F2
:10190000C0180BF0A5FE1A490BF033FE81462800E3
:101910000BF099FE17490BF02CFE051C011C4846E4
:101920000BF07CFE0028E0D14946281C0BF021FE7C
:10193000051C38000BF087FE291C0BF030FE0BF065
:10194000DBFEA07030000BF07EFE291C0BF027FEA2
:101950000BF0D2FEE07040460BF075FE291C0BF038
:101960001EFE0BF0C9FE6070BFE7C0462A120020C1
:1019700000007F430000C842F0B5D6464F464646B9
:10198000C0B504000368002B35D083789846C7782B
:10199000D819667880190BF05BFE051C40460BF0E9
:1019A00052FE8046291C0BF0E4FD824638000BF005
:1019B0004AFE071C291C0BF0DCFD814630000BF0B1
:1019C00042FE061C291C0BF0D4FD051C5146404666
:1019D0000BF0E5FD0BF090FEA0704946381C0BF0B3
:1019E000DEFD0BF089FEE070291C301C0BF0D7FDEA
:1019F0000BF082FE6070E0BCBA46B146A846F0BD6E
:101A000000220AE0930006495958064B5B68DB0345
:101A1000FBD4044B19610132D2B2132AF2D97047B8
:101A2000D41F002000002050F8B5DE4657464E4631
:101A30004546E0B506000D00141C80780BF003FE4F
:101A40008046F0780BF0FFFD071C70780BF0FBFD73
:101A5000061CA8780BF0F7FD8346E8780BF0F3FD41
:101A6000824668780BF0EFFD8146414658460BF000
:101A700076FD211C0BF093FD41460BF075FD051C16
:101A8000391C50460BF06BFD211C0BF088FD391CF6
:101A90000BF06AFD071C311C48460BF060FD211C51
:101AA0000BF07DFD311C0BF05FFD061C281C0BF0BC
:101AB00023FEC5B2381C0BF01FFEC4B2301C0BF065
:101AC0001BFEC0B22D040002240628432043F0BCB4
:101AD000BB46B246A946A046F8BD0000F8B5274B64
:101AE0001D7828000BF0B4FD011CFE2080050BF0D2
:101AF00040FD041C224B1B78002B0BD050222149A7
:101B000021480CF00FF90023204A13701C4A13706F
:101B10001F4A13701D4B1E78B5421DD330000BF0C9
:101B200092FD211C0BF03BFD051C00240BE0A700DF
:101B30001849C9191448C0192A1CFFF775FF114B21
:101B4000D8510134E4B2132CF1D901360F4B1E7079
:101B5000FFF756FF0020F8BD0D4B1B78002B01D07E
:101B60000020F8E750220B4906480CF0DBF8FFF79D
:101B700047FF074B01221A700120ECE72E330020AB
:101B800035330020D41F00202C20002051330020AA
:101B90002C1200207C200020F0B5C64600B50600BF
:101BA0000F001500984600240AE0335D9B00424672
:101BB000EA50305D80002818FFF7DEFE0134E4B201
:101BC000BC42F2D380BCB846F0BD0000031C6428C0
:101BD00000D96423014A13707047C0462A120020BE
:101BE000014B01221A7070473533002030B585B0A3
:101BF0001D4B1B78002B0FD10024132C09D80CF09F
:101C0000CDFEFF210AF06CF8184B19550134E4B2EF
:101C1000F3E7154B01221A7000241FE0134D2B5DD2
:101C2000134A1078C018FF210AF032F8C9B22955BA
:101C300002A80180FF23438083800023019301A930
:101C4000FFF706FE01A8FFF745FE0A48A300019A28
:101C50001A50C018FFF790FE0134E4B2132CDDD9FE
:101C6000FFF7BEFF05B030BD34330020A41F0020B5
:101C70002B1200207C20002070B5194B1B78002B04
:101C800012D1184B00221A70154B01321A70002421
:101C9000132C0DD80CF082FE06210AF021F8124B0D
:101CA00019550134E4B2F3E7104B1A78104B1A704F
:101CB000002410E00C4D2B5D5E339B000D4A9958BB
:101CC000A2000D4BD1500CF069FE06210AF008F875
:101CD00029550134E4B2132CECD9FFF781FF70BD14
:101CE000343300201A330020A01B00202F330020A3
:101CF0002E330020D01600207C20002030B583B089
:101D0000050000240CE0019501A8FFF7E3FD06485B
:101D1000A300019A1A50C018FFF72EFE0134E4B256
:101D2000132CF0D903B030BD7C20002010B5094839
:101D30000388094A12789B18FF2213400380074C3E
:101D40002100FFF785FD2068FFF7D8FFFFF748FF68
:101D500010BDC046241200202B120020A01F00201E
:101D600010B5104B1B78002B16D10F4B00221A70A8
:101D70000C4B01321A700C4C23785E339B000B4ADB
:101D80009858FFF7BBFF20780130062109F080FF4B
:101D90002170FFF725FF10BD054B1A78054B1A700F
:101DA000E9E7C046343300201A330020D016002063
:101DB0002F3300202E33002010B50F4B1B78002B43
:101DC00010D10E4B1B68002B02D10C4B0C4A1A6031
:101DD0000A4B1868FFF792FFFFF702FF064B01223C
:101DE0001A7010BD0020FFF789FFFFF7F9FE024BC4
:101DF00000221A70F5E7C0464D3300202420002051
:101E00000000FFE610B50C4B1868FFF777FFFFF7EF
:101E1000E7FE0A4A1378591C1170094A1278934256
:101E200001D2002010BD054B00221A70054B1A7814
:101E3000054B1A700120F5E72820002031330020DF
:101E400030330020323300202E33002070B50C00D8
:101E50000A2803D88000204B1B589F4601261F4D9F
:101E60001CE001261E4D19E001261E4D16E001263C
:101E70001D4D13E001261D4D10E001261C4D0DE007
:101E800001261C4D0AE001261B4D07E001261B4DD3
:101E900004E001261A4D01E004261A4D002A12D052
:101EA0002300194A31002800FFF776FE2300174A65
:101EB00031002800FFF770FE2300154A310028008A
:101EC000FFF76AFE70BD2300104A31002800FFF7BB
:101ED00063FEFFF785FEF5E7D81C0110581D0110C1
:101EE000441D0110501D0110401D0110481D01101E
:101EF000541D0110601D01105C1D0110381D0110E2
:101F00003C1D01104C1D01102C2000207C200020C5
:101F1000D41F002070B50C4B19682C220B480BF015
:101F200001FF00240CE0A300084DED182800FFF786
:101F3000D1FC296800222000FFF788FF0134E4B2B9
:101F40000A2CF0D970BDC046CC200020D020002043
:101F500010B5024B1860FFF7DDFF10BDCC2000204C
:101F600010B5074B1B78002B00D010BD0548FFF7BC
:101F7000EFFFFFF735FE024B01221A70F5E7C0466E
:101F80003433002078170020274AC8235B00D35C35
:101F9000834209D0002B03D19133FF330521D15463
:101FA000214AC8235B00D0541F4AC8235B00D25C7F
:101FB0001E4B1A701E4B1978052903D88B001D493A
:101FC000CB589F4615231C4A13701C4A1370704748
:101FD0001523194A1370194A1370F8E71523164A86
:101FE0001370164A1370F2E71523134A1370134A3D
:101FF0001370ECE7104B152119709300D218FA2AD0
:1020000000D9FA22D2B2D2430C4B1A70DFE70A4B46
:10201000152119709300D218FA2A00D9FA22D2B2E7
:10202000D243064B1A70D2E7D01600202B120020A4
:1020300033330020041D01102E3300202F330020E5
:1020400070B50C000BF004FB8A21C9050BF087FA70
:10205000051C20000BF0FCFA8A21C9050BF07FFA61
:10206000041C291C281C0BF09AFA051C211C201C9E
:102070000BF095FA011C281C0BF076FA0BF04EFBC6
:10208000E82189050BF08BFA041CFE2189050BF071
:10209000D5FA002801D0FE24A4050021201C0BF055
:1020A000B7FA002801D1201C70BD0024FBE7000016
:1020B00070B584B0FEF75EFF0400FEF757FF050021
:1020C00041680068FFF7BCFF061CE968A868FFF7D5
:1020D000B7FF051C784B1B78002B04D10133764ADF
:1020E0001370764A1370227863781B021343744A84
:1020F0001288934200D1C9E02378DB0600D58DE039
:1021000023789B0600D591E023785B0600D595E007
:102110000023E356002B00DA98E06378DB0600D555
:102120009CE063789B0600D5A0E02278D307DB0F04
:102130009107C90F0B435107C90F0B431207D20F69
:10214000134300D09AE0227863781B0213435C4A61
:1021500013800121A3785A4A9278934200D1A7E0D4
:1021600053409B0700D593E0A378554A927853409B
:10217000DB0700D594E0A278514B9A700022002131
:102180000920FFF763FE002200210A20FFF75EFE10
:10219000002200210820FFF759FE0022002107201D
:1021A000FFF754FE002200210620FFF74FFE002219
:1021B00000210320FFF74AFE002200210220FFF742
:1021C00045FE002200210520FFF740FE00220021ED
:1021D0000420FFF73BFEFFF703FD00230393394C78
:1021E000AC33E3580293321C02A903A8FFF71CFC8E
:1021F000010001220120FFF729FEA823E3580193E3
:102200002A1C01A903A8FFF70FFC010001220020EE
:10221000FFF71CFEFFF7F4FB04B070BD294ACC2386
:10222000D15801220920FFF711FE69E7254AD02382
:10223000D15801220A20FFF709FE65E7214AC82389
:10224000D15801220820FFF701FE61E71D4AC4238F
:10225000D15801220720FFF7F9FD5EE7194AC02394
:10226000D15801220620FFF7F1FD5AE7154AB423A1
:10227000D15801220320FFF7E9FD56E7114AB023A8
:10228000D15801220220FFF7E1FD5CE7002161E760
:102290000C4ABC23D15801220520FFF7D7FD63E784
:1022A000084AB823D15801220420FFF7CFFD62E786
:1022B000002900D191E761E7343300203833002052
:1022C0003C280020D0160020084B1970084B1978C4
:1022D000084A117015221A70074B1860074B084AFC
:1022E0001A60084B01221A707047C0463033002034
:1022F0002E3300203233002028200020D01F002061
:10230000051E00102D33002010B50B4B18700B4B21
:1023100000221A600A4B0A321A700A4B0B321A70EA
:10232000094B0A4A1A600A4B01221A700020FFF773
:10233000E5FCFFF755FC10BD37330020CC1F002013
:102340002E3300202F330020D01F0020E116001074
:102350002D33002070B582B004000D00274B1B7890
:10236000002B0CD0264B1C700023264A1370264AE3
:102370001370062C14D8A400244B1B599F46244EDE
:10238000244930000CF0DAFB0200002300931733DD
:1023900000213000FFF7B2F9184B01221A70E1E773
:1023A0001D4B1E4A1A601E4AC8235B00D05CFFF713
:1023B000EBFD002D1BDAFFF713FC02B070BD164BCE
:1023C000184A1A60EFE7144B174A1A60EBE7124BF2
:1023D000164A1A60E7E7104B154A1A60E3E70E4BFE
:1023E000144A1A60DFE70C4B134A1A60DBE7FF2D33
:1023F00000DDFF25E8B2FFF7E9FBDCE7363300201C
:102400003333002034330020383300201C1D0110EA
:1024100000002050641D0110CC1F0020611F00101F
:10242000D01600202D1D0010ED1B0010B91D00104E
:10243000611D0010791C0010B120001010B5034B75
:10244000186064210520FFF785FF10BD24200020BF
:1024500010B51A4B18601A4B1B68984208D2C31A61
:10246000013B184A934207D80023002B0AD110BD24
:10247000984205D9C31AF4E7114B18600123F4E719
:102480000023F2E7FFF72AFB002803D10E4B1B784D
:10249000002BECD00D4B1B78002B08D00C4B1B688D
:1024A00098470028E3D0094B00221A70DFE7094B58
:1024B0001B68002BDBD09847D9E7C046DC320020F0
:1024C000082D002019410000383300202D33002052
:1024D000D01F0020CC1F002030B585B003AA0D4BC3
:1024E0001B78137002AD2B700B4C012300936A21F3
:1024F00020000CF07BFE0023009301332A006A21A8
:1025000020000CF09EFE002802DD012005B030BD49
:102510000020FBE7EC2101104815002010B584B025
:102520000020FDF74AFF002407E0FEF727FDFA2010
:10253000800007F013FCFEF721FD002C11D103AA47
:102540000A4B13800023009302336A2108480CF0E1
:102550004DFE0400831CE8D0431CE8D1FEF70EFDBD
:10256000E5E7FEF70BFD04B010BDC04609410000D1
:102570004815002000B587B0232822D8C0B20538FE
:10258000C0B27F23184005AB04221A70587007F0C0
:10259000B5FC02000B1E21DBFA20000100211218FD
:1025A0004B41002B20DB002B22DB02920393002304
:1025B0000093023305AA6A2110480CF023FE07B0ED
:1025C00000BDAF235B00984200D9180028380A21CB
:1025D00009F05EFBC0B21F30C0B2D2E7084B094A17
:1025E0003F21094808F0CEF901225242074BDAE7B1
:1025F000034B044A3F21044808F0C4F94815002061
:10260000981B0110741D0110B41B0110FFFFFF7F08
:1026100030B585B003AA0F4B1B78137002AD2B7039
:102620000D4C012300936A2120000CF0DFFD0023F4
:10263000009301332A006A2120000CF002FE0230D0
:10264000012804D92878C007C00F05B030BD01208B
:10265000FBE7C046EC2101104815002010B5114BD6
:102660001860114B1B68984209D2C31A013BFA2229
:102670001202934207D20023002B0AD110BD9842C8
:1026800005D9C31AF3E7084B18600123F4E70023C8
:10269000F2E7FFF7BDFF054B18700028EED1FEF7FB
:1026A0007BFCEBE704330020302D002018330020A2
:1026B000072804D88000024B9C46604401607047A4
:1026C0000C80054010B5072802D90024200010BD59
:1026D0008000044B9C466044046800210520FFF7FD
:1026E000E7FFF3E70C80054010B501000520FFF778
:1026F000DFFF0120FFF708FE10BD10B50520FFF732
:10270000E1FF10BD10B5FEF781FF052801D002489A
:1027100010BD0248FCE7C0468C1D01107C1E011054
:1027200010B500200EF01CF910BD00000378013335
:102730000370044B1B785BB2052B01D00248704735
:102740000248FCE7EC120020CC1F0110042101100C
:10275000014B18607047C0462822002010B50400C5
:10276000002001F023FC052C2BD0062C1CD0012CC2
:1027700010D0012001F01AFC1748FFF7E9FF174BB2
:10278000174A1A60174B184A1A60184B1C700EF043
:10279000F3FC10BD6420FFF7DBFF104B144A1A60F6
:1027A000104B144A1A60F0E7012001F0FFFB1248B9
:1027B000FFF7CEFF094B114A1A600A4B0A4A1A600A
:1027C000E3E76420FFF7C4FF044B0D4A1A60054B92
:1027D0000C4A1A60D9E7C0464C1D00002422002094
:1027E000357700102C22002021270010EC12002049
:1027F00071810010212E0010DC050000958800106A
:10280000CD5F0010AD32001070B504000D00160051
:102810000120002140420DF017FC1D4B1B68642B6A
:102820000AD11C4B1B689847002804D01A4B1B6820
:1028300031002800984770BD184A1178184A146072
:10284000002914D1174A1268944214D2A21A013AEC
:10285000934214D9002916D00E4B1B6898470028C4
:10286000E9D00D4B1B68310028009847E3E70D4B7A
:102870001C600021EEE79442ECD9A21AE8E7094B6C
:102880001C600121E6E7054B00221A70D3E7C04621
:10289000282200202C220020242200204433002063
:1028A000E03200200C2D0020084B1B785BB2052B7A
:1028B00007D0062B07D0012B01D0054870470548EB
:1028C000FCE70548FAE70548F8E7C046EC120020A7
:1028D000E828011014200110F0200110D02F011061
:1028E000084B1B785BB2052B07D0062B07D0012BBA
:1028F00001D0054870470548FCE70548FAE7054858
:10290000F8E7C046EC120020A8280110E41F0110CF
:10291000C4200110A42F011000207047014B012298
:102920001A7070474433002070B504AC25882B4CD6
:10293000247864B2012C2BD0052C12D0002C00D0AE
:1029400070BD0029FCD1002AFAD11878102804D0D3
:102950002A00190001F07AF8F2E7981C00F0A8FDAF
:10296000EEE70029ECD1002AEAD11A78112A05D025
:10297000132AE5D11A480BF025FBE1E75B78002B21
:1029800004D018491848FEF7C6FAD9E70021F9E73C
:102990000029D5D1002AD3D11A78002AD0D15A786B
:1029A000082ACDD1DA78002A02D1197900290FD06E
:1029B0001B79101C9A4200D2181CC0B20AF043FEC8
:1029C0000A490AF0D6FD011C0748FEF7A4FAB7E74A
:1029D0000020011CFEF79FFAB2E7C046EC1200206F
:1029E000401F01106666263F0000C84200007F437A
:1029F000064B1B785BB2052B03D0062B03D1044892
:102A000070470448FCE70448FAE7C046EC1200208F
:102A1000E42F011058200110FC28011070B5EE2899
:102A200024D0002825D080001E4BC55828000EF069
:102A3000C9FFC0B21F2800D91F20002327E05A1C5D
:102A4000194CA15C0902E25C0A4344001749625236
:102A500002330130112BF2D9154A144B13CB13C298
:102A600011001A680A609B888B8019E000200023FF
:102A7000F0E70C4B196802220E480BF053F90120C5
:102A800007E05A1CEC5C5100094BCC52D3B298427F
:102A9000F7D801304000C0239B001843044B188036
:102AA000034870BD10120020841F01108C180020F4
:102AB000C01B0020C21B002000B591B04022694617
:102AC00000200EF0DBF900200EF0EEF9064B1B782B
:102AD0005BB2002B01D011B000BD04480BF042FAEC
:102AE000684604F0A9FFF6E7EC120020581F011019
:102AF000F0B583B005001400012966D113785B0698
:102B00009B0F012B58D0022B03D0002B01D00020AB
:102B10005CE06378022B24D0072B03D0012B19D063
:102B2000002053E0227963791B021343042B03D066
:102B3000052B08D0002049E02433264A2100280034
:102B40000DF0A6FB42E08D33234A210028000DF052
:102B50009FFB3BE03223214A210028000DF098FB27
:102B600034E0227963791B021343072B30D11C4BCD
:102B70001B785BB2052B0FD06B469F1D194E0222AE
:102B8000310038000BF0CEF83B883200083A2100C3
:102B900028000DF07DFB19E06B469F1D124E0222AE
:102BA000310038000BF0BEF83B883200083A2100B3
:102BB00028000DF06DFB09E051780C480BF002FA8B
:102BC000210028000DF048FB00E0012003B0F0BD1B
:102BD0000020FBE7C412002030120020981F0110D3
:102BE000EC120020D01D0110A81E0110701F011052
:102BF000012815D0022907D000290BD1022A29D09B
:102C0000002A29D006207047022A1FD0002A1FD090
:102C10000800F8E7022A21D0002A21D00820F2E794
:102C2000022907D000290BD1022A1FD0002A1FD069
:102C30000720E8E7022A15D0002A15D00320E2E792
:102C4000022AE0D0002A15D00020DCE70120DAE7D4
:102C50000320D8E70720D6E70520D4E70020D2E7F5
:102C60000420D0E71000CEE70420CCE70820CAE714
:102C70000620C8E70520C6E70120704710B584226A
:102C8000002102480BF048F810BDC0464C26002039
:102C900010B50020FFF7F2FF10BD0000F0B5C646EA
:102CA00000B580460D008B795D2B24D10B79DF00B8
:102CB000FF1ABFB21937BFB2974221D80C780C194E
:102CC000002605E0104A53700136F6B22378E41866
:102CD0002B79B34210D96378052BF7D121004046F8
:102CE0000CF0E0FE00280DD0A378DA09012AE9D023
:102CF000054A9370E8E70027380080BCB846F0BD6D
:102D00000027F9E70027F7E74C26002030B583B00D
:102D1000040014484078884206D0124A92788A42C9
:102D20000CD0012003B030BD0F4A002A18D09AB24F
:102D30000E490020FFF7F2FD0120F3E70C4D9BB296
:102D400000932B00002200210020FFF7EDFD2B0057
:102D5000443B997840232A0020000CF017FFE1E75C
:102D60000120DFE74C2600201D29001050260020FE
:102D70009026002010B50CF0F9FD002803D10023A7
:102D8000002B08D110BD0CF0F9FD002801D1012362
:102D9000F6E70023F4E70B4B997800200CF032FFA4
:102DA0000028EFD1074CA1780CF0C8FE2200443275
:102DB000A178402300200CF0E9FEA17800200CF05F
:102DC000D1FEDFE74C26002070B505000C000CF0AA
:102DD000D5FD002806D1812100200CF0AFFE00288F
:102DE00003D170BD0CF0D2FDF5E7231C402C00D9B7
:102DF00040239CB2094E2200290030000AF092FFC5
:102E0000351F69782300320000200CF0BFFE69787E
:102E100000200CF0A7FEFFF7ADFFE2E750260020F0
:102E200010B5104B5C780CF0A1FD002806D10023F2
:102E3000002B13D0002C09D1002010E00CF09EFDD7
:102E4000002801D10123F3E70023F1E7210000204E
:102E50000CF0D8FE002803D1013000E0002010BDA6
:102E60000020FCE74C26002010B53C22002102483F
:102E70000AF052FF10BDC0465C1C002010B50020B7
:102E8000FFF7F2FF10BD0000F0B583B006000F00A1
:102E90001500FEF7BBFB05284CD13B79DC00E41A9A
:102EA000A4B21234A4B2AC4248D80023002B09D0FB
:102EB0000025002D44D0397879184B78212B11D07A
:102EC000002438E01A01D21A92001F488218527862
:102ED000002A02D00133DBB2E8E71A01D11A8900D7
:102EE0004518E6E7A9630B78C9183A796B1C01937A
:102EF000AB1C0093032330000CF0EEFD002821D022
:102F0000BB79012B13D001232B71BB782B70AA6BDB
:102F1000D179137A1B020B43EB80A97800290AD0E0
:102F20002A003032062330000CF030FE03E0FB793B
:102F3000EB70E8E70024200003B0F0BD0024FAE7BE
:102F40000024F8E70024F6E75C1C002070B582B08E
:102F500005001D4C002000280AD0002830D16278DE
:102F60008A4213D0A2788A421AD0012002B070BDE2
:102F70000401241AA400144A1419A2788A42ECD03D
:102F800062788A42E9D00130C0B2E4E70F4A002AF1
:102F900018D0210008319AB2FFF7C0FC0120E5E704
:102FA000260030369BB20093330000220021FFF749
:102FB000BBFCA1780623320028000CF0E7FDD5E722
:102FC0000020D3E70120D1E75C1C00201D29001060
:102FD000F0B5C64600B582B00600150012781F2372
:102FE0001340012B00D01FE128790024002C0DD0C4
:102FF000FF24002C00D01CE12700602318001040A3
:10300000134239D101290BD001200EE123011B1BF2
:103010009B008E4FDB5D9842EBD00134E4B2E5E7D4
:10302000EA786B78062B06D0062B00D005E1222A21
:1030300012D00020F9E0212AF6D123011F1BBF0086
:10304000824BDF19BA6B002A00D1F4E01378290013
:1030500030000DF01DF9E8E02000FFF7C9FC020088
:103060003B01DF1BBF00794BDF19FB8829003000D3
:103070000DF00EF90120D8E0202800D0DFE06B78B9
:103080000B2B00D9DDE09B00714AD3589F460129E4
:1030900001D00120C9E0EA78A97823011B1B9B001D
:1030A00008336A4FFF18A879EB791B020343181CF9
:1030B000252B00D9252080B2002909D0012B16D953
:1030C0007B1C9C463970013880B20123984602E08F
:1030D000BC4600239846009063462000FFF71CFC86
:1030E000030043449BB2002B05D100209DE0BC4669
:1030F00000239846EFE73A00290030000DF0C8F8A9
:10310000012092E0012903D0032915D001208CE091
:10311000AA79EB791B021343062B01D9002084E026
:103120002201121B9200303248498A1829003000CF
:103130000DF0AEF8012078E0EA78A97823011B1B96
:103140009B0030334148C318AE79E8790002304320
:10315000051C062800D90625ADB2002904D0012897
:1031600002D91878884205D000952000FFF7DCFBD3
:1031700001205AE00133013DADB2F5E7012901D04C
:10318000012052E0E97823011F1BBF002F4BDF19FC
:103190007971304B002B04D0200000E000BF0028E4
:1031A00043D0290030000DF057F801203DE00129FF
:1031B00001D0012039E02201171BBF00234AD21998
:1031C00005320123290030000DF062F801202CE0C7
:1031D000012901D0012028E02201171BBF001B4A52
:1031E000D21904320123290030000DF051F80120DA
:1031F0001BE0012903D0032907D0012015E0290095
:1032000030000DF029F801200FE0A97823011F1BE1
:10321000BF000E4BDF1939710F4B002B13D020006C
:1032200000E000BF012000E0002002B080BCB846F2
:10323000F0BD0020F9E70020F7E70020F5E70020C7
:10324000F3E70020F1E70120EFE7C0465C1C002017
:1032500028200110000000000000000010B503014C
:10326000181A8000104B181844780CF07FFB0028C7
:1032700006D10023002B13D0002C09D1002010E030
:103280000CF07CFB002801D10123F3E70023F1E7D8
:10329000210000200CF0B6FC002803D1013000E032
:1032A000002010BD0020FCE75C1C002010B50020B1
:1032B000FFF7D4FF10BD0000F8B504000F001600A2
:1032C0001D0003011B1A9B001F4AD31859780020C8
:1032D0000CF034FC002825D0002F24D02B1C242DEA
:1032E00000D924239DB2184A2301191B89005118C3
:1032F0000F721B1B9B000833D01801302A003100CD
:103300000AF010FD0135ADB20F4B2001021B9200F7
:1033100008329A18001B8000181841782B000020F2
:103320000CF034FCF8BD2B1C252D00D925239DB2B3
:103330002001001B80000830034B18182A003100C0
:103340000AF0F0FCE0E7C0465C1C002010B513005A
:103350000A0001000020FFF7AFFF10BD107003123C
:103360000F20184050700B011843507009119170D4
:103370007047000070B5124D802424012A002100FE
:103380002000FFF7EBFFEA1C21002000FFF7E6FF1B
:10339000AA1D21002000FFF7E1FF2A0009322100C9
:1033A0002000FFF7DBFF2A000C3221002000FFF78E
:1033B000D5FF2A000F3221002000FFF7CFFF70BD9C
:1033C000B432002010B54022002102480AF0A4FCCB
:1033D00010BDC04668210020014B18707047C046E0
:1033E00040330020014B18737047C046682100200D
:1033F000014B58737047C04668210020074A0021DE
:10340000535E107806490870023399B21BB21380DC
:10341000FF2B01DDFF3911807047C0460E330020BD
:1034200068210020024B1A78024B5A707047C04640
:10343000AC23011068210020054B03229A73482118
:10344000D9731A74013A5A74473919765A76704703
:103450006821002010B5C4B2000A002307E019005B
:103460000E31044A5454013150540233DBB20D2B57
:10347000F5D910BD6821002030B5C4780325455723
:10348000437808211940012293437E322240012BC8
:1034900001D9002907D0402A07D9002D01DB0120DE
:1034A00004E0002002E0012000E0002030BD000028
:1034B00070B50400FFF7E0FF002839D065780123DC
:1034C0009D436D08E2787F20104040384000C2B232
:1034D000A0788038434258418018C0B20AF0B3F84F
:1034E00016490AF046F88021C9050AF085FA061C3B
:1034F00028000AF0A8F811490AF03BF8FC218905D8
:103500000AF07AFA041C011C301C0AF097F8002813
:1035100000D0341CFE218905201C0AF087F8002801
:1035200001D0FE24A405211C0448FDF7F4FC70BD65
:103530000020011CFDF7EFFCF9E7C0460000C8427F
:103540000A4B01221A7000225A7003329A70084AFC
:10355000117AD970D179197191795971517999711B
:103560001179D971D2781A727047C046682100204B
:10357000D016002010B50400FFF724FF8120FFF7CC
:103580002BFF012C0DD0210009480AF01BFD094B2F
:103590001C70094B19784023064A00200DF008FAE8
:1035A00010BD06480AF00EFDFFF7CAFFF1E7C0465E
:1035B0003421011068210020403300201C2101101B
:1035C00070B586B06C462A4B0433220070CB70C2B3
:1035D00070CB70C2022837D0032841D000230025C9
:1035E00000E00133052B10D8224AD2182D32FF32C9
:1035F00014780522D21A885C8442F2D01D4AD2186F
:103600002D32FF3210700125EBE7002D19D18120FA
:10361000FFF7E8FE184801238373164B1A7AC2732A
:10362000DA7902749A7942745A7982741A79C27476
:10363000DB7803751530182269460AF073FB06B073
:1036400070BDFDF759FFE2E78120FFF7CBFE0A4886
:10365000022383730F30102208490AF063FBEEE760
:103660008120FFF7BFFE044B03229A73E7E7C046B1
:10367000AC230110D016002068210020E821002092
:1036800070B504000E001500FFF79CFE2120FFF727
:10369000A3FEFFF7B3FEFFF7C5FE2000FFF7A8FE6D
:1036A0005D480AF08FFC482C00D98DE0A3005B4AEE
:1036B000D3589F465A480AF055FC8020FFF792FEE7
:1036C00058480AF07FFC00249AE0F17A56480AF044
:1036D00079FCF07A431E9841C0B200F067FC80206C
:1036E000FFF780FEECE751480AF03CFC31000C315A
:1036F000F07AFFF765FFE3E7F17A4D480AF062FCE4
:103700008020FFF76FFEF27A4A4B1A70D8E74A48DA
:103710000AF028FC8220FFF765FEFFF78DFECFE759
:10372000F17A46480AF04EFC8020FFF75BFEC7E7BF
:10373000317BF27AF37B42480AF044FC9020FFF799
:1037400051FEF27BF17A307B00F062FAB8E7FEF7C7
:10375000E5FEB5E7317BF27AF37B3A480AF032FCBA
:103760008020FFF73FFEABE737480AF0FBFB8320E2
:10377000FFF738FE6420FFF76DFEA1E733480AF03B
:10378000F1FB8020FFF72EFE9AE731480AF01AFC81
:103790008020FFF727FEF27A0F231340072B0BD070
:1037A0000F2B0DD0032B03D02A480AF0DBFB87E751
:1037B00029480AF0D7FB83E728480AF0D3FB7FE7C4
:1037C00027480AF0CFFB7BE7210026480AF0FAFBE6
:1037D000002405E0315D24480AF0F4FB0134A4B272
:1037E000AC42F7D30A200AF09FFB8020FFF7FAFDD6
:1037F00066E71E4B195D1C480AF0E4FB0134E4B295
:103800001F2CF6D90A200AF08FFB4023174A2121EA
:1038100000200DF0CDF870BD502101107422011070
:10382000582101106C22011068210110782101102B
:1038300088210110F0120020A0210110B4210110F4
:10384000C8210110F02101101822011028220110B6
:103850003C220110784401104C4701104C22011009
:10386000502201105422011064220110682100200E
:1038700070B50C001500102811D0802813D0012835
:1038800004D001000A480AF09DFB07E0881CFFF7FE
:103890000FFEA07A2A002100FFF7F2FE70BD881CFF
:1038A000FFF706FEFAE74878FFF764FEF6E7C04642
:1038B00098230110094B1B780A2B07D00B2B09D03A
:1038C000064B0A221A70054B18787047034B0B22DF
:1038D0001A70F8E7014B0C221A70F4E7F11200207D
:1038E00070B50500524B1B78002B04D1514B1B784F
:1038F000302B0BD070BD504B1A88504B1878504964
:10390000FFF7B6FF4A4B00221A70F3E7FFF75AFDA4
:103910003020FFF761FDFFF771FDFFF783FD00F039
:10392000EBF98378474C2373C37863730378A373ED
:103930004378E3730379237443796374037AA3743C
:10394000437AE37483792375C3796375837AA375A6
:10395000C37AE37500F0D0F983782376C378637671
:103960000378A3764378E376037923774379637703
:10397000037AA377437AE37782792023E254C279EA
:103980000133E254827A0133E254C27A0133E254C1
:1039900000F0B2F982782423E254C2780133E25471
:1039A00002780133E25442780133E2540279013360
:1039B000E25442790133E254027A0133E254427A0A
:1039C0000133E25482790133E254C2790133E25483
:1039D000827A0133E254C27A0133E2542B78A37025
:1039E0006B78E370AB782371EB7863712B790F21DF
:1039F0000B40A3716879AB791B0203431B11E37180
:103A0000EB7923722B7A19406172697AAB7A1B02C7
:103A10000B431B11A372FFF74DFFE0720A4B19789D
:103A20004023220000200CF0C3FF02F0B3F861E74E
:103A300041330020F0120020EE120020423300201B
:103A4000A8210020682100204033002010B5054B3C
:103A500001241C70044B1870044B1A8004480AF0AF
:103A600061F910BD4133002042330020EE120020E6
:103A7000A821002010B5024B18180AF053F910BD08
:103A800068210020502800D1B0E003D960282FD051
:103A9000FF2010E0402800D9AAE0202805D34B29B8
:103AA00024D88B00564AD3589F46002803D01028AC
:103AB00000D09FE0002070479520FCE70020FAE747
:103AC0002A39504B59182D31FF310878F3E7043962
:103AD0004C4B59182D31FF310878ECE70020EAE70C
:103AE0000020E8E76820E6E70020E4E70020E2E7BE
:103AF000A92979D88B00444AD3589F46FF20DAE79A
:103B00000220D8E70120D6E72320D4E70020D2E71F
:103B1000B920D0E71A20CEE70120CCE70020CAE781
:103B20004020C8E70020C6E74020C4E70020C2E7E5
:103B30004020C0E70120BEE70020BCE70120BAE733
:103B40000020B8E70120B6E70020B4E73B20B2E749
:103B50003420B0E73B20AEE73420ACE73B20AAE7B7
:103B60003420A8E73D39294B585CA4E73D39274B61
:103B7000585CA0E71A209EE71A209CE71A209AE7D3
:103B80005E2098E7012096E7502094E7FD2092E719
:103B9000002090E700208EE7C6208CE70F208AE700
:103BA0000F2088E7302086E7612084E7AE2082E797
:103BB000902080E7D9207EE7D4207CE714207AE7A4
:103BC000542078E7412076E7152074E7542072E707
:103BD000C72070E779206EE79C206CE733206AE706
:103BE000362068E7632066E7002064E7002062E78C
:103BF000FF2060E7FF205EE722205CE703205AE712
:103C0000C8230110D0160020F8240110B43200207F
:103C1000F0B58BB006000F00150008A90F704870B2
:103C200000248C70CC700A7105220E20FFF722FF51
:103C300000941A22002101A80AF06EF807E0391951
:103C4000C9B23000FFF71EFF6B4618550134A5427C
:103C5000F5DC2A0069461320FFF70CFF0BB0F0BD1E
:103C6000F8B50400204921480DF026FF0028F9D0BE
:103C70001F4D2B68581C032108F00AF8277862783A
:103C800012021C4E4800401883005B183A43F2545D
:103C9000120AF3185A70A078E278120202439A705E
:103CA000120ADA7020796279120202431A71120A3A
:103CB0005A71A079E279120202439A71120ADA71FA
:103CC000207A627A120202431A72120A5A72A07A97
:103CD000E27A120202439A72120ADA7229600348E7
:103CE0000DF0BAFEF8BDC046141E0020801500205D
:103CF000101E0020E81D002010B5094909480DF0EC
:103D0000DBFE0028F9D0084B1C6806480DF0A4FE25
:103D10006000001980000019044B181810BDC0463F
:103D2000181E002080150020101E0020E81D002015
:103D30004118CB0F5B185B1080225202914204DACB
:103D4000044A914203DB18B270470348FCE703487A
:103D5000FAE7C046FFFFFEFFFF7F00000080FFFF85
:103D600070B52848FEF76AFB274D0622002128007F
:103D700009F0D2FFA81D0622002109F0CDFF234B38
:103D800001221A70224BFA2292011A60214B002262
:103D90001A70214E214C31002000FCF74FFE002309
:103DA000E25E9C3D9C23EA540223E25E9D23EA549A
:103DB0000423E25E9E23EA540623E25E9F23EA5434
:103DC0000823E25EA023EA540A23E25EA123EA5418
:103DD0000023F25EA223EA540223F25EA323EA54F4
:103DE0000423F25EA423EA540623F25EA523EA54D8
:103DF0000823F25EA623EA540A23F25EA723EA54BC
:103E000070BDC0460000FFFF6C1700202433002067
:103E1000E41D002025330020D41D0020B41D002007
:103E200010B5084ABA235B00D05C01214942FEF775
:103E300091FAFDF75BFBFDF75FFB034B00221A7065
:103E400010BDC046D016002024330020F8B55249DA
:103E50005248FCF7F3FD524B1B78002B00D160E079
:103E6000504C9C254D4E0023F15E6057FFF760FFDC
:103E7000605501350223F15E6057FFF759FF605529
:103E800001350423F15E6057FFF752FF605501359D
:103E90000623F15E6057FFF74BFF6055013508239D
:103EA000F15E6057FFF744FF605501350A23F15E6C
:103EB0006057FFF73DFF6055A227374D0023E95EAD
:103EC000E057FFF735FFE05501370223E95EE05781
:103ED000FFF72EFFE05501370423E95EE057FFF7B7
:103EE00027FFE05501370623E95EE057FFF720FF83
:103EF000E05501370823E95EE057FFF719FFE05569
:103F000001370A23E95EE057FFF712FFE05500236F
:103F100033732B73244A1368013B1360002B37D093
:103F2000F8BD1E4A0023D05E1E4B9C21585402212E
:103F3000505E9D2158540421505E9E215854062104
:103F4000505E9F2158540821505EA02158540A21E8
:103F5000515EA1229954104A0021505EA22158546A
:103F60000221505EA32158540421505EA4215854CC
:103F70000621505EA52158540821505EA6215854B0
:103F80000A21515EA7229954054BA63A1A70C7E739
:103F9000FFF746FFC4E7C046D41D0020B41D002033
:103FA00025330020D0160020E41D0020014B18709E
:103FB0007047C04626330020F8B54F4B1B78002BC6
:103FC00004D14E4A1178002903D1F8BDFFF73EFF16
:103FD000FBE74B4A10604B4A126890421ED2821A8D
:103FE000013AFA24E400A2421CD2002BEDD0464C48
:103FF00021004648FCF722FD237B002B03D0434BD6
:104000001B7B002B12D1414B1B7B002B00D06FE0A0
:1040100000233E4A13733C4A1373D6E79042E4D917
:10402000821ADEE7374B18600B00DEE7374FF8885F
:10403000374C9F23E3569BB2C01A334EF188A52319
:10404000E3569BB2C91A09B200B2FFF771FE314DB7
:10405000E8803889A023E3569BB2C01A3189A62391
:10406000E3569BB2C91A09B200B2FFF761FE28817C
:104070007889A123E3569BB2C01A7189A723E3561E
:104080009BB2C91A09B200B2FFF752FE68813888A4
:104090009C23E3569BB2C01A3188A223E3569BB2FD
:1040A000C91A09B200B2FFF743FE288078889D2321
:1040B000E3569BB2C01A7188A323E3569BB2C91A78
:1040C00009B200B2FFF734FE6880B8889E23E35639
:1040D0009BB2C01AB188A423E3569BB2C91A09B295
:1040E00000B2FFF725FEA8802800FFF7B9FD8FE793
:1040F0000648FFF7B5FD8BE7243300202633002068
:10410000E4320020102D0020D41D0020B41D00201A
:10411000D0160020C41D002010B5C3B2052B03D853
:1041200083002D4CE3589F462C4B0B6008331360E3
:104130002B4B5B7A092B1BD0022827D0052834D0C3
:1041400001281DD0012222E0264B0B6008331360AA
:10415000EEE7254B0B6008331360E9E7234B0B6058
:1041600008331360E4E7224B0B6008331360DFE78A
:10417000022807D0052807D00128DDD1012206E05A
:10418000002204E0012202E0012200E00022194B9B
:104190001A70134BDB7A0B2B09D0022815D0052897
:1041A00017D001280BD0012210E00022EFE70228EF
:1041B00007D0052807D00128EFD1012206E0002210
:1041C00004E0012202E0012200E000220A4B1A7002
:1041D00010BD0022FAE7C046A0270110A817002052
:1041E000B81F0020C8170020B8170020D8170020DB
:1041F000E8170020273300202B33002030B50F2292
:104200000D780F231D40047894432C4304704C78A0
:104210001C40250104781C402C4304708D781D40FF
:10422000447894432C434470CC781C402501447856
:104230001C402C4344700D791D40847894432C43DA
:1042400084704C791C40250184781C402C43847078
:104250008D791D40C47894432C43C470CC791C40A4
:104260002501C4781C402C43C4700D7A1D4004798C
:1042700094432C4304714C7A1C40250104791C4062
:104280002C4304718D7A1D40447994432C4344712E
:10429000CC7A1C40250144791C402C4344710D7B91
:1042A0001D40847994432C4384714C7B1C40250130
:1042B00084791C402C4384718D7B1D40C4799443C8
:1042C00022002A43C271CA7B1A401201C1790B40F5
:1042D0001343C37130BD0B781B071B0F03700B78A2
:1042E0001B0943704B781B071B0F83704B781B090E
:1042F000C3708B781B071B0F03718B781B094371ED
:10430000CB781B071B0F8371CB781B09C3710B790B
:104310001B071B0F03720B791B0943724B791B0799
:104320001B0F83724B791B09C3728B791B071B0F01
:1043300003738B791B094373CB791B071B0F8373A3
:10434000CB791B09C373704770B50400144D154A2F
:104350002900FFF7E1FE2B68134A116852681960C3
:104360005A60032C12D0042C15D0022C09D00D4B0E
:104370001B6800221A800A4B19680C48FFF7ABFF34
:1043800070BD084B1B680A4A1A80F4E7054B1B688E
:10439000084A1A80EFE7034B1B68074A1A80EAE7CE
:1043A000C81F002020220020F8270110B81F00207D
:1043B00000E1FFFF00C0FFFF00CAFFFF10B5084B80
:1043C0001960084B1A60084B1870084C084A210005
:1043D000FFF7A2FE21680748FFF77DFF10BDC0462A
:1043E000F0180020F41800202C330020C81F0020F3
:1043F00020220020B81F0020024A94235B00D054E2
:104400007047C046D016002010B5044B00221A7029
:10441000034B19680348FFF75EFF10BD15330020FA
:10442000C81F0020B81F002070B590B00500364CA2
:10443000364E22003100FFF76FFE31683448FFF737
:104440004AFFFFF7E1FF002300933C22002101A86F
:1044500009F062FCA6236A461370557033681A7817
:104460001207120F69468A701A781209CA705A78B0
:104470001207120F0A715A7812094A719A781207B4
:10448000120F8A719A781209CA71DA781207120F1C
:104490000A72DA7812094A721A791207120F8A72AE
:1044A0001A791209CA725A791207120F0A735A79C5
:1044B00012094A739A791207120F8A739A791209AC
:1044C000CA73DA791207120F0A74DB791B094B746D
:1044D000226813881B0A8B741388CB740D4B9422AB
:1044E00052009A5C0A75952252009B5C4B75002025
:1044F00003F0E2F900200CF007FD4022694600209D
:104500000CF0E4FC10B070BD14220020102200203A
:1045100000220020D016002070B50A0000210F29CB
:1045200037D803000B41DB0714D40131C9B2F6E7D9
:104530000133DBB20F2B0FD82A4AD05C2A4A1278FB
:104540009042F5D1294A14680120984022880243FC
:104550002280EDE70023EDE7224C234803786354E3
:10456000224B1D6801228A402B8893432B800278BE
:104570001F4809F027FD1F4B00221A701E4B1868B8
:104580002100FFF73BFE1D4B00201856FFF74CFFA4
:1045900070BD002AFCD0002401E00134E4B20F2CED
:1045A00014D8104B1A5D104B1B789A42F5D121009C
:1045B000134809F007FD0D4B19680122A2400B8832
:1045C00013430B800B4B00221A70E6E70A4B186866
:1045D0000449FFF713FE094B00201856FFF724FF8C
:1045E000D6E7C04600220020143300201422002009
:1045F000B82701101533002010220020433300207B
:10460000D427011070B504000D00084E084A31008F
:10461000FFF782FD31680748FFF75DFE064B1C700F
:10462000064B1D70064B01221A7070BD102200202F
:1046300014220020002200204333002014330020E5
:104640001533002070B5EA4B1A68002111705170C3
:104650001B6800229A70E74B1B78002B12D0E64BA8
:104660001A6893789B07D90F002B03DA93780220FE
:1046700083439370E04B1B681A785878000210430C
:10468000FFF74AFF01F09CFC002818D0DA4B1868AD
:10469000827801218A438270186882780224A243BA
:1046A0008270186842780E34A243427018684278CB
:1046B0001034A24342701A6813788B431370CC4BAA
:1046C000196808784B781B0203431BB2CB4A126867
:1046D0005278D20600D574E1C74A12685278D206E1
:1046E000D20FC748007B824012B213439AB2FF2018
:1046F00003400B70120A4A70BD4B196808784B785A
:104700001B0203431BB2BD4A12685278920600D5C1
:1047100059E1B94A126852789206D20FB848407BE4
:10472000824012B213439AB2FF2003400B70120A68
:104730004A70AF490868B04C23689B789B07DB0F31
:104740005B0082780225AA431343837008682368BC
:104750009B78DB07DA0F83780124A343134383702C
:10476000096808784B781B0203431BB2A34A1268FE
:104770001278D20700D528E19F4A12681278D20732
:10478000D20F9F480078824012B213439AB2FF20A2
:1047900003400B70120A4A70954B196808784B78E1
:1047A0001B0203431BB2954A12681278920700D588
:1047B0000DE1914A126812789207D20F9048407822
:1047C000824012B213439AB2FF2003400B70120AC8
:1047D0004A70874B196808784B781B0203431BB259
:1047E000864A12681278520700D5F2E0824A1268AF
:1047F00012785207D20F82488078824012B2134357
:104800009AB2FF2003400B70120A4A70784B196865
:1048100008784B781B0203431BB2784A126812785F
:10482000120700D5D7E0744A126812781207D20F27
:104830007348C078824012B213439AB2FF200340FB
:104840000B70120A4A706A4B196808784B781B0281
:1048500003431BB2694A12681278D20600D5BCE045
:10486000654A12681278D206D20F654800798240F4
:1048700012B213439AB2FF2003400B70120A4A701F
:104880005B4B196808784B781B0203431BB25B4AE9
:1048900012681278920600D5A1E0574A1268127881
:1048A0009206D20F56484079824012B213439AB210
:1048B000FF2003400B70120A4A704D4B19680878AC
:1048C0004B781B0203431BB24C4A12681278520603
:1048D00000D586E0484A126812785206D20F48483E
:1048E0008079824012B213439AB2FF2003400B70CA
:1048F000120A4A703E4B196808784B781B02034332
:104900001BB23E4A12681278D2096CD13A4A126838
:104910001278D2093A48C079824012B213439AB24F
:10492000FF2003400B70120A4A70314B1968087857
:104930004B781B0203431BB2304A12685278D207ED
:1049400053D42D4A12685278D207D20F2C48007ADD
:10495000824012B213439AB2FF2003400B70120A36
:104960004A70234B196808784B781B0203431BB22B
:10497000224A12685278520746D41F4A1268527867
:104980005207D20F1E48807A824012B213439AB265
:10499000FF2003400B70120A4A701A4B1B78002B41
:1049A00041D1154B1A6853789B072FD4D3781179CE
:1049B0000902194350790004014393791B060B4304
:1049C00026E0002291E60022ACE60022DDE600228D
:1049D000F8E6002213E700222EE7002249E7002232
:1049E00064E700227FE7002298E70022B2E7C04692
:1049F000F418002015330020F01800202022002099
:104A0000B81F0020273300200022BFE7FF231B012F
:104A10006C4A1168CA1CCB70190A5170190C91703C
:104A20001B0ED3701AE0684B19684B789B07DB0F9D
:104A3000C8780C79240204434A7912041443887913
:104A40000006204301222C2800DC0022D2B21A43A7
:104A500052004B780220834313434B705B4B1B780F
:104A6000002B1CD1584B1A6853781B070AD4D379F2
:104A7000117A09021943507A00040143937A1B0604
:104A80000B4301E0FF231B014E4A1168CA1DCB7185
:104A9000190A5170190C91701B0ED3701AE04A4B11
:104AA00019684B781B07DB0FC8790C7A2402044382
:104AB0004A7A12041443887A0006204301222C28E3
:104AC00000DC0022D2B21A43D2004B780820834384
:104AD00013434B703B4B196808784B781B02034318
:104AE0001BB23B4A12685278920763D4364A126866
:104AF00052789207D20F3748407A824012B213435D
:104B00009AB2FF2003400B70120A4A702D4B1968AD
:104B100008784B781B0203431BB22D4A1268527867
:104B2000120749D4284A126852781207D20F29482E
:104B3000C07A824012B213439AB2FF2003400B7036
:104B4000120A4A701F4B196808784B781B020343FE
:104B50001BB21F4A1268527852062FD41A4A1268A2
:104B600052785206D20F1B48807B824012B2134308
:104B70009AB2FF2003400B70120A4A70114B196859
:104B800008784B781B0203431BB2114A1268527813
:104B9000D20915D10C4A12685278D2090D48C07B4F
:104BA000824012B213439AB2FF2003400B70120AE4
:104BB0004A7070BD0022A2E70022BCE70022D6E7BF
:104BC0000022EFE7F4180020F01800202B3300201B
:104BD00020220020B81F0020F0B5DE4657464E4682
:104BE0004546E0B583B005000C00AC23CB5C002B40
:104BF0002FD0B823CB5C9B005B589846AE23E35C78
:104C0000002B2CD0B023E65C013EF6B2E6547B4B81
:104C1000E818C317C018584080231B019D421CDAB6
:104C200001277F4208F014FDB423E15808F0B7FCD7
:104C300008F030FD4743B823E35C8022120194461C
:104C400067449B001F51002E0DD1AE230022E25479
:104C500009E080231B019846D0E70127E2E7B8234B
:104C6000E35C9B001D51AD23E35C002B14D0634B30
:104C7000EB18DA179B1853409946AF23E65C0136D0
:104C8000F6B2E654282E02D85D4B994512DD00237A
:104C9000AF22A354023AA354A423E358AB4200DC4E
:104CA000A0E080221201954272DA934200DB97E085
:104CB00000236EE0A823E0584B461933984263DD89
:104CC000FA2861DD08F0C4FC011C4E4808F051FCD4
:104CD0000190B923E75C00239B461AE001239A4622
:104CE00008F0B6FC019908F05AFC08F0D3FC5346D2
:104CF0004343180080231B019C466044BB001851AD
:104D0000781C292106F0C4FF0F005B460133DBB29B
:104D10009B465E450ED9BB001B59384A9818C217EE
:104D200080185040802212019342D7DA01235B425F
:104D30009A46D5E780231B019D4223DA01277F4253
:104D4000484608F085FC019B9946191C08F027FC91
:104D500008F0A0FC7843B823E35C8022120194465B
:104D600060449B001851B4234A46E2500023AD2210
:104D7000A35401320121A15404360232A654013A4F
:104D8000A35489E70127DBE7A8234A46E25083E7DB
:104D90000023002B0DD00123AD22A3540332A354D2
:104DA000013AA354A7330022E2501033E25C0133EE
:104DB000E254A423E550B825605D0130292106F0B6
:104DC00067FFC9B26155002902D1AC230122E25428
:104DD000404603B0F0BCBB46B246A946A046F0BD73
:104DE0000123D6E780221201934203DA954203DAC7
:104DF0000023CEE70023CCE70123CAE700F8FFFF3A
:104E00003907000000007A4370B50D0014000D4A08
:104E10001368C31A0C490B6010600C492868FFF72F
:104E2000DBFE20600A496868FFF7D6FE606009492A
:104E3000A868FFF7D1FEA060E8680749FFF7CCFE3D
:104E4000E06070BD002D0020E0260020482D0020ED
:104E5000042E0020202F0020DC2F002010B5001190
:104E6000084A1378991C084C60540133DBB2137064
:104E70003D2B01D8002010BD130000221A70012024
:104E8000F9E7C046233300201821002010B5444B19
:104E90001860444B1B6898421ED2C31A013BFA2289
:104EA000920093421CD20023002B26D03E4B1B784D
:104EB000002B1BD13D4B1B78002B66D10B68C93BE7
:104EC0003B4A934235D93B4B1960384B01221A704B
:104ED000394B00221A7010E0984205D9C31ADEE758
:104EE000304B18600123DFE70023DDE7314B1B68FF
:104EF0001868FFF7B3FF002800D110BD2F4BA52283
:104F00001A702D4A12785A70FA20000102F0D4FC6F
:104F1000002805D10023244A1370244A1370ECE7BB
:104F20004022264900200BF0D1FF00200BF0ECFFBF
:104F3000F0E74B68C93B1E4A934208D904311D4B28
:104F400019600123194A13701B4A1370D5E78B6847
:104F5000C93B174A934209D90831164B1960134BC4
:104F600001221A70144B01321A70C6E7CB68C93B94
:104F70000F4A9342C1D90C310E4B19600B4B0122E1
:104F80001A700D4B02321A70B7E70A4B1B681B6888
:104F9000C93B074A9342B0D8034B01221A70ACE7D1
:104FA000E8320020142D0020173300201F3300208A
:104FB0006D0E0000A83100203D3300201821002094
:104FC00070B5041C0D000B78002B0AD0CE68011CB4
:104FD000301C08F02BFB002804D06868211C08F066
:104FE000DEFA70BD311C201C08F0B9FAA96808F07F
:104FF000D6FA024908F0B8FAF3E7C0460000B44117
:1050000070B508F0ACFA4000400808F07DFB0400E1
:105010000D0002000B000020054907F0A8F802006F
:105020000B00200029000CF06FFD07F095F970BD12
:105030000080764070B5061C0C1C151C111C201C31
:1050400008F0ECFA00280FD0311C201C08F0E6FA1A
:10505000002807D0311C281C08F0E8FA002802D0EC
:10506000012000E0002070BD311C201C08F0D6FAA1
:10507000002807D1311C281C08F0D8FA002803D0DA
:105080000120F0E70120EEE70020ECE7F8B5071C6F
:105090000E000024002503E0002206E00134E4B203
:1050A000072C0DD8062CF7D8621CA3009200B2582A
:1050B000F158381CFFF7BEFF0028EFD02500EDE7C0
:1050C0002800F8BD10B508F01FFB0022104B07F0B8
:1050D00099FA07F041F9041C002108F099FA002818
:1050E0000FD1201C08F010FB00220A4B07F051F8EA
:1050F00007F0F6F8C217520F801807231840801ADD
:1051000010BD0549201C08F02FFA041CE9E7C04631
:1051100000807640008046400000B44310B508F09F
:1051200023FA041C0B4908F089FA002806D0094923
:10513000201C08F014FA041C201C10BD0021201CA7
:1051400008F066FA0028F7D00249201C08F00CFA93
:10515000041CF1E70000B44370B5CD1A801A08F0C2
:1051600077FA041C280008F073FA211C08F0E8FA0A
:10517000114908F014FA08F0C7FA104A104B07F06A
:1051800008F807F0E9F8041C002108F041FA0028AB
:105190000BD10C49201C08F049FA00280AD0094913
:1051A000201C08F0DCF9041C04E00649201C08F06F
:1051B000DBF9041C201C70BD00003443182D44543E
:1051C000FB2109400000B443F8B50C0017001E0095
:1051D00008F03EFA051C380008F03AFA011C281CB9
:1051E00008F0BDF9051C200008F032FA041C30005C
:1051F00008F02EFA011C201C08F0B1F9041C291C2F
:10520000281C08F0CCF9051C211C201C08F0C7F94B
:10521000011C281C08F0A8F908F080FAF8BD00006D
:10522000F8B50F00160008F06FFA0B4A0B4B06F0AA
:10523000CEFF07F091F808F067FA04000D0007F0C0
:10524000A1F807F089F838602000290007F0B0F8CD
:1052500007F082F83060F8BD399D52A246DF913FD9
:10526000F0B5DE4657464E464546E0B583B080462B
:105270008B4615001F001100FFF708FF04000628E9
:1052800000DD86E0461CA3009946EB589A46B6001E
:10529000A959181CFFF7B4FE051C51464046FFF7FC
:1052A000AFFE8046291C08F064F9051C4B46FB58EC
:1052B0009A46011CFE20800508F051F9011C504659
:1052C00008F06DF98246B859291C08F068F9011CEC
:1052D000504608F049F9051C0C9B4A46985841462F
:1052E00008F05DF9031C22010D9989180D98825C64
:1052F000002A03D0181CFFF763FE031CA400284AF1
:10530000A058191CFFF70AFF0023019300936A4677
:1053100001A9FFF785FF5946281C08F040F9051C34
:10532000019908F03CF9041C0190291C009808F030
:1053300036F900908A21C905201C08F015F908F0FB
:105340003BFB08F0A7F9002825DB80235B0198428E
:1053500000DB144808F07CF90E9B18608A21C9050F
:10536000009808F001F908F027FB08F093F90028ED
:1053700013DB80235B01984200DB0A4808F068F9E0
:105380000F9B186003B0F0BCBB46B246A946A046CE
:10539000F0BD002677E70020DEE70020F0E7C046FA
:1053A00000280110FF0F0000F8B507000E000024D0
:1053B0000DE0A5000749785908F0D1F8011C7519CE
:1053C0008A20C00508F0D5F828600134E4B2072C23
:1053D000EFD9F8BD00005C42F8B505000E000024CE
:1053E0000DE00023A7009B00E958E859FFF708FEED
:1053F000011C064808F0BDF8F0510134E4B2072C56
:1054000003D8062CEDD8631CECE7F8BD000034424D
:10541000F0B5C64600B580460F00002419E026010D
:10542000BE19012333702868164908F09DF8051C41
:10543000F060011C134808F09CF87060291C1248A9
:1054400008F08DF8011C0F4808F093F8B0600134A3
:10545000E4B2072C12D8A50045440021286808F0C2
:10546000CFF80028DBD02301FB1800221A70054A70
:10547000DA60FE2292055A609A60E8E780BCB8467E
:10548000F0BDC0460000B441000034420A4AD3686F
:105490005B005B1009490B6053695B005B100849B6
:1054A0000B6013695B005B1006490B6093695B003E
:1054B0005B10054A13607047D01600205821002069
:1054C000602100205C2100206421002010B5054BE4
:1054D0001B68054A12680549096805480068FCF719
:1054E00069F810BD64210020602100205C210020AB
:1054F0005821002010B5104C10492000FFF76CFF18
:10550000200020300E49FFF767FF200040300D4992
:10551000FFF74AFF200060300B49FFF745FF2000EE
:105520001930FF300949FFF773FF20003930FF3091
:105530000749FFF76DFF10BDEC160020F4120020A4
:105540003413002014130020541300205C1E00208C
:10555000201F002010B50E4B00221A800D4C203267
:105560000021200008F0D8FB20002030202200215C
:1055700008F0D2FB200040382022002108F0CCFBAC
:10558000200020382022002108F0C6FB10BDC046B4
:105590000C3300202C170020F0B5DE4657464E464F
:1055A0004546E0B583B004005F4B9B465F4B9A468F
:1055B0005B461B685246126841680068FFF7CCFDE5
:1055C000071C5B4B99465B4D1B682A68E168A06825
:1055D000FFF7C2FD80460190574E311C0097381CE2
:1055E000FFF79CFD071C311C4046FFF797FD061C8A
:1055F000381CFFF767FD0700301CFFF763FD06004E
:105600005B461B685246126861682068FFF7DCFD44
:1056100082464B461B682A68E168A068FFF7D4FD04
:105620008046009808F070F80022444B06F0EAFF2C
:1056300006F092FE041CFE21890507F0E9FF002810
:1056400005D13F49201C07F0F9FF002822D03A007D
:10565000163292003B4B9B185868514607F0D8FF12
:10566000002817D03849504607F0E8FF002811D02D
:10567000344A3B0016339B00D31851465960BB1D7A
:105680009B00D218009B53600122BA402F490B881F
:1056900013430B80019808F037F80022274B06F0DF
:1056A000B1FF06F059FE041CFE21890507F0B0FF8A
:1056B000002805D12249201C07F0C0FF002824D073
:1056C00032001E3292001F4B9B185868414607F06B
:1056D0009FFF002819D01C49404607F0AFFF002863
:1056E00013D0184A33001E339B00D318414659602B
:1056F00033000E339B00D218019B53600836012201
:10570000B24012490B8813430B80104B1888104B82
:105710009C46604443425841C0B203B0F0BCBB4613
:10572000B246A946A046F0BD5C21002058210020C9
:1057300064210020602100200000B4410080464028
:1057400000003042D01600200000FA420C33002046
:105750000100FFFF064B02681A60064B42681A60A0
:10576000054B82681A60C268044B1A607047C046D5
:10577000582100205C2100206021002064210020AD
:10578000F0B5DE4600B584B0040000910192224BD2
:105790009B46224F1B683A6841680068FFF7DCFCB3
:1057A00002901F4E1F4D33682A68E168A068FFF71A
:1057B000D3FC03905B461B683A6861682068FFF77A
:1057C00003FD071C33682A68E168A068FFF7FCFC4A
:1057D000041C1549381C07F031FF002809D1124973
:1057E000201C07F02BFF00280CD104B080BCBB4666
:1057F000F0BD0298FFF766FC0023009A1370019B2E
:105800001870F2E70398FFF75DFC0123009A13700C
:10581000019B1870E9E7C0465C2100205821002058
:1058200064210020602100200000FA42F0B5DE462D
:1058300057464E464546E0B585B0040000910192BA
:10584000294B9A46294D1B682A6841680068FFF772
:1058500083FC8146264E274F33683A68E168A0688A
:10586000FFF77AFC8046244B9B46191C4846FFF7FD
:1058700055FC029059464046FFF750FC03905346B2
:105880001B682A6861682068FFF79EFC051C336866
:105890003A68E168A068FFF797FC041C1749281CC8
:1058A00007F0CCFE00280CD11449201C07F0C6FEDE
:1058B00000280FD105B0F0BCBB46B246A946A046B1
:1058C000F0BD0298FFF7FEFB0023009A1370019BC6
:1058D0001870EFE70398FFF7F5FB0123009A1370A8
:1058E000019B1870E6E7C0465C210020582100208B
:1058F00064210020602100200000B4410000FA4231
:10590000F0B5DE4657464E464546E0B585B0040044
:10591000334B9A46334D1B682A6841680068FFF78D
:105920001BFC81460190304E304F33683A68E16885
:10593000A068FFF711FC80462D4B9B46191C48467A
:10594000FFF7ECFB029059464046FFF7E7FB039058
:1059500053461B682A6861682068FFF735FC81465A
:1059600033683A68E168A068FFF72EFC041C2149FF
:10597000484607F063FE00280DD11E49201C07F0A1
:105980005DFE002819D1002005B0F0BCBB46B24630
:10599000A946A046F0BD0298FFF794FB164A831D66
:1059A0009B00D318019959601630800010184B469F
:1059B0004360FFF79FFD0120E6E70398FFF782FBB6
:1059C0000D4A03000E339B00D318414659601E3028
:1059D000800010184460FFF78DFD0120D4E7C04619
:1059E0005C2100205821002064210020602100203B
:1059F0000000B4410000FA42D0160020F0B5DE46A7
:105A000057464E464546E0B589B004000D00524B5E
:105A10009B46524E1B68326841680068FFF79CFB4A
:105A200080464F4B9A464F4F1B683A68E168A06822
:105A3000FFF792FB81465B461B683268616820680D
:105A4000FFF7C2FB061C53461B683A68E168A06872
:105A5000FFF7BAFB041C00230793069305930493F6
:105A60004149301C07F0DAFD002855D13E49301C71
:105A700007F075FD011C06AB039307AB02933B4B8C
:105A800001933B4B00933B4B3B4A4046FFF7E8FBFF
:105A90003549201C07F0C2FD00283FD13249201CA7
:105AA00007F05DFD011C354C04AB039305AB02937D
:105AB000334B0193334B0093334B22004846FFF79F
:105AC000CFFB3C3C0F23E356002B29DB079807F064
:105AD000E1FD28602D4BDB7C5BB2002B27DB0698B9
