:020000041000EA
:1000000000B5324B212058609868022188439860DF
:10001000D860186158612E4B002199600221596106
:100020000121F02299502B49196001219960352056
:1000300000F044F80222904214D00621196600F024
:1000400034F8196E01211966002018661A6600F04E
:100050002CF8196E196E196E052000F02FF8012189
:100060000842F9D1002199601B49196000215960AB
:100070001A491B48016001219960EB211966A021F2
:10008000196600F012F800219960164914480160C1
:100090000121996001BC002800D000471248134993
:1000A000086003C880F30888084703B5996A0420EC
:1000B0000142FBD001200142F8D103BD02B5186610
:1000C0001866FFF7F2FF186E186E02BD00000240BE
:1000D000000000180000070000035F00212200005C
:1000E000F4000018222000A00001001008ED00E03C
:1000F00000000000000000000000000074B24E7A12
:1001000000200420F7010010C3010010C5010010F9
:10011000C1010010C1010010C1010010C101001097
:10012000C1010010C1010010C1010010C701001081
:10013000C1010010C1010010C9010010CB01001065
:10014000CD010010CD010010CD010010CD01001037
:10015000CD010010CD010010CD010010CD01001027
:10016000CD010010CD010010CD010010CD01001017
:10017000CD010010CD010010CD010010CD01001007
:10018000CD010010CD010010CD010010CD010010F7
:10019000CD010010CD010010CD010010CD010010E7
:1001A000CD010010CD010010CD010010CD010010D7
:1001B000CD010010CD010010CD010010CD010010C7
:1001C00000BE00BE00BE00BE00BE00BEEFF3058054
:1001D000103800BEF2EB8871748101109481011017
:1001E0003402001090A31AE700201F49086006C8D7
:1001F00081F3088810471D48006800282FD10DA4FE
:100200000ECC002902D000F012F8F9E71849194A7B
:10021000002000E001C19142FCD1174988471749ED
:1002200088471749884700BEFDE701C901C29A42C5
:10023000FBD3704794810110C000002050180020AB
:1002400024990110000004200000042024990110CA
:10025000001004200010042000000000704709482E
:100260000EF05CFC0047000008ED00E0000000D04C
:100270007018002014610020A5D80010FD0800109F
:1002800061D800105756000006005250ABB36053BF
:100290008877011006005250861C030298770110DF
:1002A000060052505422A29DB07701100500525012
:1002B000DE65F46824990110F8B5C04610B5064C07
:1002C0002378002B07D1054B002B02D0044800E017
:1002D00000BF0123237010BD701B00200000000030
:1002E000C84C0110044B10B5002B03D0034904483F
:1002F00000E000BF10BDC04600000000741B0020DD
:10030000C84C011010B504001F210BF0DBFA0022CD
:10031000002120000BF0EEFA002120000BF004FB7E
:1003200010BD10B504000BF017FB002201212000C6
:100330000BF0E0FA0123A340D0221206536253616E
:1003400010BD10B504000BF007FB002201212000B6
:100350000BF0D0FA0123A340D0221206936210BD05
:1003600070B5040000290CD00BF0F6FA0123A3406D
:10037000D022120693620022002120000BF0BAFA6C
:1003800070BD0BF0E9FA0125A540D026360675624E
:100390000022002120000BF0ADFAB561F0E770B546
:1003A00000280FD0D024240680256D0465616420C8
:1003B0000CF01AFC80239B04636164200CF014FC95
:1003C000A56170BDD024240680256D04656164207C
:1003D0000CF00AFC80239B04A36164200CF004FC55
:1003E000A561EEE710B5002804D001211A20FFF71F
:1003F000B7FF10BD00211A20FFF7B2FFF9E7000098
:1004000010B51220FFF78DFF1120FFF78AFF102093
:10041000FFF787FF0F20FFF784FF0E20FFF781FF14
:100420000D20FFF77EFF0C20FFF78BFF0B20FFF75F
:1004300088FF0A20FFF785FF1849194811F090FD41
:10044000012106200BF03EFA012107200BF03AFAB9
:10045000012104200BF036FA01200BF07DFAD024A4
:10046000240602236362636109200BF075FA80237E
:100470009B006362636100200BF06EFA01236362EC
:10048000636102200BF068FA04236362636101F088
:1004900081F81A200BF060FA10BDC046C0C62D00CE
:1004A00000C00340F8B5DE4657464E464546E0B527
:1004B0000400D0252D068023DB029946AB61052080
:1004C00000210CF065FB6B68DB0A012633405A42C1
:1004D000534101273B402278B243134323706B689A
:1004E0001B0B33405A425341DB0162787F218B461C
:1004F0000A40134363706B689B0A33405A4253416E
:100500003B401B0162786F3988468A43134363700E
:100510004B466B6180239B029946AB61052000210D
:100520000CF036FB6B68DB0A33405A4253413B40C8
:100530005B00227802218A468A43134323706B684A
:100540001B0B33405A4253413B401B01227841462A
:100550008A43134323706B689B0A33405A425341CA
:100560003B405B01627810318A43134363704B4612
:100570006B6180235B029946AB61052000210CF082
:1005800007FB6B68DB0A33405A4253413B409B00F8
:10059000227804218A43134323706B681B0B33407A
:1005A0005A4253413B409B012278402082431343EF
:1005B00023706B689B0A33405A4253413B405B00B7
:1005C000A27851468A431343A3704B466B61802344
:1005D0001B029946AB61052000210CF0D9FA6B682B
:1005E000DB0A33405A4253413B406278B2431343E3
:1005F00063706B681B0B33405A425341DB01227816
:1006000059460A40134323706B689B0A33405A4291
:1006100053413B40A278B2431343A3704B466B61F6
:100620008023DB019B46AB61052000210CF0B0FA72
:100630006B68DB0A33405A4253413B409B0162786E
:1006400040208243134363706B681B0B33405A4254
:1006500053413B409B00627804218A4313436370FB
:100660006B689B0A33405A4253413B40DB0022787F
:10067000383881468243134323705B466B61802385
:100680009B019B46AB61052000210CF081FA6B6851
:10069000DB0A33405A4253413B405B00627850468C
:1006A0008243134363706B681B0B33405A425341C0
:1006B0003B40DB00627848468243134363706B68BB
:1006C0009B0A33405A4253413B405B012278183029
:1006D0008243134323705B466B616B685B091E406A
:1006E00073425E413740FF00A3784A4693431F435D
:1006F000A7706378DB06DB0F1B01FAB2404682432A
:100700001343A370204B1A68C0239B015340E0227F
:10071000D20113401D4A13601D4B042119601A4B6E
:100720001B68DB05FBD518494A681204130C194AEB
:10073000D21A096880239B014B40E021C9010B407C
:1007400012490B60124B042119600F4B1B68DB052B
:10075000FBD50D4B5B681B04190C0E4B5B1AE2704A
:10076000100A2071100C6071120EA271E371190A47
:100770002172190C61721B0EA372F0BCBB46B2460B
:10078000A946A046F8BDC04600C0044000D00440C1
:1007900000E00440FF0F0000F0B5D6464F46464645
:1007A000C0B584B0040003AF3A4B1A883A800223E4
:1007B00099460023BB7002AE3280B37001AD2A802F
:1007C000AB7069460A808B70D0231B0698464A4658
:1007D0009A61314B9A4603233A00D021504614F0D7
:1007E000D3F943464A465A619A6103233200F02105
:1007F000504614F0C9F943464A465A6180239B008B
:10080000994643464A469A6103236A46F021504678
:1008100014F0BAF943464A465A619A6103232A0002
:10082000D021504614F0B0F943464A465A613B780D
:100830005B027A785200E02109010B401343BA7839
:10084000D209134323603278520273785B000A4066
:100850001A43B378DB091A4362602A7852026B7834
:100860005B000A401A43AB78DB091A43A2606B466F
:100870001B785B026A46527852000B4013436A466B
:100880009278D2091343E36004B0E0BCBA46B146A3
:10089000A846F0BDE04C011000C0034010B500F0C8
:1008A0002FFD10BD10B504004378DB0710D463782A
:1008B0001022110019401A4203D00F4B1B78002B55
:1008C0000CD0002903D10C4B1B78002B0DD110BD8F
:1008D0000022002100200CF087FFE8E70020FFF74E
:1008E00081FD054B01221A70F1E70120FFF77AFD27
:1008F000014B00221A70EAE7C960002010B584B0ED
:1009000010F0EEFB64200CF06FF9374810F0ACFBF0
:10091000FFF776FD11F0FCF81D20FFF7F3FC1C201B
:10092000FFF7F0FC1A200BF017F8D02424068023E0
:10093000DB046362A36118200BF00EF880235B04D4
:100940006362A36119200BF007F880239B046362A4
:10095000A36105200BF000F82023A36200220121EF
:1009600005200AF0C7FF01AC0C220021200010F086
:1009700055FA2000FFF796FD1C4B9B886A461380B2
:10098000617812220A40122A09D018230B40182B32
:100990000CD0684601F05EF9002004B010BD144888
:1009A0000EF0BCF80300002108009847163B6A4689
:1009B00013700120FFF716FD0120FFF7F0FC0D4832
:1009C0000CF012F902E096200CF00EF901AC2000B8
:1009D000FFF768FD6378DB07F5D5002200210020D2
:1009E0000CF002FFEFE7C046C84C0110E04C0110CC
:1009F00055420000AC0D000070B5041C144B1D687E
:100A00000021281C0FF06EFD00281ED11149281C62
:100A10000FF037FD051C0021201C0FF081FD002880
:100A200002D10024201C70BD211C281C0FF029FDC0
:100A300009490FF00BFD041CFD2189050FF070FD25
:100A40000028EFD0FD24A405ECE70024EAE7C04627
:100A5000001500209A99193F9A99193E70B5002502
:100A6000002413E0201C0FF0E5FD0B490FF009FDF9
:100A70000FF082FD6B00094AD0520949201C0FF08B
:100A8000E5FC084910F09CF8041C013580235B014B
:100A90009D42E7DB70BDC04600007F4364400020FC
:100AA000DB0FC93ADB0FC940F8B5DE4657464E4664
:100AB0004546E0B582460E00984B5B78002B75D01A
:100AC000002973D1954F00237B703978944A1170B7
:100AD000944A1370944A13707B8ABC8A24041C4382
:100AE000924D6C61EB689946191C201C0FF0A9FC13
:100AF0008F490FF0B0FC28618B21C90548460FF0E3
:100B0000C0FC8C490FF0A7FC814628608B21C905E9
:100B1000201C0FF0B6FC87490FF09DFC49460FF0F2
:100B200090FC83490FF097FC6860FB8A388B0004C7
:100B300018432862A9690FF084FC7D490FF08BFCF3
:100B4000E8617B8BBC8B24041C437B4D6C61EB68A0
:100B50009946191C201C0FF074FC75490FF07BFCA2
:100B600028618B21C90548460FF08BFC71490FF0B5
:100B700072FC814628608B21C905201C0FF081FC86
:100B80006C490FF068FC49460FF05BFC68490FF0B8
:100B900062FC6860FB8B388C000418432862A969EA
:100BA0000FF04FFC62490FF056FCE8615F4FB868E8
:100BB0000FF014FD80B2614D4000405F0FF0BAFCB1
:100BC000041CBF69381CFFF717FF011C201C0FF025
:100BD00058FC8346584CA0680FF000FD83B25B00C0
:100BE000585F0FF0A7FC8146A3699846181CFFF7D1
:100BF00003FF011C48460FF044FC8146504958460B
:100C00000FF03FFC041C4F4948460FF03AFC011C12
:100C1000201C0FF01BFC041C0021381C0FF062FC90
:100C2000002805D0002140460FF05CFC002804D1CC
:100C30004549201C0FF00AFC041C4449201C0FF0FD
:100C40006FFC002807D10021201C0FF053FC002866
:100C500002D0002400E03D4C35005544201C0FF02C
:100C6000BDFC2870314B5C680021201C0FF058FC43
:100C7000002805D02D4D211C28680FF0E7FB2860C7
:100C80002D4B5C680021201C0FF04AFC002805D089
:100C9000294D211C28680FF0D9FB2860234DA96835
:100CA00028680FF0D3FB061CA860234C2168A068BD
:100CB0000FF0CCFBA0608B27FF05391C301C0FF018
:100CC0007FFFA860391CA0680FF07AFFA060164B68
:100CD0001B781D2B3CD8154C2169E0680FF0B6FB42
:100CE000E060E169A0690FF0B1FBA061124C2169DD
:100CF000E0680FF0ABFBE060E169A0690FF0A6FBD4
:100D0000A061094B1B78632B02D80133064A13708C
:100D1000F0BCBB46B246A946A046F8BDB03B002099
:100D20000D6100200E6100200C610020EC350020D8
:100D30000000F04100803B46543B0020644000200E
:100D40006666E63ECDCCCC3E0000A04100007F436D
:100D50004A4B5A699146DA601A6A93469A61484B3F
:100D60005A699046DA601A6A92469A61454B1B7836
:100D7000632B02D80133434A1370424B1D78424B18
:100D80001B789D4273D2414B00221A706C1C2401C7
:100D90003F4B9C4664446388A68836041E43374F05
:100DA0007E614946301C0FF04CFB3A490FF053FB73
:100DB00038618B21C90548460FF063FB36490FF0B7
:100DC0004AFB814638608B21C905301C0FF059FB66
:100DD00031490FF040FB49460FF033FB2D490FF02E
:100DE0003AFB7860E388208900041843386259464A
:100DF0000FF027FB27490FF02EFBF8612D01244B44
:100E00009C4665442F006B8BAC8B24041C431C4D0B
:100E10006C614146201C0FF014FB1E490FF01BFBB8
:100E200028618B21C90540460FF02BFB1A490FF0B2
:100E300012FB061C28608B21C905201C0FF021FB2A
:100E400015490FF008FB311C0FF0FBFA11490FF0A8
:100E500002FB6860FB8B388C000418432862514603
:100E60000FF0EFFA0B490FF0F6FAE86149E70023BB
:100E7000024A5360024A536043E7C046EC35002003
:100E8000543B00200E6100200D6100200C61002009
:100E9000B03B00200000F04100803B46F0B5CE465C
:100EA000474680B587B005000F00FFF7D7FD042146
:100EB00028000AF007FD6B0807241C400123984610
:100EC0001D40A94609200CF085FB0FF02EFB9D4923
:100ED0000FF0D7FA9C490FF0BEFA061C38000FF04D
:100EE00029FB011C301C0FF0B6FAFA2189050FF01E
:100EF000C8FA84466B46002700975F609F60102207
:100F00005A60924A9A6003AE320023CB23C28321F7
:100F1000C90560460FF0B5FA0FF060FB0490FE23A0
:100F200005938B49A20013199B005F5013199B0076
:100F30008C4663449F60DF60059818610498586090
:100F4000434603980343121992005350012010F0B6
:100F500091FF804E3060012010F08CFF7E4B1860B6
:100F6000012010F087FF7D4B186032687C4B0C2A03
:100F700000D9C8E07B490B40D20213430C218B43BC
:100F800008221343784803407848034078480340D8
:100F90000120034377480340022083438B431343DC
:100FA00008329343103293436C4A12680C2A00D9DA
:100FB000AFE06C491940D3020B43220018326E494E
:100FC0000B40D1030B4363490968A0000419A40036
:100FD0006A48844664448901A020C005844661446F
:100FE000674808604C60042088600B615A4B1968A0
:100FF0005B4B0C2900D992E05A480340C9020B43CD
:101000000C20834308210B43574C2340574C23406B
:10101000574C234001242343564C23400224A3432E
:1010200083430B4308318B4310318B433F2A00D954
:101030007BE051491940D3030B43474A1068454AA6
:10104000116889014F4A944661448201A024E40555
:10105000A44662444C4C1460516090218900916018
:10106000136101238340494A136049490C200AF067
:1010700093FD01210C200AF07FFD384B1A68384B94
:101080000C2A58D837490B40D20213430C22934301
:1010900008210B4334490B4034490B4034490B4081
:1010A0000124234333490B4002218B4393430432F1
:1010B000134310329343294A126849464D00304881
:1010C00045199201A021C9058C466244314E166033
:1010D0005560946013619022002130000FF09EFE55
:1010E00030009030902200210FF098FE1A4B1B68C0
:1010F0009C40A022D2058623DB00D45007B0C0BCA0
:10110000B946B046F0BD244B244AC32124480CF014
:10111000ABFB214B214AB73121480CF0A5FB1E4BFC
:101120001E4AC3211E480CF09FFB1E4B1E4A9531E0
:101130001B480CF099FB184B184AC32118480CF0B7
:1011400093FBC04600007A4400007E43FFFF00008E
:10115000000005404C3C00209C600020483E0020E0
:1011600010801F00FF87FFFF3FF8FFFFFFFFBFFF5B
:10117000FFFFDFFFFFFF7FFFFF7FE0FF0C00054069
:10118000646000203C00005004150020142400502E
:10119000C1000020A0320020E84C0110A04D011039
:1011A000084D0110744D0110884D011010B501005B
:1011B000054B5B78002B06D1034C422220000FF038
:1011C00033FE0123637010BDB03B002010B592B018
:1011D0004222002101A80FF021FE01236A4613716B
:1011E000537115336B4400221A80264A5A801E23FD
:1011F0006B4400221A80244A5A8022236B44002226
:101200001A80FE2292015A80204B1B78002B36D187
:101210001E4B01221A7000241BE0222169441C4B42
:101220001A04120C0A801B0C4B80A3001E21694477
:10123000184AD3581A04120C0A801B0C4B8001A9BF
:101240000800FFF7B3FF0CF07DFA96200BF0CCFC02
:1012500001341A2CE1DD96200BF0C6FC22226A44F0
:101260000021118051801E226A4400231380538084
:1012700001A90800FFF79AFF0022044B1A7012B070
:1012800010BDC046A04300002043000008610020BC
:101290006666663F0815002000B583B0114B1B78C9
:1012A000002B0FD000236A46D371911DD01D00F092
:1012B00057FB6B46D87900280CD10B4B00221A60E3
:1012C00003B000BD074B01221A7008490820FFF740
:1012D000E5FDE7E70FF029F905490FF0BCF8024BEF
:1012E0001860EDE70661002000150020E02E0000E8
:1012F0000000C84210B5FFF769FF012010BD0000D3
:1013000070B50D4B1B78002B15D00B4B00221A70BB
:101310000A4B1B68DBB20125ED1AEDB2002408E090
:10132000EB005B191801064BC018A1B2FFF7BCFB1C
:1013300001348F2CF4DD70BD096100209C32002047
:10134000A032002010B592B04222002101A80FF077
:1013500065FD01236A461371537115336B440022F6
:101360001A80184A5A801E236B4400221A80164A9B
:101370005A8022216944154B1A04120C0A801B0C56
:101380004B8001A90800FFF711FF002408E00020AE
:10139000FFF7B6FF0CF0D6F908200BF025FC01345E
:1013A0003D2CF4DD1A226A44002111805180222252
:1013B0006A4400231380538001A90800FFF7F6FE5A
:1013C00012B010BDA0430000204300009A99993E3E
:1013D0000902084300B2704770B582B0D0242406D9
:1013E0000125A5616B46187159710B4E022201A9A6
:1013F000300013F019FC656102200BF0F5FB03359A
:10140000A561022201A9300013F00EFC65610220E3
:101410000BF0EAFB02B070BD00C00340F0B5DE4641
:1014200057464E464546E0B585B006000D0001AC76
:10143000002301930822002102A80FF0EFFC0323F0
:101440006B449B46A2235A461370D0231B06994631
:10145000012398464B4642469A614D4B9A4659465F
:10146000180013F0E1FB0C2322000021504613F07A
:101470008BFB4B4642465A6161782078FFF7A8FF04
:1014800083B2FF273840B0711B0AF371E178A0786E
:10149000FFF79EFF83B2384030721B0A7372617986
:1014A0002079FFF795FF83B23840B0721B0AF372C0
:1014B000E179A079FFF78CFF83B2384030701B0AC6
:1014C0007370617A207AFFF783FF80B2404283B263
:1014D0003840B0701B0AF370E17AA07AFFF778FF0A
:1014E00083B2384030711B0A73714A4604239361FA
:1014F00001225946504613F097FB0C23220000218D
:10150000504613F041FB4A4604235361617820782A
:10151000FFF75EFF83B23840A8711B0AEB71E178D8
:10152000A078FFF755FF83B2384028721B0A6B7210
:1015300061792079FFF74CFF83B23840A8721B0A0B
:10154000EB72E179A079FFF743FF83B2384028704E
:101550001B0A6B70617A207AFFF73AFF80B2404233
:1015600083B23840A8701B0AEB70E17AA07AFFF7CB
:101570002FFF83B2384028711B0A6B7143463373C7
:101580002B7305B0F0BCBB46B246A946A046F0BDE1
:1015900000C0034010B5AE211020FFF71DFF5C21F5
:1015A0001120FFF719FF04211220FFF715FF042176
:1015B0001320FFF711FF00211520FFF70DFFE02199
:1015C0001720FFF709FF10BDF0B5C64600B50400AF
:1015D00014282DD015282FD0132803D0002080BC2C
:1015E000B846F0BD14271523984620000AF0B4F938
:1015F00001263300A340D0252D06AB620022012135
:1016000020000AF077F940460AF0A6F93300424676
:1016100093406B62AB6138000AF09EF93300BB4027
:101620006B62AB616B68E3401E4209D00120D6E7D4
:10163000132715239846D8E7132714239846D4E791
:101640000020CCE710B51420FFF7BEFF10BD10B589
:101650001320FFF7B9FF10BD10B51520FFF7B4FF39
:1016600010BD10B501211A20FEF77AFE96208000E9
:101670000BF0BAFA09F05AFD002800D110BD012084
:10168000FCE710B501F06EFE10BD0000F0B5C646D7
:1016900000B584B0142338E001330B2B05D801AA20
:1016A000D25C002AF8D00125F6E718200BF09CFA4E
:1016B0002F4BDB685B07FBD5D02636060427B761C6
:1016C0002B4B984601226B46D91C404613F0ACFACE
:1016D0000C2301AA0021404613F056FA77610C282A
:1016E0003DD10023002100E001330B2B05D801AAD6
:1016F000D25C002AF8D00121F6E7002901D0002DA4
:1017000030D118200BF070FA23005C1E002B28D07B
:10171000002301930822002102A80FF07FFB6B46F3
:10172000A222DA70124BDB685B07FBD5D0252D06B1
:101730000126AE610E4F01226B46D91C380013F012
:1017400073FA0C2301AA0021380013F01DFA6E6110
:101750000C2802D1002300259FE7002502E0002588
:1017600000E00025280004B080BCB846F0BDC046AB
:1017700000C0034070B584B003A9484B1A880A80A2
:1017800000238B7002A90A808B7001A90A808B70DC
:1017900069460A808B7032241FE00133022B14D873
:1017A00003AAD25C002A00D0012101AAD25C002A3F
:1017B00000D0012602AAD25C002A00D001256A4688
:1017C000D25C002AE9D00120E7E7002905D0002DEE
:1017D00003D0002E01D0002857D12300013C002B5C
:1017E00050D0D0231B0602229A612D4BDB685B0789
:1017F000FBD5032303AAD021294813F0C5F90328F8
:1018000042D1D0231B0602225A619A61244BDB6825
:101810005B07FBD5032302AAF021214813F0B4F99A
:10182000032834D1D0231B0602225A61FF32FF3233
:101830009A611B4BDB685B07FBD503236A46F021EB
:10184000174813F0A1F9032823D1D0231B068022C7
:1018500092005A619A61124BDB685B07FBD5032348
:1018600001AAD0210E4813F08FF9032813D1D023F9
:101870001B06802292005A610023002000260025CA
:1018800000218BE7002000E0002004B070BD0020A4
:10189000FBE70020F9E70020F7E7C046BC4D011048
:1018A00000C0034010B5FFF725FD012010BD012049
:1018B000704770B582B0FFF75DFF01AC01260125CE
:1018C0002840030120781022904318432070FFF72E
:1018D000D8FEC30122787F20104018432070FFF704
:1018E000C0FE284083012078402290431843207096
:1018F000FFF7B2FE2840830020780422904318436B
:101900002070FFF79FFE03002B402078B043184360
:101910002070FFF79CFE284043002078022290436D
:1019200018432070FFF7C3FF2840C3002078082227
:10193000904318432070FFF7A9FE28404301207808
:101940002022904318432070FFF7ACFF05406078D9
:10195000B04305436570208802B070BD7047000039
:10196000044B7A22FF329A5C02707C22FF329B5C2D
:101970000B7070477019002064207047014B0020E5
:101980001856704778150020F8B504000E001500B1
:10199000254A2649280001F049FE071E1DD0244B88
:1019A0001A6824498C466244D11752184A405B6831
:1019B0006344D9175B184B40642A0BDC0022642B6C
:1019C00000DD02001C4B1B88002B05D01A4B0022A7
:1019D0001A8002E00200F2E71700227863781B0207
:1019E0001343154A11880B431380114B32681A6058
:1019F00072685A60114B3A001149280001F029FE23
:101A0000002807D00F4B1B78002B03D10D4B012270
:101A10001A70F8BD002FFCD00A4B1B78002BF8D0B1
:101A2000084B00221A70F4E7F034002040420F0007
:101A30003C3B002000F8FFFFB8600020083B00207E
:101A400000A3E111D0600020014B18787047C04618
:101A5000D060002010B5002803D1074B00221A7077
:101A600010BD0120FEF79BFC0120FEF7BBFC024BE2
:101A700001221A70F4E7C046BE60002010B50020B5
:101A8000FEF7B0FC0020FEF78AFC002200210020B7
:101A90000BF0AAFE10BD000010B50849084813F06D
:101AA000ABF8002802D1074B186810BD064B9A6AA4
:101AB000044B1A60024813F06FF8F4E79C2D0020E5
:101AC00008180020886000200040054030B583B031
:101AD0000500FFF7E1FF00900190FFF7DDFF040034
:101AE000FFF73CFF6A462900200001F09FFD002817
:101AF000F3D003B030BD000010B5FFF7CDFF074CA9
:101B0000206000F017FC206806F0B0FC206804F0AC
:101B1000F1FD6420FFF7DAFFEFE7C046EC34002068
:101B200010B504000A4B1B78002B00D010BD084BE9
:101B300001221A700020FEF732FC0020FEF752FC52
:101B400064200BF051F82100002001F039FBEDE793
:101B5000FF60002010B5054B1B78002B00D010BD96
:101B6000024B01221A7001F01DFCF8E7EB60002027
:101B700010B52F4B1B78002B37D0FFF78DFF2D4B67
:101B800018602D48FEF78EFC2C4B1B78002B35D1AE
:101B900005F0C4F8274C2849206806F013FE206899
:101BA00001F0A8FB08F0A2FC002834D0214C244905
:101BB000206805F0CFFB2068224A234908F0C2FCC8
:101BC000224B00221A701B4B1A681F491D48FFF751
:101BD000DBFE1F4B1B785BB2012B23D0154B186823
:101BE000FEF75CFE0BF0AEFD10BDFA200021800177
:101BF0000BF0EEFD0E4B01221A70BEE70E48FEF709
:101C000051FE0BF09FFD0B4C206801F073FB206828
:101C100001F074FCE8E7074B18680B4A094900F02B
:101C2000BBFCD0E7034B186801F068FCD6E7C04660
:101C3000F5600020E8340020D8240020BE60002099
:101C4000A0240020E4240020C0240020D060002034
:101C50007815002070B584B0041E00D1F9E001F0C1
:101C6000E0FC0500FEF7CCFB7B497C4810F03EFB16
:101C70000321162009F026FE0321172009F022FE79
:101C800003AB02AA01A9764809F0CAFD002803D1D6
:101C9000734974480BF082FE039A0299019809F087
:101CA00083FD7148FEF7FEFB00F0A0FB002845D045
:101CB0006D4E33006D4A6E496E4806F0EBF906F042
:101CC0007DFC002001F0D4FBFA2001F08DFBB378FD
:101CD000DB0611D5684B0022BE2149005A547E21F3
:101CE000FF315A5401315A548021FF315A54013185
:101CF0005A548221FF315A54EBB2012B23D0022BCC
:101D000026D0012565576B1C29D00022A2565B4BBB
:101D10001A70554B1B789A0625D45A0637D4DA0622
:101D200037D45AB2002A36DB5A0736D40A221A4070
:101D3000022A34D01B0717D5032515E0322150485D
:101D400001F02CFAB4E74D4B02221A700025E0E7AF
:101D50002B041B0F494A13702D052D0FD9E7464B55
:101D600002255D57D1E7062502F0D0FC424AE22366
:101D70005B00D65C414B1B785BB2013311D064240D
:101D8000EBB2062B3FD8AB003E4AD3589F46012505
:101D9000EAE70025E8E70225E6E70525E4E704256C
:101DA000E2E701F083FB002804D1344B02221A70D1
:101DB0004624E5E7314B01221A706424E0E73248FB
:101DC000322101F0EBF92100300001F00FFAFFF7AA
:101DD00063FA2A4B00215956280000F0EDFB224BF4
:101DE0009B789B0730D4294A1F49280004F03EFE07
:101DF0000FF082FB26480FF06DFBFFF7B9FEFCE702
:101E0000FF200006DCE72348DAE7FF200002D7E7DF
:101E1000002001F0E9FA194B00221A70FF2000049B
:101E20001924CDE7002001F0DFFA144B00221A70CC
:101E300019480F24C4E7002001F0D6FA0F4B002206
:101E40001A7016481924BBE70B4B9D7000F0C8FAB6
:101E5000C9E704B070BDC046801A0600D81700203C
:101E6000400D0300C04D0110D8240020A024002004
:101E7000C0240020B0240020701900207815002014
:101E80000000FF4DF44D011000F115FFE424002087
:101E9000F91A001000A1A1A100FF61000000FFE6F7
:101EA000094ABD235B00D35C1A1C312B00D83222B7
:101EB000054BBD2149005A54DA787A39FF398A43F3
:101EC000DA709B221A7270477019002070B50500F5
:101ED0001400724B1380012900D070BD0223C35639
:101EE0009370D01CE91C06220EF09EFFEB68E360A5
:101EF0002B6923616B696361AB69A36120001C30AE
:101F000029001C3120220EF08FFF20003C302900D8
:101F10003C3120220EF088FF20005C3029005C312B
:101F200020220EF081FF20007C3029007C3120220D
:101F30000EF07AFF20009C3029009C3106220EF022
:101F400073FF2000A2302900A23106220EF06CFFA0
:101F50002000A8302900A83130220EF065FF2000B3
:101F60002930FF302900D83110220EF05DFF20000B
:101F70003930FF302900E83110220EF055FF2000E3
:101F80004930FF302900F83110220EF04DFF2000BB
:101F90005930FF3029000931FF3110220EF044FF83
:101FA00020006930FF3029001931FF3110220EF076
:101FB0003BFF94235B00EA5C5033E2542A23FF3357
:101FC000EA5C7A23FF33E2544F3BEA5C5033E2543D
:101FD0002C23FF33EA5C7C23FF33E25420007D3066
:101FE000FF3029002D31FF3106220EF01DFF2000A9
:101FF0008530FF3029003531FF3120220EF014FFEB
:102000002000A530FF3029005531FF3120220EF08D
:102010000BFFBA235B00EA5C5033E2542000C93066
:10202000FF3029007931FF3118220EF0FDFEC82360
:102030005B00EA5C5033E2544E3BEA5A5033E252C2
:102040004E3BEA5A5033E2524E3BEA5A5033E25288
:102050004E3BEA5A5033E2524E3BEA5A5204F620C3
:102060004000110C225A9A3BFF3B1A400A4322526D
:10207000CE225200A95A22185180CF225200AA5AC9
:102080005204F8214900120C605A03401343635272
:10209000D0235B00EB5A641863801EE702A0FFFFA9
:1020A000064B984204D0064B984203D10220704759
:1020B0000120FCE701204042F9E7C04601A00000F2
:1020C00002A0000010B512480EF0FEFF002407E049
:1020D000104B5B18D97810480EF0F6FF0134E4B2CB
:1020E000052C0DD80FF0DCFC2100C0B2094A1219F2
:1020F000D070002CECD1130001229043D870E7E798
:10210000044B9B221A720A200EF090FF10BDC046AD
:10211000104E011070190020204E0110F0B5DE465F
:1021200057464E464546E0B56F4CA544FC256D002C
:102130002A00002102A80EF071FE6C4B02AA138047
:10214000059B0193DB0FDB078022120113430593EC
:10215000069B0193DB0FDB0713430693079B019359
:10216000DB0FDB0713430793089B0193DB0FDB07B0
:102170001A4308925E4F0A975E4E0B965E4C0C9483
:102180005E480D905E490E915E4A0F925E4B109331
:1021900012971396149415901691179218935B4BFF
:1021A00019931A931B931C931D931E931F932093B3
:1021B0002193802202A98B5004328B5004328B5021
:1021C00004328B5004328B5004328B5004328B50CB
:1021D000FF231B049A46A8230A005146D1504C4BBA
:1021E0009B46AC235946D1504A4B9946B0234946A9
:1021F000D150FF231B069846B4234146D150FF26F9
:1022000036020433D6500433434A02A9CA50434F1E
:1022100004330A00CF5004335146D15004334146B1
:10222000D1500433D65004334946D1500433D650EC
:102230003B4BD82202A98B5004328B5004328B5076
:1022400004328B50E823CF50B63B7A22FF328B54B6
:1022500001328B54173AFF3AF121490002A8425249
:1022600002314352023142528532FF320100835221
:102270002C4C2A0020000EF0D7FD002004F0BCFBFF
:10228000012004F0B9FB032004F0B6FB042004F0A5
:10229000B3FB052004F0B0FB20009C300622002197
:1022A0000EF0BCFD2000A230062200210EF0B6FD8B
:1022B000FFF708FFE4235B005246E25004335A461E
:1022C000E25004334A46E25004334246E2500433BB
:1022D000E6500433E75081239B009D44F0BCBB468D
:1022E000B246A946A046F0BDFCFDFFFF02A0FFFFDD
:1022F000000034420000B4420000074300003443B1
:10230000000061430000874300809D4300001644A5
:102310000000FF4D0000FFE600F115FF00FF610027
:1023200000A1A1A170190020014B18787047C04688
:102330000261002070B5204CA544204B1B78002B77
:1023400003D180235B019D4470BD0FF0EDF8EFF3E6
:10235000108672B61A4B1B78002B24D1194C00231F
:102360000093194A002101A80EF058FDFC225200EA
:10237000164968460EF058FD80256D0129002000A1
:1023800012F042FC2A006946200012F01DFC86F380
:1023900010880FF0D3F80E4B1B78002B06D1074B9B
:1023A00000221A70CDE796246403D8E708F05EF99E
:1023B000074B00221A70F2E700F0FFFFE9600020EF
:1023C0000261002000D01200FC0F000070190020F4
:1023D000F6600020014B01221A707047F660002061
:1023E000014B01221A707047E960002070B5394B2B
:1023F0001888394B1D88FFF753FE04002800FFF7AB
:102400004FFE0500631C0BD0022C0FD0022D0DD007
:10241000012C2CDD012D2ADD0023002200262CE0DA
:10242000431CF1D100230022012626E0022C05D016
:10243000022D0FD00023002200261EE0FC225200B5
:10244000244926480EF0F0FC254B00221A70002388
:10245000002612E0FC2252001F4920480EF0E4FC46
:102460001F4B01221A7000230022002605E00123E1
:10247000012C15DDDBB201220026002E12D1002A2C
:1024800023D0002B18D1164B01221A70134A2100B9
:102490001048FFF71BFD0020FFF7A2FF300070BDC2
:1024A0000023E7E70E4B00221A70FFF737FE0020EB
:1024B000FFF796FF0026F1E7094B00221A70074A42
:1024C00029000548FFF702FDE5E7FFF7E9FC0126D3
:1024D000E4E7C04600D0121000C0121070190020AE
:1024E0000261002010B5031C642800D9642303494D
:1024F0007A22FF328B54FEF7CFFE10BD70190020F8
:1025000010B5022817D008D800280DD001280FD107
:102510000B4AF2235B00D1520AE0032808D1084A93
:10252000F4235B00D15203E0054AF1235B00D15252
:1025300005F040FA10BD024AF3235B00D152F7E7E1
:102540007019002030B50F4C40004508E068C00FFE
:10255000C0072843E060490048082169C90FC9073E
:1025600001432161520051086269D20FD2070A4328
:1025700062615B005A08A369DB0FDB071343A361A9
:1025800030BDC04670190020062800DD0020014B38
:10259000987070477019002010B5034B1B68002B12
:1025A00000D0984710BDC0468C270020014B00206A
:1025B00018567047D160002010B588B00400284B31
:1025C0001870022910D00C22002105A80EF026FC5C
:1025D0001022002101A80EF021FCE3B2062B0BD83B
:1025E000A400204B1B599F461F4B204A1A6008F03D
:1025F000E5FD0028E7D005E01B4B1D4A1A600020CE
:1026000001F006FA08B010BD174B194A1A600620EF
:1026100001F0FEF9F6E7144B154A1A60012001F0AB
:10262000F7F9EFE7104B124A1A60022001F0F0F9B7
:10263000E8E70D4B0F4A1A6001AA05A90020FFF731
:10264000ABFFDFE7084B0C4A1A6001AA05A900207E
:10265000FFF7A2FFD6E7044B084A1A60D2E7C0464C
:10266000D1600020444E01108C27002059B4001086
:10267000C13A00108D910010B59B0010A5A100106B
:10268000F0B5C64600B590B004000D0016001F005E
:1026900016AB1B789846494B984200D188E0072139
:1026A000380009F00FF9012300933A0029002000B7
:1026B0000FF0FCFA1022002108A80EF0AFFB8023D7
:1026C0005B020893F8235B0209938023DB020A93E1
:1026D000C0231B030A93102208A904A80EF0A4FB30
:1026E000F31C059A039236491140F20111431B0372
:1026F00019430591079B0393DB00DB0880229205B9
:10270000134307932F4B19400591102204A90CA8DD
:102710000EF08AFB0F9B03932B4A1A40BF0217430C
:102720000F974346002B45D020220E9B0393274949
:10273000194080239B020B435206F82189050A4069
:1027400013430E939B009B088022D20513430E93E4
:1027500005200AF039FF1E490CF034FA0DF0E5FEB1
:1027600080460DF03BFF87B2002F25D038000DF0DA
:10277000DCFE011C40460DF064FE8721C9050DF00A
:1027800080FE0DF02BFFC0B200023F0407430C9700
:102790000CAB3200290020000FF0DAFA2268012386
:1027A000AB409A431343236010B080BCB846F0BDE1
:1027B000062175E71822B8E70020E5E70000205061
:1027C0007F00FEFFFFFFFF9FFF83FFFFFFFFF5C1BD
:1027D0000050C300014B01221A707047E0600020D6
:1027E00070B5254B1B78002B17D1244B00221A7093
:1027F000214B01321A7000240B2C09D80FF050F92C
:1028000006210CF0DFF91E4B19550134E4B2F3E751
:102810001C4B00221A70002428E01A4B1B78002B56
:10282000F9D1194B1B789A009B18FA2B00D9FA237F
:10283000FF221A40FF239B1A9BB2144A1380144AAA
:102840001380104B01221A70E5E70D4D2B5D72339A
:102850009B00104A9958A2000F4BD1500FF020F95D
:1028600006210CF0AFF929550134E4B20B2CECD958
:10287000FFF7B0FF70BDC046DF600020C8600020D9
:10288000A42700209D1500209B150020AE6000208D
:10289000AA60002070190020342C0020034B1980FE
:1028A000034B1860034B00221A707047AC60002085
:1028B000C82B0020DD60002070B505000C000088EA
:1028C0000DF033FE1B490DF0C6FD1B490DF0D9FD7F
:1028D0000DF084FEC2B22B79A978C943C9B259431D
:1028E000090A5B1ADBB23F2528402D1AEDB2584386
:1028F00080096B439B11DBB20818C0B2CB18DBB266
:102900003F2A10D9403AD2B23F2A06D81A060B06FF
:102910001B0A0002134318430AE0090600041B02C5
:102920000843184304E000061B0409021843084347
:10293000206070BD00007F4300003F43F8B5CE46E5
:10294000474680B50400234B1D78002D05D1002398
:102950000360C0BCB946B046F8BD642DF9D0877895
:10296000E678B81963789846C0180DF0E3FD1A4967
:102970000DF071FD814628000DF0D7FD17490DF0CF
:102980006AFD051C011C48460DF0BAFD0028E0D187
:102990004946281C0DF05FFD051C38000DF0C5FDF3
:1029A000291C0DF06EFD0DF019FEA07030000DF029
:1029B000BCFD291C0DF065FD0DF010FEE0704046D9
:1029C0000DF0B3FD291C0DF05CFD0DF007FE6070ED
:1029D000BFE7C0469A15002000007F430000C842B0
:1029E000F0B5D6464F464646C0B504000368002BF6
:1029F00035D083789846C778D819667880190DF055
:102A000099FD051C40460DF090FD8046291C0DF0F7
:102A100022FD824638000DF088FD071C291C0DF0B0
:102A20001AFD814630000DF080FD061C291C0DF0BA
:102A300012FD051C514640460DF023FD0DF0CEFD64
:102A4000A0704946381C0DF01CFD0DF0C7FDE0706C
:102A5000291C301C0DF015FD0DF0C0FD6070E0BCB0
:102A6000BA46B146A846F0BD30B585B01D4B1B78BF
:102A7000002B0FD100240B2C09D80FF011F8FF21E7
:102A80000CF0A0F8184B19550134E4B2F3E7154BDC
:102A900001221A7000241FE0134D2B5D134A107899
:102AA000C018FF210CF066F8C9B2295502A80180B0
:102AB000FF23438083800023019301A9FFF7FCFEDD
:102AC00001A8FFF73BFF0A48A300019A1A50C0185B
:102AD000FFF786FF0134E4B20B2CDDD9FFF77AFE55
:102AE00005B030BDDF600020982B00209B15002032
:102AF000342C002000220AE0930006495958064B66
:102B00005B68DB03FBD4044B19610132D2B20B2AA0
:102B1000F2D97047CC2B002000002050F8B5DE46DB
:102B200057464E464546E0B506000D00141C807819
:102B30000DF0FBFC8046F0780DF0F7FC071C707878
:102B40000DF0F3FC061CA8780DF0EFFC8346E87846
:102B50000DF0EBFC824668780DF0E7FC81464146BB
:102B600058460DF06EFC211C0DF08BFC41460DF01B
:102B70006DFC051C391C50460DF063FC211C0DF04A
:102B800080FC391C0DF062FC071C311C48460DF01E
:102B900058FC211C0DF075FC311C0DF057FC061C77
:102BA000281C0DF01BFDC5B2381C0DF017FDC4B27A
:102BB000301C0DF013FDC0B22D0400022406284382
:102BC0002043F0BCBB46B246A946A046F8BD000073
:102BD00000B583B000230093082806D88000164B68
:102BE0001B589F46FF231B04009300230193134AA5
:102BF00001A96846FFF792FF0023002B18D003B00D
:102C000000BDFF231B020093EFE70D4B0093ECE7A1
:102C1000FF231B060093E8E70A4B0093E5E70A4B06
:102C20000093E2E7094B0093DFE7094B0093DCE7F1
:102C3000084A10610133E0E7604E01106666663FA6
:102C40000000FFE60000FF4D00F115FF00D0FF2B54
:102C500000FF6100342C002010B5054B1870FFF701
:102C6000B7FF044B00221A70FFF7B4FD10BDC04639
:102C7000E2600020DF600020F8B5304B18880DF0CE
:102C800059FC011CFE2080050DF0E5FB041C2C4BBB
:102C90001B78002B0AD12B4B1E78284B1B889E4299
:102CA0001BD9294B1878002835D0F8BD274B187848
:102CB000FFF78EFF2649274B0A0023CB23C223CBE5
:102CC00023C223CB23C223CB23C200231D4A13706C
:102CD0001B4A13701C4A1370DDE730000DF025FC11
:102CE000211C0DF0CEFB051C00240BE0A7001A49A7
:102CF000C9191748C0192A1CFFF710FF154BD851E6
:102D00000134E4B20B2CF1D901360E4B1E70FFF7E3
:102D1000F1FE0020C9E70F490F4B0A0013CB13C285
:102D200013CB13C213CB13C213CB13C2FFF7E2FEB4
:102D3000054B01221A700120B7E7C046AA600020A7
:102D4000E06000209F1500209C150020E26000201C
:102D5000042C0020CC2B0020342C0020F0B5C646DB
:102D600000B506000F001500984600240AE0335D08
:102D70009B004246EA50305D80002818FFF730FE85
:102D80000134E4B2BC42F2D380BCB846F0BD0000CE
:102D9000031C642800D96423014A13707047C0469D
:102DA0009A15002030B583B0050000240CE0019591
:102DB00001A8FFF7C3FD0648A300019A1A50C018E6
:102DC000FFF70EFE0134E4B20B2CF0D903B030BD96
:102DD000342C002010B509480388094A12789B1842
:102DE000FF2213400380074C2100FFF765FD206898
:102DF000FFF7D8FFFFF7EEFC10BDC046941500208A
:102E00009B150020942B002010B51A4B1B78002B2B
:102E100017D1194A1370174A01211170174A1370FC
:102E2000154C237872339B00154A9858FFF7BAFF68
:102E30002078013006210BF09DFE2170FFF7CAFCBF
:102E400010BD0E4B1B78002BEAD10E4B1B789A005D
:102E50009B18FA2B00D9FA23FF221A40FF239B1A52
:102E60009BB2094A1380094A1380044B01221A704D
:102E7000D6E7C046DF600020C86000209E15002015
:102E8000701900209B150020AE600020AA60002071
:102E900010B50F4B1B78002B10D10E4B1B68002B6D
:102EA00002D10C4B0C4A1A600A4B1868FFF77AFFE4
:102EB000FFF790FC064B01221A7010BD0020FFF7AF
:102EC00071FFFFF787FC024B00221A70F5E7C0463E
:102ED00000610020FC2B00200000FFE670B51D4BB8
:102EE0001C78002C05D01C4B1B78002B1ED020001A
:102EF00070BD1A491A480B00020023CA23C323CA13
:102F000023C323CA23C323CA23C3164B1868FFF75E
:102F100049FF154B1A88154B1A80FFF75BFC0D4BC8
:102F200001221A700C4B00221A70E0E710490B487E
:102F30000B00020023CA23C323CA23C323CA23C30B
:102F400023CA23C3FFF746FC034A137801331370E7
:102F5000CDE7C046DD6000200A610020783C0020FB
:102F6000CC2B0020002C0020AC600020AA600020A8
:102F7000342C002010B50D4B1C78002C06D00C4BC7
:102F80001B68002B00D09847200010BD0020FFF7E1
:102F900009FF0020FFF71CFEFFF71CFC054B1A88F9
:102FA000054B1A80014B01221A70EDE7DD6000200D
:102FB000A82C0020AC600020AA60002070B50C0096
:102FC0000F2803D88000284B1B589F460126274D09
:102FD0002BE00126264D28E00126264D25E001267E
:102FE000254D22E00126254D1FE00126244D1CE041
:102FF0000126244D19E00126234D16E00126234D1C
:1030000013E00126224D10E00126224D0DE001269D
:10301000214D0AE00126214D07E00126204D04E064
:103020000126204D01E004261F4D002A12D0230066
:103030001E4A31002800FFF791FE23001C4A310090
:103040002800FFF78BFE23001A4A31002800FFF703
:1030500085FE70BD2300164A31002800FFF77EFE72
:10306000FFF7B8FBF5E7C046844E0110084F01108A
:10307000E84E0110F84E0110E44E0110EC4E011024
:10308000004F0110104F01100C4F0110DC4E0110C9
:10309000E04E0110F04E0110144F0110044F0110CA
:1030A000184F0110FC4E0110F44E0110042C0020AA
:1030B000342C0020CC2B002070B50C4B196840221A
:1030C0000B480DF0B1FE00240CE0A300084DED18F4
:1030D0002800FFF733FC296800222000FFF76EFF6D
:1030E0000134E4B20F2CF0D970BDC046642C00202E
:1030F000682C002010B5024B1860FFF7DDFF10BDF3
:10310000642C002010B5074B1B78002B00D010BD9D
:103110000548FFF7EFFFFFF75DFB024B01221A7036
:10312000F5E7C046DF600020181A0020144AF0239B
:103130005B00D35C834209D0002B03D1E133FF3322
:103140000521D1540E4AF0235B00D0540C4AF023E1
:103150005B00D25C0B4B1A700B4B1B78052B0AD013
:103160000A4B15221A80094B1A88094B1A80094B01
:1031700000221A707047084B1A88044B1A80F2E735
:10318000701900209B150020DE600020AE6000203A
:10319000AA600020DF600020B060002010B5054B61
:1031A00018604908044C2000FFF778FB034B1C60B3
:1031B00010BDC046002C0020DD2E0010C82B0020C2
:1031C00010B5064B1870064B00221A60054B1960AB
:1031D00019210548FFF762FB10BDC046E3600020DF
:1031E000C42B0020A82C0020752F001070B582B0D1
:1031F00004000D00254B1B78002B0CD0244B1C70B9
:103200000023244A1370244A1370052C16D8A400F6
:10321000224B1B599F46224E224930000EF02AFDB8
:103220000200002300931B3300213000FFF728FA2F
:10323000164B01221A70FFF75DFCDFE71A4B1B4AA1
:103240001A601B4AF0235B00D05CFFF76FFF002D74
:1032500015DA02B070BD144B164A1A60F1E7124B32
:10326000154A1A60EDE7104B144A1A60E9E70E4B55
:10327000134A1A60E5E70C4B124A1A60E1E7FF2D8A
:1032800000DDFF25E8B2FFF783FDE2E7E160002003
:10329000DE600020DF600020E4600020C44E0110EA
:1032A000000020501C4F0110C42B002005310010DD
:1032B00070190020D52D0010692A0010912E0010E1
:1032C000092E0010E127001010B5FF2903DC0029AA
:1032D00002DA152100E0FF21044B1980044B18602D
:1032E0001E210520FFF782FF10BDC046B060002000
:1032F000FC2B002010B5144A144900F097F900285F
:1033000000D110BDFFF7B8FC002803D1104B1B788B
:10331000002BF6D00F4B1B68002B0ED098470028CF
:10332000EFD000240B4B1C600B4AF0235B00D05CF9
:10333000FFF7FCFE094B1C70E3E7094B1B68002BF1
:10334000DFD09847DDE7C046B83A00201A410000B8
:10335000E4600020C82B002070190020DF600020EE
:10336000C42B002000B587B005AA0B4B197811704B
:1033700004AB1970094902910121019100930123C5
:103380006931074800F040FA002802DD012007B04B
:1033900000BD0020FBE7C046545A01101027000072
:1033A000D817002030B585B01E25002410E003AAF0
:1033B0000B4B13800023009302336A21094800F06D
:1033C00007FA0400322009F00FFC0AF0BBF9013DB6
:1033D000002C01D1002DEAD1FEF750FB05B030BD25
:1033E00009C1FFFFD817002010B584B00400154BA9
:1033F0001880232817D8C0B20538C0B27F231840E0
:10340000002C00D1852004236A46137350730E4BA1
:10341000019300230093023303AA6A210B4800F0B2
:103420004BF904B010BDAF235B00984207D8283891
:103430000A210BF09FFBC0B21F30C0B2DEE7AF2005
:103440004000F4E7B660002010270000D8170020E5
:1034500070B5064B1D880020FFF7C6FFFEF78CFAFB
:1034600004002800FFF7C0FF200070BDB6600020F8
:1034700000B585B0022812D0E02103AB0A221A70F1
:103480005970084B019300230093023303AA6A2169
:10349000054800F011F90228F3D105B000BDE42180
:1034A000EBE7C04610270000D817002000B587B012
:1034B00005AA0E4B1978117004AB19700C490291D2
:1034C000012101910093012369310A4800F09CF920
:1034D0000230012808D904AB1A78074B1A70D0B211
:1034E000C007C00F07B000BD0120FBE7545A011010
:1034F00010270000D8170020382F002010B5FA211F
:103500002B4A490200F092F8002800D110BDFFF7C5
:10351000CDFF284B187000281AD0274B1B78002BA2
:103520001AD0254B1B78002B21D1234B1B78002B65
:10353000ECD0224B1B785B069A0F214909788A420E
:10354000E4D0022A23D9032A24D1FF20000223E059
:103550001C48FEF7E5FAE0E7FEF776FA0028E0D02F
:10356000174B00221A70144B01321A70DDE7FEF778
:103570006BFA0028D9D1104B00221A70124AE223AC
:103580005B00D05C01214942FFF730FECDE753B22A
:10359000002B07D1FF200004094B1A706421FFF7AC
:1035A00093FEB3E7FF231B04E62000061843F3E76E
:1035B000F03A0020C460002003610020382F002072
:1035C000FC600020551B00107019002010B500226F
:1035D000002100200AF008F9FEE70000072804D8BF
:1035E0008000024B9C466044016070470C8005409F
:1035F00010B5072802D90024200010BD8000044B1C
:103600009C466044046800210520FFF7E7FFF3E7CC
:103610000C80054010B501000520FFF7DFFFFFF724
:10362000D5FF10B50520FFF7E3FF10BD106053680C
:10363000834205D9C31A013B8B4205D20020704753
:10364000834204D2C31AF7E750600120F7E7002055
:10365000F5E730B51860002A0BD15C6884420BD9BD
:10366000041B013C0025002D0BD1A14209D91000FB
:1036700030BD58600020FBE7844205D2041B0025C2
:10368000F1E758600120F3E71000F1E710B501E021
:103690000AF058F80A21034811F066FA0028F7D01A
:1036A00010BDC0461018002010B5024811F074FA81
:1036B00010BDC04610180020F0B5D6464F4646460D
:1036C000C0B584B081460F00924698460CAB1E7878
:1036D000FFF7DCFF0D9C002509F056FB02000B1ED6
:1036E00018DB12196B41002B1ADB002B1CDB02923A
:1036F0000393009643465246390048460EF02EFE8C
:103700000400FFF7D1FF200004B0E0BCBA46B14688
:10371000A846F0BD074B084A3F2108480AF0A4F824
:1037200001225242064BE0E7024B034A3F21034885
:103730000AF09AF82C4F0110AC4F0110484F0110BD
:10374000FFFFFF7FF0B5D6464F464646C0B584B072
:1037500081460F00924698460CAB1E78FFF796FF05
:103760000D9C002509F010FB02000B1E18DB12193E
:103770006B41002B1ADB002B1CDB0292039300969B
:1037800043465246390048460EF007FE0400FFF754
:103790008BFF200004B0E0BCBA46B146A846F0BD9D
:1037A000074B084A3F2108480AF05EF801225242BE
:1037B000064BE0E7024B034A3F2103480AF054F866
:1037C0002C4F0110AC4F0110484F0110FFFFFF7F3D
:1037D000F0B5C64600B582B080460D0016001F0049
:1037E00008AB1C78FFF752FF00943B003200290021
:1037F00040460EF0A7FD0400FFF756FF200002B080
:1038000080BCB846F0BD0000F0B5DE4657464E46D7
:103810004546E0B585B08046894692469B46FFF70F
:1038200035FF109C002509F0AFFA06000F1E31DBB2
:10383000A4197D41002D33DB002D35DB0294039567
:10384000012300935B465246494640460EF086FDF2
:10385000109C002509F098FA02000B1E2ADB1219B1
:103860006B41002B2CDB002B2EDB029203930023F9
:1038700000930F9B0E9A494640460EF08EFD0400C1
:10388000FFF712FF200005B0F0BCBB46B246A946C8
:10389000A046F0BD0F4B104A3F21104809F0E4FF4D
:1038A000012464420E4DC7E70A4B0B4A3F210B48E7
:1038B00009F0DAFF074B084A3F21084809F0D4FF16
:1038C00001225242064BCEE7024B034A3F210348F6
:1038D00009F0CAFF2C4F0110AC4F0110484F0110E6
:1038E000FFFFFF7F10B5FEF761FE022801D00248FE
:1038F00010BD0248FCE7C046C44F0110B45001108F
:1039000010B5002010F0CCF810BD000010B510214B
:10391000064811F081F9002800D110BD044B0122A6
:103920001A70024811F038F9F7E7C046181800205D
:10393000F360002010B51021064811F06DF9002841
:1039400000D110BD044B00221A70024811F024F976
:10395000F7E7C04618180020F360002070B5050096
:1039600064210D4811F000F9041E09D10B4B22000F
:103970000B492800FFF76DFE051E08D1200070BD21
:10398000084B1C78E4B2044811F006F9EEE7FFF7A3
:10399000BDFF2C00F2E7C04618180020403E002072
:1039A000A0860100F3600020037801330370044B0C
:1039B0001B785BB2022B01D0024870470248FCE73B
:1039C0005C160020FC510110345301100C4B1860A0
:1039D0000C4B98420BD00C4B98420CD0FA235B0056
:1039E000984200D07047094B01221A60FAE7074B52
:1039F00004221A60F6E7054B08221A60F2E7C04677
:103A0000CC2D0020461000008D200000C42D002089
:103A100010B50400002002F067FE022C2CD0062C0A
:103A20001DD0012C10D0012002F05EFE1848FFF7D7
:103A3000CDFF184B184A1A60184B194A1A60194BD7
:103A40001C7010F039FC10BDFA204000FFF7BEFFDB
:103A5000104B154A1A60114B144A1A60EFE7012007
:103A600002F042FE1248FFF7B1FF0A4B114A1A60FA
:103A70000A4B0B4A1A60E2E7FA204000FFF7A6FF64
:103A8000044B0D4A1A60054B0C4A1A60D7E7C04632
:103A90008D200000C82D002035A30010D02D00205F
:103AA000013900105C16002029AF0010B941001048
:103AB00046100000D5B500102189001045460010C1
:103AC000F8B506000C0015000120002140420FF05F
:103AD0005BFB234B9F6C234B1B68BB421CD2FB1A26
:103AE000214A12689A4202D8204B01221A70204BB8
:103AF0001968204A3000FFF799FD002802D01E4BBC
:103B000001221A701D4B1B78002B0AD11C4B1B681D
:103B100098471A4B1870F8BDFB1A1A4A944663442A
:103B2000DEE73000FFF71AFF0028F4D00F4B1B78B8
:103B3000002BF0D0104B1B78002BECD0094B1F60F2
:103B400000230A4A13700C4A13700C4A1370FFF7D3
:103B5000F1FE0D4B1B68290020009847DBE7C046AB
:103B600000001150E8350020C42D00200161002024
:103B7000CC2D0020A060002010610020F460002007
:103B8000D02D0020FF070000C82D0020084B1B7817
:103B90005BB2022B07D0062B07D0012B01D00548C2
:103BA00070470548FCE70548FAE70548F8E7C046CE
:103BB0005C160020585C0110445201102053011083
:103BC000D0650110084B1B785BB2022B07D0062B87
:103BD00007D0012B01D0054870470548FCE7054890
:103BE000FAE70548F8E7C0465C160020185C0110AB
:103BF00014520110F4520110A46501100020704706
:103C000010B5134B1B785BB2022B13D0062B18D0C8
:103C1000002B05D00B78002B0FD1FFF777FE0CE0BF
:103C20000B78302B03D0212B01D0812B05D1FFF74E
:103C30006DFE02E00B78212B00D010BDFFF766FE71
:103C4000FBE70B78012BF8D1FFF760FEF5E7C046E4
:103C50005C16002070B51D0004AB1E88434B002489
:103C60001C57012C40D0022C12D0002C00D070BD6B
:103C70000029FCD1002AFAD12878102804D032007B
:103C8000290001F00FF8F2E7A81C01F0E9FFEEE7C8
:103C90000029ECD1002AEAD12B78112B05D0132B67
:103CA000E5D133480DF010FAE1E76B78002B19D01D
:103CB000304B3148012505701904090CC1831A0CD9
:103CC0000284002242832D4C84832D490D701A04F6
:103CD000120CCA831B0C0B8400234B838C83FDF7CF
:103CE00065FAC4E70023E4E70029C0D1002ABED169
:103CF0002B78002BBBD16B78082BB8D1EC78002C3B
:103D000030D0A8780CF011FC1E490CF0A4FB061C66
:103D10002B79002B28D020000CF007FC19490CF05F
:103D20009AFB041C211C301C0CF0FAFB002800D06C
:103D3000341C1148012505702204120CC283230C87
:103D40000384002343830D4A82830D490D702304AD
:103D50001B0CCB83240C0C8400234B838A83FDF73C
:103D600025FA84E70026D3E70024DBE75C16002071
:103D7000785101106666263FA83C002002430000EF
:103D8000743D002000007F43064B1B785BB2022B82
:103D900003D0062B03D1044870470448FCE70448CD
:103DA000FAE7C0465C160020E46501108852011055
:103DB0006C5C011070B5EE2824D0002825D080005E
:103DC0001E4BC558280010F09DFEC0B21F2800D918
:103DD0001F20002327E05A1C194CA15C0902E25C59
:103DE0000A4344001749625202330130112BF2D9C1
:103DF000154A144B13CB13C211001A680A609B8832
:103E00008B8019E000200023F0E70C4B1968022298
:103E10000E480DF009F8012007E05A1CEC5C510037
:103E2000094BCC52D3B29842F7D801304000C0239E
:103E30009B001843044B1880034870BD8015002078
:103E4000BC5101108C200020B8270020BA27002088
:103E500000B591B040226946002010F0AFF8002074
:103E600010F0C2F8064B1B785BB2002B01D011B0EA
:103E700000BD04480DF0F8F8684606F01BFCF6E7B4
:103E80005C16002090510110F0B583B005001400BD
:103E9000012966D113785B069B0F012B58D0022BAA
:103EA00003D0002B01D000205CE06378022B24D0EB
:103EB000072B03D0012B19D0002053E0227963791E
:103EC0001B021343042B03D0052B08D0002049E02C
:103ED0002433264A210028000FF07AFA42E08D337D
:103EE000234A210028000FF073FA3BE02823214ADF
:103EF000210028000FF06CFA34E0227963791B026C
:103F00001343072B30D11C4B1B785BB2022B0FD015
:103F10006B469F1D194E0222310038000CF084FFC1
:103F20003B883200083A210028000FF051FA19E0CE
:103F30006B469F1D124E0222310038000CF074FFB8
:103F40003B883200083A210028000FF041FA09E0CE
:103F500051780C480DF0B8F8210028000FF01CFA39
:103F600000E0012003B0F0BD0020FBE73416002084
:103F7000A0150020D05101105C160020085001103F
:103F8000E0500110A8510110012815D0022907D0D6
:103F900000290BD1022A29D0002A29D006207047F7
:103FA000022A1FD0002A1FD00800F8E7022A21D0D9
:103FB000002A21D00820F2E7022907D000290BD1DE
:103FC000022A1FD0002A1FD00720E8E7022A15D0B6
:103FD000002A15D00320E2E7022AE0D0002A15D0FB
:103FE0000020DCE70120DAE70320D8E70720D6E746
:103FF0000520D4E70020D2E70420D0E71000CEE768
:104000000420CCE70820CAE70620C8E70520C6E759
:104010000120704710B58422002102480CF0FEFEFA
:1040200010BDC046F431002010B50020FFF7F2FFAC
:1040300010BD0000F0B5C64600B580460D008B7976
:104040005D2B24D10B79DF00FF1ABFB21937BFB245
:10405000974221D80C780C19002605E0104A5370BD
:104060000136F6B22378E4182B79B34210D963787D
:10407000052BF7D1210040460EF0B4FD00280DD0ED
:10408000A378DA09012AE9D0054A9370E8E7002706
:10409000380080BCB846F0BD0027F9E70027F7E7F5
:1040A000F431002030B583B00400144840788842D1
:1040B00006D0124A92788A420CD0012003B030BD5B
:1040C0000F4A002A18D09AB20E490020FFF798FD37
:1040D0000120F3E70C4D9BB200932B00002200213E
:1040E0000020FFF7B7FD2B00443B997840232A00BE
:1040F00020000EF0EBFDE1E70120DFE7F4310020C6
:10410000013C0010F83100203832002010B50EF0CC
:10411000CDFC002803D10023002B08D110BD0EF0E8
:10412000CDFC002801D10123F6E70023F4E70B4B77
:10413000997800200EF006FE0028EFD1074CA178F8
:104140000EF09CFD22004432A178402300200EF0A6
:10415000BDFDA17800200EF0A5FDDFE7F4310020C1
:1041600070B505000C000EF0A9FC002806D18121D5
:1041700000200EF083FD002803D170BD0EF0A6FCD8
:10418000F5E7231C402C00D940239CB2094E2200A5
:10419000290030000CF048FE351F697823003200FA
:1041A00000200EF093FD697800200EF07BFDFFF7F4
:1041B000ADFFE2E7F831002010B5104B5C780EF04F
:1041C00075FC002806D10023002B13D0002C09D148
:1041D000002010E00EF072FC002801D10123F3E76B
:1041E0000023F1E7210000200EF0ACFD002803D1F0
:1041F000013000E0002010BD0020FCE7F431002079
:1042000010B53C22002102480CF008FE10BDC0464B
:104210005428002010B50020FFF7F2FF10BD000069
:10422000F0B583B006000F001500FEF7BFF90228B5
:104230004CD13B79DC00E41AA4B21234A4B2AC42F3
:1042400048D80023002B09D00025002D44D0397810
:1042500079184B78212B11D0002438E01A01D21A9A
:1042600092001F4882185278002A02D00133DBB234
:10427000E8E71A01D11A89004518E6E7A9630B7827
:10428000C9183A796B1C0193AB1C009303233000CF
:104290000EF0C2FC002821D0BB79012B13D00123E2
:1042A0002B71BB782B70AA6BD179137A1B020B434D
:1042B000EB80A97800290AD02A003032062330008A
:1042C0000EF004FD03E0FB79EB70E8E7002420002A
:1042D00003B0F0BD0024FAE70024F8E70024F6E775
:1042E0005428002070B582B005001D4C0020002825
:1042F0000AD0002830D162788A4213D0A2788A424C
:104300001AD0012002B070BD0401241AA400144A7E
:104310001419A2788A42ECD062788A42E9D001303E
:10432000C0B2E4E70F4A002A18D0210008319AB23F
:10433000FFF766FC0120E5E7260030369BB20093CC
:10434000330000220021FFF785FCA178062332000C
:1043500028000EF0BBFCD5E70020D3E70120D1E711
:1043600054280020013C0010F0B5C64600B582B0CC
:104370000600150012781F231340012B00D01FE107
:1043800028790024002C0DD0FF24002C00D01CE143
:104390002700602318001040134239D101290BD0A7
:1043A00001200EE123011B1B9B008E4FDB5D984219
:1043B000EBD00134E4B2E5E7EA786B78062B06D05F
:1043C000062B00D005E1222A12D00020F9E0212A94
:1043D000F6D123011F1BBF00824BDF19BA6B002AE5
:1043E00000D1F4E01378290030000EF0F1FFE8E08E
:1043F0002000FFF7C9FC02003B01DF1BBF00794B27
:10440000DF19FB88290030000EF0E2FF0120D8E020
:10441000202800D0DFE06B780B2B00D9DDE09B007B
:10442000714AD3589F46012901D00120C9E0EA789A
:10443000A97823011B1B9B0008336A4FFF18A8793A
:10444000EB791B020343181C252B00D9252080B2D1
:10445000002909D0012B16D97B1C9C4639700138E4
:1044600080B20123984602E0BC46002398460090A3
:1044700063462000FFF7C2FB030043449BB2002BBE
:1044800005D100209DE0BC4600239846EFE73A00A6
:10449000290030000EF09CFF012092E0012903D09A
:1044A000032915D001208CE0AA79EB791B02134374
:1044B000062B01D9002084E02201121B9200303229
:1044C00048498A18290030000EF082FF012078E068
:1044D000EA78A97823011B1B9B0030334148C3189D
:1044E000AE79E87900023043051C062800D906257C
:1044F000ADB2002904D0012802D91878884205D02D
:1045000000952000FFF7A6FB01205AE00133013D92
:10451000ADB2F5E7012901D0012052E0E97823018D
:104520001F1BBF002F4BDF197971304B002B04D0BC
:10453000200000E000BF002843D0290030000EF02A
:104540002BFF01203DE0012901D0012039E02201AB
:10455000171BBF00234AD21905320123290030005E
:104560000EF036FF01202CE0012901D0012028E0C7
:104570002201171BBF001B4AD21904320123290054
:1045800030000EF025FF01201BE0012903D0032994
:1045900007D0012015E0290030000EF0FDFE0120BB
:1045A0000FE0A97823011F1BBF000E4BDF193971E3
:1045B0000F4B002B13D0200000E000BF012000E0D3
:1045C000002002B080BCB846F0BD0020F9E7002012
:1045D000F7E70020F5E70020F3E70020F1E70120EE
:1045E000EFE7C04654280020585201100000000098
:1045F0000000000010B50301181A8000104B1818B5
:1046000044780EF053FA002806D10023002B13D073
:10461000002C09D1002010E00EF050FA002801D142
:104620000123F3E70023F1E7210000200EF08AFBCD
:10463000002803D1013000E0002010BD0020FCE77D
:104640005428002010B50020FFF7D4FF10BD000053
:10465000F8B504000F0016001D0003011B1A9B0093
:104660001F4AD318597800200EF008FB002825D0E7
:10467000002F24D02B1C242D00D924239DB2184AAE
:104680002301191B890051180F721B1B9B00083353
:10469000D01801302A0031000CF0C6FB0135ADB254
:1046A0000F4B2001021B920008329A18001B800059
:1046B000181841782B0000200EF008FBF8BD2B1CC9
:1046C000252D00D925239DB22001001B8000083034
:1046D000034B18182A0031000CF0A6FBE0E7C04697
:1046E0005428002010B513000A0001000020FFF735
:1046F000AFFF10BD107003120F20184050700B0157
:1047000018435070091191707047000070B5124D38
:10471000802424012A0021002000FFF7EBFFEA1C7F
:1047200021002000FFF7E6FFAA1D21002000FFF76F
:10473000E1FF2A00093221002000FFF7DBFF2A00F9
:104740000C3221002000FFF7D5FF2A000F32210094
:104750002000FFF7CFFF70BD7460002010B540222D
:10476000002102480CF05AFB10BDC0460C2D002061
:10477000014B18707047C046ED600020014B187364
:104780007047C0460C2D0020014B58737047C0463F
:104790000C2D002070B5FDF77FF904000E4D2B683D
:1047A000C01AC317C01858400AF0F4FC2C6000224D
:1047B0000A4B0AF060FC0AF029FD094B00215A5E01
:1047C0001C7808490C70801882B200B21880FF284B
:1047D00001DDFF3A1A8070BD4C3B002000408F4045
:1047E000B46000200C2D0020024B1A78024B5A7046
:1047F0007047C046A45401100C2D0020064B042223
:104800009A732F32DA73303A1A74013A5A740121CA
:1048100019765A767047C0460C2D002010B5C4B2E8
:10482000000A002307E019000E31044A54540131F4
:1048300050540233DBB20D2BF5D910BD0C2D0020E6
:104840000A4B01221A7000225A7003329A70084AE9
:10485000117AD970D1791971917959715179997108
:104860001179D971D2781A727047C0460C2D002088
:104870007019002010B50400FFF770FF8120FFF7CA
:1048800077FF012C09D0064B1C70064B197840238A
:10489000034A00200FF02CF910BDFFF7D1FFF4E719
:1048A0000C2D0020ED60002070B586B06C462A4BC0
:1048B0000433220070CB70C270CB70C2022837D094
:1048C000032841D00023002500E00133052B10D838
:1048D000224AD2187D32FF3214780522D21A885C1F
:1048E0008442F2D01D4AD2187D32FF321070012569
:1048F000EBE7002D19D18120FFF740FF1848012375
:104900008373164B1A7AC273DA7902749A794274F5
:104910005A7982741A79C274DB78037515301822BB
:1049200069460CF081FA06B070BDFDF759FDE2E76B
:104930008120FFF723FF0A48022383730F301022E0
:1049400008490CF071FAEEE78120FFF717FF044BDE
:1049500003229A73E7E7C046A4540110701900209F
:104960000C2D00208C2D002070B504000E001500C9
:10497000FFF7F4FE2120FFF7FBFEFFF70BFFFFF729
:1049800033FF2000FFF700FF482C68D8A4003E4BFF
:104990001B599F468020FFF7F1FE00236BE0F07A61
:1049A000431E9841C0B201F09FFEF27A374B1A7055
:1049B0008020FFF7E3FEF0E731000C31F07AFFF7DB
:1049C00073FFEAE78020FFF7D9FEF27A304B1A70C6
:1049D000E3E78220FFF7D2FEFFF710FFDDE780203C
:1049E000FFF7CCFED9E79020FFF7C8FEF27BF17A03
:1049F000307B00F039FAD0E72648FDF791F8CCE794
:104A00008020FFF7BBFEC8E78320FFF7B7FE6420D6
:104A1000FFF704FFC1E78020FFF7B0FEBDE780206D
:104A2000FFF7ACFEF27A0F231340033BDAB20C2AF5
:104A300003D89300184AD3589F460120FEF70CF97B
:104A4000ABE70320FAE70420F8E70520F6E70620A5
:104A5000F4E70720F2E70820F0E70220EEE7002362
:104A6000AB4202D201339BB2FAE78020FFF786FE09
:104A700093E70133DBB21F2BFBD94023074A2121E7
:104A800000200FF035F870BD4C530110EE6000208F
:104A900060160020551B0010705401100C2D0020D2
:104AA00070B50C00150010280DD080280FD00128FB
:104AB00000D070BD881C01F0D3F8A07A2A00210034
:104AC000FFF752FFF5E7881C01F0CAF8F1E74878D4
:104AD000FFF7D0FEEDE70000094B1B780A2B07D04B
:104AE0000B2B09D0064B0A221A70054B1878704719
:104AF000034B0B221A70F8E7014B0C221A70F4E7F3
:104B00006116002070B504005D4B1B78002B04D1AA
:104B10005C4B1B78302B0BD070BD5B4B1A885B4B0A
:104B200018785B49FFF7BCFF554B00221A70F3E77A
:104B3000FFF714FE3020FFF71BFEFFF72BFEFFF7F9
:104B400053FE544B1B78012B2DD0022B00D18AE051
:104B50002378514DAB706378EB70A3782B71E378B9
:104B60006B7123790F210B40AB716079A3791B0224
:104B700003431B11EB71E3792B72237A194069729D
:104B8000617AA37A1B020B431B11AB72FFF7A4FFE0
:104B9000E872424B197840232A0000200EF0A8FF4B
:104BA00003F040FAB8E701F043FC83783A4D2B73E9
:104BB000C3786B730378AB734378EB7303792B740F
:104BC00043796B74037AAB74437AEB7483792B75F6
:104BD000C3796B75837AAB75C37AEB7501F028FCEA
:104BE00083782B76C3786B760378AB764378EB7655
:104BF00003792B7743796B77037AAB77437AEB773B
:104C000082792023EA54C2790133EA54827A01334B
:104C1000EA54C27A0133EA5401F00AFC8278242370
:104C2000EA54C2780133EA5402780133EA544278F4
:104C30000133EA5402790133EA5442790133EA54E8
:104C4000027A0133EA54427A0133EA548279013319
:104C5000EA54C2790133EA54827A0133EA54C27ABF
:104C60000133EA5474E70E4D280001F033F80A4B83
:104C70000C3307CD07C307CD07C307CD07C367E7CD
:104C8000EF600020601600205E160020F06000201B
:104C90004C2D0020EE6000200C2D0020ED60002047
:104CA0008C3B002010B5054B01241C70044B187080
:104CB000044B1A8004480CF0B7F810BDEF600020D8
:104CC000F06000205E1600204C2D002010B5024B35
:104CD00018180CF0A9F810BD0C2D0020502800D198
:104CE000B0E003D960282FD0FF2010E0402800D981
:104CF000AAE0202805D34B2924D88B00564AD35844
:104D00009F46002803D0102800D09FE00020704765
:104D10009520FCE70020FAE72A39504B59187D31DD
:104D2000FF310878F3E704394C4B59187D31FF31D6
:104D30000878ECE70020EAE70020E8E76820E6E7EB
:104D40000020E4E70020E2E7A92979D88B00444A53
:104D5000D3589F46FF20DAE70220D8E70120D6E7A4
:104D60002320D4E70020D2E7B920D0E71A20CEE7ED
:104D70000120CCE70020CAE74020C8E70020C6E7B2
:104D80004020C4E70020C2E74020C0E70120BEE782
:104D90000020BCE70120BAE70020B8E70120B6E711
:104DA0000020B4E73B20B2E73420B0E73B20AEE779
:104DB0003420ACE73B20AAE73420A8E73D39294B53
:104DC000585CA4E73D39274B585CA0E71A209EE7C2
:104DD0001A209CE71A209AE75E2098E7012096E7C0
:104DE000502094E7FD2092E7002090E700208EE716
:104DF000C6208CE70F208AE70F2088E7302086E75F
:104E0000612084E7AE2082E7902080E7D9207EE70A
:104E1000D4207CE714207AE7542078E7412076E715
:104E2000152074E7542072E7C72070E779206EE7F9
:104E30009C206CE733206AE7362068E7632066E74A
:104E4000002064E7002062E7FF2060E7FF205EE7C4
:104E500022205CE703205AE7C0540110701900209B
:104E6000F055011074600020F0B58BB006000F0003
:104E7000150008A90F70487000248C70CC700A715E
:104E800005220E20FFF722FF00941A22002101A81C
:104E90000BF0C4FF07E03919C9B23000FFF71EFF5D
:104EA0006B4618550134A542F5DC2A0069461320EB
:104EB000FFF70CFF0BB0F0BD70B5002406E0281C16
:104EC0000BF068FDA3000F4AD0500134A0235B0013
:104ED0009C4215D220000BF028FBF42189050BF031
:104EE000D0FA8221C9050BF0ACFA051C06490BF07B
:104EF0000FFB0028E3D1A300024A00219950E4E708
:104F000070BDC0468C1B00200000FEC010B5002400
:104F100005E0A3001B4AC1210906995001347F2CEA
:104F20002FD8002CF5D00F2C0FD91F2C1BD9200007
:104F30000BF0FBFAF42189050BF0A3FA12490BF0F0
:104F400080FAA3000F4AD050E8E720000BF0EDFAFA
:104F5000FA2189050BF095FA0C490BF072FAA300BF
:104F6000084AD050DAE720000BF0DFFAF621890575
:104F70000BF087FA06490BF064FAA300014AD050FF
:104F8000CCE710BDA020002000007E400000F840CB
:104F900000009E4010B500240EE020000BF0C5FA82
:104FA000F42189050BF06DFA8021C9050BF049FA4F
:104FB000A300034AD05001347F2CEED910BDC04667
:104FC000A022002010B5041C0BF0D6FA0BF0B2FAA8
:104FD0008221C9050BF03AFA0BF0CEFA00280BD06B
:104FE0008221C905201C0BF031FA8421C9050BF080
:104FF00048FA0BF0F3FA10BD0020FCE710B51C1CBA
:10500000022818D0032805D0002801D0201C10BD8C
:10501000141CFBE7101C0BF019FA041C02990BF08E
:1050200069FA002809D10399201C0BF079FA0028AD
:10503000ECD0039CEAE70C1CE8E7029CE6E710B51D
:10504000FFF73AFFFFF762FFFFF7A4FF10BD000074
:1050500070B505000C0000786B781B020343AA783A
:1050600012041343E87800061843FFF7ABFF284EFD
:105070008000805927490BF004FA2070030A6370FE
:10508000030CA370000EE070287A6B7A1B020343B6
:10509000AA7A12041343E87A00061843FFF792FF36
:1050A000800080591C490BF0ECF92072030A6372EE
:1050B000030CA372000EE07228796B791B02034384
:1050C000AA7912041343E87900061843FFF77AFF20
:1050D0008000335823711A0A62711A0CA2711B0ED8
:1050E000E371287B6B7B1B020343AA7B12041343EF
:1050F000E87B00061843FFF765FF800033582373F1
:105100001A0A62731A0CA2731B0EE37370BDC046B9
:105110008C1B00200000A04300002043F0B5DE46B9
:1051200057464E464546E0B589B005000C00C678A6
:10513000B3091E000B700C22002105A80BF06EFEB7
:105140000C22002102A80BF069FE002E0CD1012ECA
:1051500000D99FE0022E00D932E109B0F0BCBB4675
:10516000B246A946A046F0BDAA781209EB78012103
:10517000194009010A43DD4B984653009B189B00D8
:10518000434405AA83CB83C200239B46A278E378DD
:105190001B021343217909040B43627912061A4357
:1051A0006B46587D8023DB050193C02109060091E1
:1051B0005B460799FFF722FFA21CA070030A9146E5
:1051C000E370030C2371000E6071C1221206924637
:1051D000A279E3791B021343217A09040B43627A13
:1051E00012061A4306996B46187D5F46019757468B
:1051F00000975346FFF702FFA071020AE271020C0A
:105200002272000E6072EA789206D20E53009B184A
:105210009B00434402AA83CB83C2A27AE37A1B0297
:105220001343217B09040B43627B12061A436B462E
:10523000587A8023DB050193C021090600915B4663
:105240000499FFF7DBFEA072020AE272020C2273DD
:10525000000E6073A27BE37B1B021343217C0904D5
:105260000B43627C12061A4303996B46187A5B461D
:10527000019353460093FFF7C1FEA073020AE27345
:10528000020C2274000E6074210012314846FFF7B0
:10529000DFFE5CE76B785B06DA0E944B98465300B2
:1052A0009B189B00434405AA83CB83C200239B46E3
:1052B000A278E3781B021343217909040B43627936
:1052C00012061A436B46587D8023DB050193C021EB
:1052D000090600915B460799FFF790FEA21CA0709B
:1052E000030A9146E370030C2371000E6071C12222
:1052F00012069246A279E3791B021343217A09042C
:105300000B43627A12061A4306996B46187D5F4674
:105310000197574600975346FFF770FEA071020AA7
:10532000E271020C2272000E60726A78D209A978CA
:105330000F230B405B0013435A00D3189B004344D8
:1053400002AA83CB83C2A27AE37A1B021343217B96
:1053500009040B43627B12061A436B46587A80237A
:10536000DB050193C021090600915B460499FFF714
:1053700045FEA072020AE272020C2273000E6073F4
:10538000A27BE37B1B021343217C09040B43627C59
:1053900012061A4303996B46187A5B4601935346EB
:1053A0000093FFF72BFEA073020AE273020C227433
:1053B000000E6074210022314846FFF749FEC9E61D
:1053C0002A78D206D10E05AF930E5B189B00474A90
:1053D000944663443A0043CB43C200239A46A278E2
:1053E000E3781B021343217909040B436279120607
:1053F0001A4378788023DB059B460193C0231B0664
:10540000009353460799FFF7F9FDA21C9046A07040
:10541000030AE370030C2371000E6071C1221206AF
:105420009146A279E3791B021343217A09040B43C5
:10543000627A12061A4306993878574601974F4602
:1054400000974B46FFF7DAFDA071020AE271020CE9
:105450002272000E60722A785209697803230B4089
:10546000DB00134302AD5A00D3189B001F4AD61825
:105470002A0083CE83C2A27AE37A1B021343217BE4
:1054800009040B43627B12061A436878594601915E
:10549000C0231B06009353460499FFF7AFFDA0728B
:1054A000020AE272020C2273000E6073A27BE37B9D
:1054B0001B021343217C09040B43627C12061A432E
:1054C00003992878534601934B460093FFF796FDC6
:1054D000A073020AE273020C2274000E60742100B1
:1054E00032314046FFF7B4FD37E6C0469858011008
:1054F00070B50200C3789B090B700478A40840784B
:10550000012303409B0123431A4D9B00881CEB5849
:105510008B701C0A44701C0C84701B0EC370937833
:105520005B06DB0DEB588B721D0ACD721D0C0D73E3
:105530001B0E4B7353785B080F4C9B00E3588B7129
:105540001E0ACE711E0C0E721B0E4B729578ED0961
:10555000D2783F2313405B002B439B00E3588B73AF
:105560001C0ACC731C0C0C741B0E4B741231FFF70D
:105570006FFD70BDA0220020A0200020F0B5DE4607
:1055800057464E464546E0B589B005000C000C2252
:10559000002105A80BF042FC0C22002102A80BF010
:1055A0003DFCEE78B3091E1E23706ED02B78DB070E
:1055B00000D473E02B785B089B00B649CB58A370EE
:1055C000190AE170190C21711B0E6371A978C909C0
:1055D000EA783F2313405B000B439B00AE49CB5856
:1055E000A371190AE171190C21721B0E6372AA785A
:1055F0005206D20E02AB994653009A189200A74B5E
:105600009B184A4683CB83C200239846A27AE37A4A
:105610001B021343217B09040B43627B12061A43CE
:105620004B4658788023DB050193C0231B0600936B
:10563000434649468968FFF7E1FCA072020AE2721C
:10564000020C2273000E6073C1231B06A27BE17B58
:1056500009021143207C00040143627C12060A43C4
:105660004946496848460078474601970093FFF746
:10567000C5FCA073020AE273020C2274000E60746F
:10568000A01C21001231FFF7E3FC012E6DD809B0F8
:10569000F0BCBB46B246A946A046F0BD2B785B08DD
:1056A0009B007C4AD358A372190AE172190C21732A
:1056B0001B0E6373A978C909EA783F2313405B0086
:1056C0000B439B00744AD358A373190AE173190C56
:1056D00021741B0E6374AA785206D20E05AB99464C
:1056E00053009A1892006D4B9B184A4683CB83C295
:1056F00000239846A278E3781B021343217909041A
:105700000B43627912061A434B4658788023DB0517
:105710000193C0231B060093434649468968FFF75F
:105720006DFCA070020AE270020C2271000E607122
:10573000C1231B06A279E17909021143207A0004F2
:105740000143627A12060A4349464968484600788E
:10575000474601970093FFF751FCA071020AE271DE
:10576000020C2272000E60728AE76A78D206D10EAD
:1057700005AF930E5B189B00484A944663443A0079
:1057800043CB43C200239A46A278E3781B0213431B
:10579000217909040B43627912061A437878802331
:1057A000DB059B460193C0231B06009353460799D4
:1057B000FFF724FCA21C9046A070030AE370030CC0
:1057C0002371000E6071C12212069146A279E3791D
:1057D0001B021343217A09040B43627A12061A430F
:1057E00006993878574601974F4600974B46FFF782
:1057F00005FCA071020AE271020C2272000E6072B6
:105800006A785209A97803230B40DB00134302ADE9
:105810005A00D3189B00214AD6182A0083CE83C28F
:10582000A27AE37A1B021343217B09040B43627BB8
:1058300012061A43687859460191C0231B0600934B
:1058400053460499FFF7DAFBA072020AE272020CD7
:105850002273000E6073A27BE37B1B021343217C47
:1058600009040B43627C12061A43039928785346B5
:1058700001934B460093FFF7C1FBA073020AE2734A
:10588000020C2274000E6074210022314046FFF7A2
:10589000DFFBFCE6A0220020A02000209858011089
:1058A000F0B5DE4657464E464546E0B589B00500A0
:1058B0000C000C22002105A80BF0B0FA0C220021EC
:1058C00002A80BF0ABFAEE78B3091E1E23701AD0B3
:1058D0002B78DA0735D55B0721D5A978C909EA788D
:1058E0003F2313405B000B439B00BC49CB58A37084
:1058F000190AE170190C21711B0E6371A01C2100A3
:105900001231FFF7A5FB012E41D8022E00D9D4E0B9
:1059100009B0F0BCBB46B246A946A046F0BDA97886
:10592000C909EA783F2313405B000B439B00AC4955
:10593000CB58A371190AE171190C21721B0E637205
:10594000DCE75B0711D5A978C909EA783F23134042
:105950005B000B439B00A14AD358A372190AE17262
:10596000190C21731B0E6373C8E7A978C909EA787B
:105970003F2313405B000B439B00994AD358A3730A
:10598000190AE173190C21741B0E6374B6E76A7867
:105990005209AB7803211940C9000A43914B98463C
:1059A00053009B189B00434405AA83CB83C200236A
:1059B0009B46A278E3781B021343217909040B4329
:1059C000627912061A436B46587D8023DB050193EA
:1059D000C021090600915B460799FFF70FFBA21C47
:1059E000A070030A9146E370030C2371000E6071EE
:1059F000C12212069246A279E3791B021343217A4F
:105A000009040B43627A12061A4306996B46187D05
:105A10005F460197574600975346FFF7EFFAA0718C
:105A2000020AE271020C2272000E6072AA7852061B
:105A3000D20E53009B189B00434402AA83CB83C21F
:105A4000A27AE37A1B021343217B09040B43627B96
:105A500012061A436B46587A8023DB050193C02156
:105A6000090600915B460499FFF7C8FAA072020A82
:105A7000E272020C2273000E6073A27BE37B1B02B6
:105A80001343217C09040B43627C12061A430399D9
:105A90006B46187A5B46019353460093FFF7AEFAC4
:105AA000A073020AE273020C2274000E60742100DB
:105AB00022314846FFF7CCFA27E72A78D20805AF0B
:105AC00053009B189B00474A944663443A0043CBDB
:105AD00043C200239A46A278E3781B02134321793C
