:020000041000EA
:1000000000B5324B212058609868022188439860DF
:10001000D860186158612E4B002199600221596106
:100020000121F02299502B49196001219960352056
:1000300000F044F80222904214D00621196600F024
:1000400034F8196E01211966002018661A6600F04E
:100050002CF8196E196E196E052000F02FF8012189
:100060000842F9D1002199601B49196000215960AB
:100070001A491B48016001219960EB211966A021F2
:10008000196600F012F800219960164914480160C1
:100090000121996001BC002800D000471248134993
:1000A000086003C880F30888084703B5996A0420EC
:1000B0000142FBD001200142F8D103BD02B5186610
:1000C0001866FFF7F2FF186E186E02BD00000240BE
:1000D000000000180000070000035F00212200005C
:1000E000F4000018222000A00001001008ED00E03C
:1000F00000000000000000000000000074B24E7A12
:1001000000200420F7010010C3010010C5010010F9
:10011000C1010010C1010010C1010010C101001097
:10012000C1010010C1010010C1010010C701001081
:10013000C1010010C1010010C9010010CB01001065
:10014000CD010010CD010010CD010010CD01001037
:10015000CD010010CD010010CD010010CD01001027
:10016000CD010010CD010010CD010010CD01001017
:10017000CD010010CD010010CD010010CD01001007
:10018000CD010010CD010010CD010010CD010010F7
:10019000CD010010CD010010CD010010CD010010E7
:1001A000CD010010CD010010CD010010CD010010D7
:1001B000CD010010CD010010CD010010CD010010C7
:1001C00000BE00BE00BE00BE00BE00BEEFF3058054
:1001D000103800BEF2EB8871D0590110F0590110AF
:1001E0003402001090A31AE700201F49086006C8D7
:1001F00081F3088810471D48006800282FD10DA4FE
:100200000ECC002902D000F012F8F9E71849194A7B
:10021000002000E001C19142FCD1174988471749ED
:1002200088471749884700BEFDE701C901C29A42C5
:10023000FBD37047F0590110C00000207817002050
:10024000A87001100000042000000420A870011014
:10025000001004200010042000000000704709482E
:100260000CF042FE0047000008ED00E0000000D066
:1002700098170020A032002071BC001095080010D3
:100280002DBC00105756000006005250ABB360530F
:100290000850011006005250861C0302185001102D
:1002A000060052505422A29D2C50011005005250BD
:1002B000DE65F468A8700110F8B5C04610B5064CAC
:1002C0002378002B07D1054B002B02D0044800E017
:1002D00000BF0123237010BD981A00200000000009
:1002E00030280110044B10B5002B03D003490448FB
:1002F00000E000BF10BDC046000000009C1A0020B6
:100300003028011010B504001F2109F0E1FC002283
:100310000021200009F0F4FC0021200009F00AFD72
:1003200010BD10B5040009F01DFD002201212000C0
:1003300009F0E6FC0123A340D02212065362536168
:1003400010BD10B5040009F00DFD002201212000B0
:1003500009F0D6FC0123A340D0221206936210BDFF
:1003600070B5040000290CD009F0FCFC0123A34067
:10037000D0221206936200220021200009F0C0FC66
:1003800070BD09F0EFFC0125A540D0263606756248
:1003900000220021200009F0B3FCB561F0E770B540
:1003A00000280FD0D024240680256D0465616420C8
:1003B0000AF020FE80239B04636164200AF01AFE89
:1003C000A56170BDD024240680256D04656164207C
:1003D0000AF010FE80239B04A36164200AF00AFE49
:1003E000A561EEE710B5002804D001211A20FFF71F
:1003F000B7FF10BD00211A20FFF7B2FFF9E7000098
:1004000010B50E20FFF78DFF0F20FFF78AFF102099
:10041000FFF787FF1120FFF784FF0D20FFF791FF03
:100420000C20FFF78EFF0B20FFF78BFF0A20FFF752
:1004300088FF184918480FF053FB0121062009F0E6
:1004400047FC0121072009F043FC0121042009F0A9
:100450003FFC012009F086FCD024240602236362BD
:100460006361092009F07EFC80239B006362636165
:10047000002009F077FC012363626361022009F028
:1004800071FC04236362636100F0ACFC1A2009F084
:1004900069FC10BDC0C62D0000C00340F8B5DE46A3
:1004A00057464E464546E0B50400D0252D0680232C
:1004B000DB019846AB61052000210AF06FFD6B68F7
:1004C0005B0B012633405A42534101273B401B013D
:1004D000227810218A43134323706B681B0B33402F
:1004E0005A4253413B405B01227810318A43134307
:1004F00023706B68DB0A33405A4253413B409B01F7
:10050000227840208243134323706B689B0A334058
:100510005A425341DB0122785F310A401343237072
:1005200043466B6180231B029946AB610520002185
:100530000AF034FD6B685B0B33405A4253413B4039
:100540002278B243134323706B681B0B33405A422B
:1005500053413B409B002278042080468243134352
:1005600023706B68DB0A33405A4253413B405B00C7
:100570002278023883468243134323706B689B0AB8
:1005800033405A4253413B40DB00227806308246DA
:100590008243134323704B466B6180235B02994671
:1005A000AB61052000210AF0F9FC6B685B0B33405E
:1005B0005A4253413B406278B243134363706B68C5
:1005C0001B0B33405A4253413B405B006278584614
:1005D0008243134363706B68DB0A33405A425341D2
:1005E0003B409B00627840468243134363706B68D4
:1005F0009B0A33405A4253413B40DB0062785046ED
:100600008243134363704B466B6180239B02994680
:10061000AB61052000210AF0C1FC6B685B0B334025
:100620005A4253413B409B0162784020824313432E
:1006300063706B681B0B33405A4253411F403F01AC
:10064000637810218B431F4367706B68DB0A1E4081
:1006500073425E41F601FBB26F310B401E43667080
:100660004B466B612E4B1A68C0239B015340E0221E
:10067000D20113402B4A13602B4B42461A60284B81
:100680001B68DB05FBD526494A681204130C274A70
:10069000D21A096880235B014B40E021C9010B405D
:1006A00020490B60204B042119601D4B1B68DB05A2
:1006B000FBD51B4B5B681B04190C1C4B5B1AE270CF
:1006C000100A2071100C6071120EA271E371190AE8
:1006D0002172190C61721B0EA372D0231B065A687B
:1006E0005209012313405A425341D900A2780820ED
:1006F00082430A43A2705B00D2B202218A431343B1
:10070000A3706378DB06DB0F1B01A2780E318A43EE
:100710001343A370F0BCBB46B246A946A046F8BD41
:1007200000C0044000D0044000E00440FF0F00007F
:10073000F0B5D6464F464646C0B584B0040003AF78
:100740003A4B1A883A80022399460023BB7002AEC6
:100750003280B37001AD2A80AB7069460A808B701D
:10076000D0231B0698464A469A61314B9A4603238A
:100770003A00D021504611F0BBFF43464A465A6129
:100780009A6103233200F021504611F0B1FF434635
:100790004A465A6180239B00994643464A469A61DD
:1007A00003236A46F021504611F0A2FF43464A4611
:1007B0005A619A6103232A00D021504611F098FF14
:1007C00043464A465A613B785B027A785200E02100
:1007D00009010B401343BA78D209134323603278DE
:1007E000520273785B000A401A43B378DB091A435C
:1007F00062602A7852026B785B000A401A43AB7839
:10080000DB091A43A2606B461B785B026A4652788A
:1008100052000B4013436A469278D2091343E360B7
:1008200004B0E0BCBA46B146A846F0BD4828011065
:1008300000C0034010B500F0EDF810BD10B5040085
:100840004378DB0710D463781022110019401A4254
:1008500003D00F4B1B78002B0CD0002903D10C4B7D
:100860001B78002B0DD110BD0022002100200BF0C1
:10087000A1F9E8E70020FFF7B5FD054B01221A704A
:10088000F1E70120FFF7AEFD014B00221A70EAE705
:100890005F32002010B584B00EF0F2F964200AF047
:1008A000A9FB37480EF0B0F9FFF7AAFD0EF000FFE4
:1008B0001B20FFF727FD1A20FFF724FD1A2009F05F
:1008C00051FAD02424068023DB046362A36118203C
:1008D00009F048FA80235B046362A361192009F0E0
:1008E00041FA80239B046362A361052009F03AFA70
:1008F0002023A36200220121052009F001FA01ACA6
:100900000C22002120000EF059F82000FFF7C6FD50
:100910001C4B9B886A461380617812220A40122A77
:1009200009D018230B40182B0CD0684600F02CFD82
:10093000002004B010BD14480CF0D6FA03000021CA
:1009400008009847163B6A4613700120FFF74AFDDE
:100950000120FFF724FD0D480AF04CFB02E0962031
:100960000AF048FB01AC2000FFF798FD6378DB0735
:10097000F5D50022002100200BF01CF9EFE7C0465E
:10098000302801104828011055420000AC0D00002D
:10099000194B1B68194A126893421BDA0A33164A2C
:1009A0001360154B1B68002B22D1FF33144A1268C9
:1009B00053401B041B0C134A13600F4B1B68002B86
:1009C00018DB1B04104A126853401B0C1B040F4A0F
:1009D000136070470A3B084A13600D4A126893423D
:1009E00001DC054B1A60044B1A68044B1A60D8E707
:1009F0000023DBE70023E4E76C22002068220020CC
:100A00005C0005405C1005402000054020100540BA
:100A10007422002010B5FA21044A490102F03AF983
:100A2000002800D110BDFFF7B3FFFBE7902E002098
:100A300070B5174B1E68002E28D04468C568291C65
:100A4000201C0DF007FE002800D0251CFE21890582
:100A5000281C0DF0FFFD002801D0FE25AD050D4935
:100A6000281C0DF0A8FD0DF053FE84B20021281CB7
:100A70000DF0F0FD002801D0A419A4B2064B1C60B3
:100A8000064B1B689C4201DD044B1C6070BDC046D8
:100A900070220020000048427422002068220020BA
:100AA00010B584B0134B01221A700F320021684632
:100AB0000DF084FFFE239B05019303936846FFF727
:100AC000B7FF002407E0FFF763FF0BF021F80820D1
:100AD0000AF090FA01343D2CF5DD002301930393D5
:100AE000044B00221A706846FFF7A2FFFFF750FF81
:100AF00004B010BD9A320020F0B5CE46474680B50E
:100B000083B0032009F02EF9082009F02BF9D02337
:100B10001B0608225A62F8325A620421032009F0A7
:100B2000D7F80421082009F0D3F8334F01253D60A0
:100B3000324B04221A60324AFF2656621666314C46
:100B40002268120C1204304989460A601A68910022
:100B500089188A002D498C46624411688C46FF2111
:100B6000090460464140090C090480204001024309
:100B700011603A68910089188A00214988464244E8
:100B800011682F008F43024317601B689A00D21828
:100B9000930043441A68954303431D601C4B1B6834
:100BA00073401B041B0C1B4A136023681B0C1B04A3
:100BB0004A461360962000210AF0F0F96B46DC1DCE
:100BC000991D200000F024FB2378134A13601A1C9F
:100BD000CD2B00D9CD22323210490A70002B02D120
:100BE0000D4A13600B70AF2040000AF003FA03B007
:100BF000C0BCB946B046F0BD242F002064290020B7
:100C00000000054020000540201005400C00054074
:100C10005C0005405C100540702200207932002005
:100C20000902084300B2704770B582B0D024240690
:100C30000125A5616B46187159710B4E022201A95D
:100C4000300011F0ADFD656102200AF0D3F90335E3
:100C5000A561022201A9300011F0A2FD6561022008
:100C60000AF0C8F902B070BD00C00340F0B5DE461E
:100C700057464E464546E0B585B006000D0001AC2E
:100C8000002301930822002102A80DF097FE032300
:100C90006B449B46A2235A461370D0231B069946E9
:100CA000012398464B4642469A614D4B9A46594617
:100CB000180011F075FD0C2322000021504611F0A0
:100CC00017FD4B4642465A6161782078FFF7A8FF2E
:100CD00083B2FF273840B0711B0AF371E178A07826
:100CE000FFF79EFF83B2384030721B0A737261793E
:100CF0002079FFF795FF83B23840B0721B0AF37278
:100D0000E179A079FFF78CFF83B2384030701B0A7D
:100D10007370617A207AFFF783FF80B2404283B21A
:100D20003840B0701B0AF370E17AA07AFFF778FFC1
:100D300083B2384030711B0A73714A4604239361B1
:100D400001225946504611F02BFD0C2322000021B0
:100D5000504611F0CDFC4A46042353616178207857
:100D6000FFF75EFF83B23840A8711B0AEB71E17890
:100D7000A078FFF755FF83B2384028721B0A6B72C8
:100D800061792079FFF74CFF83B23840A8721B0AC3
:100D9000EB72E179A079FFF743FF83B23840287006
:100DA0001B0A6B70617A207AFFF73AFF80B24042EB
:100DB00083B23840A8701B0AEB70E17AA07AFFF783
:100DC0002FFF83B2384028711B0A6B71434633737F
:100DD0002B7305B0F0BCBB46B246A946A046F0BD99
:100DE00000C0034010B5AE211020FFF71DFF5C21AD
:100DF0001120FFF719FF04211220FFF715FF04212E
:100E00001320FFF711FF00211520FFF70DFFE02150
:100E10001720FFF709FF10BDF0B5C64600B5040066
:100E200013282DD014282FD0122803D0002080BCE6
:100E3000B846F0BD132714239846200008F092FF0F
:100E400001263300A340D0252D06AB6200220121EC
:100E5000200008F055FF404608F084FF330042466A
:100E600093406B62AB61380008F07CFF3300BB40FD
:100E70006B62AB616B68E3401E4209D00120D6E78C
:100E8000122714239846D8E7122713239846D4E74D
:100E90000020CCE710B51320FFF7BEFF10BD10B542
:100EA0001220FFF7B9FF10BD10B51420FFF7B4FFF3
:100EB00010BD10B501211A20FFF752FA96208000CC
:100EC0000AF098F808F02CFB002800D110BD012092
:100ED000FCE710B501F01AFD10BD0000F0B5C646E4
:100EE00000B584B0142338E001330B2B05D801AAD8
:100EF000D25C002AF8D00125F6E718200AF07AF82B
:100F00002F4BDB685B07FBD5D02636060427B7617D
:100F10002B4B984601226B46D91C404611F040FCF1
:100F20000C2301AA0021404611F0E2FB77610C2856
:100F30003DD10023002100E001330B2B05D801AA8D
:100F4000D25C002AF8D00121F6E7002901D0002D5B
:100F500030D118200AF04EF823005C1E002B28D058
:100F6000002301930822002102A80DF027FD6B4603
:100F7000A222DA70124BDB685B07FBD5D0252D0669
:100F80000126AE610E4F01226B46D91C380011F0CC
:100F900007FC0C2301AA0021380011F0A9FB6E61A7
:100FA0000C2802D1002300259FE7002502E0002540
:100FB00000E00025280004B080BCB846F0BDC04663
:100FC00000C0034070B584B003A9484B1A880A805A
:100FD00000238B7002A90A808B7001A90A808B7094
:100FE00069460A808B7032241FE00133022B14D82B
:100FF00003AAD25C002A00D0012101AAD25C002AF7
:1010000000D0012602AAD25C002A00D001256A463F
:10101000D25C002AE9D00120E7E7002905D0002DA5
:1010200003D0002E01D0002857D12300013C002B13
:1010300050D0D0231B0602229A612D4BDB685B0740
:10104000FBD5032303AAD021294811F051FB032823
:1010500042D1D0231B0602225A619A61244BDB68DD
:101060005B07FBD5032302AAF021214811F040FBC6
:10107000032834D1D0231B0602225A61FF32FF32EB
:101080009A611B4BDB685B07FBD503236A46F021A3
:10109000174811F02DFB032823D1D0231B068022F3
:1010A00092005A619A61124BDB685B07FBD5032300
:1010B00001AAD0210E4811F01BFB032813D1D02325
:1010C0001B06802292005A61002300200026002582
:1010D00000218BE7002000E0002004B070BD00205C
:1010E000FBE70020F9E70020F7E7C0465028011091
:1010F00000C0034010B5FFF7D3FC012010BD012054
:10110000704770B582B0FFF75DFF01AC0126012585
:101110002840030120781022904318432070FFF7E5
:10112000D8FEC30122787F20104018432070FFF7BB
:10113000C0FE28408301207840229043184320704D
:10114000FFF7B2FE28408300207804229043184322
:101150002070FFF79FFE03002B402078B043184318
:101160002070FFF79CFE2840430020780222904325
:1011700018432070FFF7C3FF2840C30020780822DF
:10118000904318432070FFF7A9FE284043012078C0
:101190002022904318432070FFF7ACFF0540607891
:1011A000B04305436570208802B070BD10B5041CC3
:1011B0000348046041608260C360FFF739FC10BDE2
:1011C000D82F002010B512E00C4B9A6A0C4B1A6015
:1011D0000C4811F095FA00F009FC094C206805F064
:1011E000A3FC206803F0ECFD2068FFF723FB064911
:1011F000044811F0B5FA0028E6D1ECE700400540BC
:10120000CC1F0020381700206C23002070470000FE
:10121000044B7A22FF329A5C02707C22FF329B5C84
:101220000B70704798180020014B0020185670472B
:101230009814002010B5002803D1074B00221A7023
:1012400010BD0120FFF7ABF80120FFF7CBF8024BF0
:1012500001221A70F4E7C0465632002010B5002073
:10126000FFF7C0F80020FFF79AF8002200210020C5
:101270000AF0A0FC10BD000010B5064B1B78002B37
:1012800000D010BD034B01221A70002001F07CFA3F
:10129000F7E7C0468032002010B52F4B1B78002B9B
:1012A00030D02E492E4811F05BFA002832D12D485B
:1012B000FFF7F4F82C4B1B78002B33D104F094F893
:1012C0002A4C2068274905F071FD206801F0E6FAF4
:1012D00007F0B4FB002832D0244C2068244904F0E5
:1012E0009BFB2068234A244907F0D4FB234B1B783F
:1012F0005BB2012B2AD00AF00BFC1C4B1868FFF7DD
:1013000085FF10BD00211E480AF048FC124B012247
:101310001A70C6E71B4B9A6A144B1A60104811F0FA
:10132000EFF9C4E70F48FFF789FA0AF0F1FB0F4C19
:10133000206801F0B3FA206801F066FCE1E70B4B8E
:1013400018680D4A0B4900F083FCCFE7074B18687B
:1013500001F05AFCCFE7C0468A3200206823002003
:1013600038170020001B002056320020CC1F002020
:10137000C81A00200C1B0020E81A00209814002036
:101380004C1D00000040054070B5051E00D1D0E0A6
:1013900001F07BFC0400FFF733F8664966480EF065
:1013A00065FD0321162008F093FC0321172008F0A7
:1013B0008FFC6248FFF772F800F074FB002831D010
:1013C0005E4E33005E4A5F495F4805F0C3F905F0A1
:1013D0002DFCB378DB062AD4FFF78EFB02F070FBFE
:1013E000E3B2012B29D0022B2CD001242C57631CF3
:1013F0002FD00022AA56554B1A70504B1B789A06D4
:101400002BD45A063BD4DA063BD45AB2002A3ADB34
:101410005A073AD40A221A40022A38D01B071DD58F
:1014200003241BE032214A4801F09CF9C8E7062258
:10143000002148480DF0C2FACEE7444B02221A7050
:101440000024DAE723041B0F404A13702405240FFD
:10145000D3E7414B02241C57CBE706243E4AE22344
:101460005B00D65C394B1B785BB2013311D064252D
:10147000E3B2062B40D8A300384AD3589F46012434
:10148000ECE70024EAE70224E8E70524E6E7042481
:10149000E4E701F04BFB002804D12C4B02221A7028
:1014A0004625E5E7642001F0F1FA284B01221A7085
:1014B0006425DDE72A48322101F054F92900300083
:1014C00001F074F9214B00215956200000F0D0FBA7
:1014D0001A4B9B789B0727D4224A1849200003F017
:1014E0002BFE0DF0D9FD20480DF0C4FDFFF7D4FE12
:1014F000FCE7FF200006DEE71C48DCE7FF200002D7
:10150000D9E7124B00221A70FF2000041925D2E7F8
:101510000E4B00221A7016480F25CCE70B4B002209
:101520001A7014481925C6E70B4B9C7000F0B4FAEA
:10153000D2E770BD400D030008170020001B0020FB
:10154000C81A0020E81A0020D81A00209814002099
:101550000000FF4D141A0020981800205428011094
:1015600000F115FF0C1B0020C511001000A1A1A166
:1015700000FF61000000FFE6094ABD235B00D35C69
:101580001A1C312B00D83222054BBD2149005A5478
:10159000DA787A39FF398A43DA709B221A727047F7
:1015A0009818002070B5050014006A4B13800129BB
:1015B00000D070BD0223C3569370D01CE91C0622D4
:1015C0000DF002FAEB68E3602B6923616B696361DC
:1015D000AB69A36120001C3029001C3120220DF0D2
:1015E000F3F920003C3029003C3120220DF0ECF9C9
:1015F00020005C3029005C3120220DF0E5F920004C
:101600007C3029007C3120220DF0DEF920009C3056
:1016100029009C3106220DF0D7F92000A2302900C4
:10162000A23106220DF0D0F92000A8302900A831FF
:1016300030220DF0C9F920002930FF302900D831BF
:1016400010220DF0C1F920003930FF302900E831B7
:1016500010220DF0B9F920004930FF302900F8318F
:1016600010220DF0B1F920005930FF302900093166
:10167000FF3110220DF0A8F920006930FF30290059
:101680001931FF3110220DF09FF994235B00EA5CC1
:101690005033E2542A23FF33EA5C7A23FF33E254C7
:1016A0004F3BEA5C5033E2542C23FF33EA5C7C234B
:1016B000FF33E25420007D30FF3029002D31FF310F
:1016C00006220DF081F920008530FF3029003531E8
:1016D000FF3120220DF078F92000A530FF302900DD
:1016E0005531FF3120220DF06FF9BA235B00EA5C1F
:1016F0005033E2542000C930FF3029007931FF31E6
:1017000018220DF061F9C8235B00EA5C5033E25403
:101710004E3BEA5A5033E2524E3BEA5A5033E252C1
:101720004E3BEA5A5033E2524E3BEA5A5033E252B1
:101730004E3BEA5A5033E2524E3BEA5A5033E252A1
:101740004E3BEA5A5033E2524E3BEA5A5033E25291
:101750002FE7C04602A0FFFF064B984204D0064B7D
:10176000984203D1022070470120FCE7012040424B
:10177000F9E7C04601A0000002A0000010B5124821
:101780000DF072FA002407E0104B5B18D97810486E
:101790000DF06AFA0134E4B2052C0DD80DF050FFBB
:1017A0002100C0B2094A1219D070002CECD11300EC
:1017B00001229043D870E7E7044B9B221A720A205B
:1017C0000DF004FA10BDC0467028011098180020D2
:1017D00080280110F0B5DE4657464E464546E0B536
:1017E0006F4CA544FC256D002A00002102A80DF0D5
:1017F000E5F86C4B02AA1380059B0193DB0FDB0716
:101800008022120113430593069B0193DB0FDB0734
:1018100013430693079B0193DB0FDB0713430793E7
:10182000089B0193DB0FDB071A4308925E4F0A9770
:101830005E4E0B965E4C0C945E480D905E490E9188
:101840005E4A0F925E4B1093129713961494159064
:101850001691179218935B4B19931A931B931C9331
:101860001D931E931F9320932193802202A98B50D6
:1018700004328B5004328B5004328B5004328B5024
:1018800004328B5004328B50FF231B049A46A8234A
:101890000A005146D1504C4B9B46AC235946D1507F
:1018A0004A4B9946B0234946D150FF231B06984620
:1018B000B4234146D150FF2636020433D6500433B8
:1018C000434A02A9CA50434F04330A00CF5004339D
:1018D0005146D15004334146D1500433D6500433DD
:1018E0004946D1500433D6503B4BD82202A98B50E5
:1018F00004328B5004328B5004328B50E823CF508B
:10190000B63B7A22FF328B5401328B54173AFF3A9E
:10191000F121490002A8425202314352023142529F
:101920008532FF32010083522C4C2A0020000DF03A
:101930004BF8002003F0C6FB012003F0C3FB03209B
:1019400003F0C0FB042003F0BDFB052003F0BAFB4D
:1019500020009C30062200210DF030F82000A2303B
:10196000062200210DF02AF8FFF708FFE4235B00B0
:101970005246E25004335A46E25004334A46E2509B
:1019800004334246E2500433E6500433E7508123E7
:101990009B009D44F0BCBB46B246A946A046F0BDA4
:1019A000FCFDFFFF02A0FFFF000034420000B44234
:1019B00000000743000034430000614300008743F8
:1019C00000809D43000016440000FF4D0000FFE62C
:1019D00000F115FF00FF610000A1A1A198180020EF
:1019E000014B18787047C0469532002070B5204CE6
:1019F000A544204B1B78002B03D180235B019D4421
:101A000070BD0DF061FBEFF3108672B61A4B1B78B8
:101A1000002B24D1194C00230093194A002101A85E
:101A20000CF0CCFFFC225200164968460CF0CCFFAB
:101A300080256D012900200010F0A2FE2A006946D1
:101A4000200010F075FE86F310880DF047FB0E4B5A
:101A50001B78002B06D1074B00221A70CDE7962485
:101A60006403D8E707F0AAF8074B00221A70F2E7E0
:101A700000F0FFFF7E3200209532002000D01200DF
:101A8000FC0F0000981800208B320020014B01222F
:101A90001A7070478B320020014B01221A70704778
:101AA0007E32002070B5394B1888394B1D88FFF7FE
:101AB00053FE04002800FFF74FFE0500631C0BD007
:101AC000022C0FD0022D0DD0012C2CDD012D2ADD92
:101AD0000023002200262CE0431CF1D10023002229
:101AE000012626E0022C05D0022D0FD00023002273
:101AF00000261EE0FC225200244926480CF064FF18
:101B0000254B00221A700023002612E0FC2252000E
:101B10001F4920480CF058FF1F4B01221A70002368
:101B20000022002605E00123012C15DDDBB2012295
:101B30000026002E12D1002A23D0002B18D1164BDC
:101B400001221A70134A21001048FFF72BFD0020D4
:101B5000FFF7A2FF300070BD0023E7E70E4B002225
:101B60001A70FFF737FE0020FFF796FF0026F1E717
:101B7000094B00221A70074A29000548FFF712FD99
:101B8000E5E7FFF7F9FC0126E4E7C04600D01210B4
:101B900000C01210981800209532002010B5031CC8
:101BA000642800D9642303497A22FF328B54FEF75C
:101BB000A3FF10BD9818002010B5022817D008D830
:101BC00000280DD001280FD10B4AF2235B00D1521F
:101BD0000AE0032808D1084AF4235B00D15203E04D
:101BE000054AF1235B00D15204F046FA10BD024AC7
:101BF000F3235B00D152F7E79818002030B50F4C63
:101C000040004508E068C00FC0072843E060490075
:101C100048082169C90FC9070143216152005108D1
:101C20006269D20FD2070A4362615B005A08A36956
:101C3000DB0FDB071343A36130BDC04698180020BB
:101C4000062800DD0020014B98707047981800208E
:101C500010B5034B1B68002B00D0984710BDC04641
:101C6000B41D0020014B002018567047653200203B
:101C700010B588B00400284B1870022910D00C222F
:101C8000002105A80CF09AFE1022002101A80CF0FA
:101C900095FEE3B2062B0BD8A400204B1B599F46A0
:101CA0001F4B204A1A6007F0DBFC0028E7D005E054
:101CB0001B4B1D4A1A60002001F0B2F808B010BD9D
:101CC000174B194A1A60062001F0AAF8F6E7144BE0
:101CD000154A1A60012001F0A3F8EFE7104B124AF1
:101CE0001A60022001F09CF8E8E70D4B0F4A1A60D9
:101CF00001AA05A90020FFF7ABFFDFE7084B0C4A5C
:101D00001A6001AA05A90020FFF7A2FFD6E7044B3D
:101D1000084A1A60D2E7C04665320020A8280110A0
:101D2000B41D002011990010D12E00102D77001045
:101D30002D810010F5860010F0B5C64600B590B0B4
:101D400004000D0016001F0016AB1B789846494B87
:101D5000984200D188E00721380007F0B9FF01233D
:101D600000933A00290020000DF070FD10220021A0
:101D700008A80CF023FE80235B020893F8235B0283
:101D800009938023DB020A93C0231B030A931022CA
:101D900008A904A80CF018FEF31C059A0392364912
:101DA0001140F20111431B0319430591079B039353
:101DB000DB00DB0880229205134307932F4B194069
:101DC0000591102204A90CA80CF0FEFD0F9B0393B3
:101DD0002B4A1A40BF0217430F974346002B45D0AA
:101DE00020220E9B03932749194080239B020B431B
:101DF0005206F82189050A4013430E939B009B0865
:101E00008022D20513430E93052009F0E3FD1E49FD
:101E10000BF0BEF80CF023FC80460CF079FC87B286
:101E2000002F25D038000CF01AFC011C40460CF0A5
:101E3000A2FB8721C9050CF0BEFB0CF069FCC0B207
:101E400000023F0407430C970CAB3200290020002E
:101E50000DF04EFD22680123AB409A4313432360EB
:101E600010B080BCB846F0BD062175E71822B8E76F
:101E70000020E5E7000020507F00FEFFFFFFFF9FEE
:101E8000FF83FFFFFFFFF5C10050C300014B01229C
:101E90001A7070477432002070B5244B1B78002BE9
:101EA00017D1234B00221A70204B01321A700024E4
:101EB000032C09D80DF0C4FB06210BF069F81D4B6B
:101EC00019550134E4B2F3E71B4B00221A700024C9
:101ED00027E0194B1B78002BF9D1184B1A78930087
:101EE000D218FA2A00D9FA22FF231A409B1A9BB271
:101EF000134A1380134A13800F4B01221A70E6E72E
:101F00000C4D2B5D72339B000F4A9958A2000F4B6A
:101F1000D1500DF095FB06210BF03AF8295501340C
:101F2000E4B2032CECD9FFF7B1FF70BD733200208F
:101F30005E320020CC1D0020BD140020BB14002008
:101F40004C32002048320020981800201422002033
:101F5000034B1980034B1860034B00221A70704723
:101F60004A320020E82100207132002070B50500BF
:101F70000C0000880CF073FB1B490CF006FB1B499E
:101F80000CF019FB0CF0C4FBC2B22B79A978C94341
:101F9000C9B25943090A5B1ADBB23F2528402D1A02
:101FA000EDB2584380096B439B11DBB20818C0B2F5
:101FB000CB18DBB23F2A10D9403AD2B23F2A06D81A
:101FC0001A060B061B0A0002134318430AE009060F
:101FD00000041B020843184304E000061B04090226
:101FE00018430843206070BD00007F4300003F435A
:101FF000F8B5CE46474680B50400234B1D78002D2A
:1020000005D100230360C0BCB946B046F8BD642DBD
:10201000F9D08778E678B81963789846C0180CF03C
:1020200023FB1A490CF0B1FA814628000CF017FB8B
:1020300017490CF0AAFA051C011C48460CF0FAFAE4
:102040000028E0D14946281C0CF09FFA051C3800F6
:102050000CF005FB291C0CF0AEFA0CF059FBA0703B
:1020600030000CF0FCFA291C0CF0A5FA0CF050FB27
:10207000E07040460CF0F3FA291C0CF09CFA0CF0CE
:1020800047FB6070BFE7C046BA14002000007F43E2
:102090000000C842F0B5D6464F464646C0B50400DB
:1020A0000368002B35D083789846C778D8196678AE
:1020B00080190CF0D9FA051C40460CF0D0FA804685
:1020C000291C0CF062FA824638000CF0C8FA071C92
:1020D000291C0CF05AFA814630000CF0C0FA061C9C
:1020E000291C0CF052FA051C514640460CF063FACC
:1020F0000CF00EFBA0704946381C0CF05CFA0CF09A
:1021000007FBE070291C301C0CF055FA0CF000FBAA
:102110006070E0BCBA46B146A846F0BD30B585B0A7
:102120001D4B1B78002B0FD10024032C09D80DF078
:1021300087FAFF210AF02CFF184B19550134E4B23D
:10214000F3E7154B01221A7000241FE0134D2B5D9D
:10215000134A1078C018FF210AF0F2FEC9B22955BF
:1021600002A80180FF23438083800023019301A9FB
:10217000FFF7FCFE01A8FFF73BFF0A48A300019A06
:102180001A50C018FFF786FF0134E4B2032CDDD9E2
:10219000FFF77CFE05B030BD73320020C021002067
:1021A000BB1400201422002000220AE093000649FC
:1021B0005958064B5B68DB03FBD4044B19610132B1
:1021C000D2B2032AF2D97047EC210020000020503F
:1021D000F8B5DE4657464E464546E0B506000D00CA
:1021E000141C80780CF03BFA8046F0780CF037FA3B
:1021F000071C70780CF033FA061CA8780CF02FFA44
:102200008346E8780CF02BFA824668780CF027FABF
:102210008146414658460CF0AEF9211C0CF0CBF932
:1022200041460CF0ADF9051C391C50460CF0A3F9E1
:10223000211C0CF0C0F9391C0CF0A2F9071C311C50
:1022400048460CF098F9211C0CF0B5F9311C0CF043
:1022500097F9061C281C0CF05BFAC5B2381C0CF070
:1022600057FAC4B2301C0CF053FAC0B22D0400026D
:10227000240628432043F0BCBB46B246A946A046EC
:10228000F8BD0000014B18707047C0467632002040
:10229000F8B5284B1D8828000CF0E6F9011CFE203B
:1022A00080050CF072F9041C234B1B78002B0CD01A
:1022B000224A234B43CB43C21B6813600023214AAD
:1022C00013701D4A1370204A13701E4B1E78B542BE
:1022D00004D21D4B187800281ED0F8BD30000CF039
:1022E000BEF9211C0CF067F9051C00240BE0A700C7
:1022F0001649C9191148C0192A1CFFF769FF104B6C
:10230000D8510134E4B2032CF1D901360D4B1E70C3
:10231000FFF74AFF0020E0E7094A0C4B13CB13C23A
:102320001B681360FFF740FF074B01221A70012062
:10233000D3E7C04648320020743200200422002037
:10234000EC210020BF140020BC1400201422002027
:10235000F0B5C64600B506000F00150098460024EB
:102360000AE0335D9B004246EA50305D8000281849
:10237000FFF790FE0134E4B2BC42F2D380BCB84611
:10238000F0BD0000031C642800D96423014A1370C7
:102390007047C046BA14002030B583B00500002451
:1023A0000CE0019501A8FFF723FE0648A300019A5F
:1023B0001A50C018FFF76EFE0134E4B2032CF0D9B6
:1023C00003B030BD1422002010B509480388094A23
:1023D00012789B18FF2213400380074C2100FFF75F
:1023E000C5FD2068FFF7D8FFFFF750FD10BDC046C0
:1023F000B4140020BB140020BC21002010B51A4BDF
:102400001B78002B17D1194A1370174A012111703C
:10241000174A1370154C237872339B00154A98584D
:10242000FFF7BAFF2078013006210AF089FD2170FC
:10243000FFF72CFD10BD0E4B1B78002BEAD10E4B85
:102440001B789A009B18FA2B00D9FA23FF221A4016
:10245000FF239B1A9BB2094A1380094A1380044B3D
:1024600001221A70D6E7C046733200205E32002087
:10247000BE14002098180020BB1400204C3200200D
:102480004832002010B50F4B1B78002B10D10E4B9B
:102490001B68002B02D10C4B0C4A1A600A4B1868BF
:1024A000FFF77AFFFFF7F2FC064B01221A7010BD0E
:1024B0000020FFF771FFFFF7E9FC024B00221A70C2
:1024C000F5E7C04693320020FC2100200000FFE623
:1024D00070B5184B1C78002C05D0174B1B78002BBF
:1024E00019D0200070BD154B154A23CA23C319000B
:1024F00013680B60134B1868FFF74EFF124B1A88D6
:10250000124B1A80FFF7C2FC0A4B01221A700A4BC9
:1025100000221A70E5E70E4B084A23CA23C31900AC
:1025200013680B60FFF7B2FC034A13780133137092
:10253000D7E7C0467132002098320020C82F002013
:10254000EC210020002200204A32002048320020E6
:102550001422002070B50E4B1C78002C08D00D4BB7
:102560001D78002D11D0FEF779FE2C00200070BDE3
:102570000020FFF711FFFFF789FC074B1A88074B74
:102580001A80034B01221A70F0E700F029FAEDE7F8
:1025900071320020773200204A3200204832002079
:1025A00070B50C000F2803D88000284B1B589F469D
:1025B0000126274D2BE00126264D28E00126264D39
:1025C00025E00126254D22E00126254D1FE00126AC
:1025D000244D1CE00126244D19E00126234D16E070
:1025E0000126234D13E00126224D10E00126224D45
:1025F0000DE00126214D0AE00126214D07E00126CC
:10260000204D04E00126204D01E004261F4D002A44
:1026100012D023001E4A31002800FFF799FE230044
:102620001C4A31002800FFF793FE23001A4A3100AC
:102630002800FFF78DFE70BD2300164A31002800E8
:10264000FFF786FEFFF722FCF5E7C046C42801101D
:1026500048290110282901103829011024290110C6
:102660002C29011040290110502901104C2901107A
:102670001C290110202901103029011054290110B2
:1026800044290110582901103C2901103429011056
:102690000422002014220020EC21002070B50C4BF5
:1026A000196840220B480CF08FF900240CE0A300BD
:1026B000084DED182800FFF79BFC29680022200038
:1026C000FFF76EFF0134E4B20F2CF0D970BDC046A5
:1026D000242200202822002010B5024B1860FFF7AA
:1026E000DDFF10BD2422002010B5074B1B78002B06
:1026F00000D010BD0548FFF7EFFFFFF7C7FB024B07
:1027000001221A70F5E7C0467332002040190020FC
:102710000F4AF0235B00D35C834209D0002B03D126
:10272000E133FF330521D154094AF0235B00D05433
:10273000074AF0235B00D25C064B1A701523064A49
:102740001380064A1380064B00221A707047C04659
:1027500098180020BB1400204C3200204832002082
:102760007332002010B5054B18604908044C200056
:10277000FFF7EEFB034B1C6010BDC046002200209B
:10278000D1240010E821002010B5054B1870054B2E
:1027900000221A600A210448FFF7DAFB10BDC04688
:1027A00077320020E42100205525001070B582B05A
:1027B00004000D00254B1B78002B0CD0244B1C7003
:1027C0000023244A1370244A1370052C16D8A40041
:1027D000224B1B599F46224E224930000DF01AF819
:1027E000020000230093153300213000FFF7A4FA04
:1027F000164B01221A70FFF7D7FCDFE71A4B1B4A72
:102800001A601B4AF0235B00D05CFFF781FF002DAC
:1028100015DA02B070BD144B164A1A60F1E7124B7C
:10282000154A1A60EDE7104B144A1A60E9E70E4B9F
:10283000134A1A60E5E70C4B124A1A60E1E7FF2DD4
:1028400000DDFF25E8B2FFF79DFDE2E775320020CD
:1028500072320020733200207832002004290110E7
:10286000000020505C290110E4210020E92600101E
:1028700098180020C92300101D2100108524001085
:10288000FD230010991E001010B5034B1860642141
:102890000520FFF78BFF10BDFC21002010B5144A66
:1028A000144900F0F7F9002800D110BDFFF7F0FC43
:1028B000002803D1104B1B78002BF6D00F4B1B6860
:1028C000002B0ED098470028EFD000240B4B1C6043
:1028D0000B4AF0235B00D05CFFF71AFF094B1C701A
:1028E000E3E7094B1B68002BDFD09847DDE7C046C4
:1028F000982E00201A41000078320020E8210020A4
:102900009818002073320020E421002000B587B021
:102910002C4B1B7805AA137004AA137008F03AFC1C
:1029200002000B1E2CDB2848002112184B41002B03
:102930002CDB002B2EDB029203930123009305AACC
:102940006A2122480DF0BEFA08F024FC02000B1E9A
:1029500026DB1D48002112184B41002B26DB002BE3
:1029600028DB0292039300230093013304AA6A2117
:1029700016480DF0C6FA002822DD012007B000BD80
:10298000134B144A3F21144809F054F901225242D2
:10299000124BCEE70E4B0F4A3F210F4809F04AF980
:1029A0000B4B0C4A3F210C4809F044F901225242DA
:1029B0000A4BD4E7064B074A3F21074809F03AF98A
:1029C0000020DBE714330110102700000817002057
:1029D0006C290110EC29011088290110FFFFFF7FED
:1029E00010B586B00020FDF7FDFC00241CE0204B54
:1029F000204A3F21204809F01DF9002B28DB0292D4
:102A0000039300230093023305AA6A211B480DF0AB
:102A100059FA0400831C21D0431C22D0FA208000E4
:102A200008F0E8FAFEF71AFC002C1DD105AB144A99
:102A30001A8008F0AFFB02000B1ED8DB1148002102
:102A400012184B41002BD8DA012252420E4BD4E728
:102A5000074B084A3F21084809F0ECF8FEF7FEFB57
:102A6000DCE7FEF7FBFBD9E7FEF7F8FB06B010BD8D
:102A70006C290110EC290110882901100817002089
:102A80000941000010270000FFFFFF7F00B587B05D
:102A9000232821D8C0B20538C0B27F23184005AB27
:102AA00004221A70587008F075FB02000B1E20DB20
:102AB0001848002112184B41002B20DB002B22DB91
:102AC0000292039300230093023305AA6A2112485D
:102AD0000DF0F8F907B000BDAF235B00984200D9B4
:102AE000180028380A210AF02BFAC0B21F30C0B2F1
:102AF000D3E70A4B0A4A3F210A4809F09BF8012212
:102B00005242094BDAE7054B054A3F21054809F0D7
:102B100091F8C04610270000081700206C2901100A
:102B2000EC29011088290110FFFFFF7F00B587B055
:102B30002E4B1B7805AA137004AA137008F02AFB09
:102B400002000B1E30DB2A48002112184B41002BDB
:102B500030DB002B32DB029203930123009305AAA2
:102B60006A2124480DF0AEF908F014FB02000B1E98
:102B70002ADB1F48002112184B41002B2ADB002BB7
:102B80002CDB0292039300230093013304AA6A21F1
:102B900018480DF0B6F90230012825D904AB187891
:102BA000C007C00F07B000BD134B144A3F211448A3
:102BB00009F040F801225242124BCAE70E4B0F4A6D
:102BC0003F210F4809F036F80B4B0C4A3F210C48C7
:102BD00009F030F8012252420A4BD0E7064B074A6F
:102BE0003F21074809F026F80120DBE714330110E4
:102BF00010270000081700206C290110EC29011093
:102C000088290110FFFFFF7F10B5FA21074A09024A
:102C100000F040F8002800D110BDFFF787FF044BFB
:102C200018700028F8D1FEF727FBF5E7D02E00201A
:102C30005C32002010B500220021002008F0BAFF0D
:102C4000FEE70000072804D88000024B9C46604441
:102C5000016070470C80054010B5072802D9002498
:102C6000200010BD8000044B9C4660440468002195
:102C70000520FFF7E7FFF3E70C80054010B50100E2
:102C80000520FFF7DFFFFFF7D5FF10B50520FFF7A1
:102C9000E3FF10BD10605368834205D9C31A013B9E
:102CA0008B4205D200207047834204D2C31AF7E753
:102CB00050600120F7E70020F5E730B51860002AE2
:102CC0000BD15C6884420BD9041B013C0025002D0C
:102CD0000BD1A14209D9100030BD58600020FBE79C
:102CE000844205D2041B0025F1E758600120F3E778
:102CF0001000F1E710B5FEF7B5FF022801D0024839
:102D000010BD0248FCE7C046042A0110F42A011055
:102D100010B500200EF078FC10BD000010B5102199
:102D200006480FF035FD002800D110BD044B0122EC
:102D30001A7002480FF0E4FCF7E7C0464017002085
:102D40008832002010B5102106480FF021FD002820
:102D500000D110BD044B00221A7002480FF0D0FCC5
:102D6000F7E7C046401700208832002070B5050004
:102D700064210D480FF0ACFC041E09D10B4B22005E
:102D80000B492800FFF799FF051E08D1200070BDF0
:102D9000084B1C78E4B204480FF0B2FCEEE7FFF7F2
:102DA000BDFF2C00F2E7C04640170020E82F0020AE
:102DB000A086010088320020037801330370044BA1
:102DC0001B785BB2022B01D0024870470248FCE737
:102DD0007C1500203C2C0110742D01100C4B186048
:102DE0000C4B98420BD00C4B98420CD0FA235B0052
:102DF000984200D07047094B01221A60FAE7074B4E
:102E000004221A60F6E7054B08221A60F2E7C04672
:102E10009C230020461000008D20000094230020F9
:102E200010B50400002001F0C5FF022C2CD0062CA8
:102E30001DD0012C10D0012001F0BCFF1848FFF775
:102E4000CDFF184B184A1A60184B194A1A60194BD3
:102E50001C700EF0E5FF10BDFA204000FFF7BEFF2A
:102E6000104B154A1A60114B144A1A60EFE7012003
:102E700001F0A0FF1248FFF7B1FF0A4B114A1A6098
:102E80000A4B0B4A1A60E2E7FA204000FFF7A6FF60
:102E9000044B0D4A1A60054B0C4A1A60D7E7C0462E
:102EA0008D2000009823002085880010A02300209A
:102EB000112D00107C150020999300106D35001025
:102EC00046100000FD9A0010C16E0010F939001084
:102ED000F8B506000C0015000120002140420DF05D
:102EE00007FF234B9F6C234B1B68BB421CD2FB1A72
:102EF000214A12689A4202D8204B01221A70204BB4
:102F00001968204A3000FFF7C5FE002802D01E4B8A
:102F100001221A701D4B1B78002B0AD11C4B1B6819
:102F200098471A4B1870F8BDFB1A1A4A9446634426
:102F3000DEE73000FFF71AFF0028F4D00F4B1B78B4
:102F4000002BF0D0104B1B78002BECD0094B1F60EE
:102F500000230A4A13700C4A13700C4A1370FFF7CF
:102F6000F1FE0D4B1B68290020009847DBE7C046A7
:102F7000000011508C2A002094230020943200205D
:102F80009C230020403200209C3200208932002007
:102F9000A0230020FF07000098230020084B1B7887
:102FA0005BB2022B07D0062B07D0012B01D00548BE
:102FB00070470548FCE70548FAE70548F8E7C046CA
:102FC0007C15002018350110842C0110602D011093
:102FD000503E0110084B1B785BB2022B07D0062B2A
:102FE00007D0012B01D0054870470548FCE705488C
:102FF000FAE70548F8E7C0467C150020D8340110F0
:10300000542C0110342D0110243E01100020704773
:1030100010B5134B1B785BB2022B13D0062B18D0C4
:10302000002B05D00B78002B0FD1FFF777FE0CE0BB
:103030000B78302B03D0212B01D0812B05D1FFF74A
:103040006DFE02E00B78212B00D010BDFFF766FE6D
:10305000FBE70B78012BF8D1FFF760FEF5E7C046E0
:103060007C15002070B504AC25882E4C247864B201
:10307000012C2DD0022C12D0002C00D070BD0029C4
:10308000FCD1002AFAD11878102804D02A0019009F
:1030900001F0ACF8F2E7981C00F0D8FDEEE700294B
:1030A000ECD1002AEAD11A78112A05D0132AE5D1E9
:1030B0001D480BF0D9FDE1E75B78002B06D01B49DA
:1030C0000B1C1B4A1B48FEF771F8D7E70021F7E7F6
:1030D0000029D3D1002AD1D11A78002ACED15A782A
:1030E000082ACBD1DA78002A02D11979002911D027
:1030F0001B79101C9A4200D2181CC0B20BF0AFFA18
:103100000D490BF042FA011C031C094A0948FEF75D
:103110004DF8B3E70020031C021C011CFEF746F823
:10312000ACE7C0467C150020B82B01106666263F30
:10313000000020420000F04200007F43064B1B7855
:103140005BB2022B03D0062B03D10448704704481E
:10315000FCE70448FAE7C0467C150020643E0110F5
:10316000C82C01102C35011070B5EE2824D0002891
:1031700025D080001E4BC55828000FF077FAC0B24A
:103180001F2800D91F20002327E05A1C194CA15CDE
:103190000902E25C0A4344001749625202330130DB
:1031A000112BF2D9154A144B13CB13C211001A6814
:1031B0000A609B888B8019E000200023F0E70C4B0D
:1031C000196802220E480BF0FFFB012007E05A1C91
:1031D000EC5C5100094BCC52D3B29842F7D8013085
:1031E0004000C0239B001843044B1880034870BD67
:1031F000A0140020FC2B0110B41A0020D81D0020C0
:10320000DA1D002000B591B04022694600200EF082
:1032100089FC00200EF09CFC064B1B785BB2002B57
:1032200001D011B000BD04480BF0EEFC684605F07B
:10323000E9FCF6E77C150020D02B0110F0B583B037
:1032400005001400012966D113785B069B0F012B42
:1032500058D0022B03D0002B01D000205CE0637813
:10326000022B24D0072B03D0012B19D0002053E0D0
:10327000227963791B021343042B03D0052B08D05A
:10328000002049E02433264A210028000DF054FE96
:1032900042E08D33234A210028000DF04DFE3BE033
:1032A0002823214A210028000DF046FE34E022792F
:1032B00063791B021343072B30D11C4B1B785BB285
:1032C000022B0FD06B469F1D194E02223100380091
:1032D0000BF07AFB3B883200083A210028000DF001
:1032E0002BFE19E06B469F1D124E02223100380062
:1032F0000BF06AFB3B883200083A210028000DF0F1
:103300001BFE09E051780C480BF0AEFC21002800B0
:103310000DF0F6FD00E0012003B0F0BD0020FBE75A
:1033200054150020C0140020102C01107C15002022
:10333000482A0110202B0110E82B0110012815D07C
:10334000022907D000290BD1022A29D0002A29D02E
:1033500006207047022A1FD0002A1FD00800F8E775
:10336000022A21D0002A21D00820F2E7022907D022
:1033700000290BD1022A1FD0002A1FD00720E8E71E
:10338000022A15D0002A15D00320E2E7022AE0D055
:10339000002A15D00020DCE70120DAE70320D8E777
:1033A0000720D6E70520D4E70020D2E70420D0E7A5
:1033B0001000CEE70420CCE70820CAE70620C8E7C3
:1033C0000520C6E70120704710B58422002102487D
:1033D0000BF0F4FA10BDC046C027002010B5002045
:1033E000FFF7F2FF10BD0000F0B5C64600B58046FD
:1033F0000D008B795D2B24D10B79DF00FF1ABFB252
:103400001937BFB2974221D80C780C19002605E075
:10341000104A53700136F6B22378E4182B79B34280
:1034200010D96378052BF7D1210040460DF08EF9B5
:1034300000280DD0A378DA09012AE9D0054A937053
:10344000E8E70027380080BCB846F0BD0027F9E760
:103450000027F7E7C027002030B583B004001448E8
:103460004078884206D0124A92788A420CD00120D5
:1034700003B030BD0F4A002A18D09AB20E4900207E
:10348000FFF7C6FD0120F3E70C4D9BB200932B0024
:10349000002200210020FFF7E5FD2B00443B997836
:1034A00040232A0020000DF0C5F9E1E70120DFE705
:1034B000C027002011300010C4270020042800205D
:1034C00010B50DF0A7F8002803D10023002B08D178
:1034D00010BD0DF0A7F8002801D10123F6E7002365
:1034E000F4E70B4B997800200DF0E0F90028EFD1BC
:1034F000074CA1780DF076F922004432A1784023E0
:1035000000200DF097F9A17800200DF07FF9DFE79A
:10351000C027002070B505000C000DF083F80028CE
:1035200006D1812100200DF05DF9002803D170BD86
:103530000DF080F8F5E7231C402C00D940239CB205
:10354000094E2200290030000BF03EFA351F697841
:103550002300320000200DF06DF9697800200DF095
:1035600055F9FFF7ADFFE2E7C427002010B5104B77
:103570005C780DF04FF8002806D10023002B13D003
:10358000002C09D1002010E00DF04CF8002801D1EA
:103590000123F3E70023F1E7210000200DF086F975
:1035A000002803D1013000E0002010BD0020FCE71E
:1035B000C027002010B53C22002102480BF0FEF984
:1035C00010BDC046741E002010B50020FFF7F2FFAA
:1035D00010BD0000F0B583B006000F001500FEF727
:1035E00041FB02284CD13B79DC00E41AA4B212342E
:1035F000A4B2AC4248D80023002B09D00025002DEE
:1036000044D0397879184B78212B11D0002438E038
:103610001A01D21A92001F4882185278002A02D04A
:103620000133DBB2E8E71A01D11A89004518E6E751
:10363000A9630B78C9183A796B1C0193AB1C0093F2
:10364000032330000DF09CF8002821D0BB79012B1A
:1036500013D001232B71BB782B70AA6BD179137A0D
:103660001B020B43EB80A97800290AD02A003032D4
:10367000062330000DF0DEF803E0FB79EB70E8E79D
:103680000024200003B0F0BD0024FAE70024F8E78E
:103690000024F6E7741E002070B582B005001D4CB2
:1036A000002000280AD0002830D162788A4213D046
:1036B000A2788A421AD0012002B070BD0401241AF7
:1036C000A400144A1419A2788A42ECD062788A4283
:1036D000E9D00130C0B2E4E70F4A002A18D0210037
:1036E00008319AB2FFF794FC0120E5E72600303656
:1036F0009BB20093330000220021FFF7B3FCA178B6
:103700000623320028000DF095F8D5E70020D3E716
:103710000120D1E7741E002011300010F0B5C6461C
:1037200000B582B00600150012781F231340012B4C
:1037300000D01FE128790024002C0DD0FF24002C9C
:1037400000D01CE12700602318001040134239D13B
:1037500001290BD001200EE123011B1B9B008E4F82
:10376000DB5D9842EBD00134E4B2E5E7EA786B78B0
:10377000062B06D0062B00D005E1222A12D000200D
:10378000F9E0212AF6D123011F1BBF00824BDF196C
:10379000BA6B002A00D1F4E01378290030000DF054
:1037A000CBFBE8E02000FFF7C9FC02003B01DF1B78
:1037B000BF00794BDF19FB88290030000DF0BCFBFE
:1037C0000120D8E0202800D0DFE06B780B2B00D957
:1037D000DDE09B00714AD3589F46012901D00120AA
:1037E000C9E0EA78A97823011B1B9B0008336A4FC4
:1037F000FF18A879EB791B020343181C252B00D96D
:10380000252080B2002909D0012B16D97B1C9C46AB
:103810003970013880B20123984602E0BC4600238B
:103820009846009063462000FFF7F0FB03004344F6
:103830009BB2002B05D100209DE0BC46002398469A
:10384000EFE73A00290030000DF076FB012092E00E
:10385000012903D0032915D001208CE0AA79EB7946
:103860001B021343062B01D9002084E02201121B06
:103870009200303248498A18290030000DF05CFB74
:10388000012078E0EA78A97823011B1B9B003033E4
:103890004148C318AE79E87900023043051C062878
:1038A00000D90625ADB2002904D0012802D9187824
:1038B000884205D000952000FFF7D4FB01205AE094
:1038C0000133013DADB2F5E7012901D0012052E0FD
:1038D000E97823011F1BBF002F4BDF197971304B93
:1038E000002B04D0200000E000BF002843D02900B6
:1038F00030000DF005FB01203DE0012901D0012041
:1039000039E02201171BBF00234AD21905320123D7
:10391000290030000DF010FB01202CE0012901D01E
:10392000012028E02201171BBF001B4AD2190432D4
:103930000123290030000DF0FFFA01201BE00129CE
:1039400003D0032907D0012015E0290030000DF035
:10395000D7FA01200FE0A97823011F1BBF000E4BEF
:10396000DF1939710F4B002B13D0200000E000BF8E
:10397000012000E0002002B080BCB846F0BD00206D
:10398000F9E70020F7E70020F5E70020F3E7002043
:10399000F1E70120EFE7C046741E0020982C0110CB
:1039A000000000000000000010B50301181A80009C
:1039B000104B181844780CF02DFE002806D1002377
:1039C000002B13D0002C09D1002010E00CF02AFEAF
:1039D000002801D10123F3E70023F1E721000020B3
:1039E0000CF064FF002803D1013000E0002010BD7E
:1039F0000020FCE7741E002010B50020FFF7D4FF64
:103A000010BD0000F8B504000F0016001D000301F2
:103A10001B1A9B001F4AD318597800200CF0E2FEB5
:103A2000002825D0002F24D02B1C242D00D924239E
:103A30009DB2184A2301191B890051180F721B1BD4
:103A40009B000833D01801302A0031000AF0BCFF77
:103A50000135ADB20F4B2001021B920008329A18BB
:103A6000001B8000181841782B0000200CF0E2FEAB
:103A7000F8BD2B1C252D00D925239DB22001001B4C
:103A800080000830034B18182A0031000AF09CFF10
:103A9000E0E7C046741E002010B513000A000100C4
:103AA0000020FFF7AFFF10BD107003120F20184069
:103AB00050700B011843507009119170704700004D
:103AC00070B5124D802424012A0021002000FFF748
:103AD000EBFFEA1C21002000FFF7E6FFAA1D2100F2
:103AE0002000FFF7E1FF2A00093221002000FFF744
:103AF000DBFF2A000C3221002000FFF7D5FF2A004F
:103B00000F3221002000FFF7CFFF70BD1C320020D4
:103B100010B54022002102480AF050FF10BDC046F7
:103B2000D8220020014B18707047C0468232002016
:103B3000014B18737047C046D8220020014B5873C0
:103B40007047C046D8220020074A0021535E1078F3
:103B500006490870023399B21BB21380FF2B01DDB6
:103B6000FF3911807047C04650320020D822002013
:103B7000024B1A78024B5A707047C046E42E01106F
:103B8000D8220020064B04229A732F32DA73303A7F
:103B90001A74013A5A74012119765A767047C04650
:103BA000D822002010B5C4B2000A002307E0190093
:103BB0000E31044A5454013150540233DBB20D2B00
:103BC000F5D910BDD822002010B503007F2800D9F8
:103BD0007F2080B2002B08D00AF041FD04490AF092
:103BE000EAFC04490AF0CCFC10BD0248FCE7C046E0
:103BF000BA6693400000204210B503007F2800D928
:103C00007F2080B2002B08D00AF029FD04490AF079
:103C1000D2FC04490AF0B4FC10BD0248FCE7C046DF
:103C2000C56613410000A04210B503007F2800D9EB
:103C30007F2080B2002B05D00AF011FD02490AF066
:103C4000A4FC10BD0020FCE70000FE42F8B5CE4603
:103C5000474680B50300C1788A0937D0012A17D0BA
:103C6000022A07D00026371C0023994698460025D3
:103C7000002447E04178090202780A439205940D36
:103C8000002A23D1A146A04625000026371C39E092
:103C9000807804025E78320022431205140D002A57
:103CA00067D01B789A074ED17F2202409046490088
:103CB0007E252940C5090D43F201FF2414409B08CD
:103CC0001C43730899460026371C1BE01C78E2074A
:103CD0003DD564085A78D10078200840814699780B
:103CE000C90008250D4052091543ED00254E002757
:103CF000002290465A78D20601D5002291469B7840
:103D00009B073CD40021381C0AF086FC002803D015
:103D10002000FFF771FF071C0021301C0AF07CFC1B
:103D2000002803D04046FFF74FFF061C4846FFF728
:103D30007BFF041C2800FFF777FF031C321C211CAB
:103D4000381CFDF733FAC0BCB946B046F8BD62086E
:103D500090465A78D1007820084081469978C90069
:103D600008250D4052091543ED000026064F00249A
:103D7000C0E7A146A04625000026371CC2E7002563
:103D8000C0E7C046000020430000A0430A4B0122C8
:103D90001A7000225A7003329A70084A117AD97048
:103DA000D179197191795971517999711179D971C3
:103DB000D2781A727047C046D82200209818002086
:103DC00010B50400FFF7A4FE8120FFF7ABFE012C25
:103DD00009D0064B1C70064B19784023034A00207B
:103DE0000DF03AFC10BDFFF7D1FFF4E7D822002018
:103DF0008232002070B586B06C462A4B0433220014
:103E000070CB70C270CB70C2022837D0032841D06B
:103E10000023002500E00133052B10D8224AD218D8
:103E20007D32FF3214780522D21A885C8442F2D0A7
:103E30001D4AD2187D32FF3210700125EBE7002DAC
:103E400019D18120FFF774FE184801238373164BA4
:103E50001A7AC273DA7902749A7942745A7982743E
:103E60001A79C274DB7803751530182269460AF096
:103E7000ABFD06B070BDFDF70FFEE2E78120FFF756
:103E800057FE0A48022383730F30102208490AF0B4
:103E90009BFDEEE78120FFF74BFE044B03229A7354
:103EA000E7E7C046E42E011098180020D822002031
:103EB0005823002070B504000E001500FFF728FEFF
:103EC0002120FFF72FFEFFF73FFEFFF751FE2000F6
:103ED000FFF734FE482C67D8A4003E4B1B599F4681
:103EE0008020FFF725FE00236AE0F07A431E984108
:103EF000C0B200F05FFFF27A374B1A708020FFF7F4
:103F000017FEF0E731000C31F07AFFF773FFEAE7B4
:103F10008020FFF70DFEF27A304B1A70E3E7822023
:103F2000FFF706FEFFF72EFEDDE78020FFF700FE1D
:103F3000D9E79020FFF7FCFDF27BF17A307B00F0AF
:103F400037FAD0E7FEF74CFDCDE78020FFF7F0FD14
:103F5000C9E78320FFF7ECFD6420FFF723FEC2E7EB
:103F60008020FFF7E5FDBEE78020FFF7E1FDF27A54
:103F70000F231340033BDAB20C2A03D89300184AEC
:103F8000D3589F460120FEF77DF9ACE70320FAE7FE
:103F90000420F8E70520F6E70620F4E70720F2E71B
:103FA0000820F0E70220EEE70023AB4202D2013303
:103FB0009BB2FAE78020FFF7BBFD94E70133DBB249
:103FC0001F2BFBD94023074A212100200DF044FB81
:103FD00070BDC0468C2D011083320020801500205A
:103FE000B02E0110D822002070B50C00150010284A
:103FF0000DD080280FD0012800D070BD881CFFF79D
:1040000025FEA07A2A002100FFF754FFF5E7881C5F
:10401000FFF71CFEF1E74878FFF7D2FEEDE700005E
:10402000094B1B780A2B07D00B2B09D0064B0A2211
:104030001A70054B18787047034B0B221A70F8E77B
:10404000014B0C221A70F4E78115002070B50400B2
:104050005D4B1B78002B04D15C4B1B78302B0BD0B5
:1040600070BD5B4B1A885B4B18785B49FFF7BCFF50
:10407000554B00221A70F3E7FFF74AFD3020FFF797
:1040800051FDFFF761FDFFF773FD544B1B78012BCA
:104090002DD0022B00D18AE02378514DAB7063788C
:1040A000EB70A3782B71E3786B7123790F210B40B0
:1040B000AB716079A3791B0203431B11EB71E379A8
:1040C0002B72237A19406972617AA37A1B020B431F
:1040D0001B11AB72FFF7A4FFE872424B1978402323
:1040E0002A0000200DF0B8FA02F0FEFAB8E700F05E
:1040F00007FD83783A4D2B73C3786B730378AB73EA
:104100004378EB7303792B7443796B74037AAB7444
:10411000437AEB7483792B75C3796B75837AAB75AE
:10412000C37AEB7500F0ECFC83782B76C3786B7662
:104130000378AB764378EB7603792B7743796B770B
:10414000037AAB77437AEB7782792023EA54C279FA
:104150000133EA54827A0133EA54C27A0133EA54D1
:1041600000F0CEFC82782423EA54C2780133EA546A
:1041700002780133EA5442780133EA540279013378
:10418000EA5442790133EA54027A0133EA54427A1A
:104190000133EA5482790133EA54C2790133EA5493
:1041A000827A0133EA54C27A0133EA5474E70E4D3D
:1041B000280000F025F90A4B0C3307CD07C307CDC3
:1041C00007C307CD07C367E78432002080150020AE
:1041D0007E15002085320020182300208332002025
:1041E000D822002082320020282F002010B5054B55
:1041F00001241C70044B1870044B1A8004480AF008
:10420000E3FB10BD84320020853200207E150020A3
:104210001823002010B5024B18180AF0D5FB10BD6A
:10422000D8220020502800D1B0E003D960282FD038
:10423000FF2010E0402800D9AAE0202805D34B2910
:1042400024D88B00564AD3589F46002803D0102804
:1042500000D09FE0002070479520FCE70020FAE79F
:104260002A39504B59187D31FF310878F3E704396A
:104270004C4B59187D31FF310878ECE70020EAE714
:104280000020E8E76820E6E70020E4E70020E2E716
:10429000A92979D88B00444AD3589F46FF20DAE7F2
:1042A0000220D8E70120D6E72320D4E70020D2E778
:1042B000B920D0E71A20CEE70120CCE70020CAE7DA
:1042C0004020C8E70020C6E74020C4E70020C2E73E
:1042D0004020C0E70120BEE70020BCE70120BAE78C
:1042E0000020B8E70120B6E70020B4E73B20B2E7A2
:1042F0003420B0E73B20AEE73420ACE73B20AAE710
:104300003420A8E73D39294B585CA4E73D39274BB9
:10431000585CA0E71A209EE71A209CE71A209AE72B
:104320005E2098E7012096E7502094E7FD2092E771
:10433000002090E700208EE7C6208CE70F208AE758
:104340000F2088E7302086E7612084E7AE2082E7EF
:10435000902080E7D9207EE7D4207CE714207AE7FC
:10436000542078E7412076E7152074E7542072E75F
:10437000C72070E779206EE79C206CE733206AE75E
:10438000362068E7632066E7002064E7002062E7E4
:10439000FF2060E7FF205EE722205CE703205AE76A
:1043A000002F011098180020303001101C3200201E
:1043B000F0B58BB006000F00150008A90F7048700B
:1043C00000248C70CC700A7105220E20FFF722FFAA
:1043D00000941A22002101A80AF0F0FA07E0391926
:1043E000C9B23000FFF71EFF6B4618550134A542D5
:1043F000F5DC2A0069461320FFF70CFF0BB0F0BD77
:10440000F0B5DE4657464E464546E0B585B0040059
:1044100083790322934302221343837101250026EB
:1044200001E00135EDB2032D0CD8724BAA00D05833
:10443000B200D158490049080AF00CF90028F0D020
:104440002E00EEE7032333409A00A3790C218B431F
:104450001343A371002509E0674940460AF0ABF811
:10446000AF000AF023F901ABD8510135022D15DC5C
:1044700072190132032313405E4F9B00D8599D21CE
:10448000C9050AF098F88046B300D85900210AF00F
:10449000CBF80028E0D1FE218905DEE7019B9B12C5
:1044A000DB02D90A0F2211400901A07902400A4318
:1044B000A271D90BE171D90D2172DB0F0126012107
:1044C0000B40607AB04303436372029B9D127F20CE
:1044D000824605406F00657A0D403D4365725B146E
:1044E0009B049B0CA3721B0A3F273B40E57A403894
:1044F00085432B43E372039B9A12944603250322C0
:104500006046104080018446E07A074060460743D9
:10451000E7721B135B035F0BA774580DE0745B0F0E
:104520000720804603409B46207D84460720814625
:1045300060464B4698430300584618432075C3B263
:1045400040460340237500236375A375E37D18304F
:104550008343E375E77D1F233B40E3750023A37787
:104560002700E37FAB43E377DBB21340E3771E37EB
:10457000BB78B343BB701F36A35D0B40A35521230B
:104580009C46E35C5F36B34360462354194E33695F
:104590001940C9018946205C51460140080049463E
:1045A0000143604621545B089B059B0D3B711B0A30
:1045B00013407979A9430B437B712323E15C0A40C3
:1045C0000C210A43E254B38AA3701B0AE370F38AF6
:1045D00023701B0A6370338B23711B0A6371336969
:1045E0000833336105B0F0BCBB46B246A946A046CD
:1045F000F0BDC04684150020000080BFF0B5DE4647
:1046000057464E464546E0B585B004000D00C368E8
:104610009A46CE68311C181C09F0CDFF071C236890
:1046200098462B689B46191C404609F0C4FF011CA4
:10463000381C09F0A0FF071C63686A689146111CCA
:104640000093181C09F0B7FF011C381C09F093FFF8
:104650000190A768AD68291C381C09F0ACFF011C4B
:10466000019809F088FF01905946504609F0A3FFD0
:1046700002904146301C09F09EFF011C029809F08F
:104680007FFF0290291C009809F095FF011C0298F9
:1046900009F076FF0290391C484609F08CFF011C96
:1046A000029809F068FF02904946504609F083FFDE
:1046B0000390291C404609F07EFF011C039809F075
:1046C0005AFF03900099301C09F075FF011C0398F4
:1046D00009F056FF0390391C584609F06CFF011C85
:1046E000039809F04DFF0390291C504609F063FF21
:1046F000051C4946404609F05EFF011C281C09F0D4
:104700003FFF051C0099584609F055FF011C281C65
:1047100009F031FF051C391C301C09F04CFF011C4D
:10472000281C09F02DFF019BE360029B2360039B83
:104730006360A06005B0F0BCBB46B246A946A04687
:10474000F0BD70B504000168081C09F034FF051CB9
:104750006168081C09F02FFF011C281C09F010FFDC
:10476000051CA168081C09F026FF011C281C09F083
:1047700007FF051CE168081C09F01DFF011C281C2F
:1047800009F0FEFE09F0D6FF011CFE20800509F0AD
:10479000FCFE051C011C206809F00DFF2060291C8F
:1047A000606809F008FF6060291CA06809F003FF39
:1047B000A060291CE06809F0FEFEE06070BD00000A
:1047C000F0B5DE4657464E464546E0B58DB08046CC
:1047D000944A934600911268881A09F040FF041C1D
:1047E0004246127A4146487A0002104300040014FF
:1047F00009F03AFF8C4909F0DEFE8C4909F0C5FE4C
:1048000009F08EFF8A4A8B4B08F039FE00228A4B52
:1048100008F017FE0022894B08F013FE06000F0077
:10482000201C09F07DFF04000D0002000B00300089
:10483000390008F024FE08F0E7FE824642469279ED
:104840004146C879000210430004001409F00CFF2F
:10485000754909F0B0FE754909F097FE09F060FF4F
:10486000734A744B08F00BFE0022734B08F0E9FD0D
:104870000022724B08F0E5FD02000B002000290029
:1048800008F0FDFD08F0C0FE81464246927A41469E
:10489000C87A000210430004001409F0E5FE6249E2
:1048A00009F089FE614909F070FE09F039FF604A9C
:1048B000604B08F0E4FD00225F4B08F0C2FD0022CF
:1048C0005E4B08F0BEFD02000B002000290008F03E
:1048D000D6FD08F099FE051C5146504609F06BFEC6
:1048E000041C4946484609F066FE011C201C09F0DC
:1048F00047FE041C291C0195281C09F05CFE011CC4
:10490000201C09F03DFE09F00BFF04000D00020021
:104910000B0008F0B4FD06000F000022484B029681
:10492000039708F08EFD06000F000022454B200083
:10493000290008F086FD02000B003000390008F065
:104940006EFD0022404B08F073FD06000F000022B0
:104950003E4B0298039908F074FD029003910022E7
:10496000FF239B052000290008F089FD02000B00B1
:104970000298039908F053FD0022354B08F058FDCA
:1049800004000D001C22002105A80AF017F850466B
:1049900009F0C6FE32003B0008F071FD08F034FE5D
:1049A0000590484609F0BCFE32003B0008F067FD68
:1049B00008F02AFE0690019809F0B2FE32003B0092
:1049C00008F05DFD08F020FE07902000290008F0A7
:1049D0001BFE08901F4C05A92000FFF70FFE2000CA
:1049E000FFF7AFFE4246117853781B020B431B04BE
:1049F0001B14A3829178D3781B020B431B041B1456
:104A0000E382117953791B020B431B041B1423838C
:104A10005A46009B13600DB0F0BCBB46B246A94697
:104A2000A046F0BDA02F00200000FA4400FEFF4683
:104A3000182D4454FB2109400080664080842E419B
:104A40000000AE40000048400000E03F0000784019
:104A50000000F03F84150020F0B5C64600B5040004
:104A60008846234923480DF07BFE0028F9D0224ECA
:104A70003368581C032108F063FA25786278120223
:104A80001E4F4800401883005B182A43FA54120A4C
:104A9000FB185A70A078E278120202439A70120A48
:104AA000DA7020796279120202431A71120A5A717D
:104AB000A079E279120202439A71120ADA71207A1D
:104AC000627A120202431A72120A5A72A07AE27AC7
:104AD000120202439A72120ADA72316041462000D1
:104AE000FFF76EFE03480DF00BFE80BCB846F0BD2C
:104AF00030200020481700202C2000200420002017
:104B000010B5094909480DF02BFE0028F9D0084BD3
:104B10001C6806480DF0F4FD6000001980000019C3
:104B2000044B181810BDC046342000204817002040
:104B30002C200020042000204118CB0F5B185B10B4
:104B400080225202914204DA044A914203DB18B2F5
:104B500070470348FCE70348FAE7C046FFFFFEFF43
:104B6000FF7F00000080FFFF70B52848FDF78CFE36
:104B7000274D06220021280009F020FFA81D06224B
:104B8000002109F01BFF234B01221A70224BFA224D
:104B900092011A60214B00221A70214E214C3100E3
:104BA0002000FCF763F80023E25E9C3D9C23EA545E
:104BB0000223E25E9D23EA540423E25E9E23EA542C
:104BC0000623E25E9F23EA540823E25EA023EA5410
:104BD0000A23E25EA123EA540023F25EA223EA54F0
:104BE0000223F25EA323EA540423F25EA423EA54D0
:104BF0000623F25EA523EA540823F25EA623EA54B4
:104C00000A23F25EA723EA5470BDC0460000FFFFEE
:104C10003419002067320020002000206832002074
:104C2000F01F0020D01F002010B5084AE2235B00CF
:104C3000D05C01214942FDF7B9FDFCF727FFFCF7E5
:104C40002BFF034B00221A7010BDC046981800209D
:104C500067320020F8B552495248FCF707F8524B2A
:104C60001B78002B00D160E0504C9C254D4E00235A
:104C7000F15E6057FFF760FF605501350223F15E7A
:104C80006057FFF759FF605501350423F15E605707
:104C9000FFF752FF605501350623F15E6057FFF7BD
:104CA0004BFF605501350823F15E6057FFF744FF65
:104CB000605501350A23F15E6057FFF73DFF6055EF
:104CC000A227374D0023E95EE057FFF735FFE05597
:104CD00001370223E95EE057FFF72EFFE055013769
:104CE0000423E95EE057FFF727FFE055013706236D
:104CF000E95EE057FFF720FFE05501370823E95E42
:104D0000E057FFF719FFE05501370A23E95EE05746
:104D1000FFF712FFE055002333732B73244A136807
:104D2000013B1360002B37D0F8BD1E4A0023D05E34
:104D30001E4B9C2158540221505E9D215854042141
:104D4000505E9E2158540621505E9F2158540821E0
:104D5000505EA02158540A21515EA1229954104A54
:104D60000021505EA22158540221505EA3215854C4
:104D70000421505EA42158540621505EA5215854A8
:104D80000821505EA62158540A21515EA722995449
:104D9000054BA63A1A70C7E7FFF746FFC4E7C046BF
:104DA000F01F0020D01F002068320020981800203B
:104DB00000200020014B18707047C0466932002067
:104DC000F0B5C64600B504004C4B1B78002B06D14D
:104DD0004B4B1B78002B05D180BCB846F0BDFFF7CC
:104DE00039FFF9E7FA21474A8900FDF753FF002808
:104DF000F2D0454D29004548FBF738FF2B7B002BAF
:104E000003D0424B1B7B002B0AD1404B1B7B002B5A
:104E100000D06EE000233D4A13733B4A1373DBE777
:104E20003A4B984618883A4D9C23EB569BB2C01AD1
:104E3000354F3988A223EB569BB2C91A09B200B28A
:104E4000FFF77AFE334E3080434658889D23EB5659
:104E50009BB2C01A7988A323EB569BB2C91A09B238
:104E600000B2FFF769FE7080434698889E23EB5698
:104E70009BB2C01AB988A423EB569BB2C91A09B2D7
:104E800000B2FFF759FEB0804346D8889F23EB5607
:104E90009BB2C01AF988A523EB569BB2C91A09B276
:104EA00000B2FFF749FEF08043461889A023EB5675
:104EB0009BB2C01A3989A623EB569BB2C91A09B214
:104EC00000B2FFF739FE308143465889A123EB56E3
:104ED0009BB2C01A7989A723EB569BB2C91A09B2B3
:104EE00000B2FFF729FE708121003000FFF7B4FD0A
:104EF00090E721000548FFF7AFFD8BE76732002000
:104F000069320020A02E0020F01F0020D01F0020BA
:104F100098180020E01F002004281ED00CDC012877
:104F200016D000280FDD0238C0B201280BD80D4B77
:104F30000B60083313600AE0052804D10A4B0B60AC
:104F40000833136003E0094B0B60083313607047AC
:104F5000074B0B6008331360F9E7064B0B6008330F
:104F60001360F4E7E0190020001A0020C0190020A7
:104F7000D0190020F019002030B50F220D780F2332
:104F80001D40047894432C4304704C781C40250148
:104F900004781C402C4304708D781D404478944361
:104FA0002C434470CC781C40250144781C402C4391
:104FB00044700D791D40847894432C4384704C795F
:104FC0001C40250184781C402C4384708D791D4041
:104FD000C47894432C43C470CC791C402501C47818
:104FE0001C402C43C4700D7A1D40047994432C431B
:104FF00004714C7A1C40250104791C402C43047137
:105000008D7A1D40447994432C434471CC7A1C40E2
:10501000250144791C402C4344710D7B1D4084794B
:1050200094432C4384714C7B1C40250184791C40A3
:105030002C4384718D7B1D40C479944322002A4304
:10504000C271CA7B1A401201C1790B401343C3716C
:1050500030BD0B781B071B0F03700B781B094370C7
:105060004B781B071B0F83704B781B09C3708B7821
:105070001B071B0F03718B781B094371CB781B0730
:105080001B0F8371CB781B09C3710B791B071B0F97
:1050900003720B791B0943724B791B071B0F837239
:1050A0004B791B09C3728B791B071B0F03738B7919
:1050B0001B094373CB791B071B0F8373CB791B0928
:1050C000C373704770B50400144D154A2900FFF7EB
:1050D00023FF2B68134A1168526819605A60042C28
:1050E00012D0052C15D0032C09D00D4B1B680022C3
:1050F0001A800A4B19680C48FFF7ABFF70BD084BCC
:105100001B680A4A1A80F4E7054B1B68084A1A8094
:10511000EFE7034B1B68074A1A80EAE7E02100200B
:105120009023002018330110C421002000E1FFFF6C
:1051300000C0FFFF00CAFFFF10B50E4B19600E4BF9
:105140001A600E4B18700E4C0E4A2100FFF7E4FE59
:1051500021680D4C2000FFF77CFFE37A0B3B5A1EC1
:1051600093410A4A1370637A093B5A1E9341084AD5
:10517000137010BD1C1B0020201B0020703200206B
:10518000E021002090230020C42100206F32002065
:105190006A320020024ABC235B00D0547047C046EC
:1051A0009818002010B5044B00221A70034B1968A0
:1051B0000348FFF74EFF10BD59320020E0210020C8
:1051C000C421002070B590B00500384C384E220044
:1051D0003100FFF7A1FE31683648FFF73AFFFFF7CD
:1051E000E1FF002300933C22002101A809F0E6FB27
:1051F000A6236A461370557033681A781207120F87
:1052000069468A701A781209CA705A781207120F02
:105210000A715A7812094A719A781207120F8A7124
:105220009A781209CA71DA781207120F0A72DA78BC
:1052300012094A721A791207120F8A721A79120920
:10524000CA725A791207120F0A735A7912094A73ED
:105250009A791207120F8A739A791209CA73DA7946
:105260001207120F0A74DB791B094B74226813882A
:105270001B0A8B741388CB740F4BBC2252009A5CB0
:105280000A75BD2252009B5C4B75FA20000103F0A9
:10529000E1FB002801D110B070BD00200CF088FCAB
:1052A0004022694600200CF065FCF4E784230020CE
:1052B00080230020702300209818002070B50A0079
:1052C00000210F2937D803000B41DB0714D401312B
:1052D000C9B2F6E70133DBB20F2B0FD82A4AD05CF4
:1052E0002A4A12789042F5D1294A14680120984040
:1052F000228802432280EDE70023EDE7224C234879
:1053000003786354224B1D6801228A402B88934303
:105310002B8002781F4809F0A7FC1F4B00221A704F
:105320001E4B18682100FFF727FE1D4B0020185662
:10533000FFF748FF70BD002AFCD0002401E00134D3
:10534000E4B20F2C14D8104B1A5D104B1B789A4204
:10535000F5D12100134809F087FC0D4B1968012293
:10536000A2400B8813430B800B4B00221A70E6E718
:105370000A4B18680449FFF7FFFD094B0020185637
:10538000FFF720FFD6E7C0467023002058320020E8
:1053900084230020D83201105932002080230020BD
:1053A00086320020F432011070B504000D00084E62
:1053B000084A3100FFF7B0FD31680748FFF749FEA2
:1053C000064B1C70064B1D70064B01221A7070BDF7
:1053D00080230020842300207023002086320020B8
:1053E000583200205932002070B582B0DA4B0022CA
:1053F0001A809A70D94B1B68DA79197A090211431D
:10540000587A000401439A7A12060A43D878197927
:10541000090201435C79240421439879000608437A
:105420006B4601A901F02EFCCD4B1B78002B14D04C
:10543000CA4B1A6893789B07D90F002B03DA93782D
:10544000022083439370C54B1B681A78587800027A
:105450001043FFF733FF02B070BD01F02BFD0028B1
:1054600026D0BE4B19688A780124A2438A70196835
:105470008A78022082438A7019684A781025AA43E4
:105480004A7019684A781035AA434A7019680A7830
:10549000A2430A7019680A7882430A7019680A7868
:1054A000023082430A701A68137808218B43137004
:1054B000A94B00229B5EAB4A12685178C90600D501
:1054C0002FE1A64909684978C906C90FA648007B9B
:1054D000814009B20B43A0490B805178890600D561
:1054E00021E19E49096849788906C90F9E48407B99
:1054F000814009B20B43984C238098490968887809
:105500008007C00F4000A5780226B5432843A0704D
:105510008878C007C50FA078013EB0432843A0702B
:105520001078C00700D500E10878C007C00F8E4C86
:105530002478A04000B20343874803801078800796
:1055400000D5F4E008788007C00F874C6478A0404D
:1055500000B20343804803801078400700D5E8E09C
:1055600008784007C00F804CA478A04000B20343E5
:10557000794803801078000700D5DCE00878000740
:10558000C00F794CE478A04000B203437248038016
:105590001078C00600D5D0E00878C006C00F724C65
:1055A0002479A04000B203436B4803801078800642
:1055B00000D5C4E008788006C00F6B4C6479A04029
:1055C00000B20343644803801078400600D5B8E079
:1055D00008784006C00F644CA479A04000B2034391
:1055E0005D4803801078C00900D0ACE00878C0099D
:1055F0005D4CE479A04000B20343574803805078E3
:10560000C00700D5A1E04878C007C00F564C247AE7
:10561000A04000B20343504803805078400700D5B3
:1056200095E048784007C00F4F4CA47AA04000B2E4
:105630000343494803804D480078002800D1A1E089
:1056400001204B4C019DA54200DC0020C0B24C78EB
:10565000A407E40F20435478A4077AD4424C647A18
:10566000A04000B203439BB23B4803809B0500D49B
:1056700086E0404B384CE01CE3701C0A4470002468
:1056800084701B0EC3703C4B1B78002B00D197E03D
:1056900001233748009C844200DC0023DBB24878B9
:1056A0000007C00F03432C480024005F54782407F0
:1056B00000D581E02C4CE47AA3401BB203439BB29B
:1056C000254803801B0579D52A4B234CE01DE37147
:1056D0001C0A4470002484701B0EC3701E4B0020F3
:1056E0001B5E5078400600D584E048784006C00F25
:1056F0001D4CA47BA04000B203431748038052789E
:10570000D20979D14A78D2091749C97B8A4012B2A5
:10571000114913430B80194B18680C2209F054F9F6
:1057200099E60021D6E60021E4E6002003E7002008
:105730000FE700201BE7002027E7002033E70020C9
:105740003FE700204BE7002056E7002062E70020FB
:105750006EE7002086E7C046D42100201C1B0020F5
:105760005932002090230020C42100206A320020FA
:1057700089020000FF0F00006F320020201B002074
:10578000002377E71D4C01A80078E07068460530DB
:1057900000782071684606300078607168460730EE
:1057A0000078A0714B789B07DB0F5B0060780225C7
:1057B000A8430343637066E700237FE7002384E781
:1057C0000E4C68460078E07168460130007820721F
:1057D0006846023000786072684603300078A07234
:1057E0004B781B07DB0FDB0060780825A8430343D9
:1057F000637073E700207FE7002289E7D42100204F
:1058000010B5054CA4466044624442430819634401
:1058100058431018C00F10BD00F8FFFF70B50C0002
:1058200008F022FF8A21C90508F0A5FE051C20000A
:1058300008F01AFF8A21C90508F09DFE041C291CE6
:10584000281C08F0B8FE051C211C201C08F0B3FE23
:10585000011C281C08F094FE08F06CFF70BD10B508
:10586000031C081C0124191C08F0E4FE002800D1C8
:105870000024E0B210BD10B50400130040680028F9
:105880000CDB0A00A168FFF7BBFF002800D110BDA8
:1058900001235B426360A3600120F8E70020F6E784
:1058A000F0B5D6464F464646C0B506000D009146B7
:1058B0009846089CFFF7B2FF071C3C4908F0C2FE5F
:1058C000002822D06660A5601423A3812A0031003D
:1058D0002000FFF7D0FF002820D00C22A35E002B71
:1058E0001CDD0023A3730122227663762374E37305
:1058F00080252D012E0027604B461E6043461D600B
:10590000E0BCBA46B146A846F0BD0C22A35E002B0F
:1059100002D09BB2013B1BB2A381D7E7237E002BB1
:105920002CD0237C0133DBB29A462374391C2068C7
:10593000FFF795FF00280BD00123A373E37B01330E
:10594000E37353461D2B06D9002323766376D2E7F3
:105950000023E373F5E7E37B022B1FD90023A37336
:1059600023760133637653460433A3746660A560DF
:105970001423A38180252D012E00BCE7637E002B1C
:10598000B9D0A37C013BDBB2A374002B0AD1A37373
:105990002376637680252D012E00ACE780252D012E
:1059A0002E00A8E780252D012E00A4E700802244C8
:1059B00030B583B00D001400131D094A0092220077
:1059C00049682868FFF76CFF23000C332200083277
:1059D000E968A868034C0094FFF762FF03B030BD8C
:1059E000F82E0020A42F002010B50011084A1378CB
:1059F000991C084C60540133DBB213703D2B01D865
:105A0000002010BD130000221A700120F9E7C046E3
:105A1000663200208822002010B50C00FA213D4A91
:105A20008900FDF737F900281DD03B4B1B78002B70
:105A300012D13A4B1B78002B60D123680B3BFF3B04
:105A4000374A93422BD9374B1C60344B01221A70D2
:105A5000354B00221A7006E0324B1B681868FFF7BE
:105A6000C3FF002800D110BD304BA5221A702E4A6A
:105A700012785A70FA20000102F0ECFF002805D1DC
:105A80000023254A1370254A1370ECE7402227496A
:105A900000200CF06FF800200CF08AF8F0E7636843
:105AA0000B3BFF3B1E4A934208D904341D4B1C603C
:105AB00001231A4A13701C4A1370D4E7A3680B3BE6
:105AC000FF3B174A934209D90834164B1C60134B0D
:105AD00001221A70144B01321A70C4E7E3680B3BC1
