:020000041000EA
:1000000000B5324B212058609868022188439860DF
:10001000D860186158612E4B002199600221596106
:100020000121F02299502B49196001219960352056
:1000300000F044F80222904214D00621196600F024
:1000400034F8196E01211966002018661A6600F04E
:100050002CF8196E196E196E052000F02FF8012189
:100060000842F9D1002199601B49196000215960AB
:100070001A491B48016001219960EB211966A021F2
:10008000196600F012F800219960164914480160C1
:100090000121996001BC002800D000471248134993
:1000A000086003C880F30888084703B5996A0420EC
:1000B0000142FBD001200142F8D103BD02B5186610
:1000C0001866FFF7F2FF186E186E02BD00000240BE
:1000D000000000180000070000035F00212200005C
:1000E000F4000018222000A00001001008ED00E03C
:1000F00000000000000000000000000074B24E7A12
:1001000000200420F7010010C3010010C5010010F9
:10011000C1010010C1010010C1010010C101001097
:10012000C1010010C1010010C1010010C701001081
:10013000C1010010C1010010C9010010CB01001065
:10014000CD010010CD010010CD010010CD01001037
:10015000CD010010CD010010CD010010CD01001027
:10016000CD010010CD010010CD010010CD01001017
:10017000CD010010CD010010CD010010CD01001007
:10018000CD010010CD010010CD010010CD010010F7
:10019000CD010010CD010010CD010010CD010010E7
:1001A000CD010010CD010010CD010010CD010010D7
:1001B000CD010010CD010010CD010010CD010010C7
:1001C00000BE00BE00BE00BE00BE00BEEFF3058054
:1001D000103800BEF2EB8871A06F0110C06F0110E3
:1001E0003402001090A31AE700201F49086006C8D7
:1001F00081F3088810471D48006800282FD10DA4FE
:100200000ECC002902D000F012F8F9E71849194A7B
:10021000002000E001C19142FCD1174988471749ED
:1002200088471749884700BEFDE701C901C29A42C5
:10023000FBD37047C06F0110C0000020781700206A
:100240007886011000000420000004207886011048
:10025000001004200010042000000000704709482E
:100260000DF0D2FE0047000008ED00E0000000D0D5
:1002700098170020E83D002091CD00109108001053
:100280004DCD00105756000006005250ABB36053DE
:10029000D865011006005250861C0302E865011063
:1002A000060052505422A29DFC65011005005250D8
:1002B000DE65F46878860110F8B5C04610B5064CC6
:1002C0002378002B07D1054B002B02D0044800E017
:1002D00000BF0123237010BD981A00200000000009
:1002E000F03B0110044B10B5002B03D00349044828
:1002F00000E000BF10BDC046000000009C1A0020B6
:10030000F03B011010B504001F210AF071FD00221E
:10031000002120000AF084FD002120000AF09AFD4F
:1003200010BD10B504000AF0ADFD0022012120002F
:100330000AF076FD0123A340D022120653625361D6
:1003400010BD10B504000AF09DFD0022012120001F
:100350000AF066FD0123A340D0221206936210BD6D
:1003600070B5040000290CD00AF08CFD0123A340D5
:10037000D022120693620022002120000AF050FDD4
:1003800070BD0AF07FFD0125A540D02636067562B6
:100390000022002120000AF043FDB561F0E770B5AE
:1003A00000280FD0D024240680256D0465616420C8
:1003B0000BF0B0FE80239B04636164200BF0AAFE67
:1003C000A56170BDD024240680256D04656164207C
:1003D0000BF0A0FE80239B04A36164200BF09AFE27
:1003E000A561EEE710B5002804D001211A20FFF71F
:1003F000B7FF10BD00211A20FFF7B2FFF9E7000098
:1004000010B50E20FFF78DFF0F20FFF78AFF102099
:10041000FFF787FF1120FFF784FF0D20FFF791FF03
:100420000C20FFF78EFF0B20FFF78BFF0A20FFF752
:1004300088FF1849184810F033FD012106200AF002
:10044000D7FC012107200AF0D3FC012104200AF087
:10045000CFFC01200AF016FDD0242406022363629B
:10046000636109200AF00EFD80239B0063626361D3
:1004700000200AF007FD01236362636102200AF095
:1004800001FD04236362636100F082FC1A200AF01C
:10049000F9FC10BDC0C62D0000C00340F8B5DE4613
:1004A00057464E464546E0B50400D0263606802322
:1004B000DB019946B361052000210BF0FFFD736855
:1004C0005B0B01252B405A42534101273B401B0146
:1004D0002278102188468A431343237073681B0BCC
:1004E0002B405A4253413B405B01227810318A43F2
:1004F000134323707368DB0A2B405A4253413B403D
:100500009B01227820318A431343237073689B0A2E
:100510002B405A425341DB0122783F310A401343BA
:1005200023704B46736180231B029B46B3610520F9
:1005300000210BF0C3FD73685B0B2B405A42534103
:100540003B402278AA431343237073681B0B2B4054
:100550005A4253413B409B00227804218A43134373
:1005600023707368DB0A2B405A4253413B405B00C7
:1005700022780220814682431343237073689B0ACA
:100580002B405A4253413B40DB00227806308246E2
:100590008243134323705B46736180235B029B4657
:1005A000B361052000210BF089FD73685B0B2B40C4
:1005B0005A4253413B406278AA43134363707368C5
:1005C0001B0B2B405A4253413B405B00627848462C
:1005D0008243134363707368DB0A2B405A425341D2
:1005E0003B409B00627804218A4313436370736825
:1005F0009B0A2B405A4253413B40DB0062785046F5
:100600008243134363705B46736180239B029B4666
:10061000B361052000210BF051FD73685B0B2B408B
:100620005A4253413B409B0162784020824313432E
:10063000637073681B0B2B405A4253413B401B01B4
:10064000627840468243134363707368DB0A2B4031
:100650005A425341DB0162786F30024013436370AA
:100660005B46736173685B091D406B425D412F40BF
:10067000FA00A378504683431343A3707F00DBB294
:100680004A4693431F43A7706378DB06DB0F1B01C9
:10069000FAB2404682431343A370204B1A68C0232A
:1006A0009B015340E022D20113401D4A13601D4BB1
:1006B00004211960194B1B68DB05FBD517494A68F3
:1006C0001204130C184AD21A096880235B014B40AC
:1006D000E021C9010B4012490B60124B0421196043
:1006E0000E4B1B68DB05FBD50C4B5B681B04190C20
:1006F0000D4B5B1AE270100A2071100C6071120E23
:10070000A271E371190A2172190C61721B0EA37296
:10071000F0BCBB46B246A946A046F8BD00C00440A6
:1007200000D0044000E00440FF0F0000F0B5D646C2
:100730004F464646C0B584B0040003AF3A4B1A8812
:100740003A80022399460023BB7002AE3280B37018
:1007500001AD2A80AB7069460A808B70D0231B06DE
:1007600098464A469A61314B9A4603233A00D02173
:10077000504613F09DF943464A465A619A61032355
:100780003200F021504613F093F943464A465A612D
:1007900080239B00994643464A469A6103236A4652
:1007A000F021504613F084F943464A465A619A6153
:1007B00003232A00D021504613F07AF943464A46D3
:1007C0005A613B785B027A785200E02109010B40C4
:1007D0001343BA78D20913432360327852027378F4
:1007E0005B000A401A43B378DB091A4362602A7837
:1007F00052026B785B000A401A43AB78DB091A435C
:10080000A2606B461B785B026A46527852000B402E
:1008100013436A469278D2091343E36004B0E0BC04
:10082000BA46B146A846F0BD083C011000C00340DE
:1008300010B500F0EDF810BD10B504004378DB07EB
:1008400010D463781022110019401A4203D00F4BC4
:100850001B78002B0CD0002903D10C4B1B78002BEC
:100860000DD110BD0022002100200CF033FAE8E782
:100870000020FFF7B7FD054B01221A70F1E70120B8
:10088000FFF7B0FD014B00221A70EAE7A53D0020FA
:1008900010B584B00FF0D4FB64200BF03BFC37485C
:1008A0000FF092FBFFF7ACFD10F0E2F81B20FFF712
:1008B00029FD1A20FFF726FD1A200AF0E3FAD024BA
:1008C00024068023DB046362A36118200AF0DAFAAD
:1008D00080235B046362A36119200AF0D3FA8023AA
:1008E0009B046362A36105200AF0CCFA2023A36273
:1008F0000022012105200AF093FA01AC0C2200210C
:1009000020000FF03BFA2000FFF7C8FD1C4B9B882E
:100910006A461380617812220A40122A09D01823ED
:100920000B40182B0CD0684600F084FD002004B06A
:1009300010BD14480DF068FB030000210800984723
:10094000163B6A4613700120FFF74CFD0120FFF7AC
:1009500026FD0D480BF0DEFB02E096200BF0DAFBE3
:1009600001AC2000FFF79AFD6378DB07F5D5002284
:10097000002100200CF0AEF9EFE7C046F03B01107B
:10098000083C011055420000AC0D0000194B1B68DB
:10099000194A126893421BDA0A33164A1360154B40
:1009A0001B68002B22D1FF33144A126853401B04EA
:1009B0001B0C134A13600F4B1B68002B18DB1B0426
:1009C000104A126853401B0C1B040F4A13607047F7
:1009D0000A3B084A13600D4A1268934201DC054B3A
:1009E0001A60044B1A68044B1A60D8E70023DBE74F
:1009F0000023E4E76C2B0020682B00205C000540FE
:100A00005C1005402000054020100540742B00209C
:100A100010B5FA21044A490102F0D0FA002800D1A9
:100A200010BDFFF7B3FFFBE728380020074B1B681A
:100A3000002B06D0064B00221A60064B1B68002BC9
:100A400000DB7047034B1A60FBE7C046702B0020A9
:100A5000742B0020682B002010B584B0104B0122AD
:100A60001A700F32002168460FF088F9FE239B05AB
:100A700001930393002407E0FFF788FF0CF0D8F8F8
:100A800008200BF047FB01343D2CF5DD00230193DA
:100A90000393034B00221A70FFF778FF04B010BDD8
:100AA000E43D0020F0B5CE46474680B583B0032034
:100AB0000AF0E8F908200AF0E5F9D0231B0608221D
:100AC0005A62F8325A62042103200AF091F9042193
:100AD00008200AF08DF9334F01253D60324B042286
:100AE0001A60324AFF2656621666314C2268120C92
:100AF0001204304989460A601A68910089188A00F0
:100B00002D498C46624411688C46FF2109046046D9
:100B10004140090C090480204001024311603A68F9
:100B2000910089188A0021498846424411682F00A3
:100B30008F43024317601B689A00D2189300434406
:100B40001A68954303431D601C4B1B6873401B04CC
:100B50001B0C1B4A136023681B0C1B044A461360C2
:100B6000962000210BF0AAFA6B46DC1D991D20008F
:100B700000F018FB2378134A13601A1CCD2B00D900
:100B8000CD22323210490A70002B02D10D4A136077
:100B90000B70AF2040000BF0BDFA03B0C0BCB946EB
:100BA000B046F0BDD83800206C320020000005406F
:100BB00020000540201005400C0005405C00054069
:100BC0005C100540702B0020C13D00200902084345
:100BD00000B2704770B582B0D02424060125A5610B
:100BE0006B46187159710B4E022201A9300012F0A8
:100BF000AFFF656102200BF08DFA0335A56102227B
:100C000001A9300012F0A4FF656102200BF082FA06
:100C100002B070BD00C00340F0B5DE4657464E46F8
:100C20004546E0B585B006000D0001AC00230193F8
:100C30000822002102A80FF0A1F803236B449B4671
:100C4000A2235A461370D0231B06994601239846C7
:100C50004B4642469A614D4B9A465946180012F04F
:100C600077FF0C2322000021504612F021FF4B4653
:100C700042465A6161782078FFF7A8FF83B2FF27C8
:100C80003840B0711B0AF371E178A078FFF79EFF3E
:100C900083B2384030721B0A737261792079FFF792
:100CA00095FF83B23840B0721B0AF372E179A079E4
:100CB000FFF78CFF83B2384030701B0A7370617A83
:100CC000207AFFF783FF80B2404283B23840B07091
:100CD0001B0AF370E17AA07AFFF778FF83B23840FD
:100CE00030711B0A73714A460423936101225946ED
:100CF000504612F02DFF0C2322000021504612F026
:100D0000D7FE4A460423536161782078FFF75EFFDF
:100D100083B23840A8711B0AEB71E178A078FFF725
:100D200055FF83B2384028721B0A6B7261792079B3
:100D3000FFF74CFF83B23840A8721B0AEB72E179CF
:100D4000A079FFF743FF83B2384028701B0A6B700D
:100D5000617A207AFFF73AFF80B2404283B238408E
:100D6000A8701B0AEB70E17AA07AFFF72FFF83B21D
:100D7000384028711B0A6B71434633732B7305B0DF
:100D8000F0BCBB46B246A946A046F0BD00C0034039
:100D900010B5AE211020FFF71DFF5C211120FFF7D9
:100DA00019FF04211220FFF715FF04211320FFF77C
:100DB00011FF00211520FFF70DFFE0211720FFF79D
:100DC00009FF10BDF0B5C64600B5040013282DD0AC
:100DD00014282FD0122803D0002080BCB846F0BDC4
:100DE00013271423984620000AF04CF801263300FC
:100DF000A340D0252D06AB620022012120000AF07D
:100E00000FF840460AF03EF83300424693406B62CA
:100E1000AB6138000AF036F83300BB406B62AB615F
:100E20006B68E3401E4209D00120D6E71227142345
:100E30009846D8E7122713239846D4E70020CCE73A
:100E400010B51320FFF7BEFF10BD10B51220FFF73D
:100E5000B9FF10BD10B51420FFF7B4FF10BD10B5D9
:100E600001211A20FFF77CFA962080000BF052F93E
:100E700009F01CFC002800D110BD0120FCE710B5D2
:100E800001F028FE10BD0000F0B5C64600B584B0E4
:100E9000142338E001330B2B05D801AAD25C002AB9
:100EA000F8D00125F6E718200BF034F92F4BDB685A
:100EB0005B07FBD5D02636060427B7612B4B984637
:100EC00001226B46D91C404612F042FE0C2301AAB7
:100ED0000021404612F0ECFD77610C283DD1002343
:100EE000002100E001330B2B05D801AAD25C002AB7
:100EF000F8D00121F6E7002901D0002D30D11820CB
:100F00000BF008F923005C1E002B28D0002301936E
:100F10000822002102A80EF031FF6B46A222DA70EF
:100F2000124BDB685B07FBD5D0252D060126AE6191
:100F30000E4F01226B46D91C380012F009FE0C231B
:100F400001AA0021380012F0B3FD6E610C2802D115
:100F5000002300259FE7002502E0002500E0002592
:100F6000280004B080BCB846F0BDC04600C00340B5
:100F700070B584B003A9484B1A880A8000238B708F
:100F800002A90A808B7001A90A808B7069460A80C9
:100F90008B7032241FE00133022B14D803AAD25CD9
:100FA000002A00D0012101AAD25C002A00D001262B
:100FB00002AAD25C002A00D001256A46D25C002A2F
:100FC000E9D00120E7E7002905D0002D03D0002E4D
:100FD00001D0002857D12300013C002B50D0D02352
:100FE0001B0602229A612D4BDB685B07FBD50323AE
:100FF00003AAD021294812F05BFD032842D1D02357
:101000001B0602225A619A61244BDB685B07FBD501
:10101000032302AAF021214812F04AFD032834D10B
:10102000D0231B0602225A61FF32FF329A611B4B0A
:10103000DB685B07FBD503236A46F021174812F0F3
:1010400037FD032823D1D0231B06802292005A614A
:101050009A61124BDB685B07FBD5032301AAD02101
:101060000E4812F025FD032813D1D0231B06802241
:1010700092005A61002300200026002500218BE702
:10108000002000E0002004B070BD0020FBE700203D
:10109000F9E70020F7E7C046103C011000C003400C
:1010A00010B5FFF7D9FC012010BD0120704770B5C5
:1010B00082B0FFF75DFF01AC012601252840030146
:1010C00020781022904318432070FFF7D8FEC30108
:1010D00022787F20104018432070FFF7C0FE284080
:1010E000830120784022904318432070FFF7B2FE1E
:1010F0002840830020780422904318432070FFF793
:101100009FFE03002B402078B04318432070FFF768
:101110009CFE284043002078022290431843207010
:10112000FFF7C3FF2840C3002078082290431843EC
:101130002070FFF7A9FE2840430120782022904329
:1011400018432070FFF7ACFF05406078B0430543BB
:101150006570208802B070BD10B512E00C4B9A6A21
:101160000C4B1A600C4812F0ABFC00F0B1FC094CBF
:10117000206806F0B1FC206804F0F2FD2068FFF75B
:1011800057FB0649044812F0CBFC0028E6D1ECE7F7
:1011900000400540CC280020381700206C2C00208F
:1011A00070470000044B7A22FF329A5C02707C2266
:1011B000FF329B5C0B7070479818002064207047CA
:1011C000014B002018567047A0140020F8B5040009
:1011D0000E001500254A2649280001F0EFFE071EE3
:1011E0001DD0244B1A6824498C466244D1175218EA
:1011F0004A405B686344D9175B184B40642A0BDC98
:101200000022642B00DD02001C4B1B88002B05D044
:101210001A4B00221A8002E00200F2E7170022783F
:1012200063781B021343154A11880B431380114B3B
:1012300032681A6072685A60114B3A0011492800EE
:1012400001F0CFFE002807D00F4B1B78002B03D1F5
:101250000D4B01221A70F8BD002FFCD00A4B1B78F1
:10126000002BF8D0084B00221A70F4E7A0320020BF
:1012700040420F00B438002000F8FFFF963D0020E8
:101280005838002040787D01AC3D0020014B187893
:101290007047C046AC3D002010B5002803D1074B75
:1012A00000221A7010BD0120FFF779F80120FFF726
:1012B00099F8024B01221A70F4E7C0469C3D0020C9
:1012C00010B50020FFF78EF80020FFF768F8002225
:1012D000002100200BF0FEFC10BD000010B50849F5
:1012E000084812F01DFC002802D1074B186810BDF9
:1012F000064B1A68044B1A60024812F0E1FBF4E74F
:10130000702C0020381700206C3D0020CC280020D5
:1013100010B5064B1B78002B00D010BD034B0122EB
:101320001A70002001F008FBF7E7C046C83D002016
:1013300010B5334B1B78002B39D03249324812F0AC
:10134000EFFB00283BD13148FFF7A8F8304B1B7862
:10135000002B3CD105F018F82E4C20682B4906F0E4
:1013600053FD206801F07EFB08F0BEFB00283BD057
:10137000284C2068284905F023FB2068274A284983
:1013800008F0DEFB274B00221A70224B1A68244912
:101390002248FFF71BFF244B1B785BB2012B2AD09E
:1013A0000BF046FC1B4B1868FFF7FAFE10BD00213E
:1013B0001E480BF083FC124B01221A70BDE71C4B38
:1013C0009A6A144B1A60104812F07AFBBBE70F4878
:1013D000FFF732FA0BF02CFC0E4C206801F042FBB8
:1013E000206801F055FDE1E70A4B18680C4A0B49EB
:1013F00000F0A0FCC9E7074B186801F049FDCFE7F2
:10140000D23D0020682C0020381700200024002046
:101410009C3D0020CC280020C82300200C24002064
:10142000E8230020AC3D0020A01400204C1D00004B
:101430000040054070B5051E00D1DCE001F0B9FDAB
:101440000400FEF7DDFF6C496C480FF0EFFE03214E
:10145000162009F0CDFC0321172009F0C9FC6848CB
:10146000FFF71CF800F090FB00282DD0644E3300ED
:10147000644A6549654806F043F906F0D5FBB37840
:10148000DB0626D4E3B2012B29D0022B2CD0012479
:101490002C57631C2FD00022AA565D4B1A70584B54
:1014A0001B789A062BD45A0645D4DA0645D45AB28C
:1014B000002A44DB5A0744D40A221A40022A42D0A6
:1014C0001B071DD503241BE03221524801F022FAEC
:1014D000CCE70622002150480EF050FCD2E74C4BDE
:1014E00002221A700024DAE723041B0F484A137003
:1014F0002405240FD3E7494B02241C57CBE70624CD
:10150000FFF7D0FA02F096FC444AE2235B00D65C77
:101510003F4B1B785BB2013317D06425002001F0EC
:1015200003FCFA2001F096FBE3B2062B3DD8A300A2
:101530003B4AD3589F460124E2E70024E0E7022417
:10154000DEE70524DCE70424DAE701F02DFC0028BF
:1015500004D12F4B02221A704625DFE72C4B0122C3
:101560001A706425DAE72F48322101F0D3F92900F7
:10157000300001F0F3F9264B00215956200000F00D
:10158000E9FB1F4B9B789B0730D4274A1C4920005E
:1015900004F0A2FD0EF060FF24480EF04BFFFFF7B1
:1015A000C7FEFCE7FF200006DEE72148DCE7FF205E
:1015B0000002D9E7002001F04DFB154B00221A7004
:1015C000FF2000041925CFE7002001F043FB104B5A
:1015D00000221A7017480F25C6E7002001F03AFBD9
:1015E0000B4B00221A7014481925BDE70B4B9C7059
:1015F00000F0C4FAC9E770BD400D030008170020D1
:1016000000240020C8230020E8230020D823002045
:10161000A01400200000FF4D141A0020981800208C
:10162000143C011000F115FF0C240020591100108A
:1016300000A1A1A100FF61000000FFE6094ABD234F
:101640005B00D35C1A1C312B00D83222054BBD2124
:1016500049005A54DA787A39FF398A43DA709B2282
:101660001A7270479818002070B505001400724B6C
:101670001380012900D070BD0223C3569370D01C83
:10168000E91C06220EF080FBEB68E3602B69236106
:101690006B696361AB69A36120001C3029001C31B8
:1016A00020220EF071FB20003C3029003C3120222A
:1016B0000EF06AFB20005C3029005C3120220EF025
:1016C00063FB20007C3029007C3120220EF05CFB83
:1016D00020009C3029009C3106220EF055FB200092
:1016E000A2302900A23106220EF04EFB2000A830C5
:1016F0002900A83130220EF047FB20002930FF30AE
:101700002900D83110220EF03FFB20003930FF3085
:101710002900E83110220EF037FB20004930FF305D
:101720002900F83110220EF02FFB20005930FF3035
:1017300029000931FF3110220EF026FB200069300C
:10174000FF3029001931FF3110220EF01DFB9423C8
:101750005B00EA5C5033E2542A23FF33EA5C7A23CD
:10176000FF33E2544F3BEA5C5033E2542C23FF3307
:10177000EA5C7C23FF33E25420007D30FF302900F7
:101780002D31FF3106220EF0FFFA20008530FF30A8
:1017900029003531FF3120220EF0F6FA2000A53065
:1017A000FF3029005531FF3120220EF0EDFABA2327
:1017B0005B00EA5C5033E2542000C930FF3029005E
:1017C0007931FF3118220EF0DFFAC8235B00EA5CA2
:1017D0005033E2544E3BEA5A5033E2524E3BEA5AFF
:1017E0005033E2524E3BEA5A5033E2524E3BEA5AF1
:1017F0005033E2524E3BEA5A5204F6204000110C9C
:10180000225A9A3BFF3B1A400A432252CE225200F0
:10181000A95A22185180CF225200AA5A5204F82104
:101820004900120C605A034013436352D0235B00FB
:10183000EB5A641863801EE702A0FFFF064B984234
:1018400004D0064B984203D1022070470120FCE7E8
:1018500001204042F9E7C04601A0000002A00000BC
:1018600010B512480EF0E0FB002407E0104B5B18A7
:10187000D97810480EF0D8FB0134E4B2052C0DD80D
:101880000FF0BEF82100C0B2094A1219D070002C26
:10189000ECD1130001229043D870E7E7044B9B2260
:1018A0001A720A200EF072FB10BDC046303C0110C7
:1018B00098180020403C0110F0B5DE4657464E46D1
:1018C0004546E0B56F4CA544FC256D002A0000217B
:1018D00002A80EF053FA6C4B02AA1380059B0193E9
:1018E000DB0FDB078022120113430593069B019354
:1018F000DB0FDB0713430693079B0193DB0FDB072B
:1019000013430793089B0193DB0FDB071A430892ED
:101910005E4F0A975E4E0B965E4C0C945E480D909F
:101920005E490E915E4A0F925E4B1093129713968A
:10193000149415901691179218935B4B19931A9360
:101940001B931C931D931E931F932093219380221E
:1019500002A98B5004328B5004328B5004328B50CE
:1019600004328B5004328B5004328B50FF231B0403
:101970009A46A8230A005146D1504C4B9B46AC23B3
:101980005946D1504A4B9946B0234946D150FF237E
:101990001B069846B4234146D150FF263602043335
:1019A000D6500433434A02A9CA50434F04330A00B5
:1019B000CF5004335146D15004334146D150043303
:1019C000D65004334946D1500433D6503B4BD8222D
:1019D00002A98B5004328B5004328B5004328B504E
:1019E000E823CF50B63B7A22FF328B5401328B541E
:1019F000173AFF3AF121490002A8425202314352FC
:101A0000023142528532FF32010083522C4C2A00AF
:101A100020000EF0B9F9002004F024FB012004F0AE
:101A200021FB032004F01EFB042004F01BFB052017
:101A300004F018FB20009C30062200210EF09EF9D5
:101A40002000A230062200210EF098F9FFF708FFCF
:101A5000E4235B005246E25004335A46E25004331A
:101A60004A46E25004334246E2500433E65004331F
:101A7000E75081239B009D44F0BCBB46B246A9467B
:101A8000A046F0BDFCFDFFFF02A0FFFF00003442B6
:101A90000000B442000007430000344300006143EB
:101AA0000000874300809D43000016440000FF4D66
:101AB0000000FFE600F115FF00FF610000A1A1A1F9
:101AC00098180020014B18787047C046DE3D002072
:101AD00070B5204CA544204B1B78002B03D18023EC
:101AE0005B019D4470BD0EF0CFFCEFF3108672B623
:101AF0001A4B1B78002B24D1194C00230093194A50
:101B0000002101A80EF03AF9FC225200164968465D
:101B10000EF03AF980256D012900200012F008F836
:101B20002A006946200011F0E3FF86F310880EF0CA
:101B3000B5FC0E4B1B78002B06D1074B00221A7008
:101B4000CDE796246403D8E708F08EF8074B00220F
:101B50001A70F2E700F0FFFFC63D0020DE3D0020D6
:101B600000D01200FC0F000098180020D33D002088
:101B7000014B01221A707047D33D0020014B012216
:101B80001A707047C63D002070B5394B1888394B24
:101B90001D88FFF753FE04002800FFF74FFE0500E5
:101BA000631C0BD0022C0FD0022D0DD0012C2CDD8C
:101BB000012D2ADD0023002200262CE0431CF1D158
:101BC00000230022012626E0022C05D0022D0FD092
:101BD0000023002200261EE0FC2252002449264851
:101BE0000EF0D2F8254B00221A700023002612E0D6
:101BF000FC2252001F4920480EF0C6F81F4B01225C
:101C00001A7000230022002605E00123012C15DDB7
:101C1000DBB201220026002E12D1002A23D0002B95
:101C200018D1164B01221A70134A21001048FFF7F1
:101C30001BFD0020FFF7A2FF300070BD0023E7E787
:101C40000E4B00221A70FFF737FE0020FFF796FFB9
:101C50000026F1E7094B00221A70074A29000548BF
:101C6000FFF702FDE5E7FFF7E9FC0126E4E7C046E0
:101C700000D0121000C0121098180020DE3D002085
:101C800010B5031C642800D9642303497A22FF326B
:101C90008B54FEF707FF10BD9818002010B50228DE
:101CA00017D008D800280DD001280FD10B4AF223F5
:101CB0005B00D1520AE0032808D1084AF4235B00F4
:101CC000D15203E0054AF1235B00D15205F0A8F997
:101CD00010BD024AF3235B00D152F7E798180020A9
:101CE00030B50F4C40004508E068C00FC0072843DE
:101CF000E060490048082169C90FC9070143216113
:101D0000520051086269D20FD2070A4362615B0038
:101D10005A08A369DB0FDB071343A36130BDC0463C
:101D200098180020062800DD0020014B98707047AD
:101D30009818002010B5034B1B68002B00D0984763
:101D400010BDC046B4260020014B00201856704735
:101D5000AD3D002010B588B00400284B1870022952
:101D600010D00C22002105A80EF008F81022002146
:101D700001A80EF003F8E3B2062B0BD8A400204B09
:101D80001B599F461F4B204A1A6008F027FD002868
:101D9000E7D005E01B4B1D4A1A60002001F0D4F982
:101DA00008B010BD174B194A1A60062001F0CCF993
:101DB000F6E7144B154A1A60012001F0C5F9EFE768
:101DC000104B124A1A60022001F0BEF9E8E70D4BF1
:101DD0000F4A1A6001AA05A90020FFF7ABFFDFE751
:101DE000084B0C4A1A6001AA05A90020FFF7A2FFC0
:101DF000D6E7044B084A1A60D2E7C046AD3D002042
:101E00006C3C0110B426002031AA0010F9310010FA
:101E100089870010B1910010A1970010F0B5C64657
:101E200000B590B004000D0016001F0016AB1B7823
:101E30009846494B984200D188E00721380008F0C5
:101E4000D7FF012300933A00290020000EF0DEFEA8
:101E50001022002108A80DF091FF80235B02089357
:101E6000F8235B0209938023DB020A93C0231B0340
:101E70000A93102208A904A80DF086FFF31C059A06
:101E8000039236491140F20111431B031943059196
:101E9000079B0393DB00DB08802292051343079323
:101EA0002F4B19400591102204A90CA80DF06CFFCE
:101EB0000F9B03932B4A1A40BF0217430F974346C9
:101EC000002B45D020220E9B0393274919408023E5
:101ED0009B020B435206F82189050A4013430E93D7
:101EE0009B009B088022D20513430E9305200AF025
:101EF00001FE1E490CF0DCF80DF081FD80460DF06E
:101F0000D7FD87B2002F25D038000DF078FD011CD9
:101F100040460DF000FD8721C9050DF01CFD0DF0B8
:101F2000C7FDC0B200023F0407430C970CAB320060
:101F3000290020000EF0BCFE22680123AB409A432A
:101F40001343236010B080BCB846F0BD062175E78E
:101F50001822B8E70020E5E7000020507F00FEFFD0
:101F6000FFFFFF9FFF83FFFFFFFFF5C10050C3008E
:101F7000014B01221A707047BC3D002070B5244B04
:101F80001B78002B17D1234B00221A70204B0132F3
:101F90001A700024032C09D80EF032FD06210CF033
:101FA00087F81D4B19550134E4B2F3E71B4B0022AF
:101FB0001A70002427E0194B1B78002BF9D1184B1D
:101FC0001A789300D218FA2A00D9FA22FF231A406D
:101FD0009B1A9BB2134A1380134A13800F4B0122A2
:101FE0001A70E6E70C4D2B5D72339B000F4A99582F
:101FF000A2000F4BD1500EF003FD06210CF058F853
:1020000029550134E4B2032CECD9FFF7B1FF70BDC0
:10201000BB3D0020A43D0020CC260020C51400209C
:10202000C31400208C3D0020883D0020981800201B
:10203000142B0020034B1980034B1860034B002224
:102040001A7070478A3D0020E82A0020B93D002020
:1020500070B505000C0000880DF0D1FC1B490DF097
:1020600064FC1B490DF077FC0DF022FDC2B22B7908
:10207000A978C943C9B25943090A5B1ADBB23F25A3
:1020800028402D1AEDB2584380096B439B11DBB2F7
:102090000818C0B2CB18DBB23F2A10D9403AD2B2EE
:1020A0003F2A06D81A060B061B0A000213431843E0
:1020B0000AE0090600041B020843184304E0000676
:1020C0001B04090218430843206070BD00007F43D1
:1020D00000003F43F8B5CE46474680B50400234B89
:1020E0001D78002D05D100230360C0BCB946B04661
:1020F000F8BD642DF9D08778E678B81963789846EA
:10210000C0180DF081FC1A490DF00FFC8146280023
:102110000DF075FC17490DF008FC051C011C484624
:102120000DF058FC0028E0D14946281C0DF0FDFBBD
:10213000051C38000DF063FC291C0DF00CFC0DF0A3
:10214000B7FCA07030000DF05AFC291C0DF003FC08
:102150000DF0AEFCE07040460DF051FC291C0DF076
:10216000FAFB0DF0A5FC6070BFE7C046C21400206A
:1021700000007F430000C842F0B5D6464F464646B1
:10218000C0B504000368002B35D083789846C77823
:10219000D819667880190DF037FC051C40460DF003
:1021A0002EFC8046291C0DF0C0FB824638000DF045
:1021B00026FC071C291C0DF0B8FB814630000DF0F1
:1021C0001EFC061C291C0DF0B0FB051C51464046A8
:1021D0000DF0C1FB0DF06CFCA0704946381C0DF0F1
:1021E000BAFB0DF065FCE070291C301C0DF0B3FB50
:1021F0000DF05EFC6070E0BCBA46B146A846F0BD8A
:1022000030B585B01D4B1B78002B0FD10024032C5B
:1022100009D80EF0F5FBFF210BF04AFF184B1955BA
:102220000134E4B2F3E7154B01221A7000241FE0D9
:10223000134D2B5D134A1078C018FF210BF010FFCF
:10224000C9B2295502A80180FF234380838000235F
:10225000019301A9FFF7FCFE01A8FFF73BFF0A4825
:10226000A300019A1A50C018FFF786FF0134E4B2A8
:10227000032CDDD9FFF77CFE05B030BDBB3D00204F
:10228000C02A0020C3140020142B002000220AE0E2
:10229000930006495958064B5B68DB03FBD4044B9B
:1022A00019610132D2B2032AF2D97047EC2A002018
:1022B00000002050F8B5DE4657464E464546E0B58C
:1022C00006000D00141C80780DF099FB8046F07814
:1022D0000DF095FB071C70780DF091FB061CA8789B
:1022E0000DF08DFB8346E8780DF089FB8246687817
:1022F0000DF085FB8146414658460DF00CFB211C34
:102300000DF029FB41460DF00BFB051C391C504616
:102310000DF001FB211C0DF01EFB391C0DF000FB24
:10232000071C311C48460DF0F6FA211C0DF013FB7A
:10233000311C0DF0F5FA061C281C0DF0B9FBC5B2D6
:10234000381C0DF0B5FBC4B2301C0DF0B1FBC0B2AF
:102350002D040002240628432043F0BCBB46B246AD
:10236000A946A046F8BD000000B583B00023009345
:10237000082806D88000174B1B589F46FF231B04D4
:10238000009300230193144A01A96846FFF792FFC6
:102390000023002B18D003B000BDFF231B020093C5
:1023A000EFE70E4B0093ECE7FF231B060093E8E7F3
:1023B0000B4B0093E5E70B4B0093E2E70A4B0093CE
:1023C000DFE70A4B0093DCE7094A043A1060013367
:1023D000DFE7C046883C01106666663F0000FFE606
:1023E0000000FF4D00F115FF00D0FF2B00FF610042
:1023F000142B002010B5054B1870FFF7B5FF044BE8
:1024000000221A70FFF7B4FD10BDC046BE3D00208B
:10241000BB3D0020F8B52B4B18880DF0F5FA011CD8
:10242000FE2080050DF081FA041C274B1B78002B41
:102430000AD1264B1D78234B1B889D4216D9244B6D
:102440001878002830D0F8BD224B1878FFF78CFFA1
:10245000214A224B23CB23C21B68136000231B4A53
:102460001370194A13701A4A1370E2E728000DF02E
:10247000C6FA211C0DF06FFA061C00240BE0A70021
:102480001749C9191448C019321CFFF713FF134B21
:10249000D8510134E4B2032CF1D901350B4B1D7036
:1024A000FFF7F4FE0020CEE70C4A0D4B13CB13C20E
:1024B0001B681360FFF7EAFE054B01221A7001202A
:1024C000C1E7C046883D0020BC3D0020C714002065
:1024D000C4140020BE3D0020042B0020EC2A002064
:1024E000142B0020F0B5C64600B506000F001500FD
:1024F000984600240AE0335D9B004246EA50305D76
:1025000080002818FFF738FE0134E4B2BC42F2D351
:1025100080BCB846F0BD0000031C642800D96423C9
:10252000014A13707047C046C214002030B583B012
:10253000050000240CE0019501A8FFF7CBFD06483B
:10254000A300019A1A50C018FFF716FE0134E4B236
:10255000032CF0D903B030BD142B002010B509486E
:102560000388094A12789B18FF2213400380074C06
:102570002100FFF76DFD2068FFF7D8FFFFF7F8FC9B
:1025800010BDC046BC140020C3140020BC2A00208B
:1025900010B51A4B1B78002B17D1194A1370174A24
:1025A00001211170174A1370154C237872339B0068
:1025B000154A9858FFF7BAFF2078013006210BF032
:1025C0004FFD2170FFF7D4FC10BD0E4B1B78002B84
:1025D000EAD10E4B1B789A009B18FA2B00D9FA23EC
:1025E000FF221A40FF239B1A9BB2094A1380094A13
:1025F0001380044B01221A70D6E7C046BB3D002071
:10260000A43D0020C614002098180020C314002008
:102610008C3D0020883D002010B50F4B1B78002B0F
:1026200010D10E4B1B68002B02D10C4B0C4A1A60C8
:102630000A4B1868FFF77AFFFFF79AFC064B012256
:102640001A7010BD0020FFF771FFFFF791FC024BDD
:1026500000221A70F5E7C046DC3D0020FC2A00206D
:102660000000FFE670B5184B1C78002C05D0174B06
:102670001B78002B19D0200070BD154B154A23CABA
:1026800023C3190013680B60134B1868FFF74EFF44
:10269000124B1A88124B1A80FFF76AFC0A4B012270
:1026A0001A700A4B00221A70E5E70E4B084A23CA3B
:1026B00023C3190013680B60FFF75AFC034A137811
:1026C00001331370D7E7C046B93D0020E23D00203A
:1026D0007C390020EC2A0020002B00208A3D0020BD
:1026E000883D0020142B002070B50E4B1C78002C68
:1026F00008D00D4B1D78002D11D0FEF7E1FD2C0008
:10270000200070BD0020FFF711FFFFF731FC074BE1
:102710001A88074B1A80034B01221A70F0E700F069
:1027200043FAEDE7B93D0020BF3D00208A3D00207F
:10273000883D002070B50C000F2803D88000284B7E
:102740001B589F460126274D2BE00126264D28E0E9
:102750000126264D25E00126254D22E00126254DA6
:102760001FE00126244D1CE00126244D19E001261E
:10277000234D16E00126234D13E00126224D10E0E3
:102780000126224D0DE00126214D0AE00126214DB2
:1027900007E00126204D04E00126204D01E004263B
:1027A0001F4D002A12D023001E4A31002800FFF7D7
:1027B00099FE23001C4A31002800FFF793FE2300F6
:1027C0001A4A31002800FFF78DFE70BD2300164A1B
:1027D00031002800FFF786FEFFF7CAFBF5E7C04689
:1027E000AC3C0110303D0110103D0110203D0110A6
:1027F0000C3D0110143D0110283D0110383D011021
:10280000343D0110043D0110083D0110183D011038
:102810003C3D01102C3D0110403D0110243D0110B4
:102820001C3D0110042B0020142B0020EC2A00205A
:1028300070B50C4B196840220B480DF0A5FA002426
:102840000CE0A300084DED182800FFF743FC2968B1
:1028500000222000FFF76EFF0134E4B20F2CF0D904
:1028600070BDC046242B0020282B002010B5024B41
:102870001860FFF7DDFF10BD242B002010B5074BBB
:102880001B78002B00D010BD0548FFF7EFFFFFF7C6
:102890006FFB024B01221A70F5E7C046BB3D0020DA
:1028A00040190020144AF0235B00D35C834209D016
:1028B000002B03D1E133FF330521D1540E4AF0231D
:1028C0005B00D0540C4AF0235B00D25C0B4B1A70B7
:1028D0000B4B1B78052B0AD00A4B15221A80094B8B
:1028E0001A88094B1A80094B00221A707047084B4E
:1028F0001A88044B1A80F2E798180020C3140020AD
:10290000BA3D00208C3D0020883D0020BB3D0020CA
:102910008E3D002010B5054B18604908044C20007E
:10292000FFF788FB034B1C6010BDC046002B002046
:1029300065260010E82A002010B5054B1870054BDD
:1029400000221A600A210448FFF774FB10BDC0463C
:10295000BF3D0020E42A0020E926001070B582B0B7
:1029600004000D00254B1B78002B0CD0244B1C7051
:102970000023244A1370244A1370052C16D8A4008F
:10298000224B1B599F46224E224930000EF022F95D
:10299000020000230093153300213000FFF73EFAB8
:1029A000164B01221A70FFF771FCDFE71A4B1B4A26
:1029B0001A601B4AF0235B00D05CFFF773FF002D09
:1029C00015DA02B070BD144B164A1A60F1E7124BCB
:1029D000154A1A60EDE7104B144A1A60E9E70E4BEE
:1029E000134A1A60E5E70C4B124A1A60E1E7FF2D23
:1029F00000DDFF25E8B2FFF78FFDE2E7BD3D0020D7
:102A0000BA3D0020BB3D0020C03D0020EC3C011041
:102A100000002050443D0110E42A00207D280010D1
:102A2000981800205D2500100122001019260010C2
:102A3000912500107D1F001010B5FF2903DC00292F
:102A400002DA152100E0FF21044B1980044B1860C5
:102A500064210520FFF782FF10BDC0468E3D002097
:102A6000FC2A002010B5144A144900F0A7FA0028E7
:102A700000D110BDFFF7CEFC002803D1104B1B780E
:102A8000002BF6D00F4B1B68002B0ED09847002868
:102A9000EFD000240B4B1C600B4AF0235B00D05C92
:102AA000FFF700FF094B1C70E3E7094B1B68002B85
:102AB000DFD09847DDE7C046303800201A410000DB
:102AC000C03D0020E82A002098180020BB3D0020CF
:102AD000E42A002000B587B02C4B1B7805AA1370A0
:102AE00004AA137009F0E6FB02000B1E2CDB284839
:102AF000002112184B41002B2CDB002B2EDB029205
:102B000003930123009305AA6A2122480EF0BAFB21
:102B100009F0D0FB02000B1E26DB1D480021121815
:102B20004B41002B26DB002B28DB02920393002372
:102B30000093013304AA6A2116480EF0C2FB002854
:102B400022DD012007B000BD134B144A3F21144879
:102B50000AF000F901225242124BCEE70E4B0F4A07
:102B60003F210F480AF0F6F80B4B0C4A3F210C4866
:102B70000AF0F0F8012252420A4BD4E7064B074A0A
:102B80003F2107480AF0E6F80020DBE77C48011007
:102B90001027000008170020543D0110D43D0110FB
:102BA000703D0110FFFFFF7F10B586B00020FDF7DC
:102BB00019FC00241CE0204B204A3F2120480AF049
:102BC000C9F8002B28DB0292039300230093023301
:102BD00005AA6A211B480EF055FB0400831C21D076
:102BE000431C22D0FA20800009F094FAFEF768FB1B
:102BF000002C1DD105AB144A1A8009F05BFB0200C2
:102C00000B1ED8DB1148002112184B41002BD8DADB
:102C1000012252420E4BD4E7074B084A3F21084895
:102C20000AF098F8FEF74CFBDCE7FEF749FBD9E722
:102C3000FEF746FB06B010BD543D0110D43D011017
:102C4000703D011008170020094100001027000006
:102C5000FFFFFF7F10B586B00400244B18802328A7
:102C600024D8C0B20538C0B27F231840002C00D150
:102C7000852005AB04221A70587009F01BFB020076
:102C80000B1E22DB1A48002112184B41002B22DBBD
:102C9000002B24DB0292039300230093023305AA46
:102CA0006A2114480EF0EEFA06B010BDAF235B00A7
:102CB000984207D828380A210BF0D2F9C0B21F3049
:102CC000C0B2D1E7AF204000F4E70B4B0B4A3F21E5
:102CD0000B480AF03FF8012252420A4BD8E7064B54
:102CE000064A3F2106480AF035F8C046943D0020C8
:102CF0001027000008170020543D0110D43D01109A
:102D0000703D0110FFFFFF7F70B5064B1D8800204E
:102D1000FFF7A0FFFEF752FA04002800FFF79AFF22
:102D2000200070BD943D002000B587B002281DD062
:102D3000E02205AB0A2119705A7009F0BBFA0200B3
:102D40000B1E15DB1248002112184B41002B15DB1E
:102D5000002B17DB0292039300230093023305AA92
:102D60006A210C480EF08EFA07B000BDE422E0E7BD
:102D7000094B0A4A3F210A4809F0ECFF012252425E
:102D8000084BE5E7044B054A3F21054809F0E2FFFF
:102D90001027000008170020543D0110D43D0110F9
:102DA000703D0110FFFFFF7F00B587B0304B1B78EF
:102DB00005AA137004AA137009F07CFA02000B1E16
:102DC00033DB2C48002112184B41002B33DB002B46
:102DD00035DB029203930123009305AA6A2126485A
:102DE0000EF050FA09F066FA02000B1E2DDB2148A6
:102DF000002112184B41002B2DDB002B2FDB029200
:102E0000039300230093013304AA6A211A480EF0A9
:102E100058FA0230012828D904AB1A78174B1A70D7
:102E2000D0B2C007C00F07B000BD154B154A3F21F7
:102E3000154809F08FFF01225242144BC7E7104B8F
:102E4000104A3F21104809F085FF0D4B0D4A3F21E4
:102E50000D4809F07FFF012252420C4BCDE7084B91
:102E6000084A3F21084809F075FF0120DBE7C0460A
:102E70007C48011010270000081700200C2E0020AD
:102E8000543D0110D43D0110703D0110FFFFFF7F44
:102E900010B5FA212B4A090200F090F8002800D161
:102EA00010BDFFF781FF284B187000281AD0274B60
:102EB0001B78002B19D0254B1B78002B20D1234BDE
:102EC0001B78002BECD0224B1B785B069A0F214914
:102ED00009788A42E4D0022A22D9032A23D1FF208A
:102EE000000222E0FEF714FAE1E7FEF7CFF900282E
:102EF000E1D0184B00221A70144B01321A70DEE731
:102F0000FEF7C4F90028DAD1104B00221A70124AD9
:102F1000E2235B00D05C01214942FFF71FFDCEE7B1
:102F200053B2002B07D1FF2000040A4B1A70642112
:102F3000FFF782FDB4E7FF231B04E62000061843D9
:102F4000F3E7C04678380020A23D0020DF3D002096
:102F50000C2E0020D93D00209818002010B500222A
:102F60000021002009F0B6FEFEE70000072804D883
:102F70008000024B9C466044016070470C80054015
:102F800010B5072802D90024200010BD8000044B92
:102F90009C466044046800210520FFF7E7FFF3E743
:102FA0000C80054010B501000520FFF7DFFFFFF79B
:102FB000D5FF10B50520FFF7E3FF10BD1060536883
:102FC000834205D9C31A013B8B4205D200207047CA
:102FD000834204D2C31AF7E750600120F7E70020CC
:102FE000F5E730B51860002A0BD15C6884420BD934
:102FF000041B013C0025002D0BD1A14209D9100072
:1030000030BD58600020FBE7844205D2041B002538
:10301000F1E758600120F3E71000F1E710B5FEF783
:1030200093FE022801D0024810BD0248FCE7C046CA
:10303000EC3D0110DC3E011010B500200FF0C4FC87
:1030400010BD000010B51021064810F079FD0028D1
:1030500000D110BD044B01221A70024810F030FD5F
:10306000F7E7C04640170020D03D002010B51021E2
:10307000064810F065FD002800D110BD044B002269
:103080001A70024810F01CFDF7E7C04640170020F8
:10309000D03D002070B5050064210D4810F0F8FC0B
:1030A000041E09D10B4B22000B492800FFF799FFA2
:1030B000051E08D1200070BD084B1C78E4B20448FE
:1030C00010F0FEFCEEE7FFF7BDFF2C00F2E7C04674
:1030D00040170020243B0020A0860100D03D0020A6
:1030E000037801330370044B1B785BB2022B01D0D1
:1030F000024870470248FCE7841500202440011074
:103100005C4101100C4B18600C4B98420BD00C4BDF
:1031100098420CD0FA235B00984200D07047094BCC
:1031200001221A60FAE7074B04221A60F6E7054B02
:1031300008221A60F2E7C046A02C002046100000CA
:103140008D200000982C002010B50400002002F013
:1031500001FE022C2CD0062C1DD0012C10D00120F9
:1031600002F0F8FD1848FFF7CDFF184B184A1A6017
:10317000184B194A1A60194B1C7010F031F810BD29
:10318000FA204000FFF7BEFF104B154A1A60114BA2
:10319000144A1A60EFE7012002F0DCFD1248FFF745
:1031A000B1FF0A4B114A1A600A4B0B4A1A60E2E758
:1031B000FA204000FFF7A6FF044B0D4A1A60054BAA
:1031C0000C4A1A60D7E7C0468D2000009C2C0020D6
:1031D00031990010A42C00203930001084150020F3
:1031E00025A50010E1380010461000001DAC0010AD
:1031F0001D7F00106D3D0010F8B506000C00150095
:103200000120002140420EF053FF234B9F6C234BC3
:103210001B68BB421CD2FB1A214A12689A4202D890
:10322000204B01221A70204B1968204A3000FFF70A
:10323000C5FE002802D01E4B01221A701D4B1B78C0
:10324000002B0AD11C4B1B6898471A4B1870F8BD0D
:10325000FB1A1A4A94466344DEE73000FFF71AFF70
:103260000028F4D00F4B1B78002BF0D0104B1B78AC
:10327000002BECD0094B1F6000230A4A13700C4A44
:1032800013700C4A1370FFF7F1FE0D4B1B682900F9
:1032900020009847DBE7C046000011509C33002017
:1032A000982C0020DD3D0020A02C0020803D002037
:1032B000E63D0020D13D0020A42C0020FF070000A7
:1032C0009C2C0020084B1B785BB2022B07D0062BEE
:1032D00007D0012B01D0054870470548FCE7054899
:1032E000FAE70548F8E7C04684150020804A011037
:1032F0006C400110484101101C540110084B1B7810
:103300005BB2022B07D0062B07D0012B01D005485A
:1033100070470548FCE70548FAE70548F8E7C04666
:1033200084150020404A01103C4001101C4101104E
:10333000F05301100020704710B5134B1B785BB29F
:10334000022B13D0062B18D0002B05D00B78002BA6
:103350000FD1FFF777FE0CE00B78302B03D0212B39
:1033600001D0812B05D1FFF76DFE02E00B78212BF8
:1033700000D010BDFFF766FEFBE70B78012BF8D1FC
:10338000FFF760FEF5E7C0468415002070B51D000C
:1033900004AB1E883F4B00241C57012C40D0022C4C
:1033A00012D0002C00D070BD0029FCD1002AFAD127
:1033B0002878102804D03200290001F005F8F2E73F
:1033C000A81C01F0C7FFEEE70029ECD1002AEAD1E2
:1033D0002B78112B05D0132BE5D12F480CF024FEB0
:1033E000E1E76B78002B19D02C4B2D480125057097
:1033F0001904090CC1831A0C028400224283294C4F
:10340000848329490D701A04120CCA831B0C0B8487
:1034100000234B838C83FDF709FBC4E70023E4E71B
:103420000029C0D1002ABED12B78002BBBD16B78EC
:10343000082BB8D1E878002827D00CF0E0FA1B4917
:103440000CF073FA041C2879002820D00CF0D7FA6D
:1034500016490CF06AFA031C114801250570210475
:10346000090CC183220C0284002242830D4C848308
:103470000D490D701A04120CCA831B0C0B84002317
:103480004B838C83FDF7D2FA8DE70024DBE7002322
:10349000E2E7C04684150020A03F01106666263F83
:1034A0008C39002020420000583A002000007F4361
:1034B000064B1B785BB2022B03D0062B03D10448CA
:1034C00070470448FCE70448FAE7C046841500202A
:1034D00030540110B0400110944A011070B5EE282C
:1034E00024D0002825D080001E4BC558280010F09D
:1034F0009DFAC0B21F2800D91F20002327E05A1CC4
:10350000194CA15C0902E25C0A434400174962526B
:1035100002330130112BF2D9154A144B13CB13C2CD
:1035200011001A680A609B888B8019E00020002334
:10353000F0E70C4B196802220E480CF025FC012024
:1035400007E05A1CEC5C5100094BCC52D3B29842B4
:10355000F7D801304000C0239B001843044B18806B
:10356000034870BDA8140020E43F0110B41F0020E0
:10357000D8260020DA26002000B591B04022694606
:1035800000200FF0AFFC00200FF0C2FC064B1B78B0
:103590005BB2002B01D011B000BD04480CF014FD4B
:1035A000684606F085FBF6E784150020B83F011059
:1035B000F0B583B005001400012966D113785B06CD
:1035C0009B0F012B58D0022B03D0002B01D00020E1
:1035D0005CE06378022B24D0072B03D0012B19D099
:1035E000002053E0227963791B021343042B03D09C
:1035F000052B08D0002049E02433264A210028006A
:103600000EF07AFE42E08D33234A210028000EF0AE
:1036100073FE3BE02823214A210028000EF06CFEB7
:1036200034E0227963791B021343072B30D11C4B02
:103630001B785BB2022B0FD06B469F1D194E0222E6
:10364000310038000CF0A0FB3B883200083A210022
:1036500028000EF051FE19E06B469F1D124E02220B
:10366000310038000CF090FB3B883200083A210012
:1036700028000EF041FE09E051780C480CF0D4FC13
:10368000210028000EF01CFE00E0012003B0F0BD78
:103690000020FBE75C150020C8140020F83F011053
:1036A00084150020303E0110083F0110D03F01106A
:1036B000012815D0022907D000290BD1022A29D0D0
:1036C000002A29D006207047022A1FD0002A1FD0C6
:1036D0000800F8E7022A21D0002A21D00820F2E7CA
:1036E000022907D000290BD1022A1FD0002A1FD09F
:1036F0000720E8E7022A15D0002A15D00320E2E7C8
:10370000022AE0D0002A15D00020DCE70120DAE709
:103710000320D8E70720D6E70520D4E70020D2E72A
:103720000420D0E71000CEE70420CCE70820CAE749
:103730000620C8E70520C6E70120704710B584229F
:10374000002102480CF01AFB10BDC046C830002012
:1037500010B50020FFF7F2FF10BD0000F0B5C6461F
:1037600000B580460D008B795D2B24D10B79DF00ED
:10377000FF1ABFB21937BFB2974221D80C780C1983
:10378000002605E0104A53700136F6B22378E4189B
:103790002B79B34210D96378052BF7D1210040462D
:1037A0000EF0B4F900280DD0A378DA09012AE9D087
:1037B000054A9370E8E70027380080BCB846F0BDA2
:1037C0000027F9E70027F7E7C830002030B583B0BD
:1037D000040014484078884206D0124A92788A42FF
:1037E0000CD0012003B030BD0F4A002A18D09AB285
:1037F0000E490020FFF7A0FD0120F3E70C4D9BB21E
:1038000000932B00002200210020FFF7BFFD2B00BA
:10381000443B997840232A0020000EF0EBF9E1E7C1
:103820000120DFE7C830002039330010CC30002001
:103830000C31002010B50EF0CDF8002803D1002384
:10384000002B08D110BD0EF0CDF8002801D10123C6
:10385000F6E70023F4E70B4B997800200EF006FA08
:103860000028EFD1074CA1780EF09CF922004432D9
:10387000A178402300200EF0BDF9A17800200EF0C1
:10388000A5F9DFE7C830002070B505000C000EF088
:10389000A9F8002806D1812100200EF083F9002824
:1038A00003D170BD0EF0A6F8F5E7231C402C00D91B
:1038B00040239CB2094E2200290030000CF064FA2B
:1038C000351F69782300320000200EF093F96978E3
:1038D00000200EF07BF9FFF7ADFFE2E7CC300020CF
:1038E00010B5104B5C780EF075F8002806D1002357
:1038F000002B13D0002C09D1002010E00EF072F83C
:10390000002801D10123F3E70023F1E72100002083
:103910000EF0ACF9002803D1013000E0002010BD0A
:103920000020FCE7C830002010B53C2200210248EE
:103930000CF024FA10BDC0467427002010B50020FA
:10394000FFF7F2FF10BD0000F0B583B006000F00D6
:103950001500FEF7F9F902284CD13B79DC00E41A96
:10396000A4B21234A4B2AC4248D80023002B09D030
:103970000025002D44D0397879184B78212B11D0AF
:10398000002438E01A01D21A92001F488218527897
:10399000002A02D00133DBB2E8E71A01D11A89000C
:1039A0004518E6E7A9630B78C9183A796B1C0193AF
:1039B000AB1C0093032330000EF0C2F8002821D086
:1039C000BB79012B13D001232B71BB782B70AA6B11
:1039D000D179137A1B020B43EB80A97800290AD016
:1039E0002A003032062330000EF004F903E0FB79A0
:1039F000EB70E8E70024200003B0F0BD0024FAE7F4
:103A00000024F8E70024F6E77427002070B582B0A0
:103A100005001D4C002000280AD0002830D1627813
:103A20008A4213D0A2788A421AD0012002B070BD17
:103A30000401241AA400144A1419A2788A42ECD072
:103A400062788A42E9D00130C0B2E4E70F4A002A26
:103A500018D0210008319AB2FFF76EFC0120E5E78B
:103A6000260030369BB20093330000220021FFF77E
:103A70008DFCA1780623320028000EF0BBF8D5E7B4
:103A80000020D3E70120D1E774270020393300104C
:103A9000F0B5C64600B582B00600150012781F23A7
:103AA0001340012B00D01FE128790024002C0DD0F9
:103AB000FF24002C00D01CE12700602318001040D8
:103AC000134239D101290BD001200EE123011B1B28
:103AD0009B008E4FDB5D9842EBD00134E4B2E5E70A
:103AE000EA786B78062B06D0062B00D005E1222A57
:103AF00012D00020F9E0212AF6D123011F1BBF00BC
:103B0000824BDF19BA6B002A00D1F4E01378290048
:103B100030000EF0F1FBE8E02000FFF7C9FC0200E6
:103B20003B01DF1BBF00794BDF19FB882900300008
:103B30000EF0E2FB0120D8E0202800D0DFE06B7817
:103B40000B2B00D9DDE09B00714AD3589F46012919
:103B500001D00120C9E0EA78A97823011B1B9B0052
:103B600008336A4FFF18A879EB791B020343181C2E
:103B7000252B00D9252080B2002909D0012B16D988
:103B80007B1C9C463970013880B20123984602E0C4
:103B9000BC4600239846009063462000FFF7CAFB0E
:103BA000030043449BB2002B05D100209DE0BC469E
:103BB00000239846EFE73A00290030000EF09CFB06
:103BC000012092E0012903D0032915D001208CE0C7
:103BD000AA79EB791B021343062B01D9002084E05C
:103BE0002201121B9200303248498A182900300005
:103BF0000EF082FB012078E0EA78A97823011B1BF4
:103C00009B0030334148C318AE79E8790002304355
:103C1000051C062800D90625ADB2002904D00128CC
:103C200002D91878884205D000952000FFF7AEFB36
:103C300001205AE00133013DADB2F5E7012901D081
:103C4000012052E0E97823011F1BBF002F4BDF1931
:103C50007971304B002B04D0200000E000BF002819
:103C600043D0290030000EF02BFB01203DE001295C
:103C700001D0012039E02201171BBF00234AD219CD
:103C800005320123290030000EF036FB01202CE024
:103C9000012901D0012028E02201171BBF001B4A87
:103CA000D21904320123290030000EF025FB012037
:103CB0001BE0012903D0032907D0012015E02900CA
:103CC00030000EF0FDFA01200FE0A97823011F1B40
:103CD000BF000E4BDF1939710F4B002B13D02000A2
:103CE00000E000BF012000E0002002B080BCB84628
:103CF000F0BD0020F9E70020F7E70020F5E70020FD
:103D0000F3E70020F1E70120EFE7C0467427002029
:103D100080400110000000000000000010B5030109
:103D2000181A8000104B181844780DF053FE002824
:103D300006D10023002B13D0002C09D1002010E065
:103D40000DF050FE002801D10123F3E70023F1E735
:103D5000210000200DF08AFF002803D1013000E08F
:103D6000002010BD0020FCE77427002010B50020C3
:103D7000FFF7D4FF10BD0000F8B504000F001600D7
:103D80001D0003011B1A9B001F4AD31859780020FD
:103D90000DF008FF002825D0002F24D02B1C242D47
:103DA00000D924239DB2184A2301191B89005118F8
:103DB0000F721B1B9B000833D01801302A00310002
:103DC0000BF0E2FF0135ADB20F4B2001021B920058
:103DD00008329A18001B8000181841782B00002028
:103DE0000DF008FFF8BD2B1C252D00D925239DB211
:103DF0002001001B80000830034B18182A003100F6
:103E00000BF0C2FFE0E7C0467427002010B5130096
:103E10000A0001000020FFF7AFFF10BD1070031271
:103E20000F20184050700B01184350700911917009
:103E30007047000070B5124D802424012A00210033
:103E40002000FFF7EBFFEA1C21002000FFF7E6FF50
:103E5000AA1D21002000FFF7E1FF2A0009322100FE
:103E60002000FFF7DBFF2A000C3221002000FFF7C3
:103E7000D5FF2A000F3221002000FFF7CFFF70BDD1
:103E8000583D002010B54022002102480BF076FF7B
:103E900010BDC046D82B0020014B18707047C0469B
:103EA000CA3D0020014B18737047C046D82B002034
:103EB000014B58737047C046D82B002070B5FDF7F2
:103EC0000DFA04000E4D2B68C01AC317C0185840D5
:103ED0000AF0D6FB2C6000220A4B0AF042FB0AF0E3
:103EE0000BFC094B00215A5E1C7808490C708018A5
:103EF00082B200B21880FF2801DDFF3A1A8070BD3F
:103F0000C438002000408F40923D0020D82B002074
:103F1000024B1A78024B5A707047C046CC420110CF
:103F2000D82B0020064B04229A732F32DA73303AD2
:103F30001A74013A5A74012119765A767047C046AC
:103F4000D82B002010B5C4B2000A002307E01900E6
:103F50000E31044A5454013150540233DBB20D2B5C
:103F6000F5D910BDD82B00200A4B01221A7000226F
:103F70005A7003329A70084A117AD970D17919713E
:103F800091795971517999711179D971D2781A72DF
:103F90007047C046D82B00209818002010B50400A8
:103FA000FFF770FF8120FFF777FF012C09D0064B48
:103FB0001C70064B19784023034A00200EF02CFD9C
:103FC00010BDFFF7D1FFF4E7D82B0020CA3D002039
:103FD00070B586B06C462A4B0433220070CB70C299
:103FE00070CB70C2022837D0032841D000230025AF
:103FF00000E00133052B10D8224AD2187D32FF325F
:1040000014780522D21A885C8442F2D01D4AD21854
:104010007D32FF3210700125EBE7002D19D1812090
:10402000FFF740FF184801238373164B1A7AC273B7
:10403000DA7902749A7942745A7982741A79C2745C
:10404000DB7803751530182269460BF09DFE06B02B
:1040500070BDFDF793FDE2E78120FFF723FF0A48DB
:10406000022383730F30102208490BF08DFEEEE718
:104070008120FFF717FF044B03229A73E7E7C0463E
:10408000CC42011098180020D82B0020582C00207A
:1040900070B504000E001500FFF7F4FE2120FFF7B5
:1040A000FBFEFFF70BFFFFF733FF2000FFF700FFDA
:1040B000482C67D8A4003E4B1B599F468020FFF731
:1040C000F1FE00236AE0F07A431E9841C0B201F08D
:1040D00041FEF27A374B1A708020FFF7E3FEF0E7DB
:1040E00031000C31F07AFFF773FFEAE78020FFF729
:1040F000D9FEF27A304B1A70E3E78220FFF7D2FE46
:10410000FFF710FFDDE78020FFF7CCFED9E7902016
:10411000FFF7C8FEF27BF17A307B00F037FAD0E788
:10412000FEF742FDCDE78020FFF7BCFEC9E7832004
:10413000FFF7B8FE6420FFF705FFC2E78020FFF716
:10414000B1FEBEE78020FFF7ADFEF27A0F231340E9
:10415000033BDAB20C2A03D89300184AD3589F467F
:104160000120FEF747F9ACE70320FAE70420F8E75F
:104170000520F6E70620F4E70720F2E70820F0E73D
:104180000220EEE70023AB4202D201339BB2FAE7F2
:104190008020FFF787FE94E70133DBB21F2BFBD9AA
:1041A0004023074A212100200EF036FC70BDC04696
:1041B00074410110CB3D0020881500209842011069
:1041C000D82B002070B50C00150010280DD08028C9
:1041D0000FD0012800D070BD881C01F0BBF8A07A78
:1041E0002A002100FFF754FFF5E7881C01F0B2F820
:1041F000F1E74878FFF7D2FEEDE70000094B1B78A6
:104200000A2B07D00B2B09D0064B0A221A70054B3C
:1042100018787047034B0B221A70F8E7014B0C22F9
:104220001A70F4E78915002070B504005D4B1B7807
:10423000002B04D15C4B1B78302B0BD070BD5B4B3B
:104240001A885B4B18785B49FFF7BCFF554B00227F
:104250001A70F3E7FFF716FE3020FFF71DFEFFF799
:104260002DFEFFF755FE544B1B78012B2DD0022B52
:1042700000D18AE02378514DAB706378EB70A3785E
:104280002B71E3786B7123790F210B40AB7160794F
:10429000A3791B0203431B11EB71E3792B72237A81
:1042A00019406972617AA37A1B020B431B11AB722E
:1042B000FFF7A4FFE872424B197840232A00002040
:1042C0000EF0AAFB03F0E4F9B8E701F0E7FB83780E
:1042D0003A4D2B73C3786B730378AB734378EB73EE
:1042E00003792B7443796B74037AAB74437AEB7460
:1042F00083792B75C3796B75837AAB75C37AEB754C
:1043000001F0CCFB83782B76C3786B760378AB76A1
:104310004378EB7603792B7743796B77037AAB7726
:10432000437AEB7782792023EA54C2790133EA5445
:10433000827A0133EA54C27A0133EA5401F0AEFBC7
:1043400082782423EA54C2780133EA540278013394
:10435000EA5442780133EA5402790133EA5442794B
:104360000133EA54027A0133EA54427A0133EA54BF
:1043700082790133EA54C2790133EA54827A0133F3
:10438000EA54C27A0133EA5474E70E4D280001F072
:1043900005F80A4B0C3307CD07C307CD07C307CD7C
:1043A00007C367E7CC3D0020881500208615002054
:1043B000CD3D0020182C0020CB3D0020D82B002024
:1043C000CA3D0020DC38002010B5054B01241C70CC
:1043D000044B1870044B1A8004480BF0D5FC10BD38
:1043E000CC3D0020CD3D002086150020182C00205B
:1043F00010B5024B18180BF0C7FC10BDD82B0020CD
:10440000502800D1B0E003D960282FD0FF2010E061
:10441000402800D9AAE0202805D34B2924D88B00B6
:10442000564AD3589F46002803D0102800D09FE05A
:10443000002070479520FCE70020FAE72A39504B0E
:1044400059187D31FF310878F3E704394C4B59187E
:104450007D31FF310878ECE70020EAE70020E8E74B
:104460006820E6E70020E4E70020E2E7A92979D800
:104470008B00444AD3589F46FF20DAE70220D8E752
:104480000120D6E72320D4E70020D2E7B920D0E7E7
:104490001A20CEE70120CCE70020CAE74020C8E779
:1044A0000020C6E74020C4E70020C2E74020C0E764
:1044B0000120BEE70020BCE70120BAE70020B8E7F2
:1044C0000120B6E70020B4E73B20B2E73420B0E794
:1044D0003B20AEE73420ACE73B20AAE73420A8E736
:1044E0003D39294B585CA4E73D39274B585CA0E780
:1044F0001A209EE71A209CE71A209AE75E2098E788
:10450000012096E7502094E7FD2092E7002090E7F5
:1045100000208EE7C6208CE70F208AE70F2088E76F
:10452000302086E7612084E7AE2082E7902080E794
:10453000D9207EE7D4207CE714207AE7542078E75E
:10454000412076E7152074E7542072E7C72070E712
:1045500079206EE79C206CE733206AE7362068E715
:10456000632066E7002064E7002062E7FF2060E741
:10457000FF205EE722205CE703205AE7E8420110B3
:104580009818002018440110583D0020F0B58BB059
:1045900006000F00150008A90F70487000248C70E9
:1045A000CC700A7105220E20FFF722FF00941A2218
:1045B000002101A80BF0E2FB07E03919C9B2300075
:1045C000FFF71EFF6B4618550134A542F5DC2A00A3
:1045D00069461320FFF70CFF0BB0F0BD70B5002447
:1045E00006E0281C0BF030FBA3000F4AD05001342A
:1045F000A0235B009C4215D220000BF000FAF421AE
:1046000089050BF0A8F98221C9050BF084F9051C76
:1046100006490BF0E7F90028E3D1A300024A002184
:104620009950E4E770BDC046B41A00200000FEC0F7
:1046300010B5002405E0A3001B4AC12109069950CA
:1046400001347F2C2FD8002CF5D00F2C0FD91F2C24
:104650001BD920000BF0D3F9F42189050BF07BF96D
:1046600012490BF058F9A3000F4AD050E8E7200098
:104670000BF0C5F9FA2189050BF06DF90C490BF027
:104680004AF9A300084AD050DAE720000BF0B7F946
:10469000F62189050BF05FF906490BF03CF9A30000
:1046A000014AD050CCE710BDC81F002000007E405A
:1046B0000000F84000009E4010B500240EE02000ED
:1046C0000BF09DF9F42189050BF045F98021C9050E
:1046D0000BF021F9A300034AD05001347F2CEED90E
:1046E00010BDC046C821002010B58221C9050BF0BD
:1046F00017F98421C9050BF02EF90BF0D9F910BD7B
:1047000010B51C1C022818D0032805D0002801D0A1
:10471000201C10BD141CFBE7101C0BF001F9041C3D
:1047200002990BF051F9002809D10399201C0BF0D4
:1047300061F90028ECD0039CEAE70C1CE8E7029C36
:10474000E6E710B5FFF74AFFFFF772FFFFF7B4FF88
:1047500010BD000070B505000C0000786B781B02DE
:104760000343AA7812041343E87800061843FFF7BE
:10477000BBFF284E8000805927490BF0ECF82070D1
:10478000030A6370030CA370000EE070287A6B7A42
:104790001B020343AA7A12041343E87A0006184363
:1047A000FFF7A2FF800080591C490BF0D4F820725B
:1047B000030A6372030CA372000EE07228796B790E
:1047C0001B020343AA7912041343E8790006184335
:1047D000FFF78AFF8000335823711A0A62711A0C9E
:1047E000A2711B0EE371287B6B7B1B020343AA7B28
:1047F00012041343E87B00061843FFF775FF80009F
:10480000335823731A0A62731A0CA2731B0EE373D4
:1048100070BDC046B41A00200000A0430000204331
:10482000F0B5DE4657464E464546E0B589B0050030
:104830000C00C678B3091E000B700C22002105A8DD
:104840000BF09CFA0C22002102A80BF097FA002E24
:104850000CD1012E00D99FE0022E00D932E109B01F
:10486000F0BCBB46B246A946A046F0BDAA781209E4
:10487000EB780121194009010A43DD4B98465300AA
:104880009B189B00434405AA83CB83C200239B460D
:10489000A278E3781B021343217909040B43627960
:1048A00012061A436B46587D8023DB050193C02115
:1048B000090600915B460799FFF722FFA21CA07032
:1048C000030A9146E370030C2371000E6071C1224C
:1048D00012069246A279E3791B021343217A090456
:1048E0000B43627A12061A4306996B46187D5F469F
:1048F0000197574600975346FFF702FFA071020A3F
:10490000E271020C2272000E6072EA789206D20EF8
:1049100053009B189B00434402AA83CB83C2A27A14
:10492000E37A1B021343217B09040B43627B1206CB
:104930001A436B46587A8023DB050193C021090690
:1049400000915B460499FFF7DBFEA072020AE27257
:10495000020C2273000E6073A27BE37B1B021343E5
:10496000217C09040B43627C12061A4303996B46AF
:10497000187A5B46019353460093FFF7C1FEA0737C
:10498000020AE273020C2274000E607421001231DC
:104990004846FFF7DFFE5CE76B785B06DA0E944B68
:1049A000984653009B189B00434405AA83CB83C2BF
:1049B00000239B46A278E3781B0213432179090464
:1049C0000B43627912061A436B46587D8023DB0540
:1049D0000193C021090600915B460799FFF790FEFD
:1049E000A21CA070030A9146E370030C2371000E11
:1049F0006071C12212069246A279E3791B02134329
:104A0000217A09040B43627A12061A4306996B460F
:104A1000187D5F460197574600975346FFF770FE93
:104A2000A071020AE271020C2272000E60726A78B2
:104A3000D209A9780F230B405B0013435A00D31807
:104A40009B00434402AA83CB83C2A27AE37A1B026F
:104A50001343217B09040B43627B12061A436B4606
:104A6000587A8023DB050193C021090600915B463B
:104A70000499FFF745FEA072020AE272020C22734B
:104A8000000E6073A27BE37B1B021343217C0904AD
:104A90000B43627C12061A4303996B46187A5B46F5
:104AA000019353460093FFF72BFEA073020AE273B3
:104AB000020C2274000E6074210022314846FFF778
:104AC00049FEC9E62A78D206D10E05AF930E5B18CF
:104AD0009B00474A944663443A0043CB43C20023B9
:104AE0009A46A278E3781B021343217909040B4309
:104AF000627912061A4378788023DB059B4601937E
:104B0000C0231B06009353460799FFF7F9FDA21C2B
:104B10009046A070030AE370030C2371000E6071CD
:104B2000C12212069146A279E3791B021343217A2E
:104B300009040B43627A12061A43069938785746DD
:104B400001974F4600974B46FFF7DAFDA071020A26
:104B5000E271020C2272000E60722A7852096978A2
:104B600003230B40DB00134302AD5A00D3189B0014
:104B70001F4AD6182A0083CE83C2A27AE37A1B0288
:104B80001343217B09040B43627B12061A436878A6
:104B900059460191C0231B06009353460499FFF721
:104BA000AFFDA072020AE272020C2273000E607363
:104BB000A27BE37B1B021343217C09040B43627C31
:104BC00012061A4303992878534601934B460093E3
:104BD000FFF796FDA073020AE273020C2274000E26
:104BE0006074210032314046FFF7B4FD37E6C0461D
:104BF000C046011070B50200C3789B090B700478A1
:104C0000A4084078012303409B0123431A4D9B00D5
:104C1000881CEB588B701C0A44701C0C84701B0E93
:104C2000C37093785B06DB0DEB588B721D0ACD7257
:104C30001D0C0D731B0E4B7353785B080F4C9B00C0
:104C4000E3588B711E0ACE711E0C0E721B0E4B7236
:104C50009578ED09D2783F2313405B002B439B00EE
:104C6000E3588B731C0ACC731C0C0C741B0E4B7416
:104C70001231FFF76FFD70BDC8210020C81F002052
:104C8000F0B5DE4657464E464546E0B589B00500CC
:104C90000C000C22002105A80BF070F80C2200215A
:104CA00002A80BF06BF8EE78B3091E1E23706ED0CD
:104CB0002B78DB0700D473E02B785B089B00B649A8
:104CC000CB58A370190AE170190C21711B0E637186
:104CD000A978C909EA783F2313405B000B439B0086
:104CE000AE49CB58A371190AE171190C21721B0E40
:104CF0006372AA785206D20E02AB994653009A18F4
:104D00009200A74B9B184A4683CB83C20023984648
:104D1000A27AE37A1B021343217B09040B43627BD3
:104D200012061A434B4658788023DB050193C023B3
:104D30001B060093434649468968FFF7E1FCA072D1
:104D4000020AE272020C2273000E6073C1231B067A
:104D5000A27BE17B09021143207C00040143627CB9
:104D600012060A4349464968484600784746019773
:104D70000093FFF7C5FCA073020AE273020C2274D1
:104D8000000E6074A01C21001231FFF7E3FC012E1D
:104D90006DD809B0F0BCBB46B246A946A046F0BDEE
:104DA0002B785B089B007C4AD358A372190AE172E6
:104DB000190C21731B0E6373A978C909EA783F2384
:104DC00013405B000B439B00744AD358A373190A2A
:104DD000E173190C21741B0E6374AA785206D20E6B
:104DE00005AB994653009A1892006D4B9B184A46A2
:104DF00083CB83C200239846A278E3781B02134337
:104E0000217909040B43627912061A434B465878FC
:104E10008023DB050193C0231B06009343464946CC
:104E20008968FFF76DFCA070020AE270020C227123
:104E3000000E6071C1231B06A279E17909021143BA
:104E4000207A00040143627A12060A4349464968FF
:104E500048460078474601970093FFF751FCA07140
:104E6000020AE271020C2272000E60728AE76A780E
:104E7000D206D10E05AF930E5B189B00484A9446AC
:104E800063443A0043CB43C200239A46A278E378B6
:104E90001B021343217909040B43627912061A435A
:104EA00078788023DB059B460193C0231B06009383
:104EB00053460799FFF724FCA21C9046A070030AF2
:104EC000E370030C2371000E6071C122120691463B
:104ED000A279E3791B021343217A09040B43627A16
:104EE00012061A4306993878574601974F4600979D
:104EF0004B46FFF705FCA071020AE271020C227218
:104F0000000E60726A785209A97803230B40DB0017
:104F1000134302AD5A00D3189B00214AD6182A0029
:104F200083CE83C2A27AE37A1B021343217B090456
:104F30000B43627B12061A43687859460191C023DD
:104F40001B06009353460499FFF7DAFBA072020A8E
:104F5000E272020C2273000E6073A27BE37B1B02E1
:104F60001343217C09040B43627C12061A43039904
:104F70002878534601934B460093FFF7C1FBA0737B
:104F8000020AE273020C2274000E607421002231C6
:104F90004046FFF7DFFBFCE6C8210020C81F0020C9
:104FA000C0460110F0B5DE4657464E464546E0B5D0
:104FB00089B005000C000C22002105A80AF0DEFED5
:104FC0000C22002102A80AF0D9FEEE78B3091E1EB9
:104FD00023701AD02B78DA0735D55B0721D5A9784D
:104FE000C909EA783F2313405B000B439B00BC498F
:104FF000CB58A370190AE170190C21711B0E637153
:10500000A01C21001231FFF7A5FB012E41D8022E72
:1050100000D9D4E009B0F0BCBB46B246A946A046D0
:10502000F0BDA978C909EA783F2313405B000B4320
:105030009B00AC49CB58A371190AE171190C21727C
:105040001B0E6372DCE75B0711D5A978C909EA7802
:105050003F2313405B000B439B00A14AD358A3722C
:10506000190AE172190C21731B0E6373C8E7A97842
:10507000C909EA783F2313405B000B439B00994A20
:10508000D358A373190AE173190C21741B0E6374AE
:10509000B6E76A785209AB7803211940C9000A4380
:1050A000914B984653009B189B00434405AA83CB21
:1050B00083C200239B46A278E3781B021343217925
:1050C00009040B43627912061A436B46587D80230C
:1050D000DB050193C021090600915B460799FFF7A4
:1050E0000FFBA21CA070030A9146E370030C23710E
:1050F000000E6071C12212069246A279E3791B026A
:105100001343217A09040B43627A12061A43069963
:105110006B46187D5F460197574600975346FFF749
:10512000EFFAA071020AE271020C2272000E6072A4
:10513000AA785206D20E53009B189B00434402AA41
:1051400083CB83C2A27AE37A1B021343217B090437
:105150000B43627B12061A436B46587A8023DB05A9
:105160000193C021090600915B460499FFF7C8FA34
:10517000A072020AE272020C2273000E6073A27B1C
:10518000E37B1B021343217C09040B43627C120660
:105190001A4303996B46187A5B4601935346009372
:1051A000FFF7AEFAA073020AE273020C2274000E3B
:1051B0006074210022314846FFF7CCFA27E72A78AD
:1051C000D20805AF53009B189B00474A944663449E
:1051D0003A0043CB43C200239A46A278E3781B02ED
:1051E0001343217909040B43627912061A43787834
:1051F0008023DB059B460193C0231B060093534687
:105200000799FFF77DFAA21C9046A070030AE3708D
:10521000030C2371000E6071C12212069146A2791F
:10522000E3791B021343217A09040B43627A1206C5
:105230001A4306993878574601974F4600974B46D0
:10524000FFF75EFAA071020AE271020C2272000EF0
:1052500060726B78DB06DA0E02AD9B0E9B189B002A
:10526000214A944663442A0043CB43C2A27AE37A9C
:105270001B021343217B09040B43627B12061A4372
:10528000687859460191C0231B0600935346049940
:10529000FFF736FAA072020AE272020C2273000EC5
:1052A0006073A27BE37B1B021343217C09040B4345
:1052B000627C12061A4303992878534601934B46A1
:1052C0000097FFF71DFAA073020AE273020C227422
:1052D000000E6074210032314046FFF73BFA99E638
:1052E000C8210020C81F0020C046011010B5C37897
:1052F0009B09022B1FD0032B29D0012B00D010BDFE
:10530000047842781202144383781B042343C47840
:105310003F22224012061A431B0306D0930707D0F0
:105320009307ECD5FFF73EFEE9E7FFF779FAE6E7EA
:10533000FFF760FCE3E7047843781B0223439B05F7
:1053400002D1FFF76DFADAE7FFF79AFCD7E7FFF72C
:1053500067FAD4E770B504000D4B1B78002B0CD016
:105360000C4D29002000FFF7C1FF201D0A49FFF75F
:10537000BDFF2B78002B06D170BDFFF7E2F9044B7F
:1053800001221A70ECE704490248FBF74FFBF3E7F0
:10539000AB3D0020A0370020E4370020F0B5DE460A
:1053A00057464E464546E0B585B004008379032252
:1053B00093430222134383710125002601E0013546
:1053C000EDB2032D0CD8724BAA00D058B200D158C0
:1053D000490049080AF00EFB0028F0D02E00EEE745
:1053E000032333409A00A3790C218B431343A37109
:1053F000002509E0674940460AF0ADFAAF000AF01F
:1054000025FB01ABD8510135022D15DC7219013293
:10541000032313405E4F9B00D8599D21C9050AF014
:105420009AFA8046B300D85900210AF0CDFA002834
:10543000E0D1FE218905DEE7019B9B12DB02D90A40
:105440000F2211400901A07902400A43A271D90B31
:10545000E171D90D2172DB0F012601210B40607A29
:10546000B04303436372029B9D127F208246054036
:105470006F00657A0D403D4365725B149B049B0C85
:10548000A3721B0A3F273B40E57A403885432B43F4
:10549000E372039B9A129446032503226046104050
:1054A00080018446E07A074060460743E7721B1399
:1054B0005B035F0BA774580DE0745B0F07208046F9
:1054C00003409B46207D84460720814660464B462C
:1054D00098430300584618432075C3B24046034022
:1054E000237500236375A375E37D18308343E3754B
:1054F000E77D1F233B40E3750023A3772700E37F6D
:10550000AB43E377DBB21340E3771E37BB78B3439B
:10551000BB701F36A35D0B40A35521239C46E35C63
:105520005F36B34360462354194E33691940C901AD
:105530008946205C514601400800494601436046C7
:1055400021545B089B059B0D3B711B0A1340797925
:10555000A9430B437B712323E15C0A400C210A43DE
:10556000E254B38AA3701B0AE370F38A23701B0A08
:105570006370338B23711B0A6371336908333361A2
:1055800005B0F0BCBB46B246A946A046F0BDC04639
:105590008C150020000080BFF0B5DE4657464E4611
:1055A0004546E0B585B004000D00C3689A46CE6854
:1055B000311C181C0AF0CFF9071C236898462B6889
:1055C0009B46191C40460AF0C6F9011C381C0AF01B
:1055D000A2F9071C63686A689146111C0093181CA5
:1055E0000AF0B9F9011C381C0AF095F90190A76876
:1055F000AD68291C381C0AF0AEF9011C01980AF0AC
:105600008AF90190594650460AF0A5F902904146A0
:10561000301C0AF0A0F9011C02980AF081F90290EE
:10562000291C00980AF097F9011C02980AF078F9F1
:105630000290391C48460AF08EF9011C02980AF0C3
:105640006AF90290494650460AF085F90390291CF0
:1056500040460AF080F9011C03980AF05CF90390B7
:105660000099301C0AF077F9011C03980AF058F9E8
:105670000390391C58460AF06EF9011C03980AF091
:105680004FF90390291C50460AF065F9051C49465C
:1056900040460AF060F9011C281C0AF041F9051C7B
:1056A000009958460AF057F9011C281C0AF033F9F2
:1056B000051C391C301C0AF04EF9011C281C0AF08C
:1056C0002FF9019BE360029B2360039B6360A06052
:1056D00005B0F0BCBB46B246A946A046F0BD70B5C9
:1056E00004000168081C0AF036F9051C6168081CF2
:1056F0000AF031F9011C281C0AF012F9051CA168F6
:10570000081C0AF028F9011C281C0AF009F9051CDC
:10571000E168081C0AF01FF9011C281C0AF000F9B6
:105720000AF0D8F9011CFE2080050AF0FEF8051CDD
:10573000011C20680AF00FF92060291C60680AF03B
:105740000AF96060291CA0680AF005F9A060291C0C
:10575000E0680AF000F9E06070BD0000F0B5DE46D8
:1057600057464E464546E0B58DB08046944A93462E
:1057700000911268881A0AF042F9041C4246127A13
:105780004146487A00021043000400140AF03CF934
:105790008C490AF0E0F88C490AF0C7F80AF090F951
:1057A0008A4A8B4B08F0FBFE00228A4B08F0D9FE98
:1057B0000022894B08F0D5FE06000F00201C0AF0DD
:1057C0007FF904000D0002000B003000390008F0E2
:1057D000E6FE08F0A9FF8246424692794146C87922
:1057E00000021043000400140AF00EF975490AF093
:1057F000B2F875490AF099F80AF062F9734A744BE5
:1058000008F0CDFE0022734B08F0ABFE0022724B75
:1058100008F0A7FE02000B002000290008F0BFFEE0
:1058200008F082FF81464246927A4146C87A0002D9
:105830001043000400140AF0E7F862490AF08BF8FC
:1058400061490AF072F80AF03BF9604A604B08F0CF
:10585000A6FE00225F4B08F084FE00225E4B08F09B
:1058600080FE02000B002000290008F098FE08F0DE
:105870005BFF051C514650460AF06DF8041C494672
:1058800048460AF068F8011C201C0AF049F8041C7C
:10589000291C0195281C0AF05EF8011C201C0AF046
:1058A0003FF80AF00DF904000D0002000B0008F0AB
:1058B00076FE06000F000022484B0296039708F080
:1058C00050FE06000F000022454B2000290008F082
:1058D00048FE02000B003000390008F030FE0022C4
:1058E000404B08F035FE06000F0000223E4B0298A8
:1058F000039908F036FE029003910022FF239B05D6
:105900002000290008F04BFE02000B0002980399CA
:1059100008F015FE0022354B08F01AFE04000D00B9
:105920001C22002105A80AF029FA50460AF0C8F8FE
:1059300032003B0008F033FE08F0F6FE05904846C2
:105940000AF0BEF832003B0008F029FE08F0ECFE39
:10595000069001980AF0B4F832003B0008F01FFEF0
:1059600008F0E2FE07902000290008F0DDFE089014
:105970001F4C05A92000FFF70FFE2000FFF7AFFE28
:105980004246117853781B020B431B041B14A3825D
:105990009178D3781B020B431B041B14E38211790B
:1059A00053791B020B431B041B1423835A46009B91
:1059B00013600DB0F0BCBB46B246A946A046F0BD90
:1059C000543900200000FA4400FEFF46182D4454CC
:1059D000FB2109400080664080842E410000AE40DB
:1059E000000048400000E03F000078400000F03F29
:1059F0008C150020F0B5C64600B504008846234942
:105A000023480EF08DF80028F9D0224E3368581C38
:105A1000032108F025FB2578627812021E4F48000A
:105A2000401883005B182A43FA54120AFB185A7074
:105A3000A078E278120202439A70120ADA70207992
:105A40006279120202431A71120A5A71A079E2793C
:105A5000120202439A71120ADA71207A627A1202F1
:105A600002431A72120A5A72A07AE27A12020243AE
:105A70009A72120ADA72316041462000FFF76EFE18
:105A800003480EF01DF880BCB846F0BD3029002058
:105A9000481700202C2900200429002010B50949AE
:105AA00009480EF03DF80028F9D0084B1C6806485C
:105AB0000EF006F86000001980000019044B181859
:105AC00010BDC04634290020481700202C29002092
:105AD000042900204118CB0F5B185B108022520272
