:020000041000EA
:1000000000B5324B212058609868022188439860DF
:10001000D860186158612E4B002199600221596106
:100020000121F02299502B49196001219960352056
:1000300000F044F80222904214D00621196600F024
:1000400034F8196E01211966002018661A6600F04E
:100050002CF8196E196E196E052000F02FF8012189
:100060000842F9D1002199601B49196000215960AB
:100070001A491B48016001219960EB211966A021F2
:10008000196600F012F800219960164914480160C1
:100090000121996001BC002800D000471248134993
:1000A000086003C880F30888084703B5996A0420EC
:1000B0000142FBD001200142F8D103BD02B5186610
:1000C0001866FFF7F2FF186E186E02BD00000240BE
:1000D000000000180000070000035F00212200005C
:1000E000F4000018222000A00001001008ED00E03C
:1000F00000000000000000000000000074B24E7A12
:1001000000200420F7010010C3010010C5010010F9
:10011000C1010010C1010010C1010010C101001097
:10012000C1010010C1010010C1010010C701001081
:10013000C1010010C1010010C9010010CB01001065
:10014000CD010010CD010010CD010010CD01001037
:10015000CD010010CD010010CD010010CD01001027
:10016000CD010010CD010010CD010010CD01001017
:10017000CD010010CD010010CD010010CD01001007
:10018000CD010010CD010010CD010010CD010010F7
:10019000CD010010CD010010CD010010CD010010E7
:1001A000CD010010CD010010CD010010CD010010D7
:1001B000CD010010CD010010CD010010CD010010C7
:1001C00000BE00BE00BE00BE00BE00BEEFF3058054
:1001D000103800BEF2EB8871B4780110D4780110A9
:1001E0003402001090A31AE700201F49086006C8D7
:1001F00081F3088810471D48006800282FD10DA4FE
:100200000ECC002902D000F012F8F9E71849194A7B
:10021000002000E001C19142FCD1174988471749ED
:1002200088471749884700BEFDE701C901C29A42C5
:10023000FBD37047D4780110C0000020681800205C
:100240007C90011000000420000004207C9001102C
:10025000001004200010042000000000704709482E
:100260000EF0CAF90047000008ED00E0000000D0E1
:1002700088180020F841002081D30010FD080010EC
:100280003DD300105756000006005250ABB36053E8
:10029000C86E011006005250861C0302D86E011071
:1002A000060052505422A29DF06E011005005250DB
:1002B000DE65F4687C900110F8B5C04610B5064CB8
:1002C0002378002B07D1054B002B02D0044800E017
:1002D00000BF0123237010BD881B00200000000018
:1002E00000440110044B10B5002B03D0034904480F
:1002F00000E000BF10BDC046000000008C1B0020C5
:100300000044011010B504001F210BF049F8002231
:10031000002120000BF05CF8002120000BF072F8A7
:1003200010BD10B504000BF085F80022012120005B
:100330000BF04EF80123A340D02212065362536102
:1003400010BD10B504000BF075F80022012120004B
:100350000BF03EF80123A340D0221206936210BD99
:1003600070B5040000290CD00BF064F80123A34001
:10037000D022120693620022002120000BF028F800
:1003800070BD0BF057F80125A540D02636067562E2
:100390000022002120000BF01BF8B561F0E770B5DA
:1003A00000280FD0D024240680256D0465616420C8
:1003B0000CF088F980239B04636164200CF082F9BF
:1003C000A56170BDD024240680256D04656164207C
:1003D0000CF078F980239B04A36164200CF072F97F
:1003E000A561EEE710B5002804D001211A20FFF71F
:1003F000B7FF10BD00211A20FFF7B2FFF9E7000098
:1004000010B51220FFF78DFF1120FFF78AFF102093
:10041000FFF787FF0F20FFF784FF0E20FFF781FF14
:100420000D20FFF77EFF0C20FFF78BFF0B20FFF75F
:1004300088FF0A20FFF785FF1849194811F038F99D
:10044000012106200AF0ACFF012107200AF0A8FFD5
:10045000012104200AF0A4FF01200AF0EBFFD024C0
:10046000240602236362636109200AF0E3FF80230C
:100470009B006362636100200AF0DCFF012363627A
:10048000636102200AF0D6FF04236362636100F017
:1004900043FF1A200AF0CEFF10BDC046C0C62D0093
:1004A00000C00340F8B5DE4657464E464546E0B527
:1004B0000400D0252D068023DB029946AB61052080
:1004C00000210CF0D3F86B68DB0A012633405A4256
:1004D000534101273B402278B243134323706B689A
:1004E0001B0B33405A425341DB0162787F218B461C
:1004F0000A40134363706B689B0A33405A4253416E
:100500003B401B0162786F3988468A43134363700E
:100510004B466B6180239B029946AB61052000210D
:100520000CF0A4F86B68DB0A33405A4253413B405D
:100530005B00227802218A468A43134323706B684A
:100540001B0B33405A4253413B401B01227841462A
:100550008A43134323706B689B0A33405A425341CA
:100560003B405B01627810318A43134363704B4612
:100570006B6180235B029946AB61052000210CF082
:1005800075F86B68DB0A33405A4253413B409B008D
:10059000227804218A43134323706B681B0B33407A
:1005A0005A4253413B409B012278402082431343EF
:1005B00023706B689B0A33405A4253413B405B00B7
:1005C000A27851468A431343A3704B466B61802344
:1005D0001B029946AB61052000210CF047F86B68BF
:1005E000DB0A33405A4253413B406278B2431343E3
:1005F00063706B681B0B33405A425341DB01227816
:1006000059460A40134323706B689B0A33405A4291
:1006100053413B40A278B2431343A3704B466B61F6
:100620008023DB019B46AB61052000210CF01EF806
:100630006B68DB0A33405A4253413B409B0162786E
:1006400040208243134363706B681B0B33405A4254
:1006500053413B409B00627804218A4313436370FB
:100660006B689B0A33405A4253413B40DB0022787F
:10067000383881468243134323705B466B61802385
:100680009B019B46AB61052000210BF0EFFF6B68DF
:10069000DB0A33405A4253413B405B00627850468C
:1006A0008243134363706B681B0B33405A425341C0
:1006B0003B40DB00627848468243134363706B68BB
:1006C0009B0A33405A4253413B405B012278183029
:1006D0008243134323705B466B616B685B091E406A
:1006E00073425E413740FF00A3784A4693431F435D
:1006F000A7706378DB06DB0F1B01FAB2404682432A
:100700001343A370204B1A68C0239B015340E0227F
:10071000D20113401D4A13601D4B042119601A4B6E
:100720001B68DB05FBD518494A681204130C194AEB
:10073000D21A096880239B014B40E021C9010B407C
:1007400012490B60124B042119600F4B1B68DB052B
:10075000FBD50D4B5B681B04190C0E4B5B1AE2704A
:10076000100A2071100C6071120EA271E371190A47
:100770002172190C61721B0EA372F0BCBB46B2460B
:10078000A946A046F8BDC04600C0044000D00440C1
:1007900000E00440FF0F0000F0B5D6464F46464645
:1007A000C0B584B0040003AF3A4B1A883A800223E4
:1007B00099460023BB7002AE3280B37001AD2A802F
:1007C000AB7069460A808B70D0231B0698464A4658
:1007D0009A61314B9A4603233A00D021504613F0D8
:1007E0006FFD43464A465A619A6103233200F02165
:1007F000504613F065FD43464A465A6180239B00EC
:10080000994643464A469A6103236A46F021504678
:1008100013F056FD43464A465A619A6103232A0063
:10082000D021504613F04CFD43464A465A613B786E
:100830005B027A785200E02109010B401343BA7839
:10084000D209134323603278520273785B000A4066
:100850001A43B378DB091A4362602A7852026B7834
:100860005B000A401A43AB78DB091A43A2606B466F
:100870001B785B026A46527852000B4013436A466B
:100880009278D2091343E36004B0E0BCBA46B146A3
:10089000A846F0BD1844011000C0034010B500F098
:1008A00058FC10BD10B504004378DB0710D4637802
:1008B0001022110019401A4203D00F4B1B78002B55
:1008C0000CD0002903D10C4B1B78002B0DD110BD8F
:1008D0000022002100200CF0F5FCE8E70020FFF7E3
:1008E00081FD054B01221A70F1E70120FFF77AFD27
:1008F000014B00221A70EAE7B341002010B584B022
:100900000FF096FF64200BF0DDFE37480FF054FF28
:10091000FFF776FD10F0A4FC1D20FFF7F3FC1C2070
:10092000FFF7F0FC1A200AF085FDD024240680236E
:10093000DB046362A36118200AF07CFD80235B0462
:100940006362A36119200AF075FD80239B04636232
:10095000A36105200AF06EFD2023A362002201217D
:1009600005200AF035FD01AC0C22002120000FF01B
:10097000FDFD2000FFF796FD1C4B9B886A46138007
:10098000617812220A40122A09D018230B40182B32
:100990000CD0684601F012F8002004B010BD1448D5
:1009A0000DF02AFE0300002108009847163B6A4616
:1009B00013700120FFF716FD0120FFF7F0FC0D4832
:1009C0000BF080FE02E096200BF07CFE01AC2000D4
:1009D000FFF768FD6378DB07F5D5002200210020D2
:1009E0000CF070FCEFE7C046004401101844011001
:1009F00055420000AC0D000010B5041C00210FF0A2
:100A0000F1FA002802D10024201C10BD0849201C46
:100A10000FF099FA07490FF07BFA041CFE218905B3
:100A20000FF0E0FA0028EFD0FE24A405ECE7C04662
:100A3000CDCC4C3FCDCC4C3EF0B5DE4657464E4675
:100A40004546E0B583B00190A74B5B78002B3FD0C3
:100A5000A54C002363702178A44A1170A44A137036
:100A6000A44A137023691B0C606900041843A24D4B
:100A70002861A9680FF047FAA0490FF04EFAE86024
:100A800063691B0CA06900041843E86169690FF0F1
:100A90003AFA9A490FF041FAA861A3691B0CE06980
:100AA00000041843964D2861A9680FF02CFA934969
:100AB0000FF033FAE860E3691B0C206A0004184366
:100AC000E86169690FF01FFA8C490FF026FAA861F6
:100AD000002461E08B4DB3E0874B19699960DA69B6
:100AE00091465A61864B1A6990469A60DF695F6148
:100AF0007F4B1B78632B02D801337D4A13707C4BEC
:100B00001E787A4B1B789E4200D3DDE0794B0022A1
:100B10001A70754B9B46751C2D01EB581B0C5D44E0
:100B2000686800041843744B9A4618610FF0EBF99B
:100B300072490FF0F2F95346D8606B681B0CA86835
:100B4000000418435346D86149460FF0DCF96B495D
:100B50000FF0E3F95346986133015B441E009B6933
:100B60001B0CF06900041843654D286141460FF0E5
:100B7000CAF962490FF0D1F9E860F3691B0C306AD9
:100B800000041843E861391C0FF0BDF95B490FF010
:100B9000C4F9A86198E00134FE2C00DD9DE0564EBA
:100BA000B0680FF08DFA584A584B0DF0F0FF002254
:100BB000574B0DF0CEFF0EF0AFF83060504DA868E7
:100BC0000FF07EFA504A514B0DF0E1FF0022504BDE
:100BD0000DF0BFFF0EF0A0F8286070680FF08CFADF
:100BE000804668680FF088FA071C7069FFF704FFF9
:100BF000011C40460FF0A7F9061C6869FFF7FCFED0
:100C0000011C381C0FF09FF942490FF09CF9051C9C
:100C10004149301C0FF097F9011C281C0FF078F99E
:100C2000051CFE2189050FF0DDF9002801D0FE2505
:100C3000AD053449281C0FF0BFF9002800D049E762
:100C4000FE218905281C0FF063F90FF039FA002204
:100C5000324B0DF09CFF019B1D190EF045F82870DA
:100C6000254E716830680FF053F9071C7060244DF1
:100C7000296868680FF04CF96860294B9846191C80
:100C8000381C0FF045FB7060414668680FF040FB70
:100C90006860184B1B781E2B00D91DE7164DE968BC
:100CA000A8680FF035F9A860A96968690FF030F9F4
:100CB0006861134DE968A8680FF02AF9A860A9696E
:100CC00068690FF025F968610A4B1B78632B00D91E
:100CD00061E70133074A13705DE703B0F0BCBB4620
:100CE000B246A946A046F0BD883C0020F441002051
:100CF000F5410020F3410020F43600200000F041CF
:100D0000343C0020000080BF182D4454FB211940C2
:100D10000070C7409A99193FCDCCCC3E00E05F40AF
:100D2000DB0FC940F0B5CE46474680B587B0050019
:100D30000F0004210AF034FB6B0807241C40012338
:100D400098461D40A94609200CF0B2F90FF04FF962
:100D50009C490FF0F8F89C490FF0DFF8061C3800AA
:100D60000FF04AF9011C301C0FF0D7F8FA21890561
:100D70000FF0E9F884466B46002700975F609F609C
:100D800010225A60914A9A6003AE320023CB23C2EC
:100D90008321C90560460FF0D6F80FF081F9049061
:100DA000FE2305938A49A20013199B005F50131973
:100DB0009B008C4663449F60DF600598186104982F
:100DC0005860434603980343121992005350012080
:100DD00010F0F8FB7F4E3060012010F0F3FB7E4BEB
:100DE0001860012010F0EEFB7C4B186032687C4BE1
:100DF0000C2A00D9C8E07B490B40D20213430C21D6
:100E00008B430822134378480340784803407848CE
:100E100003400120034377480340022083438B4370
:100E2000134308329343103293436C4A12680C2ADE
:100E300000D9AFE06B491940D3020B4322001832AE
:100E40006D490B40D1030B4362490968A0000419A6
:100E5000A4006A48844664448901A020C0058446F1
:100E60006144674808604C60042088600B615A4BFD
:100E700019685B4B0C2900D992E05A480340C9021B
:100E80000B430C20834308210B43574C2340574C02
:100E90002340574C234001242343564C2340022433
:100EA000A34383430B4308318B4310318B433F2AC9
:100EB00000D97BE050491940D3030B43464A1068E0
:100EC000444A116889014F4A944661448201A02432
:100ED000E405A44662444C4C14605160FF21890033
:100EE0009160136101238340484A136048490C20F4
:100EF0000AF0C0FB01210C200AF0ACFB374B1A684A
:100F0000374B0C2A58D837490B40D20213430C22D6
:100F1000934308210B4334490B4034490B40344977
:100F20000B400124234333490B4002218B4393435D
:100F30000432134310329343284A126849464D0045
:100F40002F4845199201A021C9058C466244314EB3
:100F50001660556094601361FF22802130000FF00D
:100F600005FB3000FF30FF2280210FF0FFFA1A4B03
:100F70001B689C40A022D2058623DB00D45007B01A
:100F8000C0BCB946B046F0BD234B244AC321244817
:100F90000CF0D8F9204B214AB73121480CF0D2F996
:100FA0001D4B1E4AC3211E480CF0CCF91D4B1E4A96
:100FB00095311B480CF0C6F9174B184AC321184845
:100FC0000CF0C0F900007A4400007E43FFFF0000EF
:100FD00000000540243D0020884100202C3F0020D7
:100FE00010801F00FF87FFFF3FF8FFFFFFFFBFFFDD
:100FF000FFFFDFFFFFFF7FFFFF7FE0FF0C000540EB
:10100000484100203C0000502015002014240050CE
:10101000C1000020C032002020440110E84401102B
:1010200040440110AC440110D044011010B501003F
:10103000034C422220000FF09FFA0123637010BD81
:10104000883C002010B584B06B460A4A13CA13C30B
:10105000190013680B60002405E00CF0E1F808208B
:101060000BF030FB01343D2CF7DD0023039304B07B
:1010700010BDC046C044011010B5114B1B78002BA9
:101080001DD10F4B01221A7000240CE00D4B0E4AAB
:10109000DA60A1000D4A8A589A600CF0C1F89620D7
:1010A0000BF010FB01341A2CF0DD96200BF00AFB3C
:1010B000044B0022DA605A60014B00221A7010BD06
:1010C000F0410020143F00206666663F2415002092
:1010D00010B582B0174B1B78002B1BD000236A463B
:1010E000D371911DD01D00F021FB6B46D8790028EB
:1010F00017D1114B00221A60104C2000FFF79CFC06
:101100002000FF30FFF798FC0D490820FFF70AFE8A
:1011100002B010BD64200BF0D5FA064B01221A7004
:10112000DCE70EF064FF07490EF0F7FE024B186093
:10113000E2E7C046EF410020C82C0020C03200206A
:10114000E02E00000000C84210B5FFF795FF012017
:1011500010BD70470902084300B2704770B582B0F5
:10116000D02424060125A5616B46187159710B4ED8
:10117000022201A9300013F0FBF8656102200BF098
:10118000A1FA0335A561022201A9300013F0F0F89D
:10119000656102200BF096FA02B070BD00C00340FA
:1011A000F0B5DE4657464E464546E0B585B00600EA
:1011B0000D0001AC002301930822002102A80FF0CA
:1011C000D5F903236B449B46A2235A461370D023C0
:1011D0001B069946012398464B4642469A614D4B61
:1011E0009A465946180013F0C3F80C232200002138
:1011F000504613F065F84B4642465A6161782078B4
:10120000FFF7A8FF83B2FF273840B0711B0AF371C4
:10121000E178A078FFF79EFF83B2384030721B0A56
:10122000737261792079FFF795FF83B23840B0720D
:101230001B0AF372E179A079FFF78CFF83B2384083
:1012400030701B0A7370617A207AFFF783FF80B2D7
:10125000404283B23840B0701B0AF370E17AA07A42
:10126000FFF778FF83B2384030711B0A73714A462A
:101270000423936101225946504613F079F80C2358
:1012800022000021504613F01BF84A460423536104
:1012900061782078FFF75EFF83B23840A8711B0A9F
:1012A000EB71E178A078FFF755FF83B238402872E0
:1012B0001B0A6B7261792079FFF74CFF83B23840CB
:1012C000A8721B0AEB72E179A079FFF743FF83B2A2
:1012D000384028701B0A6B70617A207AFFF73AFF5A
:1012E00080B2404283B23840A8701B0AEB70E17AAA
:1012F000A07AFFF72FFF83B2384028711B0A6B7169
:10130000434633732B7305B0F0BCBB46B246A946C7
:10131000A046F0BD00C0034010B5AE211020FFF77D
:101320001DFF5C211120FFF719FF04211220FFF798
:1013300015FF04211320FFF711FF00211520FFF7EF
:101340000DFFE0211720FFF709FF10BDF0B5C646DD
:1013500000B5040014282DD015282FD0132803D051
:10136000002080BCB846F0BD142715239846200005
:101370000AF060F801263300A340D0252D06AB62A9
:101380000022012120000AF023F840460AF052F81A
:101390003300424693406B62AB6138000AF04AF872
:1013A0003300BB406B62AB616B68E3401E4209D007
:1013B0000120D6E7132715239846D8E713271423CF
:1013C0009846D4E70020CCE710B51420FFF7BEFF05
:1013D00010BD10B51320FFF7B9FF10BD10B51520D3
:1013E000FFF7B4FF10BD10B501211A20FEF7B8FFBA
:1013F000962080000BF066F909F030FC002800D13F
:1014000010BD0120FCE710B501F03CFE10BD00004E
:10141000F0B5C64600B584B0142338E001330B2B79
:1014200005D801AAD25C002AF8D00125F6E71820D9
:101430000BF048F92F4BDB685B07FBD5D02636064F
:101440000427B7612B4B984601226B46D91C4046B6
:1014500012F08EFF0C2301AA0021404612F030FF4B
:1014600077610C283DD10023002100E001330B2BD4
:1014700005D801AAD25C002AF8D00121F6E700299C
:1014800001D0002D30D118200BF01CF923005C1E78
:10149000002B28D0002301930822002102A80FF07E
:1014A00065F86B46A222DA70124BDB685B07FBD54E
:1014B000D0252D060126AE610E4F01226B46D91CA8
:1014C000380012F055FF0C2301AA0021380012F059
:1014D000F7FE6E610C2802D1002300259FE700254E
:1014E00002E0002500E00025280004B080BCB846DA
:1014F000F0BDC04600C0034070B584B003A9484B9E
:101500001A880A8000238B7002A90A808B7001A9B7
:101510000A808B7069460A808B7032241FE0013389
:10152000022B14D803AAD25C002A00D0012101AA00
:10153000D25C002A00D0012602AAD25C002A00D088
:1015400001256A46D25C002AE9D00120E7E700299C
:1015500005D0002D03D0002E01D0002857D1230044
:10156000013C002B50D0D0231B0602229A612D4B48
:10157000DB685B07FBD5032303AAD021294812F0BF
:101580009FFE032842D1D0231B0602225A619A6192
:10159000244BDB685B07FBD5032302AAF02121481B
:1015A00012F08EFE032834D1D0231B0602225A618A
:1015B000FF32FF329A611B4BDB685B07FBD50323CD
:1015C0006A46F021174812F07BFE032823D1D0236E
:1015D0001B06802292005A619A61124BDB685B07FE
:1015E000FBD5032301AAD0210E4812F069FE03287F
:1015F00013D1D0231B06802292005A6100230020C1
:101600000026002500218BE7002000E0002004B028
:1016100070BD0020FBE70020F9E70020F7E7C04697
:101620000445011000C0034010B5FFF78DFD0120F7
:1016300010BD0120704770B582B0FFF75DFF01ACAF
:1016400001260125284003012078102290431843E9
:101650002070FFF7D8FEC30122787F201040184386
:101660002070FFF7C0FE284083012078402290437D
:1016700018432070FFF7B2FE284083002078042230
:10168000904318432070FFF79FFE03002B40207803
:10169000B04318432070FFF79CFE28404300207899
:1016A0000222904318432070FFF7C3FF2840C30075
:1016B00020780822904318432070FFF7A9FE2840A5
:1016C000430120782022904318432070FFF7ACFF9D
:1016D00005406078B04305436570208802B070BD56
:1016E00010B512E00C4B9A6A0C4B1A600C4812F0C1
:1016F000EFFD00F0B1FC094C206806F0C5FC206845
:1017000004F006FE2068FFF7C9F80649044812F005
:1017100017FE0028E6D1ECE700400540C429002070
:1017200028180020C02D002070470000044B7A22AA
:10173000FF329A5C02707C22FF329B5C0B70704718
:101740008819002064207047014B0020185670470C
:1017500094150020F8B504000E001500254A26490E
:10176000280001F003FF071E1DD0244B1A682449EE
:101770008C466244D11752184A405B686344D917BB
:101780005B184B40642A0BDC0022642B00DD020056
:101790001C4B1B88002B05D01A4B00221A8002E03C
:1017A0000200F2E71700227863781B021343154A00
:1017B00011880B431380114B32681A6072685A60AB
:1017C000114B3A001149280001F0E3FE002807D030
:1017D0000F4B1B78002B03D10D4B01221A70F8BD63
:1017E000002FFCD00A4B1B78002BF8D0084B0022AE
:1017F0001A70F4E7F035002040420F00203C002032
:1018000000F8FFFFA4410020C43B002040787D0188
:10181000BA410020014B18787047C046BA410020F9
:1018200010B5002803D1074B00221A7010BD01200B
:10183000FEF7B5FD0120FEF7D5FD024B01221A701F
:10184000F4E7C046AA41002010B50020FEF7CAFD0B
:101850000020FEF7A4FD0022002100200BF032FD45
:1018600010BD000010B50849084812F069FD0028B5
:1018700002D1074B186810BD064B1A68044B1A605A
:10188000024812F025FDF4E7C42D0020281800209E
:1018900074410020C429002010B5064B1B78002B92
:1018A00000D010BD034B01221A70002001F01CFB78
:1018B000F7E7C046D541002010B5334B1B78002B0D
:1018C00039D03249324812F03BFD00283BD1314833
:1018D000FEF7E8FD304B1B78002B3CD105F02CF8CF
:1018E0002E4C20682B4906F067FD206801F092FB22
:1018F00008F0D2FB00283BD0284C2068284905F08E
:1019000037FB2068274A284908F0F2FB274B0022C2
:101910001A70224B1A6824492248FFF71BFF244BF8
:101920001B785BB2012B2AD00BF07AFC1B4B18689A
:10193000FFF7FAFE10BD00211E480BF0B7FC124B5A
:1019400001221A70BDE71C4B9A6A144B1A601048AA
:1019500012F0BEFCBBE70F48FEF7A4FF0BF060FCE3
:101960000E4C206801F056FB206801F069FDE1E7AC
:101970000A4B18680C4A0B4900F0A0FCC9E7074B5A
:10198000186801F05DFDCFE7DF410020BC2D00208D
:1019900028180020F0240020AA410020C42900209B
:1019A000B8240020FC240020D8240020BA410020C4
:1019B000941500204C1D00000040054070B5051E28
:1019C00000D1DCE001F0CDFD0400FEF719FD6C490B
:1019D0006C4810F033F80321162009F0E1FC0321D4
:1019E000172009F0DDFC6848FEF75CFD00F090FB75
:1019F00000282DD0644E3300644A6549654806F0DE
:101A000057F906F0E9FBB378DB0626D4E3B2012BE5
:101A100029D0022B2CD001242C57631C2FD000225C
:101A2000AA565D4B1A70584B1B789A062BD45A064F
:101A300045D4DA0645D45AB2002A44DB5A0744D4C6
:101A40000A221A40022A42D01B071DD503241BE09C
:101A50003221524801F036FACCE7062200215048E4
:101A60000EF084FDD2E74C4B02221A700024DAE714
:101A700023041B0F484A13702405240FD3E7494B56
:101A800002241C57CBE70624FFF722FB02F0AAFC36
:101A9000444AE2235B00D65C3F4B1B785BB20133C8
:101AA00017D06425002001F017FCFA2001F0AAFBF2
:101AB000E3B2062B3DD8A3003B4AD3589F460124EE
:101AC000E2E70024E0E70224DEE70524DCE7042463
:101AD000DAE701F041FC002804D12F4B02221A70F2
:101AE0004625DFE72C4B01221A706425DAE72F48E0
:101AF000322101F0E7F92900300001F007FA264B06
:101B000000215956200000F0E9FB1F4B9B789B07F2
:101B100030D4274A1C49200004F0B6FD0FF094F899
:101B200024480FF07FF8FFF7C7FEFCE7FF20000610
:101B3000DEE72148DCE7FF200002D9E7002001F0C2
:101B400061FB154B00221A70FF2000041925CFE716
:101B5000002001F057FB104B00221A7017480F2588
:101B6000C6E7002001F04EFB0B4B00221A70144810
:101B70001925BDE70B4B9C7000F0C4FAC9E770BD96
:101B8000400D0300F8170020F0240020B8240020A6
:101B9000D8240020C8240020941500200000FF4D08
:101BA000041B0020881900200845011000F115FFD2
:101BB000FC240020E116001000A1A1A100FF61009B
:101BC0000000FFE6094ABD235B00D35C1A1C312BE1
:101BD00000D83222054BBD2149005A54DA787A39AF
:101BE000FF398A43DA709B221A72704788190020E5
:101BF00070B505001400724B1380012900D070BD30
:101C00000223C3569370D01CE91C06220EF0B4FCCC
:101C1000EB68E3602B6923616B696361AB69A36166
:101C200020001C3029001C3120220EF0A5FC2000D1
:101C30003C3029003C3120220EF09EFC20005C301C
:101C400029005C3120220EF097FC20007C30290016
:101C50007C3120220EF090FC20009C3029009C3129
:101C600006220EF089FC2000A2302900A2310622B3
:101C70000EF082FC2000A8302900A83130220EF09E
:101C80007BFC20002930FF302900D83110220EF0D3
:101C900073FC20003930FF302900E83110220EF0AB
:101CA0006BFC20004930FF302900F83110220EF083
:101CB00063FC20005930FF3029000931FF31102228
:101CC0000EF05AFC20006930FF3029001931FF3135
:101CD00010220EF051FC94235B00EA5C5033E25476
:101CE0002A23FF33EA5C7A23FF33E2544F3BEA5C5A
:101CF0005033E2542C23FF33EA5C7C23FF33E2545D
:101D000020007D30FF3029002D31FF3106220EF0FA
:101D100033FC20008530FF3029003531FF3120228F
:101D20000EF02AFC2000A530FF3029005531FF318C
:101D300020220EF021FCBA235B00EA5C5033E2540F
:101D40002000C930FF3029007931FF3118220EF010
:101D500013FCC8235B00EA5C5033E2544E3BEA5A62
:101D60005033E2524E3BEA5A5033E2524E3BEA5A6B
:101D70005033E2524E3BEA5A5033E2524E3BEA5A5B
:101D80005204F6204000110C225A9A3BFF3B1A40A5
:101D90000A432252CE225200A95A22185180CF2241
:101DA0005200AA5A5204F8214900120C605A03400A
:101DB00013436352D0235B00EB5A641863801EE721
:101DC00002A0FFFF064B984204D0064B984203D175
:101DD000022070470120FCE701204042F9E7C0469D
:101DE00001A0000002A0000010B512480EF014FD82
:101DF000002407E0104B5B18D97810480EF00CFD5A
:101E00000134E4B2052C0DD80FF0F2F92100C0B274
:101E1000094A1219D070002CECD113000122904312
:101E2000D870E7E7044B9B221A720A200EF0A6FC3A
:101E300010BDC0462445011088190020344501100A
:101E4000F0B5DE4657464E464546E0B56F4CA544D4
:101E5000FC256D002A00002102A80EF087FB6C4BC8
:101E600002AA1380059B0193DB0FDB07802212017E
:101E700013430593069B0193DB0FDB071343069384
:101E8000079B0193DB0FDB0713430793089B019329
:101E9000DB0FDB071A4308925E4F0A975E4E0B96E4
:101EA0005E4C0C945E480D905E490E915E4A0F9216
:101EB0005E4B1093129713961494159016911792E7
:101EC00018935B4B19931A931B931C931D931E93AA
:101ED0001F9320932193802202A98B5004328B50B0
:101EE00004328B5004328B5004328B5004328B50AE
:101EF00004328B50FF231B049A46A8230A00514644
:101F0000D1504C4B9B46AC235946D1504A4B994635
:101F1000B0234946D150FF231B069846B4234146BF
:101F2000D150FF2636020433D6500433434A02A967
:101F3000CA50434F04330A00CF5004335146D150A6
:101F400004334146D1500433D65004334946D1506E
:101F50000433D6503B4BD82202A98B5004328B500D
:101F600004328B5004328B50E823CF50B63B7A2298
:101F7000FF328B5401328B54173AFF3AF12149005A
:101F800002A8425202314352023142528532FF329C
:101F9000010083522C4C2A0020000EF0EDFA0020A4
:101FA00004F038FB012004F035FB032004F032FB81
:101FB000042004F02FFB052004F02CFB20009C30B3
:101FC000062200210EF0D2FA2000A23006220021C3
:101FD0000EF0CCFAFFF708FFE4235B005246E25014
:101FE00004335A46E25004334A46E2500433424630
:101FF000E2500433E6500433E75081239B009D44B4
:10200000F0BCBB46B246A946A046F0BDFCFDFFFFB2
:1020100002A0FFFF000034420000B442000007436A
:1020200000003443000061430000874300809D436B
:10203000000016440000FF4D0000FFE600F115FF10
:1020400000FF610000A1A1A188190020014B1878B0
:102050007047C046EB41002070B5204CA544204B92
:102060001B78002B03D180235B019D4470BD0EF0D3
:1020700003FEEFF3108672B61A4B1B78002B24D1A7
:10208000194C00230093194A002101A80EF06EFAA2
:10209000FC225200164968460EF06EFA80256D014A
:1020A0002900200012F054F92A006946200012F09D
:1020B0002FF986F310880EF0E9FD0E4B1B78002BEC
:1020C00006D1074B00221A70CDE796246403D8E7A7
:1020D00008F0A2F8074B00221A70F2E700F0FFFFA9
:1020E000D3410020EB41002000D01200FC0F000083
:1020F00088190020E0410020014B01221A7070472E
:10210000E0410020014B01221A707047D3410020AA
:1021100070B5394B1888394B1D88FFF753FE040002
:102120002800FFF74FFE0500631C0BD0022C0FD0D8
:10213000022D0DD0012C2CDD012D2ADD00230022E3
:1021400000262CE0431CF1D100230022012626E0CA
:10215000022C05D0022D0FD00023002200261EE005
:10216000FC225200244926480EF006FA254B002294
:102170001A700023002612E0FC2252001F4920485A
:102180000EF0FAF91F4B01221A70002300220026DC
:1021900005E00123012C15DDDBB201220026002E13
:1021A00012D1002A23D0002B18D1164B01221A700D
:1021B000134A21001048FFF71BFD0020FFF7A2FF84
:1021C000300070BD0023E7E70E4B00221A70FFF7C6
:1021D00037FE0020FFF796FF0026F1E7094B0022AB
:1021E0001A70074A29000548FFF702FDE5E7FFF7E7
:1021F000E9FC0126E4E7C04600D0121000C012102E
:1022000088190020EB41002010B5031C642800D978
:10221000642303497A22FF328B54FEF759FF10BD25
:102220008819002010B5022817D008D800280DD032
:1022300001280FD10B4AF2235B00D1520AE0032898
:1022400008D1084AF4235B00D15203E0054AF12388
:102250005B00D15205F0BCF910BD024AF3235B00CC
:10226000D152F7E78819002030B50F4C40004508DF
:10227000E068C00FC0072843E060490048082169B2
:10228000C90FC90701432161520051086269D20F89
:10229000D2070A4362615B005A08A369DB0FDB07C0
:1022A0001343A36130BDC04688190020062800DD15
:1022B0000020014B987070478819002010B5034B1F
:1022C0001B68002B00D0984710BDC046A4270020F3
:1022D000014B002018567047BB41002010B588B054
:1022E0000400284B1870022910D00C22002105A8E8
:1022F0000EF03CF91022002101A80EF037F9E3B2EC
:10230000062B0BD8A400204B1B599F461F4B204A7D
:102310001A6008F03BFD0028E7D005E01B4B1D4A82
:102320001A60002001F0E8F908B010BD174B194AF7
:102330001A60062001F0E0F9F6E7144B154A1A601E
:10234000012001F0D9F9EFE7104B124A1A60022080
:1023500001F0D2F9E8E70D4B0F4A1A6001AA05A96E
:102360000020FFF7ABFFDFE7084B0C4A1A6001AA19
:1023700005A90020FFF7A2FFD6E7044B084A1A6020
:10238000D2E7C046BB41002058450110A4270020D9
:10239000E1AF0010A9370010398D001061970010CF
:1023A000519D0010F0B5C64600B590B004000D0078
:1023B00016001F0016AB1B789846494B984200D177
:1023C00088E00721380008F0EBFF012300933A0072
:1023D000290020000FF012F81022002108A80EF0AA
:1023E000C5F880235B020893F8235B0209938023DE
:1023F000DB020A93C0231B030A93102208A904A836
:102400000EF0BAF8F31C059A039236491140F20116
:1024100011431B0319430591079B0393DB00DB0862
:1024200080229205134307932F4B194005911022E8
:1024300004A90CA80EF0A0F80F9B03932B4A1A4096
:10244000BF0217430F974346002B45D020220E9B17
:1024500003932749194080239B020B435206F8211E
:1024600089050A4013430E939B009B088022D205E6
:1024700013430E9305200AF015FE1E490CF010F9C7
:102480000DF0B5FD80460DF00BFE87B2002F25D074
:1024900038000DF0ACFD011C40460DF034FD8721E5
:1024A000C9050DF050FD0DF0FBFDC0B200023F0468
:1024B00007430C970CAB3200290020000EF0F0FF10
:1024C00022680123AB409A431343236010B080BCC1
:1024D000B846F0BD062175E71822B8E70020E5E709
:1024E000000020507F00FEFFFFFFFF9FFF83FFFFE4
:1024F000FFFFF5C10050C300014B01221A70704765
:10250000CA41002070B5254B1B78002B17D1244BF6
:1025100000221A70214B01321A7000240B2C09D8AA
:102520000EF066FE06210CF0BBF81E4B1955013467
:10253000E4B2F3E71C4B00221A70002428E01A4B87
:102540001B78002BF9D1194B1B789A009B18FA2B9A
:1025500000D9FA23FF221A40FF239B1A9BB2144A88
:102560001380144A1380104B01221A70E5E70D4DB9
:102570002B5D72339B00104A9958A2000F4BD1502B
:102580000EF036FE06210CF08BF829550134E4B22A
:102590000B2CECD9FFF7B0FF70BDC046C94100203D
:1025A000B2410020BC270020B9150020B71500203B
:1025B0009A4100209641002088190020542C0020C8
:1025C000034B1980034B1860034B00221A707047AD
:1025D00098410020E82B0020C741002070B505007D
:1025E0000C0000880DF003FD1B490DF096FC1B4903
:1025F0000DF0A9FC0DF054FDC2B22B79A978C943A6
:10260000C9B25943090A5B1ADBB23F2528402D1A8B
:10261000EDB2584380096B439B11DBB20818C0B27E
:10262000CB18DBB23F2A10D9403AD2B23F2A06D8A3
:102630001A060B061B0A0002134318430AE0090698
:1026400000041B020843184304E000061B040902AF
:1026500018430843206070BD00007F4300003F43E3
:10266000F8B5CE46474680B50400234B1D78002DB3
:1026700005D100230360C0BCB946B046F8BD642D47
:10268000F9D08778E678B81963789846C0180DF0C5
:10269000B3FC1A490DF041FC814628000DF0A7FC5F
:1026A00017490DF03AFC051C011C48460DF08AFC48
:1026B0000028E0D14946281C0DF02FFC051C3800ED
:1026C0000DF095FC291C0DF03EFC0DF0E9FCA0700E
:1026D00030000DF08CFC291C0DF035FC0DF0E0FCF9
:1026E000E07040460DF083FC291C0DF02CFC0DF031
:1026F000D7FC6070BFE7C046B615002000007F43DE
:102700000000C842F0B5D6464F464646C0B5040064
:102710000368002B35D083789846C778D819667837
:1027200080190DF069FC051C40460DF060FC8046E8
:10273000291C0DF0F2FB824638000DF058FC071CF6
:10274000291C0DF0EAFB814630000DF050FC061C00
:10275000291C0DF0E2FB051C514640460DF0F3FB31
:102760000DF09EFCA0704946381C0DF0ECFB0DF0FE
:1027700097FCE070291C301C0DF0E5FB0DF090FC7F
:102780006070E0BCBA46B146A846F0BD30B585B031
:102790001D4B1B78002B0FD100240B2C09D80EF0F9
:1027A00027FDFF210BF07CFF184B19550134E4B2D3
:1027B000F3E7154B01221A7000241FE0134D2B5D27
:1027C000134A1078C018FF210BF042FFC9B22955F7
:1027D00002A80180FF23438083800023019301A985
:1027E000FFF7FCFE01A8FFF73BFF0A48A300019A90
:1027F0001A50C018FFF786FF0134E4B20B2CDDD964
:10280000FFF77AFE05B030BDC9410020B82B00208B
:10281000B7150020542C002000220AE0930006493E
:102820005958064B5B68DB03FBD4044B196101323A
:10283000D2B20B2AF2D97047EC2B002000002050B6
:10284000F8B5DE4657464E464546E0B506000D0053
:10285000141C80780DF0CBFB8046F0780DF0C7FBA0
:10286000071C70780DF0C3FB061CA8780DF0BFFBA9
:102870008346E8780DF0BBFB824668780DF0B7FB25
:102880008146414658460DF03EFB211C0DF05BFB96
:1028900041460DF03DFB051C391C50460DF033FB45
:1028A000211C0DF050FB391C0DF032FB071C311CB4
:1028B00048460DF028FB211C0DF045FB311C0DF0A6
:1028C00027FB061C281C0DF0EBFBC5B2381C0DF0D5
:1028D000E7FBC4B2301C0DF0E3FBC0B22D040002D4
:1028E000240628432043F0BCBB46B246A946A04676
:1028F000F8BD000000B583B000230093082806D877
:102900008000164B1B589F46FF231B040093002397
:102910000193134A01A96846FFF792FF0023002B99
:1029200018D003B000BDFF231B020093EFE70D4B4F
:102930000093ECE7FF231B060093E8E70A4B0093A4
:10294000E5E70A4B0093E2E7094B0093DFE7094B09
:102950000093DCE7084A10610133E0E77445011099
:102960006666663F0000FFE60000FF4D00F115FFC0
:1029700000D0FF2B00FF6100542C002010B5054B48
:102980001870FFF7B7FF044B00221A70FFF7B4FD71
:1029900010BDC046CC410020C9410020F8B5304BE5
:1029A00018880DF029FB011CFE2080050DF0B5FAFA
:1029B000041C2C4B1B78002B0AD12B4B1E78284B68
:1029C0001B889E421BD9294B1878002835D0F8BDAA
:1029D000274B1878FFF78EFF2649274B0A0023CB99
:1029E00023C223CB23C223CB23C223CB23C2002366
:1029F0001D4A13701B4A13701C4A1370DDE7300028
:102A00000DF0F5FA211C0DF09EFA051C00240BE0D8
:102A1000A7001A49C9191748C0192A1CFFF710FF47
:102A2000154BD8510134E4B20B2CF1D901360E4BC1
:102A30001E70FFF7F1FE0020C9E70F490F4B0A0097
:102A400013CB13C213CB13C213CB13C213CB13C2BA
:102A5000FFF7E2FE054B01221A700120B7E7C046DE
:102A600096410020CA410020BB150020B815002067
:102A7000CC410020242C0020EC2B0020542C0020E2
:102A8000F0B5C64600B506000F00150098460024B4
:102A90000AE0335D9B004246EA50305D8000281812
:102AA000FFF730FE0134E4B2BC42F2D380BCB8463A
:102AB000F0BD0000031C642800D96423014A137090
:102AC0007047C046B615002030B583B0050000241D
:102AD0000CE0019501A8FFF7C3FD0648A300019A89
:102AE0001A50C018FFF70EFE0134E4B20B2CF0D9D7
:102AF00003B030BD542C002010B509480388094AA2
:102B000012789B18FF2213400380074C2100FFF727
:102B100065FD2068FFF7D8FFFFF7EEFC10BDC0464B
:102B2000B0150020B7150020B42B002010B51A4BAB
:102B30001B78002B17D1194A1370174A0121117005
:102B4000174A1370154C237872339B00154A985816
:102B5000FFF7BAFF2078013006210BF079FD2170D4
:102B6000FFF7CAFC10BD0E4B1B78002BEAD10E4BB1
:102B70001B789A009B18FA2B00D9FA23FF221A40DF
:102B8000FF239B1A9BB2094A1380094A1380044B06
:102B900001221A70D6E7C046C9410020B241002088
:102BA000BA15002088190020B71500209A4100208E
:102BB0009641002010B50F4B1B78002B10D10E4B07
:102BC0001B68002B02D10C4B0C4A1A600A4B186888
:102BD000FFF77AFFFFF790FC064B01221A7010BD39
:102BE0000020FFF771FFFFF787FC024B00221A70ED
:102BF000F5E7C046E94100201C2C00200000FFE65C
:102C000070B51D4B1C78002C05D01C4B1B78002B7D
:102C10001ED0200070BD1A491A480B00020023CABA
:102C200023C323CA23C323CA23C323CA23C3164BE4
:102C30001868FFF749FF154B1A88154B1A80FFF7E4
:102C40005BFC0D4B01221A700C4B00221A70E0E75E
:102C500010490B480B00020023CA23C323CA23C315
:102C600023CA23C323CA23C3FFF746FC034A1378AE
:102C700001331370CDE7C046C7410020F141002069
:102C80004C3D0020EC2B0020202C002098410020FF
:102C900096410020542C002070B50E4B1C78002C5F
:102CA00008D00D4B1D78002D11D0FEF7CDFD2C0066
:102CB000200070BD0020FFF707FFFFF71DFC074B4A
:102CC0001A88074B1A80034B01221A70F0E700F0B4
:102CD00043FAEDE7C7410020CD4100209841002094
:102CE0009641002070B50C000F2803D88000284BB7
:102CF0001B589F460126274D2BE00126264D28E034
:102D00000126264D25E00126254D22E00126254DF0
:102D10001FE00126244D1CE00126244D19E0012668
:102D2000234D16E00126234D13E00126224D10E02D
:102D30000126224D0DE00126214D0AE00126214DFC
:102D400007E00126204D04E00126204D01E0042685
:102D50001F4D002A12D023001E4A31002800FFF721
:102D60008FFE23001C4A31002800FFF789FE230054
:102D70001A4A31002800FFF783FE70BD2300164A6F
:102D800031002800FFF77CFEFFF7B6FBF5E7C046F1
:102D9000984501101C460110FC4501100C4601101D
:102DA000F845011000460110144601102446011098
:102DB00020460110F0450110F445011004460110B1
:102DC00028460110184601102C460110104601102B
:102DD00008460110242C0020542C0020EC2B00204D
:102DE00070B50C4B196840220B480DF0C5FB002450
:102DF0000CE0A300084DED182800FFF731FC29680E
:102E000000222000FFF76EFF0134E4B20F2CF0D94E
:102E100070BDC046842C0020882C002010B5024BC9
:102E20001860FFF7DDFF10BD842C002010B5074BA4
:102E30001B78002B00D010BD0548FFF7EFFFFFF710
:102E40005BFB024B01221A70F5E7C046C941002026
:102E5000301A0020144AF0235B00D35C834209D06F
:102E6000002B03D1E133FF330521D1540E4AF02367
:102E70005B00D0540C4AF0235B00D25C0B4B1A7001
:102E80000B4B1B78052B0AD00A4B15221A80094BD5
:102E90001A88094B1A80094B00221A707047084B98
:102EA0001A88044B1A80F2E788190020B715002011
:102EB000C84100209A41002096410020C9410020CD
:102EC0009C41002010B5054B18604908044C2000B7
:102ED000FFF776FB034B1C6010BDC046202C002082
:102EE000012C0010E82B002010B5054B1870054B85
:102EF00000221A600A210448FFF762FB10BDC04699
:102F0000CD410020E42B0020992C001070B582B038
:102F100004000D00254B1B78002B0CD0244B1C709B
:102F20000023244A1370244A1370052C16D8A400D9
:102F3000224B1B599F46224E224930000EF042FA86
:102F40000200002300931B3300213000FFF72AFA10
:102F5000164B01221A70FFF75FFCDFE71A4B1B4A82
:102F60001A601B4AF0235B00D05CFFF773FF002D53
:102F700015DA02B070BD144B164A1A60F1E7124B15
:102F8000154A1A60EDE7104B144A1A60E9E70E4B38
:102F9000134A1A60E5E70C4B124A1A60E1E7FF2D6D
:102FA00000DDFF25E8B2FFF785FDE2E7CB41002019
:102FB000C8410020C9410020CE410020D845011061
:102FC0000000205030460110E42B00202D2E001070
:102FD00088190020F92A00108D270010B52B001049
:102FE0002D2B00100525001010B5FF2903DC00294A
:102FF00002DA152100E0FF21044B1980044B186010
:1030000064210520FFF782FF10BDC0469C410020CF
:103010001C2C002010B5144A144900F0A7FA00280F
:1030200000D110BDFFF7BAFC002803D1104B1B786C
:10303000002BF6D00F4B1B68002B0ED098470028B2
:10304000EFD000240B4B1C600B4AF0235B00D05CDC
:10305000FFF700FF094B1C70E3E7094B1B68002BCF
:10306000DFD09847DDE7C0469C3B00201A410000B6
:10307000CE410020E82B002088190020C941002003
:10308000E42B002000B587B02C4B1B7805AA1370E9
:1030900004AA137009F0E6FB02000B1E2CDB284883
:1030A000002112184B41002B2CDB002B2EDB02924F
:1030B00003930123009305AA6A2122480EF0EAFC3B
:1030C00009F0D0FB02000B1E26DB1D480021121860
:1030D0004B41002B26DB002B28DB029203930023BD
:1030E0000093013304AA6A2116480EF0F2FC00286E
:1030F00022DD012007B000BD134B144A3F211448C4
:103100000AF020F901225242124BCEE70E4B0F4A31
:103110003F210F480AF016F90B4B0C4A3F210C488F
:103120000AF010F9012252420A4BD4E7064B074A33
:103130003F2107480AF006F90020DBE7685101103B
:1031400010270000F817002040460110C04601106B
:103150005C460110FFFFFF7F10B586B00020FDF731
:1031600041F900241CE0204B204A3F2120480AF06E
:10317000E9F8002B28DB029203930023009302332B
:1031800005AA6A211B480EF085FC0400831C21D08F
:10319000431C22D0FA20800009F094FAFEF754FB79
:1031A000002C1DD105AB144A1A8009F05BFB02000C
:1031B0000B1ED8DB1148002112184B41002BD8DA26
:1031C000012252420E4BD4E7074B084A3F210848E0
:1031D0000AF0B8F8FEF738FBDCE7FEF735FBD9E775
:1031E000FEF732FB06B010BD40460110C04601108C
:1031F0005C460110F817002009410000102700006C
:10320000FFFFFF7F10B586B00400244B18802328F1
:1032100024D8C0B20538C0B27F231840002C00D19A
:10322000852005AB04221A70587009F01BFB0200C0
:103230000B1E22DB1A48002112184B41002B22DB07
:10324000002B24DB0292039300230093023305AA90
:103250006A2114480EF01EFC06B010BDAF235B00BF
:10326000984207D828380A210BF0F2F9C0B21F3073
:10327000C0B2D1E7AF204000F4E70B4B0B4A3F212F
:103280000B480AF05FF8012252420A4BD8E7064B7E
:10329000064A3F2106480AF055F8C046A2410020E0
:1032A00010270000F817002040460110C04601100A
:1032B0005C460110FFFFFF7F70B5064B1D880020A4
:1032C000FFF7A0FFFEF73EFA04002800FFF79AFF81
:1032D000200070BDA241002000B587B002281DD09B
:1032E000E02205AB0A2119705A7009F0BBFA0200FE
:1032F0000B1E15DB1248002112184B41002B15DB69
:10330000002B17DB0292039300230093023305AADC
:103310006A210C480EF0BEFB07B000BDE422E0E7D6
:10332000094B0A4A3F210A480AF00CF8012252428E
:10333000084BE5E7044B054A3F2105480AF002F82F
:1033400010270000F817002040460110C046011069
:103350005C460110FFFFFF7F00B587B0304B1B7844
:1033600005AA137004AA137009F07CFA02000B1E60
:1033700033DB2C48002112184B41002B33DB002B90
:1033800035DB029203930123009305AA6A212648A4
:103390000EF080FB09F066FA02000B1E2DDB2148BF
:1033A000002112184B41002B2DDB002B2FDB02924A
:1033B000039300230093013304AA6A211A480EF0F4
:1033C00088FB0230012828D904AB1A78174B1A70F1
:1033D000D0B2C007C00F07B000BD154B154A3F2142
:1033E000154809F0AFFF01225242144BC7E7104BBA
:1033F000104A3F21104809F0A5FF0D4B0D4A3F210F
:103400000D4809F09FFF012252420C4BCDE7084BBB
:10341000084A3F21084809F095FF0120DBE7C04634
:103420006851011010270000F8170020602F0020BD
:1034300040460110C04601105C460110FFFFFF7FAF
:1034400010B5FA212B4A090200F090F8002800D1AB
:1034500010BDFFF781FF284B187000281AD0274BAA
:103460001B78002B19D0254B1B78002B20D1234B28
:103470001B78002BECD0224B1B785B069A0F21495E
:1034800009788A42E4D0022A22D9032A23D1FF20D4
:10349000000222E0FEF700FAE1E7FEF7BBF90028A0
:1034A000E1D0184B00221A70144B01321A70DEE77B
:1034B000FEF7B0F90028DAD1104B00221A70124A38
:1034C000E2235B00D05C01214942FFF71FFDCEE7FC
:1034D00053B2002B07D1FF2000040A4B1A7064215D
:1034E000FFF782FDB4E7FF231B04E6200006184324
:1034F000F3E7C046E43B0020B0410020EC4100204F
:10350000602F0020E64100208819002010B500221D
:103510000021002009F0D6FEFEE70000072804D8AD
:103520008000024B9C466044016070470C8005405F
:1035300010B5072802D90024200010BD8000044BDC
:103540009C466044046800210520FFF7E7FFF3E78D
:103550000C80054010B501000520FFF7DFFFFFF7E5
:10356000D5FF10B50520FFF7E3FF10BD10605368CD
:10357000834205D9C31A013B8B4205D20020704714
:10358000834204D2C31AF7E750600120F7E7002016
:10359000F5E730B51860002A0BD15C6884420BD97E
:1035A000041B013C0025002D0BD1A14209D91000BC
:1035B00030BD58600020FBE7844205D2041B002583
:1035C000F1E758600120F3E71000F1E710B5FEF7CE
:1035D0007FFE022801D0024810BD0248FCE7C04629
:1035E000D8460110C847011010B500200FF0F4FDB7
:1035F00010BD000010B51021064810F0B1FE0028E3
:1036000000D110BD044B01221A70024810F060FE78
:10361000F7E7C04630180020DD41002010B510212A
:10362000064810F09DFE002800D110BD044B00227A
:103630001A70024810F04CFEF7E7C0463018002020
:10364000DD41002070B5050064210D4810F028FE12
:10365000041E09D10B4B22000B492800FFF799FFEC
:10366000051E08D1200070BD084B1C78E4B2044848
:1036700010F02EFEEEE7FFF7BDFF2C00F2E7C0468C
:1036800030180020243F0020A0860100DD410020EA
:10369000037801330370044B1B785BB2022B01D01B
:1036A000024870470248FCE77816002010490110D4
:1036B000484A01100C4B18600C4B98420BD00C4B35
:1036C00098420CD0FA235B00984200D07047094B17
:1036D00001221A60FAE7074B04221A60F6E7054B4D
:1036E00008221A60F2E7C046F42D002046100000C0
:1036F0008D200000EC2D002010B50400002002F009
:1037000001FE022C2CD0062C1DD0012C10D0012043
:1037100002F0F8FD1848FFF7CDFF184B184A1A6061
:10372000184B194A1A60194B1C7010F061F910BD42
:10373000FA204000FFF7BEFF104B154A1A60114BEC
:10374000144A1A60EFE7012002F0DCFD1248FFF78F
:10375000B1FF0A4B114A1A600A4B0B4A1A60E2E7A2
:10376000FA204000FFF7A6FF044B0D4A1A60054BF4
:103770000C4A1A60D7E7C0468D200000F02D0020CB
:10378000E19E0010F82D0020E93500107816002089
:10379000D5AA0010913E001046100000CDB10010D7
:1037A000CD8400101D430010F8B506000C00150074
:1037B0000120002140420FF083F8234B9F6C234BE4
:1037C0001B68BB421CD2FB1A214A12689A4202D8DB
:1037D000204B01221A70204B1968204A3000FFF755
:1037E000C5FE002802D01E4B01221A701D4B1B780B
:1037F000002B0AD11C4B1B6898471A4B1870F8BD58
:10380000FB1A1A4A94466344DEE73000FFF71AFFBA
:103810000028F4D00F4B1B78002BF0D0104B1B78F6
:10382000002BECD0094B1F6000230A4A13700C4A8E
:1038300013700C4A1370FFF7F1FE0D4B1B68290043
:1038400020009847DBE7C04600001150F03600200A
:10385000EC2D0020EA410020F42D00208C410020B6
:10386000F7410020DE410020F82D0020FF07000076
:10387000F02D0020084B1B785BB2022B07D0062BE3
:1038800007D0012B01D0054870470548FCE70548E3
:10389000FAE70548F8E7C046781600207053011093
:1038A00058490110344A01100C5D0110084B1B7877
:1038B0005BB2022B07D0062B07D0012B01D00548A5
:1038C00070470548FCE70548FAE70548F8E7C046B1
:1038D000781600203053011028490110084A0110C1
:1038E000E05C01100020704710B5134B1B785BB2F1
:1038F000022B13D0062B18D0002B05D00B78002BF1
:103900000FD1FFF777FE0CE00B78302B03D0212B83
:1039100001D0812B05D1FFF76DFE02E00B78212B42
:1039200000D010BDFFF766FEFBE70B78012BF8D146
:10393000FFF760FEF5E7C0467816002070B51D0061
:1039400004AB1E883F4B00241C57012C40D0022C96
:1039500012D0002C00D070BD0029FCD1002AFAD171
:103960002878102804D03200290001F005F8F2E789
:10397000A81C01F0C7FFEEE70029ECD1002AEAD12C
:103980002B78112B05D0132BE5D12F480CF044FFD9
:10399000E1E76B78002B19D02C4B2D4801250570E1
:1039A0001904090CC1831A0C028400224283294C99
:1039B000848329490D701A04120CCA831B0C0B84D2
:1039C00000234B838C83FDF731FBC4E70023E4E73E
:1039D0000029C0D1002ABED12B78002BBBD16B7837
:1039E000082BB8D1E878002827D00CF000FB1B4941
:1039F0000CF093FA041C2879002820D00CF0F7FA78
:103A000016490CF08AFA031C11480125057021049F
:103A1000090CC183220C0284002242830D4C848352
:103A20000D490D701A04120CCA831B0C0B84002361
:103A30004B838C83FDF7FAFA8DE70024DBE7002344
:103A4000E2E7C046781600208C4801106666263FE3
:103A50007C3D002020420000483E002000007F43C3
:103A6000064B1B785BB2022B03D0062B03D1044814
:103A700070470448FCE70448FAE7C046781600207F
:103A8000205D01109C4901108453011070B5EE288F
:103A900024D0002825D080001E4BC558280010F0E7
:103AA000CDFBC0B21F2800D91F20002327E05A1CDD
:103AB000194CA15C0902E25C0A43440017496252B6
:103AC00002330130112BF2D9154A144B13CB13C218
:103AD00011001A680A609B888B8019E0002000237F
:103AE000F0E70C4B196802220E480CF045FD01204E
:103AF00007E05A1CEC5C5100094BCC52D3B29842FF
:103B0000F7D801304000C0239B001843044B1880B5
:103B1000034870BD9C150020D0480110A42000204F
:103B2000D0270020D227002000B591B0402269465E
:103B300000200FF0DFFD00200FF0F2FD064B1B7898
:103B40005BB2002B01D011B000BD04480CF034FE74
:103B5000684606F085FBF6E778160020A4480110B9
:103B6000F0B583B005001400012966D113785B0617
:103B70009B0F012B58D0022B03D0002B01D000202B
:103B80005CE06378022B24D0072B03D0012B19D0E3
:103B9000002053E0227963791B021343042B03D0E6
:103BA000052B08D0002049E02433264A21002800B4
:103BB0000EF0AAFF42E08D33234A210028000EF0C8
:103BC000A3FF3BE02823214A210028000EF09CFFA0
:103BD00034E0227963791B021343072B30D11C4B4D
:103BE0001B785BB2022B0FD06B469F1D194E022231
:103BF000310038000CF0C0FC3B883200083A21004C
:103C000028000EF081FF19E06B469F1D124E022224
:103C1000310038000CF0B0FC3B883200083A21003B
:103C200028000EF071FF09E051780C480CF0F4FD0B
:103C3000210028000EF04CFF00E0012003B0F0BD91
:103C40000020FBE750160020BC150020E4480110BE
:103C5000781600201C470110F4470110BC480110E1
:103C6000012815D0022907D000290BD1022A29D01A
:103C7000002A29D006207047022A1FD0002A1FD010
:103C80000800F8E7022A21D0002A21D00820F2E714
:103C9000022907D000290BD1022A1FD0002A1FD0E9
:103CA0000720E8E7022A15D0002A15D00320E2E712
:103CB000022AE0D0002A15D00020DCE70120DAE754
:103CC0000320D8E70720D6E70520D4E70020D2E775
:103CD0000420D0E71000CEE70420CCE70820CAE794
:103CE0000620C8E70520C6E70120704710B58422EA
:103CF000002102480CF03AFC10BDC0461C320020E6
:103D000010B50020FFF7F2FF10BD0000F0B5C64669
:103D100000B580460D008B795D2B24D10B79DF0037
:103D2000FF1ABFB21937BFB2974221D80C780C19CD
:103D3000002605E0104A53700136F6B22378E418E5
:103D40002B79B34210D96378052BF7D12100404677
:103D50000EF0E4FA00280DD0A378DA09012AE9D0A0
:103D6000054A9370E8E70027380080BCB846F0BDEC
:103D70000027F9E70027F7E71C32002030B583B0B1
:103D8000040014484078884206D0124A92788A4249
:103D90000CD0012003B030BD0F4A002A18D09AB2CF
:103DA0000E490020FFF7A0FD0120F3E70C4D9BB268
:103DB00000932B00002200210020FFF7BFFD2B0005
:103DC000443B997840232A0020000EF01BFBE1E7DA
:103DD0000120DFE71C320020E938001020320020EB
:103DE0006032002010B50EF0FDF9002803D1002349
:103DF000002B08D110BD0EF0FDF9002801D10123E0
:103E0000F6E70023F4E70B4B997800200EF036FB21
:103E10000028EFD1074CA1780EF0CCFA22004432F2
:103E2000A178402300200EF0EDFAA17800200EF0DA
:103E3000D5FADFE71C32002070B505000C000EF04B
:103E4000D9F9002806D1812100200EF0B3FA00280C
:103E500003D170BD0EF0D6F9F5E7231C402C00D934
:103E600040239CB2094E2200290030000CF084FB54
:103E7000351F69782300320000200EF0C3FA6978FC
:103E800000200EF0ABFAFFF7ADFFE2E72032002092
:103E900010B5104B5C780EF0A5F9002806D1002370
:103EA000002B13D0002C09D1002010E00EF0A2F955
:103EB000002801D10123F3E70023F1E721000020CE
:103EC0000EF0DCFA002803D1013000E0002010BD24
:103ED0000020FCE71C32002010B53C2200210248E3
:103EE0000CF044FB10BDC0466C28002010B500202B
:103EF000FFF7F2FF10BD0000F0B583B006000F0021
:103F00001500FEF7E5F902284CD13B79DC00E41AF4
:103F1000A4B21234A4B2AC4248D80023002B09D07A
:103F20000025002D44D0397879184B78212B11D0F9
:103F3000002438E01A01D21A92001F4882185278E1
:103F4000002A02D00133DBB2E8E71A01D11A890056
:103F50004518E6E7A9630B78C9183A796B1C0193F9
:103F6000AB1C0093032330000EF0F2F9002821D09F
:103F7000BB79012B13D001232B71BB782B70AA6B5B
:103F8000D179137A1B020B43EB80A97800290AD060
:103F90002A003032062330000EF034FA03E0FB79B9
:103FA000EB70E8E70024200003B0F0BD0024FAE73E
:103FB0000024F8E70024F6E76C28002070B582B0F2
:103FC00005001D4C002000280AD0002830D162785E
:103FD0008A4213D0A2788A421AD0012002B070BD62
:103FE0000401241AA400144A1419A2788A42ECD0BD
:103FF00062788A42E9D00130C0B2E4E70F4A002A71
:1040000018D0210008319AB2FFF76EFC0120E5E7D5
:10401000260030369BB20093330000220021FFF7C8
:104020008DFCA1780623320028000EF0EBF9D5E7CD
:104030000020D3E70120D1E76C280020E9380010E8
:10404000F0B5C64600B582B00600150012781F23F1
:104050001340012B00D01FE128790024002C0DD043
:10406000FF24002C00D01CE1270060231800104022
:10407000134239D101290BD001200EE123011B1B72
:104080009B008E4FDB5D9842EBD00134E4B2E5E754
:10409000EA786B78062B06D0062B00D005E1222AA1
:1040A00012D00020F9E0212AF6D123011F1BBF0006
:1040B000824BDF19BA6B002A00D1F4E01378290093
:1040C00030000EF021FDE8E02000FFF7C9FC0200FF
:1040D0003B01DF1BBF00794BDF19FB882900300053
:1040E0000EF012FD0120D8E0202800D0DFE06B7830
:1040F0000B2B00D9DDE09B00714AD3589F46012964
:1041000001D00120C9E0EA78A97823011B1B9B009C
:1041100008336A4FFF18A879EB791B020343181C78
:10412000252B00D9252080B2002909D0012B16D9D2
:104130007B1C9C463970013880B20123984602E00E
:10414000BC4600239846009063462000FFF7CAFB58
:10415000030043449BB2002B05D100209DE0BC46E8
:1041600000239846EFE73A00290030000EF0CCFC1F
:10417000012092E0012903D0032915D001208CE011
:10418000AA79EB791B021343062B01D9002084E0A6
:104190002201121B9200303248498A18290030004F
:1041A0000EF0B2FC012078E0EA78A97823011B1B0D
:1041B0009B0030334148C318AE79E87900023043A0
:1041C000051C062800D90625ADB2002904D0012817
:1041D00002D91878884205D000952000FFF7AEFB81
:1041E00001205AE00133013DADB2F5E7012901D0CC
:1041F000012052E0E97823011F1BBF002F4BDF197C
:104200007971304B002B04D0200000E000BF002863
:1042100043D0290030000EF05BFC01203DE0012975
:1042200001D0012039E02201171BBF00234AD21917
:1042300005320123290030000EF066FC01202CE03D
:10424000012901D0012028E02201171BBF001B4AD1
:10425000D21904320123290030000EF055FC012050
:104260001BE0012903D0032907D0012015E0290014
:1042700030000EF02DFC01200FE0A97823011F1B58
:10428000BF000E4BDF1939710F4B002B13D02000EC
:1042900000E000BF012000E0002002B080BCB84672
:1042A000F0BD0020F9E70020F7E70020F5E7002047
:1042B000F3E70020F1E70120EFE7C0466C2800207B
:1042C0006C490110000000000000000010B503015F
:1042D000181A8000104B181844780DF083FF00283E
:1042E00006D10023002B13D0002C09D1002010E0B0
:1042F0000DF080FF002801D10123F3E70023F1E74F
:10430000210000200EF0BAF8002803D1013000E0AF
:10431000002010BD0020FCE76C28002010B5002014
:10432000FFF7D4FF10BD0000F8B504000F00160021
:104330001D0003011B1A9B001F4AD3185978002047
:104340000EF038F8002825D0002F24D02B1C242D67
:1043500000D924239DB2184A2301191B8900511842
:104360000F721B1B9B000833D01801302A0031004C
:104370000CF002F90135ADB20F4B2001021B920087
:1043800008329A18001B8000181841782B00002072
:104390000EF038F8F8BD2B1C252D00D925239DB231
:1043A0002001001B80000830034B18182A00310040
:1043B0000CF0E2F8E0E7C0466C28002010B51300CE
:1043C0000A0001000020FFF7AFFF10BD10700312BC
:1043D0000F20184050700B01184350700911917054
:1043E0007047000070B5124D802424012A0021007E
:1043F0002000FFF7EBFFEA1C21002000FFF7E6FF9B
:10440000AA1D21002000FFF7E1FF2A000932210048
:104410002000FFF7DBFF2A000C3221002000FFF70D
:10442000D5FF2A000F3221002000FFF7CFFF70BD1B
:104430006041002010B54022002102480CF096F89F
:1044400010BDC0462C2D0020014B18707047C0468F
:10445000D7410020014B18737047C0462C2D002017
:10446000014B58737047C0462C2D002070B5FDF7E6
:10447000F9F904000E4D2B68C01AC317C018584034
:104480000AF0F6FB2C6000220A4B0AF062FB0AF0ED
:104490002BFC094B00215A5E1C7808490C708018CF
:1044A00082B200B21880FF2801DDFF3A1A8070BD89
:1044B000303C002000408F40A04100202C2D0020E7
:1044C000024B1A78024B5A707047C046B84B011025
:1044D0002C2D0020064B04229A732F32DA73303AC7
:1044E0001A74013A5A74012119765A767047C046F7
:1044F0002C2D002010B5C4B2000A002307E01900DB
:104500000E31044A5454013150540233DBB20D2BA6
:10451000F5D910BD2C2D00200A4B01221A70002263
:104520005A7003329A70084A117AD970D179197188
:1045300091795971517999711179D971D2781A7229
:104540007047C0462C2D00208819002010B50400AB
:10455000FFF770FF8120FFF777FF012C09D0064B92
:104560001C70064B19784023034A00200EF05CFEB5
:1045700010BDFFF7D1FFF4E72C2D0020D74100201C
:1045800070B586B06C462A4B0433220070CB70C2E3
:1045900070CB70C2022837D0032841D000230025F9
:1045A00000E00133052B10D8224AD2187D32FF32A9
:1045B00014780522D21A885C8442F2D01D4AD2189F
:1045C0007D32FF3210700125EBE7002D19D18120DB
:1045D000FFF740FF184801238373164B1A7AC27302
:1045E000DA7902749A7942745A7982741A79C274A7
:1045F000DB7803751530182269460BF0BDFF06B055
:1046000070BDFDF77FFDE2E78120FFF723FF0A4839
:10461000022383730F30102208490BF0ADFFEEE741
:104620008120FFF717FF044B03229A73E7E7C04688
:10463000B84B0110881900202C2D0020AC2D002033
:1046400070B504000E001500FFF7F4FE2120FFF7FF
:10465000FBFEFFF70BFFFFF733FF2000FFF700FF24
:10466000482C67D8A4003E4B1B599F468020FFF77B
:10467000F1FE00236AE0F07A431E9841C0B201F0D7
:1046800041FEF27A374B1A708020FFF7E3FEF0E725
:1046900031000C31F07AFFF773FFEAE78020FFF773
:1046A000D9FEF27A304B1A70E3E78220FFF7D2FE90
:1046B000FFF710FFDDE78020FFF7CCFED9E7902061
:1046C000FFF7C8FEF27BF17A307B00F037FAD0E7D3
:1046D000FEF742FDCDE78020FFF7BCFEC9E783204F
:1046E000FFF7B8FE6420FFF705FFC2E78020FFF761
:1046F000B1FEBEE78020FFF7ADFEF27A0F23134034
:10470000033BDAB20C2A03D89300184AD3589F46C9
:104710000120FEF733F9ACE70320FAE70420F8E7BD
:104720000520F6E70620F4E70720F2E70820F0E787
:104730000220EEE70023AB4202D201339BB2FAE73C
:104740008020FFF787FE94E70133DBB21F2BFBD9F4
:104750004023074A212100200EF066FD70BDC046AF
:10476000604A0110D84100207C160020844B0110C3
:104770002C2D002070B50C00150010280DD08028BD
:104780000FD0012800D070BD881C01F0BBF8A07AC2
:104790002A002100FFF754FFF5E7881C01F0B2F86A
:1047A000F1E74878FFF7D2FEEDE70000094B1B78F0
:1047B0000A2B07D00B2B09D0064B0A221A70054B87
:1047C00018787047034B0B221A70F8E7014B0C2244
:1047D0001A70F4E77D16002070B504005D4B1B785D
:1047E000002B04D15C4B1B78302B0BD070BD5B4B86
:1047F0001A885B4B18785B49FFF7BCFF554B0022CA
:104800001A70F3E7FFF716FE3020FFF71DFEFFF7E3
:104810002DFEFFF755FE544B1B78012B2DD0022B9C
:1048200000D18AE02378514DAB706378EB70A378A8
:104830002B71E3786B7123790F210B40AB71607999
:10484000A3791B0203431B11EB71E3792B72237ACB
:1048500019406972617AA37A1B020B431B11AB7278
:10486000FFF7A4FFE872424B197840232A0000208A
:104870000EF0DAFC03F0E4F9B8E701F0E7FB837827
:104880003A4D2B73C3786B730378AB734378EB7338
:1048900003792B7443796B74037AAB74437AEB74AA
:1048A00083792B75C3796B75837AAB75C37AEB7596
:1048B00001F0CCFB83782B76C3786B760378AB76EC
:1048C0004378EB7603792B7743796B77037AAB7771
:1048D000437AEB7782792023EA54C2790133EA5490
:1048E000827A0133EA54C27A0133EA5401F0AEFB12
:1048F00082782423EA54C2780133EA5402780133DF
:10490000EA5442780133EA5402790133EA54427995
:104910000133EA54027A0133EA54427A0133EA5409
:1049200082790133EA54C2790133EA54827A01333D
:10493000EA54C27A0133EA5474E70E4D280001F0BC
:1049400005F80A4B0C3307CD07C307CD07C307CDC6
:1049500007C367E7D94100207C1600207A160020A3
:10496000DA4100206C2D0020D84100202C2D0020A1
:10497000D7410020643C002010B5054B01241C7079
:10498000044B1870044B1A8004480BF0F5FD10BD61
:10499000D9410020DA4100207A1600206C2D002039
:1049A00010B5024B18180BF0E7FD10BD2C2D0020A0
:1049B000502800D1B0E003D960282FD0FF2010E0AC
:1049C000402800D9AAE0202805D34B2924D88B0001
:1049D000564AD3589F46002803D0102800D09FE0A5
:1049E000002070479520FCE70020FAE72A39504B59
:1049F00059187D31FF310878F3E704394C4B5918C9
:104A00007D31FF310878ECE70020EAE70020E8E795
:104A10006820E6E70020E4E70020E2E7A92979D84A
:104A20008B00444AD3589F46FF20DAE70220D8E79C
:104A30000120D6E72320D4E70020D2E7B920D0E731
:104A40001A20CEE70120CCE70020CAE74020C8E7C3
:104A50000020C6E74020C4E70020C2E74020C0E7AE
:104A60000120BEE70020BCE70120BAE70020B8E73C
:104A70000120B6E70020B4E73B20B2E73420B0E7DE
:104A80003B20AEE73420ACE73B20AAE73420A8E780
:104A90003D39294B585CA4E73D39274B585CA0E7CA
:104AA0001A209EE71A209CE71A209AE75E2098E7D2
:104AB000012096E7502094E7FD2092E7002090E740
:104AC00000208EE7C6208CE70F208AE70F2088E7BA
:104AD000302086E7612084E7AE2082E7902080E7DF
:104AE000D9207EE7D4207CE714207AE7542078E7A9
:104AF000412076E7152074E7542072E7C72070E75D
:104B000079206EE79C206CE733206AE7362068E75F
:104B1000632066E7002064E7002062E7FF2060E78B
:104B2000FF205EE722205CE703205AE7D44B011008
:104B300088190020044D011060410020F0B58BB0B1
:104B400006000F00150008A90F70487000248C7033
:104B5000CC700A7105220E20FFF722FF00941A2262
:104B6000002101A80BF002FD07E03919C9B230009D
:104B7000FFF71EFF6B4618550134A542F5DC2A00ED
:104B800069461320FFF70CFF0BB0F0BD70B5002491
:104B900006E0281C0BF0ACFBA3000F4AD0500134F8
:104BA000A0235B009C4215D220000BF020FAF421D8
:104BB00089050BF0C8F98221C9050BF0A4F9051C81
:104BC00006490BF007FA0028E3D1A300024A0021AE
:104BD0009950E4E770BDC046A41B00200000FEC051
:104BE00010B5002405E0A3001B4AC1210906995015
:104BF00001347F2C2FD8002CF5D00F2C0FD91F2C6F
:104C00001BD920000BF0F3F9F42189050BF09BF977
:104C100012490BF078F9A3000F4AD050E8E72000C2
:104C20000BF0E5F9FA2189050BF08DF90C490BF031
:104C30006AF9A300084AD050DAE720000BF0D7F950
:104C4000F62189050BF07FF906490BF05CF9A3000A
:104C5000014AD050CCE710BDB820002000007E40B3
:104C60000000F84000009E4010B500240EE0200037
:104C70000BF0BDF9F42189050BF065F98021C90518
:104C80000BF041F9A300034AD05001347F2CEED938
:104C900010BDC046B822002010B58221C9050BF016
:104CA00037F98421C9050BF04EF90BF0F9F910BD65
:104CB00010B51C1C022818D0032805D0002801D0EC
:104CC000201C10BD141CFBE7101C0BF021F9041C68
:104CD00002990BF071F9002809D10399201C0BF0FF
:104CE00081F90028ECD0039CEAE70C1CE8E7029C61
:104CF000E6E710B5FFF74AFFFFF772FFFFF7B4FFD3
:104D000010BD000070B505000C0000786B781B0228
:104D10000343AA7812041343E87800061843FFF708
:104D2000BBFF284E8000805927490BF00CF92070FA
:104D3000030A6370030CA370000EE070287A6B7A8C
:104D40001B020343AA7A12041343E87A00061843AD
:104D5000FFF7A2FF800080591C490BF0F4F8207285
:104D6000030A6372030CA372000EE07228796B7958
:104D70001B020343AA7912041343E879000618437F
:104D8000FFF78AFF8000335823711A0A62711A0CE8
:104D9000A2711B0EE371287B6B7B1B020343AA7B72
:104DA00012041343E87B00061843FFF775FF8000E9
:104DB000335823731A0A62731A0CA2731B0EE3731F
:104DC00070BDC046A41B00200000A043000020438B
:104DD000F0B5DE4657464E464546E0B589B005007B
:104DE0000C00C678B3091E000B700C22002105A828
:104DF0000BF0BCFB0C22002102A80BF0B7FB002E2D
:104E00000CD1012E00D99FE0022E00D932E109B069
:104E1000F0BCBB46B246A946A046F0BDAA7812092E
:104E2000EB780121194009010A43DD4B98465300F4
:104E30009B189B00434405AA83CB83C200239B4657
:104E4000A278E3781B021343217909040B436279AA
:104E500012061A436B46587D8023DB050193C0215F
:104E6000090600915B460799FFF722FFA21CA0707C
:104E7000030A9146E370030C2371000E6071C12296
:104E800012069246A279E3791B021343217A0904A0
:104E90000B43627A12061A4306996B46187D5F46E9
:104EA0000197574600975346FFF702FFA071020A89
:104EB000E271020C2272000E6072EA789206D20E43
:104EC00053009B189B00434402AA83CB83C2A27A5F
:104ED000E37A1B021343217B09040B43627B120616
:104EE0001A436B46587A8023DB050193C0210906DB
:104EF00000915B460499FFF7DBFEA072020AE272A2
:104F0000020C2273000E6073A27BE37B1B0213432F
:104F1000217C09040B43627C12061A4303996B46F9
:104F2000187A5B46019353460093FFF7C1FEA073C6
:104F3000020AE273020C2274000E60742100123126
:104F40004846FFF7DFFE5CE76B785B06DA0E944BB2
:104F5000984653009B189B00434405AA83CB83C209
:104F600000239B46A278E3781B02134321790904AE
:104F70000B43627912061A436B46587D8023DB058A
:104F80000193C021090600915B460799FFF790FE47
:104F9000A21CA070030A9146E370030C2371000E5B
:104FA0006071C12212069246A279E3791B02134373
:104FB000217A09040B43627A12061A4306996B465A
:104FC000187D5F460197574600975346FFF770FEDE
:104FD000A071020AE271020C2272000E60726A78FD
:104FE000D209A9780F230B405B0013435A00D31852
:104FF0009B00434402AA83CB83C2A27AE37A1B02BA
:105000001343217B09040B43627B12061A436B4650
:10501000587A8023DB050193C021090600915B4685
:105020000499FFF745FEA072020AE272020C227395
:10503000000E6073A27BE37B1B021343217C0904F7
:105040000B43627C12061A4303996B46187A5B463F
:10505000019353460093FFF72BFEA073020AE273FD
:10506000020C2274000E6074210022314846FFF7C2
:1050700049FEC9E62A78D206D10E05AF930E5B1819
:105080009B00474A944663443A0043CB43C2002303
:105090009A46A278E3781B021343217909040B4353
:1050A000627912061A4378788023DB059B460193C8
:1050B000C0231B06009353460799FFF7F9FDA21C76
:1050C0009046A070030AE370030C2371000E607118
:1050D000C12212069146A279E3791B021343217A79
:1050E00009040B43627A12061A4306993878574628
:1050F00001974F4600974B46FFF7DAFDA071020A71
:10510000E271020C2272000E60722A7852096978EC
:1051100003230B40DB00134302AD5A00D3189B005E
:105120001F4AD6182A0083CE83C2A27AE37A1B02D2
:105130001343217B09040B43627B12061A436878F0
:1051400059460191C0231B06009353460499FFF76B
:10515000AFFDA072020AE272020C2273000E6073AD
:10516000A27BE37B1B021343217C09040B43627C7B
:1051700012061A4303992878534601934B4600932D
:10518000FFF796FDA073020AE273020C2274000E70
:105190006074210032314046FFF7B4FD37E6C04667
:1051A000AC4F011070B50200C3789B090B700478F6
:1051B000A4084078012303409B0123431A4D9B0020
:1051C000881CEB588B701C0A44701C0C84701B0EDE
:1051D000C37093785B06DB0DEB588B721D0ACD72A2
:1051E0001D0C0D731B0E4B7353785B080F4C9B000B
:1051F000E3588B711E0ACE711E0C0E721B0E4B7281
:105200009578ED09D2783F2313405B002B439B0038
:10521000E3588B731C0ACC731C0C0C741B0E4B7460
:105220001231FFF76FFD70BDB8220020B8200020BA
:10523000F0B5DE4657464E464546E0B589B0050016
:105240000C000C22002105A80BF090F90C22002183
:1052500002A80BF08BF9EE78B3091E1E23706ED0F6
:105260002B78DB0700D473E02B785B089B00B649F2
:10527000CB58A370190AE170190C21711B0E6371D0
:10528000A978C909EA783F2313405B000B439B00D0
:10529000AE49CB58A371190AE171190C21721B0E8A
:1052A0006372AA785206D20E02AB994653009A183E
:1052B0009200A74B9B184A4683CB83C20023984693
:1052C000A27AE37A1B021343217B09040B43627B1E
:1052D00012061A434B4658788023DB050193C023FE
:1052E0001B060093434649468968FFF7E1FCA0721C
:1052F000020AE272020C2273000E6073C1231B06C5
:10530000A27BE17B09021143207C00040143627C03
:1053100012060A43494649684846007847460197BD
:105320000093FFF7C5FCA073020AE273020C22741B
:10533000000E6074A01C21001231FFF7E3FC012E67
:105340006DD809B0F0BCBB46B246A946A046F0BD38
:105350002B785B089B007C4AD358A372190AE17230
:10536000190C21731B0E6373A978C909EA783F23CE
:1053700013405B000B439B00744AD358A373190A74
:10538000E173190C21741B0E6374AA785206D20EB5
:1053900005AB994653009A1892006D4B9B184A46EC
:1053A00083CB83C200239846A278E3781B02134381
:1053B000217909040B43627912061A434B46587847
:1053C0008023DB050193C0231B0600934346494617
:1053D0008968FFF76DFCA070020AE270020C22716E
:1053E000000E6071C1231B06A279E1790902114305
:1053F000207A00040143627A12060A43494649684A
:1054000048460078474601970093FFF751FCA0718A
:10541000020AE271020C2272000E60728AE76A7858
:10542000D206D10E05AF930E5B189B00484A9446F6
:1054300063443A0043CB43C200239A46A278E37800
:105440001B021343217909040B43627912061A43A4
:1054500078788023DB059B460193C0231B060093CD
:1054600053460799FFF724FCA21C9046A070030A3C
:10547000E370030C2371000E6071C1221206914685
:10548000A279E3791B021343217A09040B43627A60
:1054900012061A4306993878574601974F460097E7
:1054A0004B46FFF705FCA071020AE271020C227262
:1054B000000E60726A785209A97803230B40DB0062
:1054C000134302AD5A00D3189B00214AD6182A0074
:1054D00083CE83C2A27AE37A1B021343217B0904A1
:1054E0000B43627B12061A43687859460191C02328
:1054F0001B06009353460499FFF7DAFBA072020AD9
:10550000E272020C2273000E6073A27BE37B1B022B
:105510001343217C09040B43627C12061A4303994E
:105520002878534601934B460093FFF7C1FBA073C5
:10553000020AE273020C2274000E60742100223110
:105540004046FFF7DFFBFCE6B8220020B820002031
:10555000AC4F0110F0B5DE4657464E464546E0B525
:1055600089B005000C000C22002105A80AF0FEFFFE
:105570000C22002102A80AF0F9FFEE78B3091E1EE2
:1055800023701AD02B78DA0735D55B0721D5A97897
:10559000C909EA783F2313405B000B439B00BC49D9
:1055A000CB58A370190AE170190C21711B0E63719D
:1055B000A01C21001231FFF7A5FB012E41D8022EBD
:1055C00000D9D4E009B0F0BCBB46B246A946A0461B
:1055D000F0BDA978C909EA783F2313405B000B436B
:1055E0009B00AC49CB58A371190AE171190C2172C7
:1055F0001B0E6372DCE75B0711D5A978C909EA784D
:105600003F2313405B000B439B00A14AD358A37276
:10561000190AE172190C21731B0E6373C8E7A9788C
:10562000C909EA783F2313405B000B439B00994A6A
:10563000D358A373190AE173190C21741B0E6374F8
:10564000B6E76A785209AB7803211940C9000A43CA
:10565000914B984653009B189B00434405AA83CB6B
:1056600083C200239B46A278E3781B02134321796F
:1056700009040B43627912061A436B46587D802356
:10568000DB050193C021090600915B460799FFF7EE
:105690000FFBA21CA070030A9146E370030C237158
:1056A000000E6071C12212069246A279E3791B02B4
:1056B0001343217A09040B43627A12061A430699AE
:1056C0006B46187D5F460197574600975346FFF794
:1056D000EFFAA071020AE271020C2272000E6072EF
:1056E000AA785206D20E53009B189B00434402AA8C
:1056F00083CB83C2A27AE37A1B021343217B090482
:105700000B43627B12061A436B46587A8023DB05F3
:105710000193C021090600915B460499FFF7C8FA7E
:10572000A072020AE272020C2273000E6073A27B66
:10573000E37B1B021343217C09040B43627C1206AA
:105740001A4303996B46187A5B46019353460093BC
:10575000FFF7AEFAA073020AE273020C2274000E85
:105760006074210022314846FFF7CCFA27E72A78F7
:10577000D20805AF53009B189B00474A94466344E8
:105780003A0043CB43C200239A46A278E3781B0237
:105790001343217909040B43627912061A4378787E
:1057A0008023DB059B460193C0231B0600935346D1
:1057B0000799FFF77DFAA21C9046A070030AE370D8
:1057C000030C2371000E6071C12212069146A2796A
:1057D000E3791B021343217A09040B43627A120610
:1057E0001A4306993878574601974F4600974B461B
:1057F000FFF75EFAA071020AE271020C2272000E3B
:1058000060726B78DB06DA0E02AD9B0E9B189B0074
:10581000214A944663442A0043CB43C2A27AE37AE6
:105820001B021343217B09040B43627B12061A43BC
:10583000687859460191C0231B060093534604998A
:10584000FFF736FAA072020AE272020C2273000E0F
:105850006073A27BE37B1B021343217C09040B438F
:10586000627C12061A4303992878534601934B46EB
:105870000097FFF71DFAA073020AE273020C22746C
:10588000000E6074210032314046FFF73BFA99E682
:10589000B8220020B8200020AC4F011010B5C3780A
:1058A0009B09022B1FD0032B29D0012B00D010BD48
:1058B000047842781202144383781B042343C4788B
:1058C0003F22224012061A431B0306D0930707D03B
:1058D0009307ECD5FFF73EFEE9E7FFF779FAE6E735
:1058E000FFF760FCE3E7047843781B0223439B0542
:1058F00002D1FFF76DFADAE7FFF79AFCD7E7FFF777
:1059000067FAD4E770B504000D4B1B78002B0CD060
:105910000C4D29002000FFF7C1FF201D0A49FFF7A9
:10592000BDFF2B78002B06D170BDFFF7E2F9044BC9
:1059300001221A70ECE704490248FBF777FBF3E712
:10594000B9410020143B0020583B0020F0B5DE4652
:1059500057464E464546E0B585B00400837903229C
:1059600093430222134383710125002601E0013590
:10597000EDB2032D0CD8724BAA00D058B200D1580A
:10598000490049080AF02EFB0028F0D02E00EEE76F
:10599000032333409A00A3790C218B431343A37153
:1059A000002509E0674940460AF0CDFAAF000AF049
:1059B00045FB01ABD8510135022D15DC72190132BE
:1059C000032313405E4F9B00D8599D21C9050AF05F
:1059D000BAFA8046B300D85900210AF0EDFA00283F
:1059E000E0D1FE218905DEE7019B9B12DB02D90A8B
:1059F0000F2211400901A07902400A43A271D90B7C
:105A0000E171D90D2172DB0F012601210B40607A73
:105A1000B04303436372029B9D127F208246054080
:105A20006F00657A0D403D4365725B149B049B0CCF
:105A3000A3721B0A3F273B40E57A403885432B433E
:105A4000E372039B9A12944603250322604610409A
:105A500080018446E07A074060460743E7721B13E3
:105A60005B035F0BA774580DE0745B0F0720804643
:105A700003409B46207D84460720814660464B4676
:105A800098430300584618432075C3B2404603406C
:105A9000237500236375A375E37D18308343E37595
:105AA000E77D1F233B40E3750023A3772700E37FB7
:105AB000AB43E377DBB21340E3771E37BB78B343E6
:105AC000BB701F36A35D0B40A35521239C46E35CAE
:105AD0005F36B34360462354194E33691940C901F8
