:020000041000EA
:1000000000B5324B212058609868022188439860DF
:10001000D860186158612E4B002199600221596106
:100020000121F02299502B49196001219960352056
:1000300000F044F80222904214D00621196600F024
:1000400034F8196E01211966002018661A6600F04E
:100050002CF8196E196E196E052000F02FF8012189
:100060000842F9D1002199601B49196000215960AB
:100070001A491B48016001219960EB211966A021F2
:10008000196600F012F800219960164914480160C1
:100090000121996001BC002800D000471248134993
:1000A000086003C880F30888084703B5996A0420EC
:1000B0000142FBD001200142F8D103BD02B5186610
:1000C0001866FFF7F2FF186E186E02BD00000240BE
:1000D000000000180000070000035F00212200005C
:1000E000F4000018222000A00001001008ED00E03C
:1000F00000000000000000000000000074B24E7A12
:1001000000200420F7010010C3010010C5010010F9
:10011000C1010010C1010010C1010010C101001097
:10012000C1010010C1010010C1010010C701001081
:10013000C1010010C1010010C9010010CB01001065
:10014000CD010010CD010010CD010010CD01001037
:10015000CD010010CD010010CD010010CD01001027
:10016000CD010010CD010010CD010010CD01001017
:10017000CD010010CD010010CD010010CD01001007
:10018000CD010010CD010010CD010010CD010010F7
:10019000CD010010CD010010CD010010CD010010E7
:1001A000CD010010CD010010CD010010CD010010D7
:1001B000CD010010CD010010CD010010CD010010C7
:1001C00000BE00BE00BE00BE00BE00BEEFF3058054
:1001D000103800BEF2EB8871007701102077011013
:1001E0003402001090A31AE700201F49086006C8D7
:1001F00081F3088810471D48006800282FD10DA4FE
:100200000ECC002902D000F012F8F9E71849194A7B
:10021000002000E001C19142FCD1174988471749ED
:1002200088471749884700BEFDE701C901C29A42C5
:10023000FBD3704720770110C000002080170020FA
:10024000E08D01100000042000000420E08D01106A
:10025000001004200010042000000000704709482E
:100260000EF0B4F80047000008ED00E0000000D0F8
:10027000A01700200C3E002055D10010910800105E
:1002800011D100105756000006005250ABB3605316
:10029000386D011006005250861C0302486D011093
:1002A000060052505422A29D5C6D01100500525070
:1002B000DE65F468E08D0110F8B5C04610B5064C57
:1002C0002378002B07D1054B002B02D0044800E017
:1002D00000BF0123237010BDA01A00200000000001
:1002E00040430110044B10B5002B03D003490448D0
:1002F00000E000BF10BDC04600000000A41A0020AE
:100300004043011010B504001F210AF053FF0022E2
:10031000002120000AF066FF002120000AF07CFF87
:1003200010BD10B504000AF08FFF0022012120004B
:100330000AF058FF0123A340D022120653625361F2
:1003400010BD10B504000AF07FFF0022012120003B
:100350000AF048FF0123A340D0221206936210BD89
:1003600070B5040000290CD00AF06EFF0123A340F1
:10037000D022120693620022002120000AF032FFF0
:1003800070BD0AF061FF0125A540D02636067562D2
:100390000022002120000AF025FFB561F0E770B5CA
:1003A00000280FD0D024240680256D0465616420C8
:1003B0000CF092F880239B04636164200CF08CF8AD
:1003C000A56170BDD024240680256D04656164207C
:1003D0000CF082F880239B04A36164200CF07CF86D
:1003E000A561EEE710B5002804D001211A20FFF71F
:1003F000B7FF10BD00211A20FFF7B2FFF9E7000098
:1004000010B50E20FFF78DFF0F20FFF78AFF102099
:10041000FFF787FF1120FFF784FF0D20FFF791FF03
:100420000C20FFF78EFF0B20FFF78BFF0A20FFF752
:1004300088FF1849184811F0DBF8012106200AF05E
:10044000B9FE012107200AF0B5FE012104200AF0BF
:10045000B1FE01200AF0F8FED024240602236362D4
:10046000636109200AF0F0FE80239B0063626361F0
:1004700000200AF0E9FE01236362636102200AF0B2
:10048000E3FE04236362636100F0EEFC1A200AF0CD
:10049000DBFE10BDC0C62D0000C00340F8B5DE462F
:1004A00057464E464546E0B50400D0263606802322
:1004B000DB019946B361052000210BF0E1FF736871
:1004C0005B0B01252B405A42534101273B401B0146
:1004D0002278102188468A431343237073681B0BCC
:1004E0002B405A4253413B405B01227810318A43F2
:1004F000134323707368DB0A2B405A4253413B403D
:100500009B01227820318A431343237073689B0A2E
:100510002B405A425341DB0122783F310A401343BA
:1005200023704B46736180231B029B46B3610520F9
:1005300000210BF0A5FF73685B0B2B405A4253411F
:100540003B402278AA431343237073681B0B2B4054
:100550005A4253413B409B00227804218A43134373
:1005600023707368DB0A2B405A4253413B405B00C7
:1005700022780220814682431343237073689B0ACA
:100580002B405A4253413B40DB00227806308246E2
:100590008243134323705B46736180235B029B4657
:1005A000B361052000210BF06BFF73685B0B2B40E0
:1005B0005A4253413B406278AA43134363707368C5
:1005C0001B0B2B405A4253413B405B00627848462C
:1005D0008243134363707368DB0A2B405A425341D2
:1005E0003B409B00627804218A4313436370736825
:1005F0009B0A2B405A4253413B40DB0062785046F5
:100600008243134363705B46736180239B029B4666
:10061000B361052000210BF033FF73685B0B2B40A7
:100620005A4253413B409B0162784020824313432E
:10063000637073681B0B2B405A4253413B401B01B4
:10064000627840468243134363707368DB0A2B4031
:100650005A425341DB0162786F30024013436370AA
:100660005B46736173685B091D406B425D412F40BF
:10067000FA00A378504683431343A3707F00DBB294
:100680004A4693431F43A7706378DB06DB0F1B01C9
:10069000FAB2404682431343A370204B1A68C0232A
:1006A0009B015340E022D20113401D4A13601D4BB1
:1006B00004211960194B1B68DB05FBD517494A68F3
:1006C0001204130C184AD21A096880235B014B40AC
:1006D000E021C9010B4012490B60124B0421196043
:1006E0000E4B1B68DB05FBD50C4B5B681B04190C20
:1006F0000D4B5B1AE270100A2071100C6071120E23
:10070000A271E371190A2172190C61721B0EA37296
:10071000F0BCBB46B246A946A046F8BD00C00440A6
:1007200000D0044000E00440FF0F0000F0B5D646C2
:100730004F464646C0B584B0040003AF3A4B1A8812
:100740003A80022399460023BB7002AE3280B37018
:1007500001AD2A80AB7069460A808B70D0231B06DE
:1007600098464A469A61314B9A4603233A00D02173
:10077000504613F045FD43464A465A619A610323A9
:100780003200F021504613F03BFD43464A465A6181
:1007900080239B00994643464A469A6103236A4652
:1007A000F021504613F02CFD43464A465A619A61A7
:1007B00003232A00D021504613F022FD43464A4627
:1007C0005A613B785B027A785200E02109010B40C4
:1007D0001343BA78D20913432360327852027378F4
:1007E0005B000A401A43B378DB091A4362602A7837
:1007F00052026B785B000A401A43AB78DB091A435C
:10080000A2606B461B785B026A46527852000B402E
:1008100013436A469278D2091343E36004B0E0BC04
:10082000BA46B146A846F0BD5843011000C0034087
:1008300010B500F0EDF810BD10B504004378DB07EB
:1008400010D463781022110019401A4203D00F4BC4
:100850001B78002B0CD0002903D10C4B1B78002BEC
:100860000DD110BD0022002100200CF015FCE8E79E
:100870000020FFF7B7FD054B01221A70F1E70120B8
:10088000FFF7B0FD014B00221A70EAE7C73D0020D8
:1008900010B584B00FF07CFF64200BF01DFE3748CC
:1008A0000FF03AFFFFF7ACFD10F08AFC1B20FFF7BA
:1008B00029FD1A20FFF726FD1A200AF0C5FCD024D6
:1008C00024068023DB046362A36118200AF0BCFCC9
:1008D00080235B046362A36119200AF0B5FC8023C6
:1008E0009B046362A36105200AF0AEFC2023A3628F
:1008F0000022012105200AF075FC01AC0C22002128
:1009000020000FF0E3FD2000FFF7C8FD1C4B9B8883
:100910006A461380617812220A40122A09D01823ED
:100920000B40182B0CD0684600F0FEFD002004B0F0
:1009300010BD14480DF04AFD03000021080098473F
:10094000163B6A4613700120FFF74CFD0120FFF7AC
:1009500026FD0D480BF0C0FD02E096200BF0BCFD1B
:1009600001AC2000FFF79AFD6378DB07F5D5002284
:10097000002100200CF090FBEFE7C046404301103F
:100980005843011055420000AC0D0000194B1B6884
:10099000194A126893421BDA0A33164A1360154B40
:1009A0001B68002B22D1FF33144A126853401B04EA
:1009B0001B0C134A13600F4B1B68002B18DB1B0426
:1009C000104A126853401B0C1B040F4A13607047F7
:1009D0000A3B084A13600D4A1268934201DC054B3A
:1009E0001A60044B1A68044B1A60D8E70023DBE74F
:1009F0000023E4E7702B00206C2B00205C000540F6
:100A00005C1005402000054020100540782B002098
:100A100010B5FA21044A490102F09CFA002800D1DD
:100A200010BDFFF7B3FFFBE74438002070B5294B3A
:100A30001E68002E4DD00378002B1BD05C1E1B01BE
:100A4000C3189979DA79120211431D7A2D040D43E6
:100A50005B7A1B061D432401001902001832847FB3
:100A6000C07F00022043137A1B041843547A2406E3
:100A7000044301E00024251C211C281C0FF0A8F9C8
:100A8000002800D02C1C0021201C0FF0A1F9002808
:100A900008D0FD218905201C0FF04BF90E490FF0FD
:100AA0002DF9041C0D49201C0FF043F90FF0EEF94D
:100AB00085B20021201C0FF08BF9002801D0AD1960
:100AC000ADB2074B1D60074B1B689D4201DD054B16
:100AD0001D6070BD742B0020CDCC4C3D0000484201
:100AE000782B00206C2B002010B592B04222002100
:100AF00001A80FF0EBFC01236A4613715371153303
:100B00006B4400221A801B4A5A801A216944FE2233
:100B1000920500200880130C4B801E216944088038
:100B2000154848802221694400220A804B8001A98F
:100B30000800FFF77BFF002407E0FFF727FF0CF01A
:100B400059FA08200BF0C8FC01343D2CF5DD1A22BF
:100B50006A4400211180518022226A4400231380BC
:100B6000538001A90800FFF761FFFFF70FFF12B0E4
:100B700010BDC046A043000020430000F0B5CE46A3
:100B8000474680B583B003200AF05EFB08200AF0D8
:100B90005BFBD0231B0608225A62F8325A620421FA
:100BA00003200AF007FB042108200AF003FB334F5F
:100BB00001253D60324B04221A60324AFF265662FC
:100BC0001666314C2268120C1204304989460A60BC
:100BD0001A68910089188A002D498C466244116870
:100BE0008C46FF21090460464140090C090480201D
:100BF0004001024311603A68910089188A00214936
:100C00008846424411682F008F43024317601B68D7
:100C10009A00D218930043441A68954303431D6019
:100C20001C4B1B6873401B041B0C1B4A136023687E
:100C30001B0C1B044A461360962000210BF020FC7D
:100C40006B46DC1D991D200000F0F4FA2378134A4E
:100C500013601A1CCD2B00D9CD22323210490A70F4
:100C6000002B02D10D4A13600B70AF2040000BF037
:100C700033FC03B0C0BCB946B046F0BDFC38002020
:100C80006C32002000000540200005402010054087
:100C90000C0005405C0005405C100540742B0020F2
:100CA000E33D00200902084300B2704770B582B0EE
:100CB000D02424060125A5616B46187159710B4E8D
:100CC000022201A9300013F0F3FA656102200BF053
:100CD00003FC0335A561022201A9300013F0E8FAF4
:100CE000656102200BF0F8FB02B070BD00C003404C
:100CF000F0B5DE4657464E464546E0B585B006009F
:100D00000D0001AC002301930822002102A80FF07E
:100D1000DDFB03236B449B46A2235A461370D0236A
:100D20001B069946012398464B4642469A614D4B15
:100D30009A465946180013F0BBFA0C2322000021F2
:100D4000504613F05DFA4B4642465A61617820786E
:100D5000FFF7A8FF83B2FF273840B0711B0AF37179
:100D6000E178A078FFF79EFF83B2384030721B0A0B
:100D7000737261792079FFF795FF83B23840B072C2
:100D80001B0AF372E179A079FFF78CFF83B2384038
:100D900030701B0A7370617A207AFFF783FF80B28C
:100DA000404283B23840B0701B0AF370E17AA07AF7
:100DB000FFF778FF83B2384030711B0A73714A46DF
:100DC0000423936101225946504613F071FA0C2313
:100DD00022000021504613F013FA4A4604235361BF
:100DE00061782078FFF75EFF83B23840A8711B0A54
:100DF000EB71E178A078FFF755FF83B23840287295
:100E00001B0A6B7261792079FFF74CFF83B238407F
:100E1000A8721B0AEB72E179A079FFF743FF83B256
:100E2000384028701B0A6B70617A207AFFF73AFF0E
:100E300080B2404283B23840A8701B0AEB70E17A5E
:100E4000A07AFFF72FFF83B2384028711B0A6B711D
:100E5000434633732B7305B0F0BCBB46B246A9467C
:100E6000A046F0BD00C0034010B5AE211020FFF732
:100E70001DFF5C211120FFF719FF04211220FFF74D
:100E800015FF04211320FFF711FF00211520FFF7A4
:100E90000DFFE0211720FFF709FF10BDF0B5C64692
:100EA00000B5040013282DD014282FD0122803D009
:100EB000002080BCB846F0BD1327142398462000BC
:100EC0000AF0C2F901263300A340D0252D06AB62FB
:100ED0000022012120000AF085F940460AF0B4F909
:100EE0003300424693406B62AB6138000AF0ACF9C4
:100EF0003300BB406B62AB616B68E3401E4209D0BC
:100F00000120D6E7122714239846D8E71227132387
:100F10009846D4E70020CCE710B51320FFF7BEFFBA
:100F200010BD10B51220FFF7B9FF10BD10B5142089
:100F3000FFF7B4FF10BD10B501211A20FFF710FA1A
:100F4000962080000BF0C8FA09F068FD002800D157
:100F500010BD0120FCE710B501F05AFE10BD0000E5
:100F6000F0B5C64600B584B0142338E001330B2B2E
:100F700005D801AAD25C002AF8D00125F6E718208E
:100F80000BF0AAFA2F4BDB685B07FBD5D0263606A1
:100F90000427B7612B4B984601226B46D91C40466B
:100FA00013F086F90C2301AA0021404613F028F91A
:100FB00077610C283DD10023002100E001330B2B89
:100FC00005D801AAD25C002AF8D00121F6E7002951
:100FD00001D0002D30D118200BF07EFA23005C1ECA
:100FE000002B28D0002301930822002102A80FF033
:100FF0006DFA6B46A222DA70124BDB685B07FBD5F9
:10100000D0252D060126AE610E4F01226B46D91C5C
:10101000380013F04DF90C2301AA0021380013F019
:10102000EFF86E610C2802D1002300259FE7002510
:1010300002E0002500E00025280004B080BCB8468E
:10104000F0BDC04600C0034070B584B003A9484B52
:101050001A880A8000238B7002A90A808B7001A96C
:101060000A808B7069460A808B7032241FE001333E
:10107000022B14D803AAD25C002A00D0012101AAB5
:10108000D25C002A00D0012602AAD25C002A00D03D
:1010900001256A46D25C002AE9D00120E7E7002951
:1010A00005D0002D03D0002E01D0002857D12300F9
:1010B000013C002B50D0D0231B0602229A612D4BFD
:1010C000DB685B07FBD5032303AAD021294813F073
:1010D00097F8032842D1D0231B0602225A619A6155
:1010E000244BDB685B07FBD5032302AAF0212148D0
:1010F00013F086F8032834D1D0231B0602225A614C
:10110000FF32FF329A611B4BDB685B07FBD5032381
:101110006A46F021174813F073F8032823D1D0232F
:101120001B06802292005A619A61124BDB685B07B2
:10113000FBD5032301AAD0210E4813F061F8032840
:1011400013D1D0231B06802292005A610023002075
:101150000026002500218BE7002000E0002004B0DD
:1011600070BD0020FBE70020F9E70020F7E7C0464C
:101170006043011000C0034010B5FFF7B5FC01202B
:1011800010BD0120704770B582B0FFF75DFF01AC64
:10119000012601252840030120781022904318439E
:1011A0002070FFF7D8FEC30122787F20104018433B
:1011B0002070FFF7C0FE2840830120784022904332
:1011C00018432070FFF7B2FE2840830020780422E5
:1011D000904318432070FFF79FFE03002B402078B8
:1011E000B04318432070FFF79CFE2840430020784E
:1011F0000222904318432070FFF7C3FF2840C3002A
:1012000020780822904318432070FFF7A9FE284059
:10121000430120782022904318432070FFF7ACFF51
:1012200005406078B04305436570208802B070BD0A
:1012300070470000044B7A22FF329A5C02707C22D5
:10124000FF329B5C0B707047A01800206420704731
:10125000014B002018567047A0140020F8B5040078
:101260000E001500254A2649280001F073FE071ECE
:101270001DD0244B1A6824498C466244D117521859
:101280004A405B686344D9175B184B40642A0BDC07
:101290000022642B00DD02001C4B1B88002B05D0B4
:1012A0001A4B00221A8002E00200F2E717002278AF
:1012B00063781B021343154A11880B431380114BAB
:1012C00032681A6072685A60114B3A00114928005E
:1012D00001F053FE002807D00F4B1B78002B03D1E1
:1012E0000D4B01221A70F8BD002FFCD00A4B1B7861
:1012F000002BF8D0084B00221A70F4E7A03200202F
:1013000040420F00D038002000F8FFFFB63D00201B
:101310009C38002000A3E111CE3D0020014B18783D
:101320007047C046CE3D002010B5002803D1074BC2
:1013300000221A7010BD0120FFF731F80120FFF7DD
:1013400051F8024B01221A70F4E7C046BC3D002060
:1013500010B50020FFF746F80020FFF720F8002224
:10136000002100200BF098FE10BD000010B50849C8
:10137000084812F085FF002802D1074B186810BDFD
:10138000064B9A6A044B1A60024812F041FFF4E7D8
:101390006C2C0020381700208C3D002000400540B8
:1013A00030B583B00500FFF7E1FF00900190FFF733
:1013B000DDFF0400FFF73CFF6A462900200001F032
:1013C000C9FD0028F3D003B030BD000010B5FFF711
:1013D000CDFF074C206000F019FC206806F0BEFC31
:1013E000206804F0FFFD6420FFF7DAFFEFE7C04656
:1013F0009C32002010B504000A4B1B78002B00D053
:1014000010BD084B01221A700020FEF7C8FF002013
:10141000FEF7E8FF64200BF05FF82100002001F0E8
:1014200027FBEDE7FF3D002010B5054B1B78002B97
:1014300000D010BD024B01221A7001F01BFCF8E72E
:10144000EA3D002010B52F4B1B78002B37D0FFF75B
:101450008DFF2D4B18602D48FFF720F82C4B1B7883
:10146000002B35D105F0D2F8274C2849206806F02A
:1014700021FE206801F094FB08F0B0FC002834D075
:10148000214C2449206805F0DDFB2068224A2349CD
:1014900008F0D0FC224B00221A701B4B1A681F491F
:1014A0001D48FFF7DBFE1F4B1B785BB2012B23D0DF
:1014B000154B1868FFF7BCF90BF09CFD10BDFA2026
:1014C000002180010BF0DCFD0E4B01221A70BEE7FB
:1014D0000E48FFF7B1F90BF08DFD0B4C206801F0C1
:1014E0005FFB206801F098FCE8E7074B18680B4A9F
:1014F000094900F0BDFCD0E7034B186801F08CFCF3
:10150000D6E7C046F53D0020983200200824002090
:10151000BC3D0020D023002014240020F023002014
:10152000CE3D0020A014002070B584B0041E00D170
:10153000FBE001F00AFD0500FEF762FF7C497D48F3
:1015400010F01CFA0321162009F034FE03211720A5
:1015500009F030FE01F082FB03AB02AA01A9764834
:1015600009F0D6FD002803D1734974480BF06EFED4
:10157000039A0299019809F08FFD7148FEF78EFFDA
:1015800000F0A0FB002845D06D4E33006D4A6E4937
:101590006E4806F0F7F906F089FC002001F0E8FB40
:1015A000FA2001F093FBB378DB0611D5684B0022DB
:1015B000BE2149005A547E21FF315A5401315A54F8
:1015C0008021FF315A5401315A548221FF315A543B
:1015D000EBB2012B23D0022B26D0012565576B1CC3
:1015E00029D00022A2565B4B1A70554B1B789A06E5
:1015F00025D45A0637D4DA0637D45AB2002A36DB55
:101600005A0736D40A221A40022A34D01B0717D5AB
:10161000032515E03221504801F018FAB4E74D4B8C
:1016200002221A700025E0E72B041B0F494A1370B1
:101630002D052D0FD9E7464B02255D57D1E706252D
:1016400002F0DCFC424AE2235B00D65C414B1B7893
:101650005BB2013311D06424EBB2062B3FD8AB0050
:101660003E4AD3589F460125EAE70025E8E70225D0
:10167000E6E70525E4E70425E2E701F09DFB002805
:1016800004D1344B02221A704624E5E7314B012283
:101690001A706424E0E73248322101F0D7F92100C2
:1016A000300001F0FBF9FFF769FA2A4B0021595687
:1016B000280000F0EDFB224B9B789B0730D4294A91
:1016C0001F49280004F04AFE0FF06EFA26480FF07A
:1016D00059FAFFF7B7FEFCE7FF200006DCE72348D6
:1016E000DAE7FF200002D7E7002001F0EFFA194BFC
:1016F00000221A70FF2000041924CDE7002001F019
:10170000E5FA144B00221A7019480F24C4E7002090
:1017100001F0DCFA0F4B00221A7016481924BBE7BF
:101720000B4B9D7000F0C8FAC9E704B070BDC0460D
:10173000801A060008170020400D030064430110C2
:1017400008240020D0230020F0230020E0230020E4
:10175000A0180020A01400200000FF4D98430110A5
:1017600000F115FF14240020CD13001000A1A1A149
:1017700000FF61000000FFE6094ABD235B00D35C67
:101780001A1C312B00D83222054BBD2149005A5476
:10179000DA787A39FF398A43DA709B221A727047F5
:1017A000A018002070B505001400724B13800129A9
:1017B00000D070BD0223C3569370D01CE91C0622D2
:1017C0000EF08AFEEB68E3602B6923616B6963614D
:1017D000AB69A36120001C3029001C3120220EF0CF
:1017E0007BFE20003C3029003C3120220EF074FEAC
:1017F00020005C3029005C3120220EF06DFE2000BC
:101800007C3029007C3120220EF066FE20009C30C6
:1018100029009C3106220EF05FFE2000A230290034
:10182000A23106220EF058FE2000A8302900A8316F
:1018300030220EF051FE20002930FF302900D8312F
:1018400010220EF049FE20003930FF302900E83127
:1018500010220EF041FE20004930FF302900F831FF
:1018600010220EF039FE20005930FF3029000931D6
:10187000FF3110220EF030FE20006930FF302900C9
:101880001931FF3110220EF027FE94235B00EA5C31
:101890005033E2542A23FF33EA5C7A23FF33E254C5
:1018A0004F3BEA5C5033E2542C23FF33EA5C7C2349
:1018B000FF33E25420007D30FF3029002D31FF310D
:1018C00006220EF009FE20008530FF302900353158
:1018D000FF3120220EF000FE2000A530FF3029004D
:1018E0005531FF3120220EF0F7FDBA235B00EA5C90
:1018F0005033E2542000C930FF3029007931FF31E4
:1019000018220EF0E9FDC8235B00EA5C5033E25474
:101910004E3BEA5A5033E2524E3BEA5A5033E252BF
:101920004E3BEA5A5033E2524E3BEA5A5033E252AF
:101930004E3BEA5A5204F6204000110C225A9A3BC0
:10194000FF3B1A400A432252CE225200A95A2218C3
:101950005180CF225200AA5A5204F8214900120C99
:10196000605A034013436352D0235B00EB5A641860
:1019700063801EE702A0FFFF064B984204D0064B8F
:10198000984203D1022070470120FCE70120404229
:10199000F9E7C04601A0000002A0000010B51248FF
:1019A0000EF0EAFE002407E0104B5B18D9781048CF
:1019B0000EF0E2FE0134E4B2052C0DD80FF0C8FBA6
:1019C0002100C0B2094A1219D070002CECD11300CA
:1019D00001229043D870E7E7044B9B221A720A2039
:1019E0000EF07CFE10BDC046B4430110A0180020CC
:1019F000C4430110F0B5DE4657464E464546E0B5B5
:101A00006F4CA544FC256D002A00002102A80EF0B1
:101A10005DFD6C4B02AA1380059B0193DB0FDB0776
:101A20008022120113430593069B0193DB0FDB0712
:101A300013430693079B0193DB0FDB0713430793C5
:101A4000089B0193DB0FDB071A4308925E4F0A974E
:101A50005E4E0B965E4C0C945E480D905E490E9166
:101A60005E4A0F925E4B1093129713961494159042
:101A70001691179218935B4B19931A931B931C930F
:101A80001D931E931F9320932193802202A98B50B4
:101A900004328B5004328B5004328B5004328B5002
:101AA00004328B5004328B50FF231B049A46A82328
:101AB0000A005146D1504C4B9B46AC235946D1505D
:101AC0004A4B9946B0234946D150FF231B069846FE
:101AD000B4234146D150FF2636020433D650043396
:101AE000434A02A9CA50434F04330A00CF5004337B
:101AF0005146D15004334146D1500433D6500433BB
:101B00004946D1500433D6503B4BD82202A98B50C2
:101B100004328B5004328B5004328B50E823CF5068
:101B2000B63B7A22FF328B5401328B54173AFF3A7C
:101B3000F121490002A8425202314352023142527D
:101B40008532FF32010083522C4C2A0020000EF017
:101B5000C3FC002004F0C8FB012004F0C5FB0320F7
:101B600004F0C2FB042004F0BFFB052004F0BCFB22
:101B700020009C30062200210EF0A8FC2000A2309C
:101B8000062200210EF0A2FCFFF708FFE4235B0011
:101B90005246E25004335A46E25004334A46E25079
:101BA00004334246E2500433E6500433E7508123C5
:101BB0009B009D44F0BCBB46B246A946A046F0BD82
:101BC000FCFDFFFF02A0FFFF000034420000B44212
:101BD00000000743000034430000614300008743D6
:101BE00000809D43000016440000FF4D0000FFE60A
:101BF00000F115FF00FF610000A1A1A1A0180020C5
:101C0000014B18787047C046023E002070B5204C4A
:101C1000A544204B1B78002B03D180235B019D44FE
:101C200070BD0EF0D9FFEFF3108672B61A4B1B7819
:101C3000002B24D1194C00230093194A002101A83C
:101C40000EF044FCFC225200164968460EF044FC9B
:101C500080256D012900200012F01AFB2A00694638
:101C6000200012F0F5FA86F310880EF0BFFF0E4B3D
:101C70001B78002B06D1074B00221A70CDE7962463
:101C80006403D8E708F06AF9074B00221A70F2E7FC
:101C900000F0FFFFE83D0020023E002000D01200CF
:101CA000FC0F0000A0180020F63D0020014B01228F
:101CB0001A707047F63D0020014B01221A707047E0
:101CC000E83D002070B5394B1888394B1D88FFF767
:101CD00053FE04002800FFF74FFE0500631C0BD0E5
:101CE000022C0FD0022D0DD0012C2CDD012D2ADD70
:101CF0000023002200262CE0431CF1D10023002207
:101D0000012626E0022C05D0022D0FD00023002250
:101D100000261EE0FC225200244926480EF0DCFB7F
:101D2000254B00221A700023002612E0FC225200EC
:101D30001F4920480EF0D0FB1F4B01221A700023D0
:101D40000022002605E00123012C15DDDBB2012273
:101D50000026002E12D1002A23D0002B18D1164BBA
:101D600001221A70134A21001048FFF71BFD0020C2
:101D7000FFF7A2FF300070BD0023E7E70E4B002203
:101D80001A70FFF737FE0020FFF796FF0026F1E7F5
:101D9000094B00221A70074A29000548FFF702FD87
:101DA000E5E7FFF7E9FC0126E4E7C04600D01210A2
:101DB00000C01210A0180020023E002010B5031C25
:101DC000642800D9642303497A22FF328B54FEF73A
:101DD000D5FE10BDA018002010B5022817D008D8D5
:101DE00000280DD001280FD10B4AF2235B00D152FD
:101DF0000AE0032808D1084AF4235B00D15203E02B
:101E0000054AF1235B00D15205F04CFA10BD024A9D
:101E1000F3235B00D152F7E7A018002030B50F4C38
:101E200040004508E068C00FC0072843E060490053
:101E300048082169C90FC9070143216152005108AF
:101E40006269D20FD2070A4362615B005A08A36934
:101E5000DB0FDB071343A36130BDC046A018002091
:101E6000062800DD0020014B98707047A018002064
:101E700010B5034B1B68002B00D0984710BDC0461F
:101E8000BC260020014B002018567047CF3D002093
:101E900010B588B00400284B1870022910D00C220D
:101EA000002105A80EF012FB1022002101A80EF05F
:101EB0000DFBE3B2062B0BD8A400204B1B599F4609
:101EC0001F4B204A1A6008F0F1FD0028E7D005E01A
:101ED0001B4B1D4A1A60002001F012FA08B010BD19
:101EE000174B194A1A60062001F00AFAF6E7144B5C
:101EF000154A1A60012001F003FAEFE7104B124A6D
:101F00001A60022001F0FCF9E8E70D4B0F4A1A6055
:101F100001AA05A90020FFF7ABFFDFE7084B0C4A39
:101F20001A6001AA05A90020FFF7A2FFD6E7044B1B
:101F3000084A1A60D2E7C046CF3D0020F0430110A6
:101F4000BC26002049AD0010B13300107D8A00107E
:101F5000A5940010959A0010F0B5C64600B590B053
:101F600004000D0016001F0016AB1B789846494B65
:101F7000984200D188E00721380009F01BF90123BD
:101F800000933A00290020000FF0E8F91022002108
:101F900008A80EF09BFA80235B020893F8235B02EB
:101FA00009938023DB020A93C0231B030A931022A8
:101FB00008A904A80EF090FAF31C059A039236497A
:101FC0001140F20111431B0319430591079B039331
:101FD000DB00DB0880229205134307932F4B194047
:101FE0000591102204A90CA80EF076FA0F9B03931A
:101FF0002B4A1A40BF0217430F974346002B45D088
:1020000020220E9B03932749194080239B020B43F8
:102010005206F82189050A4013430E939B009B0842
:102020008022D20513430E9305200AF045FF1E4976
:102030000CF020FA0DF0D1FE80460DF027FF87B29C
:10204000002F25D038000DF0C8FE011C40460DF0D1
:1020500050FE8721C9050DF06CFE0DF017FFC0B2D0
:1020600000023F0407430C970CAB3200290020000C
:102070000FF0C6F922680123AB409A431343236053
:1020800010B080BCB846F0BD062175E71822B8E74D
:102090000020E5E7000020507F00FEFFFFFFFF9FCC
:1020A000FF83FFFFFFFFF5C10050C300014B01227A
:1020B0001A707047DE3D002070B5244B1B78002B52
:1020C00017D1234B00221A70204B01321A700024C2
:1020D000032C09D80FF03CF806210CF0CBF91D4B6E
:1020E00019550134E4B2F3E71B4B00221A700024A7
:1020F00027E0194B1B78002BF9D1184B1A78930065
:10210000D218FA2A00D9FA22FF231A409B1A9BB24E
:10211000134A1380134A13800F4B01221A70E6E70B
:102120000C4D2B5D72339B000F4A9958A2000F4B48
:10213000D1500FF00DF806210CF09CF9295501340F
:10214000E4B2032CECD9FFF7B1FF70BDDD3D0020F8
:10215000C63D0020D4260020C5140020C314002052
:10216000AC3D0020A83D0020A0180020142B00202A
:10217000034B1980034B1860034B00221A70704701
:10218000AA3D0020E82A0020DB3D002070B50500B4
:102190000C0000880DF021FE1B490DF0B4FD1B4919
:1021A0000DF0C7FD0DF072FEC2B22B79A978C943BC
:1021B000C9B25943090A5B1ADBB23F2528402D1AE0
:1021C000EDB2584380096B439B11DBB20818C0B2D3
:1021D000CB18DBB23F2A10D9403AD2B23F2A06D8F8
:1021E0001A060B061B0A0002134318430AE00906ED
:1021F00000041B020843184304E000061B04090204
:1022000018430843206070BD00007F4300003F4337
:10221000F8B5CE46474680B50400234B1D78002D07
:1022200005D100230360C0BCB946B046F8BD642D9B
:10223000F9D08778E678B81963789846C0180DF019
:10224000D1FD1A490DF05FFD814628000DF0C5FD56
:1022500017490DF058FD051C011C48460DF0A8FD5E
:102260000028E0D14946281C0DF04DFD051C380022
:102270000DF0B3FD291C0DF05CFD0DF007FEA07004
:1022800030000DF0AAFD291C0DF053FD0DF0FEFDF0
:10229000E07040460DF0A1FD291C0DF04AFD0DF047
:1022A000F5FD6070BFE7C046C214002000007F4308
:1022B0000000C842F0B5D6464F464646C0B50400B9
:1022C0000368002B35D083789846C778D81966788C
:1022D00080190DF087FD051C40460DF07EFD8046FF
:1022E000291C0DF010FD824638000DF076FD071C0C
:1022F000291C0DF008FD814630000DF06EFD061C16
:10230000291C0DF000FD051C514640460DF011FD45
:102310000DF0BCFDA0704946381C0DF00AFD0DF013
:10232000B5FDE070291C301C0DF003FD0DF0AEFD75
:102330006070E0BCBA46B146A846F0BD30B585B085
:102340001D4B1B78002B0FD10024032C09D80EF055
:10235000FFFEFF210CF08EF8184B19550134E4B242
:10236000F3E7154B01221A7000241FE0134D2B5D7B
:10237000134A1078C018FF210CF054F8C9B229553F
:1023800002A80180FF23438083800023019301A9D9
:10239000FFF7FCFE01A8FFF73BFF0A48A300019AE4
:1023A0001A50C018FFF786FF0134E4B2032CDDD9C0
:1023B000FFF77CFE05B030BDDD3D0020C02A0020C7
:1023C000C3140020142B002000220AE093000649C9
:1023D0005958064B5B68DB03FBD4044B196101328F
:1023E000D2B2032AF2D97047EC2A00200000205014
:1023F000F8B5DE4657464E464546E0B506000D00A8
:10240000141C80780DF0E9FC8046F0780DF0E5FCB6
:10241000071C70780DF0E1FC061CA8780DF0DDFCBF
:102420008346E8780DF0D9FC824668780DF0D5FC3B
:102430008146414658460DF05CFC211C0DF079FCAC
:1024400041460DF05BFC051C391C50460DF051FC5B
:10245000211C0DF06EFC391C0DF050FC071C311CCA
:1024600048460DF046FC211C0DF063FC311C0DF0BC
:1024700045FC061C281C0DF009FDC5B2381C0DF0EA
:1024800005FDC4B2301C0DF001FDC0B22D040002E8
:10249000240628432043F0BCBB46B246A946A046CA
:1024A000F8BD000000B583B000230093082806D8CB
:1024B0008000174B1B589F46FF231B0400930023EB
:1024C0000193144A01A96846FFF792FF0023002BED
:1024D00018D003B000BDFF231B020093EFE70E4BA3
:1024E0000093ECE7FF231B060093E8E70B4B0093F8
:1024F000E5E70B4B0093E2E70A4B0093DFE70A4B5B
:102500000093DCE7094A043A10600133DFE7C04674
:102510000C4401106666663F0000FFE60000FF4DB8
:1025200000F115FF00D0FF2B00FF6100142B0020ED
:1025300010B5054B1870FFF7B5FF044B00221A7059
:10254000FFF7B4FD10BDC046E03D0020DD3D00209A
:10255000F8B52B4B18880DF045FC011CFE208005BA
:102560000DF0D1FB041C274B1B78002B0AD1264B06
:102570001D78234B1B889D4216D9244B18780028C0
:1025800030D0F8BD224B1878FFF78CFF214A224B40
:1025900023CB23C21B68136000231B4A1370194A04
:1025A00013701A4A1370E2E728000DF016FC211C84
:1025B0000DF0BFFB061C00240BE0A7001749C9194A
:1025C0001448C019321CFFF713FF134BD8510134C4
:1025D000E4B2032CF1D901350B4B1D70FFF7F4FE6B
:1025E0000020CEE70C4A0D4B13CB13C21B681360BF
:1025F000FFF7EAFE054B01221A700120C1E7C04631
:10260000A83D0020DE3D0020C7140020C414002097
:10261000E03D0020042B0020EC2A0020142B002099
:10262000F0B5C64600B506000F0015009846002418
:102630000AE0335D9B004246EA50305D8000281876
:10264000FFF738FE0134E4B2BC42F2D380BCB84696
:10265000F0BD0000031C642800D96423014A1370F4
:102660007047C046C214002030B583B00500002476
:102670000CE0019501A8FFF7CBFD0648A300019AE5
:102680001A50C018FFF716FE0134E4B2032CF0D93B
:1026900003B030BD142B002010B509480388094A47
:1026A00012789B18FF2213400380074C2100FFF78C
:1026B0006DFD2068FFF7D8FFFFF7F8FC10BDC0469E
:1026C000BC140020C3140020BC2A002010B51A4BF3
:1026D0001B78002B17D1194A1370174A012111706A
:1026E000174A1370154C237872339B00154A98587B
:1026F000FFF7BAFF2078013006210BF093FE21701E
:10270000FFF7D4FC10BD0E4B1B78002BEAD10E4B0B
:102710001B789A009B18FA2B00D9FA23FF221A4043
:10272000FF239B1A9BB2094A1380094A1380044B6A
:1027300001221A70D6E7C046DD3D0020C63D0020CC
:10274000C6140020A0180020C3140020AC3D0020B7
:10275000A83D002010B50F4B1B78002B10D10E4B5D
:102760001B68002B02D10C4B0C4A1A600A4B1868EC
:10277000FFF77AFFFFF79AFC064B01221A7010BD93
:102780000020FFF771FFFFF791FC024B00221A7047
:10279000F5E7C046003E0020FC2A00200000FFE6CE
:1027A00070B5184B1C78002C05D0174B1B78002BEC
:1027B00019D0200070BD154B154A23CA23C3190038
:1027C00013680B60134B1868FFF74EFF124B1A8803
:1027D000124B1A80FFF76AFC0A4B01221A700A4B4F
:1027E00000221A70E5E70E4B084A23CA23C31900DA
:1027F00013680B60FFF75AFC034A13780133137018
:10280000D7E7C046DB3D0020073E0020A43900206A
:10281000EC2A0020002B0020AA3D0020A83D00202B
:10282000142B002010B50D4B1C78002C06D00C4B3F
:102830001B68002B00D09847200010BD0020FFF738
:1028400013FF0020FFF72EFEFFF730FC054B1A8820
:10285000054B1A80014B01221A70EDE7DB3D002089
:10286000682B0020AA3D0020A83D002070B50C0078
:102870000F2803D88000284B1B589F460126274D60
:102880002BE00126264D28E00126264D25E00126D5
:10289000254D22E00126254D1FE00126244D1CE098
:1028A0000126244D19E00126234D16E00126234D73
:1028B00013E00126224D10E00126224D0DE00126F5
:1028C000214D0AE00126214D07E00126204D04E0BC
:1028D0000126204D01E004261F4D002A12D02300BE
:1028E0001E4A31002800FFF79BFE23001C4A3100DE
:1028F0002800FFF795FE23001A4A31002800FFF751
:102900008FFE70BD2300164A31002800FFF788FEB5
:10291000FFF7CCFBF5E7C04630440110B44401108A
:1029200094440110A44401109044011098440110F3
:10293000AC440110BC440110B8440110884401109B
:102940008C4401109C440110C0440110B04401109B
:10295000C4440110A8440110A0440110042B00201D
:10296000142B0020EC2A002070B50C4B1968402273
:102970000B480DF0B1FD00240CE0A300084DED184C
:102980002800FFF745FC296800222000FFF76EFFB2
:102990000134E4B20F2CF0D970BDC046242B0020C6
:1029A000282B002010B5024B1860FFF7DDFF10BD8B
:1029B000242B002010B5074B1B78002B00D010BD36
:1029C0000548FFF7EFFFFFF771FB024B01221A707A
:1029D000F5E7C046DD3D002048190020144AF023E9
:1029E0005B00D35C834209D0002B03D1E133FF337A
:1029F0000521D1540E4AF0235B00D0540C4AF02339
:102A00005B00D25C0B4B1A700B4B1B78052B0AD06A
:102A10000A4B15221A80094B1A88094B1A80094B58
:102A200000221A707047084B1A88044B1A80F2E78C
:102A3000A0180020C3140020DC3D0020AC3D002085
:102A4000A83D0020DD3D0020AE3D002010B5054B27
:102A500018604908044C2000FFF78AFB034B1C60F8
:102A600010BDC046002B0020A1270010E82A00203E
:102A700010B5064B1870064B00221A60054B196002
:102A800019210548FFF774FB10BDC046E13D002049
:102A9000E42A0020682B00202528001070B582B0A1
:102AA00004000D00244B1B78002B0CD0234B1C7012
:102AB0000023234A1370234A1370052C16D8A40050
:102AC000214B1B599F46214E214930000EF02AFC14
:102AD000020000230093153300213000FFF73CFA79
:102AE000154B01221A70FFF76FFCDFE7194B1A4AEA
:102AF0001A601A4AF0235B00D05CFFF76FFF2800D2
:102B0000642D00DD6420C0B2FFF7A4FD02B070BDEB
:102B1000104B134A1A60ECE70E4B124A1A60E8E7B2
:102B20000C4B114A1A60E4E70A4B104A1A60E0E7BE
:102B3000084B0F4A1A60DCE7DF3D0020DC3D002037
:102B4000DD3D0020E23D00207044011000002050D7
:102B5000C8440110E42A0020B5290010A018002064
:102B6000992600103D23001055270010CD26001097
:102B7000B920001010B5FF2903DC002902DA152165
:102B800000E0FF21044B1980044B18601E21052032
:102B9000FFF784FF10BDC046AE3D0020FC2A002098
:102BA00010B5144A144900F0D5F9002800D110BD21
:102BB000FFF7CEFC002803D1104B1B78002BF6D07A
:102BC0000F4B1B68002B0ED098470028EFD0002435
:102BD0000B4B1C600B4AF0235B00D05CFFF7FEFE42
:102BE000094B1C70E3E7094B1B68002BDFD09847AB
:102BF000DDE7C0464C3800201A410000E23D0020CD
:102C0000E82A0020A0180020DD3D0020E42A002052
:102C100010B586B00D4B1C78002C03D0002420008A
:102C200006B010BD05AA0A4B1978117004AB1970D3
:102C3000084902910121019100930123693106485D
:102C400000F05AFA0028EADD0134E8E7F43D0020FC
:102C500000500110102700000817002010B5FFF7E2
:102C6000D7FF002802D1024B01221A7010BDC046C6
:102C7000F43D002030B585B0104B1B78002B1BD1E4
:102C80001E25002412E003AA0D4B13800D4B019367
:102C90000023009302336A210B4800F0A1F90400DD
:102CA000322009F019FC0AF0A5F9013D002C01D1F0
:102CB000002DE8D1FEF74CFB05B030BDF43D0020FF
:102CC00009C1FFFFA08601000817002010B584B0DD
:102CD0000400174B1B78002B19D1164B18802328A2
:102CE00017D8C0B20538C0B27F231840002C00D1DD
:102CF000852004236A46137350730F4B01930023FE
:102D00000093023303AA6A210C4800F069F904B069
:102D100010BDAF235B00984207D828380A210BF07A
:102D200081FBC0B21F30C0B2DEE7AF204000F4E745
:102D3000F43D0020B43D00201027000008170020BB
:102D400070B5094B1B78002B0CD1084B1D88002057
:102D5000FFF7BCFFFEF77AFA04002800FFF7B6FF82
:102D6000200070BD6424FBE7F43D0020B43D00204A
:102D700000B585B00D4B1B78002B12D1022812D064
:102D8000E02103AB0A221A705970094B019300230A
:102D90000093023303AA6A21064800F021F90228B1
:102DA000F3D105B000BDE421EBE7C046F43D0020BF
:102DB000102700000817002000B587B0114B1878C5
:102DC000002801D007B000BD05AA0F4B197811707B
:102DD00004AB19700D490291012101910093012367
:102DE00069310B4800F088F90230012807D904AB9B
:102DF0001A78084B1A70D0B2C007C00FE2E7012062
:102E0000E0E7C046F43D002000500110102700000C
:102E100008170020082E002010B52E4B1B78002B21
:102E200000D010BDFA212C4A490200F093F8002886
:102E3000F7D0FFF7C1FF294B1870002820D0284B8E
:102E40001B78002B20D0264B1B78002B27D1244B3E
:102E50001B78002BE5D0234B1B785B069A0F224989
:102E600009788A42DDD0022A29D853B2002B2BD10F
:102E7000FF2000041C4B1A706421FFF77BFED0E793
:102E80001A48FEF7B7FADAE7FEF748FA0028DAD070
:102E9000154B00221A70124B01321A70D7E7FEF759
:102EA0003DFA0028D3D10E4B00221A70104AE223BB
:102EB0005B00D05C02214942FFF7F0FDC7E7032A1F
:102EC000D6D1FF200002D5E7FF231B04E620000631
:102ED0001843CFE7F43D002084380020C23D002095
:102EE000033E0020082E0020FC3D00202914001085
:102EF000A018002010B50022002100200AF0CCF814
:102F0000FEE70000072804D88000024B9C4660447E
:102F1000016070470C80054010B5072802D90024D5
:102F2000200010BD8000044B9C46604404680021D2
:102F30000520FFF7E7FFF3E70C80054010B501001F
:102F40000520FFF7DFFFFFF7D5FF10B50520FFF7DE
:102F5000E3FF10BD10605368834205D9C31A013BDB
:102F60008B4205D200207047834204D2C31AF7E790
:102F700050600120F7E70020F5E730B51860002A1F
:102F80000BD15C6884420BD9041B013C0025002D49
:102F90000BD1A14209D9100030BD58600020FBE7D9
:102FA000844205D2041B0025F1E758600120F3E7B5
:102FB0001000F1E710B501E00AF01CF80A210348FF
:102FC00011F00EF90028F7D010BDC04640170020C0
:102FD00010B5024811F01CF910BDC0464017002082
:102FE000F0B5D6464F464646C0B584B081460F0080
:102FF000924698460CAB1E78FFF7DCFF0D9C00252F
:1030000009F03AFB02000B1E18DB12196B41002B72
:103010001ADB002B1CDB02920393009643465246B8
:10302000390048460EF0D6FC0400FFF7D1FF20001F
:1030300004B0E0BCBA46B146A846F0BD074B084A0A
:103040003F2108480AF068F801225242064BE0E7A7
:10305000024B034A3F2103480AF05EF8D8440110AE
:1030600058450110F4440110FFFFFF7FF0B5D6462C
:103070004F464646C0B584B081460F0092469846FA
:103080000CAB1E78FFF796FF0D9C002509F0F4FAB3
:1030900002000B1E18DB12196B41002B1ADB002BF0
:1030A0001CDB029203930096434652463900484681
:1030B0000EF0AFFC0400FFF78BFF200004B0E0BC73
:1030C000BA46B146A846F0BD074B084A3F2108481A
:1030D0000AF022F801225242064BE0E7024B034A73
:1030E0003F2103480AF018F8D84401105845011050
:1030F000F4440110FFFFFF7FF0B5DE4657464E4611
:103100004546E0B585B08046894692469B46FFF726
:1031100051FF109C002509F0AFFA06000F1E31DBAD
:10312000A4197D41002D33DB002D35DB029403957E
:10313000012300935B465246494640460EF04AFC46
:10314000109C002509F098FA02000B1E2ADB1219C8
:103150006B41002B2CDB002B2EDB02920393002310
:1031600000930F9B0E9A494640460EF052FC040015
:10317000FFF72EFF200005B0F0BCBB46B246A946C3
:10318000A046F0BD0F4B104A3F21104809F0C4FF84
:10319000012464420E4DC7E70A4B0B4A3F210B48FE
:1031A00009F0BAFF074B084A3F21084809F0B4FF6D
:1031B00001225242064BCEE7024B034A3F2103480D
:1031C00009F0AAFFD844011058450110F444011039
:1031D000FFFFFF7F10B5FEF755FE022801D0024821
:1031E00010BD0248FCE7C046704501106046011062
:1031F00010B500200FF090FF10BD000010B5102199
:10320000064811F04DF8002800D110BD044B0122F2
:103210001A70024810F0FCFFF7E7C046481700207C
:10322000F23D002010B51021064811F039F80028B1
:1032300000D110BD044B00221A70024810F0E8FFC4
:10324000F7E7C04648170020F23D002070B50500A2
:1032500064210D4810F0C4FF041E09D10B4B22005D
:103260000B492800FFF789FE051E08D1200070BD1C
:10327000084B1C78E4B2044810F0CAFFEEE7FFF7F1
:10328000BDFF2C00F2E7C046481700204C3B002051
:10329000A0860100F23D0020037801330370044B47
:1032A0001B785BB2022B01D0024870470248FCE752
:1032B00084150020A8470110E04801100C4B18604D
:1032C0000C4B98420BD00C4B98420CD0FA235B006D
:1032D000984200D07047094B01221A60FAE7074B69
:1032E00004221A60F6E7054B08221A60F2E7C0468E
:1032F0009C2C0020461000008D200000942C002003
:1033000010B50400002002F067FE022C2CD0062C21
:103310001DD0012C10D0012002F05EFE1848FFF7EE
:10332000CDFF184B184A1A60184B194A1A60194BEE
:103330001C7010F0FDFA10BDFA204000FFF7BEFF30
:10334000104B154A1A60114B144A1A60EFE701201E
:1033500002F042FE1248FFF7B1FF0A4B114A1A6011
:103360000A4B0B4A1A60E2E7FA204000FFF7A6FF7B
:10337000044B0D4A1A60054B0C4A1A60D7E7C04649
:103380008D200000982C0020259C0010A02C0020EF
:10339000F13100108415002019A80010A93A00107E
:1033A00046100000C5AE001011820010353F00101D
:1033B000F8B506000C0015000120002140420FF076
:1033C0001FFA234B9F6C234B1B68BB421CD2FB1A7A
:1033D000214A12689A4202D8204B01221A70204BCF
:1033E0001968204A3000FFF7B5FD002802D01E4BB7
:1033F00001221A701D4B1B78002B0AD11C4B1B6835
:1034000098471A4B1870F8BDFB1A1A4A9446634441
:10341000DEE73000FFF71AFF0028F4D00F4B1B78CF
:10342000002BF0D0104B1B78002BECD0094B1F6009
:1034300000230A4A13700C4A13700C4A1370FFF7EA
:10344000F1FE0D4B1B68290020009847DBE7C046C2
:103450000000115098330020942C0020013E0020E1
:103460009C2C0020A03D00200A3E0020F33D0020BF
:10347000A02C0020FF070000982C0020084B1B7890
:103480005BB2022B07D0062B07D0012B01D00548D9
:1034900070470548FCE70548FAE70548F8E7C046E5
:1034A0008415002008520110F0470110CC4801108B
:1034B000805B0110084B1B785BB2022B07D0062BF8
:1034C00007D0012B01D0054870470548FCE70548A7
:1034D000FAE70548F8E7C04684150020C8510110F6
:1034E000C0470110A0480110545B01100020704734
:1034F00010B5134B1B785BB2022B13D0062B18D0E0
:10350000002B05D00B78002B0FD1FFF777FE0CE0D6
:103510000B78302B03D0212B01D0812B05D1FFF765
:103520006DFE02E00B78212B00D010BDFFF766FE88
:10353000FBE70B78012BF8D1FFF760FEF5E7C046FB
:103540008415002070B51D0004AB1E88434B002479
:103550001C57012C40D0022C12D0002C00D070BD82
:103560000029FCD1002AFAD12878102804D0320092
:10357000290001F00FF8F2E7A81C01F0E9FFEEE7DF
:103580000029ECD1002AEAD12B78112B05D0132B7E
:10359000E5D133480DF0F0F8E1E76B78002B19D056
:1035A000304B3148012505701904090CC1831A0CF0
:1035B0000284002242832D4C84832D490D701A040D
:1035C000120CCA831B0C0B8400234B838C83FDF7E6
:1035D0002DFAC4E70023E4E70029C0D1002ABED1B8
:1035E0002B78002BBBD16B78082BB8D1EC78002C52
:1035F00030D0A8780CF0F1FB1E490CF084FB061CBF
:103600002B79002B28D020000CF0E7FB19490CF097
:103610007AFB041C211C301C0CF0DAFB002800D0C3
:10362000341C1148012505702204120CC283230C9E
:103630000384002343830D4A82830D490D702304C4
:103640001B0CCB83240C0C8400234B838A83FDF753
:10365000EDF984E70026D3E70024DBE7841500209A
:10366000244701106666263FB4390020024300005B
:10367000803A002000007F43064B1B785BB2022B90
:1036800003D0062B03D1044870470448FCE70448E4
:10369000FAE7C04684150020945B011034480110FD
:1036A0001C52011070B5EE2824D0002825D08000CF
:1036B0001E4BC558280010F061FDC0B21F2800D96C
:1036C0001F20002327E05A1C194CA15C0902E25C70
:1036D0000A4344001749625202330130112BF2D9D8
:1036E000154A144B13CB13C211001A680A609B8849
:1036F0008B8019E000200023F0E70C4B19680222B0
:103700000E480CF0E9FE012007E05A1CEC5C510069
:10371000094BCC52D3B29842F7D801304000C023B5
:103720009B001843044B1880034870BDA814002068
:1037300068470110BC1F0020E0260020E226002080
:1037400000B591B04022694600200FF073FF0020C1
:103750000FF086FF064B1B785BB2002B01D011B037
:1037600000BD04480CF0D8FF684606F01BFCF6E7E5
:10377000841500203C470110F0B583B0050014000B
:10378000012966D113785B069B0F012B58D0022BC1
:1037900003D0002B01D000205CE06378022B24D002
:1037A000072B03D0012B19D0002053E02279637935
:1037B0001B021343042B03D0052B08D0002049E043
:1037C0002433264A210028000FF03EF942E08D33D1
:1037D000234A210028000FF037F93BE02823214A33
:1037E000210028000FF030F934E0227963791B02C0
:1037F0001343072B30D11C4B1B785BB2022B0FD02D
:103800006B469F1D194E0222310038000CF064FEF9
:103810003B883200083A210028000FF015F919E022
:103820006B469F1D124E0222310038000CF054FEF0
:103830003B883200083A210028000FF005F909E022
:1038400051780C480CF098FF210028000FF0E0F8A8
:1038500000E0012003B0F0BD0020FBE75C15002074
:10386000C81400207C47011084150020B4450110C5
:103870008C46011054470110012815D0022907D0A9
:1038800000290BD1022A29D0002A29D0062070470E
:10389000022A1FD0002A1FD00800F8E7022A21D0F0
:1038A000002A21D00820F2E7022907D000290BD1F5
:1038B000022A1FD0002A1FD00720E8E7022A15D0CD
:1038C000002A15D00320E2E7022AE0D0002A15D012
:1038D0000020DCE70120DAE70320D8E70720D6E75D
:1038E0000520D4E70020D2E70420D0E71000CEE77F
:1038F0000420CCE70820CAE70620C8E70520C6E771
:103900000120704710B58422002102480CF0DEFD32
:1039100010BDC046C430002010B50020FFF7F2FFF4
:1039200010BD0000F0B5C64600B580460D008B798D
:103930005D2B24D10B79DF00FF1ABFB21937BFB25C
:10394000974221D80C780C19002605E0104A5370D4
:103950000136F6B22378E4182B79B34210D9637894
:10396000052BF7D1210040460EF078FC00280DD041
:10397000A378DA09012AE9D0054A9370E8E700271D
:10398000380080BCB846F0BD0027F9E70027F7E70C
:10399000C430002030B583B0040014484078884219
:1039A00006D0124A92788A420CD0012003B030BD72
:1039B0000F4A002A18D09AB20E490020FFF798FD4E
:1039C0000120F3E70C4D9BB200932B000022002155
:1039D0000020FFF7B7FD2B00443B997840232A00D5
:1039E00020000EF0AFFCE1E70120DFE7C43000204B
:1039F000F1340010C83000200831002010B50EF05E
:103A000091FB002803D10023002B08D110BD0EF03C
:103A100091FB002801D10123F6E70023F4E70B4BCB
:103A2000997800200EF0CAFC0028EFD1074CA1784D
:103A30000EF060FC22004432A178402300200EF0FA
:103A400081FCA17800200EF069FCDFE7C430002083
:103A500070B505000C000EF06DFB002806D1812129
:103A600000200EF047FC002803D170BD0EF06AFB69
:103A7000F5E7231C402C00D940239CB2094E2200BC
:103A8000290030000CF028FD351F69782300320032
:103A900000200EF057FC697800200EF03FFCFFF785
:103AA000ADFFE2E7C830002010B5104B5C780EF097
:103AB00039FB002806D10023002B13D0002C09D19C
:103AC000002010E00EF036FB002801D10123F3E7BF
:103AD0000023F1E7210000200EF070FC002803D144
:103AE000013000E0002010BD0020FCE7C4300020C1
:103AF00010B53C22002102480CF0E8FC10BDC04685
:103B00007C27002010B50020FFF7F2FF10BD000059
:103B1000F0B583B006000F001500FEF7B3F90228D8
:103B20004CD13B79DC00E41AA4B21234A4B2AC420A
:103B300048D80023002B09D00025002D44D0397827
:103B400079184B78212B11D0002438E01A01D21AB1
:103B500092001F4882185278002A02D00133DBB24B
:103B6000E8E71A01D11A89004518E6E7A9630B783E
:103B7000C9183A796B1C0193AB1C009303233000E6
:103B80000EF086FB002821D0BB79012B13D0012336
:103B90002B71BB782B70AA6BD179137A1B020B4364
:103BA000EB80A97800290AD02A00303206233000A1
:103BB0000EF0C8FB03E0FB79EB70E8E7002420007F
:103BC00003B0F0BD0024FAE70024F8E70024F6E78C
:103BD0007C27002070B582B005001D4C0020002815
:103BE0000AD0002830D162788A4213D0A2788A4263
:103BF0001AD0012002B070BD0401241AA400144A96
:103C00001419A2788A42ECD062788A42E9D0013055
:103C1000C0B2E4E70F4A002A18D0210008319AB256
:103C2000FFF766FC0120E5E7260030369BB20093E3
:103C3000330000220021FFF785FCA1780623320023
:103C400028000EF07FFBD5E70020D3E70120D1E765
:103C50007C270020F1340010F0B5C64600B582B0D4
:103C60000600150012781F231340012B00D01FE11E
:103C700028790024002C0DD0FF24002C00D01CE15A
:103C80002700602318001040134239D101290BD0BE
:103C900001200EE123011B1B9B008E4FDB5D984230
:103CA000EBD00134E4B2E5E7EA786B78062B06D076
:103CB000062B00D005E1222A12D00020F9E0212AAB
:103CC000F6D123011F1BBF00824BDF19BA6B002AFC
:103CD00000D1F4E01378290030000EF0B5FEE8E0E2
:103CE0002000FFF7C9FC02003B01DF1BBF00794B3E
:103CF000DF19FB88290030000EF0A6FE0120D8E075
:103D0000202800D0DFE06B780B2B00D9DDE09B0092
:103D1000714AD3589F46012901D00120C9E0EA78B1
:103D2000A97823011B1B9B0008336A4FFF18A87951
:103D3000EB791B020343181C252B00D9252080B2E8
:103D4000002909D0012B16D97B1C9C4639700138FB
:103D500080B20123984602E0BC46002398460090BA
:103D600063462000FFF7C2FB030043449BB2002BD5
:103D700005D100209DE0BC4600239846EFE73A00BD
:103D8000290030000EF060FE012092E0012903D0EE
:103D9000032915D001208CE0AA79EB791B0213438B
:103DA000062B01D9002084E02201121B9200303240
:103DB00048498A18290030000EF046FE012078E0BC
:103DC000EA78A97823011B1B9B0030334148C318B4
:103DD000AE79E87900023043051C062800D9062593
:103DE000ADB2002904D0012802D91878884205D044
:103DF00000952000FFF7A6FB01205AE00133013DAA
:103E0000ADB2F5E7012901D0012052E0E9782301A4
:103E10001F1BBF002F4BDF197971304B002B04D0D3
:103E2000200000E000BF002843D0290030000EF041
:103E3000EFFD01203DE0012901D0012039E0220100
:103E4000171BBF00234AD219053201232900300075
:103E50000EF0FAFD01202CE0012901D0012028E01C
:103E60002201171BBF001B4AD2190432012329006B
:103E700030000EF0E9FD01201BE0012903D00329E9
:103E800007D0012015E0290030000EF0C1FD01200F
:103E90000FE0A97823011F1BBF000E4BDF193971FA
:103EA0000F4B002B13D0200000E000BF012000E0EA
:103EB000002002B080BCB846F0BD0020F9E7002029
:103EC000F7E70020F5E70020F3E70020F1E7012005
:103ED000EFE7C0467C2700200448011000000000E6
:103EE0000000000010B50301181A8000104B1818CC
:103EF00044780EF017F9002806D10023002B13D0C8
:103F0000002C09D1002010E00EF014F9002801D196
:103F10000123F3E70023F1E7210000200EF04EFA21
:103F2000002803D1013000E0002010BD0020FCE794
:103F30007C27002010B50020FFF7D4FF10BD000043
:103F4000F8B504000F0016001D0003011B1A9B00AA
:103F50001F4AD318597800200EF0CCF9002825D03C
:103F6000002F24D02B1C242D00D924239DB2184AC5
:103F70002301191B890051180F721B1B9B0008336A
:103F8000D01801302A0031000CF0A6FA0135ADB28C
:103F90000F4B2001021B920008329A18001B800070
:103FA000181841782B0000200EF0CCF9F8BD2B1C1E
:103FB000252D00D925239DB22001001B800008304B
:103FC000034B18182A0031000CF086FAE0E7C046CF
:103FD0007C27002010B513000A0001000020FFF725
:103FE000AFFF10BD107003120F20184050700B016E
:103FF00018435070091191707047000070B5124D50
:10400000802424012A0021002000FFF7EBFFEA1C96
:1040100021002000FFF7E6FFAA1D21002000FFF786
:10402000E1FF2A00093221002000FFF7DBFF2A0010
:104030000C3221002000FFF7D5FF2A000F322100AB
:104040002000FFF7CFFF70BD783D002010B5402263
:10405000002102480CF03AFA10BDC046DC2B0020CB
:10406000014B18707047C046EC3D0020014B18739F
:104070007047C046DC2B0020014B58737047C04688
:10408000DC2B002070B5FDF771F904000E4D2B6894
:10409000C01AC317C01858400AF0D4FC2C60002284
:1040A0000A4B0AF040FC0AF009FD094B00215A5E58
:1040B0001C7808490C70801882B200B21880FF2862
:1040C00001DDFF3A1A8070BDE038002000408F40CB
:1040D000B23D0020DC2B0020024B1A78024B5A70B4
:1040E0007047C046504A0110DC2B0020064B0422CA
:1040F0009A732F32DA73303A1A74013A5A740121E2
:1041000019765A767047C046DC2B002010B5C4B231
:10411000000A002307E019000E31044A545401310B
:1041200050540233DBB20D2BF5D910BDDC2B00202F
:104130000A4B01221A7000225A7003329A70084A00
:10414000117AD970D179197191795971517999711F
:104150001179D971D2781A727047C046DC2B0020D1
:10416000A018002010B50400FFF770FF8120FFF7B2
:1041700077FF012C09D0064B1C70064B19784023A1
:10418000034A00200EF0F0FF10BDFFF7D1FFF4E767
:10419000DC2B0020EC3D002070B586B06C462A4B2D
:1041A0000433220070CB70C270CB70C2022837D0AB
:1041B000032841D00023002500E00133052B10D84F
:1041C000224AD2187D32FF3214780522D21A885C36
:1041D0008442F2D01D4AD2187D32FF321070012580
:1041E000EBE7002D19D18120FFF740FF184801238C
:1041F0008373164B1A7AC273DA7902749A7942740D
:104200005A7982741A79C274DB78037515301822D2
:1042100069460CF061F906B070BDFDF74DFDE2E7AF
:104220008120FFF723FF0A48022383730F301022F7
:1042300008490CF051F9EEE78120FFF717FF044B16
:1042400003229A73E7E7C046504A0110A0180020E5
:10425000DC2B00205C2C002070B504000E00150043
:10426000FFF7F4FE2120FFF7FBFEFFF70BFFFFF740
:1042700033FF2000FFF700FF482C68D8A4003E4B16
:104280001B599F468020FFF7F1FE00236BE0F07A78
:10429000431E9841C0B201F09FFEF27A374B1A706C
:1042A0008020FFF7E3FEF0E731000C31F07AFFF7F2
:1042B00073FFEAE78020FFF7D9FEF27A304B1A70DD
:1042C000E3E78220FFF7D2FEFFF710FFDDE7802053
:1042D000FFF7CCFED9E79020FFF7C8FEF27BF17A1A
:1042E000307B00F039FAD0E72648FDF783F8CCE7B9
:1042F0008020FFF7BBFEC8E78320FFF7B7FE6420EE
:10430000FFF704FFC1E78020FFF7B0FEBDE7802084
:10431000FFF7ACFEF27A0F231340033BDAB20C2A0C
:1043200003D89300184AD3589F460120FEF700F99E
:10433000ABE70320FAE70420F8E70520F6E70620BC
:10434000F4E70720F2E70820F0E70220EEE7002379
:10435000AB4202D201339BB2FAE78020FFF786FE20
:1043600093E70133DBB21F2BFBD94023074A2121FE
:1043700000200EF0F9FE70BDF8480110ED3D002060
:1043800088150020291400101C4A0110DC2B002085
:1043900070B50C00150010280DD080280FD0012812
:1043A00000D070BD881C01F0D3F8A07A2A0021004B
:1043B000FFF752FFF5E7881C01F0CAF8F1E74878EB
:1043C000FFF7D0FEEDE70000094B1B780A2B07D062
:1043D0000B2B09D0064B0A221A70054B1878704730
:1043E000034B0B221A70F8E7014B0C221A70F4E70A
:1043F0008915002070B504005D4B1B78002B04D19B
:104400005C4B1B78302B0BD070BD5B4B1A885B4B21
:1044100018785B49FFF7BCFF554B00221A70F3E791
:10442000FFF714FE3020FFF71BFEFFF72BFEFFF710
:1044300053FE544B1B78012B2DD0022B00D18AE068
:104440002378514DAB706378EB70A3782B71E378D0
:104450006B7123790F210B40AB716079A3791B023B
:1044600003431B11EB71E3792B72237A19406972B4
:10447000617AA37A1B020B431B11AB72FFF7A4FFF7
:10448000E872424B197840232A0000200EF06CFE9F
:1044900003F040FAB8E701F043FC83783A4D2B7300
:1044A000C3786B730378AB734378EB7303792B7426
:1044B00043796B74037AAB74437AEB7483792B750D
:1044C000C3796B75837AAB75C37AEB7501F028FC01
:1044D00083782B76C3786B760378AB764378EB766C
:1044E00003792B7743796B77037AAB77437AEB7752
:1044F00082792023EA54C2790133EA54827A013363
:10450000EA54C27A0133EA5401F00AFC8278242387
:10451000EA54C2780133EA5402780133EA5442780B
:104520000133EA5402790133EA5442790133EA54FF
:10453000027A0133EA54427A0133EA548279013330
:10454000EA54C2790133EA54827A0133EA54C27AD6
:104550000133EA5474E70E4D280001F033F80A4B9A
:104560000C3307CD07C307CD07C307CD07C367E7E4
:10457000EE3D00208815002086150020EF3D00202C
:104580001C2C0020ED3D0020DC2B0020EC3D002009
:104590000039002010B5054B01241C70044B187025
:1045A000044B1A8004480BF097FF10BDEE3D00202D
:1045B000EF3D0020861500201C2C002010B5024B7A
:1045C00018180BF089FF10BDDC2B0020502800D1FB
:1045D000B0E003D960282FD0FF2010E0402800D998
:1045E000AAE0202805D34B2924D88B00564AD3585B
:1045F0009F46002803D0102800D09FE0002070477D
:104600009520FCE70020FAE72A39504B59187D31F4
:10461000FF310878F3E704394C4B59187D31FF31ED
:104620000878ECE70020EAE70020E8E76820E6E702
:104630000020E4E70020E2E7A92979D88B00444A6A
:10464000D3589F46FF20DAE70220D8E70120D6E7BB
:104650002320D4E70020D2E7B920D0E71A20CEE704
:104660000120CCE70020CAE74020C8E70020C6E7C9
:104670004020C4E70020C2E74020C0E70120BEE799
:104680000020BCE70120BAE70020B8E70120B6E728
:104690000020B4E73B20B2E73420B0E73B20AEE790
:1046A0003420ACE73B20AAE73420A8E73D39294B6A
:1046B000585CA4E73D39274B585CA0E71A209EE7D9
:1046C0001A209CE71A209AE75E2098E7012096E7D7
:1046D000502094E7FD2092E7002090E700208EE72D
:1046E000C6208CE70F208AE70F2088E7302086E776
:1046F000612084E7AE2082E7902080E7D9207EE722
:10470000D4207CE714207AE7542078E7412076E72C
:10471000152074E7542072E7C72070E779206EE710
:104720009C206CE733206AE7362068E7632066E761
:10473000002064E7002062E7FF2060E7FF205EE7DB
:1047400022205CE703205AE76C4A0110A0180020E1
:104750009C4B0110783D0020F0B58BB006000F0097
:10476000150008A90F70487000248C70CC700A7175
:1047700005220E20FFF722FF00941A22002101A833
:104780000BF0A4FE07E03919C9B23000FFF71EFF95
:104790006B4618550134A542F5DC2A006946132002
:1047A000FFF70CFF0BB0F0BD70B5002406E0281C2D
:1047B0000BF0ECFCA3000F4AD0500134A0235B00A7
:1047C0009C4215D220000BF008FBF42189050BF068
:1047D000B0FA8221C9050BF08CFA051C06490BF0D2
:1047E000EFFA0028E3D1A300024A00219950E4E740
:1047F00070BDC046BC1A00200000FEC010B50024E9
:1048000005E0A3001B4AC1210906995001347F2C01
:104810002FD8002CF5D00F2C0FD91F2C1BD920001E
:104820000BF0DBFAF42189050BF083FA12490BF047
:1048300060FAA3000F4AD050E8E720000BF0CDFA51
:10484000FA2189050BF075FA0C490BF052FAA30016
:10485000084AD050DAE720000BF0BFFAF6218905AC
:104860000BF067FA06490BF044FAA300014AD05056
:10487000CCE710BDD01F002000007E400000F840B3
:1048800000009E4010B500240EE020000BF0A5FAB9
:10489000F42189050BF04DFA8021C9050BF029FAA6
:1048A000A300034AD05001347F2CEED910BDC0467E
:1048B000D021002010B5041C0BF0B6FA0BF092FAD0
:1048C0008221C9050BF01AFA0BF0AEFA00280BD0C2
:1048D0008221C905201C0BF011FA8421C9050BF0B7
:1048E00028FA0BF0D3FA10BD0020FCE710B51C1C11
:1048F000022818D0032805D0002801D0201C10BDA4
:10490000141CFBE7101C0BF0F9F9041C02990BF0C6
:1049100049FA002809D10399201C0BF059FA002804
:10492000ECD0039CEAE70C1CE8E7029CE6E710B534
:10493000FFF73AFFFFF762FFFFF7A4FF10BD00008B
:1049400070B505000C0000786B781B020343AA7851
:1049500012041343E87800061843FFF7ABFF284E14
:104960008000805927490BF0E4F92070030A637036
:10497000030CA370000EE070287A6B7A1B020343CD
:10498000AA7A12041343E87A00061843FFF792FF4D
:10499000800080591C490BF0CCF92072030A637225
:1049A000030CA372000EE07228796B791B0203439B
:1049B000AA7912041343E87900061843FFF77AFF37
:1049C0008000335823711A0A62711A0CA2711B0EEF
:1049D000E371287B6B7B1B020343AA7B1204134306
:1049E000E87B00061843FFF765FF80003358237308
:1049F0001A0A62731A0CA2731B0EE37370BDC046D1
:104A0000BC1A00200000A04300002043F0B5DE46A1
:104A100057464E464546E0B589B005000C00C678BD
:104A2000B3091E000B700C22002105A80BF04EFDEF
:104A30000C22002102A80BF049FD002E0CD1012E02
:104A400000D99FE0022E00D932E109B0F0BCBB468C
:104A5000B246A946A046F0BDAA781209EB7801211A
:104A6000194009010A43DD4B984653009B189B00EF
:104A7000434405AA83CB83C200239B46A278E378F4
:104A80001B021343217909040B43627912061A436E
:104A90006B46587D8023DB050193C02109060091F8
:104AA0005B460799FFF722FFA21CA070030A9146FC
:104AB000E370030C2371000E6071C122120692464E
:104AC000A279E3791B021343217A09040B43627A2A
:104AD00012061A4306996B46187D5F4601975746A2
:104AE00000975346FFF702FFA071020AE271020C21
:104AF0002272000E6072EA789206D20E53009B1862
:104B00009B00434402AA83CB83C2A27AE37A1B02AE
:104B10001343217B09040B43627B12061A436B4645
:104B2000587A8023DB050193C021090600915B467A
:104B30000499FFF7DBFEA072020AE272020C2273F4
:104B4000000E6073A27BE37B1B021343217C0904EC
:104B50000B43627C12061A4303996B46187A5B4634
:104B6000019353460093FFF7C1FEA073020AE2735C
:104B7000020C2274000E6074210012314846FFF7C7
:104B8000DFFE5CE76B785B06DA0E944B98465300C9
:104B90009B189B00434405AA83CB83C200239B46FA
:104BA000A278E3781B021343217909040B4362794D
:104BB00012061A436B46587D8023DB050193C02102
:104BC000090600915B460799FFF790FEA21CA070B2
:104BD000030A9146E370030C2371000E6071C12239
:104BE00012069246A279E3791B021343217A090443
:104BF0000B43627A12061A4306996B46187D5F468C
:104C00000197574600975346FFF770FEA071020ABE
:104C1000E271020C2272000E60726A78D209A978E1
:104C20000F230B405B0013435A00D3189B004344EF
:104C300002AA83CB83C2A27AE37A1B021343217BAD
:104C400009040B43627B12061A436B46587A802391
:104C5000DB050193C021090600915B460499FFF72B
:104C600045FEA072020AE272020C2273000E60730B
:104C7000A27BE37B1B021343217C09040B43627C70
:104C800012061A4303996B46187A5B460193534602
:104C90000093FFF72BFEA073020AE273020C22744A
:104CA000000E6074210022314846FFF749FEC9E634
:104CB0002A78D206D10E05AF930E5B189B00474AA7
:104CC000944663443A0043CB43C200239A46A278F9
:104CD000E3781B021343217909040B43627912061E
:104CE0001A4378788023DB059B460193C0231B067B
:104CF000009353460799FFF7F9FDA21C9046A07058
:104D0000030AE370030C2371000E6071C1221206C6
:104D10009146A279E3791B021343217A09040B43DC
:104D2000627A12061A4306993878574601974F4619
:104D300000974B46FFF7DAFDA071020AE271020C00
:104D40002272000E60722A785209697803230B40A0
:104D5000DB00134302AD5A00D3189B001F4AD6183C
:104D60002A0083CE83C2A27AE37A1B021343217BFB
:104D700009040B43627B12061A4368785946019175
:104D8000C0231B06009353460499FFF7AFFDA072A2
:104D9000020AE272020C2273000E6073A27BE37BB4
:104DA0001B021343217C09040B43627C12061A4345
:104DB00003992878534601934B460093FFF796FDDD
:104DC000A073020AE273020C2274000E60742100C8
:104DD00032314046FFF7B4FD37E6C046444E01107D
:104DE00070B50200C3789B090B700478A408407862
:104DF000012303409B0123431A4D9B00881CEB5861
:104E00008B701C0A44701C0C84701B0EC37093784A
:104E10005B06DB0DEB588B721D0ACD721D0C0D73FA
:104E20001B0E4B7353785B080F4C9B00E3588B7140
:104E30001E0ACE711E0C0E721B0E4B729578ED0978
:104E4000D2783F2313405B002B439B00E3588B73C6
:104E50001C0ACC731C0C0C741B0E4B741231FFF724
:104E60006FFD70BDD0210020D01F0020F0B5DE46C0
:104E700057464E464546E0B589B005000C000C2269
:104E8000002105A80BF022FB0C22002102A80BF048
:104E90001DFBEE78B3091E1E23706ED02B78DB0746
:104EA00000D473E02B785B089B00B649CB58A37005
:104EB000190AE170190C21711B0E6371A978C909D7
:104EC000EA783F2313405B000B439B00AE49CB586D
:104ED000A371190AE171190C21721B0E6372AA7871
:104EE0005206D20E02AB994653009A189200A74B75
:104EF0009B184A4683CB83C200239846A27AE37A62
:104F00001B021343217B09040B43627B12061A43E5
:104F10004B4658788023DB050193C0231B06009382
:104F2000434649468968FFF7E1FCA072020AE27233
:104F3000020C2273000E6073C1231B06A27BE17B6F
:104F400009021143207C00040143627C12060A43DB
:104F50004946496848460078474601970093FFF75D
:104F6000C5FCA073020AE273020C2274000E607486
:104F7000A01C21001231FFF7E3FC012E6DD809B00F
:104F8000F0BCBB46B246A946A046F0BD2B785B08F4
:104F90009B007C4AD358A372190AE172190C217341
:104FA0001B0E6373A978C909EA783F2313405B009D
:104FB0000B439B00744AD358A373190AE173190C6D
:104FC00021741B0E6374AA785206D20E05AB994663
:104FD00053009A1892006D4B9B184A4683CB83C2AC
:104FE00000239846A278E3781B0213432179090431
:104FF0000B43627912061A434B4658788023DB052F
:105000000193C0231B060093434649468968FFF776
:105010006DFCA070020AE270020C2271000E607139
:10502000C1231B06A279E17909021143207A000409
:105030000143627A12060A434946496848460078A5
:10504000474601970093FFF751FCA071020AE271F5
:10505000020C2272000E60728AE76A78D206D10EC4
:1050600005AF930E5B189B00484A944663443A0090
:1050700043CB43C200239A46A278E3781B02134332
:10508000217909040B43627912061A437878802348
:10509000DB059B460193C0231B06009353460799EB
:1050A000FFF724FCA21C9046A070030AE370030CD7
:1050B0002371000E6071C12212069146A279E37934
:1050C0001B021343217A09040B43627A12061A4326
:1050D00006993878574601974F4600974B46FFF799
:1050E00005FCA071020AE271020C2272000E6072CD
:1050F0006A785209A97803230B40DB00134302AD01
:105100005A00D3189B00214AD6182A0083CE83C2A6
:10511000A27AE37A1B021343217B09040B43627BCF
:1051200012061A43687859460191C0231B06009362
:1051300053460499FFF7DAFBA072020AE272020CEE
:105140002273000E6073A27BE37B1B021343217C5E
:1051500009040B43627C12061A43039928785346CC
:1051600001934B460093FFF7C1FBA073020AE27361
:10517000020C2274000E6074210022314046FFF7B9
:10518000DFFBFCE6D0210020D01F0020444E0110A0
:10519000F0B5DE4657464E464546E0B589B00500B7
:1051A0000C000C22002105A80BF090F90C22002124
:1051B00002A80BF08BF9EE78B3091E1E23701AD0EB
:1051C0002B78DA0735D55B0721D5A978C909EA78A4
:1051D0003F2313405B000B439B00BC49CB58A3709B
:1051E000190AE170190C21711B0E6371A01C2100BA
:1051F0001231FFF7A5FB012E41D8022E00D9D4E0D1
:1052000009B0F0BCBB46B246A946A046F0BDA9789D
:10521000C909EA783F2313405B000B439B00AC496C
:10522000CB58A371190AE171190C21721B0E63721C
:10523000DCE75B0711D5A978C909EA783F23134059
:105240005B000B439B00A14AD358A372190AE17279
:10525000190C21731B0E6373C8E7A978C909EA7892
:105260003F2313405B000B439B00994AD358A37321
:10527000190AE173190C21741B0E6374B6E76A787E
:105280005209AB7803211940C9000A43914B984653
:1052900053009B189B00434405AA83CB83C2002381
:1052A0009B46A278E3781B021343217909040B4340
:1052B000627912061A436B46587D8023DB05019301
:1052C000C021090600915B460799FFF70FFBA21C5E
:1052D000A070030A9146E370030C2371000E607105
:1052E000C12212069246A279E3791B021343217A66
:1052F00009040B43627A12061A4306996B46187D1D
:105300005F460197574600975346FFF7EFFAA071A3
:10531000020AE271020C2272000E6072AA78520632
:10532000D20E53009B189B00434402AA83CB83C236
:10533000A27AE37A1B021343217B09040B43627BAD
:1053400012061A436B46587A8023DB050193C0216D
:10535000090600915B460499FFF7C8FAA072020A99
:10536000E272020C2273000E6073A27BE37B1B02CD
:105370001343217C09040B43627C12061A430399F0
:105380006B46187A5B46019353460093FFF7AEFADB
:10539000A073020AE273020C2274000E60742100F2
:1053A00022314846FFF7CCFA27E72A78D20805AF22
:1053B00053009B189B00474A944663443A0043CBF2
:1053C00043C200239A46A278E3781B021343217953
:1053D00009040B43627912061A4378788023DB05AF
:1053E0009B460193C0231B06009353460799FFF782
:1053F0007DFAA21C9046A070030AE370030C23718F
:10540000000E6071C12212069146A279E3791B0257
:105410001343217A09040B43627A12061A43069950
:105420003878574601974F4600974B46FFF75EFA8C
:10543000A071020AE271020C2272000E60726B7897
:10544000DB06DA0E02AD9B0E9B189B00214A9446A8
:1054500063442A0043CB43C2A27AE37A1B0213437C
:10546000217B09040B43627B12061A436878594674
:105470000191C0231B06009353460499FFF736FAA7
:10548000A072020AE272020C2273000E6073A27B09
:10549000E37B1B021343217C09040B43627C12064D
:1054A0001A4303992878534601934B460097FFF718
:1054B0001DFAA073020AE273020C2274000E6074DB
:1054C000210032314046FFF73BFA99E6D021002017
:1054D000D01F0020444E011010B5C3789B09022B49
:1054E00026D0032B30D0012B07D00022002088715A
:1054F000C871087248720A7010BD047842781202AE
:10550000144383781B042343C4783F2222401206AD
:105510001A431B0306D0930707D09307ECD5FFF778
:1055200037FEE9E7FFF772FAE6E7FFF759FCE3E732
:10553000047843781B0223439B0502D1FFF766FAE8
:10554000DAE7FFF793FCD7E7FFF760FAD4E700004C
:1055500070B504000822010016480AF0BDFF164B82
:105560001B78002B0CD0154D29002000FFF7B4FF4D
:10557000201D1349FFF7B0FF2B78002B15D170BD0C
:105580000E4B0022DA80C12212021A810021D98139
:105590001A82598099801A00598100239381FFF75C
:1055A000C6F9054B01221A70DDE705490348FBF7F0
:1055B0003DFAE4E7703D0020CD3D0020BC370020DF
:1055C00000380020F0B5DE4657464E464546E0B569
:1055D00085B004008379032293430222134383712D
:1055E0000125002601E00135EDB2032D0CD8844BD6
:1055F000AA00D058B200D158490049080AF0E8FB87
:105600000028F0D02E00EEE7032333409A00A37960
:105610000C218B431343A371002509E079494046CF
:105620000AF087FBAF000AF0FFFB01ABD851013550
:10563000022D15DC7219013203231340704F9B00B9
:10564000D8599D21C9050AF074FB8046B300D8598A
:1056500000210AF0A7FB0028E0D1FE218905DEE742
:10566000019B9B12DB02D90A0F2211400901A0798C
:1056700002400A43A271D90BE171D90D2172DB0FEF
:10568000012601210B40607AB04303436372029B01
:105690009D127F20824605406F00657A0D403D4394
:1056A00065725B149B049B0CA3721B0A3F273B4053
:1056B000E57A403885432B43E372039B9A12944664
:1056C000032503226046104080018446E07A0740AB
:1056D00060460743E7721B135B035F0BA774580D0B
:1056E000E0745B0F0720804603409B46207D844684
:1056F0000720814660464B469843030058461843AE
:105700002075C3B240460340237500236375A3751B
:10571000E37D18308343E375E77D1F233B40E3754A
:105720000023A3772700E37FAB43E377DBB213408B
:10573000E3771E37BB78B343BB701F36A35D0B40C6
:10574000A3550136A35D60308343A3552E4B1B68E0
:105750001940C9018846A05D5146014008004146F4
:105760000143A1555B089B059B0D3B711B0A134030
:105770007979A9430B437B712323E15C0A400C2117
:105780000A43E2541E4A138AA3701B0AE370538A29
:1057900023701B0A6370938A23711B0A6371FBF7E2
:1057A000E5FD1A4B1C68844227D9041B013C174BAA
:1057B0001860174B1A68944664441C60FA239B00D7
:1057C0009C4213D91900200008F054FE104B1960B8
:1057D000601AFA21890008F04DFE0B4C23689C46A4
:1057E000604420600B4908F045FE216005B0F0BC24
:1057F000BB46B246A946A046F0BD041BD7E7C0464B
:105800008C150020000080BF7C390020E438002087
:1058100048310020FF070000F0B5DE4657464E46EF
:105820004546E0B585B004000D00C3689A46CE68D1
:10583000311C181C0AF07DFA071C236898462B6857
:105840009B46191C40460AF074FA011C381C0AF0E9
:1058500050FA071C63686A689146111C0093181C73
:105860000AF067FA011C381C0AF043FA0190A76895
:10587000AD68291C381C0AF05CFA011C01980AF07A
:1058800038FA0190594650460AF053FA02904146C0
:10589000301C0AF04EFA011C02980AF02FFA02900E
:1058A000291C00980AF045FA011C02980AF026FA11
:1058B0000290391C48460AF03CFA011C02980AF092
:1058C00018FA0290494650460AF033FA0390291C10
:1058D00040460AF02EFA011C03980AF00AFA0390D7
:1058E0000099301C0AF025FA011C03980AF006FA08
:1058F0000390391C58460AF01CFA011C03980AF060
:10590000FDF90390291C50460AF013FA051C49467C
:1059100040460AF00EFA011C281C0AF0EFF9051C9B
:10592000009958460AF005FA011C281C0AF0E1F912
:10593000051C391C301C0AF0FCF9011C281C0AF05B
:10594000DDF9019BE360029B2360039B6360A06021
:1059500005B0F0BCBB46B246A946A046F0BD70B546
:1059600004000168081C0AF0E4F9051C6168081CC1
:105970000AF0DFF9011C281C0AF0C0F9051CA16817
:10598000081C0AF0D6F9011C281C0AF0B7F9051CFE
:10599000E168081C0AF0CDF9011C281C0AF0AEF9D8
:1059A0000AF086FA011CFE2080050AF0ACF9051CFD
:1059B000011C20680AF0BDF92060291C60680AF00B
:1059C000B8F96060291CA0680AF0B3F9A060291C2E
:1059D000E0680AF0AEF9E06070BD0000F0B5DE46A8
:1059E00057464E464546E0B589B080460D00080052
:1059F0000AF0F3F9041C934E30680AF0EEF9011C2A
:105A0000201C0AF076F944006408356043461A7A8F
:105A1000587A00021043000400140AF0E3F98A499E
:105A20000AF087F989490AF06EF90AF037FA884ACC
:105A3000884B08F096FF0022874B08F074FF002285
:105A4000864B08F070FF06000F00201C0AF026FAB3
:105A500004000D0002000B003000390008F081FF47
:105A600009F044F8824643469A79D87900021043F7
:105A7000000400140AF0B6F973490AF05AF97349A0
:105A80000AF041F90AF00AFA714A724B08F069FF0C
:105A90000022714B08F047FF0022704B08F043FFD3
:105AA00002000B002000290008F05BFF09F01EF83F
:105AB000814643469A7AD87A0002104300040014C3
:105AC0000AF090F960490AF034F960490AF01BF9CC
:105AD0000AF0E4F95E4A5F4B08F043FF00225E4B98
